{
	"contracts/SimpleBank/SimpleBank.sol": {
		"SimpleBank": {
			"abi": [
				{
					"inputs": [],
					"stateMutability": "nonpayable",
					"type": "constructor"
				},
				{
					"anonymous": false,
					"inputs": [
						{
							"indexed": false,
							"internalType": "address",
							"name": "_user",
							"type": "address"
						},
						{
							"indexed": false,
							"internalType": "string",
							"name": "_name",
							"type": "string"
						}
					],
					"name": "AddAccountEvent",
					"type": "event"
				},
				{
					"anonymous": false,
					"inputs": [
						{
							"indexed": false,
							"internalType": "address",
							"name": "_from",
							"type": "address"
						},
						{
							"indexed": false,
							"internalType": "string",
							"name": "_to",
							"type": "string"
						},
						{
							"indexed": false,
							"internalType": "uint256",
							"name": "_amount",
							"type": "uint256"
						}
					],
					"name": "DepositEvent",
					"type": "event"
				},
				{
					"anonymous": false,
					"inputs": [
						{
							"indexed": false,
							"internalType": "string",
							"name": "_from",
							"type": "string"
						},
						{
							"indexed": false,
							"internalType": "string",
							"name": "_to",
							"type": "string"
						},
						{
							"indexed": false,
							"internalType": "uint256",
							"name": "_amount",
							"type": "uint256"
						}
					],
					"name": "TransferAmountEvent",
					"type": "event"
				},
				{
					"anonymous": false,
					"inputs": [
						{
							"indexed": false,
							"internalType": "string",
							"name": "_from",
							"type": "string"
						},
						{
							"indexed": false,
							"internalType": "address",
							"name": "_to",
							"type": "address"
						},
						{
							"indexed": false,
							"internalType": "uint256",
							"name": "_amount",
							"type": "uint256"
						}
					],
					"name": "WithdrawnEvent",
					"type": "event"
				},
				{
					"inputs": [
						{
							"internalType": "string",
							"name": "_name",
							"type": "string"
						}
					],
					"name": "addAccount",
					"outputs": [],
					"stateMutability": "nonpayable",
					"type": "function"
				},
				{
					"inputs": [
						{
							"internalType": "string",
							"name": "_name",
							"type": "string"
						}
					],
					"name": "deposit",
					"outputs": [],
					"stateMutability": "payable",
					"type": "function"
				},
				{
					"inputs": [
						{
							"internalType": "string",
							"name": "_name",
							"type": "string"
						}
					],
					"name": "getAccountByName",
					"outputs": [
						{
							"components": [
								{
									"internalType": "address",
									"name": "owner",
									"type": "address"
								},
								{
									"internalType": "string",
									"name": "name",
									"type": "string"
								},
								{
									"internalType": "uint256",
									"name": "balance",
									"type": "uint256"
								}
							],
							"internalType": "struct SimpleBank.Account",
							"name": "",
							"type": "tuple"
						}
					],
					"stateMutability": "view",
					"type": "function"
				},
				{
					"inputs": [
						{
							"internalType": "string",
							"name": "_name",
							"type": "string"
						}
					],
					"name": "getBalanceByName",
					"outputs": [
						{
							"internalType": "uint256",
							"name": "",
							"type": "uint256"
						}
					],
					"stateMutability": "view",
					"type": "function"
				},
				{
					"inputs": [],
					"name": "getUserAccounts",
					"outputs": [
						{
							"internalType": "string[]",
							"name": "",
							"type": "string[]"
						}
					],
					"stateMutability": "view",
					"type": "function"
				},
				{
					"inputs": [
						{
							"internalType": "string",
							"name": "_from",
							"type": "string"
						},
						{
							"internalType": "string",
							"name": "_to",
							"type": "string"
						},
						{
							"internalType": "uint256",
							"name": "_amount",
							"type": "uint256"
						}
					],
					"name": "transferAmount",
					"outputs": [],
					"stateMutability": "nonpayable",
					"type": "function"
				},
				{
					"inputs": [
						{
							"internalType": "string",
							"name": "_from",
							"type": "string"
						},
						{
							"internalType": "string[]",
							"name": "_tos",
							"type": "string[]"
						},
						{
							"internalType": "uint256",
							"name": "_amount",
							"type": "uint256"
						}
					],
					"name": "transferAmountList",
					"outputs": [],
					"stateMutability": "nonpayable",
					"type": "function"
				},
				{
					"inputs": [
						{
							"internalType": "string",
							"name": "_name",
							"type": "string"
						},
						{
							"internalType": "uint256",
							"name": "_amount",
							"type": "uint256"
						}
					],
					"name": "withdrawn",
					"outputs": [],
					"stateMutability": "nonpayable",
					"type": "function"
				},
				{
					"inputs": [
						{
							"internalType": "uint256",
							"name": "_amount",
							"type": "uint256"
						}
					],
					"name": "withdrawnBankBalance",
					"outputs": [],
					"stateMutability": "nonpayable",
					"type": "function"
				}
			],
			"devdoc": {
				"kind": "dev",
				"methods": {},
				"version": 1
			},
			"evm": {
				"assembly": "    /* \"contracts/SimpleBank/SimpleBank.sol\":62:5731  contract SimpleBank {... */\n  mstore(0x40, 0x80)\n    /* \"contracts/SimpleBank/SimpleBank.sol\":385:466  constructor() {... */\n  callvalue\n  dup1\n  iszero\n  tag_1\n  jumpi\n  0x00\n  dup1\n  revert\ntag_1:\n  pop\n    /* \"contracts/SimpleBank/SimpleBank.sol\":422:432  msg.sender */\n  caller\n    /* \"contracts/SimpleBank/SimpleBank.sol\":410:419  bankOwner */\n  0x00\n  dup1\n    /* \"contracts/SimpleBank/SimpleBank.sol\":410:432  bankOwner = msg.sender */\n  0x0100\n  exp\n  dup2\n  sload\n  dup2\n  0xffffffffffffffffffffffffffffffffffffffff\n  mul\n  not\n  and\n  swap1\n  dup4\n  0xffffffffffffffffffffffffffffffffffffffff\n  and\n  mul\n  or\n  swap1\n  sstore\n  pop\n    /* \"contracts/SimpleBank/SimpleBank.sol\":457:458  0 */\n  0x00\n    /* \"contracts/SimpleBank/SimpleBank.sol\":443:454  bankBalance */\n  0x01\n    /* \"contracts/SimpleBank/SimpleBank.sol\":443:458  bankBalance = 0 */\n  dup2\n  swap1\n  sstore\n  pop\n    /* \"contracts/SimpleBank/SimpleBank.sol\":62:5731  contract SimpleBank {... */\n  dataSize(sub_0)\n  dup1\n  dataOffset(sub_0)\n  0x00\n  codecopy\n  0x00\n  return\nstop\n\nsub_0: assembly {\n        /* \"contracts/SimpleBank/SimpleBank.sol\":62:5731  contract SimpleBank {... */\n      mstore(0x40, 0x80)\n      jumpi(tag_1, lt(calldatasize, 0x04))\n      shr(0xe0, calldataload(0x00))\n      dup1\n      0xa26e1186\n      gt\n      tag_11\n      jumpi\n      dup1\n      0xa26e1186\n      eq\n      tag_6\n      jumpi\n      dup1\n      0xa43e567a\n      eq\n      tag_7\n      jumpi\n      dup1\n      0xca1ae01c\n      eq\n      tag_8\n      jumpi\n      dup1\n      0xdf4734ed\n      eq\n      tag_9\n      jumpi\n      dup1\n      0xf8a0e8c3\n      eq\n      tag_10\n      jumpi\n      jump(tag_1)\n    tag_11:\n      dup1\n      0x16dfc5b2\n      eq\n      tag_2\n      jumpi\n      dup1\n      0x2ad26a04\n      eq\n      tag_3\n      jumpi\n      dup1\n      0x358eecb6\n      eq\n      tag_4\n      jumpi\n      dup1\n      0x5e345810\n      eq\n      tag_5\n      jumpi\n    tag_1:\n      0x00\n      dup1\n      revert\n        /* \"contracts/SimpleBank/SimpleBank.sol\":3716:5242  function transferAmountList(... */\n    tag_2:\n      callvalue\n      dup1\n      iszero\n      tag_12\n      jumpi\n      0x00\n      dup1\n      revert\n    tag_12:\n      pop\n      tag_13\n      0x04\n      dup1\n      calldatasize\n      sub\n      dup2\n      add\n      swap1\n      tag_14\n      swap2\n      swap1\n      tag_15\n      jump\t// in\n    tag_14:\n      tag_16\n      jump\t// in\n    tag_13:\n      stop\n        /* \"contracts/SimpleBank/SimpleBank.sol\":748:1124  function addAccount(string memory _name) public {... */\n    tag_3:\n      callvalue\n      dup1\n      iszero\n      tag_17\n      jumpi\n      0x00\n      dup1\n      revert\n    tag_17:\n      pop\n      tag_18\n      0x04\n      dup1\n      calldatasize\n      sub\n      dup2\n      add\n      swap1\n      tag_19\n      swap2\n      swap1\n      tag_20\n      jump\t// in\n    tag_19:\n      tag_21\n      jump\t// in\n    tag_18:\n      stop\n        /* \"contracts/SimpleBank/SimpleBank.sol\":1487:2141  function withdrawn(string memory _name, uint256 _amount) public {... */\n    tag_4:\n      callvalue\n      dup1\n      iszero\n      tag_22\n      jumpi\n      0x00\n      dup1\n      revert\n    tag_22:\n      pop\n      tag_23\n      0x04\n      dup1\n      calldatasize\n      sub\n      dup2\n      add\n      swap1\n      tag_24\n      swap2\n      swap1\n      tag_25\n      jump\t// in\n    tag_24:\n      tag_26\n      jump\t// in\n    tag_23:\n      stop\n        /* \"contracts/SimpleBank/SimpleBank.sol\":2149:3347  function transferAmount(... */\n    tag_5:\n      callvalue\n      dup1\n      iszero\n      tag_27\n      jumpi\n      0x00\n      dup1\n      revert\n    tag_27:\n      pop\n      tag_28\n      0x04\n      dup1\n      calldatasize\n      sub\n      dup2\n      add\n      swap1\n      tag_29\n      swap2\n      swap1\n      tag_30\n      jump\t// in\n    tag_29:\n      tag_31\n      jump\t// in\n    tag_28:\n      stop\n        /* \"contracts/SimpleBank/SimpleBank.sol\":1132:1479  function deposit(string memory _name) public payable {... */\n    tag_6:\n      tag_32\n      0x04\n      dup1\n      calldatasize\n      sub\n      dup2\n      add\n      swap1\n      tag_33\n      swap2\n      swap1\n      tag_20\n      jump\t// in\n    tag_33:\n      tag_34\n      jump\t// in\n    tag_32:\n      stop\n        /* \"contracts/SimpleBank/SimpleBank.sol\":5581:5728  function getUserAccounts()... */\n    tag_7:\n      callvalue\n      dup1\n      iszero\n      tag_35\n      jumpi\n      0x00\n      dup1\n      revert\n    tag_35:\n      pop\n      tag_36\n      tag_37\n      jump\t// in\n    tag_36:\n      mload(0x40)\n      tag_38\n      swap2\n      swap1\n      tag_39\n      jump\t// in\n    tag_38:\n      mload(0x40)\n      dup1\n      swap2\n      sub\n      swap1\n      return\n        /* \"contracts/SimpleBank/SimpleBank.sol\":5415:5573  function getBalanceByName(string memory _name)... */\n    tag_8:\n      callvalue\n      dup1\n      iszero\n      tag_40\n      jumpi\n      0x00\n      dup1\n      revert\n    tag_40:\n      pop\n      tag_41\n      0x04\n      dup1\n      calldatasize\n      sub\n      dup2\n      add\n      swap1\n      tag_42\n      swap2\n      swap1\n      tag_20\n      jump\t// in\n    tag_42:\n      tag_43\n      jump\t// in\n    tag_41:\n      mload(0x40)\n      tag_44\n      swap2\n      swap1\n      tag_45\n      jump\t// in\n    tag_44:\n      mload(0x40)\n      dup1\n      swap2\n      sub\n      swap1\n      return\n        /* \"contracts/SimpleBank/SimpleBank.sol\":5250:5407  function getAccountByName(string memory _name)... */\n    tag_9:\n      callvalue\n      dup1\n      iszero\n      tag_46\n      jumpi\n      0x00\n      dup1\n      revert\n    tag_46:\n      pop\n      tag_47\n      0x04\n      dup1\n      calldatasize\n      sub\n      dup2\n      add\n      swap1\n      tag_48\n      swap2\n      swap1\n      tag_20\n      jump\t// in\n    tag_48:\n      tag_49\n      jump\t// in\n    tag_47:\n      mload(0x40)\n      tag_50\n      swap2\n      swap1\n      tag_51\n      jump\t// in\n    tag_50:\n      mload(0x40)\n      dup1\n      swap2\n      sub\n      swap1\n      return\n        /* \"contracts/SimpleBank/SimpleBank.sol\":3355:3708  function withdrawnBankBalance(uint256 _amount) public {... */\n    tag_10:\n      callvalue\n      dup1\n      iszero\n      tag_52\n      jumpi\n      0x00\n      dup1\n      revert\n    tag_52:\n      pop\n      tag_53\n      0x04\n      dup1\n      calldatasize\n      sub\n      dup2\n      add\n      swap1\n      tag_54\n      swap2\n      swap1\n      tag_55\n      jump\t// in\n    tag_54:\n      tag_56\n      jump\t// in\n    tag_53:\n      stop\n        /* \"contracts/SimpleBank/SimpleBank.sol\":3716:5242  function transferAmountList(... */\n    tag_16:\n        /* \"contracts/SimpleBank/SimpleBank.sol\":3907:3911  true */\n      0x01\n        /* \"contracts/SimpleBank/SimpleBank.sol\":3878:3911  isAccountNameExist[_from] == true */\n      iszero\n      iszero\n        /* \"contracts/SimpleBank/SimpleBank.sol\":3878:3896  isAccountNameExist */\n      0x04\n        /* \"contracts/SimpleBank/SimpleBank.sol\":3897:3902  _from */\n      dup5\n        /* \"contracts/SimpleBank/SimpleBank.sol\":3878:3903  isAccountNameExist[_from] */\n      mload(0x40)\n      tag_58\n      swap2\n      swap1\n      tag_59\n      jump\t// in\n    tag_58:\n      swap1\n      dup2\n      mstore\n      0x20\n      add\n      mload(0x40)\n      dup1\n      swap2\n      sub\n      swap1\n      keccak256\n      0x00\n      swap1\n      sload\n      swap1\n      0x0100\n      exp\n      swap1\n      div\n      0xff\n      and\n        /* \"contracts/SimpleBank/SimpleBank.sol\":3878:3911  isAccountNameExist[_from] == true */\n      iszero\n      iszero\n      eq\n        /* \"contracts/SimpleBank/SimpleBank.sol\":3856:3972  require(... */\n      tag_60\n      jumpi\n      mload(0x40)\n      0x08c379a000000000000000000000000000000000000000000000000000000000\n      dup2\n      mstore\n      0x04\n      add\n      tag_61\n      swap1\n      tag_62\n      jump\t// in\n    tag_61:\n      mload(0x40)\n      dup1\n      swap2\n      sub\n      swap1\n      revert\n    tag_60:\n        /* \"contracts/SimpleBank/SimpleBank.sol\":4030:4040  msg.sender */\n      caller\n        /* \"contracts/SimpleBank/SimpleBank.sol\":4005:4040  accounts[_from].owner == msg.sender */\n      0xffffffffffffffffffffffffffffffffffffffff\n      and\n        /* \"contracts/SimpleBank/SimpleBank.sol\":4005:4013  accounts */\n      0x03\n        /* \"contracts/SimpleBank/SimpleBank.sol\":4014:4019  _from */\n      dup5\n        /* \"contracts/SimpleBank/SimpleBank.sol\":4005:4020  accounts[_from] */\n      mload(0x40)\n      tag_63\n      swap2\n      swap1\n      tag_59\n      jump\t// in\n    tag_63:\n      swap1\n      dup2\n      mstore\n      0x20\n      add\n      mload(0x40)\n      dup1\n      swap2\n      sub\n      swap1\n      keccak256\n        /* \"contracts/SimpleBank/SimpleBank.sol\":4005:4026  accounts[_from].owner */\n      0x00\n      add\n      0x00\n      swap1\n      sload\n      swap1\n      0x0100\n      exp\n      swap1\n      div\n      0xffffffffffffffffffffffffffffffffffffffff\n      and\n        /* \"contracts/SimpleBank/SimpleBank.sol\":4005:4040  accounts[_from].owner == msg.sender */\n      0xffffffffffffffffffffffffffffffffffffffff\n      and\n      eq\n        /* \"contracts/SimpleBank/SimpleBank.sol\":3983:4096  require(... */\n      tag_64\n      jumpi\n      mload(0x40)\n      0x08c379a000000000000000000000000000000000000000000000000000000000\n      dup2\n      mstore\n      0x04\n      add\n      tag_65\n      swap1\n      tag_66\n      jump\t// in\n    tag_65:\n      mload(0x40)\n      dup1\n      swap2\n      sub\n      swap1\n      revert\n    tag_64:\n        /* \"contracts/SimpleBank/SimpleBank.sol\":4126:4129  100 */\n      0x64\n        /* \"contracts/SimpleBank/SimpleBank.sol\":4115:4122  _amount */\n      dup2\n        /* \"contracts/SimpleBank/SimpleBank.sol\":4115:4129  _amount >= 100 */\n      lt\n      iszero\n        /* \"contracts/SimpleBank/SimpleBank.sol\":4107:4167  require(_amount >= 100, \"transfer_fail_value_less_than_100\") */\n      tag_67\n      jumpi\n      mload(0x40)\n      0x08c379a000000000000000000000000000000000000000000000000000000000\n      dup2\n      mstore\n      0x04\n      add\n      tag_68\n      swap1\n      tag_69\n      jump\t// in\n    tag_68:\n      mload(0x40)\n      dup1\n      swap2\n      sub\n      swap1\n      revert\n    tag_67:\n        /* \"contracts/SimpleBank/SimpleBank.sol\":4237:4241  _tos */\n      dup2\n        /* \"contracts/SimpleBank/SimpleBank.sol\":4237:4248  _tos.length */\n      mload\n        /* \"contracts/SimpleBank/SimpleBank.sol\":4227:4234  _amount */\n      dup2\n        /* \"contracts/SimpleBank/SimpleBank.sol\":4227:4248  _amount * _tos.length */\n      tag_70\n      swap2\n      swap1\n      tag_71\n      jump\t// in\n    tag_70:\n        /* \"contracts/SimpleBank/SimpleBank.sol\":4200:4208  accounts */\n      0x03\n        /* \"contracts/SimpleBank/SimpleBank.sol\":4209:4214  _from */\n      dup5\n        /* \"contracts/SimpleBank/SimpleBank.sol\":4200:4215  accounts[_from] */\n      mload(0x40)\n      tag_72\n      swap2\n      swap1\n      tag_59\n      jump\t// in\n    tag_72:\n      swap1\n      dup2\n      mstore\n      0x20\n      add\n      mload(0x40)\n      dup1\n      swap2\n      sub\n      swap1\n      keccak256\n        /* \"contracts/SimpleBank/SimpleBank.sol\":4200:4223  accounts[_from].balance */\n      0x02\n      add\n      sload\n        /* \"contracts/SimpleBank/SimpleBank.sol\":4200:4248  accounts[_from].balance >= _amount * _tos.length */\n      lt\n      iszero\n        /* \"contracts/SimpleBank/SimpleBank.sol\":4178:4313  require(... */\n      tag_73\n      jumpi\n      mload(0x40)\n      0x08c379a000000000000000000000000000000000000000000000000000000000\n      dup2\n      mstore\n      0x04\n      add\n      tag_74\n      swap1\n      tag_75\n      jump\t// in\n    tag_74:\n      mload(0x40)\n      dup1\n      swap2\n      sub\n      swap1\n      revert\n    tag_73:\n        /* \"contracts/SimpleBank/SimpleBank.sol\":4329:4338  uint256 i */\n      0x00\n        /* \"contracts/SimpleBank/SimpleBank.sol\":4324:5235  for (uint256 i = 0; i < _tos.length; i++) {... */\n    tag_76:\n        /* \"contracts/SimpleBank/SimpleBank.sol\":4348:4352  _tos */\n      dup3\n        /* \"contracts/SimpleBank/SimpleBank.sol\":4348:4359  _tos.length */\n      mload\n        /* \"contracts/SimpleBank/SimpleBank.sol\":4344:4345  i */\n      dup2\n        /* \"contracts/SimpleBank/SimpleBank.sol\":4344:4359  i < _tos.length */\n      lt\n        /* \"contracts/SimpleBank/SimpleBank.sol\":4324:5235  for (uint256 i = 0; i < _tos.length; i++) {... */\n      iszero\n      tag_77\n      jumpi\n        /* \"contracts/SimpleBank/SimpleBank.sol\":4438:4442  true */\n      0x01\n        /* \"contracts/SimpleBank/SimpleBank.sol\":4407:4442  isAccountNameExist[_tos[i]] == true */\n      iszero\n      iszero\n        /* \"contracts/SimpleBank/SimpleBank.sol\":4407:4425  isAccountNameExist */\n      0x04\n        /* \"contracts/SimpleBank/SimpleBank.sol\":4426:4430  _tos */\n      dup5\n        /* \"contracts/SimpleBank/SimpleBank.sol\":4431:4432  i */\n      dup4\n        /* \"contracts/SimpleBank/SimpleBank.sol\":4426:4433  _tos[i] */\n      dup2\n      mload\n      dup2\n      lt\n      tag_79\n      jumpi\n      tag_80\n      tag_81\n      jump\t// in\n    tag_80:\n    tag_79:\n      0x20\n      mul\n      0x20\n      add\n      add\n      mload\n        /* \"contracts/SimpleBank/SimpleBank.sol\":4407:4434  isAccountNameExist[_tos[i]] */\n      mload(0x40)\n      tag_82\n      swap2\n      swap1\n      tag_59\n      jump\t// in\n    tag_82:\n      swap1\n      dup2\n      mstore\n      0x20\n      add\n      mload(0x40)\n      dup1\n      swap2\n      sub\n      swap1\n      keccak256\n      0x00\n      swap1\n      sload\n      swap1\n      0x0100\n      exp\n      swap1\n      div\n      0xff\n      and\n        /* \"contracts/SimpleBank/SimpleBank.sol\":4407:4442  isAccountNameExist[_tos[i]] == true */\n      iszero\n      iszero\n      eq\n        /* \"contracts/SimpleBank/SimpleBank.sol\":4381:4509  require(... */\n      tag_83\n      jumpi\n      mload(0x40)\n      0x08c379a000000000000000000000000000000000000000000000000000000000\n      dup2\n      mstore\n      0x04\n      add\n      tag_84\n      swap1\n      tag_85\n      jump\t// in\n    tag_84:\n      mload(0x40)\n      dup1\n      swap2\n      sub\n      swap1\n      revert\n    tag_83:\n        /* \"contracts/SimpleBank/SimpleBank.sol\":4553:4561  accounts */\n      0x03\n        /* \"contracts/SimpleBank/SimpleBank.sol\":4562:4566  _tos */\n      dup4\n        /* \"contracts/SimpleBank/SimpleBank.sol\":4567:4568  i */\n      dup3\n        /* \"contracts/SimpleBank/SimpleBank.sol\":4562:4569  _tos[i] */\n      dup2\n      mload\n      dup2\n      lt\n      tag_86\n      jumpi\n      tag_87\n      tag_81\n      jump\t// in\n    tag_87:\n    tag_86:\n      0x20\n      mul\n      0x20\n      add\n      add\n      mload\n        /* \"contracts/SimpleBank/SimpleBank.sol\":4553:4570  accounts[_tos[i]] */\n      mload(0x40)\n      tag_88\n      swap2\n      swap1\n      tag_59\n      jump\t// in\n    tag_88:\n      swap1\n      dup2\n      mstore\n      0x20\n      add\n      mload(0x40)\n      dup1\n      swap2\n      sub\n      swap1\n      keccak256\n        /* \"contracts/SimpleBank/SimpleBank.sol\":4553:4576  accounts[_tos[i]].owner */\n      0x00\n      add\n      0x00\n      swap1\n      sload\n      swap1\n      0x0100\n      exp\n      swap1\n      div\n      0xffffffffffffffffffffffffffffffffffffffff\n      and\n        /* \"contracts/SimpleBank/SimpleBank.sol\":4528:4576  accounts[_from].owner != accounts[_tos[i]].owner */\n      0xffffffffffffffffffffffffffffffffffffffff\n      and\n        /* \"contracts/SimpleBank/SimpleBank.sol\":4528:4536  accounts */\n      0x03\n        /* \"contracts/SimpleBank/SimpleBank.sol\":4537:4542  _from */\n      dup6\n        /* \"contracts/SimpleBank/SimpleBank.sol\":4528:4543  accounts[_from] */\n      mload(0x40)\n      tag_89\n      swap2\n      swap1\n      tag_59\n      jump\t// in\n    tag_89:\n      swap1\n      dup2\n      mstore\n      0x20\n      add\n      mload(0x40)\n      dup1\n      swap2\n      sub\n      swap1\n      keccak256\n        /* \"contracts/SimpleBank/SimpleBank.sol\":4528:4549  accounts[_from].owner */\n      0x00\n      add\n      0x00\n      swap1\n      sload\n      swap1\n      0x0100\n      exp\n      swap1\n      div\n      0xffffffffffffffffffffffffffffffffffffffff\n      and\n        /* \"contracts/SimpleBank/SimpleBank.sol\":4528:4576  accounts[_from].owner != accounts[_tos[i]].owner */\n      0xffffffffffffffffffffffffffffffffffffffff\n      and\n      eq\n        /* \"contracts/SimpleBank/SimpleBank.sol\":4524:5224  if (accounts[_from].owner != accounts[_tos[i]].owner) {... */\n      tag_90\n      jumpi\n        /* \"contracts/SimpleBank/SimpleBank.sol\":4658:4662  true */\n      0x01\n        /* \"contracts/SimpleBank/SimpleBank.sol\":4627:4662  isAccountNameExist[_tos[i]] == true */\n      iszero\n      iszero\n        /* \"contracts/SimpleBank/SimpleBank.sol\":4627:4645  isAccountNameExist */\n      0x04\n        /* \"contracts/SimpleBank/SimpleBank.sol\":4646:4650  _tos */\n      dup5\n        /* \"contracts/SimpleBank/SimpleBank.sol\":4651:4652  i */\n      dup4\n        /* \"contracts/SimpleBank/SimpleBank.sol\":4646:4653  _tos[i] */\n      dup2\n      mload\n      dup2\n      lt\n      tag_91\n      jumpi\n      tag_92\n      tag_81\n      jump\t// in\n    tag_92:\n    tag_91:\n      0x20\n      mul\n      0x20\n      add\n      add\n      mload\n        /* \"contracts/SimpleBank/SimpleBank.sol\":4627:4654  isAccountNameExist[_tos[i]] */\n      mload(0x40)\n      tag_93\n      swap2\n      swap1\n      tag_59\n      jump\t// in\n    tag_93:\n      swap1\n      dup2\n      mstore\n      0x20\n      add\n      mload(0x40)\n      dup1\n      swap2\n      sub\n      swap1\n      keccak256\n      0x00\n      swap1\n      sload\n      swap1\n      0x0100\n      exp\n      swap1\n      div\n      0xff\n      and\n        /* \"contracts/SimpleBank/SimpleBank.sol\":4627:4662  isAccountNameExist[_tos[i]] == true */\n      iszero\n      iszero\n      eq\n        /* \"contracts/SimpleBank/SimpleBank.sol\":4597:4737  require(... */\n      tag_94\n      jumpi\n      mload(0x40)\n      0x08c379a000000000000000000000000000000000000000000000000000000000\n      dup2\n      mstore\n      0x04\n      add\n      tag_95\n      swap1\n      tag_85\n      jump\t// in\n    tag_95:\n      mload(0x40)\n      dup1\n      swap2\n      sub\n      swap1\n      revert\n    tag_94:\n        /* \"contracts/SimpleBank/SimpleBank.sol\":4756:4767  uint256 fee */\n      0x00\n        /* \"contracts/SimpleBank/SimpleBank.sol\":4780:4783  100 */\n      0x64\n        /* \"contracts/SimpleBank/SimpleBank.sol\":4770:4777  _amount */\n      dup4\n        /* \"contracts/SimpleBank/SimpleBank.sol\":4770:4783  _amount / 100 */\n      tag_96\n      swap2\n      swap1\n      tag_97\n      jump\t// in\n    tag_96:\n        /* \"contracts/SimpleBank/SimpleBank.sol\":4756:4783  uint256 fee = _amount / 100 */\n      swap1\n      pop\n        /* \"contracts/SimpleBank/SimpleBank.sol\":4817:4820  fee */\n      dup1\n        /* \"contracts/SimpleBank/SimpleBank.sol\":4802:4813  bankBalance */\n      0x01\n      0x00\n        /* \"contracts/SimpleBank/SimpleBank.sol\":4802:4820  bankBalance += fee */\n      dup3\n      dup3\n      sload\n      tag_98\n      swap2\n      swap1\n      tag_99\n      jump\t// in\n    tag_98:\n      swap3\n      pop\n      pop\n      dup2\n      swap1\n      sstore\n      pop\n        /* \"contracts/SimpleBank/SimpleBank.sol\":4866:4873  _amount */\n      dup3\n        /* \"contracts/SimpleBank/SimpleBank.sol\":4839:4847  accounts */\n      0x03\n        /* \"contracts/SimpleBank/SimpleBank.sol\":4848:4853  _from */\n      dup7\n        /* \"contracts/SimpleBank/SimpleBank.sol\":4839:4854  accounts[_from] */\n      mload(0x40)\n      tag_100\n      swap2\n      swap1\n      tag_59\n      jump\t// in\n    tag_100:\n      swap1\n      dup2\n      mstore\n      0x20\n      add\n      mload(0x40)\n      dup1\n      swap2\n      sub\n      swap1\n      keccak256\n        /* \"contracts/SimpleBank/SimpleBank.sol\":4839:4862  accounts[_from].balance */\n      0x02\n      add\n      0x00\n        /* \"contracts/SimpleBank/SimpleBank.sol\":4839:4873  accounts[_from].balance -= _amount */\n      dup3\n      dup3\n      sload\n      tag_101\n      swap2\n      swap1\n      tag_102\n      jump\t// in\n    tag_101:\n      swap3\n      pop\n      pop\n      dup2\n      swap1\n      sstore\n      pop\n        /* \"contracts/SimpleBank/SimpleBank.sol\":4932:4935  fee */\n      dup1\n        /* \"contracts/SimpleBank/SimpleBank.sol\":4922:4929  _amount */\n      dup4\n        /* \"contracts/SimpleBank/SimpleBank.sol\":4922:4935  _amount - fee */\n      tag_103\n      swap2\n      swap1\n      tag_102\n      jump\t// in\n    tag_103:\n        /* \"contracts/SimpleBank/SimpleBank.sol\":4892:4900  accounts */\n      0x03\n        /* \"contracts/SimpleBank/SimpleBank.sol\":4901:4905  _tos */\n      dup6\n        /* \"contracts/SimpleBank/SimpleBank.sol\":4906:4907  i */\n      dup5\n        /* \"contracts/SimpleBank/SimpleBank.sol\":4901:4908  _tos[i] */\n      dup2\n      mload\n      dup2\n      lt\n      tag_104\n      jumpi\n      tag_105\n      tag_81\n      jump\t// in\n    tag_105:\n    tag_104:\n      0x20\n      mul\n      0x20\n      add\n      add\n      mload\n        /* \"contracts/SimpleBank/SimpleBank.sol\":4892:4909  accounts[_tos[i]] */\n      mload(0x40)\n      tag_106\n      swap2\n      swap1\n      tag_59\n      jump\t// in\n    tag_106:\n      swap1\n      dup2\n      mstore\n      0x20\n      add\n      mload(0x40)\n      dup1\n      swap2\n      sub\n      swap1\n      keccak256\n        /* \"contracts/SimpleBank/SimpleBank.sol\":4892:4917  accounts[_tos[i]].balance */\n      0x02\n      add\n      0x00\n        /* \"contracts/SimpleBank/SimpleBank.sol\":4892:4936  accounts[_tos[i]].balance += (_amount - fee) */\n      dup3\n      dup3\n      sload\n      tag_107\n      swap2\n      swap1\n      tag_99\n      jump\t// in\n    tag_107:\n      swap3\n      pop\n      pop\n      dup2\n      swap1\n      sstore\n      pop\n        /* \"contracts/SimpleBank/SimpleBank.sol\":4960:5010  TransferAmountEvent(_from, _tos[i], _amount - fee) */\n      0x370044a47246afacf081fd58c8468a6482ebc8673d418e785b8d0492240f95de\n        /* \"contracts/SimpleBank/SimpleBank.sol\":4980:4985  _from */\n      dup6\n        /* \"contracts/SimpleBank/SimpleBank.sol\":4987:4991  _tos */\n      dup6\n        /* \"contracts/SimpleBank/SimpleBank.sol\":4992:4993  i */\n      dup5\n        /* \"contracts/SimpleBank/SimpleBank.sol\":4987:4994  _tos[i] */\n      dup2\n      mload\n      dup2\n      lt\n      tag_108\n      jumpi\n      tag_109\n      tag_81\n      jump\t// in\n    tag_109:\n    tag_108:\n      0x20\n      mul\n      0x20\n      add\n      add\n      mload\n        /* \"contracts/SimpleBank/SimpleBank.sol\":5006:5009  fee */\n      dup4\n        /* \"contracts/SimpleBank/SimpleBank.sol\":4996:5003  _amount */\n      dup7\n        /* \"contracts/SimpleBank/SimpleBank.sol\":4996:5009  _amount - fee */\n      tag_110\n      swap2\n      swap1\n      tag_102\n      jump\t// in\n    tag_110:\n        /* \"contracts/SimpleBank/SimpleBank.sol\":4960:5010  TransferAmountEvent(_from, _tos[i], _amount - fee) */\n      mload(0x40)\n      tag_111\n      swap4\n      swap3\n      swap2\n      swap1\n      tag_112\n      jump\t// in\n    tag_111:\n      mload(0x40)\n      dup1\n      swap2\n      sub\n      swap1\n      log1\n        /* \"contracts/SimpleBank/SimpleBank.sol\":4578:5026  {... */\n      pop\n        /* \"contracts/SimpleBank/SimpleBank.sol\":4524:5224  if (accounts[_from].owner != accounts[_tos[i]].owner) {... */\n      jump(tag_113)\n    tag_90:\n        /* \"contracts/SimpleBank/SimpleBank.sol\":5078:5085  _amount */\n      dup2\n        /* \"contracts/SimpleBank/SimpleBank.sol\":5051:5059  accounts */\n      0x03\n        /* \"contracts/SimpleBank/SimpleBank.sol\":5060:5065  _from */\n      dup6\n        /* \"contracts/SimpleBank/SimpleBank.sol\":5051:5066  accounts[_from] */\n      mload(0x40)\n      tag_114\n      swap2\n      swap1\n      tag_59\n      jump\t// in\n    tag_114:\n      swap1\n      dup2\n      mstore\n      0x20\n      add\n      mload(0x40)\n      dup1\n      swap2\n      sub\n      swap1\n      keccak256\n        /* \"contracts/SimpleBank/SimpleBank.sol\":5051:5074  accounts[_from].balance */\n      0x02\n      add\n      0x00\n        /* \"contracts/SimpleBank/SimpleBank.sol\":5051:5085  accounts[_from].balance -= _amount */\n      dup3\n      dup3\n      sload\n      tag_115\n      swap2\n      swap1\n      tag_102\n      jump\t// in\n    tag_115:\n      swap3\n      pop\n      pop\n      dup2\n      swap1\n      sstore\n      pop\n        /* \"contracts/SimpleBank/SimpleBank.sol\":5133:5140  _amount */\n      dup2\n        /* \"contracts/SimpleBank/SimpleBank.sol\":5104:5112  accounts */\n      0x03\n        /* \"contracts/SimpleBank/SimpleBank.sol\":5113:5117  _tos */\n      dup5\n        /* \"contracts/SimpleBank/SimpleBank.sol\":5118:5119  i */\n      dup4\n        /* \"contracts/SimpleBank/SimpleBank.sol\":5113:5120  _tos[i] */\n      dup2\n      mload\n      dup2\n      lt\n      tag_116\n      jumpi\n      tag_117\n      tag_81\n      jump\t// in\n    tag_117:\n    tag_116:\n      0x20\n      mul\n      0x20\n      add\n      add\n      mload\n        /* \"contracts/SimpleBank/SimpleBank.sol\":5104:5121  accounts[_tos[i]] */\n      mload(0x40)\n      tag_118\n      swap2\n      swap1\n      tag_59\n      jump\t// in\n    tag_118:\n      swap1\n      dup2\n      mstore\n      0x20\n      add\n      mload(0x40)\n      dup1\n      swap2\n      sub\n      swap1\n      keccak256\n        /* \"contracts/SimpleBank/SimpleBank.sol\":5104:5129  accounts[_tos[i]].balance */\n      0x02\n      add\n      0x00\n        /* \"contracts/SimpleBank/SimpleBank.sol\":5104:5140  accounts[_tos[i]].balance += _amount */\n      dup3\n      dup3\n      sload\n      tag_119\n      swap2\n      swap1\n      tag_99\n      jump\t// in\n    tag_119:\n      swap3\n      pop\n      pop\n      dup2\n      swap1\n      sstore\n      pop\n        /* \"contracts/SimpleBank/SimpleBank.sol\":5164:5208  TransferAmountEvent(_from, _tos[i], _amount) */\n      0x370044a47246afacf081fd58c8468a6482ebc8673d418e785b8d0492240f95de\n        /* \"contracts/SimpleBank/SimpleBank.sol\":5184:5189  _from */\n      dup5\n        /* \"contracts/SimpleBank/SimpleBank.sol\":5191:5195  _tos */\n      dup5\n        /* \"contracts/SimpleBank/SimpleBank.sol\":5196:5197  i */\n      dup4\n        /* \"contracts/SimpleBank/SimpleBank.sol\":5191:5198  _tos[i] */\n      dup2\n      mload\n      dup2\n      lt\n      tag_120\n      jumpi\n      tag_121\n      tag_81\n      jump\t// in\n    tag_121:\n    tag_120:\n      0x20\n      mul\n      0x20\n      add\n      add\n      mload\n        /* \"contracts/SimpleBank/SimpleBank.sol\":5200:5207  _amount */\n      dup5\n        /* \"contracts/SimpleBank/SimpleBank.sol\":5164:5208  TransferAmountEvent(_from, _tos[i], _amount) */\n      mload(0x40)\n      tag_122\n      swap4\n      swap3\n      swap2\n      swap1\n      tag_112\n      jump\t// in\n    tag_122:\n      mload(0x40)\n      dup1\n      swap2\n      sub\n      swap1\n      log1\n        /* \"contracts/SimpleBank/SimpleBank.sol\":4524:5224  if (accounts[_from].owner != accounts[_tos[i]].owner) {... */\n    tag_113:\n        /* \"contracts/SimpleBank/SimpleBank.sol\":4361:4364  i++ */\n      dup1\n      dup1\n      tag_123\n      swap1\n      tag_124\n      jump\t// in\n    tag_123:\n      swap2\n      pop\n      pop\n        /* \"contracts/SimpleBank/SimpleBank.sol\":4324:5235  for (uint256 i = 0; i < _tos.length; i++) {... */\n      jump(tag_76)\n    tag_77:\n      pop\n        /* \"contracts/SimpleBank/SimpleBank.sol\":3716:5242  function transferAmountList(... */\n      pop\n      pop\n      pop\n      jump\t// out\n        /* \"contracts/SimpleBank/SimpleBank.sol\":748:1124  function addAccount(string memory _name) public {... */\n    tag_21:\n        /* \"contracts/SimpleBank/SimpleBank.sol\":858:863  false */\n      0x00\n        /* \"contracts/SimpleBank/SimpleBank.sol\":829:863  isAccountNameExist[_name] == false */\n      iszero\n      iszero\n        /* \"contracts/SimpleBank/SimpleBank.sol\":829:847  isAccountNameExist */\n      0x04\n        /* \"contracts/SimpleBank/SimpleBank.sol\":848:853  _name */\n      dup3\n        /* \"contracts/SimpleBank/SimpleBank.sol\":829:854  isAccountNameExist[_name] */\n      mload(0x40)\n      tag_126\n      swap2\n      swap1\n      tag_59\n      jump\t// in\n    tag_126:\n      swap1\n      dup2\n      mstore\n      0x20\n      add\n      mload(0x40)\n      dup1\n      swap2\n      sub\n      swap1\n      keccak256\n      0x00\n      swap1\n      sload\n      swap1\n      0x0100\n      exp\n      swap1\n      div\n      0xff\n      and\n        /* \"contracts/SimpleBank/SimpleBank.sol\":829:863  isAccountNameExist[_name] == false */\n      iszero\n      iszero\n      eq\n        /* \"contracts/SimpleBank/SimpleBank.sol\":807:918  require(... */\n      tag_127\n      jumpi\n      mload(0x40)\n      0x08c379a000000000000000000000000000000000000000000000000000000000\n      dup2\n      mstore\n      0x04\n      add\n      tag_128\n      swap1\n      tag_129\n      jump\t// in\n    tag_128:\n      mload(0x40)\n      dup1\n      swap2\n      sub\n      swap1\n      revert\n    tag_127:\n        /* \"contracts/SimpleBank/SimpleBank.sol\":947:976  Account(msg.sender, _name, 0) */\n      mload(0x40)\n      dup1\n      0x60\n      add\n      0x40\n      mstore\n      dup1\n        /* \"contracts/SimpleBank/SimpleBank.sol\":955:965  msg.sender */\n      caller\n        /* \"contracts/SimpleBank/SimpleBank.sol\":947:976  Account(msg.sender, _name, 0) */\n      0xffffffffffffffffffffffffffffffffffffffff\n      and\n      dup2\n      mstore\n      0x20\n      add\n        /* \"contracts/SimpleBank/SimpleBank.sol\":967:972  _name */\n      dup3\n        /* \"contracts/SimpleBank/SimpleBank.sol\":947:976  Account(msg.sender, _name, 0) */\n      dup2\n      mstore\n      0x20\n      add\n        /* \"contracts/SimpleBank/SimpleBank.sol\":974:975  0 */\n      0x00\n        /* \"contracts/SimpleBank/SimpleBank.sol\":947:976  Account(msg.sender, _name, 0) */\n      dup2\n      mstore\n      pop\n        /* \"contracts/SimpleBank/SimpleBank.sol\":929:937  accounts */\n      0x03\n        /* \"contracts/SimpleBank/SimpleBank.sol\":938:943  _name */\n      dup3\n        /* \"contracts/SimpleBank/SimpleBank.sol\":929:944  accounts[_name] */\n      mload(0x40)\n      tag_130\n      swap2\n      swap1\n      tag_59\n      jump\t// in\n    tag_130:\n      swap1\n      dup2\n      mstore\n      0x20\n      add\n      mload(0x40)\n      dup1\n      swap2\n      sub\n      swap1\n      keccak256\n        /* \"contracts/SimpleBank/SimpleBank.sol\":929:976  accounts[_name] = Account(msg.sender, _name, 0) */\n      0x00\n      dup3\n      add\n      mload\n      dup2\n      0x00\n      add\n      exp(0x0100, 0x00)\n      dup2\n      sload\n      dup2\n      0xffffffffffffffffffffffffffffffffffffffff\n      mul\n      not\n      and\n      swap1\n      dup4\n      0xffffffffffffffffffffffffffffffffffffffff\n      and\n      mul\n      or\n      swap1\n      sstore\n      pop\n      0x20\n      dup3\n      add\n      mload\n      dup2\n      0x01\n      add\n      swap1\n      dup2\n      tag_131\n      swap2\n      swap1\n      tag_132\n      jump\t// in\n    tag_131:\n      pop\n      0x40\n      dup3\n      add\n      mload\n      dup2\n      0x02\n      add\n      sstore\n      swap1\n      pop\n      pop\n        /* \"contracts/SimpleBank/SimpleBank.sol\":987:999  userAccounts */\n      0x02\n        /* \"contracts/SimpleBank/SimpleBank.sol\":987:1011  userAccounts[msg.sender] */\n      0x00\n        /* \"contracts/SimpleBank/SimpleBank.sol\":1000:1010  msg.sender */\n      caller\n        /* \"contracts/SimpleBank/SimpleBank.sol\":987:1011  userAccounts[msg.sender] */\n      0xffffffffffffffffffffffffffffffffffffffff\n      and\n      0xffffffffffffffffffffffffffffffffffffffff\n      and\n      dup2\n      mstore\n      0x20\n      add\n      swap1\n      dup2\n      mstore\n      0x20\n      add\n      0x00\n      keccak256\n        /* \"contracts/SimpleBank/SimpleBank.sol\":1017:1022  _name */\n      dup2\n        /* \"contracts/SimpleBank/SimpleBank.sol\":987:1023  userAccounts[msg.sender].push(_name) */\n      swap1\n      dup1\n      0x01\n      dup2\n      sload\n      add\n      dup1\n      dup3\n      sstore\n      dup1\n      swap2\n      pop\n      pop\n      0x01\n      swap1\n      sub\n      swap1\n      0x00\n      mstore\n      keccak256(0x00, 0x20)\n      add\n      0x00\n      swap1\n      swap2\n      swap1\n      swap2\n      swap1\n      swap2\n      pop\n      swap1\n      dup2\n      tag_134\n      swap2\n      swap1\n      tag_132\n      jump\t// in\n    tag_134:\n      pop\n        /* \"contracts/SimpleBank/SimpleBank.sol\":1062:1066  true */\n      0x01\n        /* \"contracts/SimpleBank/SimpleBank.sol\":1034:1052  isAccountNameExist */\n      0x04\n        /* \"contracts/SimpleBank/SimpleBank.sol\":1053:1058  _name */\n      dup3\n        /* \"contracts/SimpleBank/SimpleBank.sol\":1034:1059  isAccountNameExist[_name] */\n      mload(0x40)\n      tag_135\n      swap2\n      swap1\n      tag_59\n      jump\t// in\n    tag_135:\n      swap1\n      dup2\n      mstore\n      0x20\n      add\n      mload(0x40)\n      dup1\n      swap2\n      sub\n      swap1\n      keccak256\n      0x00\n        /* \"contracts/SimpleBank/SimpleBank.sol\":1034:1066  isAccountNameExist[_name] = true */\n      0x0100\n      exp\n      dup2\n      sload\n      dup2\n      0xff\n      mul\n      not\n      and\n      swap1\n      dup4\n      iszero\n      iszero\n      mul\n      or\n      swap1\n      sstore\n      pop\n        /* \"contracts/SimpleBank/SimpleBank.sol\":1082:1116  AddAccountEvent(msg.sender, _name) */\n      0xb4833c10b628b390dd18880f97a54f11eae38c84eb68171f9a11b0fd7855fadf\n        /* \"contracts/SimpleBank/SimpleBank.sol\":1098:1108  msg.sender */\n      caller\n        /* \"contracts/SimpleBank/SimpleBank.sol\":1110:1115  _name */\n      dup3\n        /* \"contracts/SimpleBank/SimpleBank.sol\":1082:1116  AddAccountEvent(msg.sender, _name) */\n      mload(0x40)\n      tag_136\n      swap3\n      swap2\n      swap1\n      tag_137\n      jump\t// in\n    tag_136:\n      mload(0x40)\n      dup1\n      swap2\n      sub\n      swap1\n      log1\n        /* \"contracts/SimpleBank/SimpleBank.sol\":748:1124  function addAccount(string memory _name) public {... */\n      pop\n      jump\t// out\n        /* \"contracts/SimpleBank/SimpleBank.sol\":1487:2141  function withdrawn(string memory _name, uint256 _amount) public {... */\n    tag_26:\n        /* \"contracts/SimpleBank/SimpleBank.sol\":1613:1617  true */\n      0x01\n        /* \"contracts/SimpleBank/SimpleBank.sol\":1584:1617  isAccountNameExist[_name] == true */\n      iszero\n      iszero\n        /* \"contracts/SimpleBank/SimpleBank.sol\":1584:1602  isAccountNameExist */\n      0x04\n        /* \"contracts/SimpleBank/SimpleBank.sol\":1603:1608  _name */\n      dup4\n        /* \"contracts/SimpleBank/SimpleBank.sol\":1584:1609  isAccountNameExist[_name] */\n      mload(0x40)\n      tag_139\n      swap2\n      swap1\n      tag_59\n      jump\t// in\n    tag_139:\n      swap1\n      dup2\n      mstore\n      0x20\n      add\n      mload(0x40)\n      dup1\n      swap2\n      sub\n      swap1\n      keccak256\n      0x00\n      swap1\n      sload\n      swap1\n      0x0100\n      exp\n      swap1\n      div\n      0xff\n      and\n        /* \"contracts/SimpleBank/SimpleBank.sol\":1584:1617  isAccountNameExist[_name] == true */\n      iszero\n      iszero\n      eq\n        /* \"contracts/SimpleBank/SimpleBank.sol\":1562:1674  require(... */\n      tag_140\n      jumpi\n      mload(0x40)\n      0x08c379a000000000000000000000000000000000000000000000000000000000\n      dup2\n      mstore\n      0x04\n      add\n      tag_141\n      swap1\n      tag_142\n      jump\t// in\n    tag_141:\n      mload(0x40)\n      dup1\n      swap2\n      sub\n      swap1\n      revert\n    tag_140:\n        /* \"contracts/SimpleBank/SimpleBank.sol\":1732:1742  msg.sender */\n      caller\n        /* \"contracts/SimpleBank/SimpleBank.sol\":1707:1742  accounts[_name].owner == msg.sender */\n      0xffffffffffffffffffffffffffffffffffffffff\n      and\n        /* \"contracts/SimpleBank/SimpleBank.sol\":1707:1715  accounts */\n      0x03\n        /* \"contracts/SimpleBank/SimpleBank.sol\":1716:1721  _name */\n      dup4\n        /* \"contracts/SimpleBank/SimpleBank.sol\":1707:1722  accounts[_name] */\n      mload(0x40)\n      tag_143\n      swap2\n      swap1\n      tag_59\n      jump\t// in\n    tag_143:\n      swap1\n      dup2\n      mstore\n      0x20\n      add\n      mload(0x40)\n      dup1\n      swap2\n      sub\n      swap1\n      keccak256\n        /* \"contracts/SimpleBank/SimpleBank.sol\":1707:1728  accounts[_name].owner */\n      0x00\n      add\n      0x00\n      swap1\n      sload\n      swap1\n      0x0100\n      exp\n      swap1\n      div\n      0xffffffffffffffffffffffffffffffffffffffff\n      and\n        /* \"contracts/SimpleBank/SimpleBank.sol\":1707:1742  accounts[_name].owner == msg.sender */\n      0xffffffffffffffffffffffffffffffffffffffff\n      and\n      eq\n        /* \"contracts/SimpleBank/SimpleBank.sol\":1685:1794  require(... */\n      tag_144\n      jumpi\n      mload(0x40)\n      0x08c379a000000000000000000000000000000000000000000000000000000000\n      dup2\n      mstore\n      0x04\n      add\n      tag_145\n      swap1\n      tag_146\n      jump\t// in\n    tag_145:\n      mload(0x40)\n      dup1\n      swap2\n      sub\n      swap1\n      revert\n    tag_144:\n        /* \"contracts/SimpleBank/SimpleBank.sol\":1823:1824  0 */\n      0x00\n        /* \"contracts/SimpleBank/SimpleBank.sol\":1813:1820  _amount */\n      dup2\n        /* \"contracts/SimpleBank/SimpleBank.sol\":1813:1824  _amount > 0 */\n      gt\n        /* \"contracts/SimpleBank/SimpleBank.sol\":1805:1854  require(_amount > 0, \"withdrawn_fail_value_zero\") */\n      tag_147\n      jumpi\n      mload(0x40)\n      0x08c379a000000000000000000000000000000000000000000000000000000000\n      dup2\n      mstore\n      0x04\n      add\n      tag_148\n      swap1\n      tag_149\n      jump\t// in\n    tag_148:\n      mload(0x40)\n      dup1\n      swap2\n      sub\n      swap1\n      revert\n    tag_147:\n        /* \"contracts/SimpleBank/SimpleBank.sol\":1914:1921  _amount */\n      dup1\n        /* \"contracts/SimpleBank/SimpleBank.sol\":1887:1895  accounts */\n      0x03\n        /* \"contracts/SimpleBank/SimpleBank.sol\":1896:1901  _name */\n      dup4\n        /* \"contracts/SimpleBank/SimpleBank.sol\":1887:1902  accounts[_name] */\n      mload(0x40)\n      tag_150\n      swap2\n      swap1\n      tag_59\n      jump\t// in\n    tag_150:\n      swap1\n      dup2\n      mstore\n      0x20\n      add\n      mload(0x40)\n      dup1\n      swap2\n      sub\n      swap1\n      keccak256\n        /* \"contracts/SimpleBank/SimpleBank.sol\":1887:1910  accounts[_name].balance */\n      0x02\n      add\n      sload\n        /* \"contracts/SimpleBank/SimpleBank.sol\":1887:1921  accounts[_name].balance >= _amount */\n      lt\n      iszero\n        /* \"contracts/SimpleBank/SimpleBank.sol\":1865:1982  require(... */\n      tag_151\n      jumpi\n      mload(0x40)\n      0x08c379a000000000000000000000000000000000000000000000000000000000\n      dup2\n      mstore\n      0x04\n      add\n      tag_152\n      swap1\n      tag_153\n      jump\t// in\n    tag_152:\n      mload(0x40)\n      dup1\n      swap2\n      sub\n      swap1\n      revert\n    tag_151:\n        /* \"contracts/SimpleBank/SimpleBank.sol\":2020:2027  _amount */\n      dup1\n        /* \"contracts/SimpleBank/SimpleBank.sol\":1993:2001  accounts */\n      0x03\n        /* \"contracts/SimpleBank/SimpleBank.sol\":2002:2007  _name */\n      dup4\n        /* \"contracts/SimpleBank/SimpleBank.sol\":1993:2008  accounts[_name] */\n      mload(0x40)\n      tag_154\n      swap2\n      swap1\n      tag_59\n      jump\t// in\n    tag_154:\n      swap1\n      dup2\n      mstore\n      0x20\n      add\n      mload(0x40)\n      dup1\n      swap2\n      sub\n      swap1\n      keccak256\n        /* \"contracts/SimpleBank/SimpleBank.sol\":1993:2016  accounts[_name].balance */\n      0x02\n      add\n      0x00\n        /* \"contracts/SimpleBank/SimpleBank.sol\":1993:2027  accounts[_name].balance -= _amount */\n      dup3\n      dup3\n      sload\n      tag_155\n      swap2\n      swap1\n      tag_102\n      jump\t// in\n    tag_155:\n      swap3\n      pop\n      pop\n      dup2\n      swap1\n      sstore\n      pop\n        /* \"contracts/SimpleBank/SimpleBank.sol\":2046:2056  msg.sender */\n      caller\n        /* \"contracts/SimpleBank/SimpleBank.sol\":2038:2066  payable(msg.sender).transfer */\n      0xffffffffffffffffffffffffffffffffffffffff\n      and\n        /* \"contracts/SimpleBank/SimpleBank.sol\":2038:2075  payable(msg.sender).transfer(_amount) */\n      0x08fc\n        /* \"contracts/SimpleBank/SimpleBank.sol\":2067:2074  _amount */\n      dup3\n        /* \"contracts/SimpleBank/SimpleBank.sol\":2038:2075  payable(msg.sender).transfer(_amount) */\n      swap1\n      dup2\n      iszero\n      mul\n      swap1\n      mload(0x40)\n      0x00\n      mload(0x40)\n      dup1\n      dup4\n      sub\n      dup2\n      dup6\n      dup9\n      dup9\n      call\n      swap4\n      pop\n      pop\n      pop\n      pop\n      iszero\n      dup1\n      iszero\n      tag_157\n      jumpi\n      returndatasize\n      0x00\n      dup1\n      returndatacopy\n      revert(0x00, returndatasize)\n    tag_157:\n      pop\n        /* \"contracts/SimpleBank/SimpleBank.sol\":2091:2133  WithdrawnEvent(_name, msg.sender, _amount) */\n      0xf571bb39287f8941696401f5b5a1666ee251efbf23412140fbddce841655d9\n        /* \"contracts/SimpleBank/SimpleBank.sol\":2106:2111  _name */\n      dup3\n        /* \"contracts/SimpleBank/SimpleBank.sol\":2113:2123  msg.sender */\n      caller\n        /* \"contracts/SimpleBank/SimpleBank.sol\":2125:2132  _amount */\n      dup4\n        /* \"contracts/SimpleBank/SimpleBank.sol\":2091:2133  WithdrawnEvent(_name, msg.sender, _amount) */\n      mload(0x40)\n      tag_158\n      swap4\n      swap3\n      swap2\n      swap1\n      tag_159\n      jump\t// in\n    tag_158:\n      mload(0x40)\n      dup1\n      swap2\n      sub\n      swap1\n      log1\n        /* \"contracts/SimpleBank/SimpleBank.sol\":1487:2141  function withdrawn(string memory _name, uint256 _amount) public {... */\n      pop\n      pop\n      jump\t// out\n        /* \"contracts/SimpleBank/SimpleBank.sol\":2149:3347  function transferAmount(... */\n    tag_31:\n        /* \"contracts/SimpleBank/SimpleBank.sol\":2333:2337  true */\n      0x01\n        /* \"contracts/SimpleBank/SimpleBank.sol\":2304:2337  isAccountNameExist[_from] == true */\n      iszero\n      iszero\n        /* \"contracts/SimpleBank/SimpleBank.sol\":2304:2322  isAccountNameExist */\n      0x04\n        /* \"contracts/SimpleBank/SimpleBank.sol\":2323:2328  _from */\n      dup5\n        /* \"contracts/SimpleBank/SimpleBank.sol\":2304:2329  isAccountNameExist[_from] */\n      mload(0x40)\n      tag_161\n      swap2\n      swap1\n      tag_59\n      jump\t// in\n    tag_161:\n      swap1\n      dup2\n      mstore\n      0x20\n      add\n      mload(0x40)\n      dup1\n      swap2\n      sub\n      swap1\n      keccak256\n      0x00\n      swap1\n      sload\n      swap1\n      0x0100\n      exp\n      swap1\n      div\n      0xff\n      and\n        /* \"contracts/SimpleBank/SimpleBank.sol\":2304:2337  isAccountNameExist[_from] == true */\n      iszero\n      iszero\n      eq\n        /* \"contracts/SimpleBank/SimpleBank.sol\":2282:2398  require(... */\n      tag_162\n      jumpi\n      mload(0x40)\n      0x08c379a000000000000000000000000000000000000000000000000000000000\n      dup2\n      mstore\n      0x04\n      add\n      tag_163\n      swap1\n      tag_62\n      jump\t// in\n    tag_163:\n      mload(0x40)\n      dup1\n      swap2\n      sub\n      swap1\n      revert\n    tag_162:\n        /* \"contracts/SimpleBank/SimpleBank.sol\":2458:2462  true */\n      0x01\n        /* \"contracts/SimpleBank/SimpleBank.sol\":2431:2462  isAccountNameExist[_to] == true */\n      iszero\n      iszero\n        /* \"contracts/SimpleBank/SimpleBank.sol\":2431:2449  isAccountNameExist */\n      0x04\n        /* \"contracts/SimpleBank/SimpleBank.sol\":2450:2453  _to */\n      dup4\n        /* \"contracts/SimpleBank/SimpleBank.sol\":2431:2454  isAccountNameExist[_to] */\n      mload(0x40)\n      tag_164\n      swap2\n      swap1\n      tag_59\n      jump\t// in\n    tag_164:\n      swap1\n      dup2\n      mstore\n      0x20\n      add\n      mload(0x40)\n      dup1\n      swap2\n      sub\n      swap1\n      keccak256\n      0x00\n      swap1\n      sload\n      swap1\n      0x0100\n      exp\n      swap1\n      div\n      0xff\n      and\n        /* \"contracts/SimpleBank/SimpleBank.sol\":2431:2462  isAccountNameExist[_to] == true */\n      iszero\n      iszero\n      eq\n        /* \"contracts/SimpleBank/SimpleBank.sol\":2409:2521  require(... */\n      tag_165\n      jumpi\n      mload(0x40)\n      0x08c379a000000000000000000000000000000000000000000000000000000000\n      dup2\n      mstore\n      0x04\n      add\n      tag_166\n      swap1\n      tag_85\n      jump\t// in\n    tag_166:\n      mload(0x40)\n      dup1\n      swap2\n      sub\n      swap1\n      revert\n    tag_165:\n        /* \"contracts/SimpleBank/SimpleBank.sol\":2579:2589  msg.sender */\n      caller\n        /* \"contracts/SimpleBank/SimpleBank.sol\":2554:2589  accounts[_from].owner == msg.sender */\n      0xffffffffffffffffffffffffffffffffffffffff\n      and\n        /* \"contracts/SimpleBank/SimpleBank.sol\":2554:2562  accounts */\n      0x03\n        /* \"contracts/SimpleBank/SimpleBank.sol\":2563:2568  _from */\n      dup5\n        /* \"contracts/SimpleBank/SimpleBank.sol\":2554:2569  accounts[_from] */\n      mload(0x40)\n      tag_167\n      swap2\n      swap1\n      tag_59\n      jump\t// in\n    tag_167:\n      swap1\n      dup2\n      mstore\n      0x20\n      add\n      mload(0x40)\n      dup1\n      swap2\n      sub\n      swap1\n      keccak256\n        /* \"contracts/SimpleBank/SimpleBank.sol\":2554:2575  accounts[_from].owner */\n      0x00\n      add\n      0x00\n      swap1\n      sload\n      swap1\n      0x0100\n      exp\n      swap1\n      div\n      0xffffffffffffffffffffffffffffffffffffffff\n      and\n        /* \"contracts/SimpleBank/SimpleBank.sol\":2554:2589  accounts[_from].owner == msg.sender */\n      0xffffffffffffffffffffffffffffffffffffffff\n      and\n      eq\n        /* \"contracts/SimpleBank/SimpleBank.sol\":2532:2645  require(... */\n      tag_168\n      jumpi\n      mload(0x40)\n      0x08c379a000000000000000000000000000000000000000000000000000000000\n      dup2\n      mstore\n      0x04\n      add\n      tag_169\n      swap1\n      tag_66\n      jump\t// in\n    tag_169:\n      mload(0x40)\n      dup1\n      swap2\n      sub\n      swap1\n      revert\n    tag_168:\n        /* \"contracts/SimpleBank/SimpleBank.sol\":2675:2678  100 */\n      0x64\n        /* \"contracts/SimpleBank/SimpleBank.sol\":2664:2671  _amount */\n      dup2\n        /* \"contracts/SimpleBank/SimpleBank.sol\":2664:2678  _amount >= 100 */\n      lt\n      iszero\n        /* \"contracts/SimpleBank/SimpleBank.sol\":2656:2716  require(_amount >= 100, \"transfer_fail_value_less_than_100\") */\n      tag_170\n      jumpi\n      mload(0x40)\n      0x08c379a000000000000000000000000000000000000000000000000000000000\n      dup2\n      mstore\n      0x04\n      add\n      tag_171\n      swap1\n      tag_69\n      jump\t// in\n    tag_171:\n      mload(0x40)\n      dup1\n      swap2\n      sub\n      swap1\n      revert\n    tag_170:\n        /* \"contracts/SimpleBank/SimpleBank.sol\":2776:2783  _amount */\n      dup1\n        /* \"contracts/SimpleBank/SimpleBank.sol\":2749:2757  accounts */\n      0x03\n        /* \"contracts/SimpleBank/SimpleBank.sol\":2758:2763  _from */\n      dup5\n        /* \"contracts/SimpleBank/SimpleBank.sol\":2749:2764  accounts[_from] */\n      mload(0x40)\n      tag_172\n      swap2\n      swap1\n      tag_59\n      jump\t// in\n    tag_172:\n      swap1\n      dup2\n      mstore\n      0x20\n      add\n      mload(0x40)\n      dup1\n      swap2\n      sub\n      swap1\n      keccak256\n        /* \"contracts/SimpleBank/SimpleBank.sol\":2749:2772  accounts[_from].balance */\n      0x02\n      add\n      sload\n        /* \"contracts/SimpleBank/SimpleBank.sol\":2749:2783  accounts[_from].balance >= _amount */\n      lt\n      iszero\n        /* \"contracts/SimpleBank/SimpleBank.sol\":2727:2848  require(... */\n      tag_173\n      jumpi\n      mload(0x40)\n      0x08c379a000000000000000000000000000000000000000000000000000000000\n      dup2\n      mstore\n      0x04\n      add\n      tag_174\n      swap1\n      tag_75\n      jump\t// in\n    tag_174:\n      mload(0x40)\n      dup1\n      swap2\n      sub\n      swap1\n      revert\n    tag_173:\n        /* \"contracts/SimpleBank/SimpleBank.sol\":2888:2896  accounts */\n      0x03\n        /* \"contracts/SimpleBank/SimpleBank.sol\":2897:2900  _to */\n      dup3\n        /* \"contracts/SimpleBank/SimpleBank.sol\":2888:2901  accounts[_to] */\n      mload(0x40)\n      tag_175\n      swap2\n      swap1\n      tag_59\n      jump\t// in\n    tag_175:\n      swap1\n      dup2\n      mstore\n      0x20\n      add\n      mload(0x40)\n      dup1\n      swap2\n      sub\n      swap1\n      keccak256\n        /* \"contracts/SimpleBank/SimpleBank.sol\":2888:2907  accounts[_to].owner */\n      0x00\n      add\n      0x00\n      swap1\n      sload\n      swap1\n      0x0100\n      exp\n      swap1\n      div\n      0xffffffffffffffffffffffffffffffffffffffff\n      and\n        /* \"contracts/SimpleBank/SimpleBank.sol\":2863:2907  accounts[_from].owner != accounts[_to].owner */\n      0xffffffffffffffffffffffffffffffffffffffff\n      and\n        /* \"contracts/SimpleBank/SimpleBank.sol\":2863:2871  accounts */\n      0x03\n        /* \"contracts/SimpleBank/SimpleBank.sol\":2872:2877  _from */\n      dup5\n        /* \"contracts/SimpleBank/SimpleBank.sol\":2863:2878  accounts[_from] */\n      mload(0x40)\n      tag_176\n      swap2\n      swap1\n      tag_59\n      jump\t// in\n    tag_176:\n      swap1\n      dup2\n      mstore\n      0x20\n      add\n      mload(0x40)\n      dup1\n      swap2\n      sub\n      swap1\n      keccak256\n        /* \"contracts/SimpleBank/SimpleBank.sol\":2863:2884  accounts[_from].owner */\n      0x00\n      add\n      0x00\n      swap1\n      sload\n      swap1\n      0x0100\n      exp\n      swap1\n      div\n      0xffffffffffffffffffffffffffffffffffffffff\n      and\n        /* \"contracts/SimpleBank/SimpleBank.sol\":2863:2907  accounts[_from].owner != accounts[_to].owner */\n      0xffffffffffffffffffffffffffffffffffffffff\n      and\n      eq\n        /* \"contracts/SimpleBank/SimpleBank.sol\":2859:3340  if (accounts[_from].owner != accounts[_to].owner) {... */\n      tag_177\n      jumpi\n        /* \"contracts/SimpleBank/SimpleBank.sol\":2924:2935  uint256 fee */\n      0x00\n        /* \"contracts/SimpleBank/SimpleBank.sol\":2948:2951  100 */\n      0x64\n        /* \"contracts/SimpleBank/SimpleBank.sol\":2938:2945  _amount */\n      dup3\n        /* \"contracts/SimpleBank/SimpleBank.sol\":2938:2951  _amount / 100 */\n      tag_178\n      swap2\n      swap1\n      tag_97\n      jump\t// in\n    tag_178:\n        /* \"contracts/SimpleBank/SimpleBank.sol\":2924:2951  uint256 fee = _amount / 100 */\n      swap1\n      pop\n        /* \"contracts/SimpleBank/SimpleBank.sol\":2981:2984  fee */\n      dup1\n        /* \"contracts/SimpleBank/SimpleBank.sol\":2966:2977  bankBalance */\n      0x01\n      0x00\n        /* \"contracts/SimpleBank/SimpleBank.sol\":2966:2984  bankBalance += fee */\n      dup3\n      dup3\n      sload\n      tag_179\n      swap2\n      swap1\n      tag_99\n      jump\t// in\n    tag_179:\n      swap3\n      pop\n      pop\n      dup2\n      swap1\n      sstore\n      pop\n        /* \"contracts/SimpleBank/SimpleBank.sol\":3026:3033  _amount */\n      dup2\n        /* \"contracts/SimpleBank/SimpleBank.sol\":2999:3007  accounts */\n      0x03\n        /* \"contracts/SimpleBank/SimpleBank.sol\":3008:3013  _from */\n      dup6\n        /* \"contracts/SimpleBank/SimpleBank.sol\":2999:3014  accounts[_from] */\n      mload(0x40)\n      tag_180\n      swap2\n      swap1\n      tag_59\n      jump\t// in\n    tag_180:\n      swap1\n      dup2\n      mstore\n      0x20\n      add\n      mload(0x40)\n      dup1\n      swap2\n      sub\n      swap1\n      keccak256\n        /* \"contracts/SimpleBank/SimpleBank.sol\":2999:3022  accounts[_from].balance */\n      0x02\n      add\n      0x00\n        /* \"contracts/SimpleBank/SimpleBank.sol\":2999:3033  accounts[_from].balance -= _amount */\n      dup3\n      dup3\n      sload\n      tag_181\n      swap2\n      swap1\n      tag_102\n      jump\t// in\n    tag_181:\n      swap3\n      pop\n      pop\n      dup2\n      swap1\n      sstore\n      pop\n        /* \"contracts/SimpleBank/SimpleBank.sol\":3084:3087  fee */\n      dup1\n        /* \"contracts/SimpleBank/SimpleBank.sol\":3074:3081  _amount */\n      dup3\n        /* \"contracts/SimpleBank/SimpleBank.sol\":3074:3087  _amount - fee */\n      tag_182\n      swap2\n      swap1\n      tag_102\n      jump\t// in\n    tag_182:\n        /* \"contracts/SimpleBank/SimpleBank.sol\":3048:3056  accounts */\n      0x03\n        /* \"contracts/SimpleBank/SimpleBank.sol\":3057:3060  _to */\n      dup5\n        /* \"contracts/SimpleBank/SimpleBank.sol\":3048:3061  accounts[_to] */\n      mload(0x40)\n      tag_183\n      swap2\n      swap1\n      tag_59\n      jump\t// in\n    tag_183:\n      swap1\n      dup2\n      mstore\n      0x20\n      add\n      mload(0x40)\n      dup1\n      swap2\n      sub\n      swap1\n      keccak256\n        /* \"contracts/SimpleBank/SimpleBank.sol\":3048:3069  accounts[_to].balance */\n      0x02\n      add\n      0x00\n        /* \"contracts/SimpleBank/SimpleBank.sol\":3048:3088  accounts[_to].balance += (_amount - fee) */\n      dup3\n      dup3\n      sload\n      tag_184\n      swap2\n      swap1\n      tag_99\n      jump\t// in\n    tag_184:\n      swap3\n      pop\n      pop\n      dup2\n      swap1\n      sstore\n      pop\n        /* \"contracts/SimpleBank/SimpleBank.sol\":3108:3154  TransferAmountEvent(_from, _to, _amount - fee) */\n      0x370044a47246afacf081fd58c8468a6482ebc8673d418e785b8d0492240f95de\n        /* \"contracts/SimpleBank/SimpleBank.sol\":3128:3133  _from */\n      dup5\n        /* \"contracts/SimpleBank/SimpleBank.sol\":3135:3138  _to */\n      dup5\n        /* \"contracts/SimpleBank/SimpleBank.sol\":3150:3153  fee */\n      dup4\n        /* \"contracts/SimpleBank/SimpleBank.sol\":3140:3147  _amount */\n      dup6\n        /* \"contracts/SimpleBank/SimpleBank.sol\":3140:3153  _amount - fee */\n      tag_185\n      swap2\n      swap1\n      tag_102\n      jump\t// in\n    tag_185:\n        /* \"contracts/SimpleBank/SimpleBank.sol\":3108:3154  TransferAmountEvent(_from, _to, _amount - fee) */\n      mload(0x40)\n      tag_186\n      swap4\n      swap3\n      swap2\n      swap1\n      tag_112\n      jump\t// in\n    tag_186:\n      mload(0x40)\n      dup1\n      swap2\n      sub\n      swap1\n      log1\n        /* \"contracts/SimpleBank/SimpleBank.sol\":2909:3166  {... */\n      pop\n        /* \"contracts/SimpleBank/SimpleBank.sol\":2859:3340  if (accounts[_from].owner != accounts[_to].owner) {... */\n      jump(tag_187)\n    tag_177:\n        /* \"contracts/SimpleBank/SimpleBank.sol\":3214:3221  _amount */\n      dup1\n        /* \"contracts/SimpleBank/SimpleBank.sol\":3187:3195  accounts */\n      0x03\n        /* \"contracts/SimpleBank/SimpleBank.sol\":3196:3201  _from */\n      dup5\n        /* \"contracts/SimpleBank/SimpleBank.sol\":3187:3202  accounts[_from] */\n      mload(0x40)\n      tag_188\n      swap2\n      swap1\n      tag_59\n      jump\t// in\n    tag_188:\n      swap1\n      dup2\n      mstore\n      0x20\n      add\n      mload(0x40)\n      dup1\n      swap2\n      sub\n      swap1\n      keccak256\n        /* \"contracts/SimpleBank/SimpleBank.sol\":3187:3210  accounts[_from].balance */\n      0x02\n      add\n      0x00\n        /* \"contracts/SimpleBank/SimpleBank.sol\":3187:3221  accounts[_from].balance -= _amount */\n      dup3\n      dup3\n      sload\n      tag_189\n      swap2\n      swap1\n      tag_102\n      jump\t// in\n    tag_189:\n      swap3\n      pop\n      pop\n      dup2\n      swap1\n      sstore\n      pop\n        /* \"contracts/SimpleBank/SimpleBank.sol\":3261:3268  _amount */\n      dup1\n        /* \"contracts/SimpleBank/SimpleBank.sol\":3236:3244  accounts */\n      0x03\n        /* \"contracts/SimpleBank/SimpleBank.sol\":3245:3248  _to */\n      dup4\n        /* \"contracts/SimpleBank/SimpleBank.sol\":3236:3249  accounts[_to] */\n      mload(0x40)\n      tag_190\n      swap2\n      swap1\n      tag_59\n      jump\t// in\n    tag_190:\n      swap1\n      dup2\n      mstore\n      0x20\n      add\n      mload(0x40)\n      dup1\n      swap2\n      sub\n      swap1\n      keccak256\n        /* \"contracts/SimpleBank/SimpleBank.sol\":3236:3257  accounts[_to].balance */\n      0x02\n      add\n      0x00\n        /* \"contracts/SimpleBank/SimpleBank.sol\":3236:3268  accounts[_to].balance += _amount */\n      dup3\n      dup3\n      sload\n      tag_191\n      swap2\n      swap1\n      tag_99\n      jump\t// in\n    tag_191:\n      swap3\n      pop\n      pop\n      dup2\n      swap1\n      sstore\n      pop\n        /* \"contracts/SimpleBank/SimpleBank.sol\":3288:3328  TransferAmountEvent(_from, _to, _amount) */\n      0x370044a47246afacf081fd58c8468a6482ebc8673d418e785b8d0492240f95de\n        /* \"contracts/SimpleBank/SimpleBank.sol\":3308:3313  _from */\n      dup4\n        /* \"contracts/SimpleBank/SimpleBank.sol\":3315:3318  _to */\n      dup4\n        /* \"contracts/SimpleBank/SimpleBank.sol\":3320:3327  _amount */\n      dup4\n        /* \"contracts/SimpleBank/SimpleBank.sol\":3288:3328  TransferAmountEvent(_from, _to, _amount) */\n      mload(0x40)\n      tag_192\n      swap4\n      swap3\n      swap2\n      swap1\n      tag_112\n      jump\t// in\n    tag_192:\n      mload(0x40)\n      dup1\n      swap2\n      sub\n      swap1\n      log1\n        /* \"contracts/SimpleBank/SimpleBank.sol\":2859:3340  if (accounts[_from].owner != accounts[_to].owner) {... */\n    tag_187:\n        /* \"contracts/SimpleBank/SimpleBank.sol\":2149:3347  function transferAmount(... */\n      pop\n      pop\n      pop\n      jump\t// out\n        /* \"contracts/SimpleBank/SimpleBank.sol\":1132:1479  function deposit(string memory _name) public payable {... */\n    tag_34:\n        /* \"contracts/SimpleBank/SimpleBank.sol\":1247:1251  true */\n      0x01\n        /* \"contracts/SimpleBank/SimpleBank.sol\":1218:1251  isAccountNameExist[_name] == true */\n      iszero\n      iszero\n        /* \"contracts/SimpleBank/SimpleBank.sol\":1218:1236  isAccountNameExist */\n      0x04\n        /* \"contracts/SimpleBank/SimpleBank.sol\":1237:1242  _name */\n      dup3\n        /* \"contracts/SimpleBank/SimpleBank.sol\":1218:1243  isAccountNameExist[_name] */\n      mload(0x40)\n      tag_194\n      swap2\n      swap1\n      tag_59\n      jump\t// in\n    tag_194:\n      swap1\n      dup2\n      mstore\n      0x20\n      add\n      mload(0x40)\n      dup1\n      swap2\n      sub\n      swap1\n      keccak256\n      0x00\n      swap1\n      sload\n      swap1\n      0x0100\n      exp\n      swap1\n      div\n      0xff\n      and\n        /* \"contracts/SimpleBank/SimpleBank.sol\":1218:1251  isAccountNameExist[_name] == true */\n      iszero\n      iszero\n      eq\n        /* \"contracts/SimpleBank/SimpleBank.sol\":1196:1306  require(... */\n      tag_195\n      jumpi\n      mload(0x40)\n      0x08c379a000000000000000000000000000000000000000000000000000000000\n      dup2\n      mstore\n      0x04\n      add\n      tag_196\n      swap1\n      tag_197\n      jump\t// in\n    tag_196:\n      mload(0x40)\n      dup1\n      swap2\n      sub\n      swap1\n      revert\n    tag_195:\n        /* \"contracts/SimpleBank/SimpleBank.sol\":1337:1338  0 */\n      0x00\n        /* \"contracts/SimpleBank/SimpleBank.sol\":1325:1334  msg.value */\n      callvalue\n        /* \"contracts/SimpleBank/SimpleBank.sol\":1325:1338  msg.value > 0 */\n      gt\n        /* \"contracts/SimpleBank/SimpleBank.sol\":1317:1366  require(msg.value > 0, \"deposit_fail_value_zero\") */\n      tag_198\n      jumpi\n      mload(0x40)\n      0x08c379a000000000000000000000000000000000000000000000000000000000\n      dup2\n      mstore\n      0x04\n      add\n      tag_199\n      swap1\n      tag_200\n      jump\t// in\n    tag_199:\n      mload(0x40)\n      dup1\n      swap2\n      sub\n      swap1\n      revert\n    tag_198:\n        /* \"contracts/SimpleBank/SimpleBank.sol\":1404:1413  msg.value */\n      callvalue\n        /* \"contracts/SimpleBank/SimpleBank.sol\":1377:1385  accounts */\n      0x03\n        /* \"contracts/SimpleBank/SimpleBank.sol\":1386:1391  _name */\n      dup3\n        /* \"contracts/SimpleBank/SimpleBank.sol\":1377:1392  accounts[_name] */\n      mload(0x40)\n      tag_201\n      swap2\n      swap1\n      tag_59\n      jump\t// in\n    tag_201:\n      swap1\n      dup2\n      mstore\n      0x20\n      add\n      mload(0x40)\n      dup1\n      swap2\n      sub\n      swap1\n      keccak256\n        /* \"contracts/SimpleBank/SimpleBank.sol\":1377:1400  accounts[_name].balance */\n      0x02\n      add\n      0x00\n        /* \"contracts/SimpleBank/SimpleBank.sol\":1377:1413  accounts[_name].balance += msg.value */\n      dup3\n      dup3\n      sload\n      tag_202\n      swap2\n      swap1\n      tag_99\n      jump\t// in\n    tag_202:\n      swap3\n      pop\n      pop\n      dup2\n      swap1\n      sstore\n      pop\n        /* \"contracts/SimpleBank/SimpleBank.sol\":1429:1471  DepositEvent(msg.sender, _name, msg.value) */\n      0x03e0b25ba1ab101c1d9112766101bb987f00f29a37a44b4a0813ed489a4f3ffa\n        /* \"contracts/SimpleBank/SimpleBank.sol\":1442:1452  msg.sender */\n      caller\n        /* \"contracts/SimpleBank/SimpleBank.sol\":1454:1459  _name */\n      dup3\n        /* \"contracts/SimpleBank/SimpleBank.sol\":1461:1470  msg.value */\n      callvalue\n        /* \"contracts/SimpleBank/SimpleBank.sol\":1429:1471  DepositEvent(msg.sender, _name, msg.value) */\n      mload(0x40)\n      tag_203\n      swap4\n      swap3\n      swap2\n      swap1\n      tag_204\n      jump\t// in\n    tag_203:\n      mload(0x40)\n      dup1\n      swap2\n      sub\n      swap1\n      log1\n        /* \"contracts/SimpleBank/SimpleBank.sol\":1132:1479  function deposit(string memory _name) public payable {... */\n      pop\n      jump\t// out\n        /* \"contracts/SimpleBank/SimpleBank.sol\":5581:5728  function getUserAccounts()... */\n    tag_37:\n        /* \"contracts/SimpleBank/SimpleBank.sol\":5656:5671  string[] memory */\n      0x60\n        /* \"contracts/SimpleBank/SimpleBank.sol\":5696:5708  userAccounts */\n      0x02\n        /* \"contracts/SimpleBank/SimpleBank.sol\":5696:5720  userAccounts[msg.sender] */\n      0x00\n        /* \"contracts/SimpleBank/SimpleBank.sol\":5709:5719  msg.sender */\n      caller\n        /* \"contracts/SimpleBank/SimpleBank.sol\":5696:5720  userAccounts[msg.sender] */\n      0xffffffffffffffffffffffffffffffffffffffff\n      and\n      0xffffffffffffffffffffffffffffffffffffffff\n      and\n      dup2\n      mstore\n      0x20\n      add\n      swap1\n      dup2\n      mstore\n      0x20\n      add\n      0x00\n      keccak256\n        /* \"contracts/SimpleBank/SimpleBank.sol\":5689:5720  return userAccounts[msg.sender] */\n      dup1\n      sload\n      dup1\n      0x20\n      mul\n      0x20\n      add\n      mload(0x40)\n      swap1\n      dup2\n      add\n      0x40\n      mstore\n      dup1\n      swap3\n      swap2\n      swap1\n      dup2\n      dup2\n      mstore\n      0x20\n      add\n      0x00\n      swap1\n    tag_206:\n      dup3\n      dup3\n      lt\n      iszero\n      tag_207\n      jumpi\n      dup4\n      dup3\n      swap1\n      0x00\n      mstore\n      keccak256(0x00, 0x20)\n      add\n      dup1\n      sload\n      tag_209\n      swap1\n      tag_210\n      jump\t// in\n    tag_209:\n      dup1\n      0x1f\n      add\n      0x20\n      dup1\n      swap2\n      div\n      mul\n      0x20\n      add\n      mload(0x40)\n      swap1\n      dup2\n      add\n      0x40\n      mstore\n      dup1\n      swap3\n      swap2\n      swap1\n      dup2\n      dup2\n      mstore\n      0x20\n      add\n      dup3\n      dup1\n      sload\n      tag_211\n      swap1\n      tag_210\n      jump\t// in\n    tag_211:\n      dup1\n      iszero\n      tag_212\n      jumpi\n      dup1\n      0x1f\n      lt\n      tag_213\n      jumpi\n      0x0100\n      dup1\n      dup4\n      sload\n      div\n      mul\n      dup4\n      mstore\n      swap2\n      0x20\n      add\n      swap2\n      jump(tag_212)\n    tag_213:\n      dup3\n      add\n      swap2\n      swap1\n      0x00\n      mstore\n      keccak256(0x00, 0x20)\n      swap1\n    tag_214:\n      dup2\n      sload\n      dup2\n      mstore\n      swap1\n      0x01\n      add\n      swap1\n      0x20\n      add\n      dup1\n      dup4\n      gt\n      tag_214\n      jumpi\n      dup3\n      swap1\n      sub\n      0x1f\n      and\n      dup3\n      add\n      swap2\n    tag_212:\n      pop\n      pop\n      pop\n      pop\n      pop\n      dup2\n      mstore\n      0x20\n      add\n      swap1\n      0x01\n      add\n      swap1\n      jump(tag_206)\n    tag_207:\n      pop\n      pop\n      pop\n      pop\n      swap1\n      pop\n        /* \"contracts/SimpleBank/SimpleBank.sol\":5581:5728  function getUserAccounts()... */\n      swap1\n      jump\t// out\n        /* \"contracts/SimpleBank/SimpleBank.sol\":5415:5573  function getBalanceByName(string memory _name)... */\n    tag_43:\n        /* \"contracts/SimpleBank/SimpleBank.sol\":5510:5517  uint256 */\n      0x00\n        /* \"contracts/SimpleBank/SimpleBank.sol\":5542:5550  accounts */\n      0x03\n        /* \"contracts/SimpleBank/SimpleBank.sol\":5551:5556  _name */\n      dup3\n        /* \"contracts/SimpleBank/SimpleBank.sol\":5542:5557  accounts[_name] */\n      mload(0x40)\n      tag_216\n      swap2\n      swap1\n      tag_59\n      jump\t// in\n    tag_216:\n      swap1\n      dup2\n      mstore\n      0x20\n      add\n      mload(0x40)\n      dup1\n      swap2\n      sub\n      swap1\n      keccak256\n        /* \"contracts/SimpleBank/SimpleBank.sol\":5542:5565  accounts[_name].balance */\n      0x02\n      add\n      sload\n        /* \"contracts/SimpleBank/SimpleBank.sol\":5535:5565  return accounts[_name].balance */\n      swap1\n      pop\n        /* \"contracts/SimpleBank/SimpleBank.sol\":5415:5573  function getBalanceByName(string memory _name)... */\n      swap2\n      swap1\n      pop\n      jump\t// out\n        /* \"contracts/SimpleBank/SimpleBank.sol\":5250:5407  function getAccountByName(string memory _name)... */\n    tag_49:\n        /* \"contracts/SimpleBank/SimpleBank.sol\":5345:5359  Account memory */\n      tag_217\n      tag_218\n      jump\t// in\n    tag_217:\n        /* \"contracts/SimpleBank/SimpleBank.sol\":5384:5392  accounts */\n      0x03\n        /* \"contracts/SimpleBank/SimpleBank.sol\":5393:5398  _name */\n      dup3\n        /* \"contracts/SimpleBank/SimpleBank.sol\":5384:5399  accounts[_name] */\n      mload(0x40)\n      tag_220\n      swap2\n      swap1\n      tag_59\n      jump\t// in\n    tag_220:\n      swap1\n      dup2\n      mstore\n      0x20\n      add\n      mload(0x40)\n      dup1\n      swap2\n      sub\n      swap1\n      keccak256\n        /* \"contracts/SimpleBank/SimpleBank.sol\":5377:5399  return accounts[_name] */\n      mload(0x40)\n      dup1\n      0x60\n      add\n      0x40\n      mstore\n      swap1\n      dup2\n      0x00\n      dup3\n      add\n      0x00\n      swap1\n      sload\n      swap1\n      0x0100\n      exp\n      swap1\n      div\n      0xffffffffffffffffffffffffffffffffffffffff\n      and\n      0xffffffffffffffffffffffffffffffffffffffff\n      and\n      0xffffffffffffffffffffffffffffffffffffffff\n      and\n      dup2\n      mstore\n      0x20\n      add\n      0x01\n      dup3\n      add\n      dup1\n      sload\n      tag_221\n      swap1\n      tag_210\n      jump\t// in\n    tag_221:\n      dup1\n      0x1f\n      add\n      0x20\n      dup1\n      swap2\n      div\n      mul\n      0x20\n      add\n      mload(0x40)\n      swap1\n      dup2\n      add\n      0x40\n      mstore\n      dup1\n      swap3\n      swap2\n      swap1\n      dup2\n      dup2\n      mstore\n      0x20\n      add\n      dup3\n      dup1\n      sload\n      tag_222\n      swap1\n      tag_210\n      jump\t// in\n    tag_222:\n      dup1\n      iszero\n      tag_223\n      jumpi\n      dup1\n      0x1f\n      lt\n      tag_224\n      jumpi\n      0x0100\n      dup1\n      dup4\n      sload\n      div\n      mul\n      dup4\n      mstore\n      swap2\n      0x20\n      add\n      swap2\n      jump(tag_223)\n    tag_224:\n      dup3\n      add\n      swap2\n      swap1\n      0x00\n      mstore\n      keccak256(0x00, 0x20)\n      swap1\n    tag_225:\n      dup2\n      sload\n      dup2\n      mstore\n      swap1\n      0x01\n      add\n      swap1\n      0x20\n      add\n      dup1\n      dup4\n      gt\n      tag_225\n      jumpi\n      dup3\n      swap1\n      sub\n      0x1f\n      and\n      dup3\n      add\n      swap2\n    tag_223:\n      pop\n      pop\n      pop\n      pop\n      pop\n      dup2\n      mstore\n      0x20\n      add\n      0x02\n      dup3\n      add\n      sload\n      dup2\n      mstore\n      pop\n      pop\n      swap1\n      pop\n        /* \"contracts/SimpleBank/SimpleBank.sol\":5250:5407  function getAccountByName(string memory _name)... */\n      swap2\n      swap1\n      pop\n      jump\t// out\n        /* \"contracts/SimpleBank/SimpleBank.sol\":3355:3708  function withdrawnBankBalance(uint256 _amount) public {... */\n    tag_56:\n        /* \"contracts/SimpleBank/SimpleBank.sol\":3441:3451  msg.sender */\n      caller\n        /* \"contracts/SimpleBank/SimpleBank.sol\":3428:3451  bankOwner == msg.sender */\n      0xffffffffffffffffffffffffffffffffffffffff\n      and\n        /* \"contracts/SimpleBank/SimpleBank.sol\":3428:3437  bankOwner */\n      0x00\n      dup1\n      sload\n      swap1\n      0x0100\n      exp\n      swap1\n      div\n      0xffffffffffffffffffffffffffffffffffffffff\n      and\n        /* \"contracts/SimpleBank/SimpleBank.sol\":3428:3451  bankOwner == msg.sender */\n      0xffffffffffffffffffffffffffffffffffffffff\n      and\n      eq\n        /* \"contracts/SimpleBank/SimpleBank.sol\":3420:3480  require(bankOwner == msg.sender, \"withdrawn_fail_not_owner\") */\n      tag_227\n      jumpi\n      mload(0x40)\n      0x08c379a000000000000000000000000000000000000000000000000000000000\n      dup2\n      mstore\n      0x04\n      add\n      tag_228\n      swap1\n      tag_146\n      jump\t// in\n    tag_228:\n      mload(0x40)\n      dup1\n      swap2\n      sub\n      swap1\n      revert\n    tag_227:\n        /* \"contracts/SimpleBank/SimpleBank.sol\":3509:3510  0 */\n      0x00\n        /* \"contracts/SimpleBank/SimpleBank.sol\":3499:3506  _amount */\n      dup2\n        /* \"contracts/SimpleBank/SimpleBank.sol\":3499:3510  _amount > 0 */\n      gt\n        /* \"contracts/SimpleBank/SimpleBank.sol\":3491:3540  require(_amount > 0, \"withdrawn_fail_value_zero\") */\n      tag_229\n      jumpi\n      mload(0x40)\n      0x08c379a000000000000000000000000000000000000000000000000000000000\n      dup2\n      mstore\n      0x04\n      add\n      tag_230\n      swap1\n      tag_149\n      jump\t// in\n    tag_230:\n      mload(0x40)\n      dup1\n      swap2\n      sub\n      swap1\n      revert\n    tag_229:\n        /* \"contracts/SimpleBank/SimpleBank.sol\":3574:3581  _amount */\n      dup1\n        /* \"contracts/SimpleBank/SimpleBank.sol\":3559:3570  bankBalance */\n      sload(0x01)\n        /* \"contracts/SimpleBank/SimpleBank.sol\":3559:3581  bankBalance >= _amount */\n      lt\n      iszero\n        /* \"contracts/SimpleBank/SimpleBank.sol\":3551:3619  require(bankBalance >= _amount, \"withdrawn_fail_balance_not_enough\") */\n      tag_231\n      jumpi\n      mload(0x40)\n      0x08c379a000000000000000000000000000000000000000000000000000000000\n      dup2\n      mstore\n      0x04\n      add\n      tag_232\n      swap1\n      tag_153\n      jump\t// in\n    tag_232:\n      mload(0x40)\n      dup1\n      swap2\n      sub\n      swap1\n      revert\n    tag_231:\n        /* \"contracts/SimpleBank/SimpleBank.sol\":3645:3652  _amount */\n      dup1\n        /* \"contracts/SimpleBank/SimpleBank.sol\":3630:3641  bankBalance */\n      0x01\n      0x00\n        /* \"contracts/SimpleBank/SimpleBank.sol\":3630:3652  bankBalance -= _amount */\n      dup3\n      dup3\n      sload\n      tag_233\n      swap2\n      swap1\n      tag_102\n      jump\t// in\n    tag_233:\n      swap3\n      pop\n      pop\n      dup2\n      swap1\n      sstore\n      pop\n        /* \"contracts/SimpleBank/SimpleBank.sol\":3671:3681  msg.sender */\n      caller\n        /* \"contracts/SimpleBank/SimpleBank.sol\":3663:3691  payable(msg.sender).transfer */\n      0xffffffffffffffffffffffffffffffffffffffff\n      and\n        /* \"contracts/SimpleBank/SimpleBank.sol\":3663:3700  payable(msg.sender).transfer(_amount) */\n      0x08fc\n        /* \"contracts/SimpleBank/SimpleBank.sol\":3692:3699  _amount */\n      dup3\n        /* \"contracts/SimpleBank/SimpleBank.sol\":3663:3700  payable(msg.sender).transfer(_amount) */\n      swap1\n      dup2\n      iszero\n      mul\n      swap1\n      mload(0x40)\n      0x00\n      mload(0x40)\n      dup1\n      dup4\n      sub\n      dup2\n      dup6\n      dup9\n      dup9\n      call\n      swap4\n      pop\n      pop\n      pop\n      pop\n      iszero\n      dup1\n      iszero\n      tag_235\n      jumpi\n      returndatasize\n      0x00\n      dup1\n      returndatacopy\n      revert(0x00, returndatasize)\n    tag_235:\n      pop\n        /* \"contracts/SimpleBank/SimpleBank.sol\":3355:3708  function withdrawnBankBalance(uint256 _amount) public {... */\n      pop\n      jump\t// out\n    tag_218:\n      mload(0x40)\n      dup1\n      0x60\n      add\n      0x40\n      mstore\n      dup1\n      and(0xffffffffffffffffffffffffffffffffffffffff, 0x00)\n      dup2\n      mstore\n      0x20\n      add\n      0x60\n      dup2\n      mstore\n      0x20\n      add\n      0x00\n      dup2\n      mstore\n      pop\n      swap1\n      jump\t// out\n        /* \"#utility.yul\":7:82   */\n    tag_236:\n        /* \"#utility.yul\":40:46   */\n      0x00\n        /* \"#utility.yul\":73:75   */\n      0x40\n        /* \"#utility.yul\":67:76   */\n      mload\n        /* \"#utility.yul\":57:76   */\n      swap1\n      pop\n        /* \"#utility.yul\":7:82   */\n      swap1\n      jump\t// out\n        /* \"#utility.yul\":88:205   */\n    tag_237:\n        /* \"#utility.yul\":197:198   */\n      0x00\n        /* \"#utility.yul\":194:195   */\n      dup1\n        /* \"#utility.yul\":187:199   */\n      revert\n        /* \"#utility.yul\":211:328   */\n    tag_238:\n        /* \"#utility.yul\":320:321   */\n      0x00\n        /* \"#utility.yul\":317:318   */\n      dup1\n        /* \"#utility.yul\":310:322   */\n      revert\n        /* \"#utility.yul\":334:451   */\n    tag_239:\n        /* \"#utility.yul\":443:444   */\n      0x00\n        /* \"#utility.yul\":440:441   */\n      dup1\n        /* \"#utility.yul\":433:445   */\n      revert\n        /* \"#utility.yul\":457:574   */\n    tag_240:\n        /* \"#utility.yul\":566:567   */\n      0x00\n        /* \"#utility.yul\":563:564   */\n      dup1\n        /* \"#utility.yul\":556:568   */\n      revert\n        /* \"#utility.yul\":580:682   */\n    tag_241:\n        /* \"#utility.yul\":621:627   */\n      0x00\n        /* \"#utility.yul\":672:674   */\n      0x1f\n        /* \"#utility.yul\":668:675   */\n      not\n        /* \"#utility.yul\":663:665   */\n      0x1f\n        /* \"#utility.yul\":656:661   */\n      dup4\n        /* \"#utility.yul\":652:666   */\n      add\n        /* \"#utility.yul\":648:676   */\n      and\n        /* \"#utility.yul\":638:676   */\n      swap1\n      pop\n        /* \"#utility.yul\":580:682   */\n      swap2\n      swap1\n      pop\n      jump\t// out\n        /* \"#utility.yul\":688:868   */\n    tag_242:\n        /* \"#utility.yul\":736:813   */\n      0x4e487b7100000000000000000000000000000000000000000000000000000000\n        /* \"#utility.yul\":733:734   */\n      0x00\n        /* \"#utility.yul\":726:814   */\n      mstore\n        /* \"#utility.yul\":833:837   */\n      0x41\n        /* \"#utility.yul\":830:831   */\n      0x04\n        /* \"#utility.yul\":823:838   */\n      mstore\n        /* \"#utility.yul\":857:861   */\n      0x24\n        /* \"#utility.yul\":854:855   */\n      0x00\n        /* \"#utility.yul\":847:862   */\n      revert\n        /* \"#utility.yul\":874:1155   */\n    tag_243:\n        /* \"#utility.yul\":957:984   */\n      tag_328\n        /* \"#utility.yul\":979:983   */\n      dup3\n        /* \"#utility.yul\":957:984   */\n      tag_241\n      jump\t// in\n    tag_328:\n        /* \"#utility.yul\":949:955   */\n      dup2\n        /* \"#utility.yul\":945:985   */\n      add\n        /* \"#utility.yul\":1087:1093   */\n      dup2\n        /* \"#utility.yul\":1075:1085   */\n      dup2\n        /* \"#utility.yul\":1072:1094   */\n      lt\n        /* \"#utility.yul\":1051:1069   */\n      0xffffffffffffffff\n        /* \"#utility.yul\":1039:1049   */\n      dup3\n        /* \"#utility.yul\":1036:1070   */\n      gt\n        /* \"#utility.yul\":1033:1095   */\n      or\n        /* \"#utility.yul\":1030:1118   */\n      iszero\n      tag_329\n      jumpi\n        /* \"#utility.yul\":1098:1116   */\n      tag_330\n      tag_242\n      jump\t// in\n    tag_330:\n        /* \"#utility.yul\":1030:1118   */\n    tag_329:\n        /* \"#utility.yul\":1138:1148   */\n      dup1\n        /* \"#utility.yul\":1134:1136   */\n      0x40\n        /* \"#utility.yul\":1127:1149   */\n      mstore\n        /* \"#utility.yul\":917:1155   */\n      pop\n        /* \"#utility.yul\":874:1155   */\n      pop\n      pop\n      jump\t// out\n        /* \"#utility.yul\":1161:1290   */\n    tag_244:\n        /* \"#utility.yul\":1195:1201   */\n      0x00\n        /* \"#utility.yul\":1222:1242   */\n      tag_332\n      tag_236\n      jump\t// in\n    tag_332:\n        /* \"#utility.yul\":1212:1242   */\n      swap1\n      pop\n        /* \"#utility.yul\":1251:1284   */\n      tag_333\n        /* \"#utility.yul\":1279:1283   */\n      dup3\n        /* \"#utility.yul\":1271:1277   */\n      dup3\n        /* \"#utility.yul\":1251:1284   */\n      tag_243\n      jump\t// in\n    tag_333:\n        /* \"#utility.yul\":1161:1290   */\n      swap2\n      swap1\n      pop\n      jump\t// out\n        /* \"#utility.yul\":1296:1604   */\n    tag_245:\n        /* \"#utility.yul\":1358:1362   */\n      0x00\n        /* \"#utility.yul\":1448:1466   */\n      0xffffffffffffffff\n        /* \"#utility.yul\":1440:1446   */\n      dup3\n        /* \"#utility.yul\":1437:1467   */\n      gt\n        /* \"#utility.yul\":1434:1490   */\n      iszero\n      tag_335\n      jumpi\n        /* \"#utility.yul\":1470:1488   */\n      tag_336\n      tag_242\n      jump\t// in\n    tag_336:\n        /* \"#utility.yul\":1434:1490   */\n    tag_335:\n        /* \"#utility.yul\":1508:1537   */\n      tag_337\n        /* \"#utility.yul\":1530:1536   */\n      dup3\n        /* \"#utility.yul\":1508:1537   */\n      tag_241\n      jump\t// in\n    tag_337:\n        /* \"#utility.yul\":1500:1537   */\n      swap1\n      pop\n        /* \"#utility.yul\":1592:1596   */\n      0x20\n        /* \"#utility.yul\":1586:1590   */\n      dup2\n        /* \"#utility.yul\":1582:1597   */\n      add\n        /* \"#utility.yul\":1574:1597   */\n      swap1\n      pop\n        /* \"#utility.yul\":1296:1604   */\n      swap2\n      swap1\n      pop\n      jump\t// out\n        /* \"#utility.yul\":1610:1764   */\n    tag_246:\n        /* \"#utility.yul\":1694:1700   */\n      dup3\n        /* \"#utility.yul\":1689:1692   */\n      dup2\n        /* \"#utility.yul\":1684:1687   */\n      dup4\n        /* \"#utility.yul\":1671:1701   */\n      calldatacopy\n        /* \"#utility.yul\":1756:1757   */\n      0x00\n        /* \"#utility.yul\":1747:1753   */\n      dup4\n        /* \"#utility.yul\":1742:1745   */\n      dup4\n        /* \"#utility.yul\":1738:1754   */\n      add\n        /* \"#utility.yul\":1731:1758   */\n      mstore\n        /* \"#utility.yul\":1610:1764   */\n      pop\n      pop\n      pop\n      jump\t// out\n        /* \"#utility.yul\":1770:2182   */\n    tag_247:\n        /* \"#utility.yul\":1848:1853   */\n      0x00\n        /* \"#utility.yul\":1873:1939   */\n      tag_340\n        /* \"#utility.yul\":1889:1938   */\n      tag_341\n        /* \"#utility.yul\":1931:1937   */\n      dup5\n        /* \"#utility.yul\":1889:1938   */\n      tag_245\n      jump\t// in\n    tag_341:\n        /* \"#utility.yul\":1873:1939   */\n      tag_244\n      jump\t// in\n    tag_340:\n        /* \"#utility.yul\":1864:1939   */\n      swap1\n      pop\n        /* \"#utility.yul\":1962:1968   */\n      dup3\n        /* \"#utility.yul\":1955:1960   */\n      dup2\n        /* \"#utility.yul\":1948:1969   */\n      mstore\n        /* \"#utility.yul\":2000:2004   */\n      0x20\n        /* \"#utility.yul\":1993:1998   */\n      dup2\n        /* \"#utility.yul\":1989:2005   */\n      add\n        /* \"#utility.yul\":2038:2041   */\n      dup5\n        /* \"#utility.yul\":2029:2035   */\n      dup5\n        /* \"#utility.yul\":2024:2027   */\n      dup5\n        /* \"#utility.yul\":2020:2036   */\n      add\n        /* \"#utility.yul\":2017:2042   */\n      gt\n        /* \"#utility.yul\":2014:2126   */\n      iszero\n      tag_342\n      jumpi\n        /* \"#utility.yul\":2045:2124   */\n      tag_343\n      tag_240\n      jump\t// in\n    tag_343:\n        /* \"#utility.yul\":2014:2126   */\n    tag_342:\n        /* \"#utility.yul\":2135:2176   */\n      tag_344\n        /* \"#utility.yul\":2169:2175   */\n      dup5\n        /* \"#utility.yul\":2164:2167   */\n      dup3\n        /* \"#utility.yul\":2159:2162   */\n      dup6\n        /* \"#utility.yul\":2135:2176   */\n      tag_246\n      jump\t// in\n    tag_344:\n        /* \"#utility.yul\":1854:2182   */\n      pop\n        /* \"#utility.yul\":1770:2182   */\n      swap4\n      swap3\n      pop\n      pop\n      pop\n      jump\t// out\n        /* \"#utility.yul\":2202:2542   */\n    tag_248:\n        /* \"#utility.yul\":2258:2263   */\n      0x00\n        /* \"#utility.yul\":2307:2310   */\n      dup3\n        /* \"#utility.yul\":2300:2304   */\n      0x1f\n        /* \"#utility.yul\":2292:2298   */\n      dup4\n        /* \"#utility.yul\":2288:2305   */\n      add\n        /* \"#utility.yul\":2284:2311   */\n      slt\n        /* \"#utility.yul\":2274:2396   */\n      tag_346\n      jumpi\n        /* \"#utility.yul\":2315:2394   */\n      tag_347\n      tag_239\n      jump\t// in\n    tag_347:\n        /* \"#utility.yul\":2274:2396   */\n    tag_346:\n        /* \"#utility.yul\":2432:2438   */\n      dup2\n        /* \"#utility.yul\":2419:2439   */\n      calldataload\n        /* \"#utility.yul\":2457:2536   */\n      tag_348\n        /* \"#utility.yul\":2532:2535   */\n      dup5\n        /* \"#utility.yul\":2524:2530   */\n      dup3\n        /* \"#utility.yul\":2517:2521   */\n      0x20\n        /* \"#utility.yul\":2509:2515   */\n      dup7\n        /* \"#utility.yul\":2505:2522   */\n      add\n        /* \"#utility.yul\":2457:2536   */\n      tag_247\n      jump\t// in\n    tag_348:\n        /* \"#utility.yul\":2448:2536   */\n      swap2\n      pop\n        /* \"#utility.yul\":2264:2542   */\n      pop\n        /* \"#utility.yul\":2202:2542   */\n      swap3\n      swap2\n      pop\n      pop\n      jump\t// out\n        /* \"#utility.yul\":2548:2869   */\n    tag_249:\n        /* \"#utility.yul\":2635:2639   */\n      0x00\n        /* \"#utility.yul\":2725:2743   */\n      0xffffffffffffffff\n        /* \"#utility.yul\":2717:2723   */\n      dup3\n        /* \"#utility.yul\":2714:2744   */\n      gt\n        /* \"#utility.yul\":2711:2767   */\n      iszero\n      tag_350\n      jumpi\n        /* \"#utility.yul\":2747:2765   */\n      tag_351\n      tag_242\n      jump\t// in\n    tag_351:\n        /* \"#utility.yul\":2711:2767   */\n    tag_350:\n        /* \"#utility.yul\":2797:2801   */\n      0x20\n        /* \"#utility.yul\":2789:2795   */\n      dup3\n        /* \"#utility.yul\":2785:2802   */\n      mul\n        /* \"#utility.yul\":2777:2802   */\n      swap1\n      pop\n        /* \"#utility.yul\":2857:2861   */\n      0x20\n        /* \"#utility.yul\":2851:2855   */\n      dup2\n        /* \"#utility.yul\":2847:2862   */\n      add\n        /* \"#utility.yul\":2839:2862   */\n      swap1\n      pop\n        /* \"#utility.yul\":2548:2869   */\n      swap2\n      swap1\n      pop\n      jump\t// out\n        /* \"#utility.yul\":2875:2992   */\n    tag_250:\n        /* \"#utility.yul\":2984:2985   */\n      0x00\n        /* \"#utility.yul\":2981:2982   */\n      dup1\n        /* \"#utility.yul\":2974:2986   */\n      revert\n        /* \"#utility.yul\":3014:3959   */\n    tag_251:\n        /* \"#utility.yul\":3120:3125   */\n      0x00\n        /* \"#utility.yul\":3145:3236   */\n      tag_354\n        /* \"#utility.yul\":3161:3235   */\n      tag_355\n        /* \"#utility.yul\":3228:3234   */\n      dup5\n        /* \"#utility.yul\":3161:3235   */\n      tag_249\n      jump\t// in\n    tag_355:\n        /* \"#utility.yul\":3145:3236   */\n      tag_244\n      jump\t// in\n    tag_354:\n        /* \"#utility.yul\":3136:3236   */\n      swap1\n      pop\n        /* \"#utility.yul\":3256:3261   */\n      dup1\n        /* \"#utility.yul\":3285:3291   */\n      dup4\n        /* \"#utility.yul\":3278:3283   */\n      dup3\n        /* \"#utility.yul\":3271:3292   */\n      mstore\n        /* \"#utility.yul\":3319:3323   */\n      0x20\n        /* \"#utility.yul\":3312:3317   */\n      dup3\n        /* \"#utility.yul\":3308:3324   */\n      add\n        /* \"#utility.yul\":3301:3324   */\n      swap1\n      pop\n        /* \"#utility.yul\":3372:3376   */\n      0x20\n        /* \"#utility.yul\":3364:3370   */\n      dup5\n        /* \"#utility.yul\":3360:3377   */\n      mul\n        /* \"#utility.yul\":3352:3358   */\n      dup4\n        /* \"#utility.yul\":3348:3378   */\n      add\n        /* \"#utility.yul\":3401:3404   */\n      dup6\n        /* \"#utility.yul\":3393:3399   */\n      dup2\n        /* \"#utility.yul\":3390:3405   */\n      gt\n        /* \"#utility.yul\":3387:3509   */\n      iszero\n      tag_356\n      jumpi\n        /* \"#utility.yul\":3420:3499   */\n      tag_357\n      tag_250\n      jump\t// in\n    tag_357:\n        /* \"#utility.yul\":3387:3509   */\n    tag_356:\n        /* \"#utility.yul\":3535:3541   */\n      dup4\n        /* \"#utility.yul\":3518:3953   */\n    tag_358:\n        /* \"#utility.yul\":3552:3558   */\n      dup2\n        /* \"#utility.yul\":3547:3550   */\n      dup2\n        /* \"#utility.yul\":3544:3559   */\n      lt\n        /* \"#utility.yul\":3518:3953   */\n      iszero\n      tag_360\n      jumpi\n        /* \"#utility.yul\":3641:3644   */\n      dup1\n        /* \"#utility.yul\":3628:3645   */\n      calldataload\n        /* \"#utility.yul\":3677:3695   */\n      0xffffffffffffffff\n        /* \"#utility.yul\":3664:3675   */\n      dup2\n        /* \"#utility.yul\":3661:3696   */\n      gt\n        /* \"#utility.yul\":3658:3780   */\n      iszero\n      tag_361\n      jumpi\n        /* \"#utility.yul\":3699:3778   */\n      tag_362\n      tag_239\n      jump\t// in\n    tag_362:\n        /* \"#utility.yul\":3658:3780   */\n    tag_361:\n        /* \"#utility.yul\":3823:3834   */\n      dup1\n        /* \"#utility.yul\":3815:3821   */\n      dup7\n        /* \"#utility.yul\":3811:3835   */\n      add\n        /* \"#utility.yul\":3861:3908   */\n      tag_363\n        /* \"#utility.yul\":3904:3907   */\n      dup10\n        /* \"#utility.yul\":3892:3902   */\n      dup3\n        /* \"#utility.yul\":3861:3908   */\n      tag_248\n      jump\t// in\n    tag_363:\n        /* \"#utility.yul\":3856:3859   */\n      dup6\n        /* \"#utility.yul\":3849:3909   */\n      mstore\n        /* \"#utility.yul\":3938:3942   */\n      0x20\n        /* \"#utility.yul\":3933:3936   */\n      dup6\n        /* \"#utility.yul\":3929:3943   */\n      add\n        /* \"#utility.yul\":3922:3943   */\n      swap5\n      pop\n        /* \"#utility.yul\":3594:3953   */\n      pop\n      pop\n        /* \"#utility.yul\":3578:3582   */\n      0x20\n        /* \"#utility.yul\":3573:3576   */\n      dup2\n        /* \"#utility.yul\":3569:3583   */\n      add\n        /* \"#utility.yul\":3562:3583   */\n      swap1\n      pop\n        /* \"#utility.yul\":3518:3953   */\n      jump(tag_358)\n    tag_360:\n        /* \"#utility.yul\":3522:3543   */\n      pop\n        /* \"#utility.yul\":3126:3959   */\n      pop\n      pop\n        /* \"#utility.yul\":3014:3959   */\n      swap4\n      swap3\n      pop\n      pop\n      pop\n      jump\t// out\n        /* \"#utility.yul\":3981:4371   */\n    tag_252:\n        /* \"#utility.yul\":4062:4067   */\n      0x00\n        /* \"#utility.yul\":4111:4114   */\n      dup3\n        /* \"#utility.yul\":4104:4108   */\n      0x1f\n        /* \"#utility.yul\":4096:4102   */\n      dup4\n        /* \"#utility.yul\":4092:4109   */\n      add\n        /* \"#utility.yul\":4088:4115   */\n      slt\n        /* \"#utility.yul\":4078:4200   */\n      tag_365\n      jumpi\n        /* \"#utility.yul\":4119:4198   */\n      tag_366\n      tag_239\n      jump\t// in\n    tag_366:\n        /* \"#utility.yul\":4078:4200   */\n    tag_365:\n        /* \"#utility.yul\":4236:4242   */\n      dup2\n        /* \"#utility.yul\":4223:4243   */\n      calldataload\n        /* \"#utility.yul\":4261:4365   */\n      tag_367\n        /* \"#utility.yul\":4361:4364   */\n      dup5\n        /* \"#utility.yul\":4353:4359   */\n      dup3\n        /* \"#utility.yul\":4346:4350   */\n      0x20\n        /* \"#utility.yul\":4338:4344   */\n      dup7\n        /* \"#utility.yul\":4334:4351   */\n      add\n        /* \"#utility.yul\":4261:4365   */\n      tag_251\n      jump\t// in\n    tag_367:\n        /* \"#utility.yul\":4252:4365   */\n      swap2\n      pop\n        /* \"#utility.yul\":4068:4371   */\n      pop\n        /* \"#utility.yul\":3981:4371   */\n      swap3\n      swap2\n      pop\n      pop\n      jump\t// out\n        /* \"#utility.yul\":4377:4454   */\n    tag_253:\n        /* \"#utility.yul\":4414:4421   */\n      0x00\n        /* \"#utility.yul\":4443:4448   */\n      dup2\n        /* \"#utility.yul\":4432:4448   */\n      swap1\n      pop\n        /* \"#utility.yul\":4377:4454   */\n      swap2\n      swap1\n      pop\n      jump\t// out\n        /* \"#utility.yul\":4460:4582   */\n    tag_254:\n        /* \"#utility.yul\":4533:4557   */\n      tag_370\n        /* \"#utility.yul\":4551:4556   */\n      dup2\n        /* \"#utility.yul\":4533:4557   */\n      tag_253\n      jump\t// in\n    tag_370:\n        /* \"#utility.yul\":4526:4531   */\n      dup2\n        /* \"#utility.yul\":4523:4558   */\n      eq\n        /* \"#utility.yul\":4513:4576   */\n      tag_371\n      jumpi\n        /* \"#utility.yul\":4572:4573   */\n      0x00\n        /* \"#utility.yul\":4569:4570   */\n      dup1\n        /* \"#utility.yul\":4562:4574   */\n      revert\n        /* \"#utility.yul\":4513:4576   */\n    tag_371:\n        /* \"#utility.yul\":4460:4582   */\n      pop\n      jump\t// out\n        /* \"#utility.yul\":4588:4727   */\n    tag_255:\n        /* \"#utility.yul\":4634:4639   */\n      0x00\n        /* \"#utility.yul\":4672:4678   */\n      dup2\n        /* \"#utility.yul\":4659:4679   */\n      calldataload\n        /* \"#utility.yul\":4650:4679   */\n      swap1\n      pop\n        /* \"#utility.yul\":4688:4721   */\n      tag_373\n        /* \"#utility.yul\":4715:4720   */\n      dup2\n        /* \"#utility.yul\":4688:4721   */\n      tag_254\n      jump\t// in\n    tag_373:\n        /* \"#utility.yul\":4588:4727   */\n      swap3\n      swap2\n      pop\n      pop\n      jump\t// out\n        /* \"#utility.yul\":4733:5762   */\n    tag_15:\n        /* \"#utility.yul\":4855:4861   */\n      0x00\n        /* \"#utility.yul\":4863:4869   */\n      dup1\n        /* \"#utility.yul\":4871:4877   */\n      0x00\n        /* \"#utility.yul\":4920:4922   */\n      0x60\n        /* \"#utility.yul\":4908:4917   */\n      dup5\n        /* \"#utility.yul\":4899:4906   */\n      dup7\n        /* \"#utility.yul\":4895:4918   */\n      sub\n        /* \"#utility.yul\":4891:4923   */\n      slt\n        /* \"#utility.yul\":4888:5007   */\n      iszero\n      tag_375\n      jumpi\n        /* \"#utility.yul\":4926:5005   */\n      tag_376\n      tag_237\n      jump\t// in\n    tag_376:\n        /* \"#utility.yul\":4888:5007   */\n    tag_375:\n        /* \"#utility.yul\":5074:5075   */\n      0x00\n        /* \"#utility.yul\":5063:5072   */\n      dup5\n        /* \"#utility.yul\":5059:5076   */\n      add\n        /* \"#utility.yul\":5046:5077   */\n      calldataload\n        /* \"#utility.yul\":5104:5122   */\n      0xffffffffffffffff\n        /* \"#utility.yul\":5096:5102   */\n      dup2\n        /* \"#utility.yul\":5093:5123   */\n      gt\n        /* \"#utility.yul\":5090:5207   */\n      iszero\n      tag_377\n      jumpi\n        /* \"#utility.yul\":5126:5205   */\n      tag_378\n      tag_238\n      jump\t// in\n    tag_378:\n        /* \"#utility.yul\":5090:5207   */\n    tag_377:\n        /* \"#utility.yul\":5231:5294   */\n      tag_379\n        /* \"#utility.yul\":5286:5293   */\n      dup7\n        /* \"#utility.yul\":5277:5283   */\n      dup3\n        /* \"#utility.yul\":5266:5275   */\n      dup8\n        /* \"#utility.yul\":5262:5284   */\n      add\n        /* \"#utility.yul\":5231:5294   */\n      tag_248\n      jump\t// in\n    tag_379:\n        /* \"#utility.yul\":5221:5294   */\n      swap4\n      pop\n        /* \"#utility.yul\":5017:5304   */\n      pop\n        /* \"#utility.yul\":5371:5373   */\n      0x20\n        /* \"#utility.yul\":5360:5369   */\n      dup5\n        /* \"#utility.yul\":5356:5374   */\n      add\n        /* \"#utility.yul\":5343:5375   */\n      calldataload\n        /* \"#utility.yul\":5402:5420   */\n      0xffffffffffffffff\n        /* \"#utility.yul\":5394:5400   */\n      dup2\n        /* \"#utility.yul\":5391:5421   */\n      gt\n        /* \"#utility.yul\":5388:5505   */\n      iszero\n      tag_380\n      jumpi\n        /* \"#utility.yul\":5424:5503   */\n      tag_381\n      tag_238\n      jump\t// in\n    tag_381:\n        /* \"#utility.yul\":5388:5505   */\n    tag_380:\n        /* \"#utility.yul\":5529:5617   */\n      tag_382\n        /* \"#utility.yul\":5609:5616   */\n      dup7\n        /* \"#utility.yul\":5600:5606   */\n      dup3\n        /* \"#utility.yul\":5589:5598   */\n      dup8\n        /* \"#utility.yul\":5585:5607   */\n      add\n        /* \"#utility.yul\":5529:5617   */\n      tag_252\n      jump\t// in\n    tag_382:\n        /* \"#utility.yul\":5519:5617   */\n      swap3\n      pop\n        /* \"#utility.yul\":5314:5627   */\n      pop\n        /* \"#utility.yul\":5666:5668   */\n      0x40\n        /* \"#utility.yul\":5692:5745   */\n      tag_383\n        /* \"#utility.yul\":5737:5744   */\n      dup7\n        /* \"#utility.yul\":5728:5734   */\n      dup3\n        /* \"#utility.yul\":5717:5726   */\n      dup8\n        /* \"#utility.yul\":5713:5735   */\n      add\n        /* \"#utility.yul\":5692:5745   */\n      tag_255\n      jump\t// in\n    tag_383:\n        /* \"#utility.yul\":5682:5745   */\n      swap2\n      pop\n        /* \"#utility.yul\":5637:5755   */\n      pop\n        /* \"#utility.yul\":4733:5762   */\n      swap3\n      pop\n      swap3\n      pop\n      swap3\n      jump\t// out\n        /* \"#utility.yul\":5768:6277   */\n    tag_20:\n        /* \"#utility.yul\":5837:5843   */\n      0x00\n        /* \"#utility.yul\":5886:5888   */\n      0x20\n        /* \"#utility.yul\":5874:5883   */\n      dup3\n        /* \"#utility.yul\":5865:5872   */\n      dup5\n        /* \"#utility.yul\":5861:5884   */\n      sub\n        /* \"#utility.yul\":5857:5889   */\n      slt\n        /* \"#utility.yul\":5854:5973   */\n      iszero\n      tag_385\n      jumpi\n        /* \"#utility.yul\":5892:5971   */\n      tag_386\n      tag_237\n      jump\t// in\n    tag_386:\n        /* \"#utility.yul\":5854:5973   */\n    tag_385:\n        /* \"#utility.yul\":6040:6041   */\n      0x00\n        /* \"#utility.yul\":6029:6038   */\n      dup3\n        /* \"#utility.yul\":6025:6042   */\n      add\n        /* \"#utility.yul\":6012:6043   */\n      calldataload\n        /* \"#utility.yul\":6070:6088   */\n      0xffffffffffffffff\n        /* \"#utility.yul\":6062:6068   */\n      dup2\n        /* \"#utility.yul\":6059:6089   */\n      gt\n        /* \"#utility.yul\":6056:6173   */\n      iszero\n      tag_387\n      jumpi\n        /* \"#utility.yul\":6092:6171   */\n      tag_388\n      tag_238\n      jump\t// in\n    tag_388:\n        /* \"#utility.yul\":6056:6173   */\n    tag_387:\n        /* \"#utility.yul\":6197:6260   */\n      tag_389\n        /* \"#utility.yul\":6252:6259   */\n      dup5\n        /* \"#utility.yul\":6243:6249   */\n      dup3\n        /* \"#utility.yul\":6232:6241   */\n      dup6\n        /* \"#utility.yul\":6228:6250   */\n      add\n        /* \"#utility.yul\":6197:6260   */\n      tag_248\n      jump\t// in\n    tag_389:\n        /* \"#utility.yul\":6187:6260   */\n      swap2\n      pop\n        /* \"#utility.yul\":5983:6270   */\n      pop\n        /* \"#utility.yul\":5768:6277   */\n      swap3\n      swap2\n      pop\n      pop\n      jump\t// out\n        /* \"#utility.yul\":6283:6937   */\n    tag_25:\n        /* \"#utility.yul\":6361:6367   */\n      0x00\n        /* \"#utility.yul\":6369:6375   */\n      dup1\n        /* \"#utility.yul\":6418:6420   */\n      0x40\n        /* \"#utility.yul\":6406:6415   */\n      dup4\n        /* \"#utility.yul\":6397:6404   */\n      dup6\n        /* \"#utility.yul\":6393:6416   */\n      sub\n        /* \"#utility.yul\":6389:6421   */\n      slt\n        /* \"#utility.yul\":6386:6505   */\n      iszero\n      tag_391\n      jumpi\n        /* \"#utility.yul\":6424:6503   */\n      tag_392\n      tag_237\n      jump\t// in\n    tag_392:\n        /* \"#utility.yul\":6386:6505   */\n    tag_391:\n        /* \"#utility.yul\":6572:6573   */\n      0x00\n        /* \"#utility.yul\":6561:6570   */\n      dup4\n        /* \"#utility.yul\":6557:6574   */\n      add\n        /* \"#utility.yul\":6544:6575   */\n      calldataload\n        /* \"#utility.yul\":6602:6620   */\n      0xffffffffffffffff\n        /* \"#utility.yul\":6594:6600   */\n      dup2\n        /* \"#utility.yul\":6591:6621   */\n      gt\n        /* \"#utility.yul\":6588:6705   */\n      iszero\n      tag_393\n      jumpi\n        /* \"#utility.yul\":6624:6703   */\n      tag_394\n      tag_238\n      jump\t// in\n    tag_394:\n        /* \"#utility.yul\":6588:6705   */\n    tag_393:\n        /* \"#utility.yul\":6729:6792   */\n      tag_395\n        /* \"#utility.yul\":6784:6791   */\n      dup6\n        /* \"#utility.yul\":6775:6781   */\n      dup3\n        /* \"#utility.yul\":6764:6773   */\n      dup7\n        /* \"#utility.yul\":6760:6782   */\n      add\n        /* \"#utility.yul\":6729:6792   */\n      tag_248\n      jump\t// in\n    tag_395:\n        /* \"#utility.yul\":6719:6792   */\n      swap3\n      pop\n        /* \"#utility.yul\":6515:6802   */\n      pop\n        /* \"#utility.yul\":6841:6843   */\n      0x20\n        /* \"#utility.yul\":6867:6920   */\n      tag_396\n        /* \"#utility.yul\":6912:6919   */\n      dup6\n        /* \"#utility.yul\":6903:6909   */\n      dup3\n        /* \"#utility.yul\":6892:6901   */\n      dup7\n        /* \"#utility.yul\":6888:6910   */\n      add\n        /* \"#utility.yul\":6867:6920   */\n      tag_255\n      jump\t// in\n    tag_396:\n        /* \"#utility.yul\":6857:6920   */\n      swap2\n      pop\n        /* \"#utility.yul\":6812:6930   */\n      pop\n        /* \"#utility.yul\":6283:6937   */\n      swap3\n      pop\n      swap3\n      swap1\n      pop\n      jump\t// out\n        /* \"#utility.yul\":6943:7922   */\n    tag_30:\n        /* \"#utility.yul\":7040:7046   */\n      0x00\n        /* \"#utility.yul\":7048:7054   */\n      dup1\n        /* \"#utility.yul\":7056:7062   */\n      0x00\n        /* \"#utility.yul\":7105:7107   */\n      0x60\n        /* \"#utility.yul\":7093:7102   */\n      dup5\n        /* \"#utility.yul\":7084:7091   */\n      dup7\n        /* \"#utility.yul\":7080:7103   */\n      sub\n        /* \"#utility.yul\":7076:7108   */\n      slt\n        /* \"#utility.yul\":7073:7192   */\n      iszero\n      tag_398\n      jumpi\n        /* \"#utility.yul\":7111:7190   */\n      tag_399\n      tag_237\n      jump\t// in\n    tag_399:\n        /* \"#utility.yul\":7073:7192   */\n    tag_398:\n        /* \"#utility.yul\":7259:7260   */\n      0x00\n        /* \"#utility.yul\":7248:7257   */\n      dup5\n        /* \"#utility.yul\":7244:7261   */\n      add\n        /* \"#utility.yul\":7231:7262   */\n      calldataload\n        /* \"#utility.yul\":7289:7307   */\n      0xffffffffffffffff\n        /* \"#utility.yul\":7281:7287   */\n      dup2\n        /* \"#utility.yul\":7278:7308   */\n      gt\n        /* \"#utility.yul\":7275:7392   */\n      iszero\n      tag_400\n      jumpi\n        /* \"#utility.yul\":7311:7390   */\n      tag_401\n      tag_238\n      jump\t// in\n    tag_401:\n        /* \"#utility.yul\":7275:7392   */\n    tag_400:\n        /* \"#utility.yul\":7416:7479   */\n      tag_402\n        /* \"#utility.yul\":7471:7478   */\n      dup7\n        /* \"#utility.yul\":7462:7468   */\n      dup3\n        /* \"#utility.yul\":7451:7460   */\n      dup8\n        /* \"#utility.yul\":7447:7469   */\n      add\n        /* \"#utility.yul\":7416:7479   */\n      tag_248\n      jump\t// in\n    tag_402:\n        /* \"#utility.yul\":7406:7479   */\n      swap4\n      pop\n        /* \"#utility.yul\":7202:7489   */\n      pop\n        /* \"#utility.yul\":7556:7558   */\n      0x20\n        /* \"#utility.yul\":7545:7554   */\n      dup5\n        /* \"#utility.yul\":7541:7559   */\n      add\n        /* \"#utility.yul\":7528:7560   */\n      calldataload\n        /* \"#utility.yul\":7587:7605   */\n      0xffffffffffffffff\n        /* \"#utility.yul\":7579:7585   */\n      dup2\n        /* \"#utility.yul\":7576:7606   */\n      gt\n        /* \"#utility.yul\":7573:7690   */\n      iszero\n      tag_403\n      jumpi\n        /* \"#utility.yul\":7609:7688   */\n      tag_404\n      tag_238\n      jump\t// in\n    tag_404:\n        /* \"#utility.yul\":7573:7690   */\n    tag_403:\n        /* \"#utility.yul\":7714:7777   */\n      tag_405\n        /* \"#utility.yul\":7769:7776   */\n      dup7\n        /* \"#utility.yul\":7760:7766   */\n      dup3\n        /* \"#utility.yul\":7749:7758   */\n      dup8\n        /* \"#utility.yul\":7745:7767   */\n      add\n        /* \"#utility.yul\":7714:7777   */\n      tag_248\n      jump\t// in\n    tag_405:\n        /* \"#utility.yul\":7704:7777   */\n      swap3\n      pop\n        /* \"#utility.yul\":7499:7787   */\n      pop\n        /* \"#utility.yul\":7826:7828   */\n      0x40\n        /* \"#utility.yul\":7852:7905   */\n      tag_406\n        /* \"#utility.yul\":7897:7904   */\n      dup7\n        /* \"#utility.yul\":7888:7894   */\n      dup3\n        /* \"#utility.yul\":7877:7886   */\n      dup8\n        /* \"#utility.yul\":7873:7895   */\n      add\n        /* \"#utility.yul\":7852:7905   */\n      tag_255\n      jump\t// in\n    tag_406:\n        /* \"#utility.yul\":7842:7905   */\n      swap2\n      pop\n        /* \"#utility.yul\":7797:7915   */\n      pop\n        /* \"#utility.yul\":6943:7922   */\n      swap3\n      pop\n      swap3\n      pop\n      swap3\n      jump\t// out\n        /* \"#utility.yul\":7928:8052   */\n    tag_256:\n        /* \"#utility.yul\":8005:8011   */\n      0x00\n        /* \"#utility.yul\":8039:8044   */\n      dup2\n        /* \"#utility.yul\":8033:8045   */\n      mload\n        /* \"#utility.yul\":8023:8045   */\n      swap1\n      pop\n        /* \"#utility.yul\":7928:8052   */\n      swap2\n      swap1\n      pop\n      jump\t// out\n        /* \"#utility.yul\":8058:8252   */\n    tag_257:\n        /* \"#utility.yul\":8167:8178   */\n      0x00\n        /* \"#utility.yul\":8201:8207   */\n      dup3\n        /* \"#utility.yul\":8196:8199   */\n      dup3\n        /* \"#utility.yul\":8189:8208   */\n      mstore\n        /* \"#utility.yul\":8241:8245   */\n      0x20\n        /* \"#utility.yul\":8236:8239   */\n      dup3\n        /* \"#utility.yul\":8232:8246   */\n      add\n        /* \"#utility.yul\":8217:8246   */\n      swap1\n      pop\n        /* \"#utility.yul\":8058:8252   */\n      swap3\n      swap2\n      pop\n      pop\n      jump\t// out\n        /* \"#utility.yul\":8258:8400   */\n    tag_258:\n        /* \"#utility.yul\":8335:8339   */\n      0x00\n        /* \"#utility.yul\":8358:8361   */\n      dup2\n        /* \"#utility.yul\":8350:8361   */\n      swap1\n      pop\n        /* \"#utility.yul\":8388:8392   */\n      0x20\n        /* \"#utility.yul\":8383:8386   */\n      dup3\n        /* \"#utility.yul\":8379:8393   */\n      add\n        /* \"#utility.yul\":8371:8393   */\n      swap1\n      pop\n        /* \"#utility.yul\":8258:8400   */\n      swap2\n      swap1\n      pop\n      jump\t// out\n        /* \"#utility.yul\":8406:8505   */\n    tag_259:\n        /* \"#utility.yul\":8458:8464   */\n      0x00\n        /* \"#utility.yul\":8492:8497   */\n      dup2\n        /* \"#utility.yul\":8486:8498   */\n      mload\n        /* \"#utility.yul\":8476:8498   */\n      swap1\n      pop\n        /* \"#utility.yul\":8406:8505   */\n      swap2\n      swap1\n      pop\n      jump\t// out\n        /* \"#utility.yul\":8511:8670   */\n    tag_260:\n        /* \"#utility.yul\":8585:8596   */\n      0x00\n        /* \"#utility.yul\":8619:8625   */\n      dup3\n        /* \"#utility.yul\":8614:8617   */\n      dup3\n        /* \"#utility.yul\":8607:8626   */\n      mstore\n        /* \"#utility.yul\":8659:8663   */\n      0x20\n        /* \"#utility.yul\":8654:8657   */\n      dup3\n        /* \"#utility.yul\":8650:8664   */\n      add\n        /* \"#utility.yul\":8635:8664   */\n      swap1\n      pop\n        /* \"#utility.yul\":8511:8670   */\n      swap3\n      swap2\n      pop\n      pop\n      jump\t// out\n        /* \"#utility.yul\":8676:8983   */\n    tag_261:\n        /* \"#utility.yul\":8744:8745   */\n      0x00\n        /* \"#utility.yul\":8754:8867   */\n    tag_413:\n        /* \"#utility.yul\":8768:8774   */\n      dup4\n        /* \"#utility.yul\":8765:8766   */\n      dup2\n        /* \"#utility.yul\":8762:8775   */\n      lt\n        /* \"#utility.yul\":8754:8867   */\n      iszero\n      tag_415\n      jumpi\n        /* \"#utility.yul\":8853:8854   */\n      dup1\n        /* \"#utility.yul\":8848:8851   */\n      dup3\n        /* \"#utility.yul\":8844:8855   */\n      add\n        /* \"#utility.yul\":8838:8856   */\n      mload\n        /* \"#utility.yul\":8834:8835   */\n      dup2\n        /* \"#utility.yul\":8829:8832   */\n      dup5\n        /* \"#utility.yul\":8825:8836   */\n      add\n        /* \"#utility.yul\":8818:8857   */\n      mstore\n        /* \"#utility.yul\":8790:8792   */\n      0x20\n        /* \"#utility.yul\":8787:8788   */\n      dup2\n        /* \"#utility.yul\":8783:8793   */\n      add\n        /* \"#utility.yul\":8778:8793   */\n      swap1\n      pop\n        /* \"#utility.yul\":8754:8867   */\n      jump(tag_413)\n    tag_415:\n        /* \"#utility.yul\":8885:8891   */\n      dup4\n        /* \"#utility.yul\":8882:8883   */\n      dup2\n        /* \"#utility.yul\":8879:8892   */\n      gt\n        /* \"#utility.yul\":8876:8977   */\n      iszero\n      tag_416\n      jumpi\n        /* \"#utility.yul\":8965:8966   */\n      0x00\n        /* \"#utility.yul\":8956:8962   */\n      dup5\n        /* \"#utility.yul\":8951:8954   */\n      dup5\n        /* \"#utility.yul\":8947:8963   */\n      add\n        /* \"#utility.yul\":8940:8967   */\n      mstore\n        /* \"#utility.yul\":8876:8977   */\n    tag_416:\n        /* \"#utility.yul\":8725:8983   */\n      pop\n        /* \"#utility.yul\":8676:8983   */\n      pop\n      pop\n      pop\n      jump\t// out\n        /* \"#utility.yul\":8989:9333   */\n    tag_262:\n        /* \"#utility.yul\":9067:9070   */\n      0x00\n        /* \"#utility.yul\":9095:9134   */\n      tag_418\n        /* \"#utility.yul\":9128:9133   */\n      dup3\n        /* \"#utility.yul\":9095:9134   */\n      tag_259\n      jump\t// in\n    tag_418:\n        /* \"#utility.yul\":9150:9211   */\n      tag_419\n        /* \"#utility.yul\":9204:9210   */\n      dup2\n        /* \"#utility.yul\":9199:9202   */\n      dup6\n        /* \"#utility.yul\":9150:9211   */\n      tag_260\n      jump\t// in\n    tag_419:\n        /* \"#utility.yul\":9143:9211   */\n      swap4\n      pop\n        /* \"#utility.yul\":9220:9272   */\n      tag_420\n        /* \"#utility.yul\":9265:9271   */\n      dup2\n        /* \"#utility.yul\":9260:9263   */\n      dup6\n        /* \"#utility.yul\":9253:9257   */\n      0x20\n        /* \"#utility.yul\":9246:9251   */\n      dup7\n        /* \"#utility.yul\":9242:9258   */\n      add\n        /* \"#utility.yul\":9220:9272   */\n      tag_261\n      jump\t// in\n    tag_420:\n        /* \"#utility.yul\":9297:9326   */\n      tag_421\n        /* \"#utility.yul\":9319:9325   */\n      dup2\n        /* \"#utility.yul\":9297:9326   */\n      tag_241\n      jump\t// in\n    tag_421:\n        /* \"#utility.yul\":9292:9295   */\n      dup5\n        /* \"#utility.yul\":9288:9327   */\n      add\n        /* \"#utility.yul\":9281:9327   */\n      swap2\n      pop\n        /* \"#utility.yul\":9071:9333   */\n      pop\n        /* \"#utility.yul\":8989:9333   */\n      swap3\n      swap2\n      pop\n      pop\n      jump\t// out\n        /* \"#utility.yul\":9339:9535   */\n    tag_263:\n        /* \"#utility.yul\":9428:9438   */\n      0x00\n        /* \"#utility.yul\":9463:9529   */\n      tag_423\n        /* \"#utility.yul\":9525:9528   */\n      dup4\n        /* \"#utility.yul\":9517:9523   */\n      dup4\n        /* \"#utility.yul\":9463:9529   */\n      tag_262\n      jump\t// in\n    tag_423:\n        /* \"#utility.yul\":9449:9529   */\n      swap1\n      pop\n        /* \"#utility.yul\":9339:9535   */\n      swap3\n      swap2\n      pop\n      pop\n      jump\t// out\n        /* \"#utility.yul\":9541:9664   */\n    tag_264:\n        /* \"#utility.yul\":9621:9625   */\n      0x00\n        /* \"#utility.yul\":9653:9657   */\n      0x20\n        /* \"#utility.yul\":9648:9651   */\n      dup3\n        /* \"#utility.yul\":9644:9658   */\n      add\n        /* \"#utility.yul\":9636:9658   */\n      swap1\n      pop\n        /* \"#utility.yul\":9541:9664   */\n      swap2\n      swap1\n      pop\n      jump\t// out\n        /* \"#utility.yul\":9698:10689   */\n    tag_265:\n        /* \"#utility.yul\":9837:9840   */\n      0x00\n        /* \"#utility.yul\":9866:9930   */\n      tag_426\n        /* \"#utility.yul\":9924:9929   */\n      dup3\n        /* \"#utility.yul\":9866:9930   */\n      tag_256\n      jump\t// in\n    tag_426:\n        /* \"#utility.yul\":9946:10042   */\n      tag_427\n        /* \"#utility.yul\":10035:10041   */\n      dup2\n        /* \"#utility.yul\":10030:10033   */\n      dup6\n        /* \"#utility.yul\":9946:10042   */\n      tag_257\n      jump\t// in\n    tag_427:\n        /* \"#utility.yul\":9939:10042   */\n      swap4\n      pop\n        /* \"#utility.yul\":10068:10071   */\n      dup4\n        /* \"#utility.yul\":10113:10117   */\n      0x20\n        /* \"#utility.yul\":10105:10111   */\n      dup3\n        /* \"#utility.yul\":10101:10118   */\n      mul\n        /* \"#utility.yul\":10096:10099   */\n      dup6\n        /* \"#utility.yul\":10092:10119   */\n      add\n        /* \"#utility.yul\":10143:10209   */\n      tag_428\n        /* \"#utility.yul\":10203:10208   */\n      dup6\n        /* \"#utility.yul\":10143:10209   */\n      tag_258\n      jump\t// in\n    tag_428:\n        /* \"#utility.yul\":10232:10239   */\n      dup1\n        /* \"#utility.yul\":10263:10264   */\n      0x00\n        /* \"#utility.yul\":10248:10644   */\n    tag_429:\n        /* \"#utility.yul\":10273:10279   */\n      dup6\n        /* \"#utility.yul\":10270:10271   */\n      dup2\n        /* \"#utility.yul\":10267:10280   */\n      lt\n        /* \"#utility.yul\":10248:10644   */\n      iszero\n      tag_431\n      jumpi\n        /* \"#utility.yul\":10344:10353   */\n      dup5\n        /* \"#utility.yul\":10338:10342   */\n      dup5\n        /* \"#utility.yul\":10334:10354   */\n      sub\n        /* \"#utility.yul\":10329:10332   */\n      dup10\n        /* \"#utility.yul\":10322:10355   */\n      mstore\n        /* \"#utility.yul\":10395:10401   */\n      dup2\n        /* \"#utility.yul\":10389:10402   */\n      mload\n        /* \"#utility.yul\":10423:10507   */\n      tag_432\n        /* \"#utility.yul\":10502:10506   */\n      dup6\n        /* \"#utility.yul\":10487:10500   */\n      dup3\n        /* \"#utility.yul\":10423:10507   */\n      tag_263\n      jump\t// in\n    tag_432:\n        /* \"#utility.yul\":10415:10507   */\n      swap5\n      pop\n        /* \"#utility.yul\":10530:10600   */\n      tag_433\n        /* \"#utility.yul\":10593:10599   */\n      dup4\n        /* \"#utility.yul\":10530:10600   */\n      tag_264\n      jump\t// in\n    tag_433:\n        /* \"#utility.yul\":10520:10600   */\n      swap3\n      pop\n        /* \"#utility.yul\":10629:10633   */\n      0x20\n        /* \"#utility.yul\":10624:10627   */\n      dup11\n        /* \"#utility.yul\":10620:10634   */\n      add\n        /* \"#utility.yul\":10613:10634   */\n      swap10\n      pop\n        /* \"#utility.yul\":10308:10644   */\n      pop\n        /* \"#utility.yul\":10295:10296   */\n      0x01\n        /* \"#utility.yul\":10292:10293   */\n      dup2\n        /* \"#utility.yul\":10288:10297   */\n      add\n        /* \"#utility.yul\":10283:10297   */\n      swap1\n      pop\n        /* \"#utility.yul\":10248:10644   */\n      jump(tag_429)\n    tag_431:\n        /* \"#utility.yul\":10252:10266   */\n      pop\n        /* \"#utility.yul\":10660:10664   */\n      dup3\n        /* \"#utility.yul\":10653:10664   */\n      swap8\n      pop\n        /* \"#utility.yul\":10680:10683   */\n      dup8\n        /* \"#utility.yul\":10673:10683   */\n      swap6\n      pop\n        /* \"#utility.yul\":9842:10689   */\n      pop\n      pop\n      pop\n      pop\n      pop\n        /* \"#utility.yul\":9698:10689   */\n      swap3\n      swap2\n      pop\n      pop\n      jump\t// out\n        /* \"#utility.yul\":10695:11108   */\n    tag_39:\n        /* \"#utility.yul\":10858:10862   */\n      0x00\n        /* \"#utility.yul\":10896:10898   */\n      0x20\n        /* \"#utility.yul\":10885:10894   */\n      dup3\n        /* \"#utility.yul\":10881:10899   */\n      add\n        /* \"#utility.yul\":10873:10899   */\n      swap1\n      pop\n        /* \"#utility.yul\":10945:10954   */\n      dup2\n        /* \"#utility.yul\":10939:10943   */\n      dup2\n        /* \"#utility.yul\":10935:10955   */\n      sub\n        /* \"#utility.yul\":10931:10932   */\n      0x00\n        /* \"#utility.yul\":10920:10929   */\n      dup4\n        /* \"#utility.yul\":10916:10933   */\n      add\n        /* \"#utility.yul\":10909:10956   */\n      mstore\n        /* \"#utility.yul\":10973:11101   */\n      tag_435\n        /* \"#utility.yul\":11096:11100   */\n      dup2\n        /* \"#utility.yul\":11087:11093   */\n      dup5\n        /* \"#utility.yul\":10973:11101   */\n      tag_265\n      jump\t// in\n    tag_435:\n        /* \"#utility.yul\":10965:11101   */\n      swap1\n      pop\n        /* \"#utility.yul\":10695:11108   */\n      swap3\n      swap2\n      pop\n      pop\n      jump\t// out\n        /* \"#utility.yul\":11114:11232   */\n    tag_266:\n        /* \"#utility.yul\":11201:11225   */\n      tag_437\n        /* \"#utility.yul\":11219:11224   */\n      dup2\n        /* \"#utility.yul\":11201:11225   */\n      tag_253\n      jump\t// in\n    tag_437:\n        /* \"#utility.yul\":11196:11199   */\n      dup3\n        /* \"#utility.yul\":11189:11226   */\n      mstore\n        /* \"#utility.yul\":11114:11232   */\n      pop\n      pop\n      jump\t// out\n        /* \"#utility.yul\":11238:11460   */\n    tag_45:\n        /* \"#utility.yul\":11331:11335   */\n      0x00\n        /* \"#utility.yul\":11369:11371   */\n      0x20\n        /* \"#utility.yul\":11358:11367   */\n      dup3\n        /* \"#utility.yul\":11354:11372   */\n      add\n        /* \"#utility.yul\":11346:11372   */\n      swap1\n      pop\n        /* \"#utility.yul\":11382:11453   */\n      tag_439\n        /* \"#utility.yul\":11450:11451   */\n      0x00\n        /* \"#utility.yul\":11439:11448   */\n      dup4\n        /* \"#utility.yul\":11435:11452   */\n      add\n        /* \"#utility.yul\":11426:11432   */\n      dup5\n        /* \"#utility.yul\":11382:11453   */\n      tag_266\n      jump\t// in\n    tag_439:\n        /* \"#utility.yul\":11238:11460   */\n      swap3\n      swap2\n      pop\n      pop\n      jump\t// out\n        /* \"#utility.yul\":11466:11592   */\n    tag_267:\n        /* \"#utility.yul\":11503:11510   */\n      0x00\n        /* \"#utility.yul\":11543:11585   */\n      0xffffffffffffffffffffffffffffffffffffffff\n        /* \"#utility.yul\":11536:11541   */\n      dup3\n        /* \"#utility.yul\":11532:11586   */\n      and\n        /* \"#utility.yul\":11521:11586   */\n      swap1\n      pop\n        /* \"#utility.yul\":11466:11592   */\n      swap2\n      swap1\n      pop\n      jump\t// out\n        /* \"#utility.yul\":11598:11694   */\n    tag_268:\n        /* \"#utility.yul\":11635:11642   */\n      0x00\n        /* \"#utility.yul\":11664:11688   */\n      tag_442\n        /* \"#utility.yul\":11682:11687   */\n      dup3\n        /* \"#utility.yul\":11664:11688   */\n      tag_267\n      jump\t// in\n    tag_442:\n        /* \"#utility.yul\":11653:11688   */\n      swap1\n      pop\n        /* \"#utility.yul\":11598:11694   */\n      swap2\n      swap1\n      pop\n      jump\t// out\n        /* \"#utility.yul\":11700:11808   */\n    tag_269:\n        /* \"#utility.yul\":11777:11801   */\n      tag_444\n        /* \"#utility.yul\":11795:11800   */\n      dup2\n        /* \"#utility.yul\":11777:11801   */\n      tag_268\n      jump\t// in\n    tag_444:\n        /* \"#utility.yul\":11772:11775   */\n      dup3\n        /* \"#utility.yul\":11765:11802   */\n      mstore\n        /* \"#utility.yul\":11700:11808   */\n      pop\n      pop\n      jump\t// out\n        /* \"#utility.yul\":11814:11922   */\n    tag_270:\n        /* \"#utility.yul\":11891:11915   */\n      tag_446\n        /* \"#utility.yul\":11909:11914   */\n      dup2\n        /* \"#utility.yul\":11891:11915   */\n      tag_253\n      jump\t// in\n    tag_446:\n        /* \"#utility.yul\":11886:11889   */\n      dup3\n        /* \"#utility.yul\":11879:11916   */\n      mstore\n        /* \"#utility.yul\":11814:11922   */\n      pop\n      pop\n      jump\t// out\n        /* \"#utility.yul\":11990:12770   */\n    tag_271:\n        /* \"#utility.yul\":12105:12108   */\n      0x00\n        /* \"#utility.yul\":12141:12145   */\n      0x60\n        /* \"#utility.yul\":12136:12139   */\n      dup4\n        /* \"#utility.yul\":12132:12146   */\n      add\n        /* \"#utility.yul\":12229:12233   */\n      0x00\n        /* \"#utility.yul\":12222:12227   */\n      dup4\n        /* \"#utility.yul\":12218:12234   */\n      add\n        /* \"#utility.yul\":12212:12235   */\n      mload\n        /* \"#utility.yul\":12248:12311   */\n      tag_448\n        /* \"#utility.yul\":12305:12309   */\n      0x00\n        /* \"#utility.yul\":12300:12303   */\n      dup7\n        /* \"#utility.yul\":12296:12310   */\n      add\n        /* \"#utility.yul\":12282:12294   */\n      dup3\n        /* \"#utility.yul\":12248:12311   */\n      tag_269\n      jump\t// in\n    tag_448:\n        /* \"#utility.yul\":12156:12321   */\n      pop\n        /* \"#utility.yul\":12403:12407   */\n      0x20\n        /* \"#utility.yul\":12396:12401   */\n      dup4\n        /* \"#utility.yul\":12392:12408   */\n      add\n        /* \"#utility.yul\":12386:12409   */\n      mload\n        /* \"#utility.yul\":12456:12459   */\n      dup5\n        /* \"#utility.yul\":12450:12454   */\n      dup3\n        /* \"#utility.yul\":12446:12460   */\n      sub\n        /* \"#utility.yul\":12439:12443   */\n      0x20\n        /* \"#utility.yul\":12434:12437   */\n      dup7\n        /* \"#utility.yul\":12430:12444   */\n      add\n        /* \"#utility.yul\":12423:12461   */\n      mstore\n        /* \"#utility.yul\":12482:12555   */\n      tag_449\n        /* \"#utility.yul\":12550:12554   */\n      dup3\n        /* \"#utility.yul\":12536:12548   */\n      dup3\n        /* \"#utility.yul\":12482:12555   */\n      tag_262\n      jump\t// in\n    tag_449:\n        /* \"#utility.yul\":12474:12555   */\n      swap2\n      pop\n        /* \"#utility.yul\":12331:12566   */\n      pop\n        /* \"#utility.yul\":12651:12655   */\n      0x40\n        /* \"#utility.yul\":12644:12649   */\n      dup4\n        /* \"#utility.yul\":12640:12656   */\n      add\n        /* \"#utility.yul\":12634:12657   */\n      mload\n        /* \"#utility.yul\":12670:12733   */\n      tag_450\n        /* \"#utility.yul\":12727:12731   */\n      0x40\n        /* \"#utility.yul\":12722:12725   */\n      dup7\n        /* \"#utility.yul\":12718:12732   */\n      add\n        /* \"#utility.yul\":12704:12716   */\n      dup3\n        /* \"#utility.yul\":12670:12733   */\n      tag_270\n      jump\t// in\n    tag_450:\n        /* \"#utility.yul\":12576:12743   */\n      pop\n        /* \"#utility.yul\":12760:12764   */\n      dup1\n        /* \"#utility.yul\":12753:12764   */\n      swap2\n      pop\n        /* \"#utility.yul\":12110:12770   */\n      pop\n        /* \"#utility.yul\":11990:12770   */\n      swap3\n      swap2\n      pop\n      pop\n      jump\t// out\n        /* \"#utility.yul\":12776:13141   */\n    tag_51:\n        /* \"#utility.yul\":12915:12919   */\n      0x00\n        /* \"#utility.yul\":12953:12955   */\n      0x20\n        /* \"#utility.yul\":12942:12951   */\n      dup3\n        /* \"#utility.yul\":12938:12956   */\n      add\n        /* \"#utility.yul\":12930:12956   */\n      swap1\n      pop\n        /* \"#utility.yul\":13002:13011   */\n      dup2\n        /* \"#utility.yul\":12996:13000   */\n      dup2\n        /* \"#utility.yul\":12992:13012   */\n      sub\n        /* \"#utility.yul\":12988:12989   */\n      0x00\n        /* \"#utility.yul\":12977:12986   */\n      dup4\n        /* \"#utility.yul\":12973:12990   */\n      add\n        /* \"#utility.yul\":12966:13013   */\n      mstore\n        /* \"#utility.yul\":13030:13134   */\n      tag_452\n        /* \"#utility.yul\":13129:13133   */\n      dup2\n        /* \"#utility.yul\":13120:13126   */\n      dup5\n        /* \"#utility.yul\":13030:13134   */\n      tag_271\n      jump\t// in\n    tag_452:\n        /* \"#utility.yul\":13022:13134   */\n      swap1\n      pop\n        /* \"#utility.yul\":12776:13141   */\n      swap3\n      swap2\n      pop\n      pop\n      jump\t// out\n        /* \"#utility.yul\":13147:13476   */\n    tag_55:\n        /* \"#utility.yul\":13206:13212   */\n      0x00\n        /* \"#utility.yul\":13255:13257   */\n      0x20\n        /* \"#utility.yul\":13243:13252   */\n      dup3\n        /* \"#utility.yul\":13234:13241   */\n      dup5\n        /* \"#utility.yul\":13230:13253   */\n      sub\n        /* \"#utility.yul\":13226:13258   */\n      slt\n        /* \"#utility.yul\":13223:13342   */\n      iszero\n      tag_454\n      jumpi\n        /* \"#utility.yul\":13261:13340   */\n      tag_455\n      tag_237\n      jump\t// in\n    tag_455:\n        /* \"#utility.yul\":13223:13342   */\n    tag_454:\n        /* \"#utility.yul\":13381:13382   */\n      0x00\n        /* \"#utility.yul\":13406:13459   */\n      tag_456\n        /* \"#utility.yul\":13451:13458   */\n      dup5\n        /* \"#utility.yul\":13442:13448   */\n      dup3\n        /* \"#utility.yul\":13431:13440   */\n      dup6\n        /* \"#utility.yul\":13427:13449   */\n      add\n        /* \"#utility.yul\":13406:13459   */\n      tag_255\n      jump\t// in\n    tag_456:\n        /* \"#utility.yul\":13396:13459   */\n      swap2\n      pop\n        /* \"#utility.yul\":13352:13469   */\n      pop\n        /* \"#utility.yul\":13147:13476   */\n      swap3\n      swap2\n      pop\n      pop\n      jump\t// out\n        /* \"#utility.yul\":13482:13630   */\n    tag_272:\n        /* \"#utility.yul\":13584:13595   */\n      0x00\n        /* \"#utility.yul\":13621:13624   */\n      dup2\n        /* \"#utility.yul\":13606:13624   */\n      swap1\n      pop\n        /* \"#utility.yul\":13482:13630   */\n      swap3\n      swap2\n      pop\n      pop\n      jump\t// out\n        /* \"#utility.yul\":13636:14013   */\n    tag_273:\n        /* \"#utility.yul\":13742:13745   */\n      0x00\n        /* \"#utility.yul\":13770:13809   */\n      tag_459\n        /* \"#utility.yul\":13803:13808   */\n      dup3\n        /* \"#utility.yul\":13770:13809   */\n      tag_259\n      jump\t// in\n    tag_459:\n        /* \"#utility.yul\":13825:13914   */\n      tag_460\n        /* \"#utility.yul\":13907:13913   */\n      dup2\n        /* \"#utility.yul\":13902:13905   */\n      dup6\n        /* \"#utility.yul\":13825:13914   */\n      tag_272\n      jump\t// in\n    tag_460:\n        /* \"#utility.yul\":13818:13914   */\n      swap4\n      pop\n        /* \"#utility.yul\":13923:13975   */\n      tag_461\n        /* \"#utility.yul\":13968:13974   */\n      dup2\n        /* \"#utility.yul\":13963:13966   */\n      dup6\n        /* \"#utility.yul\":13956:13960   */\n      0x20\n        /* \"#utility.yul\":13949:13954   */\n      dup7\n        /* \"#utility.yul\":13945:13961   */\n      add\n        /* \"#utility.yul\":13923:13975   */\n      tag_261\n      jump\t// in\n    tag_461:\n        /* \"#utility.yul\":14000:14006   */\n      dup1\n        /* \"#utility.yul\":13995:13998   */\n      dup5\n        /* \"#utility.yul\":13991:14007   */\n      add\n        /* \"#utility.yul\":13984:14007   */\n      swap2\n      pop\n        /* \"#utility.yul\":13746:14013   */\n      pop\n        /* \"#utility.yul\":13636:14013   */\n      swap3\n      swap2\n      pop\n      pop\n      jump\t// out\n        /* \"#utility.yul\":14019:14294   */\n    tag_59:\n        /* \"#utility.yul\":14151:14154   */\n      0x00\n        /* \"#utility.yul\":14173:14268   */\n      tag_463\n        /* \"#utility.yul\":14264:14267   */\n      dup3\n        /* \"#utility.yul\":14255:14261   */\n      dup5\n        /* \"#utility.yul\":14173:14268   */\n      tag_273\n      jump\t// in\n    tag_463:\n        /* \"#utility.yul\":14166:14268   */\n      swap2\n      pop\n        /* \"#utility.yul\":14285:14288   */\n      dup2\n        /* \"#utility.yul\":14278:14288   */\n      swap1\n      pop\n        /* \"#utility.yul\":14019:14294   */\n      swap3\n      swap2\n      pop\n      pop\n      jump\t// out\n        /* \"#utility.yul\":14300:14469   */\n    tag_274:\n        /* \"#utility.yul\":14384:14395   */\n      0x00\n        /* \"#utility.yul\":14418:14424   */\n      dup3\n        /* \"#utility.yul\":14413:14416   */\n      dup3\n        /* \"#utility.yul\":14406:14425   */\n      mstore\n        /* \"#utility.yul\":14458:14462   */\n      0x20\n        /* \"#utility.yul\":14453:14456   */\n      dup3\n        /* \"#utility.yul\":14449:14463   */\n      add\n        /* \"#utility.yul\":14434:14463   */\n      swap1\n      pop\n        /* \"#utility.yul\":14300:14469   */\n      swap3\n      swap2\n      pop\n      pop\n      jump\t// out\n        /* \"#utility.yul\":14475:14695   */\n    tag_275:\n        /* \"#utility.yul\":14615:14649   */\n      0x7472616e736665725f6661696c5f66726f6d5f6e616d655f6e6f745f65786973\n        /* \"#utility.yul\":14611:14612   */\n      0x00\n        /* \"#utility.yul\":14603:14609   */\n      dup3\n        /* \"#utility.yul\":14599:14613   */\n      add\n        /* \"#utility.yul\":14592:14650   */\n      mstore\n        /* \"#utility.yul\":14684:14687   */\n      0x7400000000000000000000000000000000000000000000000000000000000000\n        /* \"#utility.yul\":14679:14681   */\n      0x20\n        /* \"#utility.yul\":14671:14677   */\n      dup3\n        /* \"#utility.yul\":14667:14682   */\n      add\n        /* \"#utility.yul\":14660:14688   */\n      mstore\n        /* \"#utility.yul\":14475:14695   */\n      pop\n      jump\t// out\n        /* \"#utility.yul\":14701:15067   */\n    tag_276:\n        /* \"#utility.yul\":14843:14846   */\n      0x00\n        /* \"#utility.yul\":14864:14931   */\n      tag_467\n        /* \"#utility.yul\":14928:14930   */\n      0x21\n        /* \"#utility.yul\":14923:14926   */\n      dup4\n        /* \"#utility.yul\":14864:14931   */\n      tag_274\n      jump\t// in\n    tag_467:\n        /* \"#utility.yul\":14857:14931   */\n      swap2\n      pop\n        /* \"#utility.yul\":14940:15033   */\n      tag_468\n        /* \"#utility.yul\":15029:15032   */\n      dup3\n        /* \"#utility.yul\":14940:15033   */\n      tag_275\n      jump\t// in\n    tag_468:\n        /* \"#utility.yul\":15058:15060   */\n      0x40\n        /* \"#utility.yul\":15053:15056   */\n      dup3\n        /* \"#utility.yul\":15049:15061   */\n      add\n        /* \"#utility.yul\":15042:15061   */\n      swap1\n      pop\n        /* \"#utility.yul\":14701:15067   */\n      swap2\n      swap1\n      pop\n      jump\t// out\n        /* \"#utility.yul\":15073:15492   */\n    tag_62:\n        /* \"#utility.yul\":15239:15243   */\n      0x00\n        /* \"#utility.yul\":15277:15279   */\n      0x20\n        /* \"#utility.yul\":15266:15275   */\n      dup3\n        /* \"#utility.yul\":15262:15280   */\n      add\n        /* \"#utility.yul\":15254:15280   */\n      swap1\n      pop\n        /* \"#utility.yul\":15326:15335   */\n      dup2\n        /* \"#utility.yul\":15320:15324   */\n      dup2\n        /* \"#utility.yul\":15316:15336   */\n      sub\n        /* \"#utility.yul\":15312:15313   */\n      0x00\n        /* \"#utility.yul\":15301:15310   */\n      dup4\n        /* \"#utility.yul\":15297:15314   */\n      add\n        /* \"#utility.yul\":15290:15337   */\n      mstore\n        /* \"#utility.yul\":15354:15485   */\n      tag_470\n        /* \"#utility.yul\":15480:15484   */\n      dup2\n        /* \"#utility.yul\":15354:15485   */\n      tag_276\n      jump\t// in\n    tag_470:\n        /* \"#utility.yul\":15346:15485   */\n      swap1\n      pop\n        /* \"#utility.yul\":15073:15492   */\n      swap2\n      swap1\n      pop\n      jump\t// out\n        /* \"#utility.yul\":15498:15676   */\n    tag_277:\n        /* \"#utility.yul\":15638:15668   */\n      0x7472616e736665725f6661696c5f66726f6d5f6e6f745f6f776e657200000000\n        /* \"#utility.yul\":15634:15635   */\n      0x00\n        /* \"#utility.yul\":15626:15632   */\n      dup3\n        /* \"#utility.yul\":15622:15636   */\n      add\n        /* \"#utility.yul\":15615:15669   */\n      mstore\n        /* \"#utility.yul\":15498:15676   */\n      pop\n      jump\t// out\n        /* \"#utility.yul\":15682:16048   */\n    tag_278:\n        /* \"#utility.yul\":15824:15827   */\n      0x00\n        /* \"#utility.yul\":15845:15912   */\n      tag_473\n        /* \"#utility.yul\":15909:15911   */\n      0x1c\n        /* \"#utility.yul\":15904:15907   */\n      dup4\n        /* \"#utility.yul\":15845:15912   */\n      tag_274\n      jump\t// in\n    tag_473:\n        /* \"#utility.yul\":15838:15912   */\n      swap2\n      pop\n        /* \"#utility.yul\":15921:16014   */\n      tag_474\n        /* \"#utility.yul\":16010:16013   */\n      dup3\n        /* \"#utility.yul\":15921:16014   */\n      tag_277\n      jump\t// in\n    tag_474:\n        /* \"#utility.yul\":16039:16041   */\n      0x20\n        /* \"#utility.yul\":16034:16037   */\n      dup3\n        /* \"#utility.yul\":16030:16042   */\n      add\n        /* \"#utility.yul\":16023:16042   */\n      swap1\n      pop\n        /* \"#utility.yul\":15682:16048   */\n      swap2\n      swap1\n      pop\n      jump\t// out\n        /* \"#utility.yul\":16054:16473   */\n    tag_66:\n        /* \"#utility.yul\":16220:16224   */\n      0x00\n        /* \"#utility.yul\":16258:16260   */\n      0x20\n        /* \"#utility.yul\":16247:16256   */\n      dup3\n        /* \"#utility.yul\":16243:16261   */\n      add\n        /* \"#utility.yul\":16235:16261   */\n      swap1\n      pop\n        /* \"#utility.yul\":16307:16316   */\n      dup2\n        /* \"#utility.yul\":16301:16305   */\n      dup2\n        /* \"#utility.yul\":16297:16317   */\n      sub\n        /* \"#utility.yul\":16293:16294   */\n      0x00\n        /* \"#utility.yul\":16282:16291   */\n      dup4\n        /* \"#utility.yul\":16278:16295   */\n      add\n        /* \"#utility.yul\":16271:16318   */\n      mstore\n        /* \"#utility.yul\":16335:16466   */\n      tag_476\n        /* \"#utility.yul\":16461:16465   */\n      dup2\n        /* \"#utility.yul\":16335:16466   */\n      tag_278\n      jump\t// in\n    tag_476:\n        /* \"#utility.yul\":16327:16466   */\n      swap1\n      pop\n        /* \"#utility.yul\":16054:16473   */\n      swap2\n      swap1\n      pop\n      jump\t// out\n        /* \"#utility.yul\":16479:16699   */\n    tag_279:\n        /* \"#utility.yul\":16619:16653   */\n      0x7472616e736665725f6661696c5f76616c75655f6c6573735f7468616e5f3130\n        /* \"#utility.yul\":16615:16616   */\n      0x00\n        /* \"#utility.yul\":16607:16613   */\n      dup3\n        /* \"#utility.yul\":16603:16617   */\n      add\n        /* \"#utility.yul\":16596:16654   */\n      mstore\n        /* \"#utility.yul\":16688:16691   */\n      0x3000000000000000000000000000000000000000000000000000000000000000\n        /* \"#utility.yul\":16683:16685   */\n      0x20\n        /* \"#utility.yul\":16675:16681   */\n      dup3\n        /* \"#utility.yul\":16671:16686   */\n      add\n        /* \"#utility.yul\":16664:16692   */\n      mstore\n        /* \"#utility.yul\":16479:16699   */\n      pop\n      jump\t// out\n        /* \"#utility.yul\":16705:17071   */\n    tag_280:\n        /* \"#utility.yul\":16847:16850   */\n      0x00\n        /* \"#utility.yul\":16868:16935   */\n      tag_479\n        /* \"#utility.yul\":16932:16934   */\n      0x21\n        /* \"#utility.yul\":16927:16930   */\n      dup4\n        /* \"#utility.yul\":16868:16935   */\n      tag_274\n      jump\t// in\n    tag_479:\n        /* \"#utility.yul\":16861:16935   */\n      swap2\n      pop\n        /* \"#utility.yul\":16944:17037   */\n      tag_480\n        /* \"#utility.yul\":17033:17036   */\n      dup3\n        /* \"#utility.yul\":16944:17037   */\n      tag_279\n      jump\t// in\n    tag_480:\n        /* \"#utility.yul\":17062:17064   */\n      0x40\n        /* \"#utility.yul\":17057:17060   */\n      dup3\n        /* \"#utility.yul\":17053:17065   */\n      add\n        /* \"#utility.yul\":17046:17065   */\n      swap1\n      pop\n        /* \"#utility.yul\":16705:17071   */\n      swap2\n      swap1\n      pop\n      jump\t// out\n        /* \"#utility.yul\":17077:17496   */\n    tag_69:\n        /* \"#utility.yul\":17243:17247   */\n      0x00\n        /* \"#utility.yul\":17281:17283   */\n      0x20\n        /* \"#utility.yul\":17270:17279   */\n      dup3\n        /* \"#utility.yul\":17266:17284   */\n      add\n        /* \"#utility.yul\":17258:17284   */\n      swap1\n      pop\n        /* \"#utility.yul\":17330:17339   */\n      dup2\n        /* \"#utility.yul\":17324:17328   */\n      dup2\n        /* \"#utility.yul\":17320:17340   */\n      sub\n        /* \"#utility.yul\":17316:17317   */\n      0x00\n        /* \"#utility.yul\":17305:17314   */\n      dup4\n        /* \"#utility.yul\":17301:17318   */\n      add\n        /* \"#utility.yul\":17294:17341   */\n      mstore\n        /* \"#utility.yul\":17358:17489   */\n      tag_482\n        /* \"#utility.yul\":17484:17488   */\n      dup2\n        /* \"#utility.yul\":17358:17489   */\n      tag_280\n      jump\t// in\n    tag_482:\n        /* \"#utility.yul\":17350:17489   */\n      swap1\n      pop\n        /* \"#utility.yul\":17077:17496   */\n      swap2\n      swap1\n      pop\n      jump\t// out\n        /* \"#utility.yul\":17502:17682   */\n    tag_281:\n        /* \"#utility.yul\":17550:17627   */\n      0x4e487b7100000000000000000000000000000000000000000000000000000000\n        /* \"#utility.yul\":17547:17548   */\n      0x00\n        /* \"#utility.yul\":17540:17628   */\n      mstore\n        /* \"#utility.yul\":17647:17651   */\n      0x11\n        /* \"#utility.yul\":17644:17645   */\n      0x04\n        /* \"#utility.yul\":17637:17652   */\n      mstore\n        /* \"#utility.yul\":17671:17675   */\n      0x24\n        /* \"#utility.yul\":17668:17669   */\n      0x00\n        /* \"#utility.yul\":17661:17676   */\n      revert\n        /* \"#utility.yul\":17688:18036   */\n    tag_71:\n        /* \"#utility.yul\":17728:17735   */\n      0x00\n        /* \"#utility.yul\":17751:17771   */\n      tag_485\n        /* \"#utility.yul\":17769:17770   */\n      dup3\n        /* \"#utility.yul\":17751:17771   */\n      tag_253\n      jump\t// in\n    tag_485:\n        /* \"#utility.yul\":17746:17771   */\n      swap2\n      pop\n        /* \"#utility.yul\":17785:17805   */\n      tag_486\n        /* \"#utility.yul\":17803:17804   */\n      dup4\n        /* \"#utility.yul\":17785:17805   */\n      tag_253\n      jump\t// in\n    tag_486:\n        /* \"#utility.yul\":17780:17805   */\n      swap3\n      pop\n        /* \"#utility.yul\":17973:17974   */\n      dup2\n        /* \"#utility.yul\":17905:17971   */\n      0xffffffffffffffffffffffffffffffffffffffffffffffffffffffffffffffff\n        /* \"#utility.yul\":17901:17975   */\n      div\n        /* \"#utility.yul\":17898:17899   */\n      dup4\n        /* \"#utility.yul\":17895:17976   */\n      gt\n        /* \"#utility.yul\":17890:17891   */\n      dup3\n        /* \"#utility.yul\":17883:17892   */\n      iszero\n        /* \"#utility.yul\":17876:17893   */\n      iszero\n        /* \"#utility.yul\":17872:17977   */\n      and\n        /* \"#utility.yul\":17869:18000   */\n      iszero\n      tag_487\n      jumpi\n        /* \"#utility.yul\":17980:17998   */\n      tag_488\n      tag_281\n      jump\t// in\n    tag_488:\n        /* \"#utility.yul\":17869:18000   */\n    tag_487:\n        /* \"#utility.yul\":18028:18029   */\n      dup3\n        /* \"#utility.yul\":18025:18026   */\n      dup3\n        /* \"#utility.yul\":18021:18030   */\n      mul\n        /* \"#utility.yul\":18010:18030   */\n      swap1\n      pop\n        /* \"#utility.yul\":17688:18036   */\n      swap3\n      swap2\n      pop\n      pop\n      jump\t// out\n        /* \"#utility.yul\":18042:18266   */\n    tag_282:\n        /* \"#utility.yul\":18182:18216   */\n      0x7472616e736665725f6661696c5f66726f6d5f62616c616e63655f6e6f745f65\n        /* \"#utility.yul\":18178:18179   */\n      0x00\n        /* \"#utility.yul\":18170:18176   */\n      dup3\n        /* \"#utility.yul\":18166:18180   */\n      add\n        /* \"#utility.yul\":18159:18217   */\n      mstore\n        /* \"#utility.yul\":18251:18258   */\n      0x6e6f756768000000000000000000000000000000000000000000000000000000\n        /* \"#utility.yul\":18246:18248   */\n      0x20\n        /* \"#utility.yul\":18238:18244   */\n      dup3\n        /* \"#utility.yul\":18234:18249   */\n      add\n        /* \"#utility.yul\":18227:18259   */\n      mstore\n        /* \"#utility.yul\":18042:18266   */\n      pop\n      jump\t// out\n        /* \"#utility.yul\":18272:18638   */\n    tag_283:\n        /* \"#utility.yul\":18414:18417   */\n      0x00\n        /* \"#utility.yul\":18435:18502   */\n      tag_491\n        /* \"#utility.yul\":18499:18501   */\n      0x25\n        /* \"#utility.yul\":18494:18497   */\n      dup4\n        /* \"#utility.yul\":18435:18502   */\n      tag_274\n      jump\t// in\n    tag_491:\n        /* \"#utility.yul\":18428:18502   */\n      swap2\n      pop\n        /* \"#utility.yul\":18511:18604   */\n      tag_492\n        /* \"#utility.yul\":18600:18603   */\n      dup3\n        /* \"#utility.yul\":18511:18604   */\n      tag_282\n      jump\t// in\n    tag_492:\n        /* \"#utility.yul\":18629:18631   */\n      0x40\n        /* \"#utility.yul\":18624:18627   */\n      dup3\n        /* \"#utility.yul\":18620:18632   */\n      add\n        /* \"#utility.yul\":18613:18632   */\n      swap1\n      pop\n        /* \"#utility.yul\":18272:18638   */\n      swap2\n      swap1\n      pop\n      jump\t// out\n        /* \"#utility.yul\":18644:19063   */\n    tag_75:\n        /* \"#utility.yul\":18810:18814   */\n      0x00\n        /* \"#utility.yul\":18848:18850   */\n      0x20\n        /* \"#utility.yul\":18837:18846   */\n      dup3\n        /* \"#utility.yul\":18833:18851   */\n      add\n        /* \"#utility.yul\":18825:18851   */\n      swap1\n      pop\n        /* \"#utility.yul\":18897:18906   */\n      dup2\n        /* \"#utility.yul\":18891:18895   */\n      dup2\n        /* \"#utility.yul\":18887:18907   */\n      sub\n        /* \"#utility.yul\":18883:18884   */\n      0x00\n        /* \"#utility.yul\":18872:18881   */\n      dup4\n        /* \"#utility.yul\":18868:18885   */\n      add\n        /* \"#utility.yul\":18861:18908   */\n      mstore\n        /* \"#utility.yul\":18925:19056   */\n      tag_494\n        /* \"#utility.yul\":19051:19055   */\n      dup2\n        /* \"#utility.yul\":18925:19056   */\n      tag_283\n      jump\t// in\n    tag_494:\n        /* \"#utility.yul\":18917:19056   */\n      swap1\n      pop\n        /* \"#utility.yul\":18644:19063   */\n      swap2\n      swap1\n      pop\n      jump\t// out\n        /* \"#utility.yul\":19069:19249   */\n    tag_81:\n        /* \"#utility.yul\":19117:19194   */\n      0x4e487b7100000000000000000000000000000000000000000000000000000000\n        /* \"#utility.yul\":19114:19115   */\n      0x00\n        /* \"#utility.yul\":19107:19195   */\n      mstore\n        /* \"#utility.yul\":19214:19218   */\n      0x32\n        /* \"#utility.yul\":19211:19212   */\n      0x04\n        /* \"#utility.yul\":19204:19219   */\n      mstore\n        /* \"#utility.yul\":19238:19242   */\n      0x24\n        /* \"#utility.yul\":19235:19236   */\n      0x00\n        /* \"#utility.yul\":19228:19243   */\n      revert\n        /* \"#utility.yul\":19255:19436   */\n    tag_284:\n        /* \"#utility.yul\":19395:19428   */\n      0x7472616e736665725f6661696c5f746f5f6e616d655f6e6f745f657869737400\n        /* \"#utility.yul\":19391:19392   */\n      0x00\n        /* \"#utility.yul\":19383:19389   */\n      dup3\n        /* \"#utility.yul\":19379:19393   */\n      add\n        /* \"#utility.yul\":19372:19429   */\n      mstore\n        /* \"#utility.yul\":19255:19436   */\n      pop\n      jump\t// out\n        /* \"#utility.yul\":19442:19808   */\n    tag_285:\n        /* \"#utility.yul\":19584:19587   */\n      0x00\n        /* \"#utility.yul\":19605:19672   */\n      tag_498\n        /* \"#utility.yul\":19669:19671   */\n      0x1f\n        /* \"#utility.yul\":19664:19667   */\n      dup4\n        /* \"#utility.yul\":19605:19672   */\n      tag_274\n      jump\t// in\n    tag_498:\n        /* \"#utility.yul\":19598:19672   */\n      swap2\n      pop\n        /* \"#utility.yul\":19681:19774   */\n      tag_499\n        /* \"#utility.yul\":19770:19773   */\n      dup3\n        /* \"#utility.yul\":19681:19774   */\n      tag_284\n      jump\t// in\n    tag_499:\n        /* \"#utility.yul\":19799:19801   */\n      0x20\n        /* \"#utility.yul\":19794:19797   */\n      dup3\n        /* \"#utility.yul\":19790:19802   */\n      add\n        /* \"#utility.yul\":19783:19802   */\n      swap1\n      pop\n        /* \"#utility.yul\":19442:19808   */\n      swap2\n      swap1\n      pop\n      jump\t// out\n        /* \"#utility.yul\":19814:20233   */\n    tag_85:\n        /* \"#utility.yul\":19980:19984   */\n      0x00\n        /* \"#utility.yul\":20018:20020   */\n      0x20\n        /* \"#utility.yul\":20007:20016   */\n      dup3\n        /* \"#utility.yul\":20003:20021   */\n      add\n        /* \"#utility.yul\":19995:20021   */\n      swap1\n      pop\n        /* \"#utility.yul\":20067:20076   */\n      dup2\n        /* \"#utility.yul\":20061:20065   */\n      dup2\n        /* \"#utility.yul\":20057:20077   */\n      sub\n        /* \"#utility.yul\":20053:20054   */\n      0x00\n        /* \"#utility.yul\":20042:20051   */\n      dup4\n        /* \"#utility.yul\":20038:20055   */\n      add\n        /* \"#utility.yul\":20031:20078   */\n      mstore\n        /* \"#utility.yul\":20095:20226   */\n      tag_501\n        /* \"#utility.yul\":20221:20225   */\n      dup2\n        /* \"#utility.yul\":20095:20226   */\n      tag_285\n      jump\t// in\n    tag_501:\n        /* \"#utility.yul\":20087:20226   */\n      swap1\n      pop\n        /* \"#utility.yul\":19814:20233   */\n      swap2\n      swap1\n      pop\n      jump\t// out\n        /* \"#utility.yul\":20239:20419   */\n    tag_286:\n        /* \"#utility.yul\":20287:20364   */\n      0x4e487b7100000000000000000000000000000000000000000000000000000000\n        /* \"#utility.yul\":20284:20285   */\n      0x00\n        /* \"#utility.yul\":20277:20365   */\n      mstore\n        /* \"#utility.yul\":20384:20388   */\n      0x12\n        /* \"#utility.yul\":20381:20382   */\n      0x04\n        /* \"#utility.yul\":20374:20389   */\n      mstore\n        /* \"#utility.yul\":20408:20412   */\n      0x24\n        /* \"#utility.yul\":20405:20406   */\n      0x00\n        /* \"#utility.yul\":20398:20413   */\n      revert\n        /* \"#utility.yul\":20425:20610   */\n    tag_97:\n        /* \"#utility.yul\":20465:20466   */\n      0x00\n        /* \"#utility.yul\":20482:20502   */\n      tag_504\n        /* \"#utility.yul\":20500:20501   */\n      dup3\n        /* \"#utility.yul\":20482:20502   */\n      tag_253\n      jump\t// in\n    tag_504:\n        /* \"#utility.yul\":20477:20502   */\n      swap2\n      pop\n        /* \"#utility.yul\":20516:20536   */\n      tag_505\n        /* \"#utility.yul\":20534:20535   */\n      dup4\n        /* \"#utility.yul\":20516:20536   */\n      tag_253\n      jump\t// in\n    tag_505:\n        /* \"#utility.yul\":20511:20536   */\n      swap3\n      pop\n        /* \"#utility.yul\":20555:20556   */\n      dup3\n        /* \"#utility.yul\":20545:20580   */\n      tag_506\n      jumpi\n        /* \"#utility.yul\":20560:20578   */\n      tag_507\n      tag_286\n      jump\t// in\n    tag_507:\n        /* \"#utility.yul\":20545:20580   */\n    tag_506:\n        /* \"#utility.yul\":20602:20603   */\n      dup3\n        /* \"#utility.yul\":20599:20600   */\n      dup3\n        /* \"#utility.yul\":20595:20604   */\n      div\n        /* \"#utility.yul\":20590:20604   */\n      swap1\n      pop\n        /* \"#utility.yul\":20425:20610   */\n      swap3\n      swap2\n      pop\n      pop\n      jump\t// out\n        /* \"#utility.yul\":20616:20921   */\n    tag_99:\n        /* \"#utility.yul\":20656:20659   */\n      0x00\n        /* \"#utility.yul\":20675:20695   */\n      tag_509\n        /* \"#utility.yul\":20693:20694   */\n      dup3\n        /* \"#utility.yul\":20675:20695   */\n      tag_253\n      jump\t// in\n    tag_509:\n        /* \"#utility.yul\":20670:20695   */\n      swap2\n      pop\n        /* \"#utility.yul\":20709:20729   */\n      tag_510\n        /* \"#utility.yul\":20727:20728   */\n      dup4\n        /* \"#utility.yul\":20709:20729   */\n      tag_253\n      jump\t// in\n    tag_510:\n        /* \"#utility.yul\":20704:20729   */\n      swap3\n      pop\n        /* \"#utility.yul\":20863:20864   */\n      dup3\n        /* \"#utility.yul\":20795:20861   */\n      0xffffffffffffffffffffffffffffffffffffffffffffffffffffffffffffffff\n        /* \"#utility.yul\":20791:20865   */\n      sub\n        /* \"#utility.yul\":20788:20789   */\n      dup3\n        /* \"#utility.yul\":20785:20866   */\n      gt\n        /* \"#utility.yul\":20782:20889   */\n      iszero\n      tag_511\n      jumpi\n        /* \"#utility.yul\":20869:20887   */\n      tag_512\n      tag_281\n      jump\t// in\n    tag_512:\n        /* \"#utility.yul\":20782:20889   */\n    tag_511:\n        /* \"#utility.yul\":20913:20914   */\n      dup3\n        /* \"#utility.yul\":20910:20911   */\n      dup3\n        /* \"#utility.yul\":20906:20915   */\n      add\n        /* \"#utility.yul\":20899:20915   */\n      swap1\n      pop\n        /* \"#utility.yul\":20616:20921   */\n      swap3\n      swap2\n      pop\n      pop\n      jump\t// out\n        /* \"#utility.yul\":20927:21118   */\n    tag_102:\n        /* \"#utility.yul\":20967:20971   */\n      0x00\n        /* \"#utility.yul\":20987:21007   */\n      tag_514\n        /* \"#utility.yul\":21005:21006   */\n      dup3\n        /* \"#utility.yul\":20987:21007   */\n      tag_253\n      jump\t// in\n    tag_514:\n        /* \"#utility.yul\":20982:21007   */\n      swap2\n      pop\n        /* \"#utility.yul\":21021:21041   */\n      tag_515\n        /* \"#utility.yul\":21039:21040   */\n      dup4\n        /* \"#utility.yul\":21021:21041   */\n      tag_253\n      jump\t// in\n    tag_515:\n        /* \"#utility.yul\":21016:21041   */\n      swap3\n      pop\n        /* \"#utility.yul\":21060:21061   */\n      dup3\n        /* \"#utility.yul\":21057:21058   */\n      dup3\n        /* \"#utility.yul\":21054:21062   */\n      lt\n        /* \"#utility.yul\":21051:21085   */\n      iszero\n      tag_516\n      jumpi\n        /* \"#utility.yul\":21065:21083   */\n      tag_517\n      tag_281\n      jump\t// in\n    tag_517:\n        /* \"#utility.yul\":21051:21085   */\n    tag_516:\n        /* \"#utility.yul\":21110:21111   */\n      dup3\n        /* \"#utility.yul\":21107:21108   */\n      dup3\n        /* \"#utility.yul\":21103:21112   */\n      sub\n        /* \"#utility.yul\":21095:21112   */\n      swap1\n      pop\n        /* \"#utility.yul\":20927:21118   */\n      swap3\n      swap2\n      pop\n      pop\n      jump\t// out\n        /* \"#utility.yul\":21124:21488   */\n    tag_287:\n        /* \"#utility.yul\":21212:21215   */\n      0x00\n        /* \"#utility.yul\":21240:21279   */\n      tag_519\n        /* \"#utility.yul\":21273:21278   */\n      dup3\n        /* \"#utility.yul\":21240:21279   */\n      tag_259\n      jump\t// in\n    tag_519:\n        /* \"#utility.yul\":21295:21366   */\n      tag_520\n        /* \"#utility.yul\":21359:21365   */\n      dup2\n        /* \"#utility.yul\":21354:21357   */\n      dup6\n        /* \"#utility.yul\":21295:21366   */\n      tag_274\n      jump\t// in\n    tag_520:\n        /* \"#utility.yul\":21288:21366   */\n      swap4\n      pop\n        /* \"#utility.yul\":21375:21427   */\n      tag_521\n        /* \"#utility.yul\":21420:21426   */\n      dup2\n        /* \"#utility.yul\":21415:21418   */\n      dup6\n        /* \"#utility.yul\":21408:21412   */\n      0x20\n        /* \"#utility.yul\":21401:21406   */\n      dup7\n        /* \"#utility.yul\":21397:21413   */\n      add\n        /* \"#utility.yul\":21375:21427   */\n      tag_261\n      jump\t// in\n    tag_521:\n        /* \"#utility.yul\":21452:21481   */\n      tag_522\n        /* \"#utility.yul\":21474:21480   */\n      dup2\n        /* \"#utility.yul\":21452:21481   */\n      tag_241\n      jump\t// in\n    tag_522:\n        /* \"#utility.yul\":21447:21450   */\n      dup5\n        /* \"#utility.yul\":21443:21482   */\n      add\n        /* \"#utility.yul\":21436:21482   */\n      swap2\n      pop\n        /* \"#utility.yul\":21216:21488   */\n      pop\n        /* \"#utility.yul\":21124:21488   */\n      swap3\n      swap2\n      pop\n      pop\n      jump\t// out\n        /* \"#utility.yul\":21494:22118   */\n    tag_112:\n        /* \"#utility.yul\":21683:21687   */\n      0x00\n        /* \"#utility.yul\":21721:21723   */\n      0x60\n        /* \"#utility.yul\":21710:21719   */\n      dup3\n        /* \"#utility.yul\":21706:21724   */\n      add\n        /* \"#utility.yul\":21698:21724   */\n      swap1\n      pop\n        /* \"#utility.yul\":21770:21779   */\n      dup2\n        /* \"#utility.yul\":21764:21768   */\n      dup2\n        /* \"#utility.yul\":21760:21780   */\n      sub\n        /* \"#utility.yul\":21756:21757   */\n      0x00\n        /* \"#utility.yul\":21745:21754   */\n      dup4\n        /* \"#utility.yul\":21741:21758   */\n      add\n        /* \"#utility.yul\":21734:21781   */\n      mstore\n        /* \"#utility.yul\":21798:21876   */\n      tag_524\n        /* \"#utility.yul\":21871:21875   */\n      dup2\n        /* \"#utility.yul\":21862:21868   */\n      dup7\n        /* \"#utility.yul\":21798:21876   */\n      tag_287\n      jump\t// in\n    tag_524:\n        /* \"#utility.yul\":21790:21876   */\n      swap1\n      pop\n        /* \"#utility.yul\":21923:21932   */\n      dup2\n        /* \"#utility.yul\":21917:21921   */\n      dup2\n        /* \"#utility.yul\":21913:21933   */\n      sub\n        /* \"#utility.yul\":21908:21910   */\n      0x20\n        /* \"#utility.yul\":21897:21906   */\n      dup4\n        /* \"#utility.yul\":21893:21911   */\n      add\n        /* \"#utility.yul\":21886:21934   */\n      mstore\n        /* \"#utility.yul\":21951:22029   */\n      tag_525\n        /* \"#utility.yul\":22024:22028   */\n      dup2\n        /* \"#utility.yul\":22015:22021   */\n      dup6\n        /* \"#utility.yul\":21951:22029   */\n      tag_287\n      jump\t// in\n    tag_525:\n        /* \"#utility.yul\":21943:22029   */\n      swap1\n      pop\n        /* \"#utility.yul\":22039:22111   */\n      tag_526\n        /* \"#utility.yul\":22107:22109   */\n      0x40\n        /* \"#utility.yul\":22096:22105   */\n      dup4\n        /* \"#utility.yul\":22092:22110   */\n      add\n        /* \"#utility.yul\":22083:22089   */\n      dup5\n        /* \"#utility.yul\":22039:22111   */\n      tag_266\n      jump\t// in\n    tag_526:\n        /* \"#utility.yul\":21494:22118   */\n      swap5\n      swap4\n      pop\n      pop\n      pop\n      pop\n      jump\t// out\n        /* \"#utility.yul\":22124:22357   */\n    tag_124:\n        /* \"#utility.yul\":22163:22166   */\n      0x00\n        /* \"#utility.yul\":22186:22210   */\n      tag_528\n        /* \"#utility.yul\":22204:22209   */\n      dup3\n        /* \"#utility.yul\":22186:22210   */\n      tag_253\n      jump\t// in\n    tag_528:\n        /* \"#utility.yul\":22177:22210   */\n      swap2\n      pop\n        /* \"#utility.yul\":22232:22298   */\n      0xffffffffffffffffffffffffffffffffffffffffffffffffffffffffffffffff\n        /* \"#utility.yul\":22225:22230   */\n      dup3\n        /* \"#utility.yul\":22222:22299   */\n      sub\n        /* \"#utility.yul\":22219:22322   */\n      tag_529\n      jumpi\n        /* \"#utility.yul\":22302:22320   */\n      tag_530\n      tag_281\n      jump\t// in\n    tag_530:\n        /* \"#utility.yul\":22219:22322   */\n    tag_529:\n        /* \"#utility.yul\":22349:22350   */\n      0x01\n        /* \"#utility.yul\":22342:22347   */\n      dup3\n        /* \"#utility.yul\":22338:22351   */\n      add\n        /* \"#utility.yul\":22331:22351   */\n      swap1\n      pop\n        /* \"#utility.yul\":22124:22357   */\n      swap2\n      swap1\n      pop\n      jump\t// out\n        /* \"#utility.yul\":22363:22540   */\n    tag_288:\n        /* \"#utility.yul\":22503:22532   */\n      0x6164645f6163636f756e745f6661696c5f6e616d655f65786973740000000000\n        /* \"#utility.yul\":22499:22500   */\n      0x00\n        /* \"#utility.yul\":22491:22497   */\n      dup3\n        /* \"#utility.yul\":22487:22501   */\n      add\n        /* \"#utility.yul\":22480:22533   */\n      mstore\n        /* \"#utility.yul\":22363:22540   */\n      pop\n      jump\t// out\n        /* \"#utility.yul\":22546:22912   */\n    tag_289:\n        /* \"#utility.yul\":22688:22691   */\n      0x00\n        /* \"#utility.yul\":22709:22776   */\n      tag_533\n        /* \"#utility.yul\":22773:22775   */\n      0x1b\n        /* \"#utility.yul\":22768:22771   */\n      dup4\n        /* \"#utility.yul\":22709:22776   */\n      tag_274\n      jump\t// in\n    tag_533:\n        /* \"#utility.yul\":22702:22776   */\n      swap2\n      pop\n        /* \"#utility.yul\":22785:22878   */\n      tag_534\n        /* \"#utility.yul\":22874:22877   */\n      dup3\n        /* \"#utility.yul\":22785:22878   */\n      tag_288\n      jump\t// in\n    tag_534:\n        /* \"#utility.yul\":22903:22905   */\n      0x20\n        /* \"#utility.yul\":22898:22901   */\n      dup3\n        /* \"#utility.yul\":22894:22906   */\n      add\n        /* \"#utility.yul\":22887:22906   */\n      swap1\n      pop\n        /* \"#utility.yul\":22546:22912   */\n      swap2\n      swap1\n      pop\n      jump\t// out\n        /* \"#utility.yul\":22918:23337   */\n    tag_129:\n        /* \"#utility.yul\":23084:23088   */\n      0x00\n        /* \"#utility.yul\":23122:23124   */\n      0x20\n        /* \"#utility.yul\":23111:23120   */\n      dup3\n        /* \"#utility.yul\":23107:23125   */\n      add\n        /* \"#utility.yul\":23099:23125   */\n      swap1\n      pop\n        /* \"#utility.yul\":23171:23180   */\n      dup2\n        /* \"#utility.yul\":23165:23169   */\n      dup2\n        /* \"#utility.yul\":23161:23181   */\n      sub\n        /* \"#utility.yul\":23157:23158   */\n      0x00\n        /* \"#utility.yul\":23146:23155   */\n      dup4\n        /* \"#utility.yul\":23142:23159   */\n      add\n        /* \"#utility.yul\":23135:23182   */\n      mstore\n        /* \"#utility.yul\":23199:23330   */\n      tag_536\n        /* \"#utility.yul\":23325:23329   */\n      dup2\n        /* \"#utility.yul\":23199:23330   */\n      tag_289\n      jump\t// in\n    tag_536:\n        /* \"#utility.yul\":23191:23330   */\n      swap1\n      pop\n        /* \"#utility.yul\":22918:23337   */\n      swap2\n      swap1\n      pop\n      jump\t// out\n        /* \"#utility.yul\":23343:23523   */\n    tag_290:\n        /* \"#utility.yul\":23391:23468   */\n      0x4e487b7100000000000000000000000000000000000000000000000000000000\n        /* \"#utility.yul\":23388:23389   */\n      0x00\n        /* \"#utility.yul\":23381:23469   */\n      mstore\n        /* \"#utility.yul\":23488:23492   */\n      0x22\n        /* \"#utility.yul\":23485:23486   */\n      0x04\n        /* \"#utility.yul\":23478:23493   */\n      mstore\n        /* \"#utility.yul\":23512:23516   */\n      0x24\n        /* \"#utility.yul\":23509:23510   */\n      0x00\n        /* \"#utility.yul\":23502:23517   */\n      revert\n        /* \"#utility.yul\":23529:23849   */\n    tag_210:\n        /* \"#utility.yul\":23573:23579   */\n      0x00\n        /* \"#utility.yul\":23610:23611   */\n      0x02\n        /* \"#utility.yul\":23604:23608   */\n      dup3\n        /* \"#utility.yul\":23600:23612   */\n      div\n        /* \"#utility.yul\":23590:23612   */\n      swap1\n      pop\n        /* \"#utility.yul\":23657:23658   */\n      0x01\n        /* \"#utility.yul\":23651:23655   */\n      dup3\n        /* \"#utility.yul\":23647:23659   */\n      and\n        /* \"#utility.yul\":23678:23696   */\n      dup1\n        /* \"#utility.yul\":23668:23749   */\n      tag_539\n      jumpi\n        /* \"#utility.yul\":23734:23738   */\n      0x7f\n        /* \"#utility.yul\":23726:23732   */\n      dup3\n        /* \"#utility.yul\":23722:23739   */\n      and\n        /* \"#utility.yul\":23712:23739   */\n      swap2\n      pop\n        /* \"#utility.yul\":23668:23749   */\n    tag_539:\n        /* \"#utility.yul\":23796:23798   */\n      0x20\n        /* \"#utility.yul\":23788:23794   */\n      dup3\n        /* \"#utility.yul\":23785:23799   */\n      lt\n        /* \"#utility.yul\":23765:23783   */\n      dup2\n        /* \"#utility.yul\":23762:23800   */\n      sub\n        /* \"#utility.yul\":23759:23843   */\n      tag_540\n      jumpi\n        /* \"#utility.yul\":23815:23833   */\n      tag_541\n      tag_290\n      jump\t// in\n    tag_541:\n        /* \"#utility.yul\":23759:23843   */\n    tag_540:\n        /* \"#utility.yul\":23580:23849   */\n      pop\n        /* \"#utility.yul\":23529:23849   */\n      swap2\n      swap1\n      pop\n      jump\t// out\n        /* \"#utility.yul\":23855:23996   */\n    tag_291:\n        /* \"#utility.yul\":23904:23908   */\n      0x00\n        /* \"#utility.yul\":23927:23930   */\n      dup2\n        /* \"#utility.yul\":23919:23930   */\n      swap1\n      pop\n        /* \"#utility.yul\":23950:23953   */\n      dup2\n        /* \"#utility.yul\":23947:23948   */\n      0x00\n        /* \"#utility.yul\":23940:23954   */\n      mstore\n        /* \"#utility.yul\":23984:23988   */\n      0x20\n        /* \"#utility.yul\":23981:23982   */\n      0x00\n        /* \"#utility.yul\":23971:23989   */\n      keccak256\n        /* \"#utility.yul\":23963:23989   */\n      swap1\n      pop\n        /* \"#utility.yul\":23855:23996   */\n      swap2\n      swap1\n      pop\n      jump\t// out\n        /* \"#utility.yul\":24002:24095   */\n    tag_292:\n        /* \"#utility.yul\":24039:24045   */\n      0x00\n        /* \"#utility.yul\":24086:24088   */\n      0x20\n        /* \"#utility.yul\":24081:24083   */\n      0x1f\n        /* \"#utility.yul\":24074:24079   */\n      dup4\n        /* \"#utility.yul\":24070:24084   */\n      add\n        /* \"#utility.yul\":24066:24089   */\n      div\n        /* \"#utility.yul\":24056:24089   */\n      swap1\n      pop\n        /* \"#utility.yul\":24002:24095   */\n      swap2\n      swap1\n      pop\n      jump\t// out\n        /* \"#utility.yul\":24101:24208   */\n    tag_293:\n        /* \"#utility.yul\":24145:24153   */\n      0x00\n        /* \"#utility.yul\":24195:24200   */\n      dup3\n        /* \"#utility.yul\":24189:24193   */\n      dup3\n        /* \"#utility.yul\":24185:24201   */\n      shl\n        /* \"#utility.yul\":24164:24201   */\n      swap1\n      pop\n        /* \"#utility.yul\":24101:24208   */\n      swap3\n      swap2\n      pop\n      pop\n      jump\t// out\n        /* \"#utility.yul\":24214:24607   */\n    tag_294:\n        /* \"#utility.yul\":24283:24289   */\n      0x00\n        /* \"#utility.yul\":24333:24334   */\n      0x08\n        /* \"#utility.yul\":24321:24331   */\n      dup4\n        /* \"#utility.yul\":24317:24335   */\n      mul\n        /* \"#utility.yul\":24356:24453   */\n      tag_546\n        /* \"#utility.yul\":24386:24452   */\n      0xffffffffffffffffffffffffffffffffffffffffffffffffffffffffffffffff\n        /* \"#utility.yul\":24375:24384   */\n      dup3\n        /* \"#utility.yul\":24356:24453   */\n      tag_293\n      jump\t// in\n    tag_546:\n        /* \"#utility.yul\":24474:24513   */\n      tag_547\n        /* \"#utility.yul\":24504:24512   */\n      dup7\n        /* \"#utility.yul\":24493:24502   */\n      dup4\n        /* \"#utility.yul\":24474:24513   */\n      tag_293\n      jump\t// in\n    tag_547:\n        /* \"#utility.yul\":24462:24513   */\n      swap6\n      pop\n        /* \"#utility.yul\":24546:24550   */\n      dup1\n        /* \"#utility.yul\":24542:24551   */\n      not\n        /* \"#utility.yul\":24535:24540   */\n      dup5\n        /* \"#utility.yul\":24531:24552   */\n      and\n        /* \"#utility.yul\":24522:24552   */\n      swap4\n      pop\n        /* \"#utility.yul\":24595:24599   */\n      dup1\n        /* \"#utility.yul\":24585:24593   */\n      dup7\n        /* \"#utility.yul\":24581:24600   */\n      and\n        /* \"#utility.yul\":24574:24579   */\n      dup5\n        /* \"#utility.yul\":24571:24601   */\n      or\n        /* \"#utility.yul\":24561:24601   */\n      swap3\n      pop\n        /* \"#utility.yul\":24290:24607   */\n      pop\n      pop\n        /* \"#utility.yul\":24214:24607   */\n      swap4\n      swap3\n      pop\n      pop\n      pop\n      jump\t// out\n        /* \"#utility.yul\":24613:24673   */\n    tag_295:\n        /* \"#utility.yul\":24641:24644   */\n      0x00\n        /* \"#utility.yul\":24662:24667   */\n      dup2\n        /* \"#utility.yul\":24655:24667   */\n      swap1\n      pop\n        /* \"#utility.yul\":24613:24673   */\n      swap2\n      swap1\n      pop\n      jump\t// out\n        /* \"#utility.yul\":24679:24821   */\n    tag_296:\n        /* \"#utility.yul\":24729:24738   */\n      0x00\n        /* \"#utility.yul\":24762:24815   */\n      tag_550\n        /* \"#utility.yul\":24780:24814   */\n      tag_551\n        /* \"#utility.yul\":24789:24813   */\n      tag_552\n        /* \"#utility.yul\":24807:24812   */\n      dup5\n        /* \"#utility.yul\":24789:24813   */\n      tag_253\n      jump\t// in\n    tag_552:\n        /* \"#utility.yul\":24780:24814   */\n      tag_295\n      jump\t// in\n    tag_551:\n        /* \"#utility.yul\":24762:24815   */\n      tag_253\n      jump\t// in\n    tag_550:\n        /* \"#utility.yul\":24749:24815   */\n      swap1\n      pop\n        /* \"#utility.yul\":24679:24821   */\n      swap2\n      swap1\n      pop\n      jump\t// out\n        /* \"#utility.yul\":24827:24902   */\n    tag_297:\n        /* \"#utility.yul\":24870:24873   */\n      0x00\n        /* \"#utility.yul\":24891:24896   */\n      dup2\n        /* \"#utility.yul\":24884:24896   */\n      swap1\n      pop\n        /* \"#utility.yul\":24827:24902   */\n      swap2\n      swap1\n      pop\n      jump\t// out\n        /* \"#utility.yul\":24908:25177   */\n    tag_298:\n        /* \"#utility.yul\":25018:25057   */\n      tag_555\n        /* \"#utility.yul\":25049:25056   */\n      dup4\n        /* \"#utility.yul\":25018:25057   */\n      tag_296\n      jump\t// in\n    tag_555:\n        /* \"#utility.yul\":25079:25170   */\n      tag_556\n        /* \"#utility.yul\":25128:25169   */\n      tag_557\n        /* \"#utility.yul\":25152:25168   */\n      dup3\n        /* \"#utility.yul\":25128:25169   */\n      tag_297\n      jump\t// in\n    tag_557:\n        /* \"#utility.yul\":25120:25126   */\n      dup5\n        /* \"#utility.yul\":25113:25117   */\n      dup5\n        /* \"#utility.yul\":25107:25118   */\n      sload\n        /* \"#utility.yul\":25079:25170   */\n      tag_294\n      jump\t// in\n    tag_556:\n        /* \"#utility.yul\":25073:25077   */\n      dup3\n        /* \"#utility.yul\":25066:25171   */\n      sstore\n        /* \"#utility.yul\":24984:25177   */\n      pop\n        /* \"#utility.yul\":24908:25177   */\n      pop\n      pop\n      pop\n      jump\t// out\n        /* \"#utility.yul\":25183:25256   */\n    tag_299:\n        /* \"#utility.yul\":25228:25231   */\n      0x00\n        /* \"#utility.yul\":25183:25256   */\n      swap1\n      jump\t// out\n        /* \"#utility.yul\":25262:25451   */\n    tag_300:\n        /* \"#utility.yul\":25339:25371   */\n      tag_560\n      tag_299\n      jump\t// in\n    tag_560:\n        /* \"#utility.yul\":25380:25445   */\n      tag_561\n        /* \"#utility.yul\":25438:25444   */\n      dup2\n        /* \"#utility.yul\":25430:25436   */\n      dup5\n        /* \"#utility.yul\":25424:25428   */\n      dup5\n        /* \"#utility.yul\":25380:25445   */\n      tag_298\n      jump\t// in\n    tag_561:\n        /* \"#utility.yul\":25315:25451   */\n      pop\n        /* \"#utility.yul\":25262:25451   */\n      pop\n      pop\n      jump\t// out\n        /* \"#utility.yul\":25457:25643   */\n    tag_301:\n        /* \"#utility.yul\":25517:25637   */\n    tag_563:\n        /* \"#utility.yul\":25534:25537   */\n      dup2\n        /* \"#utility.yul\":25527:25532   */\n      dup2\n        /* \"#utility.yul\":25524:25538   */\n      lt\n        /* \"#utility.yul\":25517:25637   */\n      iszero\n      tag_565\n      jumpi\n        /* \"#utility.yul\":25588:25627   */\n      tag_566\n        /* \"#utility.yul\":25625:25626   */\n      0x00\n        /* \"#utility.yul\":25618:25623   */\n      dup3\n        /* \"#utility.yul\":25588:25627   */\n      tag_300\n      jump\t// in\n    tag_566:\n        /* \"#utility.yul\":25561:25562   */\n      0x01\n        /* \"#utility.yul\":25554:25559   */\n      dup2\n        /* \"#utility.yul\":25550:25563   */\n      add\n        /* \"#utility.yul\":25541:25563   */\n      swap1\n      pop\n        /* \"#utility.yul\":25517:25637   */\n      jump(tag_563)\n    tag_565:\n        /* \"#utility.yul\":25457:25643   */\n      pop\n      pop\n      jump\t// out\n        /* \"#utility.yul\":25649:26192   */\n    tag_302:\n        /* \"#utility.yul\":25750:25752   */\n      0x1f\n        /* \"#utility.yul\":25745:25748   */\n      dup3\n        /* \"#utility.yul\":25742:25753   */\n      gt\n        /* \"#utility.yul\":25739:26185   */\n      iszero\n      tag_568\n      jumpi\n        /* \"#utility.yul\":25784:25822   */\n      tag_569\n        /* \"#utility.yul\":25816:25821   */\n      dup2\n        /* \"#utility.yul\":25784:25822   */\n      tag_291\n      jump\t// in\n    tag_569:\n        /* \"#utility.yul\":25868:25897   */\n      tag_570\n        /* \"#utility.yul\":25886:25896   */\n      dup5\n        /* \"#utility.yul\":25868:25897   */\n      tag_292\n      jump\t// in\n    tag_570:\n        /* \"#utility.yul\":25858:25866   */\n      dup2\n        /* \"#utility.yul\":25854:25898   */\n      add\n        /* \"#utility.yul\":26051:26053   */\n      0x20\n        /* \"#utility.yul\":26039:26049   */\n      dup6\n        /* \"#utility.yul\":26036:26054   */\n      lt\n        /* \"#utility.yul\":26033:26082   */\n      iszero\n      tag_571\n      jumpi\n        /* \"#utility.yul\":26072:26080   */\n      dup2\n        /* \"#utility.yul\":26057:26080   */\n      swap1\n      pop\n        /* \"#utility.yul\":26033:26082   */\n    tag_571:\n        /* \"#utility.yul\":26095:26175   */\n      tag_572\n        /* \"#utility.yul\":26151:26173   */\n      tag_573\n        /* \"#utility.yul\":26169:26172   */\n      dup6\n        /* \"#utility.yul\":26151:26173   */\n      tag_292\n      jump\t// in\n    tag_573:\n        /* \"#utility.yul\":26141:26149   */\n      dup4\n        /* \"#utility.yul\":26137:26174   */\n      add\n        /* \"#utility.yul\":26124:26135   */\n      dup3\n        /* \"#utility.yul\":26095:26175   */\n      tag_301\n      jump\t// in\n    tag_572:\n        /* \"#utility.yul\":25754:26185   */\n      pop\n      pop\n        /* \"#utility.yul\":25739:26185   */\n    tag_568:\n        /* \"#utility.yul\":25649:26192   */\n      pop\n      pop\n      pop\n      jump\t// out\n        /* \"#utility.yul\":26198:26315   */\n    tag_303:\n        /* \"#utility.yul\":26252:26260   */\n      0x00\n        /* \"#utility.yul\":26302:26307   */\n      dup3\n        /* \"#utility.yul\":26296:26300   */\n      dup3\n        /* \"#utility.yul\":26292:26308   */\n      shr\n        /* \"#utility.yul\":26271:26308   */\n      swap1\n      pop\n        /* \"#utility.yul\":26198:26315   */\n      swap3\n      swap2\n      pop\n      pop\n      jump\t// out\n        /* \"#utility.yul\":26321:26490   */\n    tag_304:\n        /* \"#utility.yul\":26365:26371   */\n      0x00\n        /* \"#utility.yul\":26398:26449   */\n      tag_576\n        /* \"#utility.yul\":26446:26447   */\n      0x00\n        /* \"#utility.yul\":26442:26448   */\n      not\n        /* \"#utility.yul\":26434:26439   */\n      dup5\n        /* \"#utility.yul\":26431:26432   */\n      0x08\n        /* \"#utility.yul\":26427:26440   */\n      mul\n        /* \"#utility.yul\":26398:26449   */\n      tag_303\n      jump\t// in\n    tag_576:\n        /* \"#utility.yul\":26394:26450   */\n      not\n        /* \"#utility.yul\":26479:26483   */\n      dup1\n        /* \"#utility.yul\":26473:26477   */\n      dup4\n        /* \"#utility.yul\":26469:26484   */\n      and\n        /* \"#utility.yul\":26459:26484   */\n      swap2\n      pop\n        /* \"#utility.yul\":26372:26490   */\n      pop\n        /* \"#utility.yul\":26321:26490   */\n      swap3\n      swap2\n      pop\n      pop\n      jump\t// out\n        /* \"#utility.yul\":26495:26790   */\n    tag_305:\n        /* \"#utility.yul\":26571:26575   */\n      0x00\n        /* \"#utility.yul\":26717:26746   */\n      tag_578\n        /* \"#utility.yul\":26742:26745   */\n      dup4\n        /* \"#utility.yul\":26736:26740   */\n      dup4\n        /* \"#utility.yul\":26717:26746   */\n      tag_304\n      jump\t// in\n    tag_578:\n        /* \"#utility.yul\":26709:26746   */\n      swap2\n      pop\n        /* \"#utility.yul\":26779:26782   */\n      dup3\n        /* \"#utility.yul\":26776:26777   */\n      0x02\n        /* \"#utility.yul\":26772:26783   */\n      mul\n        /* \"#utility.yul\":26766:26770   */\n      dup3\n        /* \"#utility.yul\":26763:26784   */\n      or\n        /* \"#utility.yul\":26755:26784   */\n      swap1\n      pop\n        /* \"#utility.yul\":26495:26790   */\n      swap3\n      swap2\n      pop\n      pop\n      jump\t// out\n        /* \"#utility.yul\":26795:28190   */\n    tag_132:\n        /* \"#utility.yul\":26912:26949   */\n      tag_580\n        /* \"#utility.yul\":26945:26948   */\n      dup3\n        /* \"#utility.yul\":26912:26949   */\n      tag_259\n      jump\t// in\n    tag_580:\n        /* \"#utility.yul\":27014:27032   */\n      0xffffffffffffffff\n        /* \"#utility.yul\":27006:27012   */\n      dup2\n        /* \"#utility.yul\":27003:27033   */\n      gt\n        /* \"#utility.yul\":27000:27056   */\n      iszero\n      tag_581\n      jumpi\n        /* \"#utility.yul\":27036:27054   */\n      tag_582\n      tag_242\n      jump\t// in\n    tag_582:\n        /* \"#utility.yul\":27000:27056   */\n    tag_581:\n        /* \"#utility.yul\":27080:27118   */\n      tag_583\n        /* \"#utility.yul\":27112:27116   */\n      dup3\n        /* \"#utility.yul\":27106:27117   */\n      sload\n        /* \"#utility.yul\":27080:27118   */\n      tag_210\n      jump\t// in\n    tag_583:\n        /* \"#utility.yul\":27165:27232   */\n      tag_584\n        /* \"#utility.yul\":27225:27231   */\n      dup3\n        /* \"#utility.yul\":27217:27223   */\n      dup3\n        /* \"#utility.yul\":27211:27215   */\n      dup6\n        /* \"#utility.yul\":27165:27232   */\n      tag_302\n      jump\t// in\n    tag_584:\n        /* \"#utility.yul\":27259:27260   */\n      0x00\n        /* \"#utility.yul\":27283:27287   */\n      0x20\n        /* \"#utility.yul\":27270:27287   */\n      swap1\n      pop\n        /* \"#utility.yul\":27315:27317   */\n      0x1f\n        /* \"#utility.yul\":27307:27313   */\n      dup4\n        /* \"#utility.yul\":27304:27318   */\n      gt\n        /* \"#utility.yul\":27332:27333   */\n      0x01\n        /* \"#utility.yul\":27327:27945   */\n      dup2\n      eq\n      tag_586\n      jumpi\n        /* \"#utility.yul\":27989:27990   */\n      0x00\n        /* \"#utility.yul\":28006:28012   */\n      dup5\n        /* \"#utility.yul\":28003:28080   */\n      iszero\n      tag_587\n      jumpi\n        /* \"#utility.yul\":28055:28064   */\n      dup3\n        /* \"#utility.yul\":28050:28053   */\n      dup8\n        /* \"#utility.yul\":28046:28065   */\n      add\n        /* \"#utility.yul\":28040:28066   */\n      mload\n        /* \"#utility.yul\":28031:28066   */\n      swap1\n      pop\n        /* \"#utility.yul\":28003:28080   */\n    tag_587:\n        /* \"#utility.yul\":28106:28173   */\n      tag_588\n        /* \"#utility.yul\":28166:28172   */\n      dup6\n        /* \"#utility.yul\":28159:28164   */\n      dup3\n        /* \"#utility.yul\":28106:28173   */\n      tag_305\n      jump\t// in\n    tag_588:\n        /* \"#utility.yul\":28100:28104   */\n      dup7\n        /* \"#utility.yul\":28093:28174   */\n      sstore\n        /* \"#utility.yul\":27962:28184   */\n      pop\n        /* \"#utility.yul\":27297:28184   */\n      jump(tag_585)\n        /* \"#utility.yul\":27327:27945   */\n    tag_586:\n        /* \"#utility.yul\":27379:27383   */\n      0x1f\n        /* \"#utility.yul\":27375:27384   */\n      not\n        /* \"#utility.yul\":27367:27373   */\n      dup5\n        /* \"#utility.yul\":27363:27385   */\n      and\n        /* \"#utility.yul\":27413:27450   */\n      tag_589\n        /* \"#utility.yul\":27445:27449   */\n      dup7\n        /* \"#utility.yul\":27413:27450   */\n      tag_291\n      jump\t// in\n    tag_589:\n        /* \"#utility.yul\":27472:27473   */\n      0x00\n        /* \"#utility.yul\":27486:27694   */\n    tag_590:\n        /* \"#utility.yul\":27500:27507   */\n      dup3\n        /* \"#utility.yul\":27497:27498   */\n      dup2\n        /* \"#utility.yul\":27494:27508   */\n      lt\n        /* \"#utility.yul\":27486:27694   */\n      iszero\n      tag_592\n      jumpi\n        /* \"#utility.yul\":27579:27588   */\n      dup5\n        /* \"#utility.yul\":27574:27577   */\n      dup10\n        /* \"#utility.yul\":27570:27589   */\n      add\n        /* \"#utility.yul\":27564:27590   */\n      mload\n        /* \"#utility.yul\":27556:27562   */\n      dup3\n        /* \"#utility.yul\":27549:27591   */\n      sstore\n        /* \"#utility.yul\":27630:27631   */\n      0x01\n        /* \"#utility.yul\":27622:27628   */\n      dup3\n        /* \"#utility.yul\":27618:27632   */\n      add\n        /* \"#utility.yul\":27608:27632   */\n      swap2\n      pop\n        /* \"#utility.yul\":27677:27679   */\n      0x20\n        /* \"#utility.yul\":27666:27675   */\n      dup6\n        /* \"#utility.yul\":27662:27680   */\n      add\n        /* \"#utility.yul\":27649:27680   */\n      swap5\n      pop\n        /* \"#utility.yul\":27523:27527   */\n      0x20\n        /* \"#utility.yul\":27520:27521   */\n      dup2\n        /* \"#utility.yul\":27516:27528   */\n      add\n        /* \"#utility.yul\":27511:27528   */\n      swap1\n      pop\n        /* \"#utility.yul\":27486:27694   */\n      jump(tag_590)\n    tag_592:\n        /* \"#utility.yul\":27722:27728   */\n      dup7\n        /* \"#utility.yul\":27713:27720   */\n      dup4\n        /* \"#utility.yul\":27710:27729   */\n      lt\n        /* \"#utility.yul\":27707:27886   */\n      iszero\n      tag_593\n      jumpi\n        /* \"#utility.yul\":27780:27789   */\n      dup5\n        /* \"#utility.yul\":27775:27778   */\n      dup10\n        /* \"#utility.yul\":27771:27790   */\n      add\n        /* \"#utility.yul\":27765:27791   */\n      mload\n        /* \"#utility.yul\":27823:27871   */\n      tag_594\n        /* \"#utility.yul\":27865:27869   */\n      0x1f\n        /* \"#utility.yul\":27857:27863   */\n      dup10\n        /* \"#utility.yul\":27853:27870   */\n      and\n        /* \"#utility.yul\":27842:27851   */\n      dup3\n        /* \"#utility.yul\":27823:27871   */\n      tag_304\n      jump\t// in\n    tag_594:\n        /* \"#utility.yul\":27815:27821   */\n      dup4\n        /* \"#utility.yul\":27808:27872   */\n      sstore\n        /* \"#utility.yul\":27730:27886   */\n      pop\n        /* \"#utility.yul\":27707:27886   */\n    tag_593:\n        /* \"#utility.yul\":27932:27933   */\n      0x01\n        /* \"#utility.yul\":27928:27929   */\n      0x02\n        /* \"#utility.yul\":27920:27926   */\n      dup9\n        /* \"#utility.yul\":27916:27930   */\n      mul\n        /* \"#utility.yul\":27912:27934   */\n      add\n        /* \"#utility.yul\":27906:27910   */\n      dup9\n        /* \"#utility.yul\":27899:27935   */\n      sstore\n        /* \"#utility.yul\":27334:27945   */\n      pop\n      pop\n      pop\n        /* \"#utility.yul\":27297:28184   */\n    tag_585:\n      pop\n        /* \"#utility.yul\":26887:28190   */\n      pop\n      pop\n      pop\n        /* \"#utility.yul\":26795:28190   */\n      pop\n      pop\n      jump\t// out\n        /* \"#utility.yul\":28196:28314   */\n    tag_306:\n        /* \"#utility.yul\":28283:28307   */\n      tag_596\n        /* \"#utility.yul\":28301:28306   */\n      dup2\n        /* \"#utility.yul\":28283:28307   */\n      tag_268\n      jump\t// in\n    tag_596:\n        /* \"#utility.yul\":28278:28281   */\n      dup3\n        /* \"#utility.yul\":28271:28308   */\n      mstore\n        /* \"#utility.yul\":28196:28314   */\n      pop\n      pop\n      jump\t// out\n        /* \"#utility.yul\":28320:28743   */\n    tag_137:\n        /* \"#utility.yul\":28461:28465   */\n      0x00\n        /* \"#utility.yul\":28499:28501   */\n      0x40\n        /* \"#utility.yul\":28488:28497   */\n      dup3\n        /* \"#utility.yul\":28484:28502   */\n      add\n        /* \"#utility.yul\":28476:28502   */\n      swap1\n      pop\n        /* \"#utility.yul\":28512:28583   */\n      tag_598\n        /* \"#utility.yul\":28580:28581   */\n      0x00\n        /* \"#utility.yul\":28569:28578   */\n      dup4\n        /* \"#utility.yul\":28565:28582   */\n      add\n        /* \"#utility.yul\":28556:28562   */\n      dup6\n        /* \"#utility.yul\":28512:28583   */\n      tag_306\n      jump\t// in\n    tag_598:\n        /* \"#utility.yul\":28630:28639   */\n      dup2\n        /* \"#utility.yul\":28624:28628   */\n      dup2\n        /* \"#utility.yul\":28620:28640   */\n      sub\n        /* \"#utility.yul\":28615:28617   */\n      0x20\n        /* \"#utility.yul\":28604:28613   */\n      dup4\n        /* \"#utility.yul\":28600:28618   */\n      add\n        /* \"#utility.yul\":28593:28641   */\n      mstore\n        /* \"#utility.yul\":28658:28736   */\n      tag_599\n        /* \"#utility.yul\":28731:28735   */\n      dup2\n        /* \"#utility.yul\":28722:28728   */\n      dup5\n        /* \"#utility.yul\":28658:28736   */\n      tag_287\n      jump\t// in\n    tag_599:\n        /* \"#utility.yul\":28650:28736   */\n      swap1\n      pop\n        /* \"#utility.yul\":28320:28743   */\n      swap4\n      swap3\n      pop\n      pop\n      pop\n      jump\t// out\n        /* \"#utility.yul\":28749:28928   */\n    tag_307:\n        /* \"#utility.yul\":28889:28920   */\n      0x77697468647261776e5f6661696c5f6e616d655f6e6f745f6578697374000000\n        /* \"#utility.yul\":28885:28886   */\n      0x00\n        /* \"#utility.yul\":28877:28883   */\n      dup3\n        /* \"#utility.yul\":28873:28887   */\n      add\n        /* \"#utility.yul\":28866:28921   */\n      mstore\n        /* \"#utility.yul\":28749:28928   */\n      pop\n      jump\t// out\n        /* \"#utility.yul\":28934:29300   */\n    tag_308:\n        /* \"#utility.yul\":29076:29079   */\n      0x00\n        /* \"#utility.yul\":29097:29164   */\n      tag_602\n        /* \"#utility.yul\":29161:29163   */\n      0x1d\n        /* \"#utility.yul\":29156:29159   */\n      dup4\n        /* \"#utility.yul\":29097:29164   */\n      tag_274\n      jump\t// in\n    tag_602:\n        /* \"#utility.yul\":29090:29164   */\n      swap2\n      pop\n        /* \"#utility.yul\":29173:29266   */\n      tag_603\n        /* \"#utility.yul\":29262:29265   */\n      dup3\n        /* \"#utility.yul\":29173:29266   */\n      tag_307\n      jump\t// in\n    tag_603:\n        /* \"#utility.yul\":29291:29293   */\n      0x20\n        /* \"#utility.yul\":29286:29289   */\n      dup3\n        /* \"#utility.yul\":29282:29294   */\n      add\n        /* \"#utility.yul\":29275:29294   */\n      swap1\n      pop\n        /* \"#utility.yul\":28934:29300   */\n      swap2\n      swap1\n      pop\n      jump\t// out\n        /* \"#utility.yul\":29306:29725   */\n    tag_142:\n        /* \"#utility.yul\":29472:29476   */\n      0x00\n        /* \"#utility.yul\":29510:29512   */\n      0x20\n        /* \"#utility.yul\":29499:29508   */\n      dup3\n        /* \"#utility.yul\":29495:29513   */\n      add\n        /* \"#utility.yul\":29487:29513   */\n      swap1\n      pop\n        /* \"#utility.yul\":29559:29568   */\n      dup2\n        /* \"#utility.yul\":29553:29557   */\n      dup2\n        /* \"#utility.yul\":29549:29569   */\n      sub\n        /* \"#utility.yul\":29545:29546   */\n      0x00\n        /* \"#utility.yul\":29534:29543   */\n      dup4\n        /* \"#utility.yul\":29530:29547   */\n      add\n        /* \"#utility.yul\":29523:29570   */\n      mstore\n        /* \"#utility.yul\":29587:29718   */\n      tag_605\n        /* \"#utility.yul\":29713:29717   */\n      dup2\n        /* \"#utility.yul\":29587:29718   */\n      tag_308\n      jump\t// in\n    tag_605:\n        /* \"#utility.yul\":29579:29718   */\n      swap1\n      pop\n        /* \"#utility.yul\":29306:29725   */\n      swap2\n      swap1\n      pop\n      jump\t// out\n        /* \"#utility.yul\":29731:29905   */\n    tag_309:\n        /* \"#utility.yul\":29871:29897   */\n      0x77697468647261776e5f6661696c5f6e6f745f6f776e65720000000000000000\n        /* \"#utility.yul\":29867:29868   */\n      0x00\n        /* \"#utility.yul\":29859:29865   */\n      dup3\n        /* \"#utility.yul\":29855:29869   */\n      add\n        /* \"#utility.yul\":29848:29898   */\n      mstore\n        /* \"#utility.yul\":29731:29905   */\n      pop\n      jump\t// out\n        /* \"#utility.yul\":29911:30277   */\n    tag_310:\n        /* \"#utility.yul\":30053:30056   */\n      0x00\n        /* \"#utility.yul\":30074:30141   */\n      tag_608\n        /* \"#utility.yul\":30138:30140   */\n      0x18\n        /* \"#utility.yul\":30133:30136   */\n      dup4\n        /* \"#utility.yul\":30074:30141   */\n      tag_274\n      jump\t// in\n    tag_608:\n        /* \"#utility.yul\":30067:30141   */\n      swap2\n      pop\n        /* \"#utility.yul\":30150:30243   */\n      tag_609\n        /* \"#utility.yul\":30239:30242   */\n      dup3\n        /* \"#utility.yul\":30150:30243   */\n      tag_309\n      jump\t// in\n    tag_609:\n        /* \"#utility.yul\":30268:30270   */\n      0x20\n        /* \"#utility.yul\":30263:30266   */\n      dup3\n        /* \"#utility.yul\":30259:30271   */\n      add\n        /* \"#utility.yul\":30252:30271   */\n      swap1\n      pop\n        /* \"#utility.yul\":29911:30277   */\n      swap2\n      swap1\n      pop\n      jump\t// out\n        /* \"#utility.yul\":30283:30702   */\n    tag_146:\n        /* \"#utility.yul\":30449:30453   */\n      0x00\n        /* \"#utility.yul\":30487:30489   */\n      0x20\n        /* \"#utility.yul\":30476:30485   */\n      dup3\n        /* \"#utility.yul\":30472:30490   */\n      add\n        /* \"#utility.yul\":30464:30490   */\n      swap1\n      pop\n        /* \"#utility.yul\":30536:30545   */\n      dup2\n        /* \"#utility.yul\":30530:30534   */\n      dup2\n        /* \"#utility.yul\":30526:30546   */\n      sub\n        /* \"#utility.yul\":30522:30523   */\n      0x00\n        /* \"#utility.yul\":30511:30520   */\n      dup4\n        /* \"#utility.yul\":30507:30524   */\n      add\n        /* \"#utility.yul\":30500:30547   */\n      mstore\n        /* \"#utility.yul\":30564:30695   */\n      tag_611\n        /* \"#utility.yul\":30690:30694   */\n      dup2\n        /* \"#utility.yul\":30564:30695   */\n      tag_310\n      jump\t// in\n    tag_611:\n        /* \"#utility.yul\":30556:30695   */\n      swap1\n      pop\n        /* \"#utility.yul\":30283:30702   */\n      swap2\n      swap1\n      pop\n      jump\t// out\n        /* \"#utility.yul\":30708:30883   */\n    tag_311:\n        /* \"#utility.yul\":30848:30875   */\n      0x77697468647261776e5f6661696c5f76616c75655f7a65726f00000000000000\n        /* \"#utility.yul\":30844:30845   */\n      0x00\n        /* \"#utility.yul\":30836:30842   */\n      dup3\n        /* \"#utility.yul\":30832:30846   */\n      add\n        /* \"#utility.yul\":30825:30876   */\n      mstore\n        /* \"#utility.yul\":30708:30883   */\n      pop\n      jump\t// out\n        /* \"#utility.yul\":30889:31255   */\n    tag_312:\n        /* \"#utility.yul\":31031:31034   */\n      0x00\n        /* \"#utility.yul\":31052:31119   */\n      tag_614\n        /* \"#utility.yul\":31116:31118   */\n      0x19\n        /* \"#utility.yul\":31111:31114   */\n      dup4\n        /* \"#utility.yul\":31052:31119   */\n      tag_274\n      jump\t// in\n    tag_614:\n        /* \"#utility.yul\":31045:31119   */\n      swap2\n      pop\n        /* \"#utility.yul\":31128:31221   */\n      tag_615\n        /* \"#utility.yul\":31217:31220   */\n      dup3\n        /* \"#utility.yul\":31128:31221   */\n      tag_311\n      jump\t// in\n    tag_615:\n        /* \"#utility.yul\":31246:31248   */\n      0x20\n        /* \"#utility.yul\":31241:31244   */\n      dup3\n        /* \"#utility.yul\":31237:31249   */\n      add\n        /* \"#utility.yul\":31230:31249   */\n      swap1\n      pop\n        /* \"#utility.yul\":30889:31255   */\n      swap2\n      swap1\n      pop\n      jump\t// out\n        /* \"#utility.yul\":31261:31680   */\n    tag_149:\n        /* \"#utility.yul\":31427:31431   */\n      0x00\n        /* \"#utility.yul\":31465:31467   */\n      0x20\n        /* \"#utility.yul\":31454:31463   */\n      dup3\n        /* \"#utility.yul\":31450:31468   */\n      add\n        /* \"#utility.yul\":31442:31468   */\n      swap1\n      pop\n        /* \"#utility.yul\":31514:31523   */\n      dup2\n        /* \"#utility.yul\":31508:31512   */\n      dup2\n        /* \"#utility.yul\":31504:31524   */\n      sub\n        /* \"#utility.yul\":31500:31501   */\n      0x00\n        /* \"#utility.yul\":31489:31498   */\n      dup4\n        /* \"#utility.yul\":31485:31502   */\n      add\n        /* \"#utility.yul\":31478:31525   */\n      mstore\n        /* \"#utility.yul\":31542:31673   */\n      tag_617\n        /* \"#utility.yul\":31668:31672   */\n      dup2\n        /* \"#utility.yul\":31542:31673   */\n      tag_312\n      jump\t// in\n    tag_617:\n        /* \"#utility.yul\":31534:31673   */\n      swap1\n      pop\n        /* \"#utility.yul\":31261:31680   */\n      swap2\n      swap1\n      pop\n      jump\t// out\n        /* \"#utility.yul\":31686:31906   */\n    tag_313:\n        /* \"#utility.yul\":31826:31860   */\n      0x77697468647261776e5f6661696c5f62616c616e63655f6e6f745f656e6f7567\n        /* \"#utility.yul\":31822:31823   */\n      0x00\n        /* \"#utility.yul\":31814:31820   */\n      dup3\n        /* \"#utility.yul\":31810:31824   */\n      add\n        /* \"#utility.yul\":31803:31861   */\n      mstore\n        /* \"#utility.yul\":31895:31898   */\n      0x6800000000000000000000000000000000000000000000000000000000000000\n        /* \"#utility.yul\":31890:31892   */\n      0x20\n        /* \"#utility.yul\":31882:31888   */\n      dup3\n        /* \"#utility.yul\":31878:31893   */\n      add\n        /* \"#utility.yul\":31871:31899   */\n      mstore\n        /* \"#utility.yul\":31686:31906   */\n      pop\n      jump\t// out\n        /* \"#utility.yul\":31912:32278   */\n    tag_314:\n        /* \"#utility.yul\":32054:32057   */\n      0x00\n        /* \"#utility.yul\":32075:32142   */\n      tag_620\n        /* \"#utility.yul\":32139:32141   */\n      0x21\n        /* \"#utility.yul\":32134:32137   */\n      dup4\n        /* \"#utility.yul\":32075:32142   */\n      tag_274\n      jump\t// in\n    tag_620:\n        /* \"#utility.yul\":32068:32142   */\n      swap2\n      pop\n        /* \"#utility.yul\":32151:32244   */\n      tag_621\n        /* \"#utility.yul\":32240:32243   */\n      dup3\n        /* \"#utility.yul\":32151:32244   */\n      tag_313\n      jump\t// in\n    tag_621:\n        /* \"#utility.yul\":32269:32271   */\n      0x40\n        /* \"#utility.yul\":32264:32267   */\n      dup3\n        /* \"#utility.yul\":32260:32272   */\n      add\n        /* \"#utility.yul\":32253:32272   */\n      swap1\n      pop\n        /* \"#utility.yul\":31912:32278   */\n      swap2\n      swap1\n      pop\n      jump\t// out\n        /* \"#utility.yul\":32284:32703   */\n    tag_153:\n        /* \"#utility.yul\":32450:32454   */\n      0x00\n        /* \"#utility.yul\":32488:32490   */\n      0x20\n        /* \"#utility.yul\":32477:32486   */\n      dup3\n        /* \"#utility.yul\":32473:32491   */\n      add\n        /* \"#utility.yul\":32465:32491   */\n      swap1\n      pop\n        /* \"#utility.yul\":32537:32546   */\n      dup2\n        /* \"#utility.yul\":32531:32535   */\n      dup2\n        /* \"#utility.yul\":32527:32547   */\n      sub\n        /* \"#utility.yul\":32523:32524   */\n      0x00\n        /* \"#utility.yul\":32512:32521   */\n      dup4\n        /* \"#utility.yul\":32508:32525   */\n      add\n        /* \"#utility.yul\":32501:32548   */\n      mstore\n        /* \"#utility.yul\":32565:32696   */\n      tag_623\n        /* \"#utility.yul\":32691:32695   */\n      dup2\n        /* \"#utility.yul\":32565:32696   */\n      tag_314\n      jump\t// in\n    tag_623:\n        /* \"#utility.yul\":32557:32696   */\n      swap1\n      pop\n        /* \"#utility.yul\":32284:32703   */\n      swap2\n      swap1\n      pop\n      jump\t// out\n        /* \"#utility.yul\":32709:33242   */\n    tag_159:\n        /* \"#utility.yul\":32878:32882   */\n      0x00\n        /* \"#utility.yul\":32916:32918   */\n      0x60\n        /* \"#utility.yul\":32905:32914   */\n      dup3\n        /* \"#utility.yul\":32901:32919   */\n      add\n        /* \"#utility.yul\":32893:32919   */\n      swap1\n      pop\n        /* \"#utility.yul\":32965:32974   */\n      dup2\n        /* \"#utility.yul\":32959:32963   */\n      dup2\n        /* \"#utility.yul\":32955:32975   */\n      sub\n        /* \"#utility.yul\":32951:32952   */\n      0x00\n        /* \"#utility.yul\":32940:32949   */\n      dup4\n        /* \"#utility.yul\":32936:32953   */\n      add\n        /* \"#utility.yul\":32929:32976   */\n      mstore\n        /* \"#utility.yul\":32993:33071   */\n      tag_625\n        /* \"#utility.yul\":33066:33070   */\n      dup2\n        /* \"#utility.yul\":33057:33063   */\n      dup7\n        /* \"#utility.yul\":32993:33071   */\n      tag_287\n      jump\t// in\n    tag_625:\n        /* \"#utility.yul\":32985:33071   */\n      swap1\n      pop\n        /* \"#utility.yul\":33081:33153   */\n      tag_626\n        /* \"#utility.yul\":33149:33151   */\n      0x20\n        /* \"#utility.yul\":33138:33147   */\n      dup4\n        /* \"#utility.yul\":33134:33152   */\n      add\n        /* \"#utility.yul\":33125:33131   */\n      dup6\n        /* \"#utility.yul\":33081:33153   */\n      tag_306\n      jump\t// in\n    tag_626:\n        /* \"#utility.yul\":33163:33235   */\n      tag_627\n        /* \"#utility.yul\":33231:33233   */\n      0x40\n        /* \"#utility.yul\":33220:33229   */\n      dup4\n        /* \"#utility.yul\":33216:33234   */\n      add\n        /* \"#utility.yul\":33207:33213   */\n      dup5\n        /* \"#utility.yul\":33163:33235   */\n      tag_266\n      jump\t// in\n    tag_627:\n        /* \"#utility.yul\":32709:33242   */\n      swap5\n      swap4\n      pop\n      pop\n      pop\n      pop\n      jump\t// out\n        /* \"#utility.yul\":33248:33425   */\n    tag_315:\n        /* \"#utility.yul\":33388:33417   */\n      0x6465706f7369745f6661696c5f6e616d655f6e6f745f65786973740000000000\n        /* \"#utility.yul\":33384:33385   */\n      0x00\n        /* \"#utility.yul\":33376:33382   */\n      dup3\n        /* \"#utility.yul\":33372:33386   */\n      add\n        /* \"#utility.yul\":33365:33418   */\n      mstore\n        /* \"#utility.yul\":33248:33425   */\n      pop\n      jump\t// out\n        /* \"#utility.yul\":33431:33797   */\n    tag_316:\n        /* \"#utility.yul\":33573:33576   */\n      0x00\n        /* \"#utility.yul\":33594:33661   */\n      tag_630\n        /* \"#utility.yul\":33658:33660   */\n      0x1b\n        /* \"#utility.yul\":33653:33656   */\n      dup4\n        /* \"#utility.yul\":33594:33661   */\n      tag_274\n      jump\t// in\n    tag_630:\n        /* \"#utility.yul\":33587:33661   */\n      swap2\n      pop\n        /* \"#utility.yul\":33670:33763   */\n      tag_631\n        /* \"#utility.yul\":33759:33762   */\n      dup3\n        /* \"#utility.yul\":33670:33763   */\n      tag_315\n      jump\t// in\n    tag_631:\n        /* \"#utility.yul\":33788:33790   */\n      0x20\n        /* \"#utility.yul\":33783:33786   */\n      dup3\n        /* \"#utility.yul\":33779:33791   */\n      add\n        /* \"#utility.yul\":33772:33791   */\n      swap1\n      pop\n        /* \"#utility.yul\":33431:33797   */\n      swap2\n      swap1\n      pop\n      jump\t// out\n        /* \"#utility.yul\":33803:34222   */\n    tag_197:\n        /* \"#utility.yul\":33969:33973   */\n      0x00\n        /* \"#utility.yul\":34007:34009   */\n      0x20\n        /* \"#utility.yul\":33996:34005   */\n      dup3\n        /* \"#utility.yul\":33992:34010   */\n      add\n        /* \"#utility.yul\":33984:34010   */\n      swap1\n      pop\n        /* \"#utility.yul\":34056:34065   */\n      dup2\n        /* \"#utility.yul\":34050:34054   */\n      dup2\n        /* \"#utility.yul\":34046:34066   */\n      sub\n        /* \"#utility.yul\":34042:34043   */\n      0x00\n        /* \"#utility.yul\":34031:34040   */\n      dup4\n        /* \"#utility.yul\":34027:34044   */\n      add\n        /* \"#utility.yul\":34020:34067   */\n      mstore\n        /* \"#utility.yul\":34084:34215   */\n      tag_633\n        /* \"#utility.yul\":34210:34214   */\n      dup2\n        /* \"#utility.yul\":34084:34215   */\n      tag_316\n      jump\t// in\n    tag_633:\n        /* \"#utility.yul\":34076:34215   */\n      swap1\n      pop\n        /* \"#utility.yul\":33803:34222   */\n      swap2\n      swap1\n      pop\n      jump\t// out\n        /* \"#utility.yul\":34228:34401   */\n    tag_317:\n        /* \"#utility.yul\":34368:34393   */\n      0x6465706f7369745f6661696c5f76616c75655f7a65726f000000000000000000\n        /* \"#utility.yul\":34364:34365   */\n      0x00\n        /* \"#utility.yul\":34356:34362   */\n      dup3\n        /* \"#utility.yul\":34352:34366   */\n      add\n        /* \"#utility.yul\":34345:34394   */\n      mstore\n        /* \"#utility.yul\":34228:34401   */\n      pop\n      jump\t// out\n        /* \"#utility.yul\":34407:34773   */\n    tag_318:\n        /* \"#utility.yul\":34549:34552   */\n      0x00\n        /* \"#utility.yul\":34570:34637   */\n      tag_636\n        /* \"#utility.yul\":34634:34636   */\n      0x17\n        /* \"#utility.yul\":34629:34632   */\n      dup4\n        /* \"#utility.yul\":34570:34637   */\n      tag_274\n      jump\t// in\n    tag_636:\n        /* \"#utility.yul\":34563:34637   */\n      swap2\n      pop\n        /* \"#utility.yul\":34646:34739   */\n      tag_637\n        /* \"#utility.yul\":34735:34738   */\n      dup3\n        /* \"#utility.yul\":34646:34739   */\n      tag_317\n      jump\t// in\n    tag_637:\n        /* \"#utility.yul\":34764:34766   */\n      0x20\n        /* \"#utility.yul\":34759:34762   */\n      dup3\n        /* \"#utility.yul\":34755:34767   */\n      add\n        /* \"#utility.yul\":34748:34767   */\n      swap1\n      pop\n        /* \"#utility.yul\":34407:34773   */\n      swap2\n      swap1\n      pop\n      jump\t// out\n        /* \"#utility.yul\":34779:35198   */\n    tag_200:\n        /* \"#utility.yul\":34945:34949   */\n      0x00\n        /* \"#utility.yul\":34983:34985   */\n      0x20\n        /* \"#utility.yul\":34972:34981   */\n      dup3\n        /* \"#utility.yul\":34968:34986   */\n      add\n        /* \"#utility.yul\":34960:34986   */\n      swap1\n      pop\n        /* \"#utility.yul\":35032:35041   */\n      dup2\n        /* \"#utility.yul\":35026:35030   */\n      dup2\n        /* \"#utility.yul\":35022:35042   */\n      sub\n        /* \"#utility.yul\":35018:35019   */\n      0x00\n        /* \"#utility.yul\":35007:35016   */\n      dup4\n        /* \"#utility.yul\":35003:35020   */\n      add\n        /* \"#utility.yul\":34996:35043   */\n      mstore\n        /* \"#utility.yul\":35060:35191   */\n      tag_639\n        /* \"#utility.yul\":35186:35190   */\n      dup2\n        /* \"#utility.yul\":35060:35191   */\n      tag_318\n      jump\t// in\n    tag_639:\n        /* \"#utility.yul\":35052:35191   */\n      swap1\n      pop\n        /* \"#utility.yul\":34779:35198   */\n      swap2\n      swap1\n      pop\n      jump\t// out\n        /* \"#utility.yul\":35204:35737   */\n    tag_204:\n        /* \"#utility.yul\":35373:35377   */\n      0x00\n        /* \"#utility.yul\":35411:35413   */\n      0x60\n        /* \"#utility.yul\":35400:35409   */\n      dup3\n        /* \"#utility.yul\":35396:35414   */\n      add\n        /* \"#utility.yul\":35388:35414   */\n      swap1\n      pop\n        /* \"#utility.yul\":35424:35495   */\n      tag_641\n        /* \"#utility.yul\":35492:35493   */\n      0x00\n        /* \"#utility.yul\":35481:35490   */\n      dup4\n        /* \"#utility.yul\":35477:35494   */\n      add\n        /* \"#utility.yul\":35468:35474   */\n      dup7\n        /* \"#utility.yul\":35424:35495   */\n      tag_306\n      jump\t// in\n    tag_641:\n        /* \"#utility.yul\":35542:35551   */\n      dup2\n        /* \"#utility.yul\":35536:35540   */\n      dup2\n        /* \"#utility.yul\":35532:35552   */\n      sub\n        /* \"#utility.yul\":35527:35529   */\n      0x20\n        /* \"#utility.yul\":35516:35525   */\n      dup4\n        /* \"#utility.yul\":35512:35530   */\n      add\n        /* \"#utility.yul\":35505:35553   */\n      mstore\n        /* \"#utility.yul\":35570:35648   */\n      tag_642\n        /* \"#utility.yul\":35643:35647   */\n      dup2\n        /* \"#utility.yul\":35634:35640   */\n      dup6\n        /* \"#utility.yul\":35570:35648   */\n      tag_287\n      jump\t// in\n    tag_642:\n        /* \"#utility.yul\":35562:35648   */\n      swap1\n      pop\n        /* \"#utility.yul\":35658:35730   */\n      tag_643\n        /* \"#utility.yul\":35726:35728   */\n      0x40\n        /* \"#utility.yul\":35715:35724   */\n      dup4\n        /* \"#utility.yul\":35711:35729   */\n      add\n        /* \"#utility.yul\":35702:35708   */\n      dup5\n        /* \"#utility.yul\":35658:35730   */\n      tag_266\n      jump\t// in\n    tag_643:\n        /* \"#utility.yul\":35204:35737   */\n      swap5\n      swap4\n      pop\n      pop\n      pop\n      pop\n      jump\t// out\n\n    auxdata: 0xa2646970667358221220dd3f6ffe6273c8e192efb633504bb02142990c653deec89e918b3e46a3ac26df64736f6c634300080f0033\n}\n",
				"bytecode": {
					"linkReferences": {},
					"object": "608060405234801561001057600080fd5b50336000806101000a81548173ffffffffffffffffffffffffffffffffffffffff021916908373ffffffffffffffffffffffffffffffffffffffff1602179055506000600181905550612966806100686000396000f3fe6080604052600436106100865760003560e01c8063a26e118611610059578063a26e11861461012f578063a43e567a1461014b578063ca1ae01c14610176578063df4734ed146101b3578063f8a0e8c3146101f057610086565b806316dfc5b21461008b5780632ad26a04146100b4578063358eecb6146100dd5780635e34581014610106575b600080fd5b34801561009757600080fd5b506100b260048036038101906100ad91906118e3565b610219565b005b3480156100c057600080fd5b506100db60048036038101906100d6919061196e565b6107ff565b005b3480156100e957600080fd5b5061010460048036038101906100ff91906119b7565b610a10565b005b34801561011257600080fd5b5061012d60048036038101906101289190611a13565b610c95565b005b6101496004803603810190610144919061196e565b611127565b005b34801561015757600080fd5b50610160611252565b60405161016d9190611be8565b60405180910390f35b34801561018257600080fd5b5061019d6004803603810190610198919061196e565b611368565b6040516101aa9190611c19565b60405180910390f35b3480156101bf57600080fd5b506101da60048036038101906101d5919061196e565b611393565b6040516101e79190611cd4565b60405180910390f35b3480156101fc57600080fd5b5061021760048036038101906102129190611cf6565b6114bd565b005b6001151560048460405161022d9190611d5f565b908152602001604051809103902060009054906101000a900460ff1615151461028b576040517f08c379a000000000000000000000000000000000000000000000000000000000815260040161028290611df9565b60405180910390fd5b3373ffffffffffffffffffffffffffffffffffffffff166003846040516102b29190611d5f565b908152602001604051809103902060000160009054906101000a900473ffffffffffffffffffffffffffffffffffffffff1673ffffffffffffffffffffffffffffffffffffffff161461033a576040517f08c379a000000000000000000000000000000000000000000000000000000000815260040161033190611e65565b60405180910390fd5b606481101561037e576040517f08c379a000000000000000000000000000000000000000000000000000000000815260040161037590611ef7565b60405180910390fd5b81518161038b9190611f46565b60038460405161039b9190611d5f565b90815260200160405180910390206002015410156103ee576040517f08c379a00000000000000000000000000000000000000000000000000000000081526004016103e590612012565b60405180910390fd5b60005b82518110156107f95760011515600484838151811061041357610412612032565b5b60200260200101516040516104289190611d5f565b908152602001604051809103902060009054906101000a900460ff16151514610486576040517f08c379a000000000000000000000000000000000000000000000000000000000815260040161047d906120ad565b60405180910390fd5b600383828151811061049b5761049a612032565b5b60200260200101516040516104b09190611d5f565b908152602001604051809103902060000160009054906101000a900473ffffffffffffffffffffffffffffffffffffffff1673ffffffffffffffffffffffffffffffffffffffff166003856040516105089190611d5f565b908152602001604051809103902060000160009054906101000a900473ffffffffffffffffffffffffffffffffffffffff1673ffffffffffffffffffffffffffffffffffffffff16146107065760011515600484838151811061056e5761056d612032565b5b60200260200101516040516105839190611d5f565b908152602001604051809103902060009054906101000a900460ff161515146105e1576040517f08c379a00000000000000000000000000000000000000000000000000000000081526004016105d8906120ad565b60405180910390fd5b60006064836105f091906120fc565b90508060016000828254610604919061212d565b925050819055508260038660405161061c9190611d5f565b9081526020016040518091039020600201600082825461063c9190612183565b92505081905550808361064f9190612183565b600385848151811061066457610663612032565b5b60200260200101516040516106799190611d5f565b90815260200160405180910390206002016000828254610699919061212d565b925050819055507f370044a47246afacf081fd58c8468a6482ebc8673d418e785b8d0492240f95de858584815181106106d5576106d4612032565b5b602002602001015183866106e99190612183565b6040516106f8939291906121f0565b60405180910390a1506107e6565b816003856040516107179190611d5f565b908152602001604051809103902060020160008282546107379190612183565b9250508190555081600384838151811061075457610753612032565b5b60200260200101516040516107699190611d5f565b90815260200160405180910390206002016000828254610789919061212d565b925050819055507f370044a47246afacf081fd58c8468a6482ebc8673d418e785b8d0492240f95de848483815181106107c5576107c4612032565b5b6020026020010151846040516107dd939291906121f0565b60405180910390a15b80806107f190612235565b9150506103f1565b50505050565b600015156004826040516108139190611d5f565b908152602001604051809103902060009054906101000a900460ff16151514610871576040517f08c379a0000000000000000000000000000000000000000000000000000000008152600401610868906122c9565b60405180910390fd5b60405180606001604052803373ffffffffffffffffffffffffffffffffffffffff16815260200182815260200160008152506003826040516108b39190611d5f565b908152602001604051809103902060008201518160000160006101000a81548173ffffffffffffffffffffffffffffffffffffffff021916908373ffffffffffffffffffffffffffffffffffffffff160217905550602082015181600101908161091d91906124f5565b5060408201518160020155905050600260003373ffffffffffffffffffffffffffffffffffffffff1673ffffffffffffffffffffffffffffffffffffffff1681526020019081526020016000208190806001815401808255809150506001900390600052602060002001600090919091909150908161099c91906124f5565b5060016004826040516109af9190611d5f565b908152602001604051809103902060006101000a81548160ff0219169083151502179055507fb4833c10b628b390dd18880f97a54f11eae38c84eb68171f9a11b0fd7855fadf3382604051610a059291906125d6565b60405180910390a150565b60011515600483604051610a249190611d5f565b908152602001604051809103902060009054906101000a900460ff16151514610a82576040517f08c379a0000000000000000000000000000000000000000000000000000000008152600401610a7990612652565b60405180910390fd5b3373ffffffffffffffffffffffffffffffffffffffff16600383604051610aa99190611d5f565b908152602001604051809103902060000160009054906101000a900473ffffffffffffffffffffffffffffffffffffffff1673ffffffffffffffffffffffffffffffffffffffff1614610b31576040517f08c379a0000000000000000000000000000000000000000000000000000000008152600401610b28906126be565b60405180910390fd5b60008111610b74576040517f08c379a0000000000000000000000000000000000000000000000000000000008152600401610b6b9061272a565b60405180910390fd5b80600383604051610b859190611d5f565b9081526020016040518091039020600201541015610bd8576040517f08c379a0000000000000000000000000000000000000000000000000000000008152600401610bcf906127bc565b60405180910390fd5b80600383604051610be99190611d5f565b90815260200160405180910390206002016000828254610c099190612183565b925050819055503373ffffffffffffffffffffffffffffffffffffffff166108fc829081150290604051600060405180830381858888f19350505050158015610c56573d6000803e3d6000fd5b507ef571bb39287f8941696401f5b5a1666ee251efbf23412140fbddce841655d9823383604051610c89939291906127dc565b60405180910390a15050565b60011515600484604051610ca99190611d5f565b908152602001604051809103902060009054906101000a900460ff16151514610d07576040517f08c379a0000000000000000000000000000000000000000000000000000000008152600401610cfe90611df9565b60405180910390fd5b60011515600483604051610d1b9190611d5f565b908152602001604051809103902060009054906101000a900460ff16151514610d79576040517f08c379a0000000000000000000000000000000000000000000000000000000008152600401610d70906120ad565b60405180910390fd5b3373ffffffffffffffffffffffffffffffffffffffff16600384604051610da09190611d5f565b908152602001604051809103902060000160009054906101000a900473ffffffffffffffffffffffffffffffffffffffff1673ffffffffffffffffffffffffffffffffffffffff1614610e28576040517f08c379a0000000000000000000000000000000000000000000000000000000008152600401610e1f90611e65565b60405180910390fd5b6064811015610e6c576040517f08c379a0000000000000000000000000000000000000000000000000000000008152600401610e6390611ef7565b60405180910390fd5b80600384604051610e7d9190611d5f565b9081526020016040518091039020600201541015610ed0576040517f08c379a0000000000000000000000000000000000000000000000000000000008152600401610ec790612012565b60405180910390fd5b600382604051610ee09190611d5f565b908152602001604051809103902060000160009054906101000a900473ffffffffffffffffffffffffffffffffffffffff1673ffffffffffffffffffffffffffffffffffffffff16600384604051610f389190611d5f565b908152602001604051809103902060000160009054906101000a900473ffffffffffffffffffffffffffffffffffffffff1673ffffffffffffffffffffffffffffffffffffffff1614611076576000606482610f9491906120fc565b90508060016000828254610fa8919061212d565b9250508190555081600385604051610fc09190611d5f565b90815260200160405180910390206002016000828254610fe09190612183565b925050819055508082610ff39190612183565b6003846040516110039190611d5f565b90815260200160405180910390206002016000828254611023919061212d565b925050819055507f370044a47246afacf081fd58c8468a6482ebc8673d418e785b8d0492240f95de848483856110599190612183565b604051611068939291906121f0565b60405180910390a150611122565b806003846040516110879190611d5f565b908152602001604051809103902060020160008282546110a79190612183565b92505081905550806003836040516110bf9190611d5f565b908152602001604051809103902060020160008282546110df919061212d565b925050819055507f370044a47246afacf081fd58c8468a6482ebc8673d418e785b8d0492240f95de838383604051611119939291906121f0565b60405180910390a15b505050565b6001151560048260405161113b9190611d5f565b908152602001604051809103902060009054906101000a900460ff16151514611199576040517f08c379a000000000000000000000000000000000000000000000000000000000815260040161119090612866565b60405180910390fd5b600034116111dc576040517f08c379a00000000000000000000000000000000000000000000000000000000081526004016111d3906128d2565b60405180910390fd5b346003826040516111ed9190611d5f565b9081526020016040518091039020600201600082825461120d919061212d565b925050819055507f03e0b25ba1ab101c1d9112766101bb987f00f29a37a44b4a0813ed489a4f3ffa338234604051611247939291906128f2565b60405180910390a150565b6060600260003373ffffffffffffffffffffffffffffffffffffffff1673ffffffffffffffffffffffffffffffffffffffff168152602001908152602001600020805480602002602001604051908101604052809291908181526020016000905b8282101561135f5783829060005260206000200180546112d290612318565b80601f01602080910402602001604051908101604052809291908181526020018280546112fe90612318565b801561134b5780601f106113205761010080835404028352916020019161134b565b820191906000526020600020905b81548152906001019060200180831161132e57829003601f168201915b5050505050815260200190600101906112b3565b50505050905090565b600060038260405161137a9190611d5f565b9081526020016040518091039020600201549050919050565b61139b611636565b6003826040516113ab9190611d5f565b90815260200160405180910390206040518060600160405290816000820160009054906101000a900473ffffffffffffffffffffffffffffffffffffffff1673ffffffffffffffffffffffffffffffffffffffff1673ffffffffffffffffffffffffffffffffffffffff16815260200160018201805461142a90612318565b80601f016020809104026020016040519081016040528092919081815260200182805461145690612318565b80156114a35780601f10611478576101008083540402835291602001916114a3565b820191906000526020600020905b81548152906001019060200180831161148657829003601f168201915b505050505081526020016002820154815250509050919050565b3373ffffffffffffffffffffffffffffffffffffffff1660008054906101000a900473ffffffffffffffffffffffffffffffffffffffff1673ffffffffffffffffffffffffffffffffffffffff161461154b576040517f08c379a0000000000000000000000000000000000000000000000000000000008152600401611542906126be565b60405180910390fd5b6000811161158e576040517f08c379a00000000000000000000000000000000000000000000000000000000081526004016115859061272a565b60405180910390fd5b8060015410156115d3576040517f08c379a00000000000000000000000000000000000000000000000000000000081526004016115ca906127bc565b60405180910390fd5b80600160008282546115e59190612183565b925050819055503373ffffffffffffffffffffffffffffffffffffffff166108fc829081150290604051600060405180830381858888f19350505050158015611632573d6000803e3d6000fd5b5050565b6040518060600160405280600073ffffffffffffffffffffffffffffffffffffffff16815260200160608152602001600081525090565b6000604051905090565b600080fd5b600080fd5b600080fd5b600080fd5b6000601f19601f8301169050919050565b7f4e487b7100000000000000000000000000000000000000000000000000000000600052604160045260246000fd5b6116d48261168b565b810181811067ffffffffffffffff821117156116f3576116f261169c565b5b80604052505050565b600061170661166d565b905061171282826116cb565b919050565b600067ffffffffffffffff8211156117325761173161169c565b5b61173b8261168b565b9050602081019050919050565b82818337600083830152505050565b600061176a61176584611717565b6116fc565b90508281526020810184848401111561178657611785611686565b5b611791848285611748565b509392505050565b600082601f8301126117ae576117ad611681565b5b81356117be848260208601611757565b91505092915050565b600067ffffffffffffffff8211156117e2576117e161169c565b5b602082029050602081019050919050565b600080fd5b600061180b611806846117c7565b6116fc565b9050808382526020820190506020840283018581111561182e5761182d6117f3565b5b835b8181101561187557803567ffffffffffffffff81111561185357611852611681565b5b8086016118608982611799565b85526020850194505050602081019050611830565b5050509392505050565b600082601f83011261189457611893611681565b5b81356118a48482602086016117f8565b91505092915050565b6000819050919050565b6118c0816118ad565b81146118cb57600080fd5b50565b6000813590506118dd816118b7565b92915050565b6000806000606084860312156118fc576118fb611677565b5b600084013567ffffffffffffffff81111561191a5761191961167c565b5b61192686828701611799565b935050602084013567ffffffffffffffff8111156119475761194661167c565b5b6119538682870161187f565b9250506040611964868287016118ce565b9150509250925092565b60006020828403121561198457611983611677565b5b600082013567ffffffffffffffff8111156119a2576119a161167c565b5b6119ae84828501611799565b91505092915050565b600080604083850312156119ce576119cd611677565b5b600083013567ffffffffffffffff8111156119ec576119eb61167c565b5b6119f885828601611799565b9250506020611a09858286016118ce565b9150509250929050565b600080600060608486031215611a2c57611a2b611677565b5b600084013567ffffffffffffffff811115611a4a57611a4961167c565b5b611a5686828701611799565b935050602084013567ffffffffffffffff811115611a7757611a7661167c565b5b611a8386828701611799565b9250506040611a94868287016118ce565b9150509250925092565b600081519050919050565b600082825260208201905092915050565b6000819050602082019050919050565b600081519050919050565b600082825260208201905092915050565b60005b83811015611b04578082015181840152602081019050611ae9565b83811115611b13576000848401525b50505050565b6000611b2482611aca565b611b2e8185611ad5565b9350611b3e818560208601611ae6565b611b478161168b565b840191505092915050565b6000611b5e8383611b19565b905092915050565b6000602082019050919050565b6000611b7e82611a9e565b611b888185611aa9565b935083602082028501611b9a85611aba565b8060005b85811015611bd65784840389528151611bb78582611b52565b9450611bc283611b66565b925060208a01995050600181019050611b9e565b50829750879550505050505092915050565b60006020820190508181036000830152611c028184611b73565b905092915050565b611c13816118ad565b82525050565b6000602082019050611c2e6000830184611c0a565b92915050565b600073ffffffffffffffffffffffffffffffffffffffff82169050919050565b6000611c5f82611c34565b9050919050565b611c6f81611c54565b82525050565b611c7e816118ad565b82525050565b6000606083016000830151611c9c6000860182611c66565b5060208301518482036020860152611cb48282611b19565b9150506040830151611cc96040860182611c75565b508091505092915050565b60006020820190508181036000830152611cee8184611c84565b905092915050565b600060208284031215611d0c57611d0b611677565b5b6000611d1a848285016118ce565b91505092915050565b600081905092915050565b6000611d3982611aca565b611d438185611d23565b9350611d53818560208601611ae6565b80840191505092915050565b6000611d6b8284611d2e565b915081905092915050565b600082825260208201905092915050565b7f7472616e736665725f6661696c5f66726f6d5f6e616d655f6e6f745f6578697360008201527f7400000000000000000000000000000000000000000000000000000000000000602082015250565b6000611de3602183611d76565b9150611dee82611d87565b604082019050919050565b60006020820190508181036000830152611e1281611dd6565b9050919050565b7f7472616e736665725f6661696c5f66726f6d5f6e6f745f6f776e657200000000600082015250565b6000611e4f601c83611d76565b9150611e5a82611e19565b602082019050919050565b60006020820190508181036000830152611e7e81611e42565b9050919050565b7f7472616e736665725f6661696c5f76616c75655f6c6573735f7468616e5f313060008201527f3000000000000000000000000000000000000000000000000000000000000000602082015250565b6000611ee1602183611d76565b9150611eec82611e85565b604082019050919050565b60006020820190508181036000830152611f1081611ed4565b9050919050565b7f4e487b7100000000000000000000000000000000000000000000000000000000600052601160045260246000fd5b6000611f51826118ad565b9150611f5c836118ad565b9250817fffffffffffffffffffffffffffffffffffffffffffffffffffffffffffffffff0483118215151615611f9557611f94611f17565b5b828202905092915050565b7f7472616e736665725f6661696c5f66726f6d5f62616c616e63655f6e6f745f6560008201527f6e6f756768000000000000000000000000000000000000000000000000000000602082015250565b6000611ffc602583611d76565b915061200782611fa0565b604082019050919050565b6000602082019050818103600083015261202b81611fef565b9050919050565b7f4e487b7100000000000000000000000000000000000000000000000000000000600052603260045260246000fd5b7f7472616e736665725f6661696c5f746f5f6e616d655f6e6f745f657869737400600082015250565b6000612097601f83611d76565b91506120a282612061565b602082019050919050565b600060208201905081810360008301526120c68161208a565b9050919050565b7f4e487b7100000000000000000000000000000000000000000000000000000000600052601260045260246000fd5b6000612107826118ad565b9150612112836118ad565b925082612122576121216120cd565b5b828204905092915050565b6000612138826118ad565b9150612143836118ad565b9250827fffffffffffffffffffffffffffffffffffffffffffffffffffffffffffffffff0382111561217857612177611f17565b5b828201905092915050565b600061218e826118ad565b9150612199836118ad565b9250828210156121ac576121ab611f17565b5b828203905092915050565b60006121c282611aca565b6121cc8185611d76565b93506121dc818560208601611ae6565b6121e58161168b565b840191505092915050565b6000606082019050818103600083015261220a81866121b7565b9050818103602083015261221e81856121b7565b905061222d6040830184611c0a565b949350505050565b6000612240826118ad565b91507fffffffffffffffffffffffffffffffffffffffffffffffffffffffffffffffff820361227257612271611f17565b5b600182019050919050565b7f6164645f6163636f756e745f6661696c5f6e616d655f65786973740000000000600082015250565b60006122b3601b83611d76565b91506122be8261227d565b602082019050919050565b600060208201905081810360008301526122e2816122a6565b9050919050565b7f4e487b7100000000000000000000000000000000000000000000000000000000600052602260045260246000fd5b6000600282049050600182168061233057607f821691505b602082108103612343576123426122e9565b5b50919050565b60008190508160005260206000209050919050565b60006020601f8301049050919050565b600082821b905092915050565b6000600883026123ab7fffffffffffffffffffffffffffffffffffffffffffffffffffffffffffffffff8261236e565b6123b5868361236e565b95508019841693508086168417925050509392505050565b6000819050919050565b60006123f26123ed6123e8846118ad565b6123cd565b6118ad565b9050919050565b6000819050919050565b61240c836123d7565b612420612418826123f9565b84845461237b565b825550505050565b600090565b612435612428565b612440818484612403565b505050565b5b818110156124645761245960008261242d565b600181019050612446565b5050565b601f8211156124a95761247a81612349565b6124838461235e565b81016020851015612492578190505b6124a661249e8561235e565b830182612445565b50505b505050565b600082821c905092915050565b60006124cc600019846008026124ae565b1980831691505092915050565b60006124e583836124bb565b9150826002028217905092915050565b6124fe82611aca565b67ffffffffffffffff8111156125175761251661169c565b5b6125218254612318565b61252c828285612468565b600060209050601f83116001811461255f576000841561254d578287015190505b61255785826124d9565b8655506125bf565b601f19841661256d86612349565b60005b8281101561259557848901518255600182019150602085019450602081019050612570565b868310156125b257848901516125ae601f8916826124bb565b8355505b6001600288020188555050505b505050505050565b6125d081611c54565b82525050565b60006040820190506125eb60008301856125c7565b81810360208301526125fd81846121b7565b90509392505050565b7f77697468647261776e5f6661696c5f6e616d655f6e6f745f6578697374000000600082015250565b600061263c601d83611d76565b915061264782612606565b602082019050919050565b6000602082019050818103600083015261266b8161262f565b9050919050565b7f77697468647261776e5f6661696c5f6e6f745f6f776e65720000000000000000600082015250565b60006126a8601883611d76565b91506126b382612672565b602082019050919050565b600060208201905081810360008301526126d78161269b565b9050919050565b7f77697468647261776e5f6661696c5f76616c75655f7a65726f00000000000000600082015250565b6000612714601983611d76565b915061271f826126de565b602082019050919050565b6000602082019050818103600083015261274381612707565b9050919050565b7f77697468647261776e5f6661696c5f62616c616e63655f6e6f745f656e6f756760008201527f6800000000000000000000000000000000000000000000000000000000000000602082015250565b60006127a6602183611d76565b91506127b18261274a565b604082019050919050565b600060208201905081810360008301526127d581612799565b9050919050565b600060608201905081810360008301526127f681866121b7565b905061280560208301856125c7565b6128126040830184611c0a565b949350505050565b7f6465706f7369745f6661696c5f6e616d655f6e6f745f65786973740000000000600082015250565b6000612850601b83611d76565b915061285b8261281a565b602082019050919050565b6000602082019050818103600083015261287f81612843565b9050919050565b7f6465706f7369745f6661696c5f76616c75655f7a65726f000000000000000000600082015250565b60006128bc601783611d76565b91506128c782612886565b602082019050919050565b600060208201905081810360008301526128eb816128af565b9050919050565b600060608201905061290760008301866125c7565b818103602083015261291981856121b7565b90506129286040830184611c0a565b94935050505056fea2646970667358221220dd3f6ffe6273c8e192efb633504bb02142990c653deec89e918b3e46a3ac26df64736f6c634300080f0033",
					"opcodes": "PUSH1 0x80 PUSH1 0x40 MSTORE CALLVALUE DUP1 ISZERO PUSH2 0x10 JUMPI PUSH1 0x0 DUP1 REVERT JUMPDEST POP CALLER PUSH1 0x0 DUP1 PUSH2 0x100 EXP DUP2 SLOAD DUP2 PUSH20 0xFFFFFFFFFFFFFFFFFFFFFFFFFFFFFFFFFFFFFFFF MUL NOT AND SWAP1 DUP4 PUSH20 0xFFFFFFFFFFFFFFFFFFFFFFFFFFFFFFFFFFFFFFFF AND MUL OR SWAP1 SSTORE POP PUSH1 0x0 PUSH1 0x1 DUP2 SWAP1 SSTORE POP PUSH2 0x2966 DUP1 PUSH2 0x68 PUSH1 0x0 CODECOPY PUSH1 0x0 RETURN INVALID PUSH1 0x80 PUSH1 0x40 MSTORE PUSH1 0x4 CALLDATASIZE LT PUSH2 0x86 JUMPI PUSH1 0x0 CALLDATALOAD PUSH1 0xE0 SHR DUP1 PUSH4 0xA26E1186 GT PUSH2 0x59 JUMPI DUP1 PUSH4 0xA26E1186 EQ PUSH2 0x12F JUMPI DUP1 PUSH4 0xA43E567A EQ PUSH2 0x14B JUMPI DUP1 PUSH4 0xCA1AE01C EQ PUSH2 0x176 JUMPI DUP1 PUSH4 0xDF4734ED EQ PUSH2 0x1B3 JUMPI DUP1 PUSH4 0xF8A0E8C3 EQ PUSH2 0x1F0 JUMPI PUSH2 0x86 JUMP JUMPDEST DUP1 PUSH4 0x16DFC5B2 EQ PUSH2 0x8B JUMPI DUP1 PUSH4 0x2AD26A04 EQ PUSH2 0xB4 JUMPI DUP1 PUSH4 0x358EECB6 EQ PUSH2 0xDD JUMPI DUP1 PUSH4 0x5E345810 EQ PUSH2 0x106 JUMPI JUMPDEST PUSH1 0x0 DUP1 REVERT JUMPDEST CALLVALUE DUP1 ISZERO PUSH2 0x97 JUMPI PUSH1 0x0 DUP1 REVERT JUMPDEST POP PUSH2 0xB2 PUSH1 0x4 DUP1 CALLDATASIZE SUB DUP2 ADD SWAP1 PUSH2 0xAD SWAP2 SWAP1 PUSH2 0x18E3 JUMP JUMPDEST PUSH2 0x219 JUMP JUMPDEST STOP JUMPDEST CALLVALUE DUP1 ISZERO PUSH2 0xC0 JUMPI PUSH1 0x0 DUP1 REVERT JUMPDEST POP PUSH2 0xDB PUSH1 0x4 DUP1 CALLDATASIZE SUB DUP2 ADD SWAP1 PUSH2 0xD6 SWAP2 SWAP1 PUSH2 0x196E JUMP JUMPDEST PUSH2 0x7FF JUMP JUMPDEST STOP JUMPDEST CALLVALUE DUP1 ISZERO PUSH2 0xE9 JUMPI PUSH1 0x0 DUP1 REVERT JUMPDEST POP PUSH2 0x104 PUSH1 0x4 DUP1 CALLDATASIZE SUB DUP2 ADD SWAP1 PUSH2 0xFF SWAP2 SWAP1 PUSH2 0x19B7 JUMP JUMPDEST PUSH2 0xA10 JUMP JUMPDEST STOP JUMPDEST CALLVALUE DUP1 ISZERO PUSH2 0x112 JUMPI PUSH1 0x0 DUP1 REVERT JUMPDEST POP PUSH2 0x12D PUSH1 0x4 DUP1 CALLDATASIZE SUB DUP2 ADD SWAP1 PUSH2 0x128 SWAP2 SWAP1 PUSH2 0x1A13 JUMP JUMPDEST PUSH2 0xC95 JUMP JUMPDEST STOP JUMPDEST PUSH2 0x149 PUSH1 0x4 DUP1 CALLDATASIZE SUB DUP2 ADD SWAP1 PUSH2 0x144 SWAP2 SWAP1 PUSH2 0x196E JUMP JUMPDEST PUSH2 0x1127 JUMP JUMPDEST STOP JUMPDEST CALLVALUE DUP1 ISZERO PUSH2 0x157 JUMPI PUSH1 0x0 DUP1 REVERT JUMPDEST POP PUSH2 0x160 PUSH2 0x1252 JUMP JUMPDEST PUSH1 0x40 MLOAD PUSH2 0x16D SWAP2 SWAP1 PUSH2 0x1BE8 JUMP JUMPDEST PUSH1 0x40 MLOAD DUP1 SWAP2 SUB SWAP1 RETURN JUMPDEST CALLVALUE DUP1 ISZERO PUSH2 0x182 JUMPI PUSH1 0x0 DUP1 REVERT JUMPDEST POP PUSH2 0x19D PUSH1 0x4 DUP1 CALLDATASIZE SUB DUP2 ADD SWAP1 PUSH2 0x198 SWAP2 SWAP1 PUSH2 0x196E JUMP JUMPDEST PUSH2 0x1368 JUMP JUMPDEST PUSH1 0x40 MLOAD PUSH2 0x1AA SWAP2 SWAP1 PUSH2 0x1C19 JUMP JUMPDEST PUSH1 0x40 MLOAD DUP1 SWAP2 SUB SWAP1 RETURN JUMPDEST CALLVALUE DUP1 ISZERO PUSH2 0x1BF JUMPI PUSH1 0x0 DUP1 REVERT JUMPDEST POP PUSH2 0x1DA PUSH1 0x4 DUP1 CALLDATASIZE SUB DUP2 ADD SWAP1 PUSH2 0x1D5 SWAP2 SWAP1 PUSH2 0x196E JUMP JUMPDEST PUSH2 0x1393 JUMP JUMPDEST PUSH1 0x40 MLOAD PUSH2 0x1E7 SWAP2 SWAP1 PUSH2 0x1CD4 JUMP JUMPDEST PUSH1 0x40 MLOAD DUP1 SWAP2 SUB SWAP1 RETURN JUMPDEST CALLVALUE DUP1 ISZERO PUSH2 0x1FC JUMPI PUSH1 0x0 DUP1 REVERT JUMPDEST POP PUSH2 0x217 PUSH1 0x4 DUP1 CALLDATASIZE SUB DUP2 ADD SWAP1 PUSH2 0x212 SWAP2 SWAP1 PUSH2 0x1CF6 JUMP JUMPDEST PUSH2 0x14BD JUMP JUMPDEST STOP JUMPDEST PUSH1 0x1 ISZERO ISZERO PUSH1 0x4 DUP5 PUSH1 0x40 MLOAD PUSH2 0x22D SWAP2 SWAP1 PUSH2 0x1D5F JUMP JUMPDEST SWAP1 DUP2 MSTORE PUSH1 0x20 ADD PUSH1 0x40 MLOAD DUP1 SWAP2 SUB SWAP1 KECCAK256 PUSH1 0x0 SWAP1 SLOAD SWAP1 PUSH2 0x100 EXP SWAP1 DIV PUSH1 0xFF AND ISZERO ISZERO EQ PUSH2 0x28B JUMPI PUSH1 0x40 MLOAD PUSH32 0x8C379A000000000000000000000000000000000000000000000000000000000 DUP2 MSTORE PUSH1 0x4 ADD PUSH2 0x282 SWAP1 PUSH2 0x1DF9 JUMP JUMPDEST PUSH1 0x40 MLOAD DUP1 SWAP2 SUB SWAP1 REVERT JUMPDEST CALLER PUSH20 0xFFFFFFFFFFFFFFFFFFFFFFFFFFFFFFFFFFFFFFFF AND PUSH1 0x3 DUP5 PUSH1 0x40 MLOAD PUSH2 0x2B2 SWAP2 SWAP1 PUSH2 0x1D5F JUMP JUMPDEST SWAP1 DUP2 MSTORE PUSH1 0x20 ADD PUSH1 0x40 MLOAD DUP1 SWAP2 SUB SWAP1 KECCAK256 PUSH1 0x0 ADD PUSH1 0x0 SWAP1 SLOAD SWAP1 PUSH2 0x100 EXP SWAP1 DIV PUSH20 0xFFFFFFFFFFFFFFFFFFFFFFFFFFFFFFFFFFFFFFFF AND PUSH20 0xFFFFFFFFFFFFFFFFFFFFFFFFFFFFFFFFFFFFFFFF AND EQ PUSH2 0x33A JUMPI PUSH1 0x40 MLOAD PUSH32 0x8C379A000000000000000000000000000000000000000000000000000000000 DUP2 MSTORE PUSH1 0x4 ADD PUSH2 0x331 SWAP1 PUSH2 0x1E65 JUMP JUMPDEST PUSH1 0x40 MLOAD DUP1 SWAP2 SUB SWAP1 REVERT JUMPDEST PUSH1 0x64 DUP2 LT ISZERO PUSH2 0x37E JUMPI PUSH1 0x40 MLOAD PUSH32 0x8C379A000000000000000000000000000000000000000000000000000000000 DUP2 MSTORE PUSH1 0x4 ADD PUSH2 0x375 SWAP1 PUSH2 0x1EF7 JUMP JUMPDEST PUSH1 0x40 MLOAD DUP1 SWAP2 SUB SWAP1 REVERT JUMPDEST DUP2 MLOAD DUP2 PUSH2 0x38B SWAP2 SWAP1 PUSH2 0x1F46 JUMP JUMPDEST PUSH1 0x3 DUP5 PUSH1 0x40 MLOAD PUSH2 0x39B SWAP2 SWAP1 PUSH2 0x1D5F JUMP JUMPDEST SWAP1 DUP2 MSTORE PUSH1 0x20 ADD PUSH1 0x40 MLOAD DUP1 SWAP2 SUB SWAP1 KECCAK256 PUSH1 0x2 ADD SLOAD LT ISZERO PUSH2 0x3EE JUMPI PUSH1 0x40 MLOAD PUSH32 0x8C379A000000000000000000000000000000000000000000000000000000000 DUP2 MSTORE PUSH1 0x4 ADD PUSH2 0x3E5 SWAP1 PUSH2 0x2012 JUMP JUMPDEST PUSH1 0x40 MLOAD DUP1 SWAP2 SUB SWAP1 REVERT JUMPDEST PUSH1 0x0 JUMPDEST DUP3 MLOAD DUP2 LT ISZERO PUSH2 0x7F9 JUMPI PUSH1 0x1 ISZERO ISZERO PUSH1 0x4 DUP5 DUP4 DUP2 MLOAD DUP2 LT PUSH2 0x413 JUMPI PUSH2 0x412 PUSH2 0x2032 JUMP JUMPDEST JUMPDEST PUSH1 0x20 MUL PUSH1 0x20 ADD ADD MLOAD PUSH1 0x40 MLOAD PUSH2 0x428 SWAP2 SWAP1 PUSH2 0x1D5F JUMP JUMPDEST SWAP1 DUP2 MSTORE PUSH1 0x20 ADD PUSH1 0x40 MLOAD DUP1 SWAP2 SUB SWAP1 KECCAK256 PUSH1 0x0 SWAP1 SLOAD SWAP1 PUSH2 0x100 EXP SWAP1 DIV PUSH1 0xFF AND ISZERO ISZERO EQ PUSH2 0x486 JUMPI PUSH1 0x40 MLOAD PUSH32 0x8C379A000000000000000000000000000000000000000000000000000000000 DUP2 MSTORE PUSH1 0x4 ADD PUSH2 0x47D SWAP1 PUSH2 0x20AD JUMP JUMPDEST PUSH1 0x40 MLOAD DUP1 SWAP2 SUB SWAP1 REVERT JUMPDEST PUSH1 0x3 DUP4 DUP3 DUP2 MLOAD DUP2 LT PUSH2 0x49B JUMPI PUSH2 0x49A PUSH2 0x2032 JUMP JUMPDEST JUMPDEST PUSH1 0x20 MUL PUSH1 0x20 ADD ADD MLOAD PUSH1 0x40 MLOAD PUSH2 0x4B0 SWAP2 SWAP1 PUSH2 0x1D5F JUMP JUMPDEST SWAP1 DUP2 MSTORE PUSH1 0x20 ADD PUSH1 0x40 MLOAD DUP1 SWAP2 SUB SWAP1 KECCAK256 PUSH1 0x0 ADD PUSH1 0x0 SWAP1 SLOAD SWAP1 PUSH2 0x100 EXP SWAP1 DIV PUSH20 0xFFFFFFFFFFFFFFFFFFFFFFFFFFFFFFFFFFFFFFFF AND PUSH20 0xFFFFFFFFFFFFFFFFFFFFFFFFFFFFFFFFFFFFFFFF AND PUSH1 0x3 DUP6 PUSH1 0x40 MLOAD PUSH2 0x508 SWAP2 SWAP1 PUSH2 0x1D5F JUMP JUMPDEST SWAP1 DUP2 MSTORE PUSH1 0x20 ADD PUSH1 0x40 MLOAD DUP1 SWAP2 SUB SWAP1 KECCAK256 PUSH1 0x0 ADD PUSH1 0x0 SWAP1 SLOAD SWAP1 PUSH2 0x100 EXP SWAP1 DIV PUSH20 0xFFFFFFFFFFFFFFFFFFFFFFFFFFFFFFFFFFFFFFFF AND PUSH20 0xFFFFFFFFFFFFFFFFFFFFFFFFFFFFFFFFFFFFFFFF AND EQ PUSH2 0x706 JUMPI PUSH1 0x1 ISZERO ISZERO PUSH1 0x4 DUP5 DUP4 DUP2 MLOAD DUP2 LT PUSH2 0x56E JUMPI PUSH2 0x56D PUSH2 0x2032 JUMP JUMPDEST JUMPDEST PUSH1 0x20 MUL PUSH1 0x20 ADD ADD MLOAD PUSH1 0x40 MLOAD PUSH2 0x583 SWAP2 SWAP1 PUSH2 0x1D5F JUMP JUMPDEST SWAP1 DUP2 MSTORE PUSH1 0x20 ADD PUSH1 0x40 MLOAD DUP1 SWAP2 SUB SWAP1 KECCAK256 PUSH1 0x0 SWAP1 SLOAD SWAP1 PUSH2 0x100 EXP SWAP1 DIV PUSH1 0xFF AND ISZERO ISZERO EQ PUSH2 0x5E1 JUMPI PUSH1 0x40 MLOAD PUSH32 0x8C379A000000000000000000000000000000000000000000000000000000000 DUP2 MSTORE PUSH1 0x4 ADD PUSH2 0x5D8 SWAP1 PUSH2 0x20AD JUMP JUMPDEST PUSH1 0x40 MLOAD DUP1 SWAP2 SUB SWAP1 REVERT JUMPDEST PUSH1 0x0 PUSH1 0x64 DUP4 PUSH2 0x5F0 SWAP2 SWAP1 PUSH2 0x20FC JUMP JUMPDEST SWAP1 POP DUP1 PUSH1 0x1 PUSH1 0x0 DUP3 DUP3 SLOAD PUSH2 0x604 SWAP2 SWAP1 PUSH2 0x212D JUMP JUMPDEST SWAP3 POP POP DUP2 SWAP1 SSTORE POP DUP3 PUSH1 0x3 DUP7 PUSH1 0x40 MLOAD PUSH2 0x61C SWAP2 SWAP1 PUSH2 0x1D5F JUMP JUMPDEST SWAP1 DUP2 MSTORE PUSH1 0x20 ADD PUSH1 0x40 MLOAD DUP1 SWAP2 SUB SWAP1 KECCAK256 PUSH1 0x2 ADD PUSH1 0x0 DUP3 DUP3 SLOAD PUSH2 0x63C SWAP2 SWAP1 PUSH2 0x2183 JUMP JUMPDEST SWAP3 POP POP DUP2 SWAP1 SSTORE POP DUP1 DUP4 PUSH2 0x64F SWAP2 SWAP1 PUSH2 0x2183 JUMP JUMPDEST PUSH1 0x3 DUP6 DUP5 DUP2 MLOAD DUP2 LT PUSH2 0x664 JUMPI PUSH2 0x663 PUSH2 0x2032 JUMP JUMPDEST JUMPDEST PUSH1 0x20 MUL PUSH1 0x20 ADD ADD MLOAD PUSH1 0x40 MLOAD PUSH2 0x679 SWAP2 SWAP1 PUSH2 0x1D5F JUMP JUMPDEST SWAP1 DUP2 MSTORE PUSH1 0x20 ADD PUSH1 0x40 MLOAD DUP1 SWAP2 SUB SWAP1 KECCAK256 PUSH1 0x2 ADD PUSH1 0x0 DUP3 DUP3 SLOAD PUSH2 0x699 SWAP2 SWAP1 PUSH2 0x212D JUMP JUMPDEST SWAP3 POP POP DUP2 SWAP1 SSTORE POP PUSH32 0x370044A47246AFACF081FD58C8468A6482EBC8673D418E785B8D0492240F95DE DUP6 DUP6 DUP5 DUP2 MLOAD DUP2 LT PUSH2 0x6D5 JUMPI PUSH2 0x6D4 PUSH2 0x2032 JUMP JUMPDEST JUMPDEST PUSH1 0x20 MUL PUSH1 0x20 ADD ADD MLOAD DUP4 DUP7 PUSH2 0x6E9 SWAP2 SWAP1 PUSH2 0x2183 JUMP JUMPDEST PUSH1 0x40 MLOAD PUSH2 0x6F8 SWAP4 SWAP3 SWAP2 SWAP1 PUSH2 0x21F0 JUMP JUMPDEST PUSH1 0x40 MLOAD DUP1 SWAP2 SUB SWAP1 LOG1 POP PUSH2 0x7E6 JUMP JUMPDEST DUP2 PUSH1 0x3 DUP6 PUSH1 0x40 MLOAD PUSH2 0x717 SWAP2 SWAP1 PUSH2 0x1D5F JUMP JUMPDEST SWAP1 DUP2 MSTORE PUSH1 0x20 ADD PUSH1 0x40 MLOAD DUP1 SWAP2 SUB SWAP1 KECCAK256 PUSH1 0x2 ADD PUSH1 0x0 DUP3 DUP3 SLOAD PUSH2 0x737 SWAP2 SWAP1 PUSH2 0x2183 JUMP JUMPDEST SWAP3 POP POP DUP2 SWAP1 SSTORE POP DUP2 PUSH1 0x3 DUP5 DUP4 DUP2 MLOAD DUP2 LT PUSH2 0x754 JUMPI PUSH2 0x753 PUSH2 0x2032 JUMP JUMPDEST JUMPDEST PUSH1 0x20 MUL PUSH1 0x20 ADD ADD MLOAD PUSH1 0x40 MLOAD PUSH2 0x769 SWAP2 SWAP1 PUSH2 0x1D5F JUMP JUMPDEST SWAP1 DUP2 MSTORE PUSH1 0x20 ADD PUSH1 0x40 MLOAD DUP1 SWAP2 SUB SWAP1 KECCAK256 PUSH1 0x2 ADD PUSH1 0x0 DUP3 DUP3 SLOAD PUSH2 0x789 SWAP2 SWAP1 PUSH2 0x212D JUMP JUMPDEST SWAP3 POP POP DUP2 SWAP1 SSTORE POP PUSH32 0x370044A47246AFACF081FD58C8468A6482EBC8673D418E785B8D0492240F95DE DUP5 DUP5 DUP4 DUP2 MLOAD DUP2 LT PUSH2 0x7C5 JUMPI PUSH2 0x7C4 PUSH2 0x2032 JUMP JUMPDEST JUMPDEST PUSH1 0x20 MUL PUSH1 0x20 ADD ADD MLOAD DUP5 PUSH1 0x40 MLOAD PUSH2 0x7DD SWAP4 SWAP3 SWAP2 SWAP1 PUSH2 0x21F0 JUMP JUMPDEST PUSH1 0x40 MLOAD DUP1 SWAP2 SUB SWAP1 LOG1 JUMPDEST DUP1 DUP1 PUSH2 0x7F1 SWAP1 PUSH2 0x2235 JUMP JUMPDEST SWAP2 POP POP PUSH2 0x3F1 JUMP JUMPDEST POP POP POP POP JUMP JUMPDEST PUSH1 0x0 ISZERO ISZERO PUSH1 0x4 DUP3 PUSH1 0x40 MLOAD PUSH2 0x813 SWAP2 SWAP1 PUSH2 0x1D5F JUMP JUMPDEST SWAP1 DUP2 MSTORE PUSH1 0x20 ADD PUSH1 0x40 MLOAD DUP1 SWAP2 SUB SWAP1 KECCAK256 PUSH1 0x0 SWAP1 SLOAD SWAP1 PUSH2 0x100 EXP SWAP1 DIV PUSH1 0xFF AND ISZERO ISZERO EQ PUSH2 0x871 JUMPI PUSH1 0x40 MLOAD PUSH32 0x8C379A000000000000000000000000000000000000000000000000000000000 DUP2 MSTORE PUSH1 0x4 ADD PUSH2 0x868 SWAP1 PUSH2 0x22C9 JUMP JUMPDEST PUSH1 0x40 MLOAD DUP1 SWAP2 SUB SWAP1 REVERT JUMPDEST PUSH1 0x40 MLOAD DUP1 PUSH1 0x60 ADD PUSH1 0x40 MSTORE DUP1 CALLER PUSH20 0xFFFFFFFFFFFFFFFFFFFFFFFFFFFFFFFFFFFFFFFF AND DUP2 MSTORE PUSH1 0x20 ADD DUP3 DUP2 MSTORE PUSH1 0x20 ADD PUSH1 0x0 DUP2 MSTORE POP PUSH1 0x3 DUP3 PUSH1 0x40 MLOAD PUSH2 0x8B3 SWAP2 SWAP1 PUSH2 0x1D5F JUMP JUMPDEST SWAP1 DUP2 MSTORE PUSH1 0x20 ADD PUSH1 0x40 MLOAD DUP1 SWAP2 SUB SWAP1 KECCAK256 PUSH1 0x0 DUP3 ADD MLOAD DUP2 PUSH1 0x0 ADD PUSH1 0x0 PUSH2 0x100 EXP DUP2 SLOAD DUP2 PUSH20 0xFFFFFFFFFFFFFFFFFFFFFFFFFFFFFFFFFFFFFFFF MUL NOT AND SWAP1 DUP4 PUSH20 0xFFFFFFFFFFFFFFFFFFFFFFFFFFFFFFFFFFFFFFFF AND MUL OR SWAP1 SSTORE POP PUSH1 0x20 DUP3 ADD MLOAD DUP2 PUSH1 0x1 ADD SWAP1 DUP2 PUSH2 0x91D SWAP2 SWAP1 PUSH2 0x24F5 JUMP JUMPDEST POP PUSH1 0x40 DUP3 ADD MLOAD DUP2 PUSH1 0x2 ADD SSTORE SWAP1 POP POP PUSH1 0x2 PUSH1 0x0 CALLER PUSH20 0xFFFFFFFFFFFFFFFFFFFFFFFFFFFFFFFFFFFFFFFF AND PUSH20 0xFFFFFFFFFFFFFFFFFFFFFFFFFFFFFFFFFFFFFFFF AND DUP2 MSTORE PUSH1 0x20 ADD SWAP1 DUP2 MSTORE PUSH1 0x20 ADD PUSH1 0x0 KECCAK256 DUP2 SWAP1 DUP1 PUSH1 0x1 DUP2 SLOAD ADD DUP1 DUP3 SSTORE DUP1 SWAP2 POP POP PUSH1 0x1 SWAP1 SUB SWAP1 PUSH1 0x0 MSTORE PUSH1 0x20 PUSH1 0x0 KECCAK256 ADD PUSH1 0x0 SWAP1 SWAP2 SWAP1 SWAP2 SWAP1 SWAP2 POP SWAP1 DUP2 PUSH2 0x99C SWAP2 SWAP1 PUSH2 0x24F5 JUMP JUMPDEST POP PUSH1 0x1 PUSH1 0x4 DUP3 PUSH1 0x40 MLOAD PUSH2 0x9AF SWAP2 SWAP1 PUSH2 0x1D5F JUMP JUMPDEST SWAP1 DUP2 MSTORE PUSH1 0x20 ADD PUSH1 0x40 MLOAD DUP1 SWAP2 SUB SWAP1 KECCAK256 PUSH1 0x0 PUSH2 0x100 EXP DUP2 SLOAD DUP2 PUSH1 0xFF MUL NOT AND SWAP1 DUP4 ISZERO ISZERO MUL OR SWAP1 SSTORE POP PUSH32 0xB4833C10B628B390DD18880F97A54F11EAE38C84EB68171F9A11B0FD7855FADF CALLER DUP3 PUSH1 0x40 MLOAD PUSH2 0xA05 SWAP3 SWAP2 SWAP1 PUSH2 0x25D6 JUMP JUMPDEST PUSH1 0x40 MLOAD DUP1 SWAP2 SUB SWAP1 LOG1 POP JUMP JUMPDEST PUSH1 0x1 ISZERO ISZERO PUSH1 0x4 DUP4 PUSH1 0x40 MLOAD PUSH2 0xA24 SWAP2 SWAP1 PUSH2 0x1D5F JUMP JUMPDEST SWAP1 DUP2 MSTORE PUSH1 0x20 ADD PUSH1 0x40 MLOAD DUP1 SWAP2 SUB SWAP1 KECCAK256 PUSH1 0x0 SWAP1 SLOAD SWAP1 PUSH2 0x100 EXP SWAP1 DIV PUSH1 0xFF AND ISZERO ISZERO EQ PUSH2 0xA82 JUMPI PUSH1 0x40 MLOAD PUSH32 0x8C379A000000000000000000000000000000000000000000000000000000000 DUP2 MSTORE PUSH1 0x4 ADD PUSH2 0xA79 SWAP1 PUSH2 0x2652 JUMP JUMPDEST PUSH1 0x40 MLOAD DUP1 SWAP2 SUB SWAP1 REVERT JUMPDEST CALLER PUSH20 0xFFFFFFFFFFFFFFFFFFFFFFFFFFFFFFFFFFFFFFFF AND PUSH1 0x3 DUP4 PUSH1 0x40 MLOAD PUSH2 0xAA9 SWAP2 SWAP1 PUSH2 0x1D5F JUMP JUMPDEST SWAP1 DUP2 MSTORE PUSH1 0x20 ADD PUSH1 0x40 MLOAD DUP1 SWAP2 SUB SWAP1 KECCAK256 PUSH1 0x0 ADD PUSH1 0x0 SWAP1 SLOAD SWAP1 PUSH2 0x100 EXP SWAP1 DIV PUSH20 0xFFFFFFFFFFFFFFFFFFFFFFFFFFFFFFFFFFFFFFFF AND PUSH20 0xFFFFFFFFFFFFFFFFFFFFFFFFFFFFFFFFFFFFFFFF AND EQ PUSH2 0xB31 JUMPI PUSH1 0x40 MLOAD PUSH32 0x8C379A000000000000000000000000000000000000000000000000000000000 DUP2 MSTORE PUSH1 0x4 ADD PUSH2 0xB28 SWAP1 PUSH2 0x26BE JUMP JUMPDEST PUSH1 0x40 MLOAD DUP1 SWAP2 SUB SWAP1 REVERT JUMPDEST PUSH1 0x0 DUP2 GT PUSH2 0xB74 JUMPI PUSH1 0x40 MLOAD PUSH32 0x8C379A000000000000000000000000000000000000000000000000000000000 DUP2 MSTORE PUSH1 0x4 ADD PUSH2 0xB6B SWAP1 PUSH2 0x272A JUMP JUMPDEST PUSH1 0x40 MLOAD DUP1 SWAP2 SUB SWAP1 REVERT JUMPDEST DUP1 PUSH1 0x3 DUP4 PUSH1 0x40 MLOAD PUSH2 0xB85 SWAP2 SWAP1 PUSH2 0x1D5F JUMP JUMPDEST SWAP1 DUP2 MSTORE PUSH1 0x20 ADD PUSH1 0x40 MLOAD DUP1 SWAP2 SUB SWAP1 KECCAK256 PUSH1 0x2 ADD SLOAD LT ISZERO PUSH2 0xBD8 JUMPI PUSH1 0x40 MLOAD PUSH32 0x8C379A000000000000000000000000000000000000000000000000000000000 DUP2 MSTORE PUSH1 0x4 ADD PUSH2 0xBCF SWAP1 PUSH2 0x27BC JUMP JUMPDEST PUSH1 0x40 MLOAD DUP1 SWAP2 SUB SWAP1 REVERT JUMPDEST DUP1 PUSH1 0x3 DUP4 PUSH1 0x40 MLOAD PUSH2 0xBE9 SWAP2 SWAP1 PUSH2 0x1D5F JUMP JUMPDEST SWAP1 DUP2 MSTORE PUSH1 0x20 ADD PUSH1 0x40 MLOAD DUP1 SWAP2 SUB SWAP1 KECCAK256 PUSH1 0x2 ADD PUSH1 0x0 DUP3 DUP3 SLOAD PUSH2 0xC09 SWAP2 SWAP1 PUSH2 0x2183 JUMP JUMPDEST SWAP3 POP POP DUP2 SWAP1 SSTORE POP CALLER PUSH20 0xFFFFFFFFFFFFFFFFFFFFFFFFFFFFFFFFFFFFFFFF AND PUSH2 0x8FC DUP3 SWAP1 DUP2 ISZERO MUL SWAP1 PUSH1 0x40 MLOAD PUSH1 0x0 PUSH1 0x40 MLOAD DUP1 DUP4 SUB DUP2 DUP6 DUP9 DUP9 CALL SWAP4 POP POP POP POP ISZERO DUP1 ISZERO PUSH2 0xC56 JUMPI RETURNDATASIZE PUSH1 0x0 DUP1 RETURNDATACOPY RETURNDATASIZE PUSH1 0x0 REVERT JUMPDEST POP PUSH31 0xF571BB39287F8941696401F5B5A1666EE251EFBF23412140FBDDCE841655D9 DUP3 CALLER DUP4 PUSH1 0x40 MLOAD PUSH2 0xC89 SWAP4 SWAP3 SWAP2 SWAP1 PUSH2 0x27DC JUMP JUMPDEST PUSH1 0x40 MLOAD DUP1 SWAP2 SUB SWAP1 LOG1 POP POP JUMP JUMPDEST PUSH1 0x1 ISZERO ISZERO PUSH1 0x4 DUP5 PUSH1 0x40 MLOAD PUSH2 0xCA9 SWAP2 SWAP1 PUSH2 0x1D5F JUMP JUMPDEST SWAP1 DUP2 MSTORE PUSH1 0x20 ADD PUSH1 0x40 MLOAD DUP1 SWAP2 SUB SWAP1 KECCAK256 PUSH1 0x0 SWAP1 SLOAD SWAP1 PUSH2 0x100 EXP SWAP1 DIV PUSH1 0xFF AND ISZERO ISZERO EQ PUSH2 0xD07 JUMPI PUSH1 0x40 MLOAD PUSH32 0x8C379A000000000000000000000000000000000000000000000000000000000 DUP2 MSTORE PUSH1 0x4 ADD PUSH2 0xCFE SWAP1 PUSH2 0x1DF9 JUMP JUMPDEST PUSH1 0x40 MLOAD DUP1 SWAP2 SUB SWAP1 REVERT JUMPDEST PUSH1 0x1 ISZERO ISZERO PUSH1 0x4 DUP4 PUSH1 0x40 MLOAD PUSH2 0xD1B SWAP2 SWAP1 PUSH2 0x1D5F JUMP JUMPDEST SWAP1 DUP2 MSTORE PUSH1 0x20 ADD PUSH1 0x40 MLOAD DUP1 SWAP2 SUB SWAP1 KECCAK256 PUSH1 0x0 SWAP1 SLOAD SWAP1 PUSH2 0x100 EXP SWAP1 DIV PUSH1 0xFF AND ISZERO ISZERO EQ PUSH2 0xD79 JUMPI PUSH1 0x40 MLOAD PUSH32 0x8C379A000000000000000000000000000000000000000000000000000000000 DUP2 MSTORE PUSH1 0x4 ADD PUSH2 0xD70 SWAP1 PUSH2 0x20AD JUMP JUMPDEST PUSH1 0x40 MLOAD DUP1 SWAP2 SUB SWAP1 REVERT JUMPDEST CALLER PUSH20 0xFFFFFFFFFFFFFFFFFFFFFFFFFFFFFFFFFFFFFFFF AND PUSH1 0x3 DUP5 PUSH1 0x40 MLOAD PUSH2 0xDA0 SWAP2 SWAP1 PUSH2 0x1D5F JUMP JUMPDEST SWAP1 DUP2 MSTORE PUSH1 0x20 ADD PUSH1 0x40 MLOAD DUP1 SWAP2 SUB SWAP1 KECCAK256 PUSH1 0x0 ADD PUSH1 0x0 SWAP1 SLOAD SWAP1 PUSH2 0x100 EXP SWAP1 DIV PUSH20 0xFFFFFFFFFFFFFFFFFFFFFFFFFFFFFFFFFFFFFFFF AND PUSH20 0xFFFFFFFFFFFFFFFFFFFFFFFFFFFFFFFFFFFFFFFF AND EQ PUSH2 0xE28 JUMPI PUSH1 0x40 MLOAD PUSH32 0x8C379A000000000000000000000000000000000000000000000000000000000 DUP2 MSTORE PUSH1 0x4 ADD PUSH2 0xE1F SWAP1 PUSH2 0x1E65 JUMP JUMPDEST PUSH1 0x40 MLOAD DUP1 SWAP2 SUB SWAP1 REVERT JUMPDEST PUSH1 0x64 DUP2 LT ISZERO PUSH2 0xE6C JUMPI PUSH1 0x40 MLOAD PUSH32 0x8C379A000000000000000000000000000000000000000000000000000000000 DUP2 MSTORE PUSH1 0x4 ADD PUSH2 0xE63 SWAP1 PUSH2 0x1EF7 JUMP JUMPDEST PUSH1 0x40 MLOAD DUP1 SWAP2 SUB SWAP1 REVERT JUMPDEST DUP1 PUSH1 0x3 DUP5 PUSH1 0x40 MLOAD PUSH2 0xE7D SWAP2 SWAP1 PUSH2 0x1D5F JUMP JUMPDEST SWAP1 DUP2 MSTORE PUSH1 0x20 ADD PUSH1 0x40 MLOAD DUP1 SWAP2 SUB SWAP1 KECCAK256 PUSH1 0x2 ADD SLOAD LT ISZERO PUSH2 0xED0 JUMPI PUSH1 0x40 MLOAD PUSH32 0x8C379A000000000000000000000000000000000000000000000000000000000 DUP2 MSTORE PUSH1 0x4 ADD PUSH2 0xEC7 SWAP1 PUSH2 0x2012 JUMP JUMPDEST PUSH1 0x40 MLOAD DUP1 SWAP2 SUB SWAP1 REVERT JUMPDEST PUSH1 0x3 DUP3 PUSH1 0x40 MLOAD PUSH2 0xEE0 SWAP2 SWAP1 PUSH2 0x1D5F JUMP JUMPDEST SWAP1 DUP2 MSTORE PUSH1 0x20 ADD PUSH1 0x40 MLOAD DUP1 SWAP2 SUB SWAP1 KECCAK256 PUSH1 0x0 ADD PUSH1 0x0 SWAP1 SLOAD SWAP1 PUSH2 0x100 EXP SWAP1 DIV PUSH20 0xFFFFFFFFFFFFFFFFFFFFFFFFFFFFFFFFFFFFFFFF AND PUSH20 0xFFFFFFFFFFFFFFFFFFFFFFFFFFFFFFFFFFFFFFFF AND PUSH1 0x3 DUP5 PUSH1 0x40 MLOAD PUSH2 0xF38 SWAP2 SWAP1 PUSH2 0x1D5F JUMP JUMPDEST SWAP1 DUP2 MSTORE PUSH1 0x20 ADD PUSH1 0x40 MLOAD DUP1 SWAP2 SUB SWAP1 KECCAK256 PUSH1 0x0 ADD PUSH1 0x0 SWAP1 SLOAD SWAP1 PUSH2 0x100 EXP SWAP1 DIV PUSH20 0xFFFFFFFFFFFFFFFFFFFFFFFFFFFFFFFFFFFFFFFF AND PUSH20 0xFFFFFFFFFFFFFFFFFFFFFFFFFFFFFFFFFFFFFFFF AND EQ PUSH2 0x1076 JUMPI PUSH1 0x0 PUSH1 0x64 DUP3 PUSH2 0xF94 SWAP2 SWAP1 PUSH2 0x20FC JUMP JUMPDEST SWAP1 POP DUP1 PUSH1 0x1 PUSH1 0x0 DUP3 DUP3 SLOAD PUSH2 0xFA8 SWAP2 SWAP1 PUSH2 0x212D JUMP JUMPDEST SWAP3 POP POP DUP2 SWAP1 SSTORE POP DUP2 PUSH1 0x3 DUP6 PUSH1 0x40 MLOAD PUSH2 0xFC0 SWAP2 SWAP1 PUSH2 0x1D5F JUMP JUMPDEST SWAP1 DUP2 MSTORE PUSH1 0x20 ADD PUSH1 0x40 MLOAD DUP1 SWAP2 SUB SWAP1 KECCAK256 PUSH1 0x2 ADD PUSH1 0x0 DUP3 DUP3 SLOAD PUSH2 0xFE0 SWAP2 SWAP1 PUSH2 0x2183 JUMP JUMPDEST SWAP3 POP POP DUP2 SWAP1 SSTORE POP DUP1 DUP3 PUSH2 0xFF3 SWAP2 SWAP1 PUSH2 0x2183 JUMP JUMPDEST PUSH1 0x3 DUP5 PUSH1 0x40 MLOAD PUSH2 0x1003 SWAP2 SWAP1 PUSH2 0x1D5F JUMP JUMPDEST SWAP1 DUP2 MSTORE PUSH1 0x20 ADD PUSH1 0x40 MLOAD DUP1 SWAP2 SUB SWAP1 KECCAK256 PUSH1 0x2 ADD PUSH1 0x0 DUP3 DUP3 SLOAD PUSH2 0x1023 SWAP2 SWAP1 PUSH2 0x212D JUMP JUMPDEST SWAP3 POP POP DUP2 SWAP1 SSTORE POP PUSH32 0x370044A47246AFACF081FD58C8468A6482EBC8673D418E785B8D0492240F95DE DUP5 DUP5 DUP4 DUP6 PUSH2 0x1059 SWAP2 SWAP1 PUSH2 0x2183 JUMP JUMPDEST PUSH1 0x40 MLOAD PUSH2 0x1068 SWAP4 SWAP3 SWAP2 SWAP1 PUSH2 0x21F0 JUMP JUMPDEST PUSH1 0x40 MLOAD DUP1 SWAP2 SUB SWAP1 LOG1 POP PUSH2 0x1122 JUMP JUMPDEST DUP1 PUSH1 0x3 DUP5 PUSH1 0x40 MLOAD PUSH2 0x1087 SWAP2 SWAP1 PUSH2 0x1D5F JUMP JUMPDEST SWAP1 DUP2 MSTORE PUSH1 0x20 ADD PUSH1 0x40 MLOAD DUP1 SWAP2 SUB SWAP1 KECCAK256 PUSH1 0x2 ADD PUSH1 0x0 DUP3 DUP3 SLOAD PUSH2 0x10A7 SWAP2 SWAP1 PUSH2 0x2183 JUMP JUMPDEST SWAP3 POP POP DUP2 SWAP1 SSTORE POP DUP1 PUSH1 0x3 DUP4 PUSH1 0x40 MLOAD PUSH2 0x10BF SWAP2 SWAP1 PUSH2 0x1D5F JUMP JUMPDEST SWAP1 DUP2 MSTORE PUSH1 0x20 ADD PUSH1 0x40 MLOAD DUP1 SWAP2 SUB SWAP1 KECCAK256 PUSH1 0x2 ADD PUSH1 0x0 DUP3 DUP3 SLOAD PUSH2 0x10DF SWAP2 SWAP1 PUSH2 0x212D JUMP JUMPDEST SWAP3 POP POP DUP2 SWAP1 SSTORE POP PUSH32 0x370044A47246AFACF081FD58C8468A6482EBC8673D418E785B8D0492240F95DE DUP4 DUP4 DUP4 PUSH1 0x40 MLOAD PUSH2 0x1119 SWAP4 SWAP3 SWAP2 SWAP1 PUSH2 0x21F0 JUMP JUMPDEST PUSH1 0x40 MLOAD DUP1 SWAP2 SUB SWAP1 LOG1 JUMPDEST POP POP POP JUMP JUMPDEST PUSH1 0x1 ISZERO ISZERO PUSH1 0x4 DUP3 PUSH1 0x40 MLOAD PUSH2 0x113B SWAP2 SWAP1 PUSH2 0x1D5F JUMP JUMPDEST SWAP1 DUP2 MSTORE PUSH1 0x20 ADD PUSH1 0x40 MLOAD DUP1 SWAP2 SUB SWAP1 KECCAK256 PUSH1 0x0 SWAP1 SLOAD SWAP1 PUSH2 0x100 EXP SWAP1 DIV PUSH1 0xFF AND ISZERO ISZERO EQ PUSH2 0x1199 JUMPI PUSH1 0x40 MLOAD PUSH32 0x8C379A000000000000000000000000000000000000000000000000000000000 DUP2 MSTORE PUSH1 0x4 ADD PUSH2 0x1190 SWAP1 PUSH2 0x2866 JUMP JUMPDEST PUSH1 0x40 MLOAD DUP1 SWAP2 SUB SWAP1 REVERT JUMPDEST PUSH1 0x0 CALLVALUE GT PUSH2 0x11DC JUMPI PUSH1 0x40 MLOAD PUSH32 0x8C379A000000000000000000000000000000000000000000000000000000000 DUP2 MSTORE PUSH1 0x4 ADD PUSH2 0x11D3 SWAP1 PUSH2 0x28D2 JUMP JUMPDEST PUSH1 0x40 MLOAD DUP1 SWAP2 SUB SWAP1 REVERT JUMPDEST CALLVALUE PUSH1 0x3 DUP3 PUSH1 0x40 MLOAD PUSH2 0x11ED SWAP2 SWAP1 PUSH2 0x1D5F JUMP JUMPDEST SWAP1 DUP2 MSTORE PUSH1 0x20 ADD PUSH1 0x40 MLOAD DUP1 SWAP2 SUB SWAP1 KECCAK256 PUSH1 0x2 ADD PUSH1 0x0 DUP3 DUP3 SLOAD PUSH2 0x120D SWAP2 SWAP1 PUSH2 0x212D JUMP JUMPDEST SWAP3 POP POP DUP2 SWAP1 SSTORE POP PUSH32 0x3E0B25BA1AB101C1D9112766101BB987F00F29A37A44B4A0813ED489A4F3FFA CALLER DUP3 CALLVALUE PUSH1 0x40 MLOAD PUSH2 0x1247 SWAP4 SWAP3 SWAP2 SWAP1 PUSH2 0x28F2 JUMP JUMPDEST PUSH1 0x40 MLOAD DUP1 SWAP2 SUB SWAP1 LOG1 POP JUMP JUMPDEST PUSH1 0x60 PUSH1 0x2 PUSH1 0x0 CALLER PUSH20 0xFFFFFFFFFFFFFFFFFFFFFFFFFFFFFFFFFFFFFFFF AND PUSH20 0xFFFFFFFFFFFFFFFFFFFFFFFFFFFFFFFFFFFFFFFF AND DUP2 MSTORE PUSH1 0x20 ADD SWAP1 DUP2 MSTORE PUSH1 0x20 ADD PUSH1 0x0 KECCAK256 DUP1 SLOAD DUP1 PUSH1 0x20 MUL PUSH1 0x20 ADD PUSH1 0x40 MLOAD SWAP1 DUP2 ADD PUSH1 0x40 MSTORE DUP1 SWAP3 SWAP2 SWAP1 DUP2 DUP2 MSTORE PUSH1 0x20 ADD PUSH1 0x0 SWAP1 JUMPDEST DUP3 DUP3 LT ISZERO PUSH2 0x135F JUMPI DUP4 DUP3 SWAP1 PUSH1 0x0 MSTORE PUSH1 0x20 PUSH1 0x0 KECCAK256 ADD DUP1 SLOAD PUSH2 0x12D2 SWAP1 PUSH2 0x2318 JUMP JUMPDEST DUP1 PUSH1 0x1F ADD PUSH1 0x20 DUP1 SWAP2 DIV MUL PUSH1 0x20 ADD PUSH1 0x40 MLOAD SWAP1 DUP2 ADD PUSH1 0x40 MSTORE DUP1 SWAP3 SWAP2 SWAP1 DUP2 DUP2 MSTORE PUSH1 0x20 ADD DUP3 DUP1 SLOAD PUSH2 0x12FE SWAP1 PUSH2 0x2318 JUMP JUMPDEST DUP1 ISZERO PUSH2 0x134B JUMPI DUP1 PUSH1 0x1F LT PUSH2 0x1320 JUMPI PUSH2 0x100 DUP1 DUP4 SLOAD DIV MUL DUP4 MSTORE SWAP2 PUSH1 0x20 ADD SWAP2 PUSH2 0x134B JUMP JUMPDEST DUP3 ADD SWAP2 SWAP1 PUSH1 0x0 MSTORE PUSH1 0x20 PUSH1 0x0 KECCAK256 SWAP1 JUMPDEST DUP2 SLOAD DUP2 MSTORE SWAP1 PUSH1 0x1 ADD SWAP1 PUSH1 0x20 ADD DUP1 DUP4 GT PUSH2 0x132E JUMPI DUP3 SWAP1 SUB PUSH1 0x1F AND DUP3 ADD SWAP2 JUMPDEST POP POP POP POP POP DUP2 MSTORE PUSH1 0x20 ADD SWAP1 PUSH1 0x1 ADD SWAP1 PUSH2 0x12B3 JUMP JUMPDEST POP POP POP POP SWAP1 POP SWAP1 JUMP JUMPDEST PUSH1 0x0 PUSH1 0x3 DUP3 PUSH1 0x40 MLOAD PUSH2 0x137A SWAP2 SWAP1 PUSH2 0x1D5F JUMP JUMPDEST SWAP1 DUP2 MSTORE PUSH1 0x20 ADD PUSH1 0x40 MLOAD DUP1 SWAP2 SUB SWAP1 KECCAK256 PUSH1 0x2 ADD SLOAD SWAP1 POP SWAP2 SWAP1 POP JUMP JUMPDEST PUSH2 0x139B PUSH2 0x1636 JUMP JUMPDEST PUSH1 0x3 DUP3 PUSH1 0x40 MLOAD PUSH2 0x13AB SWAP2 SWAP1 PUSH2 0x1D5F JUMP JUMPDEST SWAP1 DUP2 MSTORE PUSH1 0x20 ADD PUSH1 0x40 MLOAD DUP1 SWAP2 SUB SWAP1 KECCAK256 PUSH1 0x40 MLOAD DUP1 PUSH1 0x60 ADD PUSH1 0x40 MSTORE SWAP1 DUP2 PUSH1 0x0 DUP3 ADD PUSH1 0x0 SWAP1 SLOAD SWAP1 PUSH2 0x100 EXP SWAP1 DIV PUSH20 0xFFFFFFFFFFFFFFFFFFFFFFFFFFFFFFFFFFFFFFFF AND PUSH20 0xFFFFFFFFFFFFFFFFFFFFFFFFFFFFFFFFFFFFFFFF AND PUSH20 0xFFFFFFFFFFFFFFFFFFFFFFFFFFFFFFFFFFFFFFFF AND DUP2 MSTORE PUSH1 0x20 ADD PUSH1 0x1 DUP3 ADD DUP1 SLOAD PUSH2 0x142A SWAP1 PUSH2 0x2318 JUMP JUMPDEST DUP1 PUSH1 0x1F ADD PUSH1 0x20 DUP1 SWAP2 DIV MUL PUSH1 0x20 ADD PUSH1 0x40 MLOAD SWAP1 DUP2 ADD PUSH1 0x40 MSTORE DUP1 SWAP3 SWAP2 SWAP1 DUP2 DUP2 MSTORE PUSH1 0x20 ADD DUP3 DUP1 SLOAD PUSH2 0x1456 SWAP1 PUSH2 0x2318 JUMP JUMPDEST DUP1 ISZERO PUSH2 0x14A3 JUMPI DUP1 PUSH1 0x1F LT PUSH2 0x1478 JUMPI PUSH2 0x100 DUP1 DUP4 SLOAD DIV MUL DUP4 MSTORE SWAP2 PUSH1 0x20 ADD SWAP2 PUSH2 0x14A3 JUMP JUMPDEST DUP3 ADD SWAP2 SWAP1 PUSH1 0x0 MSTORE PUSH1 0x20 PUSH1 0x0 KECCAK256 SWAP1 JUMPDEST DUP2 SLOAD DUP2 MSTORE SWAP1 PUSH1 0x1 ADD SWAP1 PUSH1 0x20 ADD DUP1 DUP4 GT PUSH2 0x1486 JUMPI DUP3 SWAP1 SUB PUSH1 0x1F AND DUP3 ADD SWAP2 JUMPDEST POP POP POP POP POP DUP2 MSTORE PUSH1 0x20 ADD PUSH1 0x2 DUP3 ADD SLOAD DUP2 MSTORE POP POP SWAP1 POP SWAP2 SWAP1 POP JUMP JUMPDEST CALLER PUSH20 0xFFFFFFFFFFFFFFFFFFFFFFFFFFFFFFFFFFFFFFFF AND PUSH1 0x0 DUP1 SLOAD SWAP1 PUSH2 0x100 EXP SWAP1 DIV PUSH20 0xFFFFFFFFFFFFFFFFFFFFFFFFFFFFFFFFFFFFFFFF AND PUSH20 0xFFFFFFFFFFFFFFFFFFFFFFFFFFFFFFFFFFFFFFFF AND EQ PUSH2 0x154B JUMPI PUSH1 0x40 MLOAD PUSH32 0x8C379A000000000000000000000000000000000000000000000000000000000 DUP2 MSTORE PUSH1 0x4 ADD PUSH2 0x1542 SWAP1 PUSH2 0x26BE JUMP JUMPDEST PUSH1 0x40 MLOAD DUP1 SWAP2 SUB SWAP1 REVERT JUMPDEST PUSH1 0x0 DUP2 GT PUSH2 0x158E JUMPI PUSH1 0x40 MLOAD PUSH32 0x8C379A000000000000000000000000000000000000000000000000000000000 DUP2 MSTORE PUSH1 0x4 ADD PUSH2 0x1585 SWAP1 PUSH2 0x272A JUMP JUMPDEST PUSH1 0x40 MLOAD DUP1 SWAP2 SUB SWAP1 REVERT JUMPDEST DUP1 PUSH1 0x1 SLOAD LT ISZERO PUSH2 0x15D3 JUMPI PUSH1 0x40 MLOAD PUSH32 0x8C379A000000000000000000000000000000000000000000000000000000000 DUP2 MSTORE PUSH1 0x4 ADD PUSH2 0x15CA SWAP1 PUSH2 0x27BC JUMP JUMPDEST PUSH1 0x40 MLOAD DUP1 SWAP2 SUB SWAP1 REVERT JUMPDEST DUP1 PUSH1 0x1 PUSH1 0x0 DUP3 DUP3 SLOAD PUSH2 0x15E5 SWAP2 SWAP1 PUSH2 0x2183 JUMP JUMPDEST SWAP3 POP POP DUP2 SWAP1 SSTORE POP CALLER PUSH20 0xFFFFFFFFFFFFFFFFFFFFFFFFFFFFFFFFFFFFFFFF AND PUSH2 0x8FC DUP3 SWAP1 DUP2 ISZERO MUL SWAP1 PUSH1 0x40 MLOAD PUSH1 0x0 PUSH1 0x40 MLOAD DUP1 DUP4 SUB DUP2 DUP6 DUP9 DUP9 CALL SWAP4 POP POP POP POP ISZERO DUP1 ISZERO PUSH2 0x1632 JUMPI RETURNDATASIZE PUSH1 0x0 DUP1 RETURNDATACOPY RETURNDATASIZE PUSH1 0x0 REVERT JUMPDEST POP POP JUMP JUMPDEST PUSH1 0x40 MLOAD DUP1 PUSH1 0x60 ADD PUSH1 0x40 MSTORE DUP1 PUSH1 0x0 PUSH20 0xFFFFFFFFFFFFFFFFFFFFFFFFFFFFFFFFFFFFFFFF AND DUP2 MSTORE PUSH1 0x20 ADD PUSH1 0x60 DUP2 MSTORE PUSH1 0x20 ADD PUSH1 0x0 DUP2 MSTORE POP SWAP1 JUMP JUMPDEST PUSH1 0x0 PUSH1 0x40 MLOAD SWAP1 POP SWAP1 JUMP JUMPDEST PUSH1 0x0 DUP1 REVERT JUMPDEST PUSH1 0x0 DUP1 REVERT JUMPDEST PUSH1 0x0 DUP1 REVERT JUMPDEST PUSH1 0x0 DUP1 REVERT JUMPDEST PUSH1 0x0 PUSH1 0x1F NOT PUSH1 0x1F DUP4 ADD AND SWAP1 POP SWAP2 SWAP1 POP JUMP JUMPDEST PUSH32 0x4E487B7100000000000000000000000000000000000000000000000000000000 PUSH1 0x0 MSTORE PUSH1 0x41 PUSH1 0x4 MSTORE PUSH1 0x24 PUSH1 0x0 REVERT JUMPDEST PUSH2 0x16D4 DUP3 PUSH2 0x168B JUMP JUMPDEST DUP2 ADD DUP2 DUP2 LT PUSH8 0xFFFFFFFFFFFFFFFF DUP3 GT OR ISZERO PUSH2 0x16F3 JUMPI PUSH2 0x16F2 PUSH2 0x169C JUMP JUMPDEST JUMPDEST DUP1 PUSH1 0x40 MSTORE POP POP POP JUMP JUMPDEST PUSH1 0x0 PUSH2 0x1706 PUSH2 0x166D JUMP JUMPDEST SWAP1 POP PUSH2 0x1712 DUP3 DUP3 PUSH2 0x16CB JUMP JUMPDEST SWAP2 SWAP1 POP JUMP JUMPDEST PUSH1 0x0 PUSH8 0xFFFFFFFFFFFFFFFF DUP3 GT ISZERO PUSH2 0x1732 JUMPI PUSH2 0x1731 PUSH2 0x169C JUMP JUMPDEST JUMPDEST PUSH2 0x173B DUP3 PUSH2 0x168B JUMP JUMPDEST SWAP1 POP PUSH1 0x20 DUP2 ADD SWAP1 POP SWAP2 SWAP1 POP JUMP JUMPDEST DUP3 DUP2 DUP4 CALLDATACOPY PUSH1 0x0 DUP4 DUP4 ADD MSTORE POP POP POP JUMP JUMPDEST PUSH1 0x0 PUSH2 0x176A PUSH2 0x1765 DUP5 PUSH2 0x1717 JUMP JUMPDEST PUSH2 0x16FC JUMP JUMPDEST SWAP1 POP DUP3 DUP2 MSTORE PUSH1 0x20 DUP2 ADD DUP5 DUP5 DUP5 ADD GT ISZERO PUSH2 0x1786 JUMPI PUSH2 0x1785 PUSH2 0x1686 JUMP JUMPDEST JUMPDEST PUSH2 0x1791 DUP5 DUP3 DUP6 PUSH2 0x1748 JUMP JUMPDEST POP SWAP4 SWAP3 POP POP POP JUMP JUMPDEST PUSH1 0x0 DUP3 PUSH1 0x1F DUP4 ADD SLT PUSH2 0x17AE JUMPI PUSH2 0x17AD PUSH2 0x1681 JUMP JUMPDEST JUMPDEST DUP2 CALLDATALOAD PUSH2 0x17BE DUP5 DUP3 PUSH1 0x20 DUP7 ADD PUSH2 0x1757 JUMP JUMPDEST SWAP2 POP POP SWAP3 SWAP2 POP POP JUMP JUMPDEST PUSH1 0x0 PUSH8 0xFFFFFFFFFFFFFFFF DUP3 GT ISZERO PUSH2 0x17E2 JUMPI PUSH2 0x17E1 PUSH2 0x169C JUMP JUMPDEST JUMPDEST PUSH1 0x20 DUP3 MUL SWAP1 POP PUSH1 0x20 DUP2 ADD SWAP1 POP SWAP2 SWAP1 POP JUMP JUMPDEST PUSH1 0x0 DUP1 REVERT JUMPDEST PUSH1 0x0 PUSH2 0x180B PUSH2 0x1806 DUP5 PUSH2 0x17C7 JUMP JUMPDEST PUSH2 0x16FC JUMP JUMPDEST SWAP1 POP DUP1 DUP4 DUP3 MSTORE PUSH1 0x20 DUP3 ADD SWAP1 POP PUSH1 0x20 DUP5 MUL DUP4 ADD DUP6 DUP2 GT ISZERO PUSH2 0x182E JUMPI PUSH2 0x182D PUSH2 0x17F3 JUMP JUMPDEST JUMPDEST DUP4 JUMPDEST DUP2 DUP2 LT ISZERO PUSH2 0x1875 JUMPI DUP1 CALLDATALOAD PUSH8 0xFFFFFFFFFFFFFFFF DUP2 GT ISZERO PUSH2 0x1853 JUMPI PUSH2 0x1852 PUSH2 0x1681 JUMP JUMPDEST JUMPDEST DUP1 DUP7 ADD PUSH2 0x1860 DUP10 DUP3 PUSH2 0x1799 JUMP JUMPDEST DUP6 MSTORE PUSH1 0x20 DUP6 ADD SWAP5 POP POP POP PUSH1 0x20 DUP2 ADD SWAP1 POP PUSH2 0x1830 JUMP JUMPDEST POP POP POP SWAP4 SWAP3 POP POP POP JUMP JUMPDEST PUSH1 0x0 DUP3 PUSH1 0x1F DUP4 ADD SLT PUSH2 0x1894 JUMPI PUSH2 0x1893 PUSH2 0x1681 JUMP JUMPDEST JUMPDEST DUP2 CALLDATALOAD PUSH2 0x18A4 DUP5 DUP3 PUSH1 0x20 DUP7 ADD PUSH2 0x17F8 JUMP JUMPDEST SWAP2 POP POP SWAP3 SWAP2 POP POP JUMP JUMPDEST PUSH1 0x0 DUP2 SWAP1 POP SWAP2 SWAP1 POP JUMP JUMPDEST PUSH2 0x18C0 DUP2 PUSH2 0x18AD JUMP JUMPDEST DUP2 EQ PUSH2 0x18CB JUMPI PUSH1 0x0 DUP1 REVERT JUMPDEST POP JUMP JUMPDEST PUSH1 0x0 DUP2 CALLDATALOAD SWAP1 POP PUSH2 0x18DD DUP2 PUSH2 0x18B7 JUMP JUMPDEST SWAP3 SWAP2 POP POP JUMP JUMPDEST PUSH1 0x0 DUP1 PUSH1 0x0 PUSH1 0x60 DUP5 DUP7 SUB SLT ISZERO PUSH2 0x18FC JUMPI PUSH2 0x18FB PUSH2 0x1677 JUMP JUMPDEST JUMPDEST PUSH1 0x0 DUP5 ADD CALLDATALOAD PUSH8 0xFFFFFFFFFFFFFFFF DUP2 GT ISZERO PUSH2 0x191A JUMPI PUSH2 0x1919 PUSH2 0x167C JUMP JUMPDEST JUMPDEST PUSH2 0x1926 DUP7 DUP3 DUP8 ADD PUSH2 0x1799 JUMP JUMPDEST SWAP4 POP POP PUSH1 0x20 DUP5 ADD CALLDATALOAD PUSH8 0xFFFFFFFFFFFFFFFF DUP2 GT ISZERO PUSH2 0x1947 JUMPI PUSH2 0x1946 PUSH2 0x167C JUMP JUMPDEST JUMPDEST PUSH2 0x1953 DUP7 DUP3 DUP8 ADD PUSH2 0x187F JUMP JUMPDEST SWAP3 POP POP PUSH1 0x40 PUSH2 0x1964 DUP7 DUP3 DUP8 ADD PUSH2 0x18CE JUMP JUMPDEST SWAP2 POP POP SWAP3 POP SWAP3 POP SWAP3 JUMP JUMPDEST PUSH1 0x0 PUSH1 0x20 DUP3 DUP5 SUB SLT ISZERO PUSH2 0x1984 JUMPI PUSH2 0x1983 PUSH2 0x1677 JUMP JUMPDEST JUMPDEST PUSH1 0x0 DUP3 ADD CALLDATALOAD PUSH8 0xFFFFFFFFFFFFFFFF DUP2 GT ISZERO PUSH2 0x19A2 JUMPI PUSH2 0x19A1 PUSH2 0x167C JUMP JUMPDEST JUMPDEST PUSH2 0x19AE DUP5 DUP3 DUP6 ADD PUSH2 0x1799 JUMP JUMPDEST SWAP2 POP POP SWAP3 SWAP2 POP POP JUMP JUMPDEST PUSH1 0x0 DUP1 PUSH1 0x40 DUP4 DUP6 SUB SLT ISZERO PUSH2 0x19CE JUMPI PUSH2 0x19CD PUSH2 0x1677 JUMP JUMPDEST JUMPDEST PUSH1 0x0 DUP4 ADD CALLDATALOAD PUSH8 0xFFFFFFFFFFFFFFFF DUP2 GT ISZERO PUSH2 0x19EC JUMPI PUSH2 0x19EB PUSH2 0x167C JUMP JUMPDEST JUMPDEST PUSH2 0x19F8 DUP6 DUP3 DUP7 ADD PUSH2 0x1799 JUMP JUMPDEST SWAP3 POP POP PUSH1 0x20 PUSH2 0x1A09 DUP6 DUP3 DUP7 ADD PUSH2 0x18CE JUMP JUMPDEST SWAP2 POP POP SWAP3 POP SWAP3 SWAP1 POP JUMP JUMPDEST PUSH1 0x0 DUP1 PUSH1 0x0 PUSH1 0x60 DUP5 DUP7 SUB SLT ISZERO PUSH2 0x1A2C JUMPI PUSH2 0x1A2B PUSH2 0x1677 JUMP JUMPDEST JUMPDEST PUSH1 0x0 DUP5 ADD CALLDATALOAD PUSH8 0xFFFFFFFFFFFFFFFF DUP2 GT ISZERO PUSH2 0x1A4A JUMPI PUSH2 0x1A49 PUSH2 0x167C JUMP JUMPDEST JUMPDEST PUSH2 0x1A56 DUP7 DUP3 DUP8 ADD PUSH2 0x1799 JUMP JUMPDEST SWAP4 POP POP PUSH1 0x20 DUP5 ADD CALLDATALOAD PUSH8 0xFFFFFFFFFFFFFFFF DUP2 GT ISZERO PUSH2 0x1A77 JUMPI PUSH2 0x1A76 PUSH2 0x167C JUMP JUMPDEST JUMPDEST PUSH2 0x1A83 DUP7 DUP3 DUP8 ADD PUSH2 0x1799 JUMP JUMPDEST SWAP3 POP POP PUSH1 0x40 PUSH2 0x1A94 DUP7 DUP3 DUP8 ADD PUSH2 0x18CE JUMP JUMPDEST SWAP2 POP POP SWAP3 POP SWAP3 POP SWAP3 JUMP JUMPDEST PUSH1 0x0 DUP2 MLOAD SWAP1 POP SWAP2 SWAP1 POP JUMP JUMPDEST PUSH1 0x0 DUP3 DUP3 MSTORE PUSH1 0x20 DUP3 ADD SWAP1 POP SWAP3 SWAP2 POP POP JUMP JUMPDEST PUSH1 0x0 DUP2 SWAP1 POP PUSH1 0x20 DUP3 ADD SWAP1 POP SWAP2 SWAP1 POP JUMP JUMPDEST PUSH1 0x0 DUP2 MLOAD SWAP1 POP SWAP2 SWAP1 POP JUMP JUMPDEST PUSH1 0x0 DUP3 DUP3 MSTORE PUSH1 0x20 DUP3 ADD SWAP1 POP SWAP3 SWAP2 POP POP JUMP JUMPDEST PUSH1 0x0 JUMPDEST DUP4 DUP2 LT ISZERO PUSH2 0x1B04 JUMPI DUP1 DUP3 ADD MLOAD DUP2 DUP5 ADD MSTORE PUSH1 0x20 DUP2 ADD SWAP1 POP PUSH2 0x1AE9 JUMP JUMPDEST DUP4 DUP2 GT ISZERO PUSH2 0x1B13 JUMPI PUSH1 0x0 DUP5 DUP5 ADD MSTORE JUMPDEST POP POP POP POP JUMP JUMPDEST PUSH1 0x0 PUSH2 0x1B24 DUP3 PUSH2 0x1ACA JUMP JUMPDEST PUSH2 0x1B2E DUP2 DUP6 PUSH2 0x1AD5 JUMP JUMPDEST SWAP4 POP PUSH2 0x1B3E DUP2 DUP6 PUSH1 0x20 DUP7 ADD PUSH2 0x1AE6 JUMP JUMPDEST PUSH2 0x1B47 DUP2 PUSH2 0x168B JUMP JUMPDEST DUP5 ADD SWAP2 POP POP SWAP3 SWAP2 POP POP JUMP JUMPDEST PUSH1 0x0 PUSH2 0x1B5E DUP4 DUP4 PUSH2 0x1B19 JUMP JUMPDEST SWAP1 POP SWAP3 SWAP2 POP POP JUMP JUMPDEST PUSH1 0x0 PUSH1 0x20 DUP3 ADD SWAP1 POP SWAP2 SWAP1 POP JUMP JUMPDEST PUSH1 0x0 PUSH2 0x1B7E DUP3 PUSH2 0x1A9E JUMP JUMPDEST PUSH2 0x1B88 DUP2 DUP6 PUSH2 0x1AA9 JUMP JUMPDEST SWAP4 POP DUP4 PUSH1 0x20 DUP3 MUL DUP6 ADD PUSH2 0x1B9A DUP6 PUSH2 0x1ABA JUMP JUMPDEST DUP1 PUSH1 0x0 JUMPDEST DUP6 DUP2 LT ISZERO PUSH2 0x1BD6 JUMPI DUP5 DUP5 SUB DUP10 MSTORE DUP2 MLOAD PUSH2 0x1BB7 DUP6 DUP3 PUSH2 0x1B52 JUMP JUMPDEST SWAP5 POP PUSH2 0x1BC2 DUP4 PUSH2 0x1B66 JUMP JUMPDEST SWAP3 POP PUSH1 0x20 DUP11 ADD SWAP10 POP POP PUSH1 0x1 DUP2 ADD SWAP1 POP PUSH2 0x1B9E JUMP JUMPDEST POP DUP3 SWAP8 POP DUP8 SWAP6 POP POP POP POP POP POP SWAP3 SWAP2 POP POP JUMP JUMPDEST PUSH1 0x0 PUSH1 0x20 DUP3 ADD SWAP1 POP DUP2 DUP2 SUB PUSH1 0x0 DUP4 ADD MSTORE PUSH2 0x1C02 DUP2 DUP5 PUSH2 0x1B73 JUMP JUMPDEST SWAP1 POP SWAP3 SWAP2 POP POP JUMP JUMPDEST PUSH2 0x1C13 DUP2 PUSH2 0x18AD JUMP JUMPDEST DUP3 MSTORE POP POP JUMP JUMPDEST PUSH1 0x0 PUSH1 0x20 DUP3 ADD SWAP1 POP PUSH2 0x1C2E PUSH1 0x0 DUP4 ADD DUP5 PUSH2 0x1C0A JUMP JUMPDEST SWAP3 SWAP2 POP POP JUMP JUMPDEST PUSH1 0x0 PUSH20 0xFFFFFFFFFFFFFFFFFFFFFFFFFFFFFFFFFFFFFFFF DUP3 AND SWAP1 POP SWAP2 SWAP1 POP JUMP JUMPDEST PUSH1 0x0 PUSH2 0x1C5F DUP3 PUSH2 0x1C34 JUMP JUMPDEST SWAP1 POP SWAP2 SWAP1 POP JUMP JUMPDEST PUSH2 0x1C6F DUP2 PUSH2 0x1C54 JUMP JUMPDEST DUP3 MSTORE POP POP JUMP JUMPDEST PUSH2 0x1C7E DUP2 PUSH2 0x18AD JUMP JUMPDEST DUP3 MSTORE POP POP JUMP JUMPDEST PUSH1 0x0 PUSH1 0x60 DUP4 ADD PUSH1 0x0 DUP4 ADD MLOAD PUSH2 0x1C9C PUSH1 0x0 DUP7 ADD DUP3 PUSH2 0x1C66 JUMP JUMPDEST POP PUSH1 0x20 DUP4 ADD MLOAD DUP5 DUP3 SUB PUSH1 0x20 DUP7 ADD MSTORE PUSH2 0x1CB4 DUP3 DUP3 PUSH2 0x1B19 JUMP JUMPDEST SWAP2 POP POP PUSH1 0x40 DUP4 ADD MLOAD PUSH2 0x1CC9 PUSH1 0x40 DUP7 ADD DUP3 PUSH2 0x1C75 JUMP JUMPDEST POP DUP1 SWAP2 POP POP SWAP3 SWAP2 POP POP JUMP JUMPDEST PUSH1 0x0 PUSH1 0x20 DUP3 ADD SWAP1 POP DUP2 DUP2 SUB PUSH1 0x0 DUP4 ADD MSTORE PUSH2 0x1CEE DUP2 DUP5 PUSH2 0x1C84 JUMP JUMPDEST SWAP1 POP SWAP3 SWAP2 POP POP JUMP JUMPDEST PUSH1 0x0 PUSH1 0x20 DUP3 DUP5 SUB SLT ISZERO PUSH2 0x1D0C JUMPI PUSH2 0x1D0B PUSH2 0x1677 JUMP JUMPDEST JUMPDEST PUSH1 0x0 PUSH2 0x1D1A DUP5 DUP3 DUP6 ADD PUSH2 0x18CE JUMP JUMPDEST SWAP2 POP POP SWAP3 SWAP2 POP POP JUMP JUMPDEST PUSH1 0x0 DUP2 SWAP1 POP SWAP3 SWAP2 POP POP JUMP JUMPDEST PUSH1 0x0 PUSH2 0x1D39 DUP3 PUSH2 0x1ACA JUMP JUMPDEST PUSH2 0x1D43 DUP2 DUP6 PUSH2 0x1D23 JUMP JUMPDEST SWAP4 POP PUSH2 0x1D53 DUP2 DUP6 PUSH1 0x20 DUP7 ADD PUSH2 0x1AE6 JUMP JUMPDEST DUP1 DUP5 ADD SWAP2 POP POP SWAP3 SWAP2 POP POP JUMP JUMPDEST PUSH1 0x0 PUSH2 0x1D6B DUP3 DUP5 PUSH2 0x1D2E JUMP JUMPDEST SWAP2 POP DUP2 SWAP1 POP SWAP3 SWAP2 POP POP JUMP JUMPDEST PUSH1 0x0 DUP3 DUP3 MSTORE PUSH1 0x20 DUP3 ADD SWAP1 POP SWAP3 SWAP2 POP POP JUMP JUMPDEST PUSH32 0x7472616E736665725F6661696C5F66726F6D5F6E616D655F6E6F745F65786973 PUSH1 0x0 DUP3 ADD MSTORE PUSH32 0x7400000000000000000000000000000000000000000000000000000000000000 PUSH1 0x20 DUP3 ADD MSTORE POP JUMP JUMPDEST PUSH1 0x0 PUSH2 0x1DE3 PUSH1 0x21 DUP4 PUSH2 0x1D76 JUMP JUMPDEST SWAP2 POP PUSH2 0x1DEE DUP3 PUSH2 0x1D87 JUMP JUMPDEST PUSH1 0x40 DUP3 ADD SWAP1 POP SWAP2 SWAP1 POP JUMP JUMPDEST PUSH1 0x0 PUSH1 0x20 DUP3 ADD SWAP1 POP DUP2 DUP2 SUB PUSH1 0x0 DUP4 ADD MSTORE PUSH2 0x1E12 DUP2 PUSH2 0x1DD6 JUMP JUMPDEST SWAP1 POP SWAP2 SWAP1 POP JUMP JUMPDEST PUSH32 0x7472616E736665725F6661696C5F66726F6D5F6E6F745F6F776E657200000000 PUSH1 0x0 DUP3 ADD MSTORE POP JUMP JUMPDEST PUSH1 0x0 PUSH2 0x1E4F PUSH1 0x1C DUP4 PUSH2 0x1D76 JUMP JUMPDEST SWAP2 POP PUSH2 0x1E5A DUP3 PUSH2 0x1E19 JUMP JUMPDEST PUSH1 0x20 DUP3 ADD SWAP1 POP SWAP2 SWAP1 POP JUMP JUMPDEST PUSH1 0x0 PUSH1 0x20 DUP3 ADD SWAP1 POP DUP2 DUP2 SUB PUSH1 0x0 DUP4 ADD MSTORE PUSH2 0x1E7E DUP2 PUSH2 0x1E42 JUMP JUMPDEST SWAP1 POP SWAP2 SWAP1 POP JUMP JUMPDEST PUSH32 0x7472616E736665725F6661696C5F76616C75655F6C6573735F7468616E5F3130 PUSH1 0x0 DUP3 ADD MSTORE PUSH32 0x3000000000000000000000000000000000000000000000000000000000000000 PUSH1 0x20 DUP3 ADD MSTORE POP JUMP JUMPDEST PUSH1 0x0 PUSH2 0x1EE1 PUSH1 0x21 DUP4 PUSH2 0x1D76 JUMP JUMPDEST SWAP2 POP PUSH2 0x1EEC DUP3 PUSH2 0x1E85 JUMP JUMPDEST PUSH1 0x40 DUP3 ADD SWAP1 POP SWAP2 SWAP1 POP JUMP JUMPDEST PUSH1 0x0 PUSH1 0x20 DUP3 ADD SWAP1 POP DUP2 DUP2 SUB PUSH1 0x0 DUP4 ADD MSTORE PUSH2 0x1F10 DUP2 PUSH2 0x1ED4 JUMP JUMPDEST SWAP1 POP SWAP2 SWAP1 POP JUMP JUMPDEST PUSH32 0x4E487B7100000000000000000000000000000000000000000000000000000000 PUSH1 0x0 MSTORE PUSH1 0x11 PUSH1 0x4 MSTORE PUSH1 0x24 PUSH1 0x0 REVERT JUMPDEST PUSH1 0x0 PUSH2 0x1F51 DUP3 PUSH2 0x18AD JUMP JUMPDEST SWAP2 POP PUSH2 0x1F5C DUP4 PUSH2 0x18AD JUMP JUMPDEST SWAP3 POP DUP2 PUSH32 0xFFFFFFFFFFFFFFFFFFFFFFFFFFFFFFFFFFFFFFFFFFFFFFFFFFFFFFFFFFFFFFFF DIV DUP4 GT DUP3 ISZERO ISZERO AND ISZERO PUSH2 0x1F95 JUMPI PUSH2 0x1F94 PUSH2 0x1F17 JUMP JUMPDEST JUMPDEST DUP3 DUP3 MUL SWAP1 POP SWAP3 SWAP2 POP POP JUMP JUMPDEST PUSH32 0x7472616E736665725F6661696C5F66726F6D5F62616C616E63655F6E6F745F65 PUSH1 0x0 DUP3 ADD MSTORE PUSH32 0x6E6F756768000000000000000000000000000000000000000000000000000000 PUSH1 0x20 DUP3 ADD MSTORE POP JUMP JUMPDEST PUSH1 0x0 PUSH2 0x1FFC PUSH1 0x25 DUP4 PUSH2 0x1D76 JUMP JUMPDEST SWAP2 POP PUSH2 0x2007 DUP3 PUSH2 0x1FA0 JUMP JUMPDEST PUSH1 0x40 DUP3 ADD SWAP1 POP SWAP2 SWAP1 POP JUMP JUMPDEST PUSH1 0x0 PUSH1 0x20 DUP3 ADD SWAP1 POP DUP2 DUP2 SUB PUSH1 0x0 DUP4 ADD MSTORE PUSH2 0x202B DUP2 PUSH2 0x1FEF JUMP JUMPDEST SWAP1 POP SWAP2 SWAP1 POP JUMP JUMPDEST PUSH32 0x4E487B7100000000000000000000000000000000000000000000000000000000 PUSH1 0x0 MSTORE PUSH1 0x32 PUSH1 0x4 MSTORE PUSH1 0x24 PUSH1 0x0 REVERT JUMPDEST PUSH32 0x7472616E736665725F6661696C5F746F5F6E616D655F6E6F745F657869737400 PUSH1 0x0 DUP3 ADD MSTORE POP JUMP JUMPDEST PUSH1 0x0 PUSH2 0x2097 PUSH1 0x1F DUP4 PUSH2 0x1D76 JUMP JUMPDEST SWAP2 POP PUSH2 0x20A2 DUP3 PUSH2 0x2061 JUMP JUMPDEST PUSH1 0x20 DUP3 ADD SWAP1 POP SWAP2 SWAP1 POP JUMP JUMPDEST PUSH1 0x0 PUSH1 0x20 DUP3 ADD SWAP1 POP DUP2 DUP2 SUB PUSH1 0x0 DUP4 ADD MSTORE PUSH2 0x20C6 DUP2 PUSH2 0x208A JUMP JUMPDEST SWAP1 POP SWAP2 SWAP1 POP JUMP JUMPDEST PUSH32 0x4E487B7100000000000000000000000000000000000000000000000000000000 PUSH1 0x0 MSTORE PUSH1 0x12 PUSH1 0x4 MSTORE PUSH1 0x24 PUSH1 0x0 REVERT JUMPDEST PUSH1 0x0 PUSH2 0x2107 DUP3 PUSH2 0x18AD JUMP JUMPDEST SWAP2 POP PUSH2 0x2112 DUP4 PUSH2 0x18AD JUMP JUMPDEST SWAP3 POP DUP3 PUSH2 0x2122 JUMPI PUSH2 0x2121 PUSH2 0x20CD JUMP JUMPDEST JUMPDEST DUP3 DUP3 DIV SWAP1 POP SWAP3 SWAP2 POP POP JUMP JUMPDEST PUSH1 0x0 PUSH2 0x2138 DUP3 PUSH2 0x18AD JUMP JUMPDEST SWAP2 POP PUSH2 0x2143 DUP4 PUSH2 0x18AD JUMP JUMPDEST SWAP3 POP DUP3 PUSH32 0xFFFFFFFFFFFFFFFFFFFFFFFFFFFFFFFFFFFFFFFFFFFFFFFFFFFFFFFFFFFFFFFF SUB DUP3 GT ISZERO PUSH2 0x2178 JUMPI PUSH2 0x2177 PUSH2 0x1F17 JUMP JUMPDEST JUMPDEST DUP3 DUP3 ADD SWAP1 POP SWAP3 SWAP2 POP POP JUMP JUMPDEST PUSH1 0x0 PUSH2 0x218E DUP3 PUSH2 0x18AD JUMP JUMPDEST SWAP2 POP PUSH2 0x2199 DUP4 PUSH2 0x18AD JUMP JUMPDEST SWAP3 POP DUP3 DUP3 LT ISZERO PUSH2 0x21AC JUMPI PUSH2 0x21AB PUSH2 0x1F17 JUMP JUMPDEST JUMPDEST DUP3 DUP3 SUB SWAP1 POP SWAP3 SWAP2 POP POP JUMP JUMPDEST PUSH1 0x0 PUSH2 0x21C2 DUP3 PUSH2 0x1ACA JUMP JUMPDEST PUSH2 0x21CC DUP2 DUP6 PUSH2 0x1D76 JUMP JUMPDEST SWAP4 POP PUSH2 0x21DC DUP2 DUP6 PUSH1 0x20 DUP7 ADD PUSH2 0x1AE6 JUMP JUMPDEST PUSH2 0x21E5 DUP2 PUSH2 0x168B JUMP JUMPDEST DUP5 ADD SWAP2 POP POP SWAP3 SWAP2 POP POP JUMP JUMPDEST PUSH1 0x0 PUSH1 0x60 DUP3 ADD SWAP1 POP DUP2 DUP2 SUB PUSH1 0x0 DUP4 ADD MSTORE PUSH2 0x220A DUP2 DUP7 PUSH2 0x21B7 JUMP JUMPDEST SWAP1 POP DUP2 DUP2 SUB PUSH1 0x20 DUP4 ADD MSTORE PUSH2 0x221E DUP2 DUP6 PUSH2 0x21B7 JUMP JUMPDEST SWAP1 POP PUSH2 0x222D PUSH1 0x40 DUP4 ADD DUP5 PUSH2 0x1C0A JUMP JUMPDEST SWAP5 SWAP4 POP POP POP POP JUMP JUMPDEST PUSH1 0x0 PUSH2 0x2240 DUP3 PUSH2 0x18AD JUMP JUMPDEST SWAP2 POP PUSH32 0xFFFFFFFFFFFFFFFFFFFFFFFFFFFFFFFFFFFFFFFFFFFFFFFFFFFFFFFFFFFFFFFF DUP3 SUB PUSH2 0x2272 JUMPI PUSH2 0x2271 PUSH2 0x1F17 JUMP JUMPDEST JUMPDEST PUSH1 0x1 DUP3 ADD SWAP1 POP SWAP2 SWAP1 POP JUMP JUMPDEST PUSH32 0x6164645F6163636F756E745F6661696C5F6E616D655F65786973740000000000 PUSH1 0x0 DUP3 ADD MSTORE POP JUMP JUMPDEST PUSH1 0x0 PUSH2 0x22B3 PUSH1 0x1B DUP4 PUSH2 0x1D76 JUMP JUMPDEST SWAP2 POP PUSH2 0x22BE DUP3 PUSH2 0x227D JUMP JUMPDEST PUSH1 0x20 DUP3 ADD SWAP1 POP SWAP2 SWAP1 POP JUMP JUMPDEST PUSH1 0x0 PUSH1 0x20 DUP3 ADD SWAP1 POP DUP2 DUP2 SUB PUSH1 0x0 DUP4 ADD MSTORE PUSH2 0x22E2 DUP2 PUSH2 0x22A6 JUMP JUMPDEST SWAP1 POP SWAP2 SWAP1 POP JUMP JUMPDEST PUSH32 0x4E487B7100000000000000000000000000000000000000000000000000000000 PUSH1 0x0 MSTORE PUSH1 0x22 PUSH1 0x4 MSTORE PUSH1 0x24 PUSH1 0x0 REVERT JUMPDEST PUSH1 0x0 PUSH1 0x2 DUP3 DIV SWAP1 POP PUSH1 0x1 DUP3 AND DUP1 PUSH2 0x2330 JUMPI PUSH1 0x7F DUP3 AND SWAP2 POP JUMPDEST PUSH1 0x20 DUP3 LT DUP2 SUB PUSH2 0x2343 JUMPI PUSH2 0x2342 PUSH2 0x22E9 JUMP JUMPDEST JUMPDEST POP SWAP2 SWAP1 POP JUMP JUMPDEST PUSH1 0x0 DUP2 SWAP1 POP DUP2 PUSH1 0x0 MSTORE PUSH1 0x20 PUSH1 0x0 KECCAK256 SWAP1 POP SWAP2 SWAP1 POP JUMP JUMPDEST PUSH1 0x0 PUSH1 0x20 PUSH1 0x1F DUP4 ADD DIV SWAP1 POP SWAP2 SWAP1 POP JUMP JUMPDEST PUSH1 0x0 DUP3 DUP3 SHL SWAP1 POP SWAP3 SWAP2 POP POP JUMP JUMPDEST PUSH1 0x0 PUSH1 0x8 DUP4 MUL PUSH2 0x23AB PUSH32 0xFFFFFFFFFFFFFFFFFFFFFFFFFFFFFFFFFFFFFFFFFFFFFFFFFFFFFFFFFFFFFFFF DUP3 PUSH2 0x236E JUMP JUMPDEST PUSH2 0x23B5 DUP7 DUP4 PUSH2 0x236E JUMP JUMPDEST SWAP6 POP DUP1 NOT DUP5 AND SWAP4 POP DUP1 DUP7 AND DUP5 OR SWAP3 POP POP POP SWAP4 SWAP3 POP POP POP JUMP JUMPDEST PUSH1 0x0 DUP2 SWAP1 POP SWAP2 SWAP1 POP JUMP JUMPDEST PUSH1 0x0 PUSH2 0x23F2 PUSH2 0x23ED PUSH2 0x23E8 DUP5 PUSH2 0x18AD JUMP JUMPDEST PUSH2 0x23CD JUMP JUMPDEST PUSH2 0x18AD JUMP JUMPDEST SWAP1 POP SWAP2 SWAP1 POP JUMP JUMPDEST PUSH1 0x0 DUP2 SWAP1 POP SWAP2 SWAP1 POP JUMP JUMPDEST PUSH2 0x240C DUP4 PUSH2 0x23D7 JUMP JUMPDEST PUSH2 0x2420 PUSH2 0x2418 DUP3 PUSH2 0x23F9 JUMP JUMPDEST DUP5 DUP5 SLOAD PUSH2 0x237B JUMP JUMPDEST DUP3 SSTORE POP POP POP POP JUMP JUMPDEST PUSH1 0x0 SWAP1 JUMP JUMPDEST PUSH2 0x2435 PUSH2 0x2428 JUMP JUMPDEST PUSH2 0x2440 DUP2 DUP5 DUP5 PUSH2 0x2403 JUMP JUMPDEST POP POP POP JUMP JUMPDEST JUMPDEST DUP2 DUP2 LT ISZERO PUSH2 0x2464 JUMPI PUSH2 0x2459 PUSH1 0x0 DUP3 PUSH2 0x242D JUMP JUMPDEST PUSH1 0x1 DUP2 ADD SWAP1 POP PUSH2 0x2446 JUMP JUMPDEST POP POP JUMP JUMPDEST PUSH1 0x1F DUP3 GT ISZERO PUSH2 0x24A9 JUMPI PUSH2 0x247A DUP2 PUSH2 0x2349 JUMP JUMPDEST PUSH2 0x2483 DUP5 PUSH2 0x235E JUMP JUMPDEST DUP2 ADD PUSH1 0x20 DUP6 LT ISZERO PUSH2 0x2492 JUMPI DUP2 SWAP1 POP JUMPDEST PUSH2 0x24A6 PUSH2 0x249E DUP6 PUSH2 0x235E JUMP JUMPDEST DUP4 ADD DUP3 PUSH2 0x2445 JUMP JUMPDEST POP POP JUMPDEST POP POP POP JUMP JUMPDEST PUSH1 0x0 DUP3 DUP3 SHR SWAP1 POP SWAP3 SWAP2 POP POP JUMP JUMPDEST PUSH1 0x0 PUSH2 0x24CC PUSH1 0x0 NOT DUP5 PUSH1 0x8 MUL PUSH2 0x24AE JUMP JUMPDEST NOT DUP1 DUP4 AND SWAP2 POP POP SWAP3 SWAP2 POP POP JUMP JUMPDEST PUSH1 0x0 PUSH2 0x24E5 DUP4 DUP4 PUSH2 0x24BB JUMP JUMPDEST SWAP2 POP DUP3 PUSH1 0x2 MUL DUP3 OR SWAP1 POP SWAP3 SWAP2 POP POP JUMP JUMPDEST PUSH2 0x24FE DUP3 PUSH2 0x1ACA JUMP JUMPDEST PUSH8 0xFFFFFFFFFFFFFFFF DUP2 GT ISZERO PUSH2 0x2517 JUMPI PUSH2 0x2516 PUSH2 0x169C JUMP JUMPDEST JUMPDEST PUSH2 0x2521 DUP3 SLOAD PUSH2 0x2318 JUMP JUMPDEST PUSH2 0x252C DUP3 DUP3 DUP6 PUSH2 0x2468 JUMP JUMPDEST PUSH1 0x0 PUSH1 0x20 SWAP1 POP PUSH1 0x1F DUP4 GT PUSH1 0x1 DUP2 EQ PUSH2 0x255F JUMPI PUSH1 0x0 DUP5 ISZERO PUSH2 0x254D JUMPI DUP3 DUP8 ADD MLOAD SWAP1 POP JUMPDEST PUSH2 0x2557 DUP6 DUP3 PUSH2 0x24D9 JUMP JUMPDEST DUP7 SSTORE POP PUSH2 0x25BF JUMP JUMPDEST PUSH1 0x1F NOT DUP5 AND PUSH2 0x256D DUP7 PUSH2 0x2349 JUMP JUMPDEST PUSH1 0x0 JUMPDEST DUP3 DUP2 LT ISZERO PUSH2 0x2595 JUMPI DUP5 DUP10 ADD MLOAD DUP3 SSTORE PUSH1 0x1 DUP3 ADD SWAP2 POP PUSH1 0x20 DUP6 ADD SWAP5 POP PUSH1 0x20 DUP2 ADD SWAP1 POP PUSH2 0x2570 JUMP JUMPDEST DUP7 DUP4 LT ISZERO PUSH2 0x25B2 JUMPI DUP5 DUP10 ADD MLOAD PUSH2 0x25AE PUSH1 0x1F DUP10 AND DUP3 PUSH2 0x24BB JUMP JUMPDEST DUP4 SSTORE POP JUMPDEST PUSH1 0x1 PUSH1 0x2 DUP9 MUL ADD DUP9 SSTORE POP POP POP JUMPDEST POP POP POP POP POP POP JUMP JUMPDEST PUSH2 0x25D0 DUP2 PUSH2 0x1C54 JUMP JUMPDEST DUP3 MSTORE POP POP JUMP JUMPDEST PUSH1 0x0 PUSH1 0x40 DUP3 ADD SWAP1 POP PUSH2 0x25EB PUSH1 0x0 DUP4 ADD DUP6 PUSH2 0x25C7 JUMP JUMPDEST DUP2 DUP2 SUB PUSH1 0x20 DUP4 ADD MSTORE PUSH2 0x25FD DUP2 DUP5 PUSH2 0x21B7 JUMP JUMPDEST SWAP1 POP SWAP4 SWAP3 POP POP POP JUMP JUMPDEST PUSH32 0x77697468647261776E5F6661696C5F6E616D655F6E6F745F6578697374000000 PUSH1 0x0 DUP3 ADD MSTORE POP JUMP JUMPDEST PUSH1 0x0 PUSH2 0x263C PUSH1 0x1D DUP4 PUSH2 0x1D76 JUMP JUMPDEST SWAP2 POP PUSH2 0x2647 DUP3 PUSH2 0x2606 JUMP JUMPDEST PUSH1 0x20 DUP3 ADD SWAP1 POP SWAP2 SWAP1 POP JUMP JUMPDEST PUSH1 0x0 PUSH1 0x20 DUP3 ADD SWAP1 POP DUP2 DUP2 SUB PUSH1 0x0 DUP4 ADD MSTORE PUSH2 0x266B DUP2 PUSH2 0x262F JUMP JUMPDEST SWAP1 POP SWAP2 SWAP1 POP JUMP JUMPDEST PUSH32 0x77697468647261776E5F6661696C5F6E6F745F6F776E65720000000000000000 PUSH1 0x0 DUP3 ADD MSTORE POP JUMP JUMPDEST PUSH1 0x0 PUSH2 0x26A8 PUSH1 0x18 DUP4 PUSH2 0x1D76 JUMP JUMPDEST SWAP2 POP PUSH2 0x26B3 DUP3 PUSH2 0x2672 JUMP JUMPDEST PUSH1 0x20 DUP3 ADD SWAP1 POP SWAP2 SWAP1 POP JUMP JUMPDEST PUSH1 0x0 PUSH1 0x20 DUP3 ADD SWAP1 POP DUP2 DUP2 SUB PUSH1 0x0 DUP4 ADD MSTORE PUSH2 0x26D7 DUP2 PUSH2 0x269B JUMP JUMPDEST SWAP1 POP SWAP2 SWAP1 POP JUMP JUMPDEST PUSH32 0x77697468647261776E5F6661696C5F76616C75655F7A65726F00000000000000 PUSH1 0x0 DUP3 ADD MSTORE POP JUMP JUMPDEST PUSH1 0x0 PUSH2 0x2714 PUSH1 0x19 DUP4 PUSH2 0x1D76 JUMP JUMPDEST SWAP2 POP PUSH2 0x271F DUP3 PUSH2 0x26DE JUMP JUMPDEST PUSH1 0x20 DUP3 ADD SWAP1 POP SWAP2 SWAP1 POP JUMP JUMPDEST PUSH1 0x0 PUSH1 0x20 DUP3 ADD SWAP1 POP DUP2 DUP2 SUB PUSH1 0x0 DUP4 ADD MSTORE PUSH2 0x2743 DUP2 PUSH2 0x2707 JUMP JUMPDEST SWAP1 POP SWAP2 SWAP1 POP JUMP JUMPDEST PUSH32 0x77697468647261776E5F6661696C5F62616C616E63655F6E6F745F656E6F7567 PUSH1 0x0 DUP3 ADD MSTORE PUSH32 0x6800000000000000000000000000000000000000000000000000000000000000 PUSH1 0x20 DUP3 ADD MSTORE POP JUMP JUMPDEST PUSH1 0x0 PUSH2 0x27A6 PUSH1 0x21 DUP4 PUSH2 0x1D76 JUMP JUMPDEST SWAP2 POP PUSH2 0x27B1 DUP3 PUSH2 0x274A JUMP JUMPDEST PUSH1 0x40 DUP3 ADD SWAP1 POP SWAP2 SWAP1 POP JUMP JUMPDEST PUSH1 0x0 PUSH1 0x20 DUP3 ADD SWAP1 POP DUP2 DUP2 SUB PUSH1 0x0 DUP4 ADD MSTORE PUSH2 0x27D5 DUP2 PUSH2 0x2799 JUMP JUMPDEST SWAP1 POP SWAP2 SWAP1 POP JUMP JUMPDEST PUSH1 0x0 PUSH1 0x60 DUP3 ADD SWAP1 POP DUP2 DUP2 SUB PUSH1 0x0 DUP4 ADD MSTORE PUSH2 0x27F6 DUP2 DUP7 PUSH2 0x21B7 JUMP JUMPDEST SWAP1 POP PUSH2 0x2805 PUSH1 0x20 DUP4 ADD DUP6 PUSH2 0x25C7 JUMP JUMPDEST PUSH2 0x2812 PUSH1 0x40 DUP4 ADD DUP5 PUSH2 0x1C0A JUMP JUMPDEST SWAP5 SWAP4 POP POP POP POP JUMP JUMPDEST PUSH32 0x6465706F7369745F6661696C5F6E616D655F6E6F745F65786973740000000000 PUSH1 0x0 DUP3 ADD MSTORE POP JUMP JUMPDEST PUSH1 0x0 PUSH2 0x2850 PUSH1 0x1B DUP4 PUSH2 0x1D76 JUMP JUMPDEST SWAP2 POP PUSH2 0x285B DUP3 PUSH2 0x281A JUMP JUMPDEST PUSH1 0x20 DUP3 ADD SWAP1 POP SWAP2 SWAP1 POP JUMP JUMPDEST PUSH1 0x0 PUSH1 0x20 DUP3 ADD SWAP1 POP DUP2 DUP2 SUB PUSH1 0x0 DUP4 ADD MSTORE PUSH2 0x287F DUP2 PUSH2 0x2843 JUMP JUMPDEST SWAP1 POP SWAP2 SWAP1 POP JUMP JUMPDEST PUSH32 0x6465706F7369745F6661696C5F76616C75655F7A65726F000000000000000000 PUSH1 0x0 DUP3 ADD MSTORE POP JUMP JUMPDEST PUSH1 0x0 PUSH2 0x28BC PUSH1 0x17 DUP4 PUSH2 0x1D76 JUMP JUMPDEST SWAP2 POP PUSH2 0x28C7 DUP3 PUSH2 0x2886 JUMP JUMPDEST PUSH1 0x20 DUP3 ADD SWAP1 POP SWAP2 SWAP1 POP JUMP JUMPDEST PUSH1 0x0 PUSH1 0x20 DUP3 ADD SWAP1 POP DUP2 DUP2 SUB PUSH1 0x0 DUP4 ADD MSTORE PUSH2 0x28EB DUP2 PUSH2 0x28AF JUMP JUMPDEST SWAP1 POP SWAP2 SWAP1 POP JUMP JUMPDEST PUSH1 0x0 PUSH1 0x60 DUP3 ADD SWAP1 POP PUSH2 0x2907 PUSH1 0x0 DUP4 ADD DUP7 PUSH2 0x25C7 JUMP JUMPDEST DUP2 DUP2 SUB PUSH1 0x20 DUP4 ADD MSTORE PUSH2 0x2919 DUP2 DUP6 PUSH2 0x21B7 JUMP JUMPDEST SWAP1 POP PUSH2 0x2928 PUSH1 0x40 DUP4 ADD DUP5 PUSH2 0x1C0A JUMP JUMPDEST SWAP5 SWAP4 POP POP POP POP JUMP INVALID LOG2 PUSH5 0x6970667358 0x22 SLT KECCAK256 0xDD EXTCODEHASH PUSH16 0xFE6273C8E192EFB633504BB02142990C PUSH6 0x3DEEC89E918B RETURNDATACOPY CHAINID LOG3 0xAC 0x26 0xDF PUSH5 0x736F6C6343 STOP ADDMOD 0xF STOP CALLER "
				},
				"gasEstimates": {
					"creation": {
						"codeDepositCost": "2119600",
						"executionCost": "31538",
						"totalCost": "2151138"
					},
					"external": {
						"addAccount(string)": "infinite",
						"deposit(string)": "infinite",
						"getAccountByName(string)": "infinite",
						"getBalanceByName(string)": "infinite",
						"getUserAccounts()": "infinite",
						"transferAmount(string,string,uint256)": "infinite",
						"transferAmountList(string,string[],uint256)": "infinite",
						"withdrawn(string,uint256)": "infinite",
						"withdrawnBankBalance(uint256)": "infinite"
					}
				},
				"methodIdentifiers": {
					"addAccount(string)": "2ad26a04",
					"deposit(string)": "a26e1186",
					"getAccountByName(string)": "df4734ed",
					"getBalanceByName(string)": "ca1ae01c",
					"getUserAccounts()": "a43e567a",
					"transferAmount(string,string,uint256)": "5e345810",
					"transferAmountList(string,string[],uint256)": "16dfc5b2",
					"withdrawn(string,uint256)": "358eecb6",
					"withdrawnBankBalance(uint256)": "f8a0e8c3"
				}
			},
			"storageLayout": {
				"storage": [
					{
						"astId": 3,
						"contract": "contracts/SimpleBank/SimpleBank.sol:SimpleBank",
						"label": "bankOwner",
						"offset": 0,
						"slot": "0",
						"type": "t_address"
					},
					{
						"astId": 5,
						"contract": "contracts/SimpleBank/SimpleBank.sol:SimpleBank",
						"label": "bankBalance",
						"offset": 0,
						"slot": "1",
						"type": "t_uint256"
					},
					{
						"astId": 17,
						"contract": "contracts/SimpleBank/SimpleBank.sol:SimpleBank",
						"label": "userAccounts",
						"offset": 0,
						"slot": "2",
						"type": "t_mapping(t_address,t_array(t_string_storage)dyn_storage)"
					},
					{
						"astId": 22,
						"contract": "contracts/SimpleBank/SimpleBank.sol:SimpleBank",
						"label": "accounts",
						"offset": 0,
						"slot": "3",
						"type": "t_mapping(t_string_memory_ptr,t_struct(Account)12_storage)"
					},
					{
						"astId": 26,
						"contract": "contracts/SimpleBank/SimpleBank.sol:SimpleBank",
						"label": "isAccountNameExist",
						"offset": 0,
						"slot": "4",
						"type": "t_mapping(t_string_memory_ptr,t_bool)"
					}
				],
				"types": {
					"t_address": {
						"encoding": "inplace",
						"label": "address",
						"numberOfBytes": "20"
					},
					"t_array(t_string_storage)dyn_storage": {
						"base": "t_string_storage",
						"encoding": "dynamic_array",
						"label": "string[]",
						"numberOfBytes": "32"
					},
					"t_bool": {
						"encoding": "inplace",
						"label": "bool",
						"numberOfBytes": "1"
					},
					"t_mapping(t_address,t_array(t_string_storage)dyn_storage)": {
						"encoding": "mapping",
						"key": "t_address",
						"label": "mapping(address => string[])",
						"numberOfBytes": "32",
						"value": "t_array(t_string_storage)dyn_storage"
					},
					"t_mapping(t_string_memory_ptr,t_bool)": {
						"encoding": "mapping",
						"key": "t_string_memory_ptr",
						"label": "mapping(string => bool)",
						"numberOfBytes": "32",
						"value": "t_bool"
					},
					"t_mapping(t_string_memory_ptr,t_struct(Account)12_storage)": {
						"encoding": "mapping",
						"key": "t_string_memory_ptr",
						"label": "mapping(string => struct SimpleBank.Account)",
						"numberOfBytes": "32",
						"value": "t_struct(Account)12_storage"
					},
					"t_string_memory_ptr": {
						"encoding": "bytes",
						"label": "string",
						"numberOfBytes": "32"
					},
					"t_string_storage": {
						"encoding": "bytes",
						"label": "string",
						"numberOfBytes": "32"
					},
					"t_struct(Account)12_storage": {
						"encoding": "inplace",
						"label": "struct SimpleBank.Account",
						"members": [
							{
								"astId": 7,
								"contract": "contracts/SimpleBank/SimpleBank.sol:SimpleBank",
								"label": "owner",
								"offset": 0,
								"slot": "0",
								"type": "t_address"
							},
							{
								"astId": 9,
								"contract": "contracts/SimpleBank/SimpleBank.sol:SimpleBank",
								"label": "name",
								"offset": 0,
								"slot": "1",
								"type": "t_string_storage"
							},
							{
								"astId": 11,
								"contract": "contracts/SimpleBank/SimpleBank.sol:SimpleBank",
								"label": "balance",
								"offset": 0,
								"slot": "2",
								"type": "t_uint256"
							}
						],
						"numberOfBytes": "96"
					},
					"t_uint256": {
						"encoding": "inplace",
						"label": "uint256",
						"numberOfBytes": "32"
					}
				}
			},
			"userdoc": {
				"kind": "user",
				"methods": {},
				"version": 1
			}
		}
	}
}