{
	"contracts/SimpleBank/SimpleBank.sol": {
		"SimpleBank": {
			"abi": [
				{
					"inputs": [],
					"stateMutability": "nonpayable",
					"type": "constructor"
				},
				{
					"anonymous": false,
					"inputs": [
						{
							"indexed": false,
							"internalType": "address",
							"name": "_user",
							"type": "address"
						},
						{
							"indexed": false,
							"internalType": "string",
							"name": "_name",
							"type": "string"
						}
					],
					"name": "AddAccountEvent",
					"type": "event"
				},
				{
					"anonymous": false,
					"inputs": [
						{
							"indexed": false,
							"internalType": "address",
							"name": "_from",
							"type": "address"
						},
						{
							"indexed": false,
							"internalType": "string",
							"name": "_to",
							"type": "string"
						},
						{
							"indexed": false,
							"internalType": "uint256",
							"name": "_amount",
							"type": "uint256"
						}
					],
					"name": "DepositEvent",
					"type": "event"
				},
				{
					"anonymous": false,
					"inputs": [
						{
							"indexed": false,
							"internalType": "string",
							"name": "_from",
							"type": "string"
						},
						{
							"indexed": false,
							"internalType": "string",
							"name": "_to",
							"type": "string"
						},
						{
							"indexed": false,
							"internalType": "uint256",
							"name": "_amount",
							"type": "uint256"
						}
					],
					"name": "TransferAmountEvent",
					"type": "event"
				},
				{
					"anonymous": false,
					"inputs": [
						{
							"indexed": false,
							"internalType": "string",
							"name": "_from",
							"type": "string"
						},
						{
							"indexed": false,
							"internalType": "address",
							"name": "_to",
							"type": "address"
						},
						{
							"indexed": false,
							"internalType": "uint256",
							"name": "_amount",
							"type": "uint256"
						}
					],
					"name": "WithdrawnEvent",
					"type": "event"
				},
				{
					"inputs": [
						{
							"internalType": "string",
							"name": "_name",
							"type": "string"
						}
					],
					"name": "addAccount",
					"outputs": [],
					"stateMutability": "nonpayable",
					"type": "function"
				},
				{
					"inputs": [
						{
							"internalType": "string",
							"name": "_name",
							"type": "string"
						}
					],
					"name": "deposit",
					"outputs": [],
					"stateMutability": "payable",
					"type": "function"
				},
				{
					"inputs": [
						{
							"internalType": "string",
							"name": "_name",
							"type": "string"
						}
					],
					"name": "getAccountByName",
					"outputs": [
						{
							"components": [
								{
									"internalType": "address",
									"name": "owner",
									"type": "address"
								},
								{
									"internalType": "string",
									"name": "name",
									"type": "string"
								},
								{
									"internalType": "uint256",
									"name": "balance",
									"type": "uint256"
								}
							],
							"internalType": "struct SimpleBank.Account",
							"name": "",
							"type": "tuple"
						}
					],
					"stateMutability": "view",
					"type": "function"
				},
				{
					"inputs": [
						{
							"internalType": "string",
							"name": "_name",
							"type": "string"
						}
					],
					"name": "getBalanceByName",
					"outputs": [
						{
							"internalType": "uint256",
							"name": "",
							"type": "uint256"
						}
					],
					"stateMutability": "view",
					"type": "function"
				},
				{
					"inputs": [
						{
							"internalType": "address",
							"name": "_user",
							"type": "address"
						}
					],
					"name": "getUserAccounts",
					"outputs": [
						{
							"internalType": "string[]",
							"name": "",
							"type": "string[]"
						}
					],
					"stateMutability": "view",
					"type": "function"
				},
				{
					"inputs": [
						{
							"internalType": "string",
							"name": "_from",
							"type": "string"
						},
						{
							"internalType": "string",
							"name": "_to",
							"type": "string"
						},
						{
							"internalType": "uint256",
							"name": "_amount",
							"type": "uint256"
						}
					],
					"name": "transferAmount",
					"outputs": [],
					"stateMutability": "nonpayable",
					"type": "function"
				},
				{
					"inputs": [
						{
							"internalType": "string",
							"name": "_from",
							"type": "string"
						},
						{
							"internalType": "string[]",
							"name": "_tos",
							"type": "string[]"
						},
						{
							"internalType": "uint256",
							"name": "_amount",
							"type": "uint256"
						}
					],
					"name": "transferAmountList",
					"outputs": [],
					"stateMutability": "nonpayable",
					"type": "function"
				},
				{
					"inputs": [
						{
							"internalType": "string",
							"name": "_name",
							"type": "string"
						},
						{
							"internalType": "uint256",
							"name": "_amount",
							"type": "uint256"
						}
					],
					"name": "withdrawn",
					"outputs": [],
					"stateMutability": "nonpayable",
					"type": "function"
				},
				{
					"inputs": [
						{
							"internalType": "uint256",
							"name": "_amount",
							"type": "uint256"
						}
					],
					"name": "withdrawnBankBalance",
					"outputs": [],
					"stateMutability": "nonpayable",
					"type": "function"
				}
			],
			"devdoc": {
				"kind": "dev",
				"methods": {},
				"version": 1
			},
			"evm": {
				"assembly": "    /* \"contracts/SimpleBank/SimpleBank.sol\":62:5739  contract SimpleBank {... */\n  mstore(0x40, 0x80)\n    /* \"contracts/SimpleBank/SimpleBank.sol\":385:466  constructor() {... */\n  callvalue\n  dup1\n  iszero\n  tag_1\n  jumpi\n  0x00\n  dup1\n  revert\ntag_1:\n  pop\n    /* \"contracts/SimpleBank/SimpleBank.sol\":422:432  msg.sender */\n  caller\n    /* \"contracts/SimpleBank/SimpleBank.sol\":410:419  bankOwner */\n  0x00\n  dup1\n    /* \"contracts/SimpleBank/SimpleBank.sol\":410:432  bankOwner = msg.sender */\n  0x0100\n  exp\n  dup2\n  sload\n  dup2\n  0xffffffffffffffffffffffffffffffffffffffff\n  mul\n  not\n  and\n  swap1\n  dup4\n  0xffffffffffffffffffffffffffffffffffffffff\n  and\n  mul\n  or\n  swap1\n  sstore\n  pop\n    /* \"contracts/SimpleBank/SimpleBank.sol\":457:458  0 */\n  0x00\n    /* \"contracts/SimpleBank/SimpleBank.sol\":443:454  bankBalance */\n  0x01\n    /* \"contracts/SimpleBank/SimpleBank.sol\":443:458  bankBalance = 0 */\n  dup2\n  swap1\n  sstore\n  pop\n    /* \"contracts/SimpleBank/SimpleBank.sol\":62:5739  contract SimpleBank {... */\n  dataSize(sub_0)\n  dup1\n  dataOffset(sub_0)\n  0x00\n  codecopy\n  0x00\n  return\nstop\n\nsub_0: assembly {\n        /* \"contracts/SimpleBank/SimpleBank.sol\":62:5739  contract SimpleBank {... */\n      mstore(0x40, 0x80)\n      jumpi(tag_1, lt(calldatasize, 0x04))\n      shr(0xe0, calldataload(0x00))\n      dup1\n      0xa26e1186\n      gt\n      tag_11\n      jumpi\n      dup1\n      0xa26e1186\n      eq\n      tag_6\n      jumpi\n      dup1\n      0xad872a86\n      eq\n      tag_7\n      jumpi\n      dup1\n      0xca1ae01c\n      eq\n      tag_8\n      jumpi\n      dup1\n      0xdf4734ed\n      eq\n      tag_9\n      jumpi\n      dup1\n      0xf8a0e8c3\n      eq\n      tag_10\n      jumpi\n      jump(tag_1)\n    tag_11:\n      dup1\n      0x16dfc5b2\n      eq\n      tag_2\n      jumpi\n      dup1\n      0x2ad26a04\n      eq\n      tag_3\n      jumpi\n      dup1\n      0x358eecb6\n      eq\n      tag_4\n      jumpi\n      dup1\n      0x5e345810\n      eq\n      tag_5\n      jumpi\n    tag_1:\n      0x00\n      dup1\n      revert\n        /* \"contracts/SimpleBank/SimpleBank.sol\":3716:5242  function transferAmountList(... */\n    tag_2:\n      callvalue\n      dup1\n      iszero\n      tag_12\n      jumpi\n      0x00\n      dup1\n      revert\n    tag_12:\n      pop\n      tag_13\n      0x04\n      dup1\n      calldatasize\n      sub\n      dup2\n      add\n      swap1\n      tag_14\n      swap2\n      swap1\n      tag_15\n      jump\t// in\n    tag_14:\n      tag_16\n      jump\t// in\n    tag_13:\n      stop\n        /* \"contracts/SimpleBank/SimpleBank.sol\":748:1124  function addAccount(string memory _name) public {... */\n    tag_3:\n      callvalue\n      dup1\n      iszero\n      tag_17\n      jumpi\n      0x00\n      dup1\n      revert\n    tag_17:\n      pop\n      tag_18\n      0x04\n      dup1\n      calldatasize\n      sub\n      dup2\n      add\n      swap1\n      tag_19\n      swap2\n      swap1\n      tag_20\n      jump\t// in\n    tag_19:\n      tag_21\n      jump\t// in\n    tag_18:\n      stop\n        /* \"contracts/SimpleBank/SimpleBank.sol\":1487:2141  function withdrawn(string memory _name, uint256 _amount) public {... */\n    tag_4:\n      callvalue\n      dup1\n      iszero\n      tag_22\n      jumpi\n      0x00\n      dup1\n      revert\n    tag_22:\n      pop\n      tag_23\n      0x04\n      dup1\n      calldatasize\n      sub\n      dup2\n      add\n      swap1\n      tag_24\n      swap2\n      swap1\n      tag_25\n      jump\t// in\n    tag_24:\n      tag_26\n      jump\t// in\n    tag_23:\n      stop\n        /* \"contracts/SimpleBank/SimpleBank.sol\":2149:3347  function transferAmount(... */\n    tag_5:\n      callvalue\n      dup1\n      iszero\n      tag_27\n      jumpi\n      0x00\n      dup1\n      revert\n    tag_27:\n      pop\n      tag_28\n      0x04\n      dup1\n      calldatasize\n      sub\n      dup2\n      add\n      swap1\n      tag_29\n      swap2\n      swap1\n      tag_30\n      jump\t// in\n    tag_29:\n      tag_31\n      jump\t// in\n    tag_28:\n      stop\n        /* \"contracts/SimpleBank/SimpleBank.sol\":1132:1479  function deposit(string memory _name) public payable {... */\n    tag_6:\n      tag_32\n      0x04\n      dup1\n      calldatasize\n      sub\n      dup2\n      add\n      swap1\n      tag_33\n      swap2\n      swap1\n      tag_20\n      jump\t// in\n    tag_33:\n      tag_34\n      jump\t// in\n    tag_32:\n      stop\n        /* \"contracts/SimpleBank/SimpleBank.sol\":5581:5736  function getUserAccounts(address _user)... */\n    tag_7:\n      callvalue\n      dup1\n      iszero\n      tag_35\n      jumpi\n      0x00\n      dup1\n      revert\n    tag_35:\n      pop\n      tag_36\n      0x04\n      dup1\n      calldatasize\n      sub\n      dup2\n      add\n      swap1\n      tag_37\n      swap2\n      swap1\n      tag_38\n      jump\t// in\n    tag_37:\n      tag_39\n      jump\t// in\n    tag_36:\n      mload(0x40)\n      tag_40\n      swap2\n      swap1\n      tag_41\n      jump\t// in\n    tag_40:\n      mload(0x40)\n      dup1\n      swap2\n      sub\n      swap1\n      return\n        /* \"contracts/SimpleBank/SimpleBank.sol\":5415:5573  function getBalanceByName(string memory _name)... */\n    tag_8:\n      callvalue\n      dup1\n      iszero\n      tag_42\n      jumpi\n      0x00\n      dup1\n      revert\n    tag_42:\n      pop\n      tag_43\n      0x04\n      dup1\n      calldatasize\n      sub\n      dup2\n      add\n      swap1\n      tag_44\n      swap2\n      swap1\n      tag_20\n      jump\t// in\n    tag_44:\n      tag_45\n      jump\t// in\n    tag_43:\n      mload(0x40)\n      tag_46\n      swap2\n      swap1\n      tag_47\n      jump\t// in\n    tag_46:\n      mload(0x40)\n      dup1\n      swap2\n      sub\n      swap1\n      return\n        /* \"contracts/SimpleBank/SimpleBank.sol\":5250:5407  function getAccountByName(string memory _name)... */\n    tag_9:\n      callvalue\n      dup1\n      iszero\n      tag_48\n      jumpi\n      0x00\n      dup1\n      revert\n    tag_48:\n      pop\n      tag_49\n      0x04\n      dup1\n      calldatasize\n      sub\n      dup2\n      add\n      swap1\n      tag_50\n      swap2\n      swap1\n      tag_20\n      jump\t// in\n    tag_50:\n      tag_51\n      jump\t// in\n    tag_49:\n      mload(0x40)\n      tag_52\n      swap2\n      swap1\n      tag_53\n      jump\t// in\n    tag_52:\n      mload(0x40)\n      dup1\n      swap2\n      sub\n      swap1\n      return\n        /* \"contracts/SimpleBank/SimpleBank.sol\":3355:3708  function withdrawnBankBalance(uint256 _amount) public {... */\n    tag_10:\n      callvalue\n      dup1\n      iszero\n      tag_54\n      jumpi\n      0x00\n      dup1\n      revert\n    tag_54:\n      pop\n      tag_55\n      0x04\n      dup1\n      calldatasize\n      sub\n      dup2\n      add\n      swap1\n      tag_56\n      swap2\n      swap1\n      tag_57\n      jump\t// in\n    tag_56:\n      tag_58\n      jump\t// in\n    tag_55:\n      stop\n        /* \"contracts/SimpleBank/SimpleBank.sol\":3716:5242  function transferAmountList(... */\n    tag_16:\n        /* \"contracts/SimpleBank/SimpleBank.sol\":3907:3911  true */\n      0x01\n        /* \"contracts/SimpleBank/SimpleBank.sol\":3878:3911  isAccountNameExist[_from] == true */\n      iszero\n      iszero\n        /* \"contracts/SimpleBank/SimpleBank.sol\":3878:3896  isAccountNameExist */\n      0x04\n        /* \"contracts/SimpleBank/SimpleBank.sol\":3897:3902  _from */\n      dup5\n        /* \"contracts/SimpleBank/SimpleBank.sol\":3878:3903  isAccountNameExist[_from] */\n      mload(0x40)\n      tag_60\n      swap2\n      swap1\n      tag_61\n      jump\t// in\n    tag_60:\n      swap1\n      dup2\n      mstore\n      0x20\n      add\n      mload(0x40)\n      dup1\n      swap2\n      sub\n      swap1\n      keccak256\n      0x00\n      swap1\n      sload\n      swap1\n      0x0100\n      exp\n      swap1\n      div\n      0xff\n      and\n        /* \"contracts/SimpleBank/SimpleBank.sol\":3878:3911  isAccountNameExist[_from] == true */\n      iszero\n      iszero\n      eq\n        /* \"contracts/SimpleBank/SimpleBank.sol\":3856:3972  require(... */\n      tag_62\n      jumpi\n      mload(0x40)\n      0x08c379a000000000000000000000000000000000000000000000000000000000\n      dup2\n      mstore\n      0x04\n      add\n      tag_63\n      swap1\n      tag_64\n      jump\t// in\n    tag_63:\n      mload(0x40)\n      dup1\n      swap2\n      sub\n      swap1\n      revert\n    tag_62:\n        /* \"contracts/SimpleBank/SimpleBank.sol\":4030:4040  msg.sender */\n      caller\n        /* \"contracts/SimpleBank/SimpleBank.sol\":4005:4040  accounts[_from].owner == msg.sender */\n      0xffffffffffffffffffffffffffffffffffffffff\n      and\n        /* \"contracts/SimpleBank/SimpleBank.sol\":4005:4013  accounts */\n      0x03\n        /* \"contracts/SimpleBank/SimpleBank.sol\":4014:4019  _from */\n      dup5\n        /* \"contracts/SimpleBank/SimpleBank.sol\":4005:4020  accounts[_from] */\n      mload(0x40)\n      tag_65\n      swap2\n      swap1\n      tag_61\n      jump\t// in\n    tag_65:\n      swap1\n      dup2\n      mstore\n      0x20\n      add\n      mload(0x40)\n      dup1\n      swap2\n      sub\n      swap1\n      keccak256\n        /* \"contracts/SimpleBank/SimpleBank.sol\":4005:4026  accounts[_from].owner */\n      0x00\n      add\n      0x00\n      swap1\n      sload\n      swap1\n      0x0100\n      exp\n      swap1\n      div\n      0xffffffffffffffffffffffffffffffffffffffff\n      and\n        /* \"contracts/SimpleBank/SimpleBank.sol\":4005:4040  accounts[_from].owner == msg.sender */\n      0xffffffffffffffffffffffffffffffffffffffff\n      and\n      eq\n        /* \"contracts/SimpleBank/SimpleBank.sol\":3983:4096  require(... */\n      tag_66\n      jumpi\n      mload(0x40)\n      0x08c379a000000000000000000000000000000000000000000000000000000000\n      dup2\n      mstore\n      0x04\n      add\n      tag_67\n      swap1\n      tag_68\n      jump\t// in\n    tag_67:\n      mload(0x40)\n      dup1\n      swap2\n      sub\n      swap1\n      revert\n    tag_66:\n        /* \"contracts/SimpleBank/SimpleBank.sol\":4126:4129  100 */\n      0x64\n        /* \"contracts/SimpleBank/SimpleBank.sol\":4115:4122  _amount */\n      dup2\n        /* \"contracts/SimpleBank/SimpleBank.sol\":4115:4129  _amount >= 100 */\n      lt\n      iszero\n        /* \"contracts/SimpleBank/SimpleBank.sol\":4107:4167  require(_amount >= 100, \"transfer_fail_value_less_than_100\") */\n      tag_69\n      jumpi\n      mload(0x40)\n      0x08c379a000000000000000000000000000000000000000000000000000000000\n      dup2\n      mstore\n      0x04\n      add\n      tag_70\n      swap1\n      tag_71\n      jump\t// in\n    tag_70:\n      mload(0x40)\n      dup1\n      swap2\n      sub\n      swap1\n      revert\n    tag_69:\n        /* \"contracts/SimpleBank/SimpleBank.sol\":4237:4241  _tos */\n      dup2\n        /* \"contracts/SimpleBank/SimpleBank.sol\":4237:4248  _tos.length */\n      mload\n        /* \"contracts/SimpleBank/SimpleBank.sol\":4227:4234  _amount */\n      dup2\n        /* \"contracts/SimpleBank/SimpleBank.sol\":4227:4248  _amount * _tos.length */\n      tag_72\n      swap2\n      swap1\n      tag_73\n      jump\t// in\n    tag_72:\n        /* \"contracts/SimpleBank/SimpleBank.sol\":4200:4208  accounts */\n      0x03\n        /* \"contracts/SimpleBank/SimpleBank.sol\":4209:4214  _from */\n      dup5\n        /* \"contracts/SimpleBank/SimpleBank.sol\":4200:4215  accounts[_from] */\n      mload(0x40)\n      tag_74\n      swap2\n      swap1\n      tag_61\n      jump\t// in\n    tag_74:\n      swap1\n      dup2\n      mstore\n      0x20\n      add\n      mload(0x40)\n      dup1\n      swap2\n      sub\n      swap1\n      keccak256\n        /* \"contracts/SimpleBank/SimpleBank.sol\":4200:4223  accounts[_from].balance */\n      0x02\n      add\n      sload\n        /* \"contracts/SimpleBank/SimpleBank.sol\":4200:4248  accounts[_from].balance >= _amount * _tos.length */\n      lt\n      iszero\n        /* \"contracts/SimpleBank/SimpleBank.sol\":4178:4313  require(... */\n      tag_75\n      jumpi\n      mload(0x40)\n      0x08c379a000000000000000000000000000000000000000000000000000000000\n      dup2\n      mstore\n      0x04\n      add\n      tag_76\n      swap1\n      tag_77\n      jump\t// in\n    tag_76:\n      mload(0x40)\n      dup1\n      swap2\n      sub\n      swap1\n      revert\n    tag_75:\n        /* \"contracts/SimpleBank/SimpleBank.sol\":4329:4338  uint256 i */\n      0x00\n        /* \"contracts/SimpleBank/SimpleBank.sol\":4324:5235  for (uint256 i = 0; i < _tos.length; i++) {... */\n    tag_78:\n        /* \"contracts/SimpleBank/SimpleBank.sol\":4348:4352  _tos */\n      dup3\n        /* \"contracts/SimpleBank/SimpleBank.sol\":4348:4359  _tos.length */\n      mload\n        /* \"contracts/SimpleBank/SimpleBank.sol\":4344:4345  i */\n      dup2\n        /* \"contracts/SimpleBank/SimpleBank.sol\":4344:4359  i < _tos.length */\n      lt\n        /* \"contracts/SimpleBank/SimpleBank.sol\":4324:5235  for (uint256 i = 0; i < _tos.length; i++) {... */\n      iszero\n      tag_79\n      jumpi\n        /* \"contracts/SimpleBank/SimpleBank.sol\":4438:4442  true */\n      0x01\n        /* \"contracts/SimpleBank/SimpleBank.sol\":4407:4442  isAccountNameExist[_tos[i]] == true */\n      iszero\n      iszero\n        /* \"contracts/SimpleBank/SimpleBank.sol\":4407:4425  isAccountNameExist */\n      0x04\n        /* \"contracts/SimpleBank/SimpleBank.sol\":4426:4430  _tos */\n      dup5\n        /* \"contracts/SimpleBank/SimpleBank.sol\":4431:4432  i */\n      dup4\n        /* \"contracts/SimpleBank/SimpleBank.sol\":4426:4433  _tos[i] */\n      dup2\n      mload\n      dup2\n      lt\n      tag_81\n      jumpi\n      tag_82\n      tag_83\n      jump\t// in\n    tag_82:\n    tag_81:\n      0x20\n      mul\n      0x20\n      add\n      add\n      mload\n        /* \"contracts/SimpleBank/SimpleBank.sol\":4407:4434  isAccountNameExist[_tos[i]] */\n      mload(0x40)\n      tag_84\n      swap2\n      swap1\n      tag_61\n      jump\t// in\n    tag_84:\n      swap1\n      dup2\n      mstore\n      0x20\n      add\n      mload(0x40)\n      dup1\n      swap2\n      sub\n      swap1\n      keccak256\n      0x00\n      swap1\n      sload\n      swap1\n      0x0100\n      exp\n      swap1\n      div\n      0xff\n      and\n        /* \"contracts/SimpleBank/SimpleBank.sol\":4407:4442  isAccountNameExist[_tos[i]] == true */\n      iszero\n      iszero\n      eq\n        /* \"contracts/SimpleBank/SimpleBank.sol\":4381:4509  require(... */\n      tag_85\n      jumpi\n      mload(0x40)\n      0x08c379a000000000000000000000000000000000000000000000000000000000\n      dup2\n      mstore\n      0x04\n      add\n      tag_86\n      swap1\n      tag_87\n      jump\t// in\n    tag_86:\n      mload(0x40)\n      dup1\n      swap2\n      sub\n      swap1\n      revert\n    tag_85:\n        /* \"contracts/SimpleBank/SimpleBank.sol\":4553:4561  accounts */\n      0x03\n        /* \"contracts/SimpleBank/SimpleBank.sol\":4562:4566  _tos */\n      dup4\n        /* \"contracts/SimpleBank/SimpleBank.sol\":4567:4568  i */\n      dup3\n        /* \"contracts/SimpleBank/SimpleBank.sol\":4562:4569  _tos[i] */\n      dup2\n      mload\n      dup2\n      lt\n      tag_88\n      jumpi\n      tag_89\n      tag_83\n      jump\t// in\n    tag_89:\n    tag_88:\n      0x20\n      mul\n      0x20\n      add\n      add\n      mload\n        /* \"contracts/SimpleBank/SimpleBank.sol\":4553:4570  accounts[_tos[i]] */\n      mload(0x40)\n      tag_90\n      swap2\n      swap1\n      tag_61\n      jump\t// in\n    tag_90:\n      swap1\n      dup2\n      mstore\n      0x20\n      add\n      mload(0x40)\n      dup1\n      swap2\n      sub\n      swap1\n      keccak256\n        /* \"contracts/SimpleBank/SimpleBank.sol\":4553:4576  accounts[_tos[i]].owner */\n      0x00\n      add\n      0x00\n      swap1\n      sload\n      swap1\n      0x0100\n      exp\n      swap1\n      div\n      0xffffffffffffffffffffffffffffffffffffffff\n      and\n        /* \"contracts/SimpleBank/SimpleBank.sol\":4528:4576  accounts[_from].owner != accounts[_tos[i]].owner */\n      0xffffffffffffffffffffffffffffffffffffffff\n      and\n        /* \"contracts/SimpleBank/SimpleBank.sol\":4528:4536  accounts */\n      0x03\n        /* \"contracts/SimpleBank/SimpleBank.sol\":4537:4542  _from */\n      dup6\n        /* \"contracts/SimpleBank/SimpleBank.sol\":4528:4543  accounts[_from] */\n      mload(0x40)\n      tag_91\n      swap2\n      swap1\n      tag_61\n      jump\t// in\n    tag_91:\n      swap1\n      dup2\n      mstore\n      0x20\n      add\n      mload(0x40)\n      dup1\n      swap2\n      sub\n      swap1\n      keccak256\n        /* \"contracts/SimpleBank/SimpleBank.sol\":4528:4549  accounts[_from].owner */\n      0x00\n      add\n      0x00\n      swap1\n      sload\n      swap1\n      0x0100\n      exp\n      swap1\n      div\n      0xffffffffffffffffffffffffffffffffffffffff\n      and\n        /* \"contracts/SimpleBank/SimpleBank.sol\":4528:4576  accounts[_from].owner != accounts[_tos[i]].owner */\n      0xffffffffffffffffffffffffffffffffffffffff\n      and\n      eq\n        /* \"contracts/SimpleBank/SimpleBank.sol\":4524:5224  if (accounts[_from].owner != accounts[_tos[i]].owner) {... */\n      tag_92\n      jumpi\n        /* \"contracts/SimpleBank/SimpleBank.sol\":4658:4662  true */\n      0x01\n        /* \"contracts/SimpleBank/SimpleBank.sol\":4627:4662  isAccountNameExist[_tos[i]] == true */\n      iszero\n      iszero\n        /* \"contracts/SimpleBank/SimpleBank.sol\":4627:4645  isAccountNameExist */\n      0x04\n        /* \"contracts/SimpleBank/SimpleBank.sol\":4646:4650  _tos */\n      dup5\n        /* \"contracts/SimpleBank/SimpleBank.sol\":4651:4652  i */\n      dup4\n        /* \"contracts/SimpleBank/SimpleBank.sol\":4646:4653  _tos[i] */\n      dup2\n      mload\n      dup2\n      lt\n      tag_93\n      jumpi\n      tag_94\n      tag_83\n      jump\t// in\n    tag_94:\n    tag_93:\n      0x20\n      mul\n      0x20\n      add\n      add\n      mload\n        /* \"contracts/SimpleBank/SimpleBank.sol\":4627:4654  isAccountNameExist[_tos[i]] */\n      mload(0x40)\n      tag_95\n      swap2\n      swap1\n      tag_61\n      jump\t// in\n    tag_95:\n      swap1\n      dup2\n      mstore\n      0x20\n      add\n      mload(0x40)\n      dup1\n      swap2\n      sub\n      swap1\n      keccak256\n      0x00\n      swap1\n      sload\n      swap1\n      0x0100\n      exp\n      swap1\n      div\n      0xff\n      and\n        /* \"contracts/SimpleBank/SimpleBank.sol\":4627:4662  isAccountNameExist[_tos[i]] == true */\n      iszero\n      iszero\n      eq\n        /* \"contracts/SimpleBank/SimpleBank.sol\":4597:4737  require(... */\n      tag_96\n      jumpi\n      mload(0x40)\n      0x08c379a000000000000000000000000000000000000000000000000000000000\n      dup2\n      mstore\n      0x04\n      add\n      tag_97\n      swap1\n      tag_87\n      jump\t// in\n    tag_97:\n      mload(0x40)\n      dup1\n      swap2\n      sub\n      swap1\n      revert\n    tag_96:\n        /* \"contracts/SimpleBank/SimpleBank.sol\":4756:4767  uint256 fee */\n      0x00\n        /* \"contracts/SimpleBank/SimpleBank.sol\":4780:4783  100 */\n      0x64\n        /* \"contracts/SimpleBank/SimpleBank.sol\":4770:4777  _amount */\n      dup4\n        /* \"contracts/SimpleBank/SimpleBank.sol\":4770:4783  _amount / 100 */\n      tag_98\n      swap2\n      swap1\n      tag_99\n      jump\t// in\n    tag_98:\n        /* \"contracts/SimpleBank/SimpleBank.sol\":4756:4783  uint256 fee = _amount / 100 */\n      swap1\n      pop\n        /* \"contracts/SimpleBank/SimpleBank.sol\":4817:4820  fee */\n      dup1\n        /* \"contracts/SimpleBank/SimpleBank.sol\":4802:4813  bankBalance */\n      0x01\n      0x00\n        /* \"contracts/SimpleBank/SimpleBank.sol\":4802:4820  bankBalance += fee */\n      dup3\n      dup3\n      sload\n      tag_100\n      swap2\n      swap1\n      tag_101\n      jump\t// in\n    tag_100:\n      swap3\n      pop\n      pop\n      dup2\n      swap1\n      sstore\n      pop\n        /* \"contracts/SimpleBank/SimpleBank.sol\":4866:4873  _amount */\n      dup3\n        /* \"contracts/SimpleBank/SimpleBank.sol\":4839:4847  accounts */\n      0x03\n        /* \"contracts/SimpleBank/SimpleBank.sol\":4848:4853  _from */\n      dup7\n        /* \"contracts/SimpleBank/SimpleBank.sol\":4839:4854  accounts[_from] */\n      mload(0x40)\n      tag_102\n      swap2\n      swap1\n      tag_61\n      jump\t// in\n    tag_102:\n      swap1\n      dup2\n      mstore\n      0x20\n      add\n      mload(0x40)\n      dup1\n      swap2\n      sub\n      swap1\n      keccak256\n        /* \"contracts/SimpleBank/SimpleBank.sol\":4839:4862  accounts[_from].balance */\n      0x02\n      add\n      0x00\n        /* \"contracts/SimpleBank/SimpleBank.sol\":4839:4873  accounts[_from].balance -= _amount */\n      dup3\n      dup3\n      sload\n      tag_103\n      swap2\n      swap1\n      tag_104\n      jump\t// in\n    tag_103:\n      swap3\n      pop\n      pop\n      dup2\n      swap1\n      sstore\n      pop\n        /* \"contracts/SimpleBank/SimpleBank.sol\":4932:4935  fee */\n      dup1\n        /* \"contracts/SimpleBank/SimpleBank.sol\":4922:4929  _amount */\n      dup4\n        /* \"contracts/SimpleBank/SimpleBank.sol\":4922:4935  _amount - fee */\n      tag_105\n      swap2\n      swap1\n      tag_104\n      jump\t// in\n    tag_105:\n        /* \"contracts/SimpleBank/SimpleBank.sol\":4892:4900  accounts */\n      0x03\n        /* \"contracts/SimpleBank/SimpleBank.sol\":4901:4905  _tos */\n      dup6\n        /* \"contracts/SimpleBank/SimpleBank.sol\":4906:4907  i */\n      dup5\n        /* \"contracts/SimpleBank/SimpleBank.sol\":4901:4908  _tos[i] */\n      dup2\n      mload\n      dup2\n      lt\n      tag_106\n      jumpi\n      tag_107\n      tag_83\n      jump\t// in\n    tag_107:\n    tag_106:\n      0x20\n      mul\n      0x20\n      add\n      add\n      mload\n        /* \"contracts/SimpleBank/SimpleBank.sol\":4892:4909  accounts[_tos[i]] */\n      mload(0x40)\n      tag_108\n      swap2\n      swap1\n      tag_61\n      jump\t// in\n    tag_108:\n      swap1\n      dup2\n      mstore\n      0x20\n      add\n      mload(0x40)\n      dup1\n      swap2\n      sub\n      swap1\n      keccak256\n        /* \"contracts/SimpleBank/SimpleBank.sol\":4892:4917  accounts[_tos[i]].balance */\n      0x02\n      add\n      0x00\n        /* \"contracts/SimpleBank/SimpleBank.sol\":4892:4936  accounts[_tos[i]].balance += (_amount - fee) */\n      dup3\n      dup3\n      sload\n      tag_109\n      swap2\n      swap1\n      tag_101\n      jump\t// in\n    tag_109:\n      swap3\n      pop\n      pop\n      dup2\n      swap1\n      sstore\n      pop\n        /* \"contracts/SimpleBank/SimpleBank.sol\":4960:5010  TransferAmountEvent(_from, _tos[i], _amount - fee) */\n      0x370044a47246afacf081fd58c8468a6482ebc8673d418e785b8d0492240f95de\n        /* \"contracts/SimpleBank/SimpleBank.sol\":4980:4985  _from */\n      dup6\n        /* \"contracts/SimpleBank/SimpleBank.sol\":4987:4991  _tos */\n      dup6\n        /* \"contracts/SimpleBank/SimpleBank.sol\":4992:4993  i */\n      dup5\n        /* \"contracts/SimpleBank/SimpleBank.sol\":4987:4994  _tos[i] */\n      dup2\n      mload\n      dup2\n      lt\n      tag_110\n      jumpi\n      tag_111\n      tag_83\n      jump\t// in\n    tag_111:\n    tag_110:\n      0x20\n      mul\n      0x20\n      add\n      add\n      mload\n        /* \"contracts/SimpleBank/SimpleBank.sol\":5006:5009  fee */\n      dup4\n        /* \"contracts/SimpleBank/SimpleBank.sol\":4996:5003  _amount */\n      dup7\n        /* \"contracts/SimpleBank/SimpleBank.sol\":4996:5009  _amount - fee */\n      tag_112\n      swap2\n      swap1\n      tag_104\n      jump\t// in\n    tag_112:\n        /* \"contracts/SimpleBank/SimpleBank.sol\":4960:5010  TransferAmountEvent(_from, _tos[i], _amount - fee) */\n      mload(0x40)\n      tag_113\n      swap4\n      swap3\n      swap2\n      swap1\n      tag_114\n      jump\t// in\n    tag_113:\n      mload(0x40)\n      dup1\n      swap2\n      sub\n      swap1\n      log1\n        /* \"contracts/SimpleBank/SimpleBank.sol\":4578:5026  {... */\n      pop\n        /* \"contracts/SimpleBank/SimpleBank.sol\":4524:5224  if (accounts[_from].owner != accounts[_tos[i]].owner) {... */\n      jump(tag_115)\n    tag_92:\n        /* \"contracts/SimpleBank/SimpleBank.sol\":5078:5085  _amount */\n      dup2\n        /* \"contracts/SimpleBank/SimpleBank.sol\":5051:5059  accounts */\n      0x03\n        /* \"contracts/SimpleBank/SimpleBank.sol\":5060:5065  _from */\n      dup6\n        /* \"contracts/SimpleBank/SimpleBank.sol\":5051:5066  accounts[_from] */\n      mload(0x40)\n      tag_116\n      swap2\n      swap1\n      tag_61\n      jump\t// in\n    tag_116:\n      swap1\n      dup2\n      mstore\n      0x20\n      add\n      mload(0x40)\n      dup1\n      swap2\n      sub\n      swap1\n      keccak256\n        /* \"contracts/SimpleBank/SimpleBank.sol\":5051:5074  accounts[_from].balance */\n      0x02\n      add\n      0x00\n        /* \"contracts/SimpleBank/SimpleBank.sol\":5051:5085  accounts[_from].balance -= _amount */\n      dup3\n      dup3\n      sload\n      tag_117\n      swap2\n      swap1\n      tag_104\n      jump\t// in\n    tag_117:\n      swap3\n      pop\n      pop\n      dup2\n      swap1\n      sstore\n      pop\n        /* \"contracts/SimpleBank/SimpleBank.sol\":5133:5140  _amount */\n      dup2\n        /* \"contracts/SimpleBank/SimpleBank.sol\":5104:5112  accounts */\n      0x03\n        /* \"contracts/SimpleBank/SimpleBank.sol\":5113:5117  _tos */\n      dup5\n        /* \"contracts/SimpleBank/SimpleBank.sol\":5118:5119  i */\n      dup4\n        /* \"contracts/SimpleBank/SimpleBank.sol\":5113:5120  _tos[i] */\n      dup2\n      mload\n      dup2\n      lt\n      tag_118\n      jumpi\n      tag_119\n      tag_83\n      jump\t// in\n    tag_119:\n    tag_118:\n      0x20\n      mul\n      0x20\n      add\n      add\n      mload\n        /* \"contracts/SimpleBank/SimpleBank.sol\":5104:5121  accounts[_tos[i]] */\n      mload(0x40)\n      tag_120\n      swap2\n      swap1\n      tag_61\n      jump\t// in\n    tag_120:\n      swap1\n      dup2\n      mstore\n      0x20\n      add\n      mload(0x40)\n      dup1\n      swap2\n      sub\n      swap1\n      keccak256\n        /* \"contracts/SimpleBank/SimpleBank.sol\":5104:5129  accounts[_tos[i]].balance */\n      0x02\n      add\n      0x00\n        /* \"contracts/SimpleBank/SimpleBank.sol\":5104:5140  accounts[_tos[i]].balance += _amount */\n      dup3\n      dup3\n      sload\n      tag_121\n      swap2\n      swap1\n      tag_101\n      jump\t// in\n    tag_121:\n      swap3\n      pop\n      pop\n      dup2\n      swap1\n      sstore\n      pop\n        /* \"contracts/SimpleBank/SimpleBank.sol\":5164:5208  TransferAmountEvent(_from, _tos[i], _amount) */\n      0x370044a47246afacf081fd58c8468a6482ebc8673d418e785b8d0492240f95de\n        /* \"contracts/SimpleBank/SimpleBank.sol\":5184:5189  _from */\n      dup5\n        /* \"contracts/SimpleBank/SimpleBank.sol\":5191:5195  _tos */\n      dup5\n        /* \"contracts/SimpleBank/SimpleBank.sol\":5196:5197  i */\n      dup4\n        /* \"contracts/SimpleBank/SimpleBank.sol\":5191:5198  _tos[i] */\n      dup2\n      mload\n      dup2\n      lt\n      tag_122\n      jumpi\n      tag_123\n      tag_83\n      jump\t// in\n    tag_123:\n    tag_122:\n      0x20\n      mul\n      0x20\n      add\n      add\n      mload\n        /* \"contracts/SimpleBank/SimpleBank.sol\":5200:5207  _amount */\n      dup5\n        /* \"contracts/SimpleBank/SimpleBank.sol\":5164:5208  TransferAmountEvent(_from, _tos[i], _amount) */\n      mload(0x40)\n      tag_124\n      swap4\n      swap3\n      swap2\n      swap1\n      tag_114\n      jump\t// in\n    tag_124:\n      mload(0x40)\n      dup1\n      swap2\n      sub\n      swap1\n      log1\n        /* \"contracts/SimpleBank/SimpleBank.sol\":4524:5224  if (accounts[_from].owner != accounts[_tos[i]].owner) {... */\n    tag_115:\n        /* \"contracts/SimpleBank/SimpleBank.sol\":4361:4364  i++ */\n      dup1\n      dup1\n      tag_125\n      swap1\n      tag_126\n      jump\t// in\n    tag_125:\n      swap2\n      pop\n      pop\n        /* \"contracts/SimpleBank/SimpleBank.sol\":4324:5235  for (uint256 i = 0; i < _tos.length; i++) {... */\n      jump(tag_78)\n    tag_79:\n      pop\n        /* \"contracts/SimpleBank/SimpleBank.sol\":3716:5242  function transferAmountList(... */\n      pop\n      pop\n      pop\n      jump\t// out\n        /* \"contracts/SimpleBank/SimpleBank.sol\":748:1124  function addAccount(string memory _name) public {... */\n    tag_21:\n        /* \"contracts/SimpleBank/SimpleBank.sol\":858:863  false */\n      0x00\n        /* \"contracts/SimpleBank/SimpleBank.sol\":829:863  isAccountNameExist[_name] == false */\n      iszero\n      iszero\n        /* \"contracts/SimpleBank/SimpleBank.sol\":829:847  isAccountNameExist */\n      0x04\n        /* \"contracts/SimpleBank/SimpleBank.sol\":848:853  _name */\n      dup3\n        /* \"contracts/SimpleBank/SimpleBank.sol\":829:854  isAccountNameExist[_name] */\n      mload(0x40)\n      tag_128\n      swap2\n      swap1\n      tag_61\n      jump\t// in\n    tag_128:\n      swap1\n      dup2\n      mstore\n      0x20\n      add\n      mload(0x40)\n      dup1\n      swap2\n      sub\n      swap1\n      keccak256\n      0x00\n      swap1\n      sload\n      swap1\n      0x0100\n      exp\n      swap1\n      div\n      0xff\n      and\n        /* \"contracts/SimpleBank/SimpleBank.sol\":829:863  isAccountNameExist[_name] == false */\n      iszero\n      iszero\n      eq\n        /* \"contracts/SimpleBank/SimpleBank.sol\":807:918  require(... */\n      tag_129\n      jumpi\n      mload(0x40)\n      0x08c379a000000000000000000000000000000000000000000000000000000000\n      dup2\n      mstore\n      0x04\n      add\n      tag_130\n      swap1\n      tag_131\n      jump\t// in\n    tag_130:\n      mload(0x40)\n      dup1\n      swap2\n      sub\n      swap1\n      revert\n    tag_129:\n        /* \"contracts/SimpleBank/SimpleBank.sol\":947:976  Account(msg.sender, _name, 0) */\n      mload(0x40)\n      dup1\n      0x60\n      add\n      0x40\n      mstore\n      dup1\n        /* \"contracts/SimpleBank/SimpleBank.sol\":955:965  msg.sender */\n      caller\n        /* \"contracts/SimpleBank/SimpleBank.sol\":947:976  Account(msg.sender, _name, 0) */\n      0xffffffffffffffffffffffffffffffffffffffff\n      and\n      dup2\n      mstore\n      0x20\n      add\n        /* \"contracts/SimpleBank/SimpleBank.sol\":967:972  _name */\n      dup3\n        /* \"contracts/SimpleBank/SimpleBank.sol\":947:976  Account(msg.sender, _name, 0) */\n      dup2\n      mstore\n      0x20\n      add\n        /* \"contracts/SimpleBank/SimpleBank.sol\":974:975  0 */\n      0x00\n        /* \"contracts/SimpleBank/SimpleBank.sol\":947:976  Account(msg.sender, _name, 0) */\n      dup2\n      mstore\n      pop\n        /* \"contracts/SimpleBank/SimpleBank.sol\":929:937  accounts */\n      0x03\n        /* \"contracts/SimpleBank/SimpleBank.sol\":938:943  _name */\n      dup3\n        /* \"contracts/SimpleBank/SimpleBank.sol\":929:944  accounts[_name] */\n      mload(0x40)\n      tag_132\n      swap2\n      swap1\n      tag_61\n      jump\t// in\n    tag_132:\n      swap1\n      dup2\n      mstore\n      0x20\n      add\n      mload(0x40)\n      dup1\n      swap2\n      sub\n      swap1\n      keccak256\n        /* \"contracts/SimpleBank/SimpleBank.sol\":929:976  accounts[_name] = Account(msg.sender, _name, 0) */\n      0x00\n      dup3\n      add\n      mload\n      dup2\n      0x00\n      add\n      exp(0x0100, 0x00)\n      dup2\n      sload\n      dup2\n      0xffffffffffffffffffffffffffffffffffffffff\n      mul\n      not\n      and\n      swap1\n      dup4\n      0xffffffffffffffffffffffffffffffffffffffff\n      and\n      mul\n      or\n      swap1\n      sstore\n      pop\n      0x20\n      dup3\n      add\n      mload\n      dup2\n      0x01\n      add\n      swap1\n      dup2\n      tag_133\n      swap2\n      swap1\n      tag_134\n      jump\t// in\n    tag_133:\n      pop\n      0x40\n      dup3\n      add\n      mload\n      dup2\n      0x02\n      add\n      sstore\n      swap1\n      pop\n      pop\n        /* \"contracts/SimpleBank/SimpleBank.sol\":987:999  userAccounts */\n      0x02\n        /* \"contracts/SimpleBank/SimpleBank.sol\":987:1011  userAccounts[msg.sender] */\n      0x00\n        /* \"contracts/SimpleBank/SimpleBank.sol\":1000:1010  msg.sender */\n      caller\n        /* \"contracts/SimpleBank/SimpleBank.sol\":987:1011  userAccounts[msg.sender] */\n      0xffffffffffffffffffffffffffffffffffffffff\n      and\n      0xffffffffffffffffffffffffffffffffffffffff\n      and\n      dup2\n      mstore\n      0x20\n      add\n      swap1\n      dup2\n      mstore\n      0x20\n      add\n      0x00\n      keccak256\n        /* \"contracts/SimpleBank/SimpleBank.sol\":1017:1022  _name */\n      dup2\n        /* \"contracts/SimpleBank/SimpleBank.sol\":987:1023  userAccounts[msg.sender].push(_name) */\n      swap1\n      dup1\n      0x01\n      dup2\n      sload\n      add\n      dup1\n      dup3\n      sstore\n      dup1\n      swap2\n      pop\n      pop\n      0x01\n      swap1\n      sub\n      swap1\n      0x00\n      mstore\n      keccak256(0x00, 0x20)\n      add\n      0x00\n      swap1\n      swap2\n      swap1\n      swap2\n      swap1\n      swap2\n      pop\n      swap1\n      dup2\n      tag_136\n      swap2\n      swap1\n      tag_134\n      jump\t// in\n    tag_136:\n      pop\n        /* \"contracts/SimpleBank/SimpleBank.sol\":1062:1066  true */\n      0x01\n        /* \"contracts/SimpleBank/SimpleBank.sol\":1034:1052  isAccountNameExist */\n      0x04\n        /* \"contracts/SimpleBank/SimpleBank.sol\":1053:1058  _name */\n      dup3\n        /* \"contracts/SimpleBank/SimpleBank.sol\":1034:1059  isAccountNameExist[_name] */\n      mload(0x40)\n      tag_137\n      swap2\n      swap1\n      tag_61\n      jump\t// in\n    tag_137:\n      swap1\n      dup2\n      mstore\n      0x20\n      add\n      mload(0x40)\n      dup1\n      swap2\n      sub\n      swap1\n      keccak256\n      0x00\n        /* \"contracts/SimpleBank/SimpleBank.sol\":1034:1066  isAccountNameExist[_name] = true */\n      0x0100\n      exp\n      dup2\n      sload\n      dup2\n      0xff\n      mul\n      not\n      and\n      swap1\n      dup4\n      iszero\n      iszero\n      mul\n      or\n      swap1\n      sstore\n      pop\n        /* \"contracts/SimpleBank/SimpleBank.sol\":1082:1116  AddAccountEvent(msg.sender, _name) */\n      0xb4833c10b628b390dd18880f97a54f11eae38c84eb68171f9a11b0fd7855fadf\n        /* \"contracts/SimpleBank/SimpleBank.sol\":1098:1108  msg.sender */\n      caller\n        /* \"contracts/SimpleBank/SimpleBank.sol\":1110:1115  _name */\n      dup3\n        /* \"contracts/SimpleBank/SimpleBank.sol\":1082:1116  AddAccountEvent(msg.sender, _name) */\n      mload(0x40)\n      tag_138\n      swap3\n      swap2\n      swap1\n      tag_139\n      jump\t// in\n    tag_138:\n      mload(0x40)\n      dup1\n      swap2\n      sub\n      swap1\n      log1\n        /* \"contracts/SimpleBank/SimpleBank.sol\":748:1124  function addAccount(string memory _name) public {... */\n      pop\n      jump\t// out\n        /* \"contracts/SimpleBank/SimpleBank.sol\":1487:2141  function withdrawn(string memory _name, uint256 _amount) public {... */\n    tag_26:\n        /* \"contracts/SimpleBank/SimpleBank.sol\":1613:1617  true */\n      0x01\n        /* \"contracts/SimpleBank/SimpleBank.sol\":1584:1617  isAccountNameExist[_name] == true */\n      iszero\n      iszero\n        /* \"contracts/SimpleBank/SimpleBank.sol\":1584:1602  isAccountNameExist */\n      0x04\n        /* \"contracts/SimpleBank/SimpleBank.sol\":1603:1608  _name */\n      dup4\n        /* \"contracts/SimpleBank/SimpleBank.sol\":1584:1609  isAccountNameExist[_name] */\n      mload(0x40)\n      tag_141\n      swap2\n      swap1\n      tag_61\n      jump\t// in\n    tag_141:\n      swap1\n      dup2\n      mstore\n      0x20\n      add\n      mload(0x40)\n      dup1\n      swap2\n      sub\n      swap1\n      keccak256\n      0x00\n      swap1\n      sload\n      swap1\n      0x0100\n      exp\n      swap1\n      div\n      0xff\n      and\n        /* \"contracts/SimpleBank/SimpleBank.sol\":1584:1617  isAccountNameExist[_name] == true */\n      iszero\n      iszero\n      eq\n        /* \"contracts/SimpleBank/SimpleBank.sol\":1562:1674  require(... */\n      tag_142\n      jumpi\n      mload(0x40)\n      0x08c379a000000000000000000000000000000000000000000000000000000000\n      dup2\n      mstore\n      0x04\n      add\n      tag_143\n      swap1\n      tag_144\n      jump\t// in\n    tag_143:\n      mload(0x40)\n      dup1\n      swap2\n      sub\n      swap1\n      revert\n    tag_142:\n        /* \"contracts/SimpleBank/SimpleBank.sol\":1732:1742  msg.sender */\n      caller\n        /* \"contracts/SimpleBank/SimpleBank.sol\":1707:1742  accounts[_name].owner == msg.sender */\n      0xffffffffffffffffffffffffffffffffffffffff\n      and\n        /* \"contracts/SimpleBank/SimpleBank.sol\":1707:1715  accounts */\n      0x03\n        /* \"contracts/SimpleBank/SimpleBank.sol\":1716:1721  _name */\n      dup4\n        /* \"contracts/SimpleBank/SimpleBank.sol\":1707:1722  accounts[_name] */\n      mload(0x40)\n      tag_145\n      swap2\n      swap1\n      tag_61\n      jump\t// in\n    tag_145:\n      swap1\n      dup2\n      mstore\n      0x20\n      add\n      mload(0x40)\n      dup1\n      swap2\n      sub\n      swap1\n      keccak256\n        /* \"contracts/SimpleBank/SimpleBank.sol\":1707:1728  accounts[_name].owner */\n      0x00\n      add\n      0x00\n      swap1\n      sload\n      swap1\n      0x0100\n      exp\n      swap1\n      div\n      0xffffffffffffffffffffffffffffffffffffffff\n      and\n        /* \"contracts/SimpleBank/SimpleBank.sol\":1707:1742  accounts[_name].owner == msg.sender */\n      0xffffffffffffffffffffffffffffffffffffffff\n      and\n      eq\n        /* \"contracts/SimpleBank/SimpleBank.sol\":1685:1794  require(... */\n      tag_146\n      jumpi\n      mload(0x40)\n      0x08c379a000000000000000000000000000000000000000000000000000000000\n      dup2\n      mstore\n      0x04\n      add\n      tag_147\n      swap1\n      tag_148\n      jump\t// in\n    tag_147:\n      mload(0x40)\n      dup1\n      swap2\n      sub\n      swap1\n      revert\n    tag_146:\n        /* \"contracts/SimpleBank/SimpleBank.sol\":1823:1824  0 */\n      0x00\n        /* \"contracts/SimpleBank/SimpleBank.sol\":1813:1820  _amount */\n      dup2\n        /* \"contracts/SimpleBank/SimpleBank.sol\":1813:1824  _amount > 0 */\n      gt\n        /* \"contracts/SimpleBank/SimpleBank.sol\":1805:1854  require(_amount > 0, \"withdrawn_fail_value_zero\") */\n      tag_149\n      jumpi\n      mload(0x40)\n      0x08c379a000000000000000000000000000000000000000000000000000000000\n      dup2\n      mstore\n      0x04\n      add\n      tag_150\n      swap1\n      tag_151\n      jump\t// in\n    tag_150:\n      mload(0x40)\n      dup1\n      swap2\n      sub\n      swap1\n      revert\n    tag_149:\n        /* \"contracts/SimpleBank/SimpleBank.sol\":1914:1921  _amount */\n      dup1\n        /* \"contracts/SimpleBank/SimpleBank.sol\":1887:1895  accounts */\n      0x03\n        /* \"contracts/SimpleBank/SimpleBank.sol\":1896:1901  _name */\n      dup4\n        /* \"contracts/SimpleBank/SimpleBank.sol\":1887:1902  accounts[_name] */\n      mload(0x40)\n      tag_152\n      swap2\n      swap1\n      tag_61\n      jump\t// in\n    tag_152:\n      swap1\n      dup2\n      mstore\n      0x20\n      add\n      mload(0x40)\n      dup1\n      swap2\n      sub\n      swap1\n      keccak256\n        /* \"contracts/SimpleBank/SimpleBank.sol\":1887:1910  accounts[_name].balance */\n      0x02\n      add\n      sload\n        /* \"contracts/SimpleBank/SimpleBank.sol\":1887:1921  accounts[_name].balance >= _amount */\n      lt\n      iszero\n        /* \"contracts/SimpleBank/SimpleBank.sol\":1865:1982  require(... */\n      tag_153\n      jumpi\n      mload(0x40)\n      0x08c379a000000000000000000000000000000000000000000000000000000000\n      dup2\n      mstore\n      0x04\n      add\n      tag_154\n      swap1\n      tag_155\n      jump\t// in\n    tag_154:\n      mload(0x40)\n      dup1\n      swap2\n      sub\n      swap1\n      revert\n    tag_153:\n        /* \"contracts/SimpleBank/SimpleBank.sol\":2020:2027  _amount */\n      dup1\n        /* \"contracts/SimpleBank/SimpleBank.sol\":1993:2001  accounts */\n      0x03\n        /* \"contracts/SimpleBank/SimpleBank.sol\":2002:2007  _name */\n      dup4\n        /* \"contracts/SimpleBank/SimpleBank.sol\":1993:2008  accounts[_name] */\n      mload(0x40)\n      tag_156\n      swap2\n      swap1\n      tag_61\n      jump\t// in\n    tag_156:\n      swap1\n      dup2\n      mstore\n      0x20\n      add\n      mload(0x40)\n      dup1\n      swap2\n      sub\n      swap1\n      keccak256\n        /* \"contracts/SimpleBank/SimpleBank.sol\":1993:2016  accounts[_name].balance */\n      0x02\n      add\n      0x00\n        /* \"contracts/SimpleBank/SimpleBank.sol\":1993:2027  accounts[_name].balance -= _amount */\n      dup3\n      dup3\n      sload\n      tag_157\n      swap2\n      swap1\n      tag_104\n      jump\t// in\n    tag_157:\n      swap3\n      pop\n      pop\n      dup2\n      swap1\n      sstore\n      pop\n        /* \"contracts/SimpleBank/SimpleBank.sol\":2046:2056  msg.sender */\n      caller\n        /* \"contracts/SimpleBank/SimpleBank.sol\":2038:2066  payable(msg.sender).transfer */\n      0xffffffffffffffffffffffffffffffffffffffff\n      and\n        /* \"contracts/SimpleBank/SimpleBank.sol\":2038:2075  payable(msg.sender).transfer(_amount) */\n      0x08fc\n        /* \"contracts/SimpleBank/SimpleBank.sol\":2067:2074  _amount */\n      dup3\n        /* \"contracts/SimpleBank/SimpleBank.sol\":2038:2075  payable(msg.sender).transfer(_amount) */\n      swap1\n      dup2\n      iszero\n      mul\n      swap1\n      mload(0x40)\n      0x00\n      mload(0x40)\n      dup1\n      dup4\n      sub\n      dup2\n      dup6\n      dup9\n      dup9\n      call\n      swap4\n      pop\n      pop\n      pop\n      pop\n      iszero\n      dup1\n      iszero\n      tag_159\n      jumpi\n      returndatasize\n      0x00\n      dup1\n      returndatacopy\n      revert(0x00, returndatasize)\n    tag_159:\n      pop\n        /* \"contracts/SimpleBank/SimpleBank.sol\":2091:2133  WithdrawnEvent(_name, msg.sender, _amount) */\n      0xf571bb39287f8941696401f5b5a1666ee251efbf23412140fbddce841655d9\n        /* \"contracts/SimpleBank/SimpleBank.sol\":2106:2111  _name */\n      dup3\n        /* \"contracts/SimpleBank/SimpleBank.sol\":2113:2123  msg.sender */\n      caller\n        /* \"contracts/SimpleBank/SimpleBank.sol\":2125:2132  _amount */\n      dup4\n        /* \"contracts/SimpleBank/SimpleBank.sol\":2091:2133  WithdrawnEvent(_name, msg.sender, _amount) */\n      mload(0x40)\n      tag_160\n      swap4\n      swap3\n      swap2\n      swap1\n      tag_161\n      jump\t// in\n    tag_160:\n      mload(0x40)\n      dup1\n      swap2\n      sub\n      swap1\n      log1\n        /* \"contracts/SimpleBank/SimpleBank.sol\":1487:2141  function withdrawn(string memory _name, uint256 _amount) public {... */\n      pop\n      pop\n      jump\t// out\n        /* \"contracts/SimpleBank/SimpleBank.sol\":2149:3347  function transferAmount(... */\n    tag_31:\n        /* \"contracts/SimpleBank/SimpleBank.sol\":2333:2337  true */\n      0x01\n        /* \"contracts/SimpleBank/SimpleBank.sol\":2304:2337  isAccountNameExist[_from] == true */\n      iszero\n      iszero\n        /* \"contracts/SimpleBank/SimpleBank.sol\":2304:2322  isAccountNameExist */\n      0x04\n        /* \"contracts/SimpleBank/SimpleBank.sol\":2323:2328  _from */\n      dup5\n        /* \"contracts/SimpleBank/SimpleBank.sol\":2304:2329  isAccountNameExist[_from] */\n      mload(0x40)\n      tag_163\n      swap2\n      swap1\n      tag_61\n      jump\t// in\n    tag_163:\n      swap1\n      dup2\n      mstore\n      0x20\n      add\n      mload(0x40)\n      dup1\n      swap2\n      sub\n      swap1\n      keccak256\n      0x00\n      swap1\n      sload\n      swap1\n      0x0100\n      exp\n      swap1\n      div\n      0xff\n      and\n        /* \"contracts/SimpleBank/SimpleBank.sol\":2304:2337  isAccountNameExist[_from] == true */\n      iszero\n      iszero\n      eq\n        /* \"contracts/SimpleBank/SimpleBank.sol\":2282:2398  require(... */\n      tag_164\n      jumpi\n      mload(0x40)\n      0x08c379a000000000000000000000000000000000000000000000000000000000\n      dup2\n      mstore\n      0x04\n      add\n      tag_165\n      swap1\n      tag_64\n      jump\t// in\n    tag_165:\n      mload(0x40)\n      dup1\n      swap2\n      sub\n      swap1\n      revert\n    tag_164:\n        /* \"contracts/SimpleBank/SimpleBank.sol\":2458:2462  true */\n      0x01\n        /* \"contracts/SimpleBank/SimpleBank.sol\":2431:2462  isAccountNameExist[_to] == true */\n      iszero\n      iszero\n        /* \"contracts/SimpleBank/SimpleBank.sol\":2431:2449  isAccountNameExist */\n      0x04\n        /* \"contracts/SimpleBank/SimpleBank.sol\":2450:2453  _to */\n      dup4\n        /* \"contracts/SimpleBank/SimpleBank.sol\":2431:2454  isAccountNameExist[_to] */\n      mload(0x40)\n      tag_166\n      swap2\n      swap1\n      tag_61\n      jump\t// in\n    tag_166:\n      swap1\n      dup2\n      mstore\n      0x20\n      add\n      mload(0x40)\n      dup1\n      swap2\n      sub\n      swap1\n      keccak256\n      0x00\n      swap1\n      sload\n      swap1\n      0x0100\n      exp\n      swap1\n      div\n      0xff\n      and\n        /* \"contracts/SimpleBank/SimpleBank.sol\":2431:2462  isAccountNameExist[_to] == true */\n      iszero\n      iszero\n      eq\n        /* \"contracts/SimpleBank/SimpleBank.sol\":2409:2521  require(... */\n      tag_167\n      jumpi\n      mload(0x40)\n      0x08c379a000000000000000000000000000000000000000000000000000000000\n      dup2\n      mstore\n      0x04\n      add\n      tag_168\n      swap1\n      tag_87\n      jump\t// in\n    tag_168:\n      mload(0x40)\n      dup1\n      swap2\n      sub\n      swap1\n      revert\n    tag_167:\n        /* \"contracts/SimpleBank/SimpleBank.sol\":2579:2589  msg.sender */\n      caller\n        /* \"contracts/SimpleBank/SimpleBank.sol\":2554:2589  accounts[_from].owner == msg.sender */\n      0xffffffffffffffffffffffffffffffffffffffff\n      and\n        /* \"contracts/SimpleBank/SimpleBank.sol\":2554:2562  accounts */\n      0x03\n        /* \"contracts/SimpleBank/SimpleBank.sol\":2563:2568  _from */\n      dup5\n        /* \"contracts/SimpleBank/SimpleBank.sol\":2554:2569  accounts[_from] */\n      mload(0x40)\n      tag_169\n      swap2\n      swap1\n      tag_61\n      jump\t// in\n    tag_169:\n      swap1\n      dup2\n      mstore\n      0x20\n      add\n      mload(0x40)\n      dup1\n      swap2\n      sub\n      swap1\n      keccak256\n        /* \"contracts/SimpleBank/SimpleBank.sol\":2554:2575  accounts[_from].owner */\n      0x00\n      add\n      0x00\n      swap1\n      sload\n      swap1\n      0x0100\n      exp\n      swap1\n      div\n      0xffffffffffffffffffffffffffffffffffffffff\n      and\n        /* \"contracts/SimpleBank/SimpleBank.sol\":2554:2589  accounts[_from].owner == msg.sender */\n      0xffffffffffffffffffffffffffffffffffffffff\n      and\n      eq\n        /* \"contracts/SimpleBank/SimpleBank.sol\":2532:2645  require(... */\n      tag_170\n      jumpi\n      mload(0x40)\n      0x08c379a000000000000000000000000000000000000000000000000000000000\n      dup2\n      mstore\n      0x04\n      add\n      tag_171\n      swap1\n      tag_68\n      jump\t// in\n    tag_171:\n      mload(0x40)\n      dup1\n      swap2\n      sub\n      swap1\n      revert\n    tag_170:\n        /* \"contracts/SimpleBank/SimpleBank.sol\":2675:2678  100 */\n      0x64\n        /* \"contracts/SimpleBank/SimpleBank.sol\":2664:2671  _amount */\n      dup2\n        /* \"contracts/SimpleBank/SimpleBank.sol\":2664:2678  _amount >= 100 */\n      lt\n      iszero\n        /* \"contracts/SimpleBank/SimpleBank.sol\":2656:2716  require(_amount >= 100, \"transfer_fail_value_less_than_100\") */\n      tag_172\n      jumpi\n      mload(0x40)\n      0x08c379a000000000000000000000000000000000000000000000000000000000\n      dup2\n      mstore\n      0x04\n      add\n      tag_173\n      swap1\n      tag_71\n      jump\t// in\n    tag_173:\n      mload(0x40)\n      dup1\n      swap2\n      sub\n      swap1\n      revert\n    tag_172:\n        /* \"contracts/SimpleBank/SimpleBank.sol\":2776:2783  _amount */\n      dup1\n        /* \"contracts/SimpleBank/SimpleBank.sol\":2749:2757  accounts */\n      0x03\n        /* \"contracts/SimpleBank/SimpleBank.sol\":2758:2763  _from */\n      dup5\n        /* \"contracts/SimpleBank/SimpleBank.sol\":2749:2764  accounts[_from] */\n      mload(0x40)\n      tag_174\n      swap2\n      swap1\n      tag_61\n      jump\t// in\n    tag_174:\n      swap1\n      dup2\n      mstore\n      0x20\n      add\n      mload(0x40)\n      dup1\n      swap2\n      sub\n      swap1\n      keccak256\n        /* \"contracts/SimpleBank/SimpleBank.sol\":2749:2772  accounts[_from].balance */\n      0x02\n      add\n      sload\n        /* \"contracts/SimpleBank/SimpleBank.sol\":2749:2783  accounts[_from].balance >= _amount */\n      lt\n      iszero\n        /* \"contracts/SimpleBank/SimpleBank.sol\":2727:2848  require(... */\n      tag_175\n      jumpi\n      mload(0x40)\n      0x08c379a000000000000000000000000000000000000000000000000000000000\n      dup2\n      mstore\n      0x04\n      add\n      tag_176\n      swap1\n      tag_77\n      jump\t// in\n    tag_176:\n      mload(0x40)\n      dup1\n      swap2\n      sub\n      swap1\n      revert\n    tag_175:\n        /* \"contracts/SimpleBank/SimpleBank.sol\":2888:2896  accounts */\n      0x03\n        /* \"contracts/SimpleBank/SimpleBank.sol\":2897:2900  _to */\n      dup3\n        /* \"contracts/SimpleBank/SimpleBank.sol\":2888:2901  accounts[_to] */\n      mload(0x40)\n      tag_177\n      swap2\n      swap1\n      tag_61\n      jump\t// in\n    tag_177:\n      swap1\n      dup2\n      mstore\n      0x20\n      add\n      mload(0x40)\n      dup1\n      swap2\n      sub\n      swap1\n      keccak256\n        /* \"contracts/SimpleBank/SimpleBank.sol\":2888:2907  accounts[_to].owner */\n      0x00\n      add\n      0x00\n      swap1\n      sload\n      swap1\n      0x0100\n      exp\n      swap1\n      div\n      0xffffffffffffffffffffffffffffffffffffffff\n      and\n        /* \"contracts/SimpleBank/SimpleBank.sol\":2863:2907  accounts[_from].owner != accounts[_to].owner */\n      0xffffffffffffffffffffffffffffffffffffffff\n      and\n        /* \"contracts/SimpleBank/SimpleBank.sol\":2863:2871  accounts */\n      0x03\n        /* \"contracts/SimpleBank/SimpleBank.sol\":2872:2877  _from */\n      dup5\n        /* \"contracts/SimpleBank/SimpleBank.sol\":2863:2878  accounts[_from] */\n      mload(0x40)\n      tag_178\n      swap2\n      swap1\n      tag_61\n      jump\t// in\n    tag_178:\n      swap1\n      dup2\n      mstore\n      0x20\n      add\n      mload(0x40)\n      dup1\n      swap2\n      sub\n      swap1\n      keccak256\n        /* \"contracts/SimpleBank/SimpleBank.sol\":2863:2884  accounts[_from].owner */\n      0x00\n      add\n      0x00\n      swap1\n      sload\n      swap1\n      0x0100\n      exp\n      swap1\n      div\n      0xffffffffffffffffffffffffffffffffffffffff\n      and\n        /* \"contracts/SimpleBank/SimpleBank.sol\":2863:2907  accounts[_from].owner != accounts[_to].owner */\n      0xffffffffffffffffffffffffffffffffffffffff\n      and\n      eq\n        /* \"contracts/SimpleBank/SimpleBank.sol\":2859:3340  if (accounts[_from].owner != accounts[_to].owner) {... */\n      tag_179\n      jumpi\n        /* \"contracts/SimpleBank/SimpleBank.sol\":2924:2935  uint256 fee */\n      0x00\n        /* \"contracts/SimpleBank/SimpleBank.sol\":2948:2951  100 */\n      0x64\n        /* \"contracts/SimpleBank/SimpleBank.sol\":2938:2945  _amount */\n      dup3\n        /* \"contracts/SimpleBank/SimpleBank.sol\":2938:2951  _amount / 100 */\n      tag_180\n      swap2\n      swap1\n      tag_99\n      jump\t// in\n    tag_180:\n        /* \"contracts/SimpleBank/SimpleBank.sol\":2924:2951  uint256 fee = _amount / 100 */\n      swap1\n      pop\n        /* \"contracts/SimpleBank/SimpleBank.sol\":2981:2984  fee */\n      dup1\n        /* \"contracts/SimpleBank/SimpleBank.sol\":2966:2977  bankBalance */\n      0x01\n      0x00\n        /* \"contracts/SimpleBank/SimpleBank.sol\":2966:2984  bankBalance += fee */\n      dup3\n      dup3\n      sload\n      tag_181\n      swap2\n      swap1\n      tag_101\n      jump\t// in\n    tag_181:\n      swap3\n      pop\n      pop\n      dup2\n      swap1\n      sstore\n      pop\n        /* \"contracts/SimpleBank/SimpleBank.sol\":3026:3033  _amount */\n      dup2\n        /* \"contracts/SimpleBank/SimpleBank.sol\":2999:3007  accounts */\n      0x03\n        /* \"contracts/SimpleBank/SimpleBank.sol\":3008:3013  _from */\n      dup6\n        /* \"contracts/SimpleBank/SimpleBank.sol\":2999:3014  accounts[_from] */\n      mload(0x40)\n      tag_182\n      swap2\n      swap1\n      tag_61\n      jump\t// in\n    tag_182:\n      swap1\n      dup2\n      mstore\n      0x20\n      add\n      mload(0x40)\n      dup1\n      swap2\n      sub\n      swap1\n      keccak256\n        /* \"contracts/SimpleBank/SimpleBank.sol\":2999:3022  accounts[_from].balance */\n      0x02\n      add\n      0x00\n        /* \"contracts/SimpleBank/SimpleBank.sol\":2999:3033  accounts[_from].balance -= _amount */\n      dup3\n      dup3\n      sload\n      tag_183\n      swap2\n      swap1\n      tag_104\n      jump\t// in\n    tag_183:\n      swap3\n      pop\n      pop\n      dup2\n      swap1\n      sstore\n      pop\n        /* \"contracts/SimpleBank/SimpleBank.sol\":3084:3087  fee */\n      dup1\n        /* \"contracts/SimpleBank/SimpleBank.sol\":3074:3081  _amount */\n      dup3\n        /* \"contracts/SimpleBank/SimpleBank.sol\":3074:3087  _amount - fee */\n      tag_184\n      swap2\n      swap1\n      tag_104\n      jump\t// in\n    tag_184:\n        /* \"contracts/SimpleBank/SimpleBank.sol\":3048:3056  accounts */\n      0x03\n        /* \"contracts/SimpleBank/SimpleBank.sol\":3057:3060  _to */\n      dup5\n        /* \"contracts/SimpleBank/SimpleBank.sol\":3048:3061  accounts[_to] */\n      mload(0x40)\n      tag_185\n      swap2\n      swap1\n      tag_61\n      jump\t// in\n    tag_185:\n      swap1\n      dup2\n      mstore\n      0x20\n      add\n      mload(0x40)\n      dup1\n      swap2\n      sub\n      swap1\n      keccak256\n        /* \"contracts/SimpleBank/SimpleBank.sol\":3048:3069  accounts[_to].balance */\n      0x02\n      add\n      0x00\n        /* \"contracts/SimpleBank/SimpleBank.sol\":3048:3088  accounts[_to].balance += (_amount - fee) */\n      dup3\n      dup3\n      sload\n      tag_186\n      swap2\n      swap1\n      tag_101\n      jump\t// in\n    tag_186:\n      swap3\n      pop\n      pop\n      dup2\n      swap1\n      sstore\n      pop\n        /* \"contracts/SimpleBank/SimpleBank.sol\":3108:3154  TransferAmountEvent(_from, _to, _amount - fee) */\n      0x370044a47246afacf081fd58c8468a6482ebc8673d418e785b8d0492240f95de\n        /* \"contracts/SimpleBank/SimpleBank.sol\":3128:3133  _from */\n      dup5\n        /* \"contracts/SimpleBank/SimpleBank.sol\":3135:3138  _to */\n      dup5\n        /* \"contracts/SimpleBank/SimpleBank.sol\":3150:3153  fee */\n      dup4\n        /* \"contracts/SimpleBank/SimpleBank.sol\":3140:3147  _amount */\n      dup6\n        /* \"contracts/SimpleBank/SimpleBank.sol\":3140:3153  _amount - fee */\n      tag_187\n      swap2\n      swap1\n      tag_104\n      jump\t// in\n    tag_187:\n        /* \"contracts/SimpleBank/SimpleBank.sol\":3108:3154  TransferAmountEvent(_from, _to, _amount - fee) */\n      mload(0x40)\n      tag_188\n      swap4\n      swap3\n      swap2\n      swap1\n      tag_114\n      jump\t// in\n    tag_188:\n      mload(0x40)\n      dup1\n      swap2\n      sub\n      swap1\n      log1\n        /* \"contracts/SimpleBank/SimpleBank.sol\":2909:3166  {... */\n      pop\n        /* \"contracts/SimpleBank/SimpleBank.sol\":2859:3340  if (accounts[_from].owner != accounts[_to].owner) {... */\n      jump(tag_189)\n    tag_179:\n        /* \"contracts/SimpleBank/SimpleBank.sol\":3214:3221  _amount */\n      dup1\n        /* \"contracts/SimpleBank/SimpleBank.sol\":3187:3195  accounts */\n      0x03\n        /* \"contracts/SimpleBank/SimpleBank.sol\":3196:3201  _from */\n      dup5\n        /* \"contracts/SimpleBank/SimpleBank.sol\":3187:3202  accounts[_from] */\n      mload(0x40)\n      tag_190\n      swap2\n      swap1\n      tag_61\n      jump\t// in\n    tag_190:\n      swap1\n      dup2\n      mstore\n      0x20\n      add\n      mload(0x40)\n      dup1\n      swap2\n      sub\n      swap1\n      keccak256\n        /* \"contracts/SimpleBank/SimpleBank.sol\":3187:3210  accounts[_from].balance */\n      0x02\n      add\n      0x00\n        /* \"contracts/SimpleBank/SimpleBank.sol\":3187:3221  accounts[_from].balance -= _amount */\n      dup3\n      dup3\n      sload\n      tag_191\n      swap2\n      swap1\n      tag_104\n      jump\t// in\n    tag_191:\n      swap3\n      pop\n      pop\n      dup2\n      swap1\n      sstore\n      pop\n        /* \"contracts/SimpleBank/SimpleBank.sol\":3261:3268  _amount */\n      dup1\n        /* \"contracts/SimpleBank/SimpleBank.sol\":3236:3244  accounts */\n      0x03\n        /* \"contracts/SimpleBank/SimpleBank.sol\":3245:3248  _to */\n      dup4\n        /* \"contracts/SimpleBank/SimpleBank.sol\":3236:3249  accounts[_to] */\n      mload(0x40)\n      tag_192\n      swap2\n      swap1\n      tag_61\n      jump\t// in\n    tag_192:\n      swap1\n      dup2\n      mstore\n      0x20\n      add\n      mload(0x40)\n      dup1\n      swap2\n      sub\n      swap1\n      keccak256\n        /* \"contracts/SimpleBank/SimpleBank.sol\":3236:3257  accounts[_to].balance */\n      0x02\n      add\n      0x00\n        /* \"contracts/SimpleBank/SimpleBank.sol\":3236:3268  accounts[_to].balance += _amount */\n      dup3\n      dup3\n      sload\n      tag_193\n      swap2\n      swap1\n      tag_101\n      jump\t// in\n    tag_193:\n      swap3\n      pop\n      pop\n      dup2\n      swap1\n      sstore\n      pop\n        /* \"contracts/SimpleBank/SimpleBank.sol\":3288:3328  TransferAmountEvent(_from, _to, _amount) */\n      0x370044a47246afacf081fd58c8468a6482ebc8673d418e785b8d0492240f95de\n        /* \"contracts/SimpleBank/SimpleBank.sol\":3308:3313  _from */\n      dup4\n        /* \"contracts/SimpleBank/SimpleBank.sol\":3315:3318  _to */\n      dup4\n        /* \"contracts/SimpleBank/SimpleBank.sol\":3320:3327  _amount */\n      dup4\n        /* \"contracts/SimpleBank/SimpleBank.sol\":3288:3328  TransferAmountEvent(_from, _to, _amount) */\n      mload(0x40)\n      tag_194\n      swap4\n      swap3\n      swap2\n      swap1\n      tag_114\n      jump\t// in\n    tag_194:\n      mload(0x40)\n      dup1\n      swap2\n      sub\n      swap1\n      log1\n        /* \"contracts/SimpleBank/SimpleBank.sol\":2859:3340  if (accounts[_from].owner != accounts[_to].owner) {... */\n    tag_189:\n        /* \"contracts/SimpleBank/SimpleBank.sol\":2149:3347  function transferAmount(... */\n      pop\n      pop\n      pop\n      jump\t// out\n        /* \"contracts/SimpleBank/SimpleBank.sol\":1132:1479  function deposit(string memory _name) public payable {... */\n    tag_34:\n        /* \"contracts/SimpleBank/SimpleBank.sol\":1247:1251  true */\n      0x01\n        /* \"contracts/SimpleBank/SimpleBank.sol\":1218:1251  isAccountNameExist[_name] == true */\n      iszero\n      iszero\n        /* \"contracts/SimpleBank/SimpleBank.sol\":1218:1236  isAccountNameExist */\n      0x04\n        /* \"contracts/SimpleBank/SimpleBank.sol\":1237:1242  _name */\n      dup3\n        /* \"contracts/SimpleBank/SimpleBank.sol\":1218:1243  isAccountNameExist[_name] */\n      mload(0x40)\n      tag_196\n      swap2\n      swap1\n      tag_61\n      jump\t// in\n    tag_196:\n      swap1\n      dup2\n      mstore\n      0x20\n      add\n      mload(0x40)\n      dup1\n      swap2\n      sub\n      swap1\n      keccak256\n      0x00\n      swap1\n      sload\n      swap1\n      0x0100\n      exp\n      swap1\n      div\n      0xff\n      and\n        /* \"contracts/SimpleBank/SimpleBank.sol\":1218:1251  isAccountNameExist[_name] == true */\n      iszero\n      iszero\n      eq\n        /* \"contracts/SimpleBank/SimpleBank.sol\":1196:1306  require(... */\n      tag_197\n      jumpi\n      mload(0x40)\n      0x08c379a000000000000000000000000000000000000000000000000000000000\n      dup2\n      mstore\n      0x04\n      add\n      tag_198\n      swap1\n      tag_199\n      jump\t// in\n    tag_198:\n      mload(0x40)\n      dup1\n      swap2\n      sub\n      swap1\n      revert\n    tag_197:\n        /* \"contracts/SimpleBank/SimpleBank.sol\":1337:1338  0 */\n      0x00\n        /* \"contracts/SimpleBank/SimpleBank.sol\":1325:1334  msg.value */\n      callvalue\n        /* \"contracts/SimpleBank/SimpleBank.sol\":1325:1338  msg.value > 0 */\n      gt\n        /* \"contracts/SimpleBank/SimpleBank.sol\":1317:1366  require(msg.value > 0, \"deposit_fail_value_zero\") */\n      tag_200\n      jumpi\n      mload(0x40)\n      0x08c379a000000000000000000000000000000000000000000000000000000000\n      dup2\n      mstore\n      0x04\n      add\n      tag_201\n      swap1\n      tag_202\n      jump\t// in\n    tag_201:\n      mload(0x40)\n      dup1\n      swap2\n      sub\n      swap1\n      revert\n    tag_200:\n        /* \"contracts/SimpleBank/SimpleBank.sol\":1404:1413  msg.value */\n      callvalue\n        /* \"contracts/SimpleBank/SimpleBank.sol\":1377:1385  accounts */\n      0x03\n        /* \"contracts/SimpleBank/SimpleBank.sol\":1386:1391  _name */\n      dup3\n        /* \"contracts/SimpleBank/SimpleBank.sol\":1377:1392  accounts[_name] */\n      mload(0x40)\n      tag_203\n      swap2\n      swap1\n      tag_61\n      jump\t// in\n    tag_203:\n      swap1\n      dup2\n      mstore\n      0x20\n      add\n      mload(0x40)\n      dup1\n      swap2\n      sub\n      swap1\n      keccak256\n        /* \"contracts/SimpleBank/SimpleBank.sol\":1377:1400  accounts[_name].balance */\n      0x02\n      add\n      0x00\n        /* \"contracts/SimpleBank/SimpleBank.sol\":1377:1413  accounts[_name].balance += msg.value */\n      dup3\n      dup3\n      sload\n      tag_204\n      swap2\n      swap1\n      tag_101\n      jump\t// in\n    tag_204:\n      swap3\n      pop\n      pop\n      dup2\n      swap1\n      sstore\n      pop\n        /* \"contracts/SimpleBank/SimpleBank.sol\":1429:1471  DepositEvent(msg.sender, _name, msg.value) */\n      0x03e0b25ba1ab101c1d9112766101bb987f00f29a37a44b4a0813ed489a4f3ffa\n        /* \"contracts/SimpleBank/SimpleBank.sol\":1442:1452  msg.sender */\n      caller\n        /* \"contracts/SimpleBank/SimpleBank.sol\":1454:1459  _name */\n      dup3\n        /* \"contracts/SimpleBank/SimpleBank.sol\":1461:1470  msg.value */\n      callvalue\n        /* \"contracts/SimpleBank/SimpleBank.sol\":1429:1471  DepositEvent(msg.sender, _name, msg.value) */\n      mload(0x40)\n      tag_205\n      swap4\n      swap3\n      swap2\n      swap1\n      tag_206\n      jump\t// in\n    tag_205:\n      mload(0x40)\n      dup1\n      swap2\n      sub\n      swap1\n      log1\n        /* \"contracts/SimpleBank/SimpleBank.sol\":1132:1479  function deposit(string memory _name) public payable {... */\n      pop\n      jump\t// out\n        /* \"contracts/SimpleBank/SimpleBank.sol\":5581:5736  function getUserAccounts(address _user)... */\n    tag_39:\n        /* \"contracts/SimpleBank/SimpleBank.sol\":5669:5684  string[] memory */\n      0x60\n        /* \"contracts/SimpleBank/SimpleBank.sol\":5709:5721  userAccounts */\n      0x02\n        /* \"contracts/SimpleBank/SimpleBank.sol\":5709:5728  userAccounts[_user] */\n      0x00\n        /* \"contracts/SimpleBank/SimpleBank.sol\":5722:5727  _user */\n      dup4\n        /* \"contracts/SimpleBank/SimpleBank.sol\":5709:5728  userAccounts[_user] */\n      0xffffffffffffffffffffffffffffffffffffffff\n      and\n      0xffffffffffffffffffffffffffffffffffffffff\n      and\n      dup2\n      mstore\n      0x20\n      add\n      swap1\n      dup2\n      mstore\n      0x20\n      add\n      0x00\n      keccak256\n        /* \"contracts/SimpleBank/SimpleBank.sol\":5702:5728  return userAccounts[_user] */\n      dup1\n      sload\n      dup1\n      0x20\n      mul\n      0x20\n      add\n      mload(0x40)\n      swap1\n      dup2\n      add\n      0x40\n      mstore\n      dup1\n      swap3\n      swap2\n      swap1\n      dup2\n      dup2\n      mstore\n      0x20\n      add\n      0x00\n      swap1\n    tag_208:\n      dup3\n      dup3\n      lt\n      iszero\n      tag_209\n      jumpi\n      dup4\n      dup3\n      swap1\n      0x00\n      mstore\n      keccak256(0x00, 0x20)\n      add\n      dup1\n      sload\n      tag_211\n      swap1\n      tag_212\n      jump\t// in\n    tag_211:\n      dup1\n      0x1f\n      add\n      0x20\n      dup1\n      swap2\n      div\n      mul\n      0x20\n      add\n      mload(0x40)\n      swap1\n      dup2\n      add\n      0x40\n      mstore\n      dup1\n      swap3\n      swap2\n      swap1\n      dup2\n      dup2\n      mstore\n      0x20\n      add\n      dup3\n      dup1\n      sload\n      tag_213\n      swap1\n      tag_212\n      jump\t// in\n    tag_213:\n      dup1\n      iszero\n      tag_214\n      jumpi\n      dup1\n      0x1f\n      lt\n      tag_215\n      jumpi\n      0x0100\n      dup1\n      dup4\n      sload\n      div\n      mul\n      dup4\n      mstore\n      swap2\n      0x20\n      add\n      swap2\n      jump(tag_214)\n    tag_215:\n      dup3\n      add\n      swap2\n      swap1\n      0x00\n      mstore\n      keccak256(0x00, 0x20)\n      swap1\n    tag_216:\n      dup2\n      sload\n      dup2\n      mstore\n      swap1\n      0x01\n      add\n      swap1\n      0x20\n      add\n      dup1\n      dup4\n      gt\n      tag_216\n      jumpi\n      dup3\n      swap1\n      sub\n      0x1f\n      and\n      dup3\n      add\n      swap2\n    tag_214:\n      pop\n      pop\n      pop\n      pop\n      pop\n      dup2\n      mstore\n      0x20\n      add\n      swap1\n      0x01\n      add\n      swap1\n      jump(tag_208)\n    tag_209:\n      pop\n      pop\n      pop\n      pop\n      swap1\n      pop\n        /* \"contracts/SimpleBank/SimpleBank.sol\":5581:5736  function getUserAccounts(address _user)... */\n      swap2\n      swap1\n      pop\n      jump\t// out\n        /* \"contracts/SimpleBank/SimpleBank.sol\":5415:5573  function getBalanceByName(string memory _name)... */\n    tag_45:\n        /* \"contracts/SimpleBank/SimpleBank.sol\":5510:5517  uint256 */\n      0x00\n        /* \"contracts/SimpleBank/SimpleBank.sol\":5542:5550  accounts */\n      0x03\n        /* \"contracts/SimpleBank/SimpleBank.sol\":5551:5556  _name */\n      dup3\n        /* \"contracts/SimpleBank/SimpleBank.sol\":5542:5557  accounts[_name] */\n      mload(0x40)\n      tag_218\n      swap2\n      swap1\n      tag_61\n      jump\t// in\n    tag_218:\n      swap1\n      dup2\n      mstore\n      0x20\n      add\n      mload(0x40)\n      dup1\n      swap2\n      sub\n      swap1\n      keccak256\n        /* \"contracts/SimpleBank/SimpleBank.sol\":5542:5565  accounts[_name].balance */\n      0x02\n      add\n      sload\n        /* \"contracts/SimpleBank/SimpleBank.sol\":5535:5565  return accounts[_name].balance */\n      swap1\n      pop\n        /* \"contracts/SimpleBank/SimpleBank.sol\":5415:5573  function getBalanceByName(string memory _name)... */\n      swap2\n      swap1\n      pop\n      jump\t// out\n        /* \"contracts/SimpleBank/SimpleBank.sol\":5250:5407  function getAccountByName(string memory _name)... */\n    tag_51:\n        /* \"contracts/SimpleBank/SimpleBank.sol\":5345:5359  Account memory */\n      tag_219\n      tag_220\n      jump\t// in\n    tag_219:\n        /* \"contracts/SimpleBank/SimpleBank.sol\":5384:5392  accounts */\n      0x03\n        /* \"contracts/SimpleBank/SimpleBank.sol\":5393:5398  _name */\n      dup3\n        /* \"contracts/SimpleBank/SimpleBank.sol\":5384:5399  accounts[_name] */\n      mload(0x40)\n      tag_222\n      swap2\n      swap1\n      tag_61\n      jump\t// in\n    tag_222:\n      swap1\n      dup2\n      mstore\n      0x20\n      add\n      mload(0x40)\n      dup1\n      swap2\n      sub\n      swap1\n      keccak256\n        /* \"contracts/SimpleBank/SimpleBank.sol\":5377:5399  return accounts[_name] */\n      mload(0x40)\n      dup1\n      0x60\n      add\n      0x40\n      mstore\n      swap1\n      dup2\n      0x00\n      dup3\n      add\n      0x00\n      swap1\n      sload\n      swap1\n      0x0100\n      exp\n      swap1\n      div\n      0xffffffffffffffffffffffffffffffffffffffff\n      and\n      0xffffffffffffffffffffffffffffffffffffffff\n      and\n      0xffffffffffffffffffffffffffffffffffffffff\n      and\n      dup2\n      mstore\n      0x20\n      add\n      0x01\n      dup3\n      add\n      dup1\n      sload\n      tag_223\n      swap1\n      tag_212\n      jump\t// in\n    tag_223:\n      dup1\n      0x1f\n      add\n      0x20\n      dup1\n      swap2\n      div\n      mul\n      0x20\n      add\n      mload(0x40)\n      swap1\n      dup2\n      add\n      0x40\n      mstore\n      dup1\n      swap3\n      swap2\n      swap1\n      dup2\n      dup2\n      mstore\n      0x20\n      add\n      dup3\n      dup1\n      sload\n      tag_224\n      swap1\n      tag_212\n      jump\t// in\n    tag_224:\n      dup1\n      iszero\n      tag_225\n      jumpi\n      dup1\n      0x1f\n      lt\n      tag_226\n      jumpi\n      0x0100\n      dup1\n      dup4\n      sload\n      div\n      mul\n      dup4\n      mstore\n      swap2\n      0x20\n      add\n      swap2\n      jump(tag_225)\n    tag_226:\n      dup3\n      add\n      swap2\n      swap1\n      0x00\n      mstore\n      keccak256(0x00, 0x20)\n      swap1\n    tag_227:\n      dup2\n      sload\n      dup2\n      mstore\n      swap1\n      0x01\n      add\n      swap1\n      0x20\n      add\n      dup1\n      dup4\n      gt\n      tag_227\n      jumpi\n      dup3\n      swap1\n      sub\n      0x1f\n      and\n      dup3\n      add\n      swap2\n    tag_225:\n      pop\n      pop\n      pop\n      pop\n      pop\n      dup2\n      mstore\n      0x20\n      add\n      0x02\n      dup3\n      add\n      sload\n      dup2\n      mstore\n      pop\n      pop\n      swap1\n      pop\n        /* \"contracts/SimpleBank/SimpleBank.sol\":5250:5407  function getAccountByName(string memory _name)... */\n      swap2\n      swap1\n      pop\n      jump\t// out\n        /* \"contracts/SimpleBank/SimpleBank.sol\":3355:3708  function withdrawnBankBalance(uint256 _amount) public {... */\n    tag_58:\n        /* \"contracts/SimpleBank/SimpleBank.sol\":3441:3451  msg.sender */\n      caller\n        /* \"contracts/SimpleBank/SimpleBank.sol\":3428:3451  bankOwner == msg.sender */\n      0xffffffffffffffffffffffffffffffffffffffff\n      and\n        /* \"contracts/SimpleBank/SimpleBank.sol\":3428:3437  bankOwner */\n      0x00\n      dup1\n      sload\n      swap1\n      0x0100\n      exp\n      swap1\n      div\n      0xffffffffffffffffffffffffffffffffffffffff\n      and\n        /* \"contracts/SimpleBank/SimpleBank.sol\":3428:3451  bankOwner == msg.sender */\n      0xffffffffffffffffffffffffffffffffffffffff\n      and\n      eq\n        /* \"contracts/SimpleBank/SimpleBank.sol\":3420:3480  require(bankOwner == msg.sender, \"withdrawn_fail_not_owner\") */\n      tag_229\n      jumpi\n      mload(0x40)\n      0x08c379a000000000000000000000000000000000000000000000000000000000\n      dup2\n      mstore\n      0x04\n      add\n      tag_230\n      swap1\n      tag_148\n      jump\t// in\n    tag_230:\n      mload(0x40)\n      dup1\n      swap2\n      sub\n      swap1\n      revert\n    tag_229:\n        /* \"contracts/SimpleBank/SimpleBank.sol\":3509:3510  0 */\n      0x00\n        /* \"contracts/SimpleBank/SimpleBank.sol\":3499:3506  _amount */\n      dup2\n        /* \"contracts/SimpleBank/SimpleBank.sol\":3499:3510  _amount > 0 */\n      gt\n        /* \"contracts/SimpleBank/SimpleBank.sol\":3491:3540  require(_amount > 0, \"withdrawn_fail_value_zero\") */\n      tag_231\n      jumpi\n      mload(0x40)\n      0x08c379a000000000000000000000000000000000000000000000000000000000\n      dup2\n      mstore\n      0x04\n      add\n      tag_232\n      swap1\n      tag_151\n      jump\t// in\n    tag_232:\n      mload(0x40)\n      dup1\n      swap2\n      sub\n      swap1\n      revert\n    tag_231:\n        /* \"contracts/SimpleBank/SimpleBank.sol\":3574:3581  _amount */\n      dup1\n        /* \"contracts/SimpleBank/SimpleBank.sol\":3559:3570  bankBalance */\n      sload(0x01)\n        /* \"contracts/SimpleBank/SimpleBank.sol\":3559:3581  bankBalance >= _amount */\n      lt\n      iszero\n        /* \"contracts/SimpleBank/SimpleBank.sol\":3551:3619  require(bankBalance >= _amount, \"withdrawn_fail_balance_not_enough\") */\n      tag_233\n      jumpi\n      mload(0x40)\n      0x08c379a000000000000000000000000000000000000000000000000000000000\n      dup2\n      mstore\n      0x04\n      add\n      tag_234\n      swap1\n      tag_155\n      jump\t// in\n    tag_234:\n      mload(0x40)\n      dup1\n      swap2\n      sub\n      swap1\n      revert\n    tag_233:\n        /* \"contracts/SimpleBank/SimpleBank.sol\":3645:3652  _amount */\n      dup1\n        /* \"contracts/SimpleBank/SimpleBank.sol\":3630:3641  bankBalance */\n      0x01\n      0x00\n        /* \"contracts/SimpleBank/SimpleBank.sol\":3630:3652  bankBalance -= _amount */\n      dup3\n      dup3\n      sload\n      tag_235\n      swap2\n      swap1\n      tag_104\n      jump\t// in\n    tag_235:\n      swap3\n      pop\n      pop\n      dup2\n      swap1\n      sstore\n      pop\n        /* \"contracts/SimpleBank/SimpleBank.sol\":3671:3681  msg.sender */\n      caller\n        /* \"contracts/SimpleBank/SimpleBank.sol\":3663:3691  payable(msg.sender).transfer */\n      0xffffffffffffffffffffffffffffffffffffffff\n      and\n        /* \"contracts/SimpleBank/SimpleBank.sol\":3663:3700  payable(msg.sender).transfer(_amount) */\n      0x08fc\n        /* \"contracts/SimpleBank/SimpleBank.sol\":3692:3699  _amount */\n      dup3\n        /* \"contracts/SimpleBank/SimpleBank.sol\":3663:3700  payable(msg.sender).transfer(_amount) */\n      swap1\n      dup2\n      iszero\n      mul\n      swap1\n      mload(0x40)\n      0x00\n      mload(0x40)\n      dup1\n      dup4\n      sub\n      dup2\n      dup6\n      dup9\n      dup9\n      call\n      swap4\n      pop\n      pop\n      pop\n      pop\n      iszero\n      dup1\n      iszero\n      tag_237\n      jumpi\n      returndatasize\n      0x00\n      dup1\n      returndatacopy\n      revert(0x00, returndatasize)\n    tag_237:\n      pop\n        /* \"contracts/SimpleBank/SimpleBank.sol\":3355:3708  function withdrawnBankBalance(uint256 _amount) public {... */\n      pop\n      jump\t// out\n    tag_220:\n      mload(0x40)\n      dup1\n      0x60\n      add\n      0x40\n      mstore\n      dup1\n      and(0xffffffffffffffffffffffffffffffffffffffff, 0x00)\n      dup2\n      mstore\n      0x20\n      add\n      0x60\n      dup2\n      mstore\n      0x20\n      add\n      0x00\n      dup2\n      mstore\n      pop\n      swap1\n      jump\t// out\n        /* \"#utility.yul\":7:82   */\n    tag_238:\n        /* \"#utility.yul\":40:46   */\n      0x00\n        /* \"#utility.yul\":73:75   */\n      0x40\n        /* \"#utility.yul\":67:76   */\n      mload\n        /* \"#utility.yul\":57:76   */\n      swap1\n      pop\n        /* \"#utility.yul\":7:82   */\n      swap1\n      jump\t// out\n        /* \"#utility.yul\":88:205   */\n    tag_239:\n        /* \"#utility.yul\":197:198   */\n      0x00\n        /* \"#utility.yul\":194:195   */\n      dup1\n        /* \"#utility.yul\":187:199   */\n      revert\n        /* \"#utility.yul\":211:328   */\n    tag_240:\n        /* \"#utility.yul\":320:321   */\n      0x00\n        /* \"#utility.yul\":317:318   */\n      dup1\n        /* \"#utility.yul\":310:322   */\n      revert\n        /* \"#utility.yul\":334:451   */\n    tag_241:\n        /* \"#utility.yul\":443:444   */\n      0x00\n        /* \"#utility.yul\":440:441   */\n      dup1\n        /* \"#utility.yul\":433:445   */\n      revert\n        /* \"#utility.yul\":457:574   */\n    tag_242:\n        /* \"#utility.yul\":566:567   */\n      0x00\n        /* \"#utility.yul\":563:564   */\n      dup1\n        /* \"#utility.yul\":556:568   */\n      revert\n        /* \"#utility.yul\":580:682   */\n    tag_243:\n        /* \"#utility.yul\":621:627   */\n      0x00\n        /* \"#utility.yul\":672:674   */\n      0x1f\n        /* \"#utility.yul\":668:675   */\n      not\n        /* \"#utility.yul\":663:665   */\n      0x1f\n        /* \"#utility.yul\":656:661   */\n      dup4\n        /* \"#utility.yul\":652:666   */\n      add\n        /* \"#utility.yul\":648:676   */\n      and\n        /* \"#utility.yul\":638:676   */\n      swap1\n      pop\n        /* \"#utility.yul\":580:682   */\n      swap2\n      swap1\n      pop\n      jump\t// out\n        /* \"#utility.yul\":688:868   */\n    tag_244:\n        /* \"#utility.yul\":736:813   */\n      0x4e487b7100000000000000000000000000000000000000000000000000000000\n        /* \"#utility.yul\":733:734   */\n      0x00\n        /* \"#utility.yul\":726:814   */\n      mstore\n        /* \"#utility.yul\":833:837   */\n      0x41\n        /* \"#utility.yul\":830:831   */\n      0x04\n        /* \"#utility.yul\":823:838   */\n      mstore\n        /* \"#utility.yul\":857:861   */\n      0x24\n        /* \"#utility.yul\":854:855   */\n      0x00\n        /* \"#utility.yul\":847:862   */\n      revert\n        /* \"#utility.yul\":874:1155   */\n    tag_245:\n        /* \"#utility.yul\":957:984   */\n      tag_332\n        /* \"#utility.yul\":979:983   */\n      dup3\n        /* \"#utility.yul\":957:984   */\n      tag_243\n      jump\t// in\n    tag_332:\n        /* \"#utility.yul\":949:955   */\n      dup2\n        /* \"#utility.yul\":945:985   */\n      add\n        /* \"#utility.yul\":1087:1093   */\n      dup2\n        /* \"#utility.yul\":1075:1085   */\n      dup2\n        /* \"#utility.yul\":1072:1094   */\n      lt\n        /* \"#utility.yul\":1051:1069   */\n      0xffffffffffffffff\n        /* \"#utility.yul\":1039:1049   */\n      dup3\n        /* \"#utility.yul\":1036:1070   */\n      gt\n        /* \"#utility.yul\":1033:1095   */\n      or\n        /* \"#utility.yul\":1030:1118   */\n      iszero\n      tag_333\n      jumpi\n        /* \"#utility.yul\":1098:1116   */\n      tag_334\n      tag_244\n      jump\t// in\n    tag_334:\n        /* \"#utility.yul\":1030:1118   */\n    tag_333:\n        /* \"#utility.yul\":1138:1148   */\n      dup1\n        /* \"#utility.yul\":1134:1136   */\n      0x40\n        /* \"#utility.yul\":1127:1149   */\n      mstore\n        /* \"#utility.yul\":917:1155   */\n      pop\n        /* \"#utility.yul\":874:1155   */\n      pop\n      pop\n      jump\t// out\n        /* \"#utility.yul\":1161:1290   */\n    tag_246:\n        /* \"#utility.yul\":1195:1201   */\n      0x00\n        /* \"#utility.yul\":1222:1242   */\n      tag_336\n      tag_238\n      jump\t// in\n    tag_336:\n        /* \"#utility.yul\":1212:1242   */\n      swap1\n      pop\n        /* \"#utility.yul\":1251:1284   */\n      tag_337\n        /* \"#utility.yul\":1279:1283   */\n      dup3\n        /* \"#utility.yul\":1271:1277   */\n      dup3\n        /* \"#utility.yul\":1251:1284   */\n      tag_245\n      jump\t// in\n    tag_337:\n        /* \"#utility.yul\":1161:1290   */\n      swap2\n      swap1\n      pop\n      jump\t// out\n        /* \"#utility.yul\":1296:1604   */\n    tag_247:\n        /* \"#utility.yul\":1358:1362   */\n      0x00\n        /* \"#utility.yul\":1448:1466   */\n      0xffffffffffffffff\n        /* \"#utility.yul\":1440:1446   */\n      dup3\n        /* \"#utility.yul\":1437:1467   */\n      gt\n        /* \"#utility.yul\":1434:1490   */\n      iszero\n      tag_339\n      jumpi\n        /* \"#utility.yul\":1470:1488   */\n      tag_340\n      tag_244\n      jump\t// in\n    tag_340:\n        /* \"#utility.yul\":1434:1490   */\n    tag_339:\n        /* \"#utility.yul\":1508:1537   */\n      tag_341\n        /* \"#utility.yul\":1530:1536   */\n      dup3\n        /* \"#utility.yul\":1508:1537   */\n      tag_243\n      jump\t// in\n    tag_341:\n        /* \"#utility.yul\":1500:1537   */\n      swap1\n      pop\n        /* \"#utility.yul\":1592:1596   */\n      0x20\n        /* \"#utility.yul\":1586:1590   */\n      dup2\n        /* \"#utility.yul\":1582:1597   */\n      add\n        /* \"#utility.yul\":1574:1597   */\n      swap1\n      pop\n        /* \"#utility.yul\":1296:1604   */\n      swap2\n      swap1\n      pop\n      jump\t// out\n        /* \"#utility.yul\":1610:1764   */\n    tag_248:\n        /* \"#utility.yul\":1694:1700   */\n      dup3\n        /* \"#utility.yul\":1689:1692   */\n      dup2\n        /* \"#utility.yul\":1684:1687   */\n      dup4\n        /* \"#utility.yul\":1671:1701   */\n      calldatacopy\n        /* \"#utility.yul\":1756:1757   */\n      0x00\n        /* \"#utility.yul\":1747:1753   */\n      dup4\n        /* \"#utility.yul\":1742:1745   */\n      dup4\n        /* \"#utility.yul\":1738:1754   */\n      add\n        /* \"#utility.yul\":1731:1758   */\n      mstore\n        /* \"#utility.yul\":1610:1764   */\n      pop\n      pop\n      pop\n      jump\t// out\n        /* \"#utility.yul\":1770:2182   */\n    tag_249:\n        /* \"#utility.yul\":1848:1853   */\n      0x00\n        /* \"#utility.yul\":1873:1939   */\n      tag_344\n        /* \"#utility.yul\":1889:1938   */\n      tag_345\n        /* \"#utility.yul\":1931:1937   */\n      dup5\n        /* \"#utility.yul\":1889:1938   */\n      tag_247\n      jump\t// in\n    tag_345:\n        /* \"#utility.yul\":1873:1939   */\n      tag_246\n      jump\t// in\n    tag_344:\n        /* \"#utility.yul\":1864:1939   */\n      swap1\n      pop\n        /* \"#utility.yul\":1962:1968   */\n      dup3\n        /* \"#utility.yul\":1955:1960   */\n      dup2\n        /* \"#utility.yul\":1948:1969   */\n      mstore\n        /* \"#utility.yul\":2000:2004   */\n      0x20\n        /* \"#utility.yul\":1993:1998   */\n      dup2\n        /* \"#utility.yul\":1989:2005   */\n      add\n        /* \"#utility.yul\":2038:2041   */\n      dup5\n        /* \"#utility.yul\":2029:2035   */\n      dup5\n        /* \"#utility.yul\":2024:2027   */\n      dup5\n        /* \"#utility.yul\":2020:2036   */\n      add\n        /* \"#utility.yul\":2017:2042   */\n      gt\n        /* \"#utility.yul\":2014:2126   */\n      iszero\n      tag_346\n      jumpi\n        /* \"#utility.yul\":2045:2124   */\n      tag_347\n      tag_242\n      jump\t// in\n    tag_347:\n        /* \"#utility.yul\":2014:2126   */\n    tag_346:\n        /* \"#utility.yul\":2135:2176   */\n      tag_348\n        /* \"#utility.yul\":2169:2175   */\n      dup5\n        /* \"#utility.yul\":2164:2167   */\n      dup3\n        /* \"#utility.yul\":2159:2162   */\n      dup6\n        /* \"#utility.yul\":2135:2176   */\n      tag_248\n      jump\t// in\n    tag_348:\n        /* \"#utility.yul\":1854:2182   */\n      pop\n        /* \"#utility.yul\":1770:2182   */\n      swap4\n      swap3\n      pop\n      pop\n      pop\n      jump\t// out\n        /* \"#utility.yul\":2202:2542   */\n    tag_250:\n        /* \"#utility.yul\":2258:2263   */\n      0x00\n        /* \"#utility.yul\":2307:2310   */\n      dup3\n        /* \"#utility.yul\":2300:2304   */\n      0x1f\n        /* \"#utility.yul\":2292:2298   */\n      dup4\n        /* \"#utility.yul\":2288:2305   */\n      add\n        /* \"#utility.yul\":2284:2311   */\n      slt\n        /* \"#utility.yul\":2274:2396   */\n      tag_350\n      jumpi\n        /* \"#utility.yul\":2315:2394   */\n      tag_351\n      tag_241\n      jump\t// in\n    tag_351:\n        /* \"#utility.yul\":2274:2396   */\n    tag_350:\n        /* \"#utility.yul\":2432:2438   */\n      dup2\n        /* \"#utility.yul\":2419:2439   */\n      calldataload\n        /* \"#utility.yul\":2457:2536   */\n      tag_352\n        /* \"#utility.yul\":2532:2535   */\n      dup5\n        /* \"#utility.yul\":2524:2530   */\n      dup3\n        /* \"#utility.yul\":2517:2521   */\n      0x20\n        /* \"#utility.yul\":2509:2515   */\n      dup7\n        /* \"#utility.yul\":2505:2522   */\n      add\n        /* \"#utility.yul\":2457:2536   */\n      tag_249\n      jump\t// in\n    tag_352:\n        /* \"#utility.yul\":2448:2536   */\n      swap2\n      pop\n        /* \"#utility.yul\":2264:2542   */\n      pop\n        /* \"#utility.yul\":2202:2542   */\n      swap3\n      swap2\n      pop\n      pop\n      jump\t// out\n        /* \"#utility.yul\":2548:2869   */\n    tag_251:\n        /* \"#utility.yul\":2635:2639   */\n      0x00\n        /* \"#utility.yul\":2725:2743   */\n      0xffffffffffffffff\n        /* \"#utility.yul\":2717:2723   */\n      dup3\n        /* \"#utility.yul\":2714:2744   */\n      gt\n        /* \"#utility.yul\":2711:2767   */\n      iszero\n      tag_354\n      jumpi\n        /* \"#utility.yul\":2747:2765   */\n      tag_355\n      tag_244\n      jump\t// in\n    tag_355:\n        /* \"#utility.yul\":2711:2767   */\n    tag_354:\n        /* \"#utility.yul\":2797:2801   */\n      0x20\n        /* \"#utility.yul\":2789:2795   */\n      dup3\n        /* \"#utility.yul\":2785:2802   */\n      mul\n        /* \"#utility.yul\":2777:2802   */\n      swap1\n      pop\n        /* \"#utility.yul\":2857:2861   */\n      0x20\n        /* \"#utility.yul\":2851:2855   */\n      dup2\n        /* \"#utility.yul\":2847:2862   */\n      add\n        /* \"#utility.yul\":2839:2862   */\n      swap1\n      pop\n        /* \"#utility.yul\":2548:2869   */\n      swap2\n      swap1\n      pop\n      jump\t// out\n        /* \"#utility.yul\":2875:2992   */\n    tag_252:\n        /* \"#utility.yul\":2984:2985   */\n      0x00\n        /* \"#utility.yul\":2981:2982   */\n      dup1\n        /* \"#utility.yul\":2974:2986   */\n      revert\n        /* \"#utility.yul\":3014:3959   */\n    tag_253:\n        /* \"#utility.yul\":3120:3125   */\n      0x00\n        /* \"#utility.yul\":3145:3236   */\n      tag_358\n        /* \"#utility.yul\":3161:3235   */\n      tag_359\n        /* \"#utility.yul\":3228:3234   */\n      dup5\n        /* \"#utility.yul\":3161:3235   */\n      tag_251\n      jump\t// in\n    tag_359:\n        /* \"#utility.yul\":3145:3236   */\n      tag_246\n      jump\t// in\n    tag_358:\n        /* \"#utility.yul\":3136:3236   */\n      swap1\n      pop\n        /* \"#utility.yul\":3256:3261   */\n      dup1\n        /* \"#utility.yul\":3285:3291   */\n      dup4\n        /* \"#utility.yul\":3278:3283   */\n      dup3\n        /* \"#utility.yul\":3271:3292   */\n      mstore\n        /* \"#utility.yul\":3319:3323   */\n      0x20\n        /* \"#utility.yul\":3312:3317   */\n      dup3\n        /* \"#utility.yul\":3308:3324   */\n      add\n        /* \"#utility.yul\":3301:3324   */\n      swap1\n      pop\n        /* \"#utility.yul\":3372:3376   */\n      0x20\n        /* \"#utility.yul\":3364:3370   */\n      dup5\n        /* \"#utility.yul\":3360:3377   */\n      mul\n        /* \"#utility.yul\":3352:3358   */\n      dup4\n        /* \"#utility.yul\":3348:3378   */\n      add\n        /* \"#utility.yul\":3401:3404   */\n      dup6\n        /* \"#utility.yul\":3393:3399   */\n      dup2\n        /* \"#utility.yul\":3390:3405   */\n      gt\n        /* \"#utility.yul\":3387:3509   */\n      iszero\n      tag_360\n      jumpi\n        /* \"#utility.yul\":3420:3499   */\n      tag_361\n      tag_252\n      jump\t// in\n    tag_361:\n        /* \"#utility.yul\":3387:3509   */\n    tag_360:\n        /* \"#utility.yul\":3535:3541   */\n      dup4\n        /* \"#utility.yul\":3518:3953   */\n    tag_362:\n        /* \"#utility.yul\":3552:3558   */\n      dup2\n        /* \"#utility.yul\":3547:3550   */\n      dup2\n        /* \"#utility.yul\":3544:3559   */\n      lt\n        /* \"#utility.yul\":3518:3953   */\n      iszero\n      tag_364\n      jumpi\n        /* \"#utility.yul\":3641:3644   */\n      dup1\n        /* \"#utility.yul\":3628:3645   */\n      calldataload\n        /* \"#utility.yul\":3677:3695   */\n      0xffffffffffffffff\n        /* \"#utility.yul\":3664:3675   */\n      dup2\n        /* \"#utility.yul\":3661:3696   */\n      gt\n        /* \"#utility.yul\":3658:3780   */\n      iszero\n      tag_365\n      jumpi\n        /* \"#utility.yul\":3699:3778   */\n      tag_366\n      tag_241\n      jump\t// in\n    tag_366:\n        /* \"#utility.yul\":3658:3780   */\n    tag_365:\n        /* \"#utility.yul\":3823:3834   */\n      dup1\n        /* \"#utility.yul\":3815:3821   */\n      dup7\n        /* \"#utility.yul\":3811:3835   */\n      add\n        /* \"#utility.yul\":3861:3908   */\n      tag_367\n        /* \"#utility.yul\":3904:3907   */\n      dup10\n        /* \"#utility.yul\":3892:3902   */\n      dup3\n        /* \"#utility.yul\":3861:3908   */\n      tag_250\n      jump\t// in\n    tag_367:\n        /* \"#utility.yul\":3856:3859   */\n      dup6\n        /* \"#utility.yul\":3849:3909   */\n      mstore\n        /* \"#utility.yul\":3938:3942   */\n      0x20\n        /* \"#utility.yul\":3933:3936   */\n      dup6\n        /* \"#utility.yul\":3929:3943   */\n      add\n        /* \"#utility.yul\":3922:3943   */\n      swap5\n      pop\n        /* \"#utility.yul\":3594:3953   */\n      pop\n      pop\n        /* \"#utility.yul\":3578:3582   */\n      0x20\n        /* \"#utility.yul\":3573:3576   */\n      dup2\n        /* \"#utility.yul\":3569:3583   */\n      add\n        /* \"#utility.yul\":3562:3583   */\n      swap1\n      pop\n        /* \"#utility.yul\":3518:3953   */\n      jump(tag_362)\n    tag_364:\n        /* \"#utility.yul\":3522:3543   */\n      pop\n        /* \"#utility.yul\":3126:3959   */\n      pop\n      pop\n        /* \"#utility.yul\":3014:3959   */\n      swap4\n      swap3\n      pop\n      pop\n      pop\n      jump\t// out\n        /* \"#utility.yul\":3981:4371   */\n    tag_254:\n        /* \"#utility.yul\":4062:4067   */\n      0x00\n        /* \"#utility.yul\":4111:4114   */\n      dup3\n        /* \"#utility.yul\":4104:4108   */\n      0x1f\n        /* \"#utility.yul\":4096:4102   */\n      dup4\n        /* \"#utility.yul\":4092:4109   */\n      add\n        /* \"#utility.yul\":4088:4115   */\n      slt\n        /* \"#utility.yul\":4078:4200   */\n      tag_369\n      jumpi\n        /* \"#utility.yul\":4119:4198   */\n      tag_370\n      tag_241\n      jump\t// in\n    tag_370:\n        /* \"#utility.yul\":4078:4200   */\n    tag_369:\n        /* \"#utility.yul\":4236:4242   */\n      dup2\n        /* \"#utility.yul\":4223:4243   */\n      calldataload\n        /* \"#utility.yul\":4261:4365   */\n      tag_371\n        /* \"#utility.yul\":4361:4364   */\n      dup5\n        /* \"#utility.yul\":4353:4359   */\n      dup3\n        /* \"#utility.yul\":4346:4350   */\n      0x20\n        /* \"#utility.yul\":4338:4344   */\n      dup7\n        /* \"#utility.yul\":4334:4351   */\n      add\n        /* \"#utility.yul\":4261:4365   */\n      tag_253\n      jump\t// in\n    tag_371:\n        /* \"#utility.yul\":4252:4365   */\n      swap2\n      pop\n        /* \"#utility.yul\":4068:4371   */\n      pop\n        /* \"#utility.yul\":3981:4371   */\n      swap3\n      swap2\n      pop\n      pop\n      jump\t// out\n        /* \"#utility.yul\":4377:4454   */\n    tag_255:\n        /* \"#utility.yul\":4414:4421   */\n      0x00\n        /* \"#utility.yul\":4443:4448   */\n      dup2\n        /* \"#utility.yul\":4432:4448   */\n      swap1\n      pop\n        /* \"#utility.yul\":4377:4454   */\n      swap2\n      swap1\n      pop\n      jump\t// out\n        /* \"#utility.yul\":4460:4582   */\n    tag_256:\n        /* \"#utility.yul\":4533:4557   */\n      tag_374\n        /* \"#utility.yul\":4551:4556   */\n      dup2\n        /* \"#utility.yul\":4533:4557   */\n      tag_255\n      jump\t// in\n    tag_374:\n        /* \"#utility.yul\":4526:4531   */\n      dup2\n        /* \"#utility.yul\":4523:4558   */\n      eq\n        /* \"#utility.yul\":4513:4576   */\n      tag_375\n      jumpi\n        /* \"#utility.yul\":4572:4573   */\n      0x00\n        /* \"#utility.yul\":4569:4570   */\n      dup1\n        /* \"#utility.yul\":4562:4574   */\n      revert\n        /* \"#utility.yul\":4513:4576   */\n    tag_375:\n        /* \"#utility.yul\":4460:4582   */\n      pop\n      jump\t// out\n        /* \"#utility.yul\":4588:4727   */\n    tag_257:\n        /* \"#utility.yul\":4634:4639   */\n      0x00\n        /* \"#utility.yul\":4672:4678   */\n      dup2\n        /* \"#utility.yul\":4659:4679   */\n      calldataload\n        /* \"#utility.yul\":4650:4679   */\n      swap1\n      pop\n        /* \"#utility.yul\":4688:4721   */\n      tag_377\n        /* \"#utility.yul\":4715:4720   */\n      dup2\n        /* \"#utility.yul\":4688:4721   */\n      tag_256\n      jump\t// in\n    tag_377:\n        /* \"#utility.yul\":4588:4727   */\n      swap3\n      swap2\n      pop\n      pop\n      jump\t// out\n        /* \"#utility.yul\":4733:5762   */\n    tag_15:\n        /* \"#utility.yul\":4855:4861   */\n      0x00\n        /* \"#utility.yul\":4863:4869   */\n      dup1\n        /* \"#utility.yul\":4871:4877   */\n      0x00\n        /* \"#utility.yul\":4920:4922   */\n      0x60\n        /* \"#utility.yul\":4908:4917   */\n      dup5\n        /* \"#utility.yul\":4899:4906   */\n      dup7\n        /* \"#utility.yul\":4895:4918   */\n      sub\n        /* \"#utility.yul\":4891:4923   */\n      slt\n        /* \"#utility.yul\":4888:5007   */\n      iszero\n      tag_379\n      jumpi\n        /* \"#utility.yul\":4926:5005   */\n      tag_380\n      tag_239\n      jump\t// in\n    tag_380:\n        /* \"#utility.yul\":4888:5007   */\n    tag_379:\n        /* \"#utility.yul\":5074:5075   */\n      0x00\n        /* \"#utility.yul\":5063:5072   */\n      dup5\n        /* \"#utility.yul\":5059:5076   */\n      add\n        /* \"#utility.yul\":5046:5077   */\n      calldataload\n        /* \"#utility.yul\":5104:5122   */\n      0xffffffffffffffff\n        /* \"#utility.yul\":5096:5102   */\n      dup2\n        /* \"#utility.yul\":5093:5123   */\n      gt\n        /* \"#utility.yul\":5090:5207   */\n      iszero\n      tag_381\n      jumpi\n        /* \"#utility.yul\":5126:5205   */\n      tag_382\n      tag_240\n      jump\t// in\n    tag_382:\n        /* \"#utility.yul\":5090:5207   */\n    tag_381:\n        /* \"#utility.yul\":5231:5294   */\n      tag_383\n        /* \"#utility.yul\":5286:5293   */\n      dup7\n        /* \"#utility.yul\":5277:5283   */\n      dup3\n        /* \"#utility.yul\":5266:5275   */\n      dup8\n        /* \"#utility.yul\":5262:5284   */\n      add\n        /* \"#utility.yul\":5231:5294   */\n      tag_250\n      jump\t// in\n    tag_383:\n        /* \"#utility.yul\":5221:5294   */\n      swap4\n      pop\n        /* \"#utility.yul\":5017:5304   */\n      pop\n        /* \"#utility.yul\":5371:5373   */\n      0x20\n        /* \"#utility.yul\":5360:5369   */\n      dup5\n        /* \"#utility.yul\":5356:5374   */\n      add\n        /* \"#utility.yul\":5343:5375   */\n      calldataload\n        /* \"#utility.yul\":5402:5420   */\n      0xffffffffffffffff\n        /* \"#utility.yul\":5394:5400   */\n      dup2\n        /* \"#utility.yul\":5391:5421   */\n      gt\n        /* \"#utility.yul\":5388:5505   */\n      iszero\n      tag_384\n      jumpi\n        /* \"#utility.yul\":5424:5503   */\n      tag_385\n      tag_240\n      jump\t// in\n    tag_385:\n        /* \"#utility.yul\":5388:5505   */\n    tag_384:\n        /* \"#utility.yul\":5529:5617   */\n      tag_386\n        /* \"#utility.yul\":5609:5616   */\n      dup7\n        /* \"#utility.yul\":5600:5606   */\n      dup3\n        /* \"#utility.yul\":5589:5598   */\n      dup8\n        /* \"#utility.yul\":5585:5607   */\n      add\n        /* \"#utility.yul\":5529:5617   */\n      tag_254\n      jump\t// in\n    tag_386:\n        /* \"#utility.yul\":5519:5617   */\n      swap3\n      pop\n        /* \"#utility.yul\":5314:5627   */\n      pop\n        /* \"#utility.yul\":5666:5668   */\n      0x40\n        /* \"#utility.yul\":5692:5745   */\n      tag_387\n        /* \"#utility.yul\":5737:5744   */\n      dup7\n        /* \"#utility.yul\":5728:5734   */\n      dup3\n        /* \"#utility.yul\":5717:5726   */\n      dup8\n        /* \"#utility.yul\":5713:5735   */\n      add\n        /* \"#utility.yul\":5692:5745   */\n      tag_257\n      jump\t// in\n    tag_387:\n        /* \"#utility.yul\":5682:5745   */\n      swap2\n      pop\n        /* \"#utility.yul\":5637:5755   */\n      pop\n        /* \"#utility.yul\":4733:5762   */\n      swap3\n      pop\n      swap3\n      pop\n      swap3\n      jump\t// out\n        /* \"#utility.yul\":5768:6277   */\n    tag_20:\n        /* \"#utility.yul\":5837:5843   */\n      0x00\n        /* \"#utility.yul\":5886:5888   */\n      0x20\n        /* \"#utility.yul\":5874:5883   */\n      dup3\n        /* \"#utility.yul\":5865:5872   */\n      dup5\n        /* \"#utility.yul\":5861:5884   */\n      sub\n        /* \"#utility.yul\":5857:5889   */\n      slt\n        /* \"#utility.yul\":5854:5973   */\n      iszero\n      tag_389\n      jumpi\n        /* \"#utility.yul\":5892:5971   */\n      tag_390\n      tag_239\n      jump\t// in\n    tag_390:\n        /* \"#utility.yul\":5854:5973   */\n    tag_389:\n        /* \"#utility.yul\":6040:6041   */\n      0x00\n        /* \"#utility.yul\":6029:6038   */\n      dup3\n        /* \"#utility.yul\":6025:6042   */\n      add\n        /* \"#utility.yul\":6012:6043   */\n      calldataload\n        /* \"#utility.yul\":6070:6088   */\n      0xffffffffffffffff\n        /* \"#utility.yul\":6062:6068   */\n      dup2\n        /* \"#utility.yul\":6059:6089   */\n      gt\n        /* \"#utility.yul\":6056:6173   */\n      iszero\n      tag_391\n      jumpi\n        /* \"#utility.yul\":6092:6171   */\n      tag_392\n      tag_240\n      jump\t// in\n    tag_392:\n        /* \"#utility.yul\":6056:6173   */\n    tag_391:\n        /* \"#utility.yul\":6197:6260   */\n      tag_393\n        /* \"#utility.yul\":6252:6259   */\n      dup5\n        /* \"#utility.yul\":6243:6249   */\n      dup3\n        /* \"#utility.yul\":6232:6241   */\n      dup6\n        /* \"#utility.yul\":6228:6250   */\n      add\n        /* \"#utility.yul\":6197:6260   */\n      tag_250\n      jump\t// in\n    tag_393:\n        /* \"#utility.yul\":6187:6260   */\n      swap2\n      pop\n        /* \"#utility.yul\":5983:6270   */\n      pop\n        /* \"#utility.yul\":5768:6277   */\n      swap3\n      swap2\n      pop\n      pop\n      jump\t// out\n        /* \"#utility.yul\":6283:6937   */\n    tag_25:\n        /* \"#utility.yul\":6361:6367   */\n      0x00\n        /* \"#utility.yul\":6369:6375   */\n      dup1\n        /* \"#utility.yul\":6418:6420   */\n      0x40\n        /* \"#utility.yul\":6406:6415   */\n      dup4\n        /* \"#utility.yul\":6397:6404   */\n      dup6\n        /* \"#utility.yul\":6393:6416   */\n      sub\n        /* \"#utility.yul\":6389:6421   */\n      slt\n        /* \"#utility.yul\":6386:6505   */\n      iszero\n      tag_395\n      jumpi\n        /* \"#utility.yul\":6424:6503   */\n      tag_396\n      tag_239\n      jump\t// in\n    tag_396:\n        /* \"#utility.yul\":6386:6505   */\n    tag_395:\n        /* \"#utility.yul\":6572:6573   */\n      0x00\n        /* \"#utility.yul\":6561:6570   */\n      dup4\n        /* \"#utility.yul\":6557:6574   */\n      add\n        /* \"#utility.yul\":6544:6575   */\n      calldataload\n        /* \"#utility.yul\":6602:6620   */\n      0xffffffffffffffff\n        /* \"#utility.yul\":6594:6600   */\n      dup2\n        /* \"#utility.yul\":6591:6621   */\n      gt\n        /* \"#utility.yul\":6588:6705   */\n      iszero\n      tag_397\n      jumpi\n        /* \"#utility.yul\":6624:6703   */\n      tag_398\n      tag_240\n      jump\t// in\n    tag_398:\n        /* \"#utility.yul\":6588:6705   */\n    tag_397:\n        /* \"#utility.yul\":6729:6792   */\n      tag_399\n        /* \"#utility.yul\":6784:6791   */\n      dup6\n        /* \"#utility.yul\":6775:6781   */\n      dup3\n        /* \"#utility.yul\":6764:6773   */\n      dup7\n        /* \"#utility.yul\":6760:6782   */\n      add\n        /* \"#utility.yul\":6729:6792   */\n      tag_250\n      jump\t// in\n    tag_399:\n        /* \"#utility.yul\":6719:6792   */\n      swap3\n      pop\n        /* \"#utility.yul\":6515:6802   */\n      pop\n        /* \"#utility.yul\":6841:6843   */\n      0x20\n        /* \"#utility.yul\":6867:6920   */\n      tag_400\n        /* \"#utility.yul\":6912:6919   */\n      dup6\n        /* \"#utility.yul\":6903:6909   */\n      dup3\n        /* \"#utility.yul\":6892:6901   */\n      dup7\n        /* \"#utility.yul\":6888:6910   */\n      add\n        /* \"#utility.yul\":6867:6920   */\n      tag_257\n      jump\t// in\n    tag_400:\n        /* \"#utility.yul\":6857:6920   */\n      swap2\n      pop\n        /* \"#utility.yul\":6812:6930   */\n      pop\n        /* \"#utility.yul\":6283:6937   */\n      swap3\n      pop\n      swap3\n      swap1\n      pop\n      jump\t// out\n        /* \"#utility.yul\":6943:7922   */\n    tag_30:\n        /* \"#utility.yul\":7040:7046   */\n      0x00\n        /* \"#utility.yul\":7048:7054   */\n      dup1\n        /* \"#utility.yul\":7056:7062   */\n      0x00\n        /* \"#utility.yul\":7105:7107   */\n      0x60\n        /* \"#utility.yul\":7093:7102   */\n      dup5\n        /* \"#utility.yul\":7084:7091   */\n      dup7\n        /* \"#utility.yul\":7080:7103   */\n      sub\n        /* \"#utility.yul\":7076:7108   */\n      slt\n        /* \"#utility.yul\":7073:7192   */\n      iszero\n      tag_402\n      jumpi\n        /* \"#utility.yul\":7111:7190   */\n      tag_403\n      tag_239\n      jump\t// in\n    tag_403:\n        /* \"#utility.yul\":7073:7192   */\n    tag_402:\n        /* \"#utility.yul\":7259:7260   */\n      0x00\n        /* \"#utility.yul\":7248:7257   */\n      dup5\n        /* \"#utility.yul\":7244:7261   */\n      add\n        /* \"#utility.yul\":7231:7262   */\n      calldataload\n        /* \"#utility.yul\":7289:7307   */\n      0xffffffffffffffff\n        /* \"#utility.yul\":7281:7287   */\n      dup2\n        /* \"#utility.yul\":7278:7308   */\n      gt\n        /* \"#utility.yul\":7275:7392   */\n      iszero\n      tag_404\n      jumpi\n        /* \"#utility.yul\":7311:7390   */\n      tag_405\n      tag_240\n      jump\t// in\n    tag_405:\n        /* \"#utility.yul\":7275:7392   */\n    tag_404:\n        /* \"#utility.yul\":7416:7479   */\n      tag_406\n        /* \"#utility.yul\":7471:7478   */\n      dup7\n        /* \"#utility.yul\":7462:7468   */\n      dup3\n        /* \"#utility.yul\":7451:7460   */\n      dup8\n        /* \"#utility.yul\":7447:7469   */\n      add\n        /* \"#utility.yul\":7416:7479   */\n      tag_250\n      jump\t// in\n    tag_406:\n        /* \"#utility.yul\":7406:7479   */\n      swap4\n      pop\n        /* \"#utility.yul\":7202:7489   */\n      pop\n        /* \"#utility.yul\":7556:7558   */\n      0x20\n        /* \"#utility.yul\":7545:7554   */\n      dup5\n        /* \"#utility.yul\":7541:7559   */\n      add\n        /* \"#utility.yul\":7528:7560   */\n      calldataload\n        /* \"#utility.yul\":7587:7605   */\n      0xffffffffffffffff\n        /* \"#utility.yul\":7579:7585   */\n      dup2\n        /* \"#utility.yul\":7576:7606   */\n      gt\n        /* \"#utility.yul\":7573:7690   */\n      iszero\n      tag_407\n      jumpi\n        /* \"#utility.yul\":7609:7688   */\n      tag_408\n      tag_240\n      jump\t// in\n    tag_408:\n        /* \"#utility.yul\":7573:7690   */\n    tag_407:\n        /* \"#utility.yul\":7714:7777   */\n      tag_409\n        /* \"#utility.yul\":7769:7776   */\n      dup7\n        /* \"#utility.yul\":7760:7766   */\n      dup3\n        /* \"#utility.yul\":7749:7758   */\n      dup8\n        /* \"#utility.yul\":7745:7767   */\n      add\n        /* \"#utility.yul\":7714:7777   */\n      tag_250\n      jump\t// in\n    tag_409:\n        /* \"#utility.yul\":7704:7777   */\n      swap3\n      pop\n        /* \"#utility.yul\":7499:7787   */\n      pop\n        /* \"#utility.yul\":7826:7828   */\n      0x40\n        /* \"#utility.yul\":7852:7905   */\n      tag_410\n        /* \"#utility.yul\":7897:7904   */\n      dup7\n        /* \"#utility.yul\":7888:7894   */\n      dup3\n        /* \"#utility.yul\":7877:7886   */\n      dup8\n        /* \"#utility.yul\":7873:7895   */\n      add\n        /* \"#utility.yul\":7852:7905   */\n      tag_257\n      jump\t// in\n    tag_410:\n        /* \"#utility.yul\":7842:7905   */\n      swap2\n      pop\n        /* \"#utility.yul\":7797:7915   */\n      pop\n        /* \"#utility.yul\":6943:7922   */\n      swap3\n      pop\n      swap3\n      pop\n      swap3\n      jump\t// out\n        /* \"#utility.yul\":7928:8054   */\n    tag_258:\n        /* \"#utility.yul\":7965:7972   */\n      0x00\n        /* \"#utility.yul\":8005:8047   */\n      0xffffffffffffffffffffffffffffffffffffffff\n        /* \"#utility.yul\":7998:8003   */\n      dup3\n        /* \"#utility.yul\":7994:8048   */\n      and\n        /* \"#utility.yul\":7983:8048   */\n      swap1\n      pop\n        /* \"#utility.yul\":7928:8054   */\n      swap2\n      swap1\n      pop\n      jump\t// out\n        /* \"#utility.yul\":8060:8156   */\n    tag_259:\n        /* \"#utility.yul\":8097:8104   */\n      0x00\n        /* \"#utility.yul\":8126:8150   */\n      tag_413\n        /* \"#utility.yul\":8144:8149   */\n      dup3\n        /* \"#utility.yul\":8126:8150   */\n      tag_258\n      jump\t// in\n    tag_413:\n        /* \"#utility.yul\":8115:8150   */\n      swap1\n      pop\n        /* \"#utility.yul\":8060:8156   */\n      swap2\n      swap1\n      pop\n      jump\t// out\n        /* \"#utility.yul\":8162:8284   */\n    tag_260:\n        /* \"#utility.yul\":8235:8259   */\n      tag_415\n        /* \"#utility.yul\":8253:8258   */\n      dup2\n        /* \"#utility.yul\":8235:8259   */\n      tag_259\n      jump\t// in\n    tag_415:\n        /* \"#utility.yul\":8228:8233   */\n      dup2\n        /* \"#utility.yul\":8225:8260   */\n      eq\n        /* \"#utility.yul\":8215:8278   */\n      tag_416\n      jumpi\n        /* \"#utility.yul\":8274:8275   */\n      0x00\n        /* \"#utility.yul\":8271:8272   */\n      dup1\n        /* \"#utility.yul\":8264:8276   */\n      revert\n        /* \"#utility.yul\":8215:8278   */\n    tag_416:\n        /* \"#utility.yul\":8162:8284   */\n      pop\n      jump\t// out\n        /* \"#utility.yul\":8290:8429   */\n    tag_261:\n        /* \"#utility.yul\":8336:8341   */\n      0x00\n        /* \"#utility.yul\":8374:8380   */\n      dup2\n        /* \"#utility.yul\":8361:8381   */\n      calldataload\n        /* \"#utility.yul\":8352:8381   */\n      swap1\n      pop\n        /* \"#utility.yul\":8390:8423   */\n      tag_418\n        /* \"#utility.yul\":8417:8422   */\n      dup2\n        /* \"#utility.yul\":8390:8423   */\n      tag_260\n      jump\t// in\n    tag_418:\n        /* \"#utility.yul\":8290:8429   */\n      swap3\n      swap2\n      pop\n      pop\n      jump\t// out\n        /* \"#utility.yul\":8435:8764   */\n    tag_38:\n        /* \"#utility.yul\":8494:8500   */\n      0x00\n        /* \"#utility.yul\":8543:8545   */\n      0x20\n        /* \"#utility.yul\":8531:8540   */\n      dup3\n        /* \"#utility.yul\":8522:8529   */\n      dup5\n        /* \"#utility.yul\":8518:8541   */\n      sub\n        /* \"#utility.yul\":8514:8546   */\n      slt\n        /* \"#utility.yul\":8511:8630   */\n      iszero\n      tag_420\n      jumpi\n        /* \"#utility.yul\":8549:8628   */\n      tag_421\n      tag_239\n      jump\t// in\n    tag_421:\n        /* \"#utility.yul\":8511:8630   */\n    tag_420:\n        /* \"#utility.yul\":8669:8670   */\n      0x00\n        /* \"#utility.yul\":8694:8747   */\n      tag_422\n        /* \"#utility.yul\":8739:8746   */\n      dup5\n        /* \"#utility.yul\":8730:8736   */\n      dup3\n        /* \"#utility.yul\":8719:8728   */\n      dup6\n        /* \"#utility.yul\":8715:8737   */\n      add\n        /* \"#utility.yul\":8694:8747   */\n      tag_261\n      jump\t// in\n    tag_422:\n        /* \"#utility.yul\":8684:8747   */\n      swap2\n      pop\n        /* \"#utility.yul\":8640:8757   */\n      pop\n        /* \"#utility.yul\":8435:8764   */\n      swap3\n      swap2\n      pop\n      pop\n      jump\t// out\n        /* \"#utility.yul\":8770:8894   */\n    tag_262:\n        /* \"#utility.yul\":8847:8853   */\n      0x00\n        /* \"#utility.yul\":8881:8886   */\n      dup2\n        /* \"#utility.yul\":8875:8887   */\n      mload\n        /* \"#utility.yul\":8865:8887   */\n      swap1\n      pop\n        /* \"#utility.yul\":8770:8894   */\n      swap2\n      swap1\n      pop\n      jump\t// out\n        /* \"#utility.yul\":8900:9094   */\n    tag_263:\n        /* \"#utility.yul\":9009:9020   */\n      0x00\n        /* \"#utility.yul\":9043:9049   */\n      dup3\n        /* \"#utility.yul\":9038:9041   */\n      dup3\n        /* \"#utility.yul\":9031:9050   */\n      mstore\n        /* \"#utility.yul\":9083:9087   */\n      0x20\n        /* \"#utility.yul\":9078:9081   */\n      dup3\n        /* \"#utility.yul\":9074:9088   */\n      add\n        /* \"#utility.yul\":9059:9088   */\n      swap1\n      pop\n        /* \"#utility.yul\":8900:9094   */\n      swap3\n      swap2\n      pop\n      pop\n      jump\t// out\n        /* \"#utility.yul\":9100:9242   */\n    tag_264:\n        /* \"#utility.yul\":9177:9181   */\n      0x00\n        /* \"#utility.yul\":9200:9203   */\n      dup2\n        /* \"#utility.yul\":9192:9203   */\n      swap1\n      pop\n        /* \"#utility.yul\":9230:9234   */\n      0x20\n        /* \"#utility.yul\":9225:9228   */\n      dup3\n        /* \"#utility.yul\":9221:9235   */\n      add\n        /* \"#utility.yul\":9213:9235   */\n      swap1\n      pop\n        /* \"#utility.yul\":9100:9242   */\n      swap2\n      swap1\n      pop\n      jump\t// out\n        /* \"#utility.yul\":9248:9347   */\n    tag_265:\n        /* \"#utility.yul\":9300:9306   */\n      0x00\n        /* \"#utility.yul\":9334:9339   */\n      dup2\n        /* \"#utility.yul\":9328:9340   */\n      mload\n        /* \"#utility.yul\":9318:9340   */\n      swap1\n      pop\n        /* \"#utility.yul\":9248:9347   */\n      swap2\n      swap1\n      pop\n      jump\t// out\n        /* \"#utility.yul\":9353:9512   */\n    tag_266:\n        /* \"#utility.yul\":9427:9438   */\n      0x00\n        /* \"#utility.yul\":9461:9467   */\n      dup3\n        /* \"#utility.yul\":9456:9459   */\n      dup3\n        /* \"#utility.yul\":9449:9468   */\n      mstore\n        /* \"#utility.yul\":9501:9505   */\n      0x20\n        /* \"#utility.yul\":9496:9499   */\n      dup3\n        /* \"#utility.yul\":9492:9506   */\n      add\n        /* \"#utility.yul\":9477:9506   */\n      swap1\n      pop\n        /* \"#utility.yul\":9353:9512   */\n      swap3\n      swap2\n      pop\n      pop\n      jump\t// out\n        /* \"#utility.yul\":9518:9825   */\n    tag_267:\n        /* \"#utility.yul\":9586:9587   */\n      0x00\n        /* \"#utility.yul\":9596:9709   */\n    tag_429:\n        /* \"#utility.yul\":9610:9616   */\n      dup4\n        /* \"#utility.yul\":9607:9608   */\n      dup2\n        /* \"#utility.yul\":9604:9617   */\n      lt\n        /* \"#utility.yul\":9596:9709   */\n      iszero\n      tag_431\n      jumpi\n        /* \"#utility.yul\":9695:9696   */\n      dup1\n        /* \"#utility.yul\":9690:9693   */\n      dup3\n        /* \"#utility.yul\":9686:9697   */\n      add\n        /* \"#utility.yul\":9680:9698   */\n      mload\n        /* \"#utility.yul\":9676:9677   */\n      dup2\n        /* \"#utility.yul\":9671:9674   */\n      dup5\n        /* \"#utility.yul\":9667:9678   */\n      add\n        /* \"#utility.yul\":9660:9699   */\n      mstore\n        /* \"#utility.yul\":9632:9634   */\n      0x20\n        /* \"#utility.yul\":9629:9630   */\n      dup2\n        /* \"#utility.yul\":9625:9635   */\n      add\n        /* \"#utility.yul\":9620:9635   */\n      swap1\n      pop\n        /* \"#utility.yul\":9596:9709   */\n      jump(tag_429)\n    tag_431:\n        /* \"#utility.yul\":9727:9733   */\n      dup4\n        /* \"#utility.yul\":9724:9725   */\n      dup2\n        /* \"#utility.yul\":9721:9734   */\n      gt\n        /* \"#utility.yul\":9718:9819   */\n      iszero\n      tag_432\n      jumpi\n        /* \"#utility.yul\":9807:9808   */\n      0x00\n        /* \"#utility.yul\":9798:9804   */\n      dup5\n        /* \"#utility.yul\":9793:9796   */\n      dup5\n        /* \"#utility.yul\":9789:9805   */\n      add\n        /* \"#utility.yul\":9782:9809   */\n      mstore\n        /* \"#utility.yul\":9718:9819   */\n    tag_432:\n        /* \"#utility.yul\":9567:9825   */\n      pop\n        /* \"#utility.yul\":9518:9825   */\n      pop\n      pop\n      pop\n      jump\t// out\n        /* \"#utility.yul\":9831:10175   */\n    tag_268:\n        /* \"#utility.yul\":9909:9912   */\n      0x00\n        /* \"#utility.yul\":9937:9976   */\n      tag_434\n        /* \"#utility.yul\":9970:9975   */\n      dup3\n        /* \"#utility.yul\":9937:9976   */\n      tag_265\n      jump\t// in\n    tag_434:\n        /* \"#utility.yul\":9992:10053   */\n      tag_435\n        /* \"#utility.yul\":10046:10052   */\n      dup2\n        /* \"#utility.yul\":10041:10044   */\n      dup6\n        /* \"#utility.yul\":9992:10053   */\n      tag_266\n      jump\t// in\n    tag_435:\n        /* \"#utility.yul\":9985:10053   */\n      swap4\n      pop\n        /* \"#utility.yul\":10062:10114   */\n      tag_436\n        /* \"#utility.yul\":10107:10113   */\n      dup2\n        /* \"#utility.yul\":10102:10105   */\n      dup6\n        /* \"#utility.yul\":10095:10099   */\n      0x20\n        /* \"#utility.yul\":10088:10093   */\n      dup7\n        /* \"#utility.yul\":10084:10100   */\n      add\n        /* \"#utility.yul\":10062:10114   */\n      tag_267\n      jump\t// in\n    tag_436:\n        /* \"#utility.yul\":10139:10168   */\n      tag_437\n        /* \"#utility.yul\":10161:10167   */\n      dup2\n        /* \"#utility.yul\":10139:10168   */\n      tag_243\n      jump\t// in\n    tag_437:\n        /* \"#utility.yul\":10134:10137   */\n      dup5\n        /* \"#utility.yul\":10130:10169   */\n      add\n        /* \"#utility.yul\":10123:10169   */\n      swap2\n      pop\n        /* \"#utility.yul\":9913:10175   */\n      pop\n        /* \"#utility.yul\":9831:10175   */\n      swap3\n      swap2\n      pop\n      pop\n      jump\t// out\n        /* \"#utility.yul\":10181:10377   */\n    tag_269:\n        /* \"#utility.yul\":10270:10280   */\n      0x00\n        /* \"#utility.yul\":10305:10371   */\n      tag_439\n        /* \"#utility.yul\":10367:10370   */\n      dup4\n        /* \"#utility.yul\":10359:10365   */\n      dup4\n        /* \"#utility.yul\":10305:10371   */\n      tag_268\n      jump\t// in\n    tag_439:\n        /* \"#utility.yul\":10291:10371   */\n      swap1\n      pop\n        /* \"#utility.yul\":10181:10377   */\n      swap3\n      swap2\n      pop\n      pop\n      jump\t// out\n        /* \"#utility.yul\":10383:10506   */\n    tag_270:\n        /* \"#utility.yul\":10463:10467   */\n      0x00\n        /* \"#utility.yul\":10495:10499   */\n      0x20\n        /* \"#utility.yul\":10490:10493   */\n      dup3\n        /* \"#utility.yul\":10486:10500   */\n      add\n        /* \"#utility.yul\":10478:10500   */\n      swap1\n      pop\n        /* \"#utility.yul\":10383:10506   */\n      swap2\n      swap1\n      pop\n      jump\t// out\n        /* \"#utility.yul\":10540:11531   */\n    tag_271:\n        /* \"#utility.yul\":10679:10682   */\n      0x00\n        /* \"#utility.yul\":10708:10772   */\n      tag_442\n        /* \"#utility.yul\":10766:10771   */\n      dup3\n        /* \"#utility.yul\":10708:10772   */\n      tag_262\n      jump\t// in\n    tag_442:\n        /* \"#utility.yul\":10788:10884   */\n      tag_443\n        /* \"#utility.yul\":10877:10883   */\n      dup2\n        /* \"#utility.yul\":10872:10875   */\n      dup6\n        /* \"#utility.yul\":10788:10884   */\n      tag_263\n      jump\t// in\n    tag_443:\n        /* \"#utility.yul\":10781:10884   */\n      swap4\n      pop\n        /* \"#utility.yul\":10910:10913   */\n      dup4\n        /* \"#utility.yul\":10955:10959   */\n      0x20\n        /* \"#utility.yul\":10947:10953   */\n      dup3\n        /* \"#utility.yul\":10943:10960   */\n      mul\n        /* \"#utility.yul\":10938:10941   */\n      dup6\n        /* \"#utility.yul\":10934:10961   */\n      add\n        /* \"#utility.yul\":10985:11051   */\n      tag_444\n        /* \"#utility.yul\":11045:11050   */\n      dup6\n        /* \"#utility.yul\":10985:11051   */\n      tag_264\n      jump\t// in\n    tag_444:\n        /* \"#utility.yul\":11074:11081   */\n      dup1\n        /* \"#utility.yul\":11105:11106   */\n      0x00\n        /* \"#utility.yul\":11090:11486   */\n    tag_445:\n        /* \"#utility.yul\":11115:11121   */\n      dup6\n        /* \"#utility.yul\":11112:11113   */\n      dup2\n        /* \"#utility.yul\":11109:11122   */\n      lt\n        /* \"#utility.yul\":11090:11486   */\n      iszero\n      tag_447\n      jumpi\n        /* \"#utility.yul\":11186:11195   */\n      dup5\n        /* \"#utility.yul\":11180:11184   */\n      dup5\n        /* \"#utility.yul\":11176:11196   */\n      sub\n        /* \"#utility.yul\":11171:11174   */\n      dup10\n        /* \"#utility.yul\":11164:11197   */\n      mstore\n        /* \"#utility.yul\":11237:11243   */\n      dup2\n        /* \"#utility.yul\":11231:11244   */\n      mload\n        /* \"#utility.yul\":11265:11349   */\n      tag_448\n        /* \"#utility.yul\":11344:11348   */\n      dup6\n        /* \"#utility.yul\":11329:11342   */\n      dup3\n        /* \"#utility.yul\":11265:11349   */\n      tag_269\n      jump\t// in\n    tag_448:\n        /* \"#utility.yul\":11257:11349   */\n      swap5\n      pop\n        /* \"#utility.yul\":11372:11442   */\n      tag_449\n        /* \"#utility.yul\":11435:11441   */\n      dup4\n        /* \"#utility.yul\":11372:11442   */\n      tag_270\n      jump\t// in\n    tag_449:\n        /* \"#utility.yul\":11362:11442   */\n      swap3\n      pop\n        /* \"#utility.yul\":11471:11475   */\n      0x20\n        /* \"#utility.yul\":11466:11469   */\n      dup11\n        /* \"#utility.yul\":11462:11476   */\n      add\n        /* \"#utility.yul\":11455:11476   */\n      swap10\n      pop\n        /* \"#utility.yul\":11150:11486   */\n      pop\n        /* \"#utility.yul\":11137:11138   */\n      0x01\n        /* \"#utility.yul\":11134:11135   */\n      dup2\n        /* \"#utility.yul\":11130:11139   */\n      add\n        /* \"#utility.yul\":11125:11139   */\n      swap1\n      pop\n        /* \"#utility.yul\":11090:11486   */\n      jump(tag_445)\n    tag_447:\n        /* \"#utility.yul\":11094:11108   */\n      pop\n        /* \"#utility.yul\":11502:11506   */\n      dup3\n        /* \"#utility.yul\":11495:11506   */\n      swap8\n      pop\n        /* \"#utility.yul\":11522:11525   */\n      dup8\n        /* \"#utility.yul\":11515:11525   */\n      swap6\n      pop\n        /* \"#utility.yul\":10684:11531   */\n      pop\n      pop\n      pop\n      pop\n      pop\n        /* \"#utility.yul\":10540:11531   */\n      swap3\n      swap2\n      pop\n      pop\n      jump\t// out\n        /* \"#utility.yul\":11537:11950   */\n    tag_41:\n        /* \"#utility.yul\":11700:11704   */\n      0x00\n        /* \"#utility.yul\":11738:11740   */\n      0x20\n        /* \"#utility.yul\":11727:11736   */\n      dup3\n        /* \"#utility.yul\":11723:11741   */\n      add\n        /* \"#utility.yul\":11715:11741   */\n      swap1\n      pop\n        /* \"#utility.yul\":11787:11796   */\n      dup2\n        /* \"#utility.yul\":11781:11785   */\n      dup2\n        /* \"#utility.yul\":11777:11797   */\n      sub\n        /* \"#utility.yul\":11773:11774   */\n      0x00\n        /* \"#utility.yul\":11762:11771   */\n      dup4\n        /* \"#utility.yul\":11758:11775   */\n      add\n        /* \"#utility.yul\":11751:11798   */\n      mstore\n        /* \"#utility.yul\":11815:11943   */\n      tag_451\n        /* \"#utility.yul\":11938:11942   */\n      dup2\n        /* \"#utility.yul\":11929:11935   */\n      dup5\n        /* \"#utility.yul\":11815:11943   */\n      tag_271\n      jump\t// in\n    tag_451:\n        /* \"#utility.yul\":11807:11943   */\n      swap1\n      pop\n        /* \"#utility.yul\":11537:11950   */\n      swap3\n      swap2\n      pop\n      pop\n      jump\t// out\n        /* \"#utility.yul\":11956:12074   */\n    tag_272:\n        /* \"#utility.yul\":12043:12067   */\n      tag_453\n        /* \"#utility.yul\":12061:12066   */\n      dup2\n        /* \"#utility.yul\":12043:12067   */\n      tag_255\n      jump\t// in\n    tag_453:\n        /* \"#utility.yul\":12038:12041   */\n      dup3\n        /* \"#utility.yul\":12031:12068   */\n      mstore\n        /* \"#utility.yul\":11956:12074   */\n      pop\n      pop\n      jump\t// out\n        /* \"#utility.yul\":12080:12302   */\n    tag_47:\n        /* \"#utility.yul\":12173:12177   */\n      0x00\n        /* \"#utility.yul\":12211:12213   */\n      0x20\n        /* \"#utility.yul\":12200:12209   */\n      dup3\n        /* \"#utility.yul\":12196:12214   */\n      add\n        /* \"#utility.yul\":12188:12214   */\n      swap1\n      pop\n        /* \"#utility.yul\":12224:12295   */\n      tag_455\n        /* \"#utility.yul\":12292:12293   */\n      0x00\n        /* \"#utility.yul\":12281:12290   */\n      dup4\n        /* \"#utility.yul\":12277:12294   */\n      add\n        /* \"#utility.yul\":12268:12274   */\n      dup5\n        /* \"#utility.yul\":12224:12295   */\n      tag_272\n      jump\t// in\n    tag_455:\n        /* \"#utility.yul\":12080:12302   */\n      swap3\n      swap2\n      pop\n      pop\n      jump\t// out\n        /* \"#utility.yul\":12308:12416   */\n    tag_273:\n        /* \"#utility.yul\":12385:12409   */\n      tag_457\n        /* \"#utility.yul\":12403:12408   */\n      dup2\n        /* \"#utility.yul\":12385:12409   */\n      tag_259\n      jump\t// in\n    tag_457:\n        /* \"#utility.yul\":12380:12383   */\n      dup3\n        /* \"#utility.yul\":12373:12410   */\n      mstore\n        /* \"#utility.yul\":12308:12416   */\n      pop\n      pop\n      jump\t// out\n        /* \"#utility.yul\":12422:12530   */\n    tag_274:\n        /* \"#utility.yul\":12499:12523   */\n      tag_459\n        /* \"#utility.yul\":12517:12522   */\n      dup2\n        /* \"#utility.yul\":12499:12523   */\n      tag_255\n      jump\t// in\n    tag_459:\n        /* \"#utility.yul\":12494:12497   */\n      dup3\n        /* \"#utility.yul\":12487:12524   */\n      mstore\n        /* \"#utility.yul\":12422:12530   */\n      pop\n      pop\n      jump\t// out\n        /* \"#utility.yul\":12598:13378   */\n    tag_275:\n        /* \"#utility.yul\":12713:12716   */\n      0x00\n        /* \"#utility.yul\":12749:12753   */\n      0x60\n        /* \"#utility.yul\":12744:12747   */\n      dup4\n        /* \"#utility.yul\":12740:12754   */\n      add\n        /* \"#utility.yul\":12837:12841   */\n      0x00\n        /* \"#utility.yul\":12830:12835   */\n      dup4\n        /* \"#utility.yul\":12826:12842   */\n      add\n        /* \"#utility.yul\":12820:12843   */\n      mload\n        /* \"#utility.yul\":12856:12919   */\n      tag_461\n        /* \"#utility.yul\":12913:12917   */\n      0x00\n        /* \"#utility.yul\":12908:12911   */\n      dup7\n        /* \"#utility.yul\":12904:12918   */\n      add\n        /* \"#utility.yul\":12890:12902   */\n      dup3\n        /* \"#utility.yul\":12856:12919   */\n      tag_273\n      jump\t// in\n    tag_461:\n        /* \"#utility.yul\":12764:12929   */\n      pop\n        /* \"#utility.yul\":13011:13015   */\n      0x20\n        /* \"#utility.yul\":13004:13009   */\n      dup4\n        /* \"#utility.yul\":13000:13016   */\n      add\n        /* \"#utility.yul\":12994:13017   */\n      mload\n        /* \"#utility.yul\":13064:13067   */\n      dup5\n        /* \"#utility.yul\":13058:13062   */\n      dup3\n        /* \"#utility.yul\":13054:13068   */\n      sub\n        /* \"#utility.yul\":13047:13051   */\n      0x20\n        /* \"#utility.yul\":13042:13045   */\n      dup7\n        /* \"#utility.yul\":13038:13052   */\n      add\n        /* \"#utility.yul\":13031:13069   */\n      mstore\n        /* \"#utility.yul\":13090:13163   */\n      tag_462\n        /* \"#utility.yul\":13158:13162   */\n      dup3\n        /* \"#utility.yul\":13144:13156   */\n      dup3\n        /* \"#utility.yul\":13090:13163   */\n      tag_268\n      jump\t// in\n    tag_462:\n        /* \"#utility.yul\":13082:13163   */\n      swap2\n      pop\n        /* \"#utility.yul\":12939:13174   */\n      pop\n        /* \"#utility.yul\":13259:13263   */\n      0x40\n        /* \"#utility.yul\":13252:13257   */\n      dup4\n        /* \"#utility.yul\":13248:13264   */\n      add\n        /* \"#utility.yul\":13242:13265   */\n      mload\n        /* \"#utility.yul\":13278:13341   */\n      tag_463\n        /* \"#utility.yul\":13335:13339   */\n      0x40\n        /* \"#utility.yul\":13330:13333   */\n      dup7\n        /* \"#utility.yul\":13326:13340   */\n      add\n        /* \"#utility.yul\":13312:13324   */\n      dup3\n        /* \"#utility.yul\":13278:13341   */\n      tag_274\n      jump\t// in\n    tag_463:\n        /* \"#utility.yul\":13184:13351   */\n      pop\n        /* \"#utility.yul\":13368:13372   */\n      dup1\n        /* \"#utility.yul\":13361:13372   */\n      swap2\n      pop\n        /* \"#utility.yul\":12718:13378   */\n      pop\n        /* \"#utility.yul\":12598:13378   */\n      swap3\n      swap2\n      pop\n      pop\n      jump\t// out\n        /* \"#utility.yul\":13384:13749   */\n    tag_53:\n        /* \"#utility.yul\":13523:13527   */\n      0x00\n        /* \"#utility.yul\":13561:13563   */\n      0x20\n        /* \"#utility.yul\":13550:13559   */\n      dup3\n        /* \"#utility.yul\":13546:13564   */\n      add\n        /* \"#utility.yul\":13538:13564   */\n      swap1\n      pop\n        /* \"#utility.yul\":13610:13619   */\n      dup2\n        /* \"#utility.yul\":13604:13608   */\n      dup2\n        /* \"#utility.yul\":13600:13620   */\n      sub\n        /* \"#utility.yul\":13596:13597   */\n      0x00\n        /* \"#utility.yul\":13585:13594   */\n      dup4\n        /* \"#utility.yul\":13581:13598   */\n      add\n        /* \"#utility.yul\":13574:13621   */\n      mstore\n        /* \"#utility.yul\":13638:13742   */\n      tag_465\n        /* \"#utility.yul\":13737:13741   */\n      dup2\n        /* \"#utility.yul\":13728:13734   */\n      dup5\n        /* \"#utility.yul\":13638:13742   */\n      tag_275\n      jump\t// in\n    tag_465:\n        /* \"#utility.yul\":13630:13742   */\n      swap1\n      pop\n        /* \"#utility.yul\":13384:13749   */\n      swap3\n      swap2\n      pop\n      pop\n      jump\t// out\n        /* \"#utility.yul\":13755:14084   */\n    tag_57:\n        /* \"#utility.yul\":13814:13820   */\n      0x00\n        /* \"#utility.yul\":13863:13865   */\n      0x20\n        /* \"#utility.yul\":13851:13860   */\n      dup3\n        /* \"#utility.yul\":13842:13849   */\n      dup5\n        /* \"#utility.yul\":13838:13861   */\n      sub\n        /* \"#utility.yul\":13834:13866   */\n      slt\n        /* \"#utility.yul\":13831:13950   */\n      iszero\n      tag_467\n      jumpi\n        /* \"#utility.yul\":13869:13948   */\n      tag_468\n      tag_239\n      jump\t// in\n    tag_468:\n        /* \"#utility.yul\":13831:13950   */\n    tag_467:\n        /* \"#utility.yul\":13989:13990   */\n      0x00\n        /* \"#utility.yul\":14014:14067   */\n      tag_469\n        /* \"#utility.yul\":14059:14066   */\n      dup5\n        /* \"#utility.yul\":14050:14056   */\n      dup3\n        /* \"#utility.yul\":14039:14048   */\n      dup6\n        /* \"#utility.yul\":14035:14057   */\n      add\n        /* \"#utility.yul\":14014:14067   */\n      tag_257\n      jump\t// in\n    tag_469:\n        /* \"#utility.yul\":14004:14067   */\n      swap2\n      pop\n        /* \"#utility.yul\":13960:14077   */\n      pop\n        /* \"#utility.yul\":13755:14084   */\n      swap3\n      swap2\n      pop\n      pop\n      jump\t// out\n        /* \"#utility.yul\":14090:14238   */\n    tag_276:\n        /* \"#utility.yul\":14192:14203   */\n      0x00\n        /* \"#utility.yul\":14229:14232   */\n      dup2\n        /* \"#utility.yul\":14214:14232   */\n      swap1\n      pop\n        /* \"#utility.yul\":14090:14238   */\n      swap3\n      swap2\n      pop\n      pop\n      jump\t// out\n        /* \"#utility.yul\":14244:14621   */\n    tag_277:\n        /* \"#utility.yul\":14350:14353   */\n      0x00\n        /* \"#utility.yul\":14378:14417   */\n      tag_472\n        /* \"#utility.yul\":14411:14416   */\n      dup3\n        /* \"#utility.yul\":14378:14417   */\n      tag_265\n      jump\t// in\n    tag_472:\n        /* \"#utility.yul\":14433:14522   */\n      tag_473\n        /* \"#utility.yul\":14515:14521   */\n      dup2\n        /* \"#utility.yul\":14510:14513   */\n      dup6\n        /* \"#utility.yul\":14433:14522   */\n      tag_276\n      jump\t// in\n    tag_473:\n        /* \"#utility.yul\":14426:14522   */\n      swap4\n      pop\n        /* \"#utility.yul\":14531:14583   */\n      tag_474\n        /* \"#utility.yul\":14576:14582   */\n      dup2\n        /* \"#utility.yul\":14571:14574   */\n      dup6\n        /* \"#utility.yul\":14564:14568   */\n      0x20\n        /* \"#utility.yul\":14557:14562   */\n      dup7\n        /* \"#utility.yul\":14553:14569   */\n      add\n        /* \"#utility.yul\":14531:14583   */\n      tag_267\n      jump\t// in\n    tag_474:\n        /* \"#utility.yul\":14608:14614   */\n      dup1\n        /* \"#utility.yul\":14603:14606   */\n      dup5\n        /* \"#utility.yul\":14599:14615   */\n      add\n        /* \"#utility.yul\":14592:14615   */\n      swap2\n      pop\n        /* \"#utility.yul\":14354:14621   */\n      pop\n        /* \"#utility.yul\":14244:14621   */\n      swap3\n      swap2\n      pop\n      pop\n      jump\t// out\n        /* \"#utility.yul\":14627:14902   */\n    tag_61:\n        /* \"#utility.yul\":14759:14762   */\n      0x00\n        /* \"#utility.yul\":14781:14876   */\n      tag_476\n        /* \"#utility.yul\":14872:14875   */\n      dup3\n        /* \"#utility.yul\":14863:14869   */\n      dup5\n        /* \"#utility.yul\":14781:14876   */\n      tag_277\n      jump\t// in\n    tag_476:\n        /* \"#utility.yul\":14774:14876   */\n      swap2\n      pop\n        /* \"#utility.yul\":14893:14896   */\n      dup2\n        /* \"#utility.yul\":14886:14896   */\n      swap1\n      pop\n        /* \"#utility.yul\":14627:14902   */\n      swap3\n      swap2\n      pop\n      pop\n      jump\t// out\n        /* \"#utility.yul\":14908:15077   */\n    tag_278:\n        /* \"#utility.yul\":14992:15003   */\n      0x00\n        /* \"#utility.yul\":15026:15032   */\n      dup3\n        /* \"#utility.yul\":15021:15024   */\n      dup3\n        /* \"#utility.yul\":15014:15033   */\n      mstore\n        /* \"#utility.yul\":15066:15070   */\n      0x20\n        /* \"#utility.yul\":15061:15064   */\n      dup3\n        /* \"#utility.yul\":15057:15071   */\n      add\n        /* \"#utility.yul\":15042:15071   */\n      swap1\n      pop\n        /* \"#utility.yul\":14908:15077   */\n      swap3\n      swap2\n      pop\n      pop\n      jump\t// out\n        /* \"#utility.yul\":15083:15303   */\n    tag_279:\n        /* \"#utility.yul\":15223:15257   */\n      0x7472616e736665725f6661696c5f66726f6d5f6e616d655f6e6f745f65786973\n        /* \"#utility.yul\":15219:15220   */\n      0x00\n        /* \"#utility.yul\":15211:15217   */\n      dup3\n        /* \"#utility.yul\":15207:15221   */\n      add\n        /* \"#utility.yul\":15200:15258   */\n      mstore\n        /* \"#utility.yul\":15292:15295   */\n      0x7400000000000000000000000000000000000000000000000000000000000000\n        /* \"#utility.yul\":15287:15289   */\n      0x20\n        /* \"#utility.yul\":15279:15285   */\n      dup3\n        /* \"#utility.yul\":15275:15290   */\n      add\n        /* \"#utility.yul\":15268:15296   */\n      mstore\n        /* \"#utility.yul\":15083:15303   */\n      pop\n      jump\t// out\n        /* \"#utility.yul\":15309:15675   */\n    tag_280:\n        /* \"#utility.yul\":15451:15454   */\n      0x00\n        /* \"#utility.yul\":15472:15539   */\n      tag_480\n        /* \"#utility.yul\":15536:15538   */\n      0x21\n        /* \"#utility.yul\":15531:15534   */\n      dup4\n        /* \"#utility.yul\":15472:15539   */\n      tag_278\n      jump\t// in\n    tag_480:\n        /* \"#utility.yul\":15465:15539   */\n      swap2\n      pop\n        /* \"#utility.yul\":15548:15641   */\n      tag_481\n        /* \"#utility.yul\":15637:15640   */\n      dup3\n        /* \"#utility.yul\":15548:15641   */\n      tag_279\n      jump\t// in\n    tag_481:\n        /* \"#utility.yul\":15666:15668   */\n      0x40\n        /* \"#utility.yul\":15661:15664   */\n      dup3\n        /* \"#utility.yul\":15657:15669   */\n      add\n        /* \"#utility.yul\":15650:15669   */\n      swap1\n      pop\n        /* \"#utility.yul\":15309:15675   */\n      swap2\n      swap1\n      pop\n      jump\t// out\n        /* \"#utility.yul\":15681:16100   */\n    tag_64:\n        /* \"#utility.yul\":15847:15851   */\n      0x00\n        /* \"#utility.yul\":15885:15887   */\n      0x20\n        /* \"#utility.yul\":15874:15883   */\n      dup3\n        /* \"#utility.yul\":15870:15888   */\n      add\n        /* \"#utility.yul\":15862:15888   */\n      swap1\n      pop\n        /* \"#utility.yul\":15934:15943   */\n      dup2\n        /* \"#utility.yul\":15928:15932   */\n      dup2\n        /* \"#utility.yul\":15924:15944   */\n      sub\n        /* \"#utility.yul\":15920:15921   */\n      0x00\n        /* \"#utility.yul\":15909:15918   */\n      dup4\n        /* \"#utility.yul\":15905:15922   */\n      add\n        /* \"#utility.yul\":15898:15945   */\n      mstore\n        /* \"#utility.yul\":15962:16093   */\n      tag_483\n        /* \"#utility.yul\":16088:16092   */\n      dup2\n        /* \"#utility.yul\":15962:16093   */\n      tag_280\n      jump\t// in\n    tag_483:\n        /* \"#utility.yul\":15954:16093   */\n      swap1\n      pop\n        /* \"#utility.yul\":15681:16100   */\n      swap2\n      swap1\n      pop\n      jump\t// out\n        /* \"#utility.yul\":16106:16284   */\n    tag_281:\n        /* \"#utility.yul\":16246:16276   */\n      0x7472616e736665725f6661696c5f66726f6d5f6e6f745f6f776e657200000000\n        /* \"#utility.yul\":16242:16243   */\n      0x00\n        /* \"#utility.yul\":16234:16240   */\n      dup3\n        /* \"#utility.yul\":16230:16244   */\n      add\n        /* \"#utility.yul\":16223:16277   */\n      mstore\n        /* \"#utility.yul\":16106:16284   */\n      pop\n      jump\t// out\n        /* \"#utility.yul\":16290:16656   */\n    tag_282:\n        /* \"#utility.yul\":16432:16435   */\n      0x00\n        /* \"#utility.yul\":16453:16520   */\n      tag_486\n        /* \"#utility.yul\":16517:16519   */\n      0x1c\n        /* \"#utility.yul\":16512:16515   */\n      dup4\n        /* \"#utility.yul\":16453:16520   */\n      tag_278\n      jump\t// in\n    tag_486:\n        /* \"#utility.yul\":16446:16520   */\n      swap2\n      pop\n        /* \"#utility.yul\":16529:16622   */\n      tag_487\n        /* \"#utility.yul\":16618:16621   */\n      dup3\n        /* \"#utility.yul\":16529:16622   */\n      tag_281\n      jump\t// in\n    tag_487:\n        /* \"#utility.yul\":16647:16649   */\n      0x20\n        /* \"#utility.yul\":16642:16645   */\n      dup3\n        /* \"#utility.yul\":16638:16650   */\n      add\n        /* \"#utility.yul\":16631:16650   */\n      swap1\n      pop\n        /* \"#utility.yul\":16290:16656   */\n      swap2\n      swap1\n      pop\n      jump\t// out\n        /* \"#utility.yul\":16662:17081   */\n    tag_68:\n        /* \"#utility.yul\":16828:16832   */\n      0x00\n        /* \"#utility.yul\":16866:16868   */\n      0x20\n        /* \"#utility.yul\":16855:16864   */\n      dup3\n        /* \"#utility.yul\":16851:16869   */\n      add\n        /* \"#utility.yul\":16843:16869   */\n      swap1\n      pop\n        /* \"#utility.yul\":16915:16924   */\n      dup2\n        /* \"#utility.yul\":16909:16913   */\n      dup2\n        /* \"#utility.yul\":16905:16925   */\n      sub\n        /* \"#utility.yul\":16901:16902   */\n      0x00\n        /* \"#utility.yul\":16890:16899   */\n      dup4\n        /* \"#utility.yul\":16886:16903   */\n      add\n        /* \"#utility.yul\":16879:16926   */\n      mstore\n        /* \"#utility.yul\":16943:17074   */\n      tag_489\n        /* \"#utility.yul\":17069:17073   */\n      dup2\n        /* \"#utility.yul\":16943:17074   */\n      tag_282\n      jump\t// in\n    tag_489:\n        /* \"#utility.yul\":16935:17074   */\n      swap1\n      pop\n        /* \"#utility.yul\":16662:17081   */\n      swap2\n      swap1\n      pop\n      jump\t// out\n        /* \"#utility.yul\":17087:17307   */\n    tag_283:\n        /* \"#utility.yul\":17227:17261   */\n      0x7472616e736665725f6661696c5f76616c75655f6c6573735f7468616e5f3130\n        /* \"#utility.yul\":17223:17224   */\n      0x00\n        /* \"#utility.yul\":17215:17221   */\n      dup3\n        /* \"#utility.yul\":17211:17225   */\n      add\n        /* \"#utility.yul\":17204:17262   */\n      mstore\n        /* \"#utility.yul\":17296:17299   */\n      0x3000000000000000000000000000000000000000000000000000000000000000\n        /* \"#utility.yul\":17291:17293   */\n      0x20\n        /* \"#utility.yul\":17283:17289   */\n      dup3\n        /* \"#utility.yul\":17279:17294   */\n      add\n        /* \"#utility.yul\":17272:17300   */\n      mstore\n        /* \"#utility.yul\":17087:17307   */\n      pop\n      jump\t// out\n        /* \"#utility.yul\":17313:17679   */\n    tag_284:\n        /* \"#utility.yul\":17455:17458   */\n      0x00\n        /* \"#utility.yul\":17476:17543   */\n      tag_492\n        /* \"#utility.yul\":17540:17542   */\n      0x21\n        /* \"#utility.yul\":17535:17538   */\n      dup4\n        /* \"#utility.yul\":17476:17543   */\n      tag_278\n      jump\t// in\n    tag_492:\n        /* \"#utility.yul\":17469:17543   */\n      swap2\n      pop\n        /* \"#utility.yul\":17552:17645   */\n      tag_493\n        /* \"#utility.yul\":17641:17644   */\n      dup3\n        /* \"#utility.yul\":17552:17645   */\n      tag_283\n      jump\t// in\n    tag_493:\n        /* \"#utility.yul\":17670:17672   */\n      0x40\n        /* \"#utility.yul\":17665:17668   */\n      dup3\n        /* \"#utility.yul\":17661:17673   */\n      add\n        /* \"#utility.yul\":17654:17673   */\n      swap1\n      pop\n        /* \"#utility.yul\":17313:17679   */\n      swap2\n      swap1\n      pop\n      jump\t// out\n        /* \"#utility.yul\":17685:18104   */\n    tag_71:\n        /* \"#utility.yul\":17851:17855   */\n      0x00\n        /* \"#utility.yul\":17889:17891   */\n      0x20\n        /* \"#utility.yul\":17878:17887   */\n      dup3\n        /* \"#utility.yul\":17874:17892   */\n      add\n        /* \"#utility.yul\":17866:17892   */\n      swap1\n      pop\n        /* \"#utility.yul\":17938:17947   */\n      dup2\n        /* \"#utility.yul\":17932:17936   */\n      dup2\n        /* \"#utility.yul\":17928:17948   */\n      sub\n        /* \"#utility.yul\":17924:17925   */\n      0x00\n        /* \"#utility.yul\":17913:17922   */\n      dup4\n        /* \"#utility.yul\":17909:17926   */\n      add\n        /* \"#utility.yul\":17902:17949   */\n      mstore\n        /* \"#utility.yul\":17966:18097   */\n      tag_495\n        /* \"#utility.yul\":18092:18096   */\n      dup2\n        /* \"#utility.yul\":17966:18097   */\n      tag_284\n      jump\t// in\n    tag_495:\n        /* \"#utility.yul\":17958:18097   */\n      swap1\n      pop\n        /* \"#utility.yul\":17685:18104   */\n      swap2\n      swap1\n      pop\n      jump\t// out\n        /* \"#utility.yul\":18110:18290   */\n    tag_285:\n        /* \"#utility.yul\":18158:18235   */\n      0x4e487b7100000000000000000000000000000000000000000000000000000000\n        /* \"#utility.yul\":18155:18156   */\n      0x00\n        /* \"#utility.yul\":18148:18236   */\n      mstore\n        /* \"#utility.yul\":18255:18259   */\n      0x11\n        /* \"#utility.yul\":18252:18253   */\n      0x04\n        /* \"#utility.yul\":18245:18260   */\n      mstore\n        /* \"#utility.yul\":18279:18283   */\n      0x24\n        /* \"#utility.yul\":18276:18277   */\n      0x00\n        /* \"#utility.yul\":18269:18284   */\n      revert\n        /* \"#utility.yul\":18296:18644   */\n    tag_73:\n        /* \"#utility.yul\":18336:18343   */\n      0x00\n        /* \"#utility.yul\":18359:18379   */\n      tag_498\n        /* \"#utility.yul\":18377:18378   */\n      dup3\n        /* \"#utility.yul\":18359:18379   */\n      tag_255\n      jump\t// in\n    tag_498:\n        /* \"#utility.yul\":18354:18379   */\n      swap2\n      pop\n        /* \"#utility.yul\":18393:18413   */\n      tag_499\n        /* \"#utility.yul\":18411:18412   */\n      dup4\n        /* \"#utility.yul\":18393:18413   */\n      tag_255\n      jump\t// in\n    tag_499:\n        /* \"#utility.yul\":18388:18413   */\n      swap3\n      pop\n        /* \"#utility.yul\":18581:18582   */\n      dup2\n        /* \"#utility.yul\":18513:18579   */\n      0xffffffffffffffffffffffffffffffffffffffffffffffffffffffffffffffff\n        /* \"#utility.yul\":18509:18583   */\n      div\n        /* \"#utility.yul\":18506:18507   */\n      dup4\n        /* \"#utility.yul\":18503:18584   */\n      gt\n        /* \"#utility.yul\":18498:18499   */\n      dup3\n        /* \"#utility.yul\":18491:18500   */\n      iszero\n        /* \"#utility.yul\":18484:18501   */\n      iszero\n        /* \"#utility.yul\":18480:18585   */\n      and\n        /* \"#utility.yul\":18477:18608   */\n      iszero\n      tag_500\n      jumpi\n        /* \"#utility.yul\":18588:18606   */\n      tag_501\n      tag_285\n      jump\t// in\n    tag_501:\n        /* \"#utility.yul\":18477:18608   */\n    tag_500:\n        /* \"#utility.yul\":18636:18637   */\n      dup3\n        /* \"#utility.yul\":18633:18634   */\n      dup3\n        /* \"#utility.yul\":18629:18638   */\n      mul\n        /* \"#utility.yul\":18618:18638   */\n      swap1\n      pop\n        /* \"#utility.yul\":18296:18644   */\n      swap3\n      swap2\n      pop\n      pop\n      jump\t// out\n        /* \"#utility.yul\":18650:18874   */\n    tag_286:\n        /* \"#utility.yul\":18790:18824   */\n      0x7472616e736665725f6661696c5f66726f6d5f62616c616e63655f6e6f745f65\n        /* \"#utility.yul\":18786:18787   */\n      0x00\n        /* \"#utility.yul\":18778:18784   */\n      dup3\n        /* \"#utility.yul\":18774:18788   */\n      add\n        /* \"#utility.yul\":18767:18825   */\n      mstore\n        /* \"#utility.yul\":18859:18866   */\n      0x6e6f756768000000000000000000000000000000000000000000000000000000\n        /* \"#utility.yul\":18854:18856   */\n      0x20\n        /* \"#utility.yul\":18846:18852   */\n      dup3\n        /* \"#utility.yul\":18842:18857   */\n      add\n        /* \"#utility.yul\":18835:18867   */\n      mstore\n        /* \"#utility.yul\":18650:18874   */\n      pop\n      jump\t// out\n        /* \"#utility.yul\":18880:19246   */\n    tag_287:\n        /* \"#utility.yul\":19022:19025   */\n      0x00\n        /* \"#utility.yul\":19043:19110   */\n      tag_504\n        /* \"#utility.yul\":19107:19109   */\n      0x25\n        /* \"#utility.yul\":19102:19105   */\n      dup4\n        /* \"#utility.yul\":19043:19110   */\n      tag_278\n      jump\t// in\n    tag_504:\n        /* \"#utility.yul\":19036:19110   */\n      swap2\n      pop\n        /* \"#utility.yul\":19119:19212   */\n      tag_505\n        /* \"#utility.yul\":19208:19211   */\n      dup3\n        /* \"#utility.yul\":19119:19212   */\n      tag_286\n      jump\t// in\n    tag_505:\n        /* \"#utility.yul\":19237:19239   */\n      0x40\n        /* \"#utility.yul\":19232:19235   */\n      dup3\n        /* \"#utility.yul\":19228:19240   */\n      add\n        /* \"#utility.yul\":19221:19240   */\n      swap1\n      pop\n        /* \"#utility.yul\":18880:19246   */\n      swap2\n      swap1\n      pop\n      jump\t// out\n        /* \"#utility.yul\":19252:19671   */\n    tag_77:\n        /* \"#utility.yul\":19418:19422   */\n      0x00\n        /* \"#utility.yul\":19456:19458   */\n      0x20\n        /* \"#utility.yul\":19445:19454   */\n      dup3\n        /* \"#utility.yul\":19441:19459   */\n      add\n        /* \"#utility.yul\":19433:19459   */\n      swap1\n      pop\n        /* \"#utility.yul\":19505:19514   */\n      dup2\n        /* \"#utility.yul\":19499:19503   */\n      dup2\n        /* \"#utility.yul\":19495:19515   */\n      sub\n        /* \"#utility.yul\":19491:19492   */\n      0x00\n        /* \"#utility.yul\":19480:19489   */\n      dup4\n        /* \"#utility.yul\":19476:19493   */\n      add\n        /* \"#utility.yul\":19469:19516   */\n      mstore\n        /* \"#utility.yul\":19533:19664   */\n      tag_507\n        /* \"#utility.yul\":19659:19663   */\n      dup2\n        /* \"#utility.yul\":19533:19664   */\n      tag_287\n      jump\t// in\n    tag_507:\n        /* \"#utility.yul\":19525:19664   */\n      swap1\n      pop\n        /* \"#utility.yul\":19252:19671   */\n      swap2\n      swap1\n      pop\n      jump\t// out\n        /* \"#utility.yul\":19677:19857   */\n    tag_83:\n        /* \"#utility.yul\":19725:19802   */\n      0x4e487b7100000000000000000000000000000000000000000000000000000000\n        /* \"#utility.yul\":19722:19723   */\n      0x00\n        /* \"#utility.yul\":19715:19803   */\n      mstore\n        /* \"#utility.yul\":19822:19826   */\n      0x32\n        /* \"#utility.yul\":19819:19820   */\n      0x04\n        /* \"#utility.yul\":19812:19827   */\n      mstore\n        /* \"#utility.yul\":19846:19850   */\n      0x24\n        /* \"#utility.yul\":19843:19844   */\n      0x00\n        /* \"#utility.yul\":19836:19851   */\n      revert\n        /* \"#utility.yul\":19863:20044   */\n    tag_288:\n        /* \"#utility.yul\":20003:20036   */\n      0x7472616e736665725f6661696c5f746f5f6e616d655f6e6f745f657869737400\n        /* \"#utility.yul\":19999:20000   */\n      0x00\n        /* \"#utility.yul\":19991:19997   */\n      dup3\n        /* \"#utility.yul\":19987:20001   */\n      add\n        /* \"#utility.yul\":19980:20037   */\n      mstore\n        /* \"#utility.yul\":19863:20044   */\n      pop\n      jump\t// out\n        /* \"#utility.yul\":20050:20416   */\n    tag_289:\n        /* \"#utility.yul\":20192:20195   */\n      0x00\n        /* \"#utility.yul\":20213:20280   */\n      tag_511\n        /* \"#utility.yul\":20277:20279   */\n      0x1f\n        /* \"#utility.yul\":20272:20275   */\n      dup4\n        /* \"#utility.yul\":20213:20280   */\n      tag_278\n      jump\t// in\n    tag_511:\n        /* \"#utility.yul\":20206:20280   */\n      swap2\n      pop\n        /* \"#utility.yul\":20289:20382   */\n      tag_512\n        /* \"#utility.yul\":20378:20381   */\n      dup3\n        /* \"#utility.yul\":20289:20382   */\n      tag_288\n      jump\t// in\n    tag_512:\n        /* \"#utility.yul\":20407:20409   */\n      0x20\n        /* \"#utility.yul\":20402:20405   */\n      dup3\n        /* \"#utility.yul\":20398:20410   */\n      add\n        /* \"#utility.yul\":20391:20410   */\n      swap1\n      pop\n        /* \"#utility.yul\":20050:20416   */\n      swap2\n      swap1\n      pop\n      jump\t// out\n        /* \"#utility.yul\":20422:20841   */\n    tag_87:\n        /* \"#utility.yul\":20588:20592   */\n      0x00\n        /* \"#utility.yul\":20626:20628   */\n      0x20\n        /* \"#utility.yul\":20615:20624   */\n      dup3\n        /* \"#utility.yul\":20611:20629   */\n      add\n        /* \"#utility.yul\":20603:20629   */\n      swap1\n      pop\n        /* \"#utility.yul\":20675:20684   */\n      dup2\n        /* \"#utility.yul\":20669:20673   */\n      dup2\n        /* \"#utility.yul\":20665:20685   */\n      sub\n        /* \"#utility.yul\":20661:20662   */\n      0x00\n        /* \"#utility.yul\":20650:20659   */\n      dup4\n        /* \"#utility.yul\":20646:20663   */\n      add\n        /* \"#utility.yul\":20639:20686   */\n      mstore\n        /* \"#utility.yul\":20703:20834   */\n      tag_514\n        /* \"#utility.yul\":20829:20833   */\n      dup2\n        /* \"#utility.yul\":20703:20834   */\n      tag_289\n      jump\t// in\n    tag_514:\n        /* \"#utility.yul\":20695:20834   */\n      swap1\n      pop\n        /* \"#utility.yul\":20422:20841   */\n      swap2\n      swap1\n      pop\n      jump\t// out\n        /* \"#utility.yul\":20847:21027   */\n    tag_290:\n        /* \"#utility.yul\":20895:20972   */\n      0x4e487b7100000000000000000000000000000000000000000000000000000000\n        /* \"#utility.yul\":20892:20893   */\n      0x00\n        /* \"#utility.yul\":20885:20973   */\n      mstore\n        /* \"#utility.yul\":20992:20996   */\n      0x12\n        /* \"#utility.yul\":20989:20990   */\n      0x04\n        /* \"#utility.yul\":20982:20997   */\n      mstore\n        /* \"#utility.yul\":21016:21020   */\n      0x24\n        /* \"#utility.yul\":21013:21014   */\n      0x00\n        /* \"#utility.yul\":21006:21021   */\n      revert\n        /* \"#utility.yul\":21033:21218   */\n    tag_99:\n        /* \"#utility.yul\":21073:21074   */\n      0x00\n        /* \"#utility.yul\":21090:21110   */\n      tag_517\n        /* \"#utility.yul\":21108:21109   */\n      dup3\n        /* \"#utility.yul\":21090:21110   */\n      tag_255\n      jump\t// in\n    tag_517:\n        /* \"#utility.yul\":21085:21110   */\n      swap2\n      pop\n        /* \"#utility.yul\":21124:21144   */\n      tag_518\n        /* \"#utility.yul\":21142:21143   */\n      dup4\n        /* \"#utility.yul\":21124:21144   */\n      tag_255\n      jump\t// in\n    tag_518:\n        /* \"#utility.yul\":21119:21144   */\n      swap3\n      pop\n        /* \"#utility.yul\":21163:21164   */\n      dup3\n        /* \"#utility.yul\":21153:21188   */\n      tag_519\n      jumpi\n        /* \"#utility.yul\":21168:21186   */\n      tag_520\n      tag_290\n      jump\t// in\n    tag_520:\n        /* \"#utility.yul\":21153:21188   */\n    tag_519:\n        /* \"#utility.yul\":21210:21211   */\n      dup3\n        /* \"#utility.yul\":21207:21208   */\n      dup3\n        /* \"#utility.yul\":21203:21212   */\n      div\n        /* \"#utility.yul\":21198:21212   */\n      swap1\n      pop\n        /* \"#utility.yul\":21033:21218   */\n      swap3\n      swap2\n      pop\n      pop\n      jump\t// out\n        /* \"#utility.yul\":21224:21529   */\n    tag_101:\n        /* \"#utility.yul\":21264:21267   */\n      0x00\n        /* \"#utility.yul\":21283:21303   */\n      tag_522\n        /* \"#utility.yul\":21301:21302   */\n      dup3\n        /* \"#utility.yul\":21283:21303   */\n      tag_255\n      jump\t// in\n    tag_522:\n        /* \"#utility.yul\":21278:21303   */\n      swap2\n      pop\n        /* \"#utility.yul\":21317:21337   */\n      tag_523\n        /* \"#utility.yul\":21335:21336   */\n      dup4\n        /* \"#utility.yul\":21317:21337   */\n      tag_255\n      jump\t// in\n    tag_523:\n        /* \"#utility.yul\":21312:21337   */\n      swap3\n      pop\n        /* \"#utility.yul\":21471:21472   */\n      dup3\n        /* \"#utility.yul\":21403:21469   */\n      0xffffffffffffffffffffffffffffffffffffffffffffffffffffffffffffffff\n        /* \"#utility.yul\":21399:21473   */\n      sub\n        /* \"#utility.yul\":21396:21397   */\n      dup3\n        /* \"#utility.yul\":21393:21474   */\n      gt\n        /* \"#utility.yul\":21390:21497   */\n      iszero\n      tag_524\n      jumpi\n        /* \"#utility.yul\":21477:21495   */\n      tag_525\n      tag_285\n      jump\t// in\n    tag_525:\n        /* \"#utility.yul\":21390:21497   */\n    tag_524:\n        /* \"#utility.yul\":21521:21522   */\n      dup3\n        /* \"#utility.yul\":21518:21519   */\n      dup3\n        /* \"#utility.yul\":21514:21523   */\n      add\n        /* \"#utility.yul\":21507:21523   */\n      swap1\n      pop\n        /* \"#utility.yul\":21224:21529   */\n      swap3\n      swap2\n      pop\n      pop\n      jump\t// out\n        /* \"#utility.yul\":21535:21726   */\n    tag_104:\n        /* \"#utility.yul\":21575:21579   */\n      0x00\n        /* \"#utility.yul\":21595:21615   */\n      tag_527\n        /* \"#utility.yul\":21613:21614   */\n      dup3\n        /* \"#utility.yul\":21595:21615   */\n      tag_255\n      jump\t// in\n    tag_527:\n        /* \"#utility.yul\":21590:21615   */\n      swap2\n      pop\n        /* \"#utility.yul\":21629:21649   */\n      tag_528\n        /* \"#utility.yul\":21647:21648   */\n      dup4\n        /* \"#utility.yul\":21629:21649   */\n      tag_255\n      jump\t// in\n    tag_528:\n        /* \"#utility.yul\":21624:21649   */\n      swap3\n      pop\n        /* \"#utility.yul\":21668:21669   */\n      dup3\n        /* \"#utility.yul\":21665:21666   */\n      dup3\n        /* \"#utility.yul\":21662:21670   */\n      lt\n        /* \"#utility.yul\":21659:21693   */\n      iszero\n      tag_529\n      jumpi\n        /* \"#utility.yul\":21673:21691   */\n      tag_530\n      tag_285\n      jump\t// in\n    tag_530:\n        /* \"#utility.yul\":21659:21693   */\n    tag_529:\n        /* \"#utility.yul\":21718:21719   */\n      dup3\n        /* \"#utility.yul\":21715:21716   */\n      dup3\n        /* \"#utility.yul\":21711:21720   */\n      sub\n        /* \"#utility.yul\":21703:21720   */\n      swap1\n      pop\n        /* \"#utility.yul\":21535:21726   */\n      swap3\n      swap2\n      pop\n      pop\n      jump\t// out\n        /* \"#utility.yul\":21732:22096   */\n    tag_291:\n        /* \"#utility.yul\":21820:21823   */\n      0x00\n        /* \"#utility.yul\":21848:21887   */\n      tag_532\n        /* \"#utility.yul\":21881:21886   */\n      dup3\n        /* \"#utility.yul\":21848:21887   */\n      tag_265\n      jump\t// in\n    tag_532:\n        /* \"#utility.yul\":21903:21974   */\n      tag_533\n        /* \"#utility.yul\":21967:21973   */\n      dup2\n        /* \"#utility.yul\":21962:21965   */\n      dup6\n        /* \"#utility.yul\":21903:21974   */\n      tag_278\n      jump\t// in\n    tag_533:\n        /* \"#utility.yul\":21896:21974   */\n      swap4\n      pop\n        /* \"#utility.yul\":21983:22035   */\n      tag_534\n        /* \"#utility.yul\":22028:22034   */\n      dup2\n        /* \"#utility.yul\":22023:22026   */\n      dup6\n        /* \"#utility.yul\":22016:22020   */\n      0x20\n        /* \"#utility.yul\":22009:22014   */\n      dup7\n        /* \"#utility.yul\":22005:22021   */\n      add\n        /* \"#utility.yul\":21983:22035   */\n      tag_267\n      jump\t// in\n    tag_534:\n        /* \"#utility.yul\":22060:22089   */\n      tag_535\n        /* \"#utility.yul\":22082:22088   */\n      dup2\n        /* \"#utility.yul\":22060:22089   */\n      tag_243\n      jump\t// in\n    tag_535:\n        /* \"#utility.yul\":22055:22058   */\n      dup5\n        /* \"#utility.yul\":22051:22090   */\n      add\n        /* \"#utility.yul\":22044:22090   */\n      swap2\n      pop\n        /* \"#utility.yul\":21824:22096   */\n      pop\n        /* \"#utility.yul\":21732:22096   */\n      swap3\n      swap2\n      pop\n      pop\n      jump\t// out\n        /* \"#utility.yul\":22102:22726   */\n    tag_114:\n        /* \"#utility.yul\":22291:22295   */\n      0x00\n        /* \"#utility.yul\":22329:22331   */\n      0x60\n        /* \"#utility.yul\":22318:22327   */\n      dup3\n        /* \"#utility.yul\":22314:22332   */\n      add\n        /* \"#utility.yul\":22306:22332   */\n      swap1\n      pop\n        /* \"#utility.yul\":22378:22387   */\n      dup2\n        /* \"#utility.yul\":22372:22376   */\n      dup2\n        /* \"#utility.yul\":22368:22388   */\n      sub\n        /* \"#utility.yul\":22364:22365   */\n      0x00\n        /* \"#utility.yul\":22353:22362   */\n      dup4\n        /* \"#utility.yul\":22349:22366   */\n      add\n        /* \"#utility.yul\":22342:22389   */\n      mstore\n        /* \"#utility.yul\":22406:22484   */\n      tag_537\n        /* \"#utility.yul\":22479:22483   */\n      dup2\n        /* \"#utility.yul\":22470:22476   */\n      dup7\n        /* \"#utility.yul\":22406:22484   */\n      tag_291\n      jump\t// in\n    tag_537:\n        /* \"#utility.yul\":22398:22484   */\n      swap1\n      pop\n        /* \"#utility.yul\":22531:22540   */\n      dup2\n        /* \"#utility.yul\":22525:22529   */\n      dup2\n        /* \"#utility.yul\":22521:22541   */\n      sub\n        /* \"#utility.yul\":22516:22518   */\n      0x20\n        /* \"#utility.yul\":22505:22514   */\n      dup4\n        /* \"#utility.yul\":22501:22519   */\n      add\n        /* \"#utility.yul\":22494:22542   */\n      mstore\n        /* \"#utility.yul\":22559:22637   */\n      tag_538\n        /* \"#utility.yul\":22632:22636   */\n      dup2\n        /* \"#utility.yul\":22623:22629   */\n      dup6\n        /* \"#utility.yul\":22559:22637   */\n      tag_291\n      jump\t// in\n    tag_538:\n        /* \"#utility.yul\":22551:22637   */\n      swap1\n      pop\n        /* \"#utility.yul\":22647:22719   */\n      tag_539\n        /* \"#utility.yul\":22715:22717   */\n      0x40\n        /* \"#utility.yul\":22704:22713   */\n      dup4\n        /* \"#utility.yul\":22700:22718   */\n      add\n        /* \"#utility.yul\":22691:22697   */\n      dup5\n        /* \"#utility.yul\":22647:22719   */\n      tag_272\n      jump\t// in\n    tag_539:\n        /* \"#utility.yul\":22102:22726   */\n      swap5\n      swap4\n      pop\n      pop\n      pop\n      pop\n      jump\t// out\n        /* \"#utility.yul\":22732:22965   */\n    tag_126:\n        /* \"#utility.yul\":22771:22774   */\n      0x00\n        /* \"#utility.yul\":22794:22818   */\n      tag_541\n        /* \"#utility.yul\":22812:22817   */\n      dup3\n        /* \"#utility.yul\":22794:22818   */\n      tag_255\n      jump\t// in\n    tag_541:\n        /* \"#utility.yul\":22785:22818   */\n      swap2\n      pop\n        /* \"#utility.yul\":22840:22906   */\n      0xffffffffffffffffffffffffffffffffffffffffffffffffffffffffffffffff\n        /* \"#utility.yul\":22833:22838   */\n      dup3\n        /* \"#utility.yul\":22830:22907   */\n      sub\n        /* \"#utility.yul\":22827:22930   */\n      tag_542\n      jumpi\n        /* \"#utility.yul\":22910:22928   */\n      tag_543\n      tag_285\n      jump\t// in\n    tag_543:\n        /* \"#utility.yul\":22827:22930   */\n    tag_542:\n        /* \"#utility.yul\":22957:22958   */\n      0x01\n        /* \"#utility.yul\":22950:22955   */\n      dup3\n        /* \"#utility.yul\":22946:22959   */\n      add\n        /* \"#utility.yul\":22939:22959   */\n      swap1\n      pop\n        /* \"#utility.yul\":22732:22965   */\n      swap2\n      swap1\n      pop\n      jump\t// out\n        /* \"#utility.yul\":22971:23148   */\n    tag_292:\n        /* \"#utility.yul\":23111:23140   */\n      0x6164645f6163636f756e745f6661696c5f6e616d655f65786973740000000000\n        /* \"#utility.yul\":23107:23108   */\n      0x00\n        /* \"#utility.yul\":23099:23105   */\n      dup3\n        /* \"#utility.yul\":23095:23109   */\n      add\n        /* \"#utility.yul\":23088:23141   */\n      mstore\n        /* \"#utility.yul\":22971:23148   */\n      pop\n      jump\t// out\n        /* \"#utility.yul\":23154:23520   */\n    tag_293:\n        /* \"#utility.yul\":23296:23299   */\n      0x00\n        /* \"#utility.yul\":23317:23384   */\n      tag_546\n        /* \"#utility.yul\":23381:23383   */\n      0x1b\n        /* \"#utility.yul\":23376:23379   */\n      dup4\n        /* \"#utility.yul\":23317:23384   */\n      tag_278\n      jump\t// in\n    tag_546:\n        /* \"#utility.yul\":23310:23384   */\n      swap2\n      pop\n        /* \"#utility.yul\":23393:23486   */\n      tag_547\n        /* \"#utility.yul\":23482:23485   */\n      dup3\n        /* \"#utility.yul\":23393:23486   */\n      tag_292\n      jump\t// in\n    tag_547:\n        /* \"#utility.yul\":23511:23513   */\n      0x20\n        /* \"#utility.yul\":23506:23509   */\n      dup3\n        /* \"#utility.yul\":23502:23514   */\n      add\n        /* \"#utility.yul\":23495:23514   */\n      swap1\n      pop\n        /* \"#utility.yul\":23154:23520   */\n      swap2\n      swap1\n      pop\n      jump\t// out\n        /* \"#utility.yul\":23526:23945   */\n    tag_131:\n        /* \"#utility.yul\":23692:23696   */\n      0x00\n        /* \"#utility.yul\":23730:23732   */\n      0x20\n        /* \"#utility.yul\":23719:23728   */\n      dup3\n        /* \"#utility.yul\":23715:23733   */\n      add\n        /* \"#utility.yul\":23707:23733   */\n      swap1\n      pop\n        /* \"#utility.yul\":23779:23788   */\n      dup2\n        /* \"#utility.yul\":23773:23777   */\n      dup2\n        /* \"#utility.yul\":23769:23789   */\n      sub\n        /* \"#utility.yul\":23765:23766   */\n      0x00\n        /* \"#utility.yul\":23754:23763   */\n      dup4\n        /* \"#utility.yul\":23750:23767   */\n      add\n        /* \"#utility.yul\":23743:23790   */\n      mstore\n        /* \"#utility.yul\":23807:23938   */\n      tag_549\n        /* \"#utility.yul\":23933:23937   */\n      dup2\n        /* \"#utility.yul\":23807:23938   */\n      tag_293\n      jump\t// in\n    tag_549:\n        /* \"#utility.yul\":23799:23938   */\n      swap1\n      pop\n        /* \"#utility.yul\":23526:23945   */\n      swap2\n      swap1\n      pop\n      jump\t// out\n        /* \"#utility.yul\":23951:24131   */\n    tag_294:\n        /* \"#utility.yul\":23999:24076   */\n      0x4e487b7100000000000000000000000000000000000000000000000000000000\n        /* \"#utility.yul\":23996:23997   */\n      0x00\n        /* \"#utility.yul\":23989:24077   */\n      mstore\n        /* \"#utility.yul\":24096:24100   */\n      0x22\n        /* \"#utility.yul\":24093:24094   */\n      0x04\n        /* \"#utility.yul\":24086:24101   */\n      mstore\n        /* \"#utility.yul\":24120:24124   */\n      0x24\n        /* \"#utility.yul\":24117:24118   */\n      0x00\n        /* \"#utility.yul\":24110:24125   */\n      revert\n        /* \"#utility.yul\":24137:24457   */\n    tag_212:\n        /* \"#utility.yul\":24181:24187   */\n      0x00\n        /* \"#utility.yul\":24218:24219   */\n      0x02\n        /* \"#utility.yul\":24212:24216   */\n      dup3\n        /* \"#utility.yul\":24208:24220   */\n      div\n        /* \"#utility.yul\":24198:24220   */\n      swap1\n      pop\n        /* \"#utility.yul\":24265:24266   */\n      0x01\n        /* \"#utility.yul\":24259:24263   */\n      dup3\n        /* \"#utility.yul\":24255:24267   */\n      and\n        /* \"#utility.yul\":24286:24304   */\n      dup1\n        /* \"#utility.yul\":24276:24357   */\n      tag_552\n      jumpi\n        /* \"#utility.yul\":24342:24346   */\n      0x7f\n        /* \"#utility.yul\":24334:24340   */\n      dup3\n        /* \"#utility.yul\":24330:24347   */\n      and\n        /* \"#utility.yul\":24320:24347   */\n      swap2\n      pop\n        /* \"#utility.yul\":24276:24357   */\n    tag_552:\n        /* \"#utility.yul\":24404:24406   */\n      0x20\n        /* \"#utility.yul\":24396:24402   */\n      dup3\n        /* \"#utility.yul\":24393:24407   */\n      lt\n        /* \"#utility.yul\":24373:24391   */\n      dup2\n        /* \"#utility.yul\":24370:24408   */\n      sub\n        /* \"#utility.yul\":24367:24451   */\n      tag_553\n      jumpi\n        /* \"#utility.yul\":24423:24441   */\n      tag_554\n      tag_294\n      jump\t// in\n    tag_554:\n        /* \"#utility.yul\":24367:24451   */\n    tag_553:\n        /* \"#utility.yul\":24188:24457   */\n      pop\n        /* \"#utility.yul\":24137:24457   */\n      swap2\n      swap1\n      pop\n      jump\t// out\n        /* \"#utility.yul\":24463:24604   */\n    tag_295:\n        /* \"#utility.yul\":24512:24516   */\n      0x00\n        /* \"#utility.yul\":24535:24538   */\n      dup2\n        /* \"#utility.yul\":24527:24538   */\n      swap1\n      pop\n        /* \"#utility.yul\":24558:24561   */\n      dup2\n        /* \"#utility.yul\":24555:24556   */\n      0x00\n        /* \"#utility.yul\":24548:24562   */\n      mstore\n        /* \"#utility.yul\":24592:24596   */\n      0x20\n        /* \"#utility.yul\":24589:24590   */\n      0x00\n        /* \"#utility.yul\":24579:24597   */\n      keccak256\n        /* \"#utility.yul\":24571:24597   */\n      swap1\n      pop\n        /* \"#utility.yul\":24463:24604   */\n      swap2\n      swap1\n      pop\n      jump\t// out\n        /* \"#utility.yul\":24610:24703   */\n    tag_296:\n        /* \"#utility.yul\":24647:24653   */\n      0x00\n        /* \"#utility.yul\":24694:24696   */\n      0x20\n        /* \"#utility.yul\":24689:24691   */\n      0x1f\n        /* \"#utility.yul\":24682:24687   */\n      dup4\n        /* \"#utility.yul\":24678:24692   */\n      add\n        /* \"#utility.yul\":24674:24697   */\n      div\n        /* \"#utility.yul\":24664:24697   */\n      swap1\n      pop\n        /* \"#utility.yul\":24610:24703   */\n      swap2\n      swap1\n      pop\n      jump\t// out\n        /* \"#utility.yul\":24709:24816   */\n    tag_297:\n        /* \"#utility.yul\":24753:24761   */\n      0x00\n        /* \"#utility.yul\":24803:24808   */\n      dup3\n        /* \"#utility.yul\":24797:24801   */\n      dup3\n        /* \"#utility.yul\":24793:24809   */\n      shl\n        /* \"#utility.yul\":24772:24809   */\n      swap1\n      pop\n        /* \"#utility.yul\":24709:24816   */\n      swap3\n      swap2\n      pop\n      pop\n      jump\t// out\n        /* \"#utility.yul\":24822:25215   */\n    tag_298:\n        /* \"#utility.yul\":24891:24897   */\n      0x00\n        /* \"#utility.yul\":24941:24942   */\n      0x08\n        /* \"#utility.yul\":24929:24939   */\n      dup4\n        /* \"#utility.yul\":24925:24943   */\n      mul\n        /* \"#utility.yul\":24964:25061   */\n      tag_559\n        /* \"#utility.yul\":24994:25060   */\n      0xffffffffffffffffffffffffffffffffffffffffffffffffffffffffffffffff\n        /* \"#utility.yul\":24983:24992   */\n      dup3\n        /* \"#utility.yul\":24964:25061   */\n      tag_297\n      jump\t// in\n    tag_559:\n        /* \"#utility.yul\":25082:25121   */\n      tag_560\n        /* \"#utility.yul\":25112:25120   */\n      dup7\n        /* \"#utility.yul\":25101:25110   */\n      dup4\n        /* \"#utility.yul\":25082:25121   */\n      tag_297\n      jump\t// in\n    tag_560:\n        /* \"#utility.yul\":25070:25121   */\n      swap6\n      pop\n        /* \"#utility.yul\":25154:25158   */\n      dup1\n        /* \"#utility.yul\":25150:25159   */\n      not\n        /* \"#utility.yul\":25143:25148   */\n      dup5\n        /* \"#utility.yul\":25139:25160   */\n      and\n        /* \"#utility.yul\":25130:25160   */\n      swap4\n      pop\n        /* \"#utility.yul\":25203:25207   */\n      dup1\n        /* \"#utility.yul\":25193:25201   */\n      dup7\n        /* \"#utility.yul\":25189:25208   */\n      and\n        /* \"#utility.yul\":25182:25187   */\n      dup5\n        /* \"#utility.yul\":25179:25209   */\n      or\n        /* \"#utility.yul\":25169:25209   */\n      swap3\n      pop\n        /* \"#utility.yul\":24898:25215   */\n      pop\n      pop\n        /* \"#utility.yul\":24822:25215   */\n      swap4\n      swap3\n      pop\n      pop\n      pop\n      jump\t// out\n        /* \"#utility.yul\":25221:25281   */\n    tag_299:\n        /* \"#utility.yul\":25249:25252   */\n      0x00\n        /* \"#utility.yul\":25270:25275   */\n      dup2\n        /* \"#utility.yul\":25263:25275   */\n      swap1\n      pop\n        /* \"#utility.yul\":25221:25281   */\n      swap2\n      swap1\n      pop\n      jump\t// out\n        /* \"#utility.yul\":25287:25429   */\n    tag_300:\n        /* \"#utility.yul\":25337:25346   */\n      0x00\n        /* \"#utility.yul\":25370:25423   */\n      tag_563\n        /* \"#utility.yul\":25388:25422   */\n      tag_564\n        /* \"#utility.yul\":25397:25421   */\n      tag_565\n        /* \"#utility.yul\":25415:25420   */\n      dup5\n        /* \"#utility.yul\":25397:25421   */\n      tag_255\n      jump\t// in\n    tag_565:\n        /* \"#utility.yul\":25388:25422   */\n      tag_299\n      jump\t// in\n    tag_564:\n        /* \"#utility.yul\":25370:25423   */\n      tag_255\n      jump\t// in\n    tag_563:\n        /* \"#utility.yul\":25357:25423   */\n      swap1\n      pop\n        /* \"#utility.yul\":25287:25429   */\n      swap2\n      swap1\n      pop\n      jump\t// out\n        /* \"#utility.yul\":25435:25510   */\n    tag_301:\n        /* \"#utility.yul\":25478:25481   */\n      0x00\n        /* \"#utility.yul\":25499:25504   */\n      dup2\n        /* \"#utility.yul\":25492:25504   */\n      swap1\n      pop\n        /* \"#utility.yul\":25435:25510   */\n      swap2\n      swap1\n      pop\n      jump\t// out\n        /* \"#utility.yul\":25516:25785   */\n    tag_302:\n        /* \"#utility.yul\":25626:25665   */\n      tag_568\n        /* \"#utility.yul\":25657:25664   */\n      dup4\n        /* \"#utility.yul\":25626:25665   */\n      tag_300\n      jump\t// in\n    tag_568:\n        /* \"#utility.yul\":25687:25778   */\n      tag_569\n        /* \"#utility.yul\":25736:25777   */\n      tag_570\n        /* \"#utility.yul\":25760:25776   */\n      dup3\n        /* \"#utility.yul\":25736:25777   */\n      tag_301\n      jump\t// in\n    tag_570:\n        /* \"#utility.yul\":25728:25734   */\n      dup5\n        /* \"#utility.yul\":25721:25725   */\n      dup5\n        /* \"#utility.yul\":25715:25726   */\n      sload\n        /* \"#utility.yul\":25687:25778   */\n      tag_298\n      jump\t// in\n    tag_569:\n        /* \"#utility.yul\":25681:25685   */\n      dup3\n        /* \"#utility.yul\":25674:25779   */\n      sstore\n        /* \"#utility.yul\":25592:25785   */\n      pop\n        /* \"#utility.yul\":25516:25785   */\n      pop\n      pop\n      pop\n      jump\t// out\n        /* \"#utility.yul\":25791:25864   */\n    tag_303:\n        /* \"#utility.yul\":25836:25839   */\n      0x00\n        /* \"#utility.yul\":25791:25864   */\n      swap1\n      jump\t// out\n        /* \"#utility.yul\":25870:26059   */\n    tag_304:\n        /* \"#utility.yul\":25947:25979   */\n      tag_573\n      tag_303\n      jump\t// in\n    tag_573:\n        /* \"#utility.yul\":25988:26053   */\n      tag_574\n        /* \"#utility.yul\":26046:26052   */\n      dup2\n        /* \"#utility.yul\":26038:26044   */\n      dup5\n        /* \"#utility.yul\":26032:26036   */\n      dup5\n        /* \"#utility.yul\":25988:26053   */\n      tag_302\n      jump\t// in\n    tag_574:\n        /* \"#utility.yul\":25923:26059   */\n      pop\n        /* \"#utility.yul\":25870:26059   */\n      pop\n      pop\n      jump\t// out\n        /* \"#utility.yul\":26065:26251   */\n    tag_305:\n        /* \"#utility.yul\":26125:26245   */\n    tag_576:\n        /* \"#utility.yul\":26142:26145   */\n      dup2\n        /* \"#utility.yul\":26135:26140   */\n      dup2\n        /* \"#utility.yul\":26132:26146   */\n      lt\n        /* \"#utility.yul\":26125:26245   */\n      iszero\n      tag_578\n      jumpi\n        /* \"#utility.yul\":26196:26235   */\n      tag_579\n        /* \"#utility.yul\":26233:26234   */\n      0x00\n        /* \"#utility.yul\":26226:26231   */\n      dup3\n        /* \"#utility.yul\":26196:26235   */\n      tag_304\n      jump\t// in\n    tag_579:\n        /* \"#utility.yul\":26169:26170   */\n      0x01\n        /* \"#utility.yul\":26162:26167   */\n      dup2\n        /* \"#utility.yul\":26158:26171   */\n      add\n        /* \"#utility.yul\":26149:26171   */\n      swap1\n      pop\n        /* \"#utility.yul\":26125:26245   */\n      jump(tag_576)\n    tag_578:\n        /* \"#utility.yul\":26065:26251   */\n      pop\n      pop\n      jump\t// out\n        /* \"#utility.yul\":26257:26800   */\n    tag_306:\n        /* \"#utility.yul\":26358:26360   */\n      0x1f\n        /* \"#utility.yul\":26353:26356   */\n      dup3\n        /* \"#utility.yul\":26350:26361   */\n      gt\n        /* \"#utility.yul\":26347:26793   */\n      iszero\n      tag_581\n      jumpi\n        /* \"#utility.yul\":26392:26430   */\n      tag_582\n        /* \"#utility.yul\":26424:26429   */\n      dup2\n        /* \"#utility.yul\":26392:26430   */\n      tag_295\n      jump\t// in\n    tag_582:\n        /* \"#utility.yul\":26476:26505   */\n      tag_583\n        /* \"#utility.yul\":26494:26504   */\n      dup5\n        /* \"#utility.yul\":26476:26505   */\n      tag_296\n      jump\t// in\n    tag_583:\n        /* \"#utility.yul\":26466:26474   */\n      dup2\n        /* \"#utility.yul\":26462:26506   */\n      add\n        /* \"#utility.yul\":26659:26661   */\n      0x20\n        /* \"#utility.yul\":26647:26657   */\n      dup6\n        /* \"#utility.yul\":26644:26662   */\n      lt\n        /* \"#utility.yul\":26641:26690   */\n      iszero\n      tag_584\n      jumpi\n        /* \"#utility.yul\":26680:26688   */\n      dup2\n        /* \"#utility.yul\":26665:26688   */\n      swap1\n      pop\n        /* \"#utility.yul\":26641:26690   */\n    tag_584:\n        /* \"#utility.yul\":26703:26783   */\n      tag_585\n        /* \"#utility.yul\":26759:26781   */\n      tag_586\n        /* \"#utility.yul\":26777:26780   */\n      dup6\n        /* \"#utility.yul\":26759:26781   */\n      tag_296\n      jump\t// in\n    tag_586:\n        /* \"#utility.yul\":26749:26757   */\n      dup4\n        /* \"#utility.yul\":26745:26782   */\n      add\n        /* \"#utility.yul\":26732:26743   */\n      dup3\n        /* \"#utility.yul\":26703:26783   */\n      tag_305\n      jump\t// in\n    tag_585:\n        /* \"#utility.yul\":26362:26793   */\n      pop\n      pop\n        /* \"#utility.yul\":26347:26793   */\n    tag_581:\n        /* \"#utility.yul\":26257:26800   */\n      pop\n      pop\n      pop\n      jump\t// out\n        /* \"#utility.yul\":26806:26923   */\n    tag_307:\n        /* \"#utility.yul\":26860:26868   */\n      0x00\n        /* \"#utility.yul\":26910:26915   */\n      dup3\n        /* \"#utility.yul\":26904:26908   */\n      dup3\n        /* \"#utility.yul\":26900:26916   */\n      shr\n        /* \"#utility.yul\":26879:26916   */\n      swap1\n      pop\n        /* \"#utility.yul\":26806:26923   */\n      swap3\n      swap2\n      pop\n      pop\n      jump\t// out\n        /* \"#utility.yul\":26929:27098   */\n    tag_308:\n        /* \"#utility.yul\":26973:26979   */\n      0x00\n        /* \"#utility.yul\":27006:27057   */\n      tag_589\n        /* \"#utility.yul\":27054:27055   */\n      0x00\n        /* \"#utility.yul\":27050:27056   */\n      not\n        /* \"#utility.yul\":27042:27047   */\n      dup5\n        /* \"#utility.yul\":27039:27040   */\n      0x08\n        /* \"#utility.yul\":27035:27048   */\n      mul\n        /* \"#utility.yul\":27006:27057   */\n      tag_307\n      jump\t// in\n    tag_589:\n        /* \"#utility.yul\":27002:27058   */\n      not\n        /* \"#utility.yul\":27087:27091   */\n      dup1\n        /* \"#utility.yul\":27081:27085   */\n      dup4\n        /* \"#utility.yul\":27077:27092   */\n      and\n        /* \"#utility.yul\":27067:27092   */\n      swap2\n      pop\n        /* \"#utility.yul\":26980:27098   */\n      pop\n        /* \"#utility.yul\":26929:27098   */\n      swap3\n      swap2\n      pop\n      pop\n      jump\t// out\n        /* \"#utility.yul\":27103:27398   */\n    tag_309:\n        /* \"#utility.yul\":27179:27183   */\n      0x00\n        /* \"#utility.yul\":27325:27354   */\n      tag_591\n        /* \"#utility.yul\":27350:27353   */\n      dup4\n        /* \"#utility.yul\":27344:27348   */\n      dup4\n        /* \"#utility.yul\":27325:27354   */\n      tag_308\n      jump\t// in\n    tag_591:\n        /* \"#utility.yul\":27317:27354   */\n      swap2\n      pop\n        /* \"#utility.yul\":27387:27390   */\n      dup3\n        /* \"#utility.yul\":27384:27385   */\n      0x02\n        /* \"#utility.yul\":27380:27391   */\n      mul\n        /* \"#utility.yul\":27374:27378   */\n      dup3\n        /* \"#utility.yul\":27371:27392   */\n      or\n        /* \"#utility.yul\":27363:27392   */\n      swap1\n      pop\n        /* \"#utility.yul\":27103:27398   */\n      swap3\n      swap2\n      pop\n      pop\n      jump\t// out\n        /* \"#utility.yul\":27403:28798   */\n    tag_134:\n        /* \"#utility.yul\":27520:27557   */\n      tag_593\n        /* \"#utility.yul\":27553:27556   */\n      dup3\n        /* \"#utility.yul\":27520:27557   */\n      tag_265\n      jump\t// in\n    tag_593:\n        /* \"#utility.yul\":27622:27640   */\n      0xffffffffffffffff\n        /* \"#utility.yul\":27614:27620   */\n      dup2\n        /* \"#utility.yul\":27611:27641   */\n      gt\n        /* \"#utility.yul\":27608:27664   */\n      iszero\n      tag_594\n      jumpi\n        /* \"#utility.yul\":27644:27662   */\n      tag_595\n      tag_244\n      jump\t// in\n    tag_595:\n        /* \"#utility.yul\":27608:27664   */\n    tag_594:\n        /* \"#utility.yul\":27688:27726   */\n      tag_596\n        /* \"#utility.yul\":27720:27724   */\n      dup3\n        /* \"#utility.yul\":27714:27725   */\n      sload\n        /* \"#utility.yul\":27688:27726   */\n      tag_212\n      jump\t// in\n    tag_596:\n        /* \"#utility.yul\":27773:27840   */\n      tag_597\n        /* \"#utility.yul\":27833:27839   */\n      dup3\n        /* \"#utility.yul\":27825:27831   */\n      dup3\n        /* \"#utility.yul\":27819:27823   */\n      dup6\n        /* \"#utility.yul\":27773:27840   */\n      tag_306\n      jump\t// in\n    tag_597:\n        /* \"#utility.yul\":27867:27868   */\n      0x00\n        /* \"#utility.yul\":27891:27895   */\n      0x20\n        /* \"#utility.yul\":27878:27895   */\n      swap1\n      pop\n        /* \"#utility.yul\":27923:27925   */\n      0x1f\n        /* \"#utility.yul\":27915:27921   */\n      dup4\n        /* \"#utility.yul\":27912:27926   */\n      gt\n        /* \"#utility.yul\":27940:27941   */\n      0x01\n        /* \"#utility.yul\":27935:28553   */\n      dup2\n      eq\n      tag_599\n      jumpi\n        /* \"#utility.yul\":28597:28598   */\n      0x00\n        /* \"#utility.yul\":28614:28620   */\n      dup5\n        /* \"#utility.yul\":28611:28688   */\n      iszero\n      tag_600\n      jumpi\n        /* \"#utility.yul\":28663:28672   */\n      dup3\n        /* \"#utility.yul\":28658:28661   */\n      dup8\n        /* \"#utility.yul\":28654:28673   */\n      add\n        /* \"#utility.yul\":28648:28674   */\n      mload\n        /* \"#utility.yul\":28639:28674   */\n      swap1\n      pop\n        /* \"#utility.yul\":28611:28688   */\n    tag_600:\n        /* \"#utility.yul\":28714:28781   */\n      tag_601\n        /* \"#utility.yul\":28774:28780   */\n      dup6\n        /* \"#utility.yul\":28767:28772   */\n      dup3\n        /* \"#utility.yul\":28714:28781   */\n      tag_309\n      jump\t// in\n    tag_601:\n        /* \"#utility.yul\":28708:28712   */\n      dup7\n        /* \"#utility.yul\":28701:28782   */\n      sstore\n        /* \"#utility.yul\":28570:28792   */\n      pop\n        /* \"#utility.yul\":27905:28792   */\n      jump(tag_598)\n        /* \"#utility.yul\":27935:28553   */\n    tag_599:\n        /* \"#utility.yul\":27987:27991   */\n      0x1f\n        /* \"#utility.yul\":27983:27992   */\n      not\n        /* \"#utility.yul\":27975:27981   */\n      dup5\n        /* \"#utility.yul\":27971:27993   */\n      and\n        /* \"#utility.yul\":28021:28058   */\n      tag_602\n        /* \"#utility.yul\":28053:28057   */\n      dup7\n        /* \"#utility.yul\":28021:28058   */\n      tag_295\n      jump\t// in\n    tag_602:\n        /* \"#utility.yul\":28080:28081   */\n      0x00\n        /* \"#utility.yul\":28094:28302   */\n    tag_603:\n        /* \"#utility.yul\":28108:28115   */\n      dup3\n        /* \"#utility.yul\":28105:28106   */\n      dup2\n        /* \"#utility.yul\":28102:28116   */\n      lt\n        /* \"#utility.yul\":28094:28302   */\n      iszero\n      tag_605\n      jumpi\n        /* \"#utility.yul\":28187:28196   */\n      dup5\n        /* \"#utility.yul\":28182:28185   */\n      dup10\n        /* \"#utility.yul\":28178:28197   */\n      add\n        /* \"#utility.yul\":28172:28198   */\n      mload\n        /* \"#utility.yul\":28164:28170   */\n      dup3\n        /* \"#utility.yul\":28157:28199   */\n      sstore\n        /* \"#utility.yul\":28238:28239   */\n      0x01\n        /* \"#utility.yul\":28230:28236   */\n      dup3\n        /* \"#utility.yul\":28226:28240   */\n      add\n        /* \"#utility.yul\":28216:28240   */\n      swap2\n      pop\n        /* \"#utility.yul\":28285:28287   */\n      0x20\n        /* \"#utility.yul\":28274:28283   */\n      dup6\n        /* \"#utility.yul\":28270:28288   */\n      add\n        /* \"#utility.yul\":28257:28288   */\n      swap5\n      pop\n        /* \"#utility.yul\":28131:28135   */\n      0x20\n        /* \"#utility.yul\":28128:28129   */\n      dup2\n        /* \"#utility.yul\":28124:28136   */\n      add\n        /* \"#utility.yul\":28119:28136   */\n      swap1\n      pop\n        /* \"#utility.yul\":28094:28302   */\n      jump(tag_603)\n    tag_605:\n        /* \"#utility.yul\":28330:28336   */\n      dup7\n        /* \"#utility.yul\":28321:28328   */\n      dup4\n        /* \"#utility.yul\":28318:28337   */\n      lt\n        /* \"#utility.yul\":28315:28494   */\n      iszero\n      tag_606\n      jumpi\n        /* \"#utility.yul\":28388:28397   */\n      dup5\n        /* \"#utility.yul\":28383:28386   */\n      dup10\n        /* \"#utility.yul\":28379:28398   */\n      add\n        /* \"#utility.yul\":28373:28399   */\n      mload\n        /* \"#utility.yul\":28431:28479   */\n      tag_607\n        /* \"#utility.yul\":28473:28477   */\n      0x1f\n        /* \"#utility.yul\":28465:28471   */\n      dup10\n        /* \"#utility.yul\":28461:28478   */\n      and\n        /* \"#utility.yul\":28450:28459   */\n      dup3\n        /* \"#utility.yul\":28431:28479   */\n      tag_308\n      jump\t// in\n    tag_607:\n        /* \"#utility.yul\":28423:28429   */\n      dup4\n        /* \"#utility.yul\":28416:28480   */\n      sstore\n        /* \"#utility.yul\":28338:28494   */\n      pop\n        /* \"#utility.yul\":28315:28494   */\n    tag_606:\n        /* \"#utility.yul\":28540:28541   */\n      0x01\n        /* \"#utility.yul\":28536:28537   */\n      0x02\n        /* \"#utility.yul\":28528:28534   */\n      dup9\n        /* \"#utility.yul\":28524:28538   */\n      mul\n        /* \"#utility.yul\":28520:28542   */\n      add\n        /* \"#utility.yul\":28514:28518   */\n      dup9\n        /* \"#utility.yul\":28507:28543   */\n      sstore\n        /* \"#utility.yul\":27942:28553   */\n      pop\n      pop\n      pop\n        /* \"#utility.yul\":27905:28792   */\n    tag_598:\n      pop\n        /* \"#utility.yul\":27495:28798   */\n      pop\n      pop\n      pop\n        /* \"#utility.yul\":27403:28798   */\n      pop\n      pop\n      jump\t// out\n        /* \"#utility.yul\":28804:28922   */\n    tag_310:\n        /* \"#utility.yul\":28891:28915   */\n      tag_609\n        /* \"#utility.yul\":28909:28914   */\n      dup2\n        /* \"#utility.yul\":28891:28915   */\n      tag_259\n      jump\t// in\n    tag_609:\n        /* \"#utility.yul\":28886:28889   */\n      dup3\n        /* \"#utility.yul\":28879:28916   */\n      mstore\n        /* \"#utility.yul\":28804:28922   */\n      pop\n      pop\n      jump\t// out\n        /* \"#utility.yul\":28928:29351   */\n    tag_139:\n        /* \"#utility.yul\":29069:29073   */\n      0x00\n        /* \"#utility.yul\":29107:29109   */\n      0x40\n        /* \"#utility.yul\":29096:29105   */\n      dup3\n        /* \"#utility.yul\":29092:29110   */\n      add\n        /* \"#utility.yul\":29084:29110   */\n      swap1\n      pop\n        /* \"#utility.yul\":29120:29191   */\n      tag_611\n        /* \"#utility.yul\":29188:29189   */\n      0x00\n        /* \"#utility.yul\":29177:29186   */\n      dup4\n        /* \"#utility.yul\":29173:29190   */\n      add\n        /* \"#utility.yul\":29164:29170   */\n      dup6\n        /* \"#utility.yul\":29120:29191   */\n      tag_310\n      jump\t// in\n    tag_611:\n        /* \"#utility.yul\":29238:29247   */\n      dup2\n        /* \"#utility.yul\":29232:29236   */\n      dup2\n        /* \"#utility.yul\":29228:29248   */\n      sub\n        /* \"#utility.yul\":29223:29225   */\n      0x20\n        /* \"#utility.yul\":29212:29221   */\n      dup4\n        /* \"#utility.yul\":29208:29226   */\n      add\n        /* \"#utility.yul\":29201:29249   */\n      mstore\n        /* \"#utility.yul\":29266:29344   */\n      tag_612\n        /* \"#utility.yul\":29339:29343   */\n      dup2\n        /* \"#utility.yul\":29330:29336   */\n      dup5\n        /* \"#utility.yul\":29266:29344   */\n      tag_291\n      jump\t// in\n    tag_612:\n        /* \"#utility.yul\":29258:29344   */\n      swap1\n      pop\n        /* \"#utility.yul\":28928:29351   */\n      swap4\n      swap3\n      pop\n      pop\n      pop\n      jump\t// out\n        /* \"#utility.yul\":29357:29536   */\n    tag_311:\n        /* \"#utility.yul\":29497:29528   */\n      0x77697468647261776e5f6661696c5f6e616d655f6e6f745f6578697374000000\n        /* \"#utility.yul\":29493:29494   */\n      0x00\n        /* \"#utility.yul\":29485:29491   */\n      dup3\n        /* \"#utility.yul\":29481:29495   */\n      add\n        /* \"#utility.yul\":29474:29529   */\n      mstore\n        /* \"#utility.yul\":29357:29536   */\n      pop\n      jump\t// out\n        /* \"#utility.yul\":29542:29908   */\n    tag_312:\n        /* \"#utility.yul\":29684:29687   */\n      0x00\n        /* \"#utility.yul\":29705:29772   */\n      tag_615\n        /* \"#utility.yul\":29769:29771   */\n      0x1d\n        /* \"#utility.yul\":29764:29767   */\n      dup4\n        /* \"#utility.yul\":29705:29772   */\n      tag_278\n      jump\t// in\n    tag_615:\n        /* \"#utility.yul\":29698:29772   */\n      swap2\n      pop\n        /* \"#utility.yul\":29781:29874   */\n      tag_616\n        /* \"#utility.yul\":29870:29873   */\n      dup3\n        /* \"#utility.yul\":29781:29874   */\n      tag_311\n      jump\t// in\n    tag_616:\n        /* \"#utility.yul\":29899:29901   */\n      0x20\n        /* \"#utility.yul\":29894:29897   */\n      dup3\n        /* \"#utility.yul\":29890:29902   */\n      add\n        /* \"#utility.yul\":29883:29902   */\n      swap1\n      pop\n        /* \"#utility.yul\":29542:29908   */\n      swap2\n      swap1\n      pop\n      jump\t// out\n        /* \"#utility.yul\":29914:30333   */\n    tag_144:\n        /* \"#utility.yul\":30080:30084   */\n      0x00\n        /* \"#utility.yul\":30118:30120   */\n      0x20\n        /* \"#utility.yul\":30107:30116   */\n      dup3\n        /* \"#utility.yul\":30103:30121   */\n      add\n        /* \"#utility.yul\":30095:30121   */\n      swap1\n      pop\n        /* \"#utility.yul\":30167:30176   */\n      dup2\n        /* \"#utility.yul\":30161:30165   */\n      dup2\n        /* \"#utility.yul\":30157:30177   */\n      sub\n        /* \"#utility.yul\":30153:30154   */\n      0x00\n        /* \"#utility.yul\":30142:30151   */\n      dup4\n        /* \"#utility.yul\":30138:30155   */\n      add\n        /* \"#utility.yul\":30131:30178   */\n      mstore\n        /* \"#utility.yul\":30195:30326   */\n      tag_618\n        /* \"#utility.yul\":30321:30325   */\n      dup2\n        /* \"#utility.yul\":30195:30326   */\n      tag_312\n      jump\t// in\n    tag_618:\n        /* \"#utility.yul\":30187:30326   */\n      swap1\n      pop\n        /* \"#utility.yul\":29914:30333   */\n      swap2\n      swap1\n      pop\n      jump\t// out\n        /* \"#utility.yul\":30339:30513   */\n    tag_313:\n        /* \"#utility.yul\":30479:30505   */\n      0x77697468647261776e5f6661696c5f6e6f745f6f776e65720000000000000000\n        /* \"#utility.yul\":30475:30476   */\n      0x00\n        /* \"#utility.yul\":30467:30473   */\n      dup3\n        /* \"#utility.yul\":30463:30477   */\n      add\n        /* \"#utility.yul\":30456:30506   */\n      mstore\n        /* \"#utility.yul\":30339:30513   */\n      pop\n      jump\t// out\n        /* \"#utility.yul\":30519:30885   */\n    tag_314:\n        /* \"#utility.yul\":30661:30664   */\n      0x00\n        /* \"#utility.yul\":30682:30749   */\n      tag_621\n        /* \"#utility.yul\":30746:30748   */\n      0x18\n        /* \"#utility.yul\":30741:30744   */\n      dup4\n        /* \"#utility.yul\":30682:30749   */\n      tag_278\n      jump\t// in\n    tag_621:\n        /* \"#utility.yul\":30675:30749   */\n      swap2\n      pop\n        /* \"#utility.yul\":30758:30851   */\n      tag_622\n        /* \"#utility.yul\":30847:30850   */\n      dup3\n        /* \"#utility.yul\":30758:30851   */\n      tag_313\n      jump\t// in\n    tag_622:\n        /* \"#utility.yul\":30876:30878   */\n      0x20\n        /* \"#utility.yul\":30871:30874   */\n      dup3\n        /* \"#utility.yul\":30867:30879   */\n      add\n        /* \"#utility.yul\":30860:30879   */\n      swap1\n      pop\n        /* \"#utility.yul\":30519:30885   */\n      swap2\n      swap1\n      pop\n      jump\t// out\n        /* \"#utility.yul\":30891:31310   */\n    tag_148:\n        /* \"#utility.yul\":31057:31061   */\n      0x00\n        /* \"#utility.yul\":31095:31097   */\n      0x20\n        /* \"#utility.yul\":31084:31093   */\n      dup3\n        /* \"#utility.yul\":31080:31098   */\n      add\n        /* \"#utility.yul\":31072:31098   */\n      swap1\n      pop\n        /* \"#utility.yul\":31144:31153   */\n      dup2\n        /* \"#utility.yul\":31138:31142   */\n      dup2\n        /* \"#utility.yul\":31134:31154   */\n      sub\n        /* \"#utility.yul\":31130:31131   */\n      0x00\n        /* \"#utility.yul\":31119:31128   */\n      dup4\n        /* \"#utility.yul\":31115:31132   */\n      add\n        /* \"#utility.yul\":31108:31155   */\n      mstore\n        /* \"#utility.yul\":31172:31303   */\n      tag_624\n        /* \"#utility.yul\":31298:31302   */\n      dup2\n        /* \"#utility.yul\":31172:31303   */\n      tag_314\n      jump\t// in\n    tag_624:\n        /* \"#utility.yul\":31164:31303   */\n      swap1\n      pop\n        /* \"#utility.yul\":30891:31310   */\n      swap2\n      swap1\n      pop\n      jump\t// out\n        /* \"#utility.yul\":31316:31491   */\n    tag_315:\n        /* \"#utility.yul\":31456:31483   */\n      0x77697468647261776e5f6661696c5f76616c75655f7a65726f00000000000000\n        /* \"#utility.yul\":31452:31453   */\n      0x00\n        /* \"#utility.yul\":31444:31450   */\n      dup3\n        /* \"#utility.yul\":31440:31454   */\n      add\n        /* \"#utility.yul\":31433:31484   */\n      mstore\n        /* \"#utility.yul\":31316:31491   */\n      pop\n      jump\t// out\n        /* \"#utility.yul\":31497:31863   */\n    tag_316:\n        /* \"#utility.yul\":31639:31642   */\n      0x00\n        /* \"#utility.yul\":31660:31727   */\n      tag_627\n        /* \"#utility.yul\":31724:31726   */\n      0x19\n        /* \"#utility.yul\":31719:31722   */\n      dup4\n        /* \"#utility.yul\":31660:31727   */\n      tag_278\n      jump\t// in\n    tag_627:\n        /* \"#utility.yul\":31653:31727   */\n      swap2\n      pop\n        /* \"#utility.yul\":31736:31829   */\n      tag_628\n        /* \"#utility.yul\":31825:31828   */\n      dup3\n        /* \"#utility.yul\":31736:31829   */\n      tag_315\n      jump\t// in\n    tag_628:\n        /* \"#utility.yul\":31854:31856   */\n      0x20\n        /* \"#utility.yul\":31849:31852   */\n      dup3\n        /* \"#utility.yul\":31845:31857   */\n      add\n        /* \"#utility.yul\":31838:31857   */\n      swap1\n      pop\n        /* \"#utility.yul\":31497:31863   */\n      swap2\n      swap1\n      pop\n      jump\t// out\n        /* \"#utility.yul\":31869:32288   */\n    tag_151:\n        /* \"#utility.yul\":32035:32039   */\n      0x00\n        /* \"#utility.yul\":32073:32075   */\n      0x20\n        /* \"#utility.yul\":32062:32071   */\n      dup3\n        /* \"#utility.yul\":32058:32076   */\n      add\n        /* \"#utility.yul\":32050:32076   */\n      swap1\n      pop\n        /* \"#utility.yul\":32122:32131   */\n      dup2\n        /* \"#utility.yul\":32116:32120   */\n      dup2\n        /* \"#utility.yul\":32112:32132   */\n      sub\n        /* \"#utility.yul\":32108:32109   */\n      0x00\n        /* \"#utility.yul\":32097:32106   */\n      dup4\n        /* \"#utility.yul\":32093:32110   */\n      add\n        /* \"#utility.yul\":32086:32133   */\n      mstore\n        /* \"#utility.yul\":32150:32281   */\n      tag_630\n        /* \"#utility.yul\":32276:32280   */\n      dup2\n        /* \"#utility.yul\":32150:32281   */\n      tag_316\n      jump\t// in\n    tag_630:\n        /* \"#utility.yul\":32142:32281   */\n      swap1\n      pop\n        /* \"#utility.yul\":31869:32288   */\n      swap2\n      swap1\n      pop\n      jump\t// out\n        /* \"#utility.yul\":32294:32514   */\n    tag_317:\n        /* \"#utility.yul\":32434:32468   */\n      0x77697468647261776e5f6661696c5f62616c616e63655f6e6f745f656e6f7567\n        /* \"#utility.yul\":32430:32431   */\n      0x00\n        /* \"#utility.yul\":32422:32428   */\n      dup3\n        /* \"#utility.yul\":32418:32432   */\n      add\n        /* \"#utility.yul\":32411:32469   */\n      mstore\n        /* \"#utility.yul\":32503:32506   */\n      0x6800000000000000000000000000000000000000000000000000000000000000\n        /* \"#utility.yul\":32498:32500   */\n      0x20\n        /* \"#utility.yul\":32490:32496   */\n      dup3\n        /* \"#utility.yul\":32486:32501   */\n      add\n        /* \"#utility.yul\":32479:32507   */\n      mstore\n        /* \"#utility.yul\":32294:32514   */\n      pop\n      jump\t// out\n        /* \"#utility.yul\":32520:32886   */\n    tag_318:\n        /* \"#utility.yul\":32662:32665   */\n      0x00\n        /* \"#utility.yul\":32683:32750   */\n      tag_633\n        /* \"#utility.yul\":32747:32749   */\n      0x21\n        /* \"#utility.yul\":32742:32745   */\n      dup4\n        /* \"#utility.yul\":32683:32750   */\n      tag_278\n      jump\t// in\n    tag_633:\n        /* \"#utility.yul\":32676:32750   */\n      swap2\n      pop\n        /* \"#utility.yul\":32759:32852   */\n      tag_634\n        /* \"#utility.yul\":32848:32851   */\n      dup3\n        /* \"#utility.yul\":32759:32852   */\n      tag_317\n      jump\t// in\n    tag_634:\n        /* \"#utility.yul\":32877:32879   */\n      0x40\n        /* \"#utility.yul\":32872:32875   */\n      dup3\n        /* \"#utility.yul\":32868:32880   */\n      add\n        /* \"#utility.yul\":32861:32880   */\n      swap1\n      pop\n        /* \"#utility.yul\":32520:32886   */\n      swap2\n      swap1\n      pop\n      jump\t// out\n        /* \"#utility.yul\":32892:33311   */\n    tag_155:\n        /* \"#utility.yul\":33058:33062   */\n      0x00\n        /* \"#utility.yul\":33096:33098   */\n      0x20\n        /* \"#utility.yul\":33085:33094   */\n      dup3\n        /* \"#utility.yul\":33081:33099   */\n      add\n        /* \"#utility.yul\":33073:33099   */\n      swap1\n      pop\n        /* \"#utility.yul\":33145:33154   */\n      dup2\n        /* \"#utility.yul\":33139:33143   */\n      dup2\n        /* \"#utility.yul\":33135:33155   */\n      sub\n        /* \"#utility.yul\":33131:33132   */\n      0x00\n        /* \"#utility.yul\":33120:33129   */\n      dup4\n        /* \"#utility.yul\":33116:33133   */\n      add\n        /* \"#utility.yul\":33109:33156   */\n      mstore\n        /* \"#utility.yul\":33173:33304   */\n      tag_636\n        /* \"#utility.yul\":33299:33303   */\n      dup2\n        /* \"#utility.yul\":33173:33304   */\n      tag_318\n      jump\t// in\n    tag_636:\n        /* \"#utility.yul\":33165:33304   */\n      swap1\n      pop\n        /* \"#utility.yul\":32892:33311   */\n      swap2\n      swap1\n      pop\n      jump\t// out\n        /* \"#utility.yul\":33317:33850   */\n    tag_161:\n        /* \"#utility.yul\":33486:33490   */\n      0x00\n        /* \"#utility.yul\":33524:33526   */\n      0x60\n        /* \"#utility.yul\":33513:33522   */\n      dup3\n        /* \"#utility.yul\":33509:33527   */\n      add\n        /* \"#utility.yul\":33501:33527   */\n      swap1\n      pop\n        /* \"#utility.yul\":33573:33582   */\n      dup2\n        /* \"#utility.yul\":33567:33571   */\n      dup2\n        /* \"#utility.yul\":33563:33583   */\n      sub\n        /* \"#utility.yul\":33559:33560   */\n      0x00\n        /* \"#utility.yul\":33548:33557   */\n      dup4\n        /* \"#utility.yul\":33544:33561   */\n      add\n        /* \"#utility.yul\":33537:33584   */\n      mstore\n        /* \"#utility.yul\":33601:33679   */\n      tag_638\n        /* \"#utility.yul\":33674:33678   */\n      dup2\n        /* \"#utility.yul\":33665:33671   */\n      dup7\n        /* \"#utility.yul\":33601:33679   */\n      tag_291\n      jump\t// in\n    tag_638:\n        /* \"#utility.yul\":33593:33679   */\n      swap1\n      pop\n        /* \"#utility.yul\":33689:33761   */\n      tag_639\n        /* \"#utility.yul\":33757:33759   */\n      0x20\n        /* \"#utility.yul\":33746:33755   */\n      dup4\n        /* \"#utility.yul\":33742:33760   */\n      add\n        /* \"#utility.yul\":33733:33739   */\n      dup6\n        /* \"#utility.yul\":33689:33761   */\n      tag_310\n      jump\t// in\n    tag_639:\n        /* \"#utility.yul\":33771:33843   */\n      tag_640\n        /* \"#utility.yul\":33839:33841   */\n      0x40\n        /* \"#utility.yul\":33828:33837   */\n      dup4\n        /* \"#utility.yul\":33824:33842   */\n      add\n        /* \"#utility.yul\":33815:33821   */\n      dup5\n        /* \"#utility.yul\":33771:33843   */\n      tag_272\n      jump\t// in\n    tag_640:\n        /* \"#utility.yul\":33317:33850   */\n      swap5\n      swap4\n      pop\n      pop\n      pop\n      pop\n      jump\t// out\n        /* \"#utility.yul\":33856:34033   */\n    tag_319:\n        /* \"#utility.yul\":33996:34025   */\n      0x6465706f7369745f6661696c5f6e616d655f6e6f745f65786973740000000000\n        /* \"#utility.yul\":33992:33993   */\n      0x00\n        /* \"#utility.yul\":33984:33990   */\n      dup3\n        /* \"#utility.yul\":33980:33994   */\n      add\n        /* \"#utility.yul\":33973:34026   */\n      mstore\n        /* \"#utility.yul\":33856:34033   */\n      pop\n      jump\t// out\n        /* \"#utility.yul\":34039:34405   */\n    tag_320:\n        /* \"#utility.yul\":34181:34184   */\n      0x00\n        /* \"#utility.yul\":34202:34269   */\n      tag_643\n        /* \"#utility.yul\":34266:34268   */\n      0x1b\n        /* \"#utility.yul\":34261:34264   */\n      dup4\n        /* \"#utility.yul\":34202:34269   */\n      tag_278\n      jump\t// in\n    tag_643:\n        /* \"#utility.yul\":34195:34269   */\n      swap2\n      pop\n        /* \"#utility.yul\":34278:34371   */\n      tag_644\n        /* \"#utility.yul\":34367:34370   */\n      dup3\n        /* \"#utility.yul\":34278:34371   */\n      tag_319\n      jump\t// in\n    tag_644:\n        /* \"#utility.yul\":34396:34398   */\n      0x20\n        /* \"#utility.yul\":34391:34394   */\n      dup3\n        /* \"#utility.yul\":34387:34399   */\n      add\n        /* \"#utility.yul\":34380:34399   */\n      swap1\n      pop\n        /* \"#utility.yul\":34039:34405   */\n      swap2\n      swap1\n      pop\n      jump\t// out\n        /* \"#utility.yul\":34411:34830   */\n    tag_199:\n        /* \"#utility.yul\":34577:34581   */\n      0x00\n        /* \"#utility.yul\":34615:34617   */\n      0x20\n        /* \"#utility.yul\":34604:34613   */\n      dup3\n        /* \"#utility.yul\":34600:34618   */\n      add\n        /* \"#utility.yul\":34592:34618   */\n      swap1\n      pop\n        /* \"#utility.yul\":34664:34673   */\n      dup2\n        /* \"#utility.yul\":34658:34662   */\n      dup2\n        /* \"#utility.yul\":34654:34674   */\n      sub\n        /* \"#utility.yul\":34650:34651   */\n      0x00\n        /* \"#utility.yul\":34639:34648   */\n      dup4\n        /* \"#utility.yul\":34635:34652   */\n      add\n        /* \"#utility.yul\":34628:34675   */\n      mstore\n        /* \"#utility.yul\":34692:34823   */\n      tag_646\n        /* \"#utility.yul\":34818:34822   */\n      dup2\n        /* \"#utility.yul\":34692:34823   */\n      tag_320\n      jump\t// in\n    tag_646:\n        /* \"#utility.yul\":34684:34823   */\n      swap1\n      pop\n        /* \"#utility.yul\":34411:34830   */\n      swap2\n      swap1\n      pop\n      jump\t// out\n        /* \"#utility.yul\":34836:35009   */\n    tag_321:\n        /* \"#utility.yul\":34976:35001   */\n      0x6465706f7369745f6661696c5f76616c75655f7a65726f000000000000000000\n        /* \"#utility.yul\":34972:34973   */\n      0x00\n        /* \"#utility.yul\":34964:34970   */\n      dup3\n        /* \"#utility.yul\":34960:34974   */\n      add\n        /* \"#utility.yul\":34953:35002   */\n      mstore\n        /* \"#utility.yul\":34836:35009   */\n      pop\n      jump\t// out\n        /* \"#utility.yul\":35015:35381   */\n    tag_322:\n        /* \"#utility.yul\":35157:35160   */\n      0x00\n        /* \"#utility.yul\":35178:35245   */\n      tag_649\n        /* \"#utility.yul\":35242:35244   */\n      0x17\n        /* \"#utility.yul\":35237:35240   */\n      dup4\n        /* \"#utility.yul\":35178:35245   */\n      tag_278\n      jump\t// in\n    tag_649:\n        /* \"#utility.yul\":35171:35245   */\n      swap2\n      pop\n        /* \"#utility.yul\":35254:35347   */\n      tag_650\n        /* \"#utility.yul\":35343:35346   */\n      dup3\n        /* \"#utility.yul\":35254:35347   */\n      tag_321\n      jump\t// in\n    tag_650:\n        /* \"#utility.yul\":35372:35374   */\n      0x20\n        /* \"#utility.yul\":35367:35370   */\n      dup3\n        /* \"#utility.yul\":35363:35375   */\n      add\n        /* \"#utility.yul\":35356:35375   */\n      swap1\n      pop\n        /* \"#utility.yul\":35015:35381   */\n      swap2\n      swap1\n      pop\n      jump\t// out\n        /* \"#utility.yul\":35387:35806   */\n    tag_202:\n        /* \"#utility.yul\":35553:35557   */\n      0x00\n        /* \"#utility.yul\":35591:35593   */\n      0x20\n        /* \"#utility.yul\":35580:35589   */\n      dup3\n        /* \"#utility.yul\":35576:35594   */\n      add\n        /* \"#utility.yul\":35568:35594   */\n      swap1\n      pop\n        /* \"#utility.yul\":35640:35649   */\n      dup2\n        /* \"#utility.yul\":35634:35638   */\n      dup2\n        /* \"#utility.yul\":35630:35650   */\n      sub\n        /* \"#utility.yul\":35626:35627   */\n      0x00\n        /* \"#utility.yul\":35615:35624   */\n      dup4\n        /* \"#utility.yul\":35611:35628   */\n      add\n        /* \"#utility.yul\":35604:35651   */\n      mstore\n        /* \"#utility.yul\":35668:35799   */\n      tag_652\n        /* \"#utility.yul\":35794:35798   */\n      dup2\n        /* \"#utility.yul\":35668:35799   */\n      tag_322\n      jump\t// in\n    tag_652:\n        /* \"#utility.yul\":35660:35799   */\n      swap1\n      pop\n        /* \"#utility.yul\":35387:35806   */\n      swap2\n      swap1\n      pop\n      jump\t// out\n        /* \"#utility.yul\":35812:36345   */\n    tag_206:\n        /* \"#utility.yul\":35981:35985   */\n      0x00\n        /* \"#utility.yul\":36019:36021   */\n      0x60\n        /* \"#utility.yul\":36008:36017   */\n      dup3\n        /* \"#utility.yul\":36004:36022   */\n      add\n        /* \"#utility.yul\":35996:36022   */\n      swap1\n      pop\n        /* \"#utility.yul\":36032:36103   */\n      tag_654\n        /* \"#utility.yul\":36100:36101   */\n      0x00\n        /* \"#utility.yul\":36089:36098   */\n      dup4\n        /* \"#utility.yul\":36085:36102   */\n      add\n        /* \"#utility.yul\":36076:36082   */\n      dup7\n        /* \"#utility.yul\":36032:36103   */\n      tag_310\n      jump\t// in\n    tag_654:\n        /* \"#utility.yul\":36150:36159   */\n      dup2\n        /* \"#utility.yul\":36144:36148   */\n      dup2\n        /* \"#utility.yul\":36140:36160   */\n      sub\n        /* \"#utility.yul\":36135:36137   */\n      0x20\n        /* \"#utility.yul\":36124:36133   */\n      dup4\n        /* \"#utility.yul\":36120:36138   */\n      add\n        /* \"#utility.yul\":36113:36161   */\n      mstore\n        /* \"#utility.yul\":36178:36256   */\n      tag_655\n        /* \"#utility.yul\":36251:36255   */\n      dup2\n        /* \"#utility.yul\":36242:36248   */\n      dup6\n        /* \"#utility.yul\":36178:36256   */\n      tag_291\n      jump\t// in\n    tag_655:\n        /* \"#utility.yul\":36170:36256   */\n      swap1\n      pop\n        /* \"#utility.yul\":36266:36338   */\n      tag_656\n        /* \"#utility.yul\":36334:36336   */\n      0x40\n        /* \"#utility.yul\":36323:36332   */\n      dup4\n        /* \"#utility.yul\":36319:36337   */\n      add\n        /* \"#utility.yul\":36310:36316   */\n      dup5\n        /* \"#utility.yul\":36266:36338   */\n      tag_272\n      jump\t// in\n    tag_656:\n        /* \"#utility.yul\":35812:36345   */\n      swap5\n      swap4\n      pop\n      pop\n      pop\n      pop\n      jump\t// out\n\n    auxdata: 0xa2646970667358221220357812df67b056f22873b8f74c8d13e790ab06e5b6cb28a26296533b6ee8c70164736f6c634300080f0033\n}\n",
				"bytecode": {
					"linkReferences": {},
					"object": "608060405234801561001057600080fd5b50336000806101000a81548173ffffffffffffffffffffffffffffffffffffffff021916908373ffffffffffffffffffffffffffffffffffffffff16021790555060006001819055506129d3806100686000396000f3fe6080604052600436106100865760003560e01c8063a26e118611610059578063a26e11861461012f578063ad872a861461014b578063ca1ae01c14610188578063df4734ed146101c5578063f8a0e8c31461020257610086565b806316dfc5b21461008b5780632ad26a04146100b4578063358eecb6146100dd5780635e34581014610106575b600080fd5b34801561009757600080fd5b506100b260048036038101906100ad91906118f7565b61022b565b005b3480156100c057600080fd5b506100db60048036038101906100d69190611982565b610811565b005b3480156100e957600080fd5b5061010460048036038101906100ff91906119cb565b610a22565b005b34801561011257600080fd5b5061012d60048036038101906101289190611a27565b610ca7565b005b61014960048036038101906101449190611982565b611139565b005b34801561015757600080fd5b50610172600480360381019061016d9190611b10565b611264565b60405161017f9190611c87565b60405180910390f35b34801561019457600080fd5b506101af60048036038101906101aa9190611982565b61137c565b6040516101bc9190611cb8565b60405180910390f35b3480156101d157600080fd5b506101ec60048036038101906101e79190611982565b6113a7565b6040516101f99190611d41565b60405180910390f35b34801561020e57600080fd5b5061022960048036038101906102249190611d63565b6114d1565b005b6001151560048460405161023f9190611dcc565b908152602001604051809103902060009054906101000a900460ff1615151461029d576040517f08c379a000000000000000000000000000000000000000000000000000000000815260040161029490611e66565b60405180910390fd5b3373ffffffffffffffffffffffffffffffffffffffff166003846040516102c49190611dcc565b908152602001604051809103902060000160009054906101000a900473ffffffffffffffffffffffffffffffffffffffff1673ffffffffffffffffffffffffffffffffffffffff161461034c576040517f08c379a000000000000000000000000000000000000000000000000000000000815260040161034390611ed2565b60405180910390fd5b6064811015610390576040517f08c379a000000000000000000000000000000000000000000000000000000000815260040161038790611f64565b60405180910390fd5b81518161039d9190611fb3565b6003846040516103ad9190611dcc565b9081526020016040518091039020600201541015610400576040517f08c379a00000000000000000000000000000000000000000000000000000000081526004016103f79061207f565b60405180910390fd5b60005b825181101561080b576001151560048483815181106104255761042461209f565b5b602002602001015160405161043a9190611dcc565b908152602001604051809103902060009054906101000a900460ff16151514610498576040517f08c379a000000000000000000000000000000000000000000000000000000000815260040161048f9061211a565b60405180910390fd5b60038382815181106104ad576104ac61209f565b5b60200260200101516040516104c29190611dcc565b908152602001604051809103902060000160009054906101000a900473ffffffffffffffffffffffffffffffffffffffff1673ffffffffffffffffffffffffffffffffffffffff1660038560405161051a9190611dcc565b908152602001604051809103902060000160009054906101000a900473ffffffffffffffffffffffffffffffffffffffff1673ffffffffffffffffffffffffffffffffffffffff1614610718576001151560048483815181106105805761057f61209f565b5b60200260200101516040516105959190611dcc565b908152602001604051809103902060009054906101000a900460ff161515146105f3576040517f08c379a00000000000000000000000000000000000000000000000000000000081526004016105ea9061211a565b60405180910390fd5b60006064836106029190612169565b90508060016000828254610616919061219a565b925050819055508260038660405161062e9190611dcc565b9081526020016040518091039020600201600082825461064e91906121f0565b92505081905550808361066191906121f0565b60038584815181106106765761067561209f565b5b602002602001015160405161068b9190611dcc565b908152602001604051809103902060020160008282546106ab919061219a565b925050819055507f370044a47246afacf081fd58c8468a6482ebc8673d418e785b8d0492240f95de858584815181106106e7576106e661209f565b5b602002602001015183866106fb91906121f0565b60405161070a9392919061225d565b60405180910390a1506107f8565b816003856040516107299190611dcc565b9081526020016040518091039020600201600082825461074991906121f0565b925050819055508160038483815181106107665761076561209f565b5b602002602001015160405161077b9190611dcc565b9081526020016040518091039020600201600082825461079b919061219a565b925050819055507f370044a47246afacf081fd58c8468a6482ebc8673d418e785b8d0492240f95de848483815181106107d7576107d661209f565b5b6020026020010151846040516107ef9392919061225d565b60405180910390a15b8080610803906122a2565b915050610403565b50505050565b600015156004826040516108259190611dcc565b908152602001604051809103902060009054906101000a900460ff16151514610883576040517f08c379a000000000000000000000000000000000000000000000000000000000815260040161087a90612336565b60405180910390fd5b60405180606001604052803373ffffffffffffffffffffffffffffffffffffffff16815260200182815260200160008152506003826040516108c59190611dcc565b908152602001604051809103902060008201518160000160006101000a81548173ffffffffffffffffffffffffffffffffffffffff021916908373ffffffffffffffffffffffffffffffffffffffff160217905550602082015181600101908161092f9190612562565b5060408201518160020155905050600260003373ffffffffffffffffffffffffffffffffffffffff1673ffffffffffffffffffffffffffffffffffffffff168152602001908152602001600020819080600181540180825580915050600190039060005260206000200160009091909190915090816109ae9190612562565b5060016004826040516109c19190611dcc565b908152602001604051809103902060006101000a81548160ff0219169083151502179055507fb4833c10b628b390dd18880f97a54f11eae38c84eb68171f9a11b0fd7855fadf3382604051610a17929190612643565b60405180910390a150565b60011515600483604051610a369190611dcc565b908152602001604051809103902060009054906101000a900460ff16151514610a94576040517f08c379a0000000000000000000000000000000000000000000000000000000008152600401610a8b906126bf565b60405180910390fd5b3373ffffffffffffffffffffffffffffffffffffffff16600383604051610abb9190611dcc565b908152602001604051809103902060000160009054906101000a900473ffffffffffffffffffffffffffffffffffffffff1673ffffffffffffffffffffffffffffffffffffffff1614610b43576040517f08c379a0000000000000000000000000000000000000000000000000000000008152600401610b3a9061272b565b60405180910390fd5b60008111610b86576040517f08c379a0000000000000000000000000000000000000000000000000000000008152600401610b7d90612797565b60405180910390fd5b80600383604051610b979190611dcc565b9081526020016040518091039020600201541015610bea576040517f08c379a0000000000000000000000000000000000000000000000000000000008152600401610be190612829565b60405180910390fd5b80600383604051610bfb9190611dcc565b90815260200160405180910390206002016000828254610c1b91906121f0565b925050819055503373ffffffffffffffffffffffffffffffffffffffff166108fc829081150290604051600060405180830381858888f19350505050158015610c68573d6000803e3d6000fd5b507ef571bb39287f8941696401f5b5a1666ee251efbf23412140fbddce841655d9823383604051610c9b93929190612849565b60405180910390a15050565b60011515600484604051610cbb9190611dcc565b908152602001604051809103902060009054906101000a900460ff16151514610d19576040517f08c379a0000000000000000000000000000000000000000000000000000000008152600401610d1090611e66565b60405180910390fd5b60011515600483604051610d2d9190611dcc565b908152602001604051809103902060009054906101000a900460ff16151514610d8b576040517f08c379a0000000000000000000000000000000000000000000000000000000008152600401610d829061211a565b60405180910390fd5b3373ffffffffffffffffffffffffffffffffffffffff16600384604051610db29190611dcc565b908152602001604051809103902060000160009054906101000a900473ffffffffffffffffffffffffffffffffffffffff1673ffffffffffffffffffffffffffffffffffffffff1614610e3a576040517f08c379a0000000000000000000000000000000000000000000000000000000008152600401610e3190611ed2565b60405180910390fd5b6064811015610e7e576040517f08c379a0000000000000000000000000000000000000000000000000000000008152600401610e7590611f64565b60405180910390fd5b80600384604051610e8f9190611dcc565b9081526020016040518091039020600201541015610ee2576040517f08c379a0000000000000000000000000000000000000000000000000000000008152600401610ed99061207f565b60405180910390fd5b600382604051610ef29190611dcc565b908152602001604051809103902060000160009054906101000a900473ffffffffffffffffffffffffffffffffffffffff1673ffffffffffffffffffffffffffffffffffffffff16600384604051610f4a9190611dcc565b908152602001604051809103902060000160009054906101000a900473ffffffffffffffffffffffffffffffffffffffff1673ffffffffffffffffffffffffffffffffffffffff1614611088576000606482610fa69190612169565b90508060016000828254610fba919061219a565b9250508190555081600385604051610fd29190611dcc565b90815260200160405180910390206002016000828254610ff291906121f0565b92505081905550808261100591906121f0565b6003846040516110159190611dcc565b90815260200160405180910390206002016000828254611035919061219a565b925050819055507f370044a47246afacf081fd58c8468a6482ebc8673d418e785b8d0492240f95de8484838561106b91906121f0565b60405161107a9392919061225d565b60405180910390a150611134565b806003846040516110999190611dcc565b908152602001604051809103902060020160008282546110b991906121f0565b92505081905550806003836040516110d19190611dcc565b908152602001604051809103902060020160008282546110f1919061219a565b925050819055507f370044a47246afacf081fd58c8468a6482ebc8673d418e785b8d0492240f95de83838360405161112b9392919061225d565b60405180910390a15b505050565b6001151560048260405161114d9190611dcc565b908152602001604051809103902060009054906101000a900460ff161515146111ab576040517f08c379a00000000000000000000000000000000000000000000000000000000081526004016111a2906128d3565b60405180910390fd5b600034116111ee576040517f08c379a00000000000000000000000000000000000000000000000000000000081526004016111e59061293f565b60405180910390fd5b346003826040516111ff9190611dcc565b9081526020016040518091039020600201600082825461121f919061219a565b925050819055507f03e0b25ba1ab101c1d9112766101bb987f00f29a37a44b4a0813ed489a4f3ffa3382346040516112599392919061295f565b60405180910390a150565b6060600260008373ffffffffffffffffffffffffffffffffffffffff1673ffffffffffffffffffffffffffffffffffffffff168152602001908152602001600020805480602002602001604051908101604052809291908181526020016000905b828210156113715783829060005260206000200180546112e490612385565b80601f016020809104026020016040519081016040528092919081815260200182805461131090612385565b801561135d5780601f106113325761010080835404028352916020019161135d565b820191906000526020600020905b81548152906001019060200180831161134057829003601f168201915b5050505050815260200190600101906112c5565b505050509050919050565b600060038260405161138e9190611dcc565b9081526020016040518091039020600201549050919050565b6113af61164a565b6003826040516113bf9190611dcc565b90815260200160405180910390206040518060600160405290816000820160009054906101000a900473ffffffffffffffffffffffffffffffffffffffff1673ffffffffffffffffffffffffffffffffffffffff1673ffffffffffffffffffffffffffffffffffffffff16815260200160018201805461143e90612385565b80601f016020809104026020016040519081016040528092919081815260200182805461146a90612385565b80156114b75780601f1061148c576101008083540402835291602001916114b7565b820191906000526020600020905b81548152906001019060200180831161149a57829003601f168201915b505050505081526020016002820154815250509050919050565b3373ffffffffffffffffffffffffffffffffffffffff1660008054906101000a900473ffffffffffffffffffffffffffffffffffffffff1673ffffffffffffffffffffffffffffffffffffffff161461155f576040517f08c379a00000000000000000000000000000000000000000000000000000000081526004016115569061272b565b60405180910390fd5b600081116115a2576040517f08c379a000000000000000000000000000000000000000000000000000000000815260040161159990612797565b60405180910390fd5b8060015410156115e7576040517f08c379a00000000000000000000000000000000000000000000000000000000081526004016115de90612829565b60405180910390fd5b80600160008282546115f991906121f0565b925050819055503373ffffffffffffffffffffffffffffffffffffffff166108fc829081150290604051600060405180830381858888f19350505050158015611646573d6000803e3d6000fd5b5050565b6040518060600160405280600073ffffffffffffffffffffffffffffffffffffffff16815260200160608152602001600081525090565b6000604051905090565b600080fd5b600080fd5b600080fd5b600080fd5b6000601f19601f8301169050919050565b7f4e487b7100000000000000000000000000000000000000000000000000000000600052604160045260246000fd5b6116e88261169f565b810181811067ffffffffffffffff82111715611707576117066116b0565b5b80604052505050565b600061171a611681565b905061172682826116df565b919050565b600067ffffffffffffffff821115611746576117456116b0565b5b61174f8261169f565b9050602081019050919050565b82818337600083830152505050565b600061177e6117798461172b565b611710565b90508281526020810184848401111561179a5761179961169a565b5b6117a584828561175c565b509392505050565b600082601f8301126117c2576117c1611695565b5b81356117d284826020860161176b565b91505092915050565b600067ffffffffffffffff8211156117f6576117f56116b0565b5b602082029050602081019050919050565b600080fd5b600061181f61181a846117db565b611710565b9050808382526020820190506020840283018581111561184257611841611807565b5b835b8181101561188957803567ffffffffffffffff81111561186757611866611695565b5b80860161187489826117ad565b85526020850194505050602081019050611844565b5050509392505050565b600082601f8301126118a8576118a7611695565b5b81356118b884826020860161180c565b91505092915050565b6000819050919050565b6118d4816118c1565b81146118df57600080fd5b50565b6000813590506118f1816118cb565b92915050565b6000806000606084860312156119105761190f61168b565b5b600084013567ffffffffffffffff81111561192e5761192d611690565b5b61193a868287016117ad565b935050602084013567ffffffffffffffff81111561195b5761195a611690565b5b61196786828701611893565b9250506040611978868287016118e2565b9150509250925092565b6000602082840312156119985761199761168b565b5b600082013567ffffffffffffffff8111156119b6576119b5611690565b5b6119c2848285016117ad565b91505092915050565b600080604083850312156119e2576119e161168b565b5b600083013567ffffffffffffffff811115611a00576119ff611690565b5b611a0c858286016117ad565b9250506020611a1d858286016118e2565b9150509250929050565b600080600060608486031215611a4057611a3f61168b565b5b600084013567ffffffffffffffff811115611a5e57611a5d611690565b5b611a6a868287016117ad565b935050602084013567ffffffffffffffff811115611a8b57611a8a611690565b5b611a97868287016117ad565b9250506040611aa8868287016118e2565b9150509250925092565b600073ffffffffffffffffffffffffffffffffffffffff82169050919050565b6000611add82611ab2565b9050919050565b611aed81611ad2565b8114611af857600080fd5b50565b600081359050611b0a81611ae4565b92915050565b600060208284031215611b2657611b2561168b565b5b6000611b3484828501611afb565b91505092915050565b600081519050919050565b600082825260208201905092915050565b6000819050602082019050919050565b600081519050919050565b600082825260208201905092915050565b60005b83811015611ba3578082015181840152602081019050611b88565b83811115611bb2576000848401525b50505050565b6000611bc382611b69565b611bcd8185611b74565b9350611bdd818560208601611b85565b611be68161169f565b840191505092915050565b6000611bfd8383611bb8565b905092915050565b6000602082019050919050565b6000611c1d82611b3d565b611c278185611b48565b935083602082028501611c3985611b59565b8060005b85811015611c755784840389528151611c568582611bf1565b9450611c6183611c05565b925060208a01995050600181019050611c3d565b50829750879550505050505092915050565b60006020820190508181036000830152611ca18184611c12565b905092915050565b611cb2816118c1565b82525050565b6000602082019050611ccd6000830184611ca9565b92915050565b611cdc81611ad2565b82525050565b611ceb816118c1565b82525050565b6000606083016000830151611d096000860182611cd3565b5060208301518482036020860152611d218282611bb8565b9150506040830151611d366040860182611ce2565b508091505092915050565b60006020820190508181036000830152611d5b8184611cf1565b905092915050565b600060208284031215611d7957611d7861168b565b5b6000611d87848285016118e2565b91505092915050565b600081905092915050565b6000611da682611b69565b611db08185611d90565b9350611dc0818560208601611b85565b80840191505092915050565b6000611dd88284611d9b565b915081905092915050565b600082825260208201905092915050565b7f7472616e736665725f6661696c5f66726f6d5f6e616d655f6e6f745f6578697360008201527f7400000000000000000000000000000000000000000000000000000000000000602082015250565b6000611e50602183611de3565b9150611e5b82611df4565b604082019050919050565b60006020820190508181036000830152611e7f81611e43565b9050919050565b7f7472616e736665725f6661696c5f66726f6d5f6e6f745f6f776e657200000000600082015250565b6000611ebc601c83611de3565b9150611ec782611e86565b602082019050919050565b60006020820190508181036000830152611eeb81611eaf565b9050919050565b7f7472616e736665725f6661696c5f76616c75655f6c6573735f7468616e5f313060008201527f3000000000000000000000000000000000000000000000000000000000000000602082015250565b6000611f4e602183611de3565b9150611f5982611ef2565b604082019050919050565b60006020820190508181036000830152611f7d81611f41565b9050919050565b7f4e487b7100000000000000000000000000000000000000000000000000000000600052601160045260246000fd5b6000611fbe826118c1565b9150611fc9836118c1565b9250817fffffffffffffffffffffffffffffffffffffffffffffffffffffffffffffffff048311821515161561200257612001611f84565b5b828202905092915050565b7f7472616e736665725f6661696c5f66726f6d5f62616c616e63655f6e6f745f6560008201527f6e6f756768000000000000000000000000000000000000000000000000000000602082015250565b6000612069602583611de3565b91506120748261200d565b604082019050919050565b600060208201905081810360008301526120988161205c565b9050919050565b7f4e487b7100000000000000000000000000000000000000000000000000000000600052603260045260246000fd5b7f7472616e736665725f6661696c5f746f5f6e616d655f6e6f745f657869737400600082015250565b6000612104601f83611de3565b915061210f826120ce565b602082019050919050565b60006020820190508181036000830152612133816120f7565b9050919050565b7f4e487b7100000000000000000000000000000000000000000000000000000000600052601260045260246000fd5b6000612174826118c1565b915061217f836118c1565b92508261218f5761218e61213a565b5b828204905092915050565b60006121a5826118c1565b91506121b0836118c1565b9250827fffffffffffffffffffffffffffffffffffffffffffffffffffffffffffffffff038211156121e5576121e4611f84565b5b828201905092915050565b60006121fb826118c1565b9150612206836118c1565b92508282101561221957612218611f84565b5b828203905092915050565b600061222f82611b69565b6122398185611de3565b9350612249818560208601611b85565b6122528161169f565b840191505092915050565b600060608201905081810360008301526122778186612224565b9050818103602083015261228b8185612224565b905061229a6040830184611ca9565b949350505050565b60006122ad826118c1565b91507fffffffffffffffffffffffffffffffffffffffffffffffffffffffffffffffff82036122df576122de611f84565b5b600182019050919050565b7f6164645f6163636f756e745f6661696c5f6e616d655f65786973740000000000600082015250565b6000612320601b83611de3565b915061232b826122ea565b602082019050919050565b6000602082019050818103600083015261234f81612313565b9050919050565b7f4e487b7100000000000000000000000000000000000000000000000000000000600052602260045260246000fd5b6000600282049050600182168061239d57607f821691505b6020821081036123b0576123af612356565b5b50919050565b60008190508160005260206000209050919050565b60006020601f8301049050919050565b600082821b905092915050565b6000600883026124187fffffffffffffffffffffffffffffffffffffffffffffffffffffffffffffffff826123db565b61242286836123db565b95508019841693508086168417925050509392505050565b6000819050919050565b600061245f61245a612455846118c1565b61243a565b6118c1565b9050919050565b6000819050919050565b61247983612444565b61248d61248582612466565b8484546123e8565b825550505050565b600090565b6124a2612495565b6124ad818484612470565b505050565b5b818110156124d1576124c660008261249a565b6001810190506124b3565b5050565b601f821115612516576124e7816123b6565b6124f0846123cb565b810160208510156124ff578190505b61251361250b856123cb565b8301826124b2565b50505b505050565b600082821c905092915050565b60006125396000198460080261251b565b1980831691505092915050565b60006125528383612528565b9150826002028217905092915050565b61256b82611b69565b67ffffffffffffffff811115612584576125836116b0565b5b61258e8254612385565b6125998282856124d5565b600060209050601f8311600181146125cc57600084156125ba578287015190505b6125c48582612546565b86555061262c565b601f1984166125da866123b6565b60005b82811015612602578489015182556001820191506020850194506020810190506125dd565b8683101561261f578489015161261b601f891682612528565b8355505b6001600288020188555050505b505050505050565b61263d81611ad2565b82525050565b60006040820190506126586000830185612634565b818103602083015261266a8184612224565b90509392505050565b7f77697468647261776e5f6661696c5f6e616d655f6e6f745f6578697374000000600082015250565b60006126a9601d83611de3565b91506126b482612673565b602082019050919050565b600060208201905081810360008301526126d88161269c565b9050919050565b7f77697468647261776e5f6661696c5f6e6f745f6f776e65720000000000000000600082015250565b6000612715601883611de3565b9150612720826126df565b602082019050919050565b6000602082019050818103600083015261274481612708565b9050919050565b7f77697468647261776e5f6661696c5f76616c75655f7a65726f00000000000000600082015250565b6000612781601983611de3565b915061278c8261274b565b602082019050919050565b600060208201905081810360008301526127b081612774565b9050919050565b7f77697468647261776e5f6661696c5f62616c616e63655f6e6f745f656e6f756760008201527f6800000000000000000000000000000000000000000000000000000000000000602082015250565b6000612813602183611de3565b915061281e826127b7565b604082019050919050565b6000602082019050818103600083015261284281612806565b9050919050565b600060608201905081810360008301526128638186612224565b90506128726020830185612634565b61287f6040830184611ca9565b949350505050565b7f6465706f7369745f6661696c5f6e616d655f6e6f745f65786973740000000000600082015250565b60006128bd601b83611de3565b91506128c882612887565b602082019050919050565b600060208201905081810360008301526128ec816128b0565b9050919050565b7f6465706f7369745f6661696c5f76616c75655f7a65726f000000000000000000600082015250565b6000612929601783611de3565b9150612934826128f3565b602082019050919050565b600060208201905081810360008301526129588161291c565b9050919050565b60006060820190506129746000830186612634565b81810360208301526129868185612224565b90506129956040830184611ca9565b94935050505056fea2646970667358221220357812df67b056f22873b8f74c8d13e790ab06e5b6cb28a26296533b6ee8c70164736f6c634300080f0033",
					"opcodes": "PUSH1 0x80 PUSH1 0x40 MSTORE CALLVALUE DUP1 ISZERO PUSH2 0x10 JUMPI PUSH1 0x0 DUP1 REVERT JUMPDEST POP CALLER PUSH1 0x0 DUP1 PUSH2 0x100 EXP DUP2 SLOAD DUP2 PUSH20 0xFFFFFFFFFFFFFFFFFFFFFFFFFFFFFFFFFFFFFFFF MUL NOT AND SWAP1 DUP4 PUSH20 0xFFFFFFFFFFFFFFFFFFFFFFFFFFFFFFFFFFFFFFFF AND MUL OR SWAP1 SSTORE POP PUSH1 0x0 PUSH1 0x1 DUP2 SWAP1 SSTORE POP PUSH2 0x29D3 DUP1 PUSH2 0x68 PUSH1 0x0 CODECOPY PUSH1 0x0 RETURN INVALID PUSH1 0x80 PUSH1 0x40 MSTORE PUSH1 0x4 CALLDATASIZE LT PUSH2 0x86 JUMPI PUSH1 0x0 CALLDATALOAD PUSH1 0xE0 SHR DUP1 PUSH4 0xA26E1186 GT PUSH2 0x59 JUMPI DUP1 PUSH4 0xA26E1186 EQ PUSH2 0x12F JUMPI DUP1 PUSH4 0xAD872A86 EQ PUSH2 0x14B JUMPI DUP1 PUSH4 0xCA1AE01C EQ PUSH2 0x188 JUMPI DUP1 PUSH4 0xDF4734ED EQ PUSH2 0x1C5 JUMPI DUP1 PUSH4 0xF8A0E8C3 EQ PUSH2 0x202 JUMPI PUSH2 0x86 JUMP JUMPDEST DUP1 PUSH4 0x16DFC5B2 EQ PUSH2 0x8B JUMPI DUP1 PUSH4 0x2AD26A04 EQ PUSH2 0xB4 JUMPI DUP1 PUSH4 0x358EECB6 EQ PUSH2 0xDD JUMPI DUP1 PUSH4 0x5E345810 EQ PUSH2 0x106 JUMPI JUMPDEST PUSH1 0x0 DUP1 REVERT JUMPDEST CALLVALUE DUP1 ISZERO PUSH2 0x97 JUMPI PUSH1 0x0 DUP1 REVERT JUMPDEST POP PUSH2 0xB2 PUSH1 0x4 DUP1 CALLDATASIZE SUB DUP2 ADD SWAP1 PUSH2 0xAD SWAP2 SWAP1 PUSH2 0x18F7 JUMP JUMPDEST PUSH2 0x22B JUMP JUMPDEST STOP JUMPDEST CALLVALUE DUP1 ISZERO PUSH2 0xC0 JUMPI PUSH1 0x0 DUP1 REVERT JUMPDEST POP PUSH2 0xDB PUSH1 0x4 DUP1 CALLDATASIZE SUB DUP2 ADD SWAP1 PUSH2 0xD6 SWAP2 SWAP1 PUSH2 0x1982 JUMP JUMPDEST PUSH2 0x811 JUMP JUMPDEST STOP JUMPDEST CALLVALUE DUP1 ISZERO PUSH2 0xE9 JUMPI PUSH1 0x0 DUP1 REVERT JUMPDEST POP PUSH2 0x104 PUSH1 0x4 DUP1 CALLDATASIZE SUB DUP2 ADD SWAP1 PUSH2 0xFF SWAP2 SWAP1 PUSH2 0x19CB JUMP JUMPDEST PUSH2 0xA22 JUMP JUMPDEST STOP JUMPDEST CALLVALUE DUP1 ISZERO PUSH2 0x112 JUMPI PUSH1 0x0 DUP1 REVERT JUMPDEST POP PUSH2 0x12D PUSH1 0x4 DUP1 CALLDATASIZE SUB DUP2 ADD SWAP1 PUSH2 0x128 SWAP2 SWAP1 PUSH2 0x1A27 JUMP JUMPDEST PUSH2 0xCA7 JUMP JUMPDEST STOP JUMPDEST PUSH2 0x149 PUSH1 0x4 DUP1 CALLDATASIZE SUB DUP2 ADD SWAP1 PUSH2 0x144 SWAP2 SWAP1 PUSH2 0x1982 JUMP JUMPDEST PUSH2 0x1139 JUMP JUMPDEST STOP JUMPDEST CALLVALUE DUP1 ISZERO PUSH2 0x157 JUMPI PUSH1 0x0 DUP1 REVERT JUMPDEST POP PUSH2 0x172 PUSH1 0x4 DUP1 CALLDATASIZE SUB DUP2 ADD SWAP1 PUSH2 0x16D SWAP2 SWAP1 PUSH2 0x1B10 JUMP JUMPDEST PUSH2 0x1264 JUMP JUMPDEST PUSH1 0x40 MLOAD PUSH2 0x17F SWAP2 SWAP1 PUSH2 0x1C87 JUMP JUMPDEST PUSH1 0x40 MLOAD DUP1 SWAP2 SUB SWAP1 RETURN JUMPDEST CALLVALUE DUP1 ISZERO PUSH2 0x194 JUMPI PUSH1 0x0 DUP1 REVERT JUMPDEST POP PUSH2 0x1AF PUSH1 0x4 DUP1 CALLDATASIZE SUB DUP2 ADD SWAP1 PUSH2 0x1AA SWAP2 SWAP1 PUSH2 0x1982 JUMP JUMPDEST PUSH2 0x137C JUMP JUMPDEST PUSH1 0x40 MLOAD PUSH2 0x1BC SWAP2 SWAP1 PUSH2 0x1CB8 JUMP JUMPDEST PUSH1 0x40 MLOAD DUP1 SWAP2 SUB SWAP1 RETURN JUMPDEST CALLVALUE DUP1 ISZERO PUSH2 0x1D1 JUMPI PUSH1 0x0 DUP1 REVERT JUMPDEST POP PUSH2 0x1EC PUSH1 0x4 DUP1 CALLDATASIZE SUB DUP2 ADD SWAP1 PUSH2 0x1E7 SWAP2 SWAP1 PUSH2 0x1982 JUMP JUMPDEST PUSH2 0x13A7 JUMP JUMPDEST PUSH1 0x40 MLOAD PUSH2 0x1F9 SWAP2 SWAP1 PUSH2 0x1D41 JUMP JUMPDEST PUSH1 0x40 MLOAD DUP1 SWAP2 SUB SWAP1 RETURN JUMPDEST CALLVALUE DUP1 ISZERO PUSH2 0x20E JUMPI PUSH1 0x0 DUP1 REVERT JUMPDEST POP PUSH2 0x229 PUSH1 0x4 DUP1 CALLDATASIZE SUB DUP2 ADD SWAP1 PUSH2 0x224 SWAP2 SWAP1 PUSH2 0x1D63 JUMP JUMPDEST PUSH2 0x14D1 JUMP JUMPDEST STOP JUMPDEST PUSH1 0x1 ISZERO ISZERO PUSH1 0x4 DUP5 PUSH1 0x40 MLOAD PUSH2 0x23F SWAP2 SWAP1 PUSH2 0x1DCC JUMP JUMPDEST SWAP1 DUP2 MSTORE PUSH1 0x20 ADD PUSH1 0x40 MLOAD DUP1 SWAP2 SUB SWAP1 KECCAK256 PUSH1 0x0 SWAP1 SLOAD SWAP1 PUSH2 0x100 EXP SWAP1 DIV PUSH1 0xFF AND ISZERO ISZERO EQ PUSH2 0x29D JUMPI PUSH1 0x40 MLOAD PUSH32 0x8C379A000000000000000000000000000000000000000000000000000000000 DUP2 MSTORE PUSH1 0x4 ADD PUSH2 0x294 SWAP1 PUSH2 0x1E66 JUMP JUMPDEST PUSH1 0x40 MLOAD DUP1 SWAP2 SUB SWAP1 REVERT JUMPDEST CALLER PUSH20 0xFFFFFFFFFFFFFFFFFFFFFFFFFFFFFFFFFFFFFFFF AND PUSH1 0x3 DUP5 PUSH1 0x40 MLOAD PUSH2 0x2C4 SWAP2 SWAP1 PUSH2 0x1DCC JUMP JUMPDEST SWAP1 DUP2 MSTORE PUSH1 0x20 ADD PUSH1 0x40 MLOAD DUP1 SWAP2 SUB SWAP1 KECCAK256 PUSH1 0x0 ADD PUSH1 0x0 SWAP1 SLOAD SWAP1 PUSH2 0x100 EXP SWAP1 DIV PUSH20 0xFFFFFFFFFFFFFFFFFFFFFFFFFFFFFFFFFFFFFFFF AND PUSH20 0xFFFFFFFFFFFFFFFFFFFFFFFFFFFFFFFFFFFFFFFF AND EQ PUSH2 0x34C JUMPI PUSH1 0x40 MLOAD PUSH32 0x8C379A000000000000000000000000000000000000000000000000000000000 DUP2 MSTORE PUSH1 0x4 ADD PUSH2 0x343 SWAP1 PUSH2 0x1ED2 JUMP JUMPDEST PUSH1 0x40 MLOAD DUP1 SWAP2 SUB SWAP1 REVERT JUMPDEST PUSH1 0x64 DUP2 LT ISZERO PUSH2 0x390 JUMPI PUSH1 0x40 MLOAD PUSH32 0x8C379A000000000000000000000000000000000000000000000000000000000 DUP2 MSTORE PUSH1 0x4 ADD PUSH2 0x387 SWAP1 PUSH2 0x1F64 JUMP JUMPDEST PUSH1 0x40 MLOAD DUP1 SWAP2 SUB SWAP1 REVERT JUMPDEST DUP2 MLOAD DUP2 PUSH2 0x39D SWAP2 SWAP1 PUSH2 0x1FB3 JUMP JUMPDEST PUSH1 0x3 DUP5 PUSH1 0x40 MLOAD PUSH2 0x3AD SWAP2 SWAP1 PUSH2 0x1DCC JUMP JUMPDEST SWAP1 DUP2 MSTORE PUSH1 0x20 ADD PUSH1 0x40 MLOAD DUP1 SWAP2 SUB SWAP1 KECCAK256 PUSH1 0x2 ADD SLOAD LT ISZERO PUSH2 0x400 JUMPI PUSH1 0x40 MLOAD PUSH32 0x8C379A000000000000000000000000000000000000000000000000000000000 DUP2 MSTORE PUSH1 0x4 ADD PUSH2 0x3F7 SWAP1 PUSH2 0x207F JUMP JUMPDEST PUSH1 0x40 MLOAD DUP1 SWAP2 SUB SWAP1 REVERT JUMPDEST PUSH1 0x0 JUMPDEST DUP3 MLOAD DUP2 LT ISZERO PUSH2 0x80B JUMPI PUSH1 0x1 ISZERO ISZERO PUSH1 0x4 DUP5 DUP4 DUP2 MLOAD DUP2 LT PUSH2 0x425 JUMPI PUSH2 0x424 PUSH2 0x209F JUMP JUMPDEST JUMPDEST PUSH1 0x20 MUL PUSH1 0x20 ADD ADD MLOAD PUSH1 0x40 MLOAD PUSH2 0x43A SWAP2 SWAP1 PUSH2 0x1DCC JUMP JUMPDEST SWAP1 DUP2 MSTORE PUSH1 0x20 ADD PUSH1 0x40 MLOAD DUP1 SWAP2 SUB SWAP1 KECCAK256 PUSH1 0x0 SWAP1 SLOAD SWAP1 PUSH2 0x100 EXP SWAP1 DIV PUSH1 0xFF AND ISZERO ISZERO EQ PUSH2 0x498 JUMPI PUSH1 0x40 MLOAD PUSH32 0x8C379A000000000000000000000000000000000000000000000000000000000 DUP2 MSTORE PUSH1 0x4 ADD PUSH2 0x48F SWAP1 PUSH2 0x211A JUMP JUMPDEST PUSH1 0x40 MLOAD DUP1 SWAP2 SUB SWAP1 REVERT JUMPDEST PUSH1 0x3 DUP4 DUP3 DUP2 MLOAD DUP2 LT PUSH2 0x4AD JUMPI PUSH2 0x4AC PUSH2 0x209F JUMP JUMPDEST JUMPDEST PUSH1 0x20 MUL PUSH1 0x20 ADD ADD MLOAD PUSH1 0x40 MLOAD PUSH2 0x4C2 SWAP2 SWAP1 PUSH2 0x1DCC JUMP JUMPDEST SWAP1 DUP2 MSTORE PUSH1 0x20 ADD PUSH1 0x40 MLOAD DUP1 SWAP2 SUB SWAP1 KECCAK256 PUSH1 0x0 ADD PUSH1 0x0 SWAP1 SLOAD SWAP1 PUSH2 0x100 EXP SWAP1 DIV PUSH20 0xFFFFFFFFFFFFFFFFFFFFFFFFFFFFFFFFFFFFFFFF AND PUSH20 0xFFFFFFFFFFFFFFFFFFFFFFFFFFFFFFFFFFFFFFFF AND PUSH1 0x3 DUP6 PUSH1 0x40 MLOAD PUSH2 0x51A SWAP2 SWAP1 PUSH2 0x1DCC JUMP JUMPDEST SWAP1 DUP2 MSTORE PUSH1 0x20 ADD PUSH1 0x40 MLOAD DUP1 SWAP2 SUB SWAP1 KECCAK256 PUSH1 0x0 ADD PUSH1 0x0 SWAP1 SLOAD SWAP1 PUSH2 0x100 EXP SWAP1 DIV PUSH20 0xFFFFFFFFFFFFFFFFFFFFFFFFFFFFFFFFFFFFFFFF AND PUSH20 0xFFFFFFFFFFFFFFFFFFFFFFFFFFFFFFFFFFFFFFFF AND EQ PUSH2 0x718 JUMPI PUSH1 0x1 ISZERO ISZERO PUSH1 0x4 DUP5 DUP4 DUP2 MLOAD DUP2 LT PUSH2 0x580 JUMPI PUSH2 0x57F PUSH2 0x209F JUMP JUMPDEST JUMPDEST PUSH1 0x20 MUL PUSH1 0x20 ADD ADD MLOAD PUSH1 0x40 MLOAD PUSH2 0x595 SWAP2 SWAP1 PUSH2 0x1DCC JUMP JUMPDEST SWAP1 DUP2 MSTORE PUSH1 0x20 ADD PUSH1 0x40 MLOAD DUP1 SWAP2 SUB SWAP1 KECCAK256 PUSH1 0x0 SWAP1 SLOAD SWAP1 PUSH2 0x100 EXP SWAP1 DIV PUSH1 0xFF AND ISZERO ISZERO EQ PUSH2 0x5F3 JUMPI PUSH1 0x40 MLOAD PUSH32 0x8C379A000000000000000000000000000000000000000000000000000000000 DUP2 MSTORE PUSH1 0x4 ADD PUSH2 0x5EA SWAP1 PUSH2 0x211A JUMP JUMPDEST PUSH1 0x40 MLOAD DUP1 SWAP2 SUB SWAP1 REVERT JUMPDEST PUSH1 0x0 PUSH1 0x64 DUP4 PUSH2 0x602 SWAP2 SWAP1 PUSH2 0x2169 JUMP JUMPDEST SWAP1 POP DUP1 PUSH1 0x1 PUSH1 0x0 DUP3 DUP3 SLOAD PUSH2 0x616 SWAP2 SWAP1 PUSH2 0x219A JUMP JUMPDEST SWAP3 POP POP DUP2 SWAP1 SSTORE POP DUP3 PUSH1 0x3 DUP7 PUSH1 0x40 MLOAD PUSH2 0x62E SWAP2 SWAP1 PUSH2 0x1DCC JUMP JUMPDEST SWAP1 DUP2 MSTORE PUSH1 0x20 ADD PUSH1 0x40 MLOAD DUP1 SWAP2 SUB SWAP1 KECCAK256 PUSH1 0x2 ADD PUSH1 0x0 DUP3 DUP3 SLOAD PUSH2 0x64E SWAP2 SWAP1 PUSH2 0x21F0 JUMP JUMPDEST SWAP3 POP POP DUP2 SWAP1 SSTORE POP DUP1 DUP4 PUSH2 0x661 SWAP2 SWAP1 PUSH2 0x21F0 JUMP JUMPDEST PUSH1 0x3 DUP6 DUP5 DUP2 MLOAD DUP2 LT PUSH2 0x676 JUMPI PUSH2 0x675 PUSH2 0x209F JUMP JUMPDEST JUMPDEST PUSH1 0x20 MUL PUSH1 0x20 ADD ADD MLOAD PUSH1 0x40 MLOAD PUSH2 0x68B SWAP2 SWAP1 PUSH2 0x1DCC JUMP JUMPDEST SWAP1 DUP2 MSTORE PUSH1 0x20 ADD PUSH1 0x40 MLOAD DUP1 SWAP2 SUB SWAP1 KECCAK256 PUSH1 0x2 ADD PUSH1 0x0 DUP3 DUP3 SLOAD PUSH2 0x6AB SWAP2 SWAP1 PUSH2 0x219A JUMP JUMPDEST SWAP3 POP POP DUP2 SWAP1 SSTORE POP PUSH32 0x370044A47246AFACF081FD58C8468A6482EBC8673D418E785B8D0492240F95DE DUP6 DUP6 DUP5 DUP2 MLOAD DUP2 LT PUSH2 0x6E7 JUMPI PUSH2 0x6E6 PUSH2 0x209F JUMP JUMPDEST JUMPDEST PUSH1 0x20 MUL PUSH1 0x20 ADD ADD MLOAD DUP4 DUP7 PUSH2 0x6FB SWAP2 SWAP1 PUSH2 0x21F0 JUMP JUMPDEST PUSH1 0x40 MLOAD PUSH2 0x70A SWAP4 SWAP3 SWAP2 SWAP1 PUSH2 0x225D JUMP JUMPDEST PUSH1 0x40 MLOAD DUP1 SWAP2 SUB SWAP1 LOG1 POP PUSH2 0x7F8 JUMP JUMPDEST DUP2 PUSH1 0x3 DUP6 PUSH1 0x40 MLOAD PUSH2 0x729 SWAP2 SWAP1 PUSH2 0x1DCC JUMP JUMPDEST SWAP1 DUP2 MSTORE PUSH1 0x20 ADD PUSH1 0x40 MLOAD DUP1 SWAP2 SUB SWAP1 KECCAK256 PUSH1 0x2 ADD PUSH1 0x0 DUP3 DUP3 SLOAD PUSH2 0x749 SWAP2 SWAP1 PUSH2 0x21F0 JUMP JUMPDEST SWAP3 POP POP DUP2 SWAP1 SSTORE POP DUP2 PUSH1 0x3 DUP5 DUP4 DUP2 MLOAD DUP2 LT PUSH2 0x766 JUMPI PUSH2 0x765 PUSH2 0x209F JUMP JUMPDEST JUMPDEST PUSH1 0x20 MUL PUSH1 0x20 ADD ADD MLOAD PUSH1 0x40 MLOAD PUSH2 0x77B SWAP2 SWAP1 PUSH2 0x1DCC JUMP JUMPDEST SWAP1 DUP2 MSTORE PUSH1 0x20 ADD PUSH1 0x40 MLOAD DUP1 SWAP2 SUB SWAP1 KECCAK256 PUSH1 0x2 ADD PUSH1 0x0 DUP3 DUP3 SLOAD PUSH2 0x79B SWAP2 SWAP1 PUSH2 0x219A JUMP JUMPDEST SWAP3 POP POP DUP2 SWAP1 SSTORE POP PUSH32 0x370044A47246AFACF081FD58C8468A6482EBC8673D418E785B8D0492240F95DE DUP5 DUP5 DUP4 DUP2 MLOAD DUP2 LT PUSH2 0x7D7 JUMPI PUSH2 0x7D6 PUSH2 0x209F JUMP JUMPDEST JUMPDEST PUSH1 0x20 MUL PUSH1 0x20 ADD ADD MLOAD DUP5 PUSH1 0x40 MLOAD PUSH2 0x7EF SWAP4 SWAP3 SWAP2 SWAP1 PUSH2 0x225D JUMP JUMPDEST PUSH1 0x40 MLOAD DUP1 SWAP2 SUB SWAP1 LOG1 JUMPDEST DUP1 DUP1 PUSH2 0x803 SWAP1 PUSH2 0x22A2 JUMP JUMPDEST SWAP2 POP POP PUSH2 0x403 JUMP JUMPDEST POP POP POP POP JUMP JUMPDEST PUSH1 0x0 ISZERO ISZERO PUSH1 0x4 DUP3 PUSH1 0x40 MLOAD PUSH2 0x825 SWAP2 SWAP1 PUSH2 0x1DCC JUMP JUMPDEST SWAP1 DUP2 MSTORE PUSH1 0x20 ADD PUSH1 0x40 MLOAD DUP1 SWAP2 SUB SWAP1 KECCAK256 PUSH1 0x0 SWAP1 SLOAD SWAP1 PUSH2 0x100 EXP SWAP1 DIV PUSH1 0xFF AND ISZERO ISZERO EQ PUSH2 0x883 JUMPI PUSH1 0x40 MLOAD PUSH32 0x8C379A000000000000000000000000000000000000000000000000000000000 DUP2 MSTORE PUSH1 0x4 ADD PUSH2 0x87A SWAP1 PUSH2 0x2336 JUMP JUMPDEST PUSH1 0x40 MLOAD DUP1 SWAP2 SUB SWAP1 REVERT JUMPDEST PUSH1 0x40 MLOAD DUP1 PUSH1 0x60 ADD PUSH1 0x40 MSTORE DUP1 CALLER PUSH20 0xFFFFFFFFFFFFFFFFFFFFFFFFFFFFFFFFFFFFFFFF AND DUP2 MSTORE PUSH1 0x20 ADD DUP3 DUP2 MSTORE PUSH1 0x20 ADD PUSH1 0x0 DUP2 MSTORE POP PUSH1 0x3 DUP3 PUSH1 0x40 MLOAD PUSH2 0x8C5 SWAP2 SWAP1 PUSH2 0x1DCC JUMP JUMPDEST SWAP1 DUP2 MSTORE PUSH1 0x20 ADD PUSH1 0x40 MLOAD DUP1 SWAP2 SUB SWAP1 KECCAK256 PUSH1 0x0 DUP3 ADD MLOAD DUP2 PUSH1 0x0 ADD PUSH1 0x0 PUSH2 0x100 EXP DUP2 SLOAD DUP2 PUSH20 0xFFFFFFFFFFFFFFFFFFFFFFFFFFFFFFFFFFFFFFFF MUL NOT AND SWAP1 DUP4 PUSH20 0xFFFFFFFFFFFFFFFFFFFFFFFFFFFFFFFFFFFFFFFF AND MUL OR SWAP1 SSTORE POP PUSH1 0x20 DUP3 ADD MLOAD DUP2 PUSH1 0x1 ADD SWAP1 DUP2 PUSH2 0x92F SWAP2 SWAP1 PUSH2 0x2562 JUMP JUMPDEST POP PUSH1 0x40 DUP3 ADD MLOAD DUP2 PUSH1 0x2 ADD SSTORE SWAP1 POP POP PUSH1 0x2 PUSH1 0x0 CALLER PUSH20 0xFFFFFFFFFFFFFFFFFFFFFFFFFFFFFFFFFFFFFFFF AND PUSH20 0xFFFFFFFFFFFFFFFFFFFFFFFFFFFFFFFFFFFFFFFF AND DUP2 MSTORE PUSH1 0x20 ADD SWAP1 DUP2 MSTORE PUSH1 0x20 ADD PUSH1 0x0 KECCAK256 DUP2 SWAP1 DUP1 PUSH1 0x1 DUP2 SLOAD ADD DUP1 DUP3 SSTORE DUP1 SWAP2 POP POP PUSH1 0x1 SWAP1 SUB SWAP1 PUSH1 0x0 MSTORE PUSH1 0x20 PUSH1 0x0 KECCAK256 ADD PUSH1 0x0 SWAP1 SWAP2 SWAP1 SWAP2 SWAP1 SWAP2 POP SWAP1 DUP2 PUSH2 0x9AE SWAP2 SWAP1 PUSH2 0x2562 JUMP JUMPDEST POP PUSH1 0x1 PUSH1 0x4 DUP3 PUSH1 0x40 MLOAD PUSH2 0x9C1 SWAP2 SWAP1 PUSH2 0x1DCC JUMP JUMPDEST SWAP1 DUP2 MSTORE PUSH1 0x20 ADD PUSH1 0x40 MLOAD DUP1 SWAP2 SUB SWAP1 KECCAK256 PUSH1 0x0 PUSH2 0x100 EXP DUP2 SLOAD DUP2 PUSH1 0xFF MUL NOT AND SWAP1 DUP4 ISZERO ISZERO MUL OR SWAP1 SSTORE POP PUSH32 0xB4833C10B628B390DD18880F97A54F11EAE38C84EB68171F9A11B0FD7855FADF CALLER DUP3 PUSH1 0x40 MLOAD PUSH2 0xA17 SWAP3 SWAP2 SWAP1 PUSH2 0x2643 JUMP JUMPDEST PUSH1 0x40 MLOAD DUP1 SWAP2 SUB SWAP1 LOG1 POP JUMP JUMPDEST PUSH1 0x1 ISZERO ISZERO PUSH1 0x4 DUP4 PUSH1 0x40 MLOAD PUSH2 0xA36 SWAP2 SWAP1 PUSH2 0x1DCC JUMP JUMPDEST SWAP1 DUP2 MSTORE PUSH1 0x20 ADD PUSH1 0x40 MLOAD DUP1 SWAP2 SUB SWAP1 KECCAK256 PUSH1 0x0 SWAP1 SLOAD SWAP1 PUSH2 0x100 EXP SWAP1 DIV PUSH1 0xFF AND ISZERO ISZERO EQ PUSH2 0xA94 JUMPI PUSH1 0x40 MLOAD PUSH32 0x8C379A000000000000000000000000000000000000000000000000000000000 DUP2 MSTORE PUSH1 0x4 ADD PUSH2 0xA8B SWAP1 PUSH2 0x26BF JUMP JUMPDEST PUSH1 0x40 MLOAD DUP1 SWAP2 SUB SWAP1 REVERT JUMPDEST CALLER PUSH20 0xFFFFFFFFFFFFFFFFFFFFFFFFFFFFFFFFFFFFFFFF AND PUSH1 0x3 DUP4 PUSH1 0x40 MLOAD PUSH2 0xABB SWAP2 SWAP1 PUSH2 0x1DCC JUMP JUMPDEST SWAP1 DUP2 MSTORE PUSH1 0x20 ADD PUSH1 0x40 MLOAD DUP1 SWAP2 SUB SWAP1 KECCAK256 PUSH1 0x0 ADD PUSH1 0x0 SWAP1 SLOAD SWAP1 PUSH2 0x100 EXP SWAP1 DIV PUSH20 0xFFFFFFFFFFFFFFFFFFFFFFFFFFFFFFFFFFFFFFFF AND PUSH20 0xFFFFFFFFFFFFFFFFFFFFFFFFFFFFFFFFFFFFFFFF AND EQ PUSH2 0xB43 JUMPI PUSH1 0x40 MLOAD PUSH32 0x8C379A000000000000000000000000000000000000000000000000000000000 DUP2 MSTORE PUSH1 0x4 ADD PUSH2 0xB3A SWAP1 PUSH2 0x272B JUMP JUMPDEST PUSH1 0x40 MLOAD DUP1 SWAP2 SUB SWAP1 REVERT JUMPDEST PUSH1 0x0 DUP2 GT PUSH2 0xB86 JUMPI PUSH1 0x40 MLOAD PUSH32 0x8C379A000000000000000000000000000000000000000000000000000000000 DUP2 MSTORE PUSH1 0x4 ADD PUSH2 0xB7D SWAP1 PUSH2 0x2797 JUMP JUMPDEST PUSH1 0x40 MLOAD DUP1 SWAP2 SUB SWAP1 REVERT JUMPDEST DUP1 PUSH1 0x3 DUP4 PUSH1 0x40 MLOAD PUSH2 0xB97 SWAP2 SWAP1 PUSH2 0x1DCC JUMP JUMPDEST SWAP1 DUP2 MSTORE PUSH1 0x20 ADD PUSH1 0x40 MLOAD DUP1 SWAP2 SUB SWAP1 KECCAK256 PUSH1 0x2 ADD SLOAD LT ISZERO PUSH2 0xBEA JUMPI PUSH1 0x40 MLOAD PUSH32 0x8C379A000000000000000000000000000000000000000000000000000000000 DUP2 MSTORE PUSH1 0x4 ADD PUSH2 0xBE1 SWAP1 PUSH2 0x2829 JUMP JUMPDEST PUSH1 0x40 MLOAD DUP1 SWAP2 SUB SWAP1 REVERT JUMPDEST DUP1 PUSH1 0x3 DUP4 PUSH1 0x40 MLOAD PUSH2 0xBFB SWAP2 SWAP1 PUSH2 0x1DCC JUMP JUMPDEST SWAP1 DUP2 MSTORE PUSH1 0x20 ADD PUSH1 0x40 MLOAD DUP1 SWAP2 SUB SWAP1 KECCAK256 PUSH1 0x2 ADD PUSH1 0x0 DUP3 DUP3 SLOAD PUSH2 0xC1B SWAP2 SWAP1 PUSH2 0x21F0 JUMP JUMPDEST SWAP3 POP POP DUP2 SWAP1 SSTORE POP CALLER PUSH20 0xFFFFFFFFFFFFFFFFFFFFFFFFFFFFFFFFFFFFFFFF AND PUSH2 0x8FC DUP3 SWAP1 DUP2 ISZERO MUL SWAP1 PUSH1 0x40 MLOAD PUSH1 0x0 PUSH1 0x40 MLOAD DUP1 DUP4 SUB DUP2 DUP6 DUP9 DUP9 CALL SWAP4 POP POP POP POP ISZERO DUP1 ISZERO PUSH2 0xC68 JUMPI RETURNDATASIZE PUSH1 0x0 DUP1 RETURNDATACOPY RETURNDATASIZE PUSH1 0x0 REVERT JUMPDEST POP PUSH31 0xF571BB39287F8941696401F5B5A1666EE251EFBF23412140FBDDCE841655D9 DUP3 CALLER DUP4 PUSH1 0x40 MLOAD PUSH2 0xC9B SWAP4 SWAP3 SWAP2 SWAP1 PUSH2 0x2849 JUMP JUMPDEST PUSH1 0x40 MLOAD DUP1 SWAP2 SUB SWAP1 LOG1 POP POP JUMP JUMPDEST PUSH1 0x1 ISZERO ISZERO PUSH1 0x4 DUP5 PUSH1 0x40 MLOAD PUSH2 0xCBB SWAP2 SWAP1 PUSH2 0x1DCC JUMP JUMPDEST SWAP1 DUP2 MSTORE PUSH1 0x20 ADD PUSH1 0x40 MLOAD DUP1 SWAP2 SUB SWAP1 KECCAK256 PUSH1 0x0 SWAP1 SLOAD SWAP1 PUSH2 0x100 EXP SWAP1 DIV PUSH1 0xFF AND ISZERO ISZERO EQ PUSH2 0xD19 JUMPI PUSH1 0x40 MLOAD PUSH32 0x8C379A000000000000000000000000000000000000000000000000000000000 DUP2 MSTORE PUSH1 0x4 ADD PUSH2 0xD10 SWAP1 PUSH2 0x1E66 JUMP JUMPDEST PUSH1 0x40 MLOAD DUP1 SWAP2 SUB SWAP1 REVERT JUMPDEST PUSH1 0x1 ISZERO ISZERO PUSH1 0x4 DUP4 PUSH1 0x40 MLOAD PUSH2 0xD2D SWAP2 SWAP1 PUSH2 0x1DCC JUMP JUMPDEST SWAP1 DUP2 MSTORE PUSH1 0x20 ADD PUSH1 0x40 MLOAD DUP1 SWAP2 SUB SWAP1 KECCAK256 PUSH1 0x0 SWAP1 SLOAD SWAP1 PUSH2 0x100 EXP SWAP1 DIV PUSH1 0xFF AND ISZERO ISZERO EQ PUSH2 0xD8B JUMPI PUSH1 0x40 MLOAD PUSH32 0x8C379A000000000000000000000000000000000000000000000000000000000 DUP2 MSTORE PUSH1 0x4 ADD PUSH2 0xD82 SWAP1 PUSH2 0x211A JUMP JUMPDEST PUSH1 0x40 MLOAD DUP1 SWAP2 SUB SWAP1 REVERT JUMPDEST CALLER PUSH20 0xFFFFFFFFFFFFFFFFFFFFFFFFFFFFFFFFFFFFFFFF AND PUSH1 0x3 DUP5 PUSH1 0x40 MLOAD PUSH2 0xDB2 SWAP2 SWAP1 PUSH2 0x1DCC JUMP JUMPDEST SWAP1 DUP2 MSTORE PUSH1 0x20 ADD PUSH1 0x40 MLOAD DUP1 SWAP2 SUB SWAP1 KECCAK256 PUSH1 0x0 ADD PUSH1 0x0 SWAP1 SLOAD SWAP1 PUSH2 0x100 EXP SWAP1 DIV PUSH20 0xFFFFFFFFFFFFFFFFFFFFFFFFFFFFFFFFFFFFFFFF AND PUSH20 0xFFFFFFFFFFFFFFFFFFFFFFFFFFFFFFFFFFFFFFFF AND EQ PUSH2 0xE3A JUMPI PUSH1 0x40 MLOAD PUSH32 0x8C379A000000000000000000000000000000000000000000000000000000000 DUP2 MSTORE PUSH1 0x4 ADD PUSH2 0xE31 SWAP1 PUSH2 0x1ED2 JUMP JUMPDEST PUSH1 0x40 MLOAD DUP1 SWAP2 SUB SWAP1 REVERT JUMPDEST PUSH1 0x64 DUP2 LT ISZERO PUSH2 0xE7E JUMPI PUSH1 0x40 MLOAD PUSH32 0x8C379A000000000000000000000000000000000000000000000000000000000 DUP2 MSTORE PUSH1 0x4 ADD PUSH2 0xE75 SWAP1 PUSH2 0x1F64 JUMP JUMPDEST PUSH1 0x40 MLOAD DUP1 SWAP2 SUB SWAP1 REVERT JUMPDEST DUP1 PUSH1 0x3 DUP5 PUSH1 0x40 MLOAD PUSH2 0xE8F SWAP2 SWAP1 PUSH2 0x1DCC JUMP JUMPDEST SWAP1 DUP2 MSTORE PUSH1 0x20 ADD PUSH1 0x40 MLOAD DUP1 SWAP2 SUB SWAP1 KECCAK256 PUSH1 0x2 ADD SLOAD LT ISZERO PUSH2 0xEE2 JUMPI PUSH1 0x40 MLOAD PUSH32 0x8C379A000000000000000000000000000000000000000000000000000000000 DUP2 MSTORE PUSH1 0x4 ADD PUSH2 0xED9 SWAP1 PUSH2 0x207F JUMP JUMPDEST PUSH1 0x40 MLOAD DUP1 SWAP2 SUB SWAP1 REVERT JUMPDEST PUSH1 0x3 DUP3 PUSH1 0x40 MLOAD PUSH2 0xEF2 SWAP2 SWAP1 PUSH2 0x1DCC JUMP JUMPDEST SWAP1 DUP2 MSTORE PUSH1 0x20 ADD PUSH1 0x40 MLOAD DUP1 SWAP2 SUB SWAP1 KECCAK256 PUSH1 0x0 ADD PUSH1 0x0 SWAP1 SLOAD SWAP1 PUSH2 0x100 EXP SWAP1 DIV PUSH20 0xFFFFFFFFFFFFFFFFFFFFFFFFFFFFFFFFFFFFFFFF AND PUSH20 0xFFFFFFFFFFFFFFFFFFFFFFFFFFFFFFFFFFFFFFFF AND PUSH1 0x3 DUP5 PUSH1 0x40 MLOAD PUSH2 0xF4A SWAP2 SWAP1 PUSH2 0x1DCC JUMP JUMPDEST SWAP1 DUP2 MSTORE PUSH1 0x20 ADD PUSH1 0x40 MLOAD DUP1 SWAP2 SUB SWAP1 KECCAK256 PUSH1 0x0 ADD PUSH1 0x0 SWAP1 SLOAD SWAP1 PUSH2 0x100 EXP SWAP1 DIV PUSH20 0xFFFFFFFFFFFFFFFFFFFFFFFFFFFFFFFFFFFFFFFF AND PUSH20 0xFFFFFFFFFFFFFFFFFFFFFFFFFFFFFFFFFFFFFFFF AND EQ PUSH2 0x1088 JUMPI PUSH1 0x0 PUSH1 0x64 DUP3 PUSH2 0xFA6 SWAP2 SWAP1 PUSH2 0x2169 JUMP JUMPDEST SWAP1 POP DUP1 PUSH1 0x1 PUSH1 0x0 DUP3 DUP3 SLOAD PUSH2 0xFBA SWAP2 SWAP1 PUSH2 0x219A JUMP JUMPDEST SWAP3 POP POP DUP2 SWAP1 SSTORE POP DUP2 PUSH1 0x3 DUP6 PUSH1 0x40 MLOAD PUSH2 0xFD2 SWAP2 SWAP1 PUSH2 0x1DCC JUMP JUMPDEST SWAP1 DUP2 MSTORE PUSH1 0x20 ADD PUSH1 0x40 MLOAD DUP1 SWAP2 SUB SWAP1 KECCAK256 PUSH1 0x2 ADD PUSH1 0x0 DUP3 DUP3 SLOAD PUSH2 0xFF2 SWAP2 SWAP1 PUSH2 0x21F0 JUMP JUMPDEST SWAP3 POP POP DUP2 SWAP1 SSTORE POP DUP1 DUP3 PUSH2 0x1005 SWAP2 SWAP1 PUSH2 0x21F0 JUMP JUMPDEST PUSH1 0x3 DUP5 PUSH1 0x40 MLOAD PUSH2 0x1015 SWAP2 SWAP1 PUSH2 0x1DCC JUMP JUMPDEST SWAP1 DUP2 MSTORE PUSH1 0x20 ADD PUSH1 0x40 MLOAD DUP1 SWAP2 SUB SWAP1 KECCAK256 PUSH1 0x2 ADD PUSH1 0x0 DUP3 DUP3 SLOAD PUSH2 0x1035 SWAP2 SWAP1 PUSH2 0x219A JUMP JUMPDEST SWAP3 POP POP DUP2 SWAP1 SSTORE POP PUSH32 0x370044A47246AFACF081FD58C8468A6482EBC8673D418E785B8D0492240F95DE DUP5 DUP5 DUP4 DUP6 PUSH2 0x106B SWAP2 SWAP1 PUSH2 0x21F0 JUMP JUMPDEST PUSH1 0x40 MLOAD PUSH2 0x107A SWAP4 SWAP3 SWAP2 SWAP1 PUSH2 0x225D JUMP JUMPDEST PUSH1 0x40 MLOAD DUP1 SWAP2 SUB SWAP1 LOG1 POP PUSH2 0x1134 JUMP JUMPDEST DUP1 PUSH1 0x3 DUP5 PUSH1 0x40 MLOAD PUSH2 0x1099 SWAP2 SWAP1 PUSH2 0x1DCC JUMP JUMPDEST SWAP1 DUP2 MSTORE PUSH1 0x20 ADD PUSH1 0x40 MLOAD DUP1 SWAP2 SUB SWAP1 KECCAK256 PUSH1 0x2 ADD PUSH1 0x0 DUP3 DUP3 SLOAD PUSH2 0x10B9 SWAP2 SWAP1 PUSH2 0x21F0 JUMP JUMPDEST SWAP3 POP POP DUP2 SWAP1 SSTORE POP DUP1 PUSH1 0x3 DUP4 PUSH1 0x40 MLOAD PUSH2 0x10D1 SWAP2 SWAP1 PUSH2 0x1DCC JUMP JUMPDEST SWAP1 DUP2 MSTORE PUSH1 0x20 ADD PUSH1 0x40 MLOAD DUP1 SWAP2 SUB SWAP1 KECCAK256 PUSH1 0x2 ADD PUSH1 0x0 DUP3 DUP3 SLOAD PUSH2 0x10F1 SWAP2 SWAP1 PUSH2 0x219A JUMP JUMPDEST SWAP3 POP POP DUP2 SWAP1 SSTORE POP PUSH32 0x370044A47246AFACF081FD58C8468A6482EBC8673D418E785B8D0492240F95DE DUP4 DUP4 DUP4 PUSH1 0x40 MLOAD PUSH2 0x112B SWAP4 SWAP3 SWAP2 SWAP1 PUSH2 0x225D JUMP JUMPDEST PUSH1 0x40 MLOAD DUP1 SWAP2 SUB SWAP1 LOG1 JUMPDEST POP POP POP JUMP JUMPDEST PUSH1 0x1 ISZERO ISZERO PUSH1 0x4 DUP3 PUSH1 0x40 MLOAD PUSH2 0x114D SWAP2 SWAP1 PUSH2 0x1DCC JUMP JUMPDEST SWAP1 DUP2 MSTORE PUSH1 0x20 ADD PUSH1 0x40 MLOAD DUP1 SWAP2 SUB SWAP1 KECCAK256 PUSH1 0x0 SWAP1 SLOAD SWAP1 PUSH2 0x100 EXP SWAP1 DIV PUSH1 0xFF AND ISZERO ISZERO EQ PUSH2 0x11AB JUMPI PUSH1 0x40 MLOAD PUSH32 0x8C379A000000000000000000000000000000000000000000000000000000000 DUP2 MSTORE PUSH1 0x4 ADD PUSH2 0x11A2 SWAP1 PUSH2 0x28D3 JUMP JUMPDEST PUSH1 0x40 MLOAD DUP1 SWAP2 SUB SWAP1 REVERT JUMPDEST PUSH1 0x0 CALLVALUE GT PUSH2 0x11EE JUMPI PUSH1 0x40 MLOAD PUSH32 0x8C379A000000000000000000000000000000000000000000000000000000000 DUP2 MSTORE PUSH1 0x4 ADD PUSH2 0x11E5 SWAP1 PUSH2 0x293F JUMP JUMPDEST PUSH1 0x40 MLOAD DUP1 SWAP2 SUB SWAP1 REVERT JUMPDEST CALLVALUE PUSH1 0x3 DUP3 PUSH1 0x40 MLOAD PUSH2 0x11FF SWAP2 SWAP1 PUSH2 0x1DCC JUMP JUMPDEST SWAP1 DUP2 MSTORE PUSH1 0x20 ADD PUSH1 0x40 MLOAD DUP1 SWAP2 SUB SWAP1 KECCAK256 PUSH1 0x2 ADD PUSH1 0x0 DUP3 DUP3 SLOAD PUSH2 0x121F SWAP2 SWAP1 PUSH2 0x219A JUMP JUMPDEST SWAP3 POP POP DUP2 SWAP1 SSTORE POP PUSH32 0x3E0B25BA1AB101C1D9112766101BB987F00F29A37A44B4A0813ED489A4F3FFA CALLER DUP3 CALLVALUE PUSH1 0x40 MLOAD PUSH2 0x1259 SWAP4 SWAP3 SWAP2 SWAP1 PUSH2 0x295F JUMP JUMPDEST PUSH1 0x40 MLOAD DUP1 SWAP2 SUB SWAP1 LOG1 POP JUMP JUMPDEST PUSH1 0x60 PUSH1 0x2 PUSH1 0x0 DUP4 PUSH20 0xFFFFFFFFFFFFFFFFFFFFFFFFFFFFFFFFFFFFFFFF AND PUSH20 0xFFFFFFFFFFFFFFFFFFFFFFFFFFFFFFFFFFFFFFFF AND DUP2 MSTORE PUSH1 0x20 ADD SWAP1 DUP2 MSTORE PUSH1 0x20 ADD PUSH1 0x0 KECCAK256 DUP1 SLOAD DUP1 PUSH1 0x20 MUL PUSH1 0x20 ADD PUSH1 0x40 MLOAD SWAP1 DUP2 ADD PUSH1 0x40 MSTORE DUP1 SWAP3 SWAP2 SWAP1 DUP2 DUP2 MSTORE PUSH1 0x20 ADD PUSH1 0x0 SWAP1 JUMPDEST DUP3 DUP3 LT ISZERO PUSH2 0x1371 JUMPI DUP4 DUP3 SWAP1 PUSH1 0x0 MSTORE PUSH1 0x20 PUSH1 0x0 KECCAK256 ADD DUP1 SLOAD PUSH2 0x12E4 SWAP1 PUSH2 0x2385 JUMP JUMPDEST DUP1 PUSH1 0x1F ADD PUSH1 0x20 DUP1 SWAP2 DIV MUL PUSH1 0x20 ADD PUSH1 0x40 MLOAD SWAP1 DUP2 ADD PUSH1 0x40 MSTORE DUP1 SWAP3 SWAP2 SWAP1 DUP2 DUP2 MSTORE PUSH1 0x20 ADD DUP3 DUP1 SLOAD PUSH2 0x1310 SWAP1 PUSH2 0x2385 JUMP JUMPDEST DUP1 ISZERO PUSH2 0x135D JUMPI DUP1 PUSH1 0x1F LT PUSH2 0x1332 JUMPI PUSH2 0x100 DUP1 DUP4 SLOAD DIV MUL DUP4 MSTORE SWAP2 PUSH1 0x20 ADD SWAP2 PUSH2 0x135D JUMP JUMPDEST DUP3 ADD SWAP2 SWAP1 PUSH1 0x0 MSTORE PUSH1 0x20 PUSH1 0x0 KECCAK256 SWAP1 JUMPDEST DUP2 SLOAD DUP2 MSTORE SWAP1 PUSH1 0x1 ADD SWAP1 PUSH1 0x20 ADD DUP1 DUP4 GT PUSH2 0x1340 JUMPI DUP3 SWAP1 SUB PUSH1 0x1F AND DUP3 ADD SWAP2 JUMPDEST POP POP POP POP POP DUP2 MSTORE PUSH1 0x20 ADD SWAP1 PUSH1 0x1 ADD SWAP1 PUSH2 0x12C5 JUMP JUMPDEST POP POP POP POP SWAP1 POP SWAP2 SWAP1 POP JUMP JUMPDEST PUSH1 0x0 PUSH1 0x3 DUP3 PUSH1 0x40 MLOAD PUSH2 0x138E SWAP2 SWAP1 PUSH2 0x1DCC JUMP JUMPDEST SWAP1 DUP2 MSTORE PUSH1 0x20 ADD PUSH1 0x40 MLOAD DUP1 SWAP2 SUB SWAP1 KECCAK256 PUSH1 0x2 ADD SLOAD SWAP1 POP SWAP2 SWAP1 POP JUMP JUMPDEST PUSH2 0x13AF PUSH2 0x164A JUMP JUMPDEST PUSH1 0x3 DUP3 PUSH1 0x40 MLOAD PUSH2 0x13BF SWAP2 SWAP1 PUSH2 0x1DCC JUMP JUMPDEST SWAP1 DUP2 MSTORE PUSH1 0x20 ADD PUSH1 0x40 MLOAD DUP1 SWAP2 SUB SWAP1 KECCAK256 PUSH1 0x40 MLOAD DUP1 PUSH1 0x60 ADD PUSH1 0x40 MSTORE SWAP1 DUP2 PUSH1 0x0 DUP3 ADD PUSH1 0x0 SWAP1 SLOAD SWAP1 PUSH2 0x100 EXP SWAP1 DIV PUSH20 0xFFFFFFFFFFFFFFFFFFFFFFFFFFFFFFFFFFFFFFFF AND PUSH20 0xFFFFFFFFFFFFFFFFFFFFFFFFFFFFFFFFFFFFFFFF AND PUSH20 0xFFFFFFFFFFFFFFFFFFFFFFFFFFFFFFFFFFFFFFFF AND DUP2 MSTORE PUSH1 0x20 ADD PUSH1 0x1 DUP3 ADD DUP1 SLOAD PUSH2 0x143E SWAP1 PUSH2 0x2385 JUMP JUMPDEST DUP1 PUSH1 0x1F ADD PUSH1 0x20 DUP1 SWAP2 DIV MUL PUSH1 0x20 ADD PUSH1 0x40 MLOAD SWAP1 DUP2 ADD PUSH1 0x40 MSTORE DUP1 SWAP3 SWAP2 SWAP1 DUP2 DUP2 MSTORE PUSH1 0x20 ADD DUP3 DUP1 SLOAD PUSH2 0x146A SWAP1 PUSH2 0x2385 JUMP JUMPDEST DUP1 ISZERO PUSH2 0x14B7 JUMPI DUP1 PUSH1 0x1F LT PUSH2 0x148C JUMPI PUSH2 0x100 DUP1 DUP4 SLOAD DIV MUL DUP4 MSTORE SWAP2 PUSH1 0x20 ADD SWAP2 PUSH2 0x14B7 JUMP JUMPDEST DUP3 ADD SWAP2 SWAP1 PUSH1 0x0 MSTORE PUSH1 0x20 PUSH1 0x0 KECCAK256 SWAP1 JUMPDEST DUP2 SLOAD DUP2 MSTORE SWAP1 PUSH1 0x1 ADD SWAP1 PUSH1 0x20 ADD DUP1 DUP4 GT PUSH2 0x149A JUMPI DUP3 SWAP1 SUB PUSH1 0x1F AND DUP3 ADD SWAP2 JUMPDEST POP POP POP POP POP DUP2 MSTORE PUSH1 0x20 ADD PUSH1 0x2 DUP3 ADD SLOAD DUP2 MSTORE POP POP SWAP1 POP SWAP2 SWAP1 POP JUMP JUMPDEST CALLER PUSH20 0xFFFFFFFFFFFFFFFFFFFFFFFFFFFFFFFFFFFFFFFF AND PUSH1 0x0 DUP1 SLOAD SWAP1 PUSH2 0x100 EXP SWAP1 DIV PUSH20 0xFFFFFFFFFFFFFFFFFFFFFFFFFFFFFFFFFFFFFFFF AND PUSH20 0xFFFFFFFFFFFFFFFFFFFFFFFFFFFFFFFFFFFFFFFF AND EQ PUSH2 0x155F JUMPI PUSH1 0x40 MLOAD PUSH32 0x8C379A000000000000000000000000000000000000000000000000000000000 DUP2 MSTORE PUSH1 0x4 ADD PUSH2 0x1556 SWAP1 PUSH2 0x272B JUMP JUMPDEST PUSH1 0x40 MLOAD DUP1 SWAP2 SUB SWAP1 REVERT JUMPDEST PUSH1 0x0 DUP2 GT PUSH2 0x15A2 JUMPI PUSH1 0x40 MLOAD PUSH32 0x8C379A000000000000000000000000000000000000000000000000000000000 DUP2 MSTORE PUSH1 0x4 ADD PUSH2 0x1599 SWAP1 PUSH2 0x2797 JUMP JUMPDEST PUSH1 0x40 MLOAD DUP1 SWAP2 SUB SWAP1 REVERT JUMPDEST DUP1 PUSH1 0x1 SLOAD LT ISZERO PUSH2 0x15E7 JUMPI PUSH1 0x40 MLOAD PUSH32 0x8C379A000000000000000000000000000000000000000000000000000000000 DUP2 MSTORE PUSH1 0x4 ADD PUSH2 0x15DE SWAP1 PUSH2 0x2829 JUMP JUMPDEST PUSH1 0x40 MLOAD DUP1 SWAP2 SUB SWAP1 REVERT JUMPDEST DUP1 PUSH1 0x1 PUSH1 0x0 DUP3 DUP3 SLOAD PUSH2 0x15F9 SWAP2 SWAP1 PUSH2 0x21F0 JUMP JUMPDEST SWAP3 POP POP DUP2 SWAP1 SSTORE POP CALLER PUSH20 0xFFFFFFFFFFFFFFFFFFFFFFFFFFFFFFFFFFFFFFFF AND PUSH2 0x8FC DUP3 SWAP1 DUP2 ISZERO MUL SWAP1 PUSH1 0x40 MLOAD PUSH1 0x0 PUSH1 0x40 MLOAD DUP1 DUP4 SUB DUP2 DUP6 DUP9 DUP9 CALL SWAP4 POP POP POP POP ISZERO DUP1 ISZERO PUSH2 0x1646 JUMPI RETURNDATASIZE PUSH1 0x0 DUP1 RETURNDATACOPY RETURNDATASIZE PUSH1 0x0 REVERT JUMPDEST POP POP JUMP JUMPDEST PUSH1 0x40 MLOAD DUP1 PUSH1 0x60 ADD PUSH1 0x40 MSTORE DUP1 PUSH1 0x0 PUSH20 0xFFFFFFFFFFFFFFFFFFFFFFFFFFFFFFFFFFFFFFFF AND DUP2 MSTORE PUSH1 0x20 ADD PUSH1 0x60 DUP2 MSTORE PUSH1 0x20 ADD PUSH1 0x0 DUP2 MSTORE POP SWAP1 JUMP JUMPDEST PUSH1 0x0 PUSH1 0x40 MLOAD SWAP1 POP SWAP1 JUMP JUMPDEST PUSH1 0x0 DUP1 REVERT JUMPDEST PUSH1 0x0 DUP1 REVERT JUMPDEST PUSH1 0x0 DUP1 REVERT JUMPDEST PUSH1 0x0 DUP1 REVERT JUMPDEST PUSH1 0x0 PUSH1 0x1F NOT PUSH1 0x1F DUP4 ADD AND SWAP1 POP SWAP2 SWAP1 POP JUMP JUMPDEST PUSH32 0x4E487B7100000000000000000000000000000000000000000000000000000000 PUSH1 0x0 MSTORE PUSH1 0x41 PUSH1 0x4 MSTORE PUSH1 0x24 PUSH1 0x0 REVERT JUMPDEST PUSH2 0x16E8 DUP3 PUSH2 0x169F JUMP JUMPDEST DUP2 ADD DUP2 DUP2 LT PUSH8 0xFFFFFFFFFFFFFFFF DUP3 GT OR ISZERO PUSH2 0x1707 JUMPI PUSH2 0x1706 PUSH2 0x16B0 JUMP JUMPDEST JUMPDEST DUP1 PUSH1 0x40 MSTORE POP POP POP JUMP JUMPDEST PUSH1 0x0 PUSH2 0x171A PUSH2 0x1681 JUMP JUMPDEST SWAP1 POP PUSH2 0x1726 DUP3 DUP3 PUSH2 0x16DF JUMP JUMPDEST SWAP2 SWAP1 POP JUMP JUMPDEST PUSH1 0x0 PUSH8 0xFFFFFFFFFFFFFFFF DUP3 GT ISZERO PUSH2 0x1746 JUMPI PUSH2 0x1745 PUSH2 0x16B0 JUMP JUMPDEST JUMPDEST PUSH2 0x174F DUP3 PUSH2 0x169F JUMP JUMPDEST SWAP1 POP PUSH1 0x20 DUP2 ADD SWAP1 POP SWAP2 SWAP1 POP JUMP JUMPDEST DUP3 DUP2 DUP4 CALLDATACOPY PUSH1 0x0 DUP4 DUP4 ADD MSTORE POP POP POP JUMP JUMPDEST PUSH1 0x0 PUSH2 0x177E PUSH2 0x1779 DUP5 PUSH2 0x172B JUMP JUMPDEST PUSH2 0x1710 JUMP JUMPDEST SWAP1 POP DUP3 DUP2 MSTORE PUSH1 0x20 DUP2 ADD DUP5 DUP5 DUP5 ADD GT ISZERO PUSH2 0x179A JUMPI PUSH2 0x1799 PUSH2 0x169A JUMP JUMPDEST JUMPDEST PUSH2 0x17A5 DUP5 DUP3 DUP6 PUSH2 0x175C JUMP JUMPDEST POP SWAP4 SWAP3 POP POP POP JUMP JUMPDEST PUSH1 0x0 DUP3 PUSH1 0x1F DUP4 ADD SLT PUSH2 0x17C2 JUMPI PUSH2 0x17C1 PUSH2 0x1695 JUMP JUMPDEST JUMPDEST DUP2 CALLDATALOAD PUSH2 0x17D2 DUP5 DUP3 PUSH1 0x20 DUP7 ADD PUSH2 0x176B JUMP JUMPDEST SWAP2 POP POP SWAP3 SWAP2 POP POP JUMP JUMPDEST PUSH1 0x0 PUSH8 0xFFFFFFFFFFFFFFFF DUP3 GT ISZERO PUSH2 0x17F6 JUMPI PUSH2 0x17F5 PUSH2 0x16B0 JUMP JUMPDEST JUMPDEST PUSH1 0x20 DUP3 MUL SWAP1 POP PUSH1 0x20 DUP2 ADD SWAP1 POP SWAP2 SWAP1 POP JUMP JUMPDEST PUSH1 0x0 DUP1 REVERT JUMPDEST PUSH1 0x0 PUSH2 0x181F PUSH2 0x181A DUP5 PUSH2 0x17DB JUMP JUMPDEST PUSH2 0x1710 JUMP JUMPDEST SWAP1 POP DUP1 DUP4 DUP3 MSTORE PUSH1 0x20 DUP3 ADD SWAP1 POP PUSH1 0x20 DUP5 MUL DUP4 ADD DUP6 DUP2 GT ISZERO PUSH2 0x1842 JUMPI PUSH2 0x1841 PUSH2 0x1807 JUMP JUMPDEST JUMPDEST DUP4 JUMPDEST DUP2 DUP2 LT ISZERO PUSH2 0x1889 JUMPI DUP1 CALLDATALOAD PUSH8 0xFFFFFFFFFFFFFFFF DUP2 GT ISZERO PUSH2 0x1867 JUMPI PUSH2 0x1866 PUSH2 0x1695 JUMP JUMPDEST JUMPDEST DUP1 DUP7 ADD PUSH2 0x1874 DUP10 DUP3 PUSH2 0x17AD JUMP JUMPDEST DUP6 MSTORE PUSH1 0x20 DUP6 ADD SWAP5 POP POP POP PUSH1 0x20 DUP2 ADD SWAP1 POP PUSH2 0x1844 JUMP JUMPDEST POP POP POP SWAP4 SWAP3 POP POP POP JUMP JUMPDEST PUSH1 0x0 DUP3 PUSH1 0x1F DUP4 ADD SLT PUSH2 0x18A8 JUMPI PUSH2 0x18A7 PUSH2 0x1695 JUMP JUMPDEST JUMPDEST DUP2 CALLDATALOAD PUSH2 0x18B8 DUP5 DUP3 PUSH1 0x20 DUP7 ADD PUSH2 0x180C JUMP JUMPDEST SWAP2 POP POP SWAP3 SWAP2 POP POP JUMP JUMPDEST PUSH1 0x0 DUP2 SWAP1 POP SWAP2 SWAP1 POP JUMP JUMPDEST PUSH2 0x18D4 DUP2 PUSH2 0x18C1 JUMP JUMPDEST DUP2 EQ PUSH2 0x18DF JUMPI PUSH1 0x0 DUP1 REVERT JUMPDEST POP JUMP JUMPDEST PUSH1 0x0 DUP2 CALLDATALOAD SWAP1 POP PUSH2 0x18F1 DUP2 PUSH2 0x18CB JUMP JUMPDEST SWAP3 SWAP2 POP POP JUMP JUMPDEST PUSH1 0x0 DUP1 PUSH1 0x0 PUSH1 0x60 DUP5 DUP7 SUB SLT ISZERO PUSH2 0x1910 JUMPI PUSH2 0x190F PUSH2 0x168B JUMP JUMPDEST JUMPDEST PUSH1 0x0 DUP5 ADD CALLDATALOAD PUSH8 0xFFFFFFFFFFFFFFFF DUP2 GT ISZERO PUSH2 0x192E JUMPI PUSH2 0x192D PUSH2 0x1690 JUMP JUMPDEST JUMPDEST PUSH2 0x193A DUP7 DUP3 DUP8 ADD PUSH2 0x17AD JUMP JUMPDEST SWAP4 POP POP PUSH1 0x20 DUP5 ADD CALLDATALOAD PUSH8 0xFFFFFFFFFFFFFFFF DUP2 GT ISZERO PUSH2 0x195B JUMPI PUSH2 0x195A PUSH2 0x1690 JUMP JUMPDEST JUMPDEST PUSH2 0x1967 DUP7 DUP3 DUP8 ADD PUSH2 0x1893 JUMP JUMPDEST SWAP3 POP POP PUSH1 0x40 PUSH2 0x1978 DUP7 DUP3 DUP8 ADD PUSH2 0x18E2 JUMP JUMPDEST SWAP2 POP POP SWAP3 POP SWAP3 POP SWAP3 JUMP JUMPDEST PUSH1 0x0 PUSH1 0x20 DUP3 DUP5 SUB SLT ISZERO PUSH2 0x1998 JUMPI PUSH2 0x1997 PUSH2 0x168B JUMP JUMPDEST JUMPDEST PUSH1 0x0 DUP3 ADD CALLDATALOAD PUSH8 0xFFFFFFFFFFFFFFFF DUP2 GT ISZERO PUSH2 0x19B6 JUMPI PUSH2 0x19B5 PUSH2 0x1690 JUMP JUMPDEST JUMPDEST PUSH2 0x19C2 DUP5 DUP3 DUP6 ADD PUSH2 0x17AD JUMP JUMPDEST SWAP2 POP POP SWAP3 SWAP2 POP POP JUMP JUMPDEST PUSH1 0x0 DUP1 PUSH1 0x40 DUP4 DUP6 SUB SLT ISZERO PUSH2 0x19E2 JUMPI PUSH2 0x19E1 PUSH2 0x168B JUMP JUMPDEST JUMPDEST PUSH1 0x0 DUP4 ADD CALLDATALOAD PUSH8 0xFFFFFFFFFFFFFFFF DUP2 GT ISZERO PUSH2 0x1A00 JUMPI PUSH2 0x19FF PUSH2 0x1690 JUMP JUMPDEST JUMPDEST PUSH2 0x1A0C DUP6 DUP3 DUP7 ADD PUSH2 0x17AD JUMP JUMPDEST SWAP3 POP POP PUSH1 0x20 PUSH2 0x1A1D DUP6 DUP3 DUP7 ADD PUSH2 0x18E2 JUMP JUMPDEST SWAP2 POP POP SWAP3 POP SWAP3 SWAP1 POP JUMP JUMPDEST PUSH1 0x0 DUP1 PUSH1 0x0 PUSH1 0x60 DUP5 DUP7 SUB SLT ISZERO PUSH2 0x1A40 JUMPI PUSH2 0x1A3F PUSH2 0x168B JUMP JUMPDEST JUMPDEST PUSH1 0x0 DUP5 ADD CALLDATALOAD PUSH8 0xFFFFFFFFFFFFFFFF DUP2 GT ISZERO PUSH2 0x1A5E JUMPI PUSH2 0x1A5D PUSH2 0x1690 JUMP JUMPDEST JUMPDEST PUSH2 0x1A6A DUP7 DUP3 DUP8 ADD PUSH2 0x17AD JUMP JUMPDEST SWAP4 POP POP PUSH1 0x20 DUP5 ADD CALLDATALOAD PUSH8 0xFFFFFFFFFFFFFFFF DUP2 GT ISZERO PUSH2 0x1A8B JUMPI PUSH2 0x1A8A PUSH2 0x1690 JUMP JUMPDEST JUMPDEST PUSH2 0x1A97 DUP7 DUP3 DUP8 ADD PUSH2 0x17AD JUMP JUMPDEST SWAP3 POP POP PUSH1 0x40 PUSH2 0x1AA8 DUP7 DUP3 DUP8 ADD PUSH2 0x18E2 JUMP JUMPDEST SWAP2 POP POP SWAP3 POP SWAP3 POP SWAP3 JUMP JUMPDEST PUSH1 0x0 PUSH20 0xFFFFFFFFFFFFFFFFFFFFFFFFFFFFFFFFFFFFFFFF DUP3 AND SWAP1 POP SWAP2 SWAP1 POP JUMP JUMPDEST PUSH1 0x0 PUSH2 0x1ADD DUP3 PUSH2 0x1AB2 JUMP JUMPDEST SWAP1 POP SWAP2 SWAP1 POP JUMP JUMPDEST PUSH2 0x1AED DUP2 PUSH2 0x1AD2 JUMP JUMPDEST DUP2 EQ PUSH2 0x1AF8 JUMPI PUSH1 0x0 DUP1 REVERT JUMPDEST POP JUMP JUMPDEST PUSH1 0x0 DUP2 CALLDATALOAD SWAP1 POP PUSH2 0x1B0A DUP2 PUSH2 0x1AE4 JUMP JUMPDEST SWAP3 SWAP2 POP POP JUMP JUMPDEST PUSH1 0x0 PUSH1 0x20 DUP3 DUP5 SUB SLT ISZERO PUSH2 0x1B26 JUMPI PUSH2 0x1B25 PUSH2 0x168B JUMP JUMPDEST JUMPDEST PUSH1 0x0 PUSH2 0x1B34 DUP5 DUP3 DUP6 ADD PUSH2 0x1AFB JUMP JUMPDEST SWAP2 POP POP SWAP3 SWAP2 POP POP JUMP JUMPDEST PUSH1 0x0 DUP2 MLOAD SWAP1 POP SWAP2 SWAP1 POP JUMP JUMPDEST PUSH1 0x0 DUP3 DUP3 MSTORE PUSH1 0x20 DUP3 ADD SWAP1 POP SWAP3 SWAP2 POP POP JUMP JUMPDEST PUSH1 0x0 DUP2 SWAP1 POP PUSH1 0x20 DUP3 ADD SWAP1 POP SWAP2 SWAP1 POP JUMP JUMPDEST PUSH1 0x0 DUP2 MLOAD SWAP1 POP SWAP2 SWAP1 POP JUMP JUMPDEST PUSH1 0x0 DUP3 DUP3 MSTORE PUSH1 0x20 DUP3 ADD SWAP1 POP SWAP3 SWAP2 POP POP JUMP JUMPDEST PUSH1 0x0 JUMPDEST DUP4 DUP2 LT ISZERO PUSH2 0x1BA3 JUMPI DUP1 DUP3 ADD MLOAD DUP2 DUP5 ADD MSTORE PUSH1 0x20 DUP2 ADD SWAP1 POP PUSH2 0x1B88 JUMP JUMPDEST DUP4 DUP2 GT ISZERO PUSH2 0x1BB2 JUMPI PUSH1 0x0 DUP5 DUP5 ADD MSTORE JUMPDEST POP POP POP POP JUMP JUMPDEST PUSH1 0x0 PUSH2 0x1BC3 DUP3 PUSH2 0x1B69 JUMP JUMPDEST PUSH2 0x1BCD DUP2 DUP6 PUSH2 0x1B74 JUMP JUMPDEST SWAP4 POP PUSH2 0x1BDD DUP2 DUP6 PUSH1 0x20 DUP7 ADD PUSH2 0x1B85 JUMP JUMPDEST PUSH2 0x1BE6 DUP2 PUSH2 0x169F JUMP JUMPDEST DUP5 ADD SWAP2 POP POP SWAP3 SWAP2 POP POP JUMP JUMPDEST PUSH1 0x0 PUSH2 0x1BFD DUP4 DUP4 PUSH2 0x1BB8 JUMP JUMPDEST SWAP1 POP SWAP3 SWAP2 POP POP JUMP JUMPDEST PUSH1 0x0 PUSH1 0x20 DUP3 ADD SWAP1 POP SWAP2 SWAP1 POP JUMP JUMPDEST PUSH1 0x0 PUSH2 0x1C1D DUP3 PUSH2 0x1B3D JUMP JUMPDEST PUSH2 0x1C27 DUP2 DUP6 PUSH2 0x1B48 JUMP JUMPDEST SWAP4 POP DUP4 PUSH1 0x20 DUP3 MUL DUP6 ADD PUSH2 0x1C39 DUP6 PUSH2 0x1B59 JUMP JUMPDEST DUP1 PUSH1 0x0 JUMPDEST DUP6 DUP2 LT ISZERO PUSH2 0x1C75 JUMPI DUP5 DUP5 SUB DUP10 MSTORE DUP2 MLOAD PUSH2 0x1C56 DUP6 DUP3 PUSH2 0x1BF1 JUMP JUMPDEST SWAP5 POP PUSH2 0x1C61 DUP4 PUSH2 0x1C05 JUMP JUMPDEST SWAP3 POP PUSH1 0x20 DUP11 ADD SWAP10 POP POP PUSH1 0x1 DUP2 ADD SWAP1 POP PUSH2 0x1C3D JUMP JUMPDEST POP DUP3 SWAP8 POP DUP8 SWAP6 POP POP POP POP POP POP SWAP3 SWAP2 POP POP JUMP JUMPDEST PUSH1 0x0 PUSH1 0x20 DUP3 ADD SWAP1 POP DUP2 DUP2 SUB PUSH1 0x0 DUP4 ADD MSTORE PUSH2 0x1CA1 DUP2 DUP5 PUSH2 0x1C12 JUMP JUMPDEST SWAP1 POP SWAP3 SWAP2 POP POP JUMP JUMPDEST PUSH2 0x1CB2 DUP2 PUSH2 0x18C1 JUMP JUMPDEST DUP3 MSTORE POP POP JUMP JUMPDEST PUSH1 0x0 PUSH1 0x20 DUP3 ADD SWAP1 POP PUSH2 0x1CCD PUSH1 0x0 DUP4 ADD DUP5 PUSH2 0x1CA9 JUMP JUMPDEST SWAP3 SWAP2 POP POP JUMP JUMPDEST PUSH2 0x1CDC DUP2 PUSH2 0x1AD2 JUMP JUMPDEST DUP3 MSTORE POP POP JUMP JUMPDEST PUSH2 0x1CEB DUP2 PUSH2 0x18C1 JUMP JUMPDEST DUP3 MSTORE POP POP JUMP JUMPDEST PUSH1 0x0 PUSH1 0x60 DUP4 ADD PUSH1 0x0 DUP4 ADD MLOAD PUSH2 0x1D09 PUSH1 0x0 DUP7 ADD DUP3 PUSH2 0x1CD3 JUMP JUMPDEST POP PUSH1 0x20 DUP4 ADD MLOAD DUP5 DUP3 SUB PUSH1 0x20 DUP7 ADD MSTORE PUSH2 0x1D21 DUP3 DUP3 PUSH2 0x1BB8 JUMP JUMPDEST SWAP2 POP POP PUSH1 0x40 DUP4 ADD MLOAD PUSH2 0x1D36 PUSH1 0x40 DUP7 ADD DUP3 PUSH2 0x1CE2 JUMP JUMPDEST POP DUP1 SWAP2 POP POP SWAP3 SWAP2 POP POP JUMP JUMPDEST PUSH1 0x0 PUSH1 0x20 DUP3 ADD SWAP1 POP DUP2 DUP2 SUB PUSH1 0x0 DUP4 ADD MSTORE PUSH2 0x1D5B DUP2 DUP5 PUSH2 0x1CF1 JUMP JUMPDEST SWAP1 POP SWAP3 SWAP2 POP POP JUMP JUMPDEST PUSH1 0x0 PUSH1 0x20 DUP3 DUP5 SUB SLT ISZERO PUSH2 0x1D79 JUMPI PUSH2 0x1D78 PUSH2 0x168B JUMP JUMPDEST JUMPDEST PUSH1 0x0 PUSH2 0x1D87 DUP5 DUP3 DUP6 ADD PUSH2 0x18E2 JUMP JUMPDEST SWAP2 POP POP SWAP3 SWAP2 POP POP JUMP JUMPDEST PUSH1 0x0 DUP2 SWAP1 POP SWAP3 SWAP2 POP POP JUMP JUMPDEST PUSH1 0x0 PUSH2 0x1DA6 DUP3 PUSH2 0x1B69 JUMP JUMPDEST PUSH2 0x1DB0 DUP2 DUP6 PUSH2 0x1D90 JUMP JUMPDEST SWAP4 POP PUSH2 0x1DC0 DUP2 DUP6 PUSH1 0x20 DUP7 ADD PUSH2 0x1B85 JUMP JUMPDEST DUP1 DUP5 ADD SWAP2 POP POP SWAP3 SWAP2 POP POP JUMP JUMPDEST PUSH1 0x0 PUSH2 0x1DD8 DUP3 DUP5 PUSH2 0x1D9B JUMP JUMPDEST SWAP2 POP DUP2 SWAP1 POP SWAP3 SWAP2 POP POP JUMP JUMPDEST PUSH1 0x0 DUP3 DUP3 MSTORE PUSH1 0x20 DUP3 ADD SWAP1 POP SWAP3 SWAP2 POP POP JUMP JUMPDEST PUSH32 0x7472616E736665725F6661696C5F66726F6D5F6E616D655F6E6F745F65786973 PUSH1 0x0 DUP3 ADD MSTORE PUSH32 0x7400000000000000000000000000000000000000000000000000000000000000 PUSH1 0x20 DUP3 ADD MSTORE POP JUMP JUMPDEST PUSH1 0x0 PUSH2 0x1E50 PUSH1 0x21 DUP4 PUSH2 0x1DE3 JUMP JUMPDEST SWAP2 POP PUSH2 0x1E5B DUP3 PUSH2 0x1DF4 JUMP JUMPDEST PUSH1 0x40 DUP3 ADD SWAP1 POP SWAP2 SWAP1 POP JUMP JUMPDEST PUSH1 0x0 PUSH1 0x20 DUP3 ADD SWAP1 POP DUP2 DUP2 SUB PUSH1 0x0 DUP4 ADD MSTORE PUSH2 0x1E7F DUP2 PUSH2 0x1E43 JUMP JUMPDEST SWAP1 POP SWAP2 SWAP1 POP JUMP JUMPDEST PUSH32 0x7472616E736665725F6661696C5F66726F6D5F6E6F745F6F776E657200000000 PUSH1 0x0 DUP3 ADD MSTORE POP JUMP JUMPDEST PUSH1 0x0 PUSH2 0x1EBC PUSH1 0x1C DUP4 PUSH2 0x1DE3 JUMP JUMPDEST SWAP2 POP PUSH2 0x1EC7 DUP3 PUSH2 0x1E86 JUMP JUMPDEST PUSH1 0x20 DUP3 ADD SWAP1 POP SWAP2 SWAP1 POP JUMP JUMPDEST PUSH1 0x0 PUSH1 0x20 DUP3 ADD SWAP1 POP DUP2 DUP2 SUB PUSH1 0x0 DUP4 ADD MSTORE PUSH2 0x1EEB DUP2 PUSH2 0x1EAF JUMP JUMPDEST SWAP1 POP SWAP2 SWAP1 POP JUMP JUMPDEST PUSH32 0x7472616E736665725F6661696C5F76616C75655F6C6573735F7468616E5F3130 PUSH1 0x0 DUP3 ADD MSTORE PUSH32 0x3000000000000000000000000000000000000000000000000000000000000000 PUSH1 0x20 DUP3 ADD MSTORE POP JUMP JUMPDEST PUSH1 0x0 PUSH2 0x1F4E PUSH1 0x21 DUP4 PUSH2 0x1DE3 JUMP JUMPDEST SWAP2 POP PUSH2 0x1F59 DUP3 PUSH2 0x1EF2 JUMP JUMPDEST PUSH1 0x40 DUP3 ADD SWAP1 POP SWAP2 SWAP1 POP JUMP JUMPDEST PUSH1 0x0 PUSH1 0x20 DUP3 ADD SWAP1 POP DUP2 DUP2 SUB PUSH1 0x0 DUP4 ADD MSTORE PUSH2 0x1F7D DUP2 PUSH2 0x1F41 JUMP JUMPDEST SWAP1 POP SWAP2 SWAP1 POP JUMP JUMPDEST PUSH32 0x4E487B7100000000000000000000000000000000000000000000000000000000 PUSH1 0x0 MSTORE PUSH1 0x11 PUSH1 0x4 MSTORE PUSH1 0x24 PUSH1 0x0 REVERT JUMPDEST PUSH1 0x0 PUSH2 0x1FBE DUP3 PUSH2 0x18C1 JUMP JUMPDEST SWAP2 POP PUSH2 0x1FC9 DUP4 PUSH2 0x18C1 JUMP JUMPDEST SWAP3 POP DUP2 PUSH32 0xFFFFFFFFFFFFFFFFFFFFFFFFFFFFFFFFFFFFFFFFFFFFFFFFFFFFFFFFFFFFFFFF DIV DUP4 GT DUP3 ISZERO ISZERO AND ISZERO PUSH2 0x2002 JUMPI PUSH2 0x2001 PUSH2 0x1F84 JUMP JUMPDEST JUMPDEST DUP3 DUP3 MUL SWAP1 POP SWAP3 SWAP2 POP POP JUMP JUMPDEST PUSH32 0x7472616E736665725F6661696C5F66726F6D5F62616C616E63655F6E6F745F65 PUSH1 0x0 DUP3 ADD MSTORE PUSH32 0x6E6F756768000000000000000000000000000000000000000000000000000000 PUSH1 0x20 DUP3 ADD MSTORE POP JUMP JUMPDEST PUSH1 0x0 PUSH2 0x2069 PUSH1 0x25 DUP4 PUSH2 0x1DE3 JUMP JUMPDEST SWAP2 POP PUSH2 0x2074 DUP3 PUSH2 0x200D JUMP JUMPDEST PUSH1 0x40 DUP3 ADD SWAP1 POP SWAP2 SWAP1 POP JUMP JUMPDEST PUSH1 0x0 PUSH1 0x20 DUP3 ADD SWAP1 POP DUP2 DUP2 SUB PUSH1 0x0 DUP4 ADD MSTORE PUSH2 0x2098 DUP2 PUSH2 0x205C JUMP JUMPDEST SWAP1 POP SWAP2 SWAP1 POP JUMP JUMPDEST PUSH32 0x4E487B7100000000000000000000000000000000000000000000000000000000 PUSH1 0x0 MSTORE PUSH1 0x32 PUSH1 0x4 MSTORE PUSH1 0x24 PUSH1 0x0 REVERT JUMPDEST PUSH32 0x7472616E736665725F6661696C5F746F5F6E616D655F6E6F745F657869737400 PUSH1 0x0 DUP3 ADD MSTORE POP JUMP JUMPDEST PUSH1 0x0 PUSH2 0x2104 PUSH1 0x1F DUP4 PUSH2 0x1DE3 JUMP JUMPDEST SWAP2 POP PUSH2 0x210F DUP3 PUSH2 0x20CE JUMP JUMPDEST PUSH1 0x20 DUP3 ADD SWAP1 POP SWAP2 SWAP1 POP JUMP JUMPDEST PUSH1 0x0 PUSH1 0x20 DUP3 ADD SWAP1 POP DUP2 DUP2 SUB PUSH1 0x0 DUP4 ADD MSTORE PUSH2 0x2133 DUP2 PUSH2 0x20F7 JUMP JUMPDEST SWAP1 POP SWAP2 SWAP1 POP JUMP JUMPDEST PUSH32 0x4E487B7100000000000000000000000000000000000000000000000000000000 PUSH1 0x0 MSTORE PUSH1 0x12 PUSH1 0x4 MSTORE PUSH1 0x24 PUSH1 0x0 REVERT JUMPDEST PUSH1 0x0 PUSH2 0x2174 DUP3 PUSH2 0x18C1 JUMP JUMPDEST SWAP2 POP PUSH2 0x217F DUP4 PUSH2 0x18C1 JUMP JUMPDEST SWAP3 POP DUP3 PUSH2 0x218F JUMPI PUSH2 0x218E PUSH2 0x213A JUMP JUMPDEST JUMPDEST DUP3 DUP3 DIV SWAP1 POP SWAP3 SWAP2 POP POP JUMP JUMPDEST PUSH1 0x0 PUSH2 0x21A5 DUP3 PUSH2 0x18C1 JUMP JUMPDEST SWAP2 POP PUSH2 0x21B0 DUP4 PUSH2 0x18C1 JUMP JUMPDEST SWAP3 POP DUP3 PUSH32 0xFFFFFFFFFFFFFFFFFFFFFFFFFFFFFFFFFFFFFFFFFFFFFFFFFFFFFFFFFFFFFFFF SUB DUP3 GT ISZERO PUSH2 0x21E5 JUMPI PUSH2 0x21E4 PUSH2 0x1F84 JUMP JUMPDEST JUMPDEST DUP3 DUP3 ADD SWAP1 POP SWAP3 SWAP2 POP POP JUMP JUMPDEST PUSH1 0x0 PUSH2 0x21FB DUP3 PUSH2 0x18C1 JUMP JUMPDEST SWAP2 POP PUSH2 0x2206 DUP4 PUSH2 0x18C1 JUMP JUMPDEST SWAP3 POP DUP3 DUP3 LT ISZERO PUSH2 0x2219 JUMPI PUSH2 0x2218 PUSH2 0x1F84 JUMP JUMPDEST JUMPDEST DUP3 DUP3 SUB SWAP1 POP SWAP3 SWAP2 POP POP JUMP JUMPDEST PUSH1 0x0 PUSH2 0x222F DUP3 PUSH2 0x1B69 JUMP JUMPDEST PUSH2 0x2239 DUP2 DUP6 PUSH2 0x1DE3 JUMP JUMPDEST SWAP4 POP PUSH2 0x2249 DUP2 DUP6 PUSH1 0x20 DUP7 ADD PUSH2 0x1B85 JUMP JUMPDEST PUSH2 0x2252 DUP2 PUSH2 0x169F JUMP JUMPDEST DUP5 ADD SWAP2 POP POP SWAP3 SWAP2 POP POP JUMP JUMPDEST PUSH1 0x0 PUSH1 0x60 DUP3 ADD SWAP1 POP DUP2 DUP2 SUB PUSH1 0x0 DUP4 ADD MSTORE PUSH2 0x2277 DUP2 DUP7 PUSH2 0x2224 JUMP JUMPDEST SWAP1 POP DUP2 DUP2 SUB PUSH1 0x20 DUP4 ADD MSTORE PUSH2 0x228B DUP2 DUP6 PUSH2 0x2224 JUMP JUMPDEST SWAP1 POP PUSH2 0x229A PUSH1 0x40 DUP4 ADD DUP5 PUSH2 0x1CA9 JUMP JUMPDEST SWAP5 SWAP4 POP POP POP POP JUMP JUMPDEST PUSH1 0x0 PUSH2 0x22AD DUP3 PUSH2 0x18C1 JUMP JUMPDEST SWAP2 POP PUSH32 0xFFFFFFFFFFFFFFFFFFFFFFFFFFFFFFFFFFFFFFFFFFFFFFFFFFFFFFFFFFFFFFFF DUP3 SUB PUSH2 0x22DF JUMPI PUSH2 0x22DE PUSH2 0x1F84 JUMP JUMPDEST JUMPDEST PUSH1 0x1 DUP3 ADD SWAP1 POP SWAP2 SWAP1 POP JUMP JUMPDEST PUSH32 0x6164645F6163636F756E745F6661696C5F6E616D655F65786973740000000000 PUSH1 0x0 DUP3 ADD MSTORE POP JUMP JUMPDEST PUSH1 0x0 PUSH2 0x2320 PUSH1 0x1B DUP4 PUSH2 0x1DE3 JUMP JUMPDEST SWAP2 POP PUSH2 0x232B DUP3 PUSH2 0x22EA JUMP JUMPDEST PUSH1 0x20 DUP3 ADD SWAP1 POP SWAP2 SWAP1 POP JUMP JUMPDEST PUSH1 0x0 PUSH1 0x20 DUP3 ADD SWAP1 POP DUP2 DUP2 SUB PUSH1 0x0 DUP4 ADD MSTORE PUSH2 0x234F DUP2 PUSH2 0x2313 JUMP JUMPDEST SWAP1 POP SWAP2 SWAP1 POP JUMP JUMPDEST PUSH32 0x4E487B7100000000000000000000000000000000000000000000000000000000 PUSH1 0x0 MSTORE PUSH1 0x22 PUSH1 0x4 MSTORE PUSH1 0x24 PUSH1 0x0 REVERT JUMPDEST PUSH1 0x0 PUSH1 0x2 DUP3 DIV SWAP1 POP PUSH1 0x1 DUP3 AND DUP1 PUSH2 0x239D JUMPI PUSH1 0x7F DUP3 AND SWAP2 POP JUMPDEST PUSH1 0x20 DUP3 LT DUP2 SUB PUSH2 0x23B0 JUMPI PUSH2 0x23AF PUSH2 0x2356 JUMP JUMPDEST JUMPDEST POP SWAP2 SWAP1 POP JUMP JUMPDEST PUSH1 0x0 DUP2 SWAP1 POP DUP2 PUSH1 0x0 MSTORE PUSH1 0x20 PUSH1 0x0 KECCAK256 SWAP1 POP SWAP2 SWAP1 POP JUMP JUMPDEST PUSH1 0x0 PUSH1 0x20 PUSH1 0x1F DUP4 ADD DIV SWAP1 POP SWAP2 SWAP1 POP JUMP JUMPDEST PUSH1 0x0 DUP3 DUP3 SHL SWAP1 POP SWAP3 SWAP2 POP POP JUMP JUMPDEST PUSH1 0x0 PUSH1 0x8 DUP4 MUL PUSH2 0x2418 PUSH32 0xFFFFFFFFFFFFFFFFFFFFFFFFFFFFFFFFFFFFFFFFFFFFFFFFFFFFFFFFFFFFFFFF DUP3 PUSH2 0x23DB JUMP JUMPDEST PUSH2 0x2422 DUP7 DUP4 PUSH2 0x23DB JUMP JUMPDEST SWAP6 POP DUP1 NOT DUP5 AND SWAP4 POP DUP1 DUP7 AND DUP5 OR SWAP3 POP POP POP SWAP4 SWAP3 POP POP POP JUMP JUMPDEST PUSH1 0x0 DUP2 SWAP1 POP SWAP2 SWAP1 POP JUMP JUMPDEST PUSH1 0x0 PUSH2 0x245F PUSH2 0x245A PUSH2 0x2455 DUP5 PUSH2 0x18C1 JUMP JUMPDEST PUSH2 0x243A JUMP JUMPDEST PUSH2 0x18C1 JUMP JUMPDEST SWAP1 POP SWAP2 SWAP1 POP JUMP JUMPDEST PUSH1 0x0 DUP2 SWAP1 POP SWAP2 SWAP1 POP JUMP JUMPDEST PUSH2 0x2479 DUP4 PUSH2 0x2444 JUMP JUMPDEST PUSH2 0x248D PUSH2 0x2485 DUP3 PUSH2 0x2466 JUMP JUMPDEST DUP5 DUP5 SLOAD PUSH2 0x23E8 JUMP JUMPDEST DUP3 SSTORE POP POP POP POP JUMP JUMPDEST PUSH1 0x0 SWAP1 JUMP JUMPDEST PUSH2 0x24A2 PUSH2 0x2495 JUMP JUMPDEST PUSH2 0x24AD DUP2 DUP5 DUP5 PUSH2 0x2470 JUMP JUMPDEST POP POP POP JUMP JUMPDEST JUMPDEST DUP2 DUP2 LT ISZERO PUSH2 0x24D1 JUMPI PUSH2 0x24C6 PUSH1 0x0 DUP3 PUSH2 0x249A JUMP JUMPDEST PUSH1 0x1 DUP2 ADD SWAP1 POP PUSH2 0x24B3 JUMP JUMPDEST POP POP JUMP JUMPDEST PUSH1 0x1F DUP3 GT ISZERO PUSH2 0x2516 JUMPI PUSH2 0x24E7 DUP2 PUSH2 0x23B6 JUMP JUMPDEST PUSH2 0x24F0 DUP5 PUSH2 0x23CB JUMP JUMPDEST DUP2 ADD PUSH1 0x20 DUP6 LT ISZERO PUSH2 0x24FF JUMPI DUP2 SWAP1 POP JUMPDEST PUSH2 0x2513 PUSH2 0x250B DUP6 PUSH2 0x23CB JUMP JUMPDEST DUP4 ADD DUP3 PUSH2 0x24B2 JUMP JUMPDEST POP POP JUMPDEST POP POP POP JUMP JUMPDEST PUSH1 0x0 DUP3 DUP3 SHR SWAP1 POP SWAP3 SWAP2 POP POP JUMP JUMPDEST PUSH1 0x0 PUSH2 0x2539 PUSH1 0x0 NOT DUP5 PUSH1 0x8 MUL PUSH2 0x251B JUMP JUMPDEST NOT DUP1 DUP4 AND SWAP2 POP POP SWAP3 SWAP2 POP POP JUMP JUMPDEST PUSH1 0x0 PUSH2 0x2552 DUP4 DUP4 PUSH2 0x2528 JUMP JUMPDEST SWAP2 POP DUP3 PUSH1 0x2 MUL DUP3 OR SWAP1 POP SWAP3 SWAP2 POP POP JUMP JUMPDEST PUSH2 0x256B DUP3 PUSH2 0x1B69 JUMP JUMPDEST PUSH8 0xFFFFFFFFFFFFFFFF DUP2 GT ISZERO PUSH2 0x2584 JUMPI PUSH2 0x2583 PUSH2 0x16B0 JUMP JUMPDEST JUMPDEST PUSH2 0x258E DUP3 SLOAD PUSH2 0x2385 JUMP JUMPDEST PUSH2 0x2599 DUP3 DUP3 DUP6 PUSH2 0x24D5 JUMP JUMPDEST PUSH1 0x0 PUSH1 0x20 SWAP1 POP PUSH1 0x1F DUP4 GT PUSH1 0x1 DUP2 EQ PUSH2 0x25CC JUMPI PUSH1 0x0 DUP5 ISZERO PUSH2 0x25BA JUMPI DUP3 DUP8 ADD MLOAD SWAP1 POP JUMPDEST PUSH2 0x25C4 DUP6 DUP3 PUSH2 0x2546 JUMP JUMPDEST DUP7 SSTORE POP PUSH2 0x262C JUMP JUMPDEST PUSH1 0x1F NOT DUP5 AND PUSH2 0x25DA DUP7 PUSH2 0x23B6 JUMP JUMPDEST PUSH1 0x0 JUMPDEST DUP3 DUP2 LT ISZERO PUSH2 0x2602 JUMPI DUP5 DUP10 ADD MLOAD DUP3 SSTORE PUSH1 0x1 DUP3 ADD SWAP2 POP PUSH1 0x20 DUP6 ADD SWAP5 POP PUSH1 0x20 DUP2 ADD SWAP1 POP PUSH2 0x25DD JUMP JUMPDEST DUP7 DUP4 LT ISZERO PUSH2 0x261F JUMPI DUP5 DUP10 ADD MLOAD PUSH2 0x261B PUSH1 0x1F DUP10 AND DUP3 PUSH2 0x2528 JUMP JUMPDEST DUP4 SSTORE POP JUMPDEST PUSH1 0x1 PUSH1 0x2 DUP9 MUL ADD DUP9 SSTORE POP POP POP JUMPDEST POP POP POP POP POP POP JUMP JUMPDEST PUSH2 0x263D DUP2 PUSH2 0x1AD2 JUMP JUMPDEST DUP3 MSTORE POP POP JUMP JUMPDEST PUSH1 0x0 PUSH1 0x40 DUP3 ADD SWAP1 POP PUSH2 0x2658 PUSH1 0x0 DUP4 ADD DUP6 PUSH2 0x2634 JUMP JUMPDEST DUP2 DUP2 SUB PUSH1 0x20 DUP4 ADD MSTORE PUSH2 0x266A DUP2 DUP5 PUSH2 0x2224 JUMP JUMPDEST SWAP1 POP SWAP4 SWAP3 POP POP POP JUMP JUMPDEST PUSH32 0x77697468647261776E5F6661696C5F6E616D655F6E6F745F6578697374000000 PUSH1 0x0 DUP3 ADD MSTORE POP JUMP JUMPDEST PUSH1 0x0 PUSH2 0x26A9 PUSH1 0x1D DUP4 PUSH2 0x1DE3 JUMP JUMPDEST SWAP2 POP PUSH2 0x26B4 DUP3 PUSH2 0x2673 JUMP JUMPDEST PUSH1 0x20 DUP3 ADD SWAP1 POP SWAP2 SWAP1 POP JUMP JUMPDEST PUSH1 0x0 PUSH1 0x20 DUP3 ADD SWAP1 POP DUP2 DUP2 SUB PUSH1 0x0 DUP4 ADD MSTORE PUSH2 0x26D8 DUP2 PUSH2 0x269C JUMP JUMPDEST SWAP1 POP SWAP2 SWAP1 POP JUMP JUMPDEST PUSH32 0x77697468647261776E5F6661696C5F6E6F745F6F776E65720000000000000000 PUSH1 0x0 DUP3 ADD MSTORE POP JUMP JUMPDEST PUSH1 0x0 PUSH2 0x2715 PUSH1 0x18 DUP4 PUSH2 0x1DE3 JUMP JUMPDEST SWAP2 POP PUSH2 0x2720 DUP3 PUSH2 0x26DF JUMP JUMPDEST PUSH1 0x20 DUP3 ADD SWAP1 POP SWAP2 SWAP1 POP JUMP JUMPDEST PUSH1 0x0 PUSH1 0x20 DUP3 ADD SWAP1 POP DUP2 DUP2 SUB PUSH1 0x0 DUP4 ADD MSTORE PUSH2 0x2744 DUP2 PUSH2 0x2708 JUMP JUMPDEST SWAP1 POP SWAP2 SWAP1 POP JUMP JUMPDEST PUSH32 0x77697468647261776E5F6661696C5F76616C75655F7A65726F00000000000000 PUSH1 0x0 DUP3 ADD MSTORE POP JUMP JUMPDEST PUSH1 0x0 PUSH2 0x2781 PUSH1 0x19 DUP4 PUSH2 0x1DE3 JUMP JUMPDEST SWAP2 POP PUSH2 0x278C DUP3 PUSH2 0x274B JUMP JUMPDEST PUSH1 0x20 DUP3 ADD SWAP1 POP SWAP2 SWAP1 POP JUMP JUMPDEST PUSH1 0x0 PUSH1 0x20 DUP3 ADD SWAP1 POP DUP2 DUP2 SUB PUSH1 0x0 DUP4 ADD MSTORE PUSH2 0x27B0 DUP2 PUSH2 0x2774 JUMP JUMPDEST SWAP1 POP SWAP2 SWAP1 POP JUMP JUMPDEST PUSH32 0x77697468647261776E5F6661696C5F62616C616E63655F6E6F745F656E6F7567 PUSH1 0x0 DUP3 ADD MSTORE PUSH32 0x6800000000000000000000000000000000000000000000000000000000000000 PUSH1 0x20 DUP3 ADD MSTORE POP JUMP JUMPDEST PUSH1 0x0 PUSH2 0x2813 PUSH1 0x21 DUP4 PUSH2 0x1DE3 JUMP JUMPDEST SWAP2 POP PUSH2 0x281E DUP3 PUSH2 0x27B7 JUMP JUMPDEST PUSH1 0x40 DUP3 ADD SWAP1 POP SWAP2 SWAP1 POP JUMP JUMPDEST PUSH1 0x0 PUSH1 0x20 DUP3 ADD SWAP1 POP DUP2 DUP2 SUB PUSH1 0x0 DUP4 ADD MSTORE PUSH2 0x2842 DUP2 PUSH2 0x2806 JUMP JUMPDEST SWAP1 POP SWAP2 SWAP1 POP JUMP JUMPDEST PUSH1 0x0 PUSH1 0x60 DUP3 ADD SWAP1 POP DUP2 DUP2 SUB PUSH1 0x0 DUP4 ADD MSTORE PUSH2 0x2863 DUP2 DUP7 PUSH2 0x2224 JUMP JUMPDEST SWAP1 POP PUSH2 0x2872 PUSH1 0x20 DUP4 ADD DUP6 PUSH2 0x2634 JUMP JUMPDEST PUSH2 0x287F PUSH1 0x40 DUP4 ADD DUP5 PUSH2 0x1CA9 JUMP JUMPDEST SWAP5 SWAP4 POP POP POP POP JUMP JUMPDEST PUSH32 0x6465706F7369745F6661696C5F6E616D655F6E6F745F65786973740000000000 PUSH1 0x0 DUP3 ADD MSTORE POP JUMP JUMPDEST PUSH1 0x0 PUSH2 0x28BD PUSH1 0x1B DUP4 PUSH2 0x1DE3 JUMP JUMPDEST SWAP2 POP PUSH2 0x28C8 DUP3 PUSH2 0x2887 JUMP JUMPDEST PUSH1 0x20 DUP3 ADD SWAP1 POP SWAP2 SWAP1 POP JUMP JUMPDEST PUSH1 0x0 PUSH1 0x20 DUP3 ADD SWAP1 POP DUP2 DUP2 SUB PUSH1 0x0 DUP4 ADD MSTORE PUSH2 0x28EC DUP2 PUSH2 0x28B0 JUMP JUMPDEST SWAP1 POP SWAP2 SWAP1 POP JUMP JUMPDEST PUSH32 0x6465706F7369745F6661696C5F76616C75655F7A65726F000000000000000000 PUSH1 0x0 DUP3 ADD MSTORE POP JUMP JUMPDEST PUSH1 0x0 PUSH2 0x2929 PUSH1 0x17 DUP4 PUSH2 0x1DE3 JUMP JUMPDEST SWAP2 POP PUSH2 0x2934 DUP3 PUSH2 0x28F3 JUMP JUMPDEST PUSH1 0x20 DUP3 ADD SWAP1 POP SWAP2 SWAP1 POP JUMP JUMPDEST PUSH1 0x0 PUSH1 0x20 DUP3 ADD SWAP1 POP DUP2 DUP2 SUB PUSH1 0x0 DUP4 ADD MSTORE PUSH2 0x2958 DUP2 PUSH2 0x291C JUMP JUMPDEST SWAP1 POP SWAP2 SWAP1 POP JUMP JUMPDEST PUSH1 0x0 PUSH1 0x60 DUP3 ADD SWAP1 POP PUSH2 0x2974 PUSH1 0x0 DUP4 ADD DUP7 PUSH2 0x2634 JUMP JUMPDEST DUP2 DUP2 SUB PUSH1 0x20 DUP4 ADD MSTORE PUSH2 0x2986 DUP2 DUP6 PUSH2 0x2224 JUMP JUMPDEST SWAP1 POP PUSH2 0x2995 PUSH1 0x40 DUP4 ADD DUP5 PUSH2 0x1CA9 JUMP JUMPDEST SWAP5 SWAP4 POP POP POP POP JUMP INVALID LOG2 PUSH5 0x6970667358 0x22 SLT KECCAK256 CALLDATALOAD PUSH25 0x12DF67B056F22873B8F74C8D13E790AB06E5B6CB28A2629653 EXTCODESIZE PUSH15 0xE8C70164736F6C634300080F003300 "
				},
				"gasEstimates": {
					"creation": {
						"codeDepositCost": "2141400",
						"executionCost": "31560",
						"totalCost": "2172960"
					},
					"external": {
						"addAccount(string)": "infinite",
						"deposit(string)": "infinite",
						"getAccountByName(string)": "infinite",
						"getBalanceByName(string)": "infinite",
						"getUserAccounts(address)": "infinite",
						"transferAmount(string,string,uint256)": "infinite",
						"transferAmountList(string,string[],uint256)": "infinite",
						"withdrawn(string,uint256)": "infinite",
						"withdrawnBankBalance(uint256)": "infinite"
					}
				},
				"methodIdentifiers": {
					"addAccount(string)": "2ad26a04",
					"deposit(string)": "a26e1186",
					"getAccountByName(string)": "df4734ed",
					"getBalanceByName(string)": "ca1ae01c",
					"getUserAccounts(address)": "ad872a86",
					"transferAmount(string,string,uint256)": "5e345810",
					"transferAmountList(string,string[],uint256)": "16dfc5b2",
					"withdrawn(string,uint256)": "358eecb6",
					"withdrawnBankBalance(uint256)": "f8a0e8c3"
				}
			},
			"storageLayout": {
				"storage": [
					{
						"astId": 3,
						"contract": "contracts/SimpleBank/SimpleBank.sol:SimpleBank",
						"label": "bankOwner",
						"offset": 0,
						"slot": "0",
						"type": "t_address"
					},
					{
						"astId": 5,
						"contract": "contracts/SimpleBank/SimpleBank.sol:SimpleBank",
						"label": "bankBalance",
						"offset": 0,
						"slot": "1",
						"type": "t_uint256"
					},
					{
						"astId": 17,
						"contract": "contracts/SimpleBank/SimpleBank.sol:SimpleBank",
						"label": "userAccounts",
						"offset": 0,
						"slot": "2",
						"type": "t_mapping(t_address,t_array(t_string_storage)dyn_storage)"
					},
					{
						"astId": 22,
						"contract": "contracts/SimpleBank/SimpleBank.sol:SimpleBank",
						"label": "accounts",
						"offset": 0,
						"slot": "3",
						"type": "t_mapping(t_string_memory_ptr,t_struct(Account)12_storage)"
					},
					{
						"astId": 26,
						"contract": "contracts/SimpleBank/SimpleBank.sol:SimpleBank",
						"label": "isAccountNameExist",
						"offset": 0,
						"slot": "4",
						"type": "t_mapping(t_string_memory_ptr,t_bool)"
					}
				],
				"types": {
					"t_address": {
						"encoding": "inplace",
						"label": "address",
						"numberOfBytes": "20"
					},
					"t_array(t_string_storage)dyn_storage": {
						"base": "t_string_storage",
						"encoding": "dynamic_array",
						"label": "string[]",
						"numberOfBytes": "32"
					},
					"t_bool": {
						"encoding": "inplace",
						"label": "bool",
						"numberOfBytes": "1"
					},
					"t_mapping(t_address,t_array(t_string_storage)dyn_storage)": {
						"encoding": "mapping",
						"key": "t_address",
						"label": "mapping(address => string[])",
						"numberOfBytes": "32",
						"value": "t_array(t_string_storage)dyn_storage"
					},
					"t_mapping(t_string_memory_ptr,t_bool)": {
						"encoding": "mapping",
						"key": "t_string_memory_ptr",
						"label": "mapping(string => bool)",
						"numberOfBytes": "32",
						"value": "t_bool"
					},
					"t_mapping(t_string_memory_ptr,t_struct(Account)12_storage)": {
						"encoding": "mapping",
						"key": "t_string_memory_ptr",
						"label": "mapping(string => struct SimpleBank.Account)",
						"numberOfBytes": "32",
						"value": "t_struct(Account)12_storage"
					},
					"t_string_memory_ptr": {
						"encoding": "bytes",
						"label": "string",
						"numberOfBytes": "32"
					},
					"t_string_storage": {
						"encoding": "bytes",
						"label": "string",
						"numberOfBytes": "32"
					},
					"t_struct(Account)12_storage": {
						"encoding": "inplace",
						"label": "struct SimpleBank.Account",
						"members": [
							{
								"astId": 7,
								"contract": "contracts/SimpleBank/SimpleBank.sol:SimpleBank",
								"label": "owner",
								"offset": 0,
								"slot": "0",
								"type": "t_address"
							},
							{
								"astId": 9,
								"contract": "contracts/SimpleBank/SimpleBank.sol:SimpleBank",
								"label": "name",
								"offset": 0,
								"slot": "1",
								"type": "t_string_storage"
							},
							{
								"astId": 11,
								"contract": "contracts/SimpleBank/SimpleBank.sol:SimpleBank",
								"label": "balance",
								"offset": 0,
								"slot": "2",
								"type": "t_uint256"
							}
						],
						"numberOfBytes": "96"
					},
					"t_uint256": {
						"encoding": "inplace",
						"label": "uint256",
						"numberOfBytes": "32"
					}
				}
			},
			"userdoc": {
				"kind": "user",
				"methods": {},
				"version": 1
			}
		}
	}
}