{
	"contracts/SimpleBank/SimpleBank.sol": {
		"SimpleBank": {
			"abi": [
				{
					"inputs": [],
					"stateMutability": "nonpayable",
					"type": "constructor"
				},
				{
					"anonymous": false,
					"inputs": [
						{
							"indexed": false,
							"internalType": "address",
							"name": "_user",
							"type": "address"
						},
						{
							"indexed": false,
							"internalType": "string",
							"name": "_name",
							"type": "string"
						}
					],
					"name": "AddAccountEvent",
					"type": "event"
				},
				{
					"anonymous": false,
					"inputs": [
						{
							"indexed": false,
							"internalType": "address",
							"name": "_from",
							"type": "address"
						},
						{
							"indexed": false,
							"internalType": "string",
							"name": "_to",
							"type": "string"
						},
						{
							"indexed": false,
							"internalType": "uint256",
							"name": "_amount",
							"type": "uint256"
						}
					],
					"name": "DepositEvent",
					"type": "event"
				},
				{
					"anonymous": false,
					"inputs": [
						{
							"indexed": false,
							"internalType": "string",
							"name": "_from",
							"type": "string"
						},
						{
							"indexed": false,
							"internalType": "string",
							"name": "_to",
							"type": "string"
						},
						{
							"indexed": false,
							"internalType": "uint256",
							"name": "_amount",
							"type": "uint256"
						}
					],
					"name": "TransferAmountEvent",
					"type": "event"
				},
				{
					"anonymous": false,
					"inputs": [
						{
							"indexed": false,
							"internalType": "string",
							"name": "_from",
							"type": "string"
						},
						{
							"indexed": false,
							"internalType": "address",
							"name": "_to",
							"type": "address"
						},
						{
							"indexed": false,
							"internalType": "uint256",
							"name": "_amount",
							"type": "uint256"
						}
					],
					"name": "WithdrawnEvent",
					"type": "event"
				},
				{
					"inputs": [
						{
							"internalType": "string",
							"name": "_name",
							"type": "string"
						}
					],
					"name": "addAccount",
					"outputs": [],
					"stateMutability": "nonpayable",
					"type": "function"
				},
				{
					"inputs": [
						{
							"internalType": "string",
							"name": "_name",
							"type": "string"
						}
					],
					"name": "deposit",
					"outputs": [],
					"stateMutability": "payable",
					"type": "function"
				},
				{
					"inputs": [
						{
							"internalType": "string",
							"name": "_name",
							"type": "string"
						}
					],
					"name": "getAccountByName",
					"outputs": [
						{
							"components": [
								{
									"internalType": "address",
									"name": "owner",
									"type": "address"
								},
								{
									"internalType": "string",
									"name": "name",
									"type": "string"
								},
								{
									"internalType": "uint256",
									"name": "balance",
									"type": "uint256"
								}
							],
							"internalType": "struct SimpleBank.Account",
							"name": "",
							"type": "tuple"
						}
					],
					"stateMutability": "view",
					"type": "function"
				},
				{
					"inputs": [
						{
							"internalType": "string",
							"name": "_name",
							"type": "string"
						}
					],
					"name": "getBalanceByName",
					"outputs": [
						{
							"internalType": "uint256",
							"name": "",
							"type": "uint256"
						}
					],
					"stateMutability": "view",
					"type": "function"
				},
				{
					"inputs": [],
					"name": "getBankBalance",
					"outputs": [
						{
							"internalType": "uint256",
							"name": "",
							"type": "uint256"
						}
					],
					"stateMutability": "view",
					"type": "function"
				},
				{
					"inputs": [],
					"name": "getBankOwner",
					"outputs": [
						{
							"internalType": "address",
							"name": "",
							"type": "address"
						}
					],
					"stateMutability": "view",
					"type": "function"
				},
				{
					"inputs": [],
					"name": "getUserAccounts",
					"outputs": [
						{
							"internalType": "string[]",
							"name": "",
							"type": "string[]"
						}
					],
					"stateMutability": "view",
					"type": "function"
				},
				{
					"inputs": [
						{
							"internalType": "string",
							"name": "_from",
							"type": "string"
						},
						{
							"internalType": "string",
							"name": "_to",
							"type": "string"
						},
						{
							"internalType": "uint256",
							"name": "_amount",
							"type": "uint256"
						}
					],
					"name": "transferAmount",
					"outputs": [],
					"stateMutability": "nonpayable",
					"type": "function"
				},
				{
					"inputs": [
						{
							"internalType": "string",
							"name": "_from",
							"type": "string"
						},
						{
							"internalType": "string[]",
							"name": "_tos",
							"type": "string[]"
						},
						{
							"internalType": "uint256",
							"name": "_amount",
							"type": "uint256"
						}
					],
					"name": "transferAmountList",
					"outputs": [],
					"stateMutability": "nonpayable",
					"type": "function"
				},
				{
					"inputs": [
						{
							"internalType": "string",
							"name": "_name",
							"type": "string"
						},
						{
							"internalType": "uint256",
							"name": "_amount",
							"type": "uint256"
						}
					],
					"name": "withdrawn",
					"outputs": [],
					"stateMutability": "nonpayable",
					"type": "function"
				},
				{
					"inputs": [
						{
							"internalType": "uint256",
							"name": "_amount",
							"type": "uint256"
						}
					],
					"name": "withdrawnBankBalance",
					"outputs": [],
					"stateMutability": "nonpayable",
					"type": "function"
				}
			],
			"devdoc": {
				"kind": "dev",
				"methods": {},
				"version": 1
			},
			"evm": {
				"assembly": "    /* \"contracts/SimpleBank/SimpleBank.sol\":62:5897  contract SimpleBank {... */\n  mstore(0x40, 0x80)\n    /* \"contracts/SimpleBank/SimpleBank.sol\":385:466  constructor() {... */\n  callvalue\n  dup1\n  iszero\n  tag_1\n  jumpi\n  0x00\n  dup1\n  revert\ntag_1:\n  pop\n    /* \"contracts/SimpleBank/SimpleBank.sol\":422:432  msg.sender */\n  caller\n    /* \"contracts/SimpleBank/SimpleBank.sol\":410:419  bankOwner */\n  0x00\n  dup1\n    /* \"contracts/SimpleBank/SimpleBank.sol\":410:432  bankOwner = msg.sender */\n  0x0100\n  exp\n  dup2\n  sload\n  dup2\n  0xffffffffffffffffffffffffffffffffffffffff\n  mul\n  not\n  and\n  swap1\n  dup4\n  0xffffffffffffffffffffffffffffffffffffffff\n  and\n  mul\n  or\n  swap1\n  sstore\n  pop\n    /* \"contracts/SimpleBank/SimpleBank.sol\":457:458  0 */\n  0x00\n    /* \"contracts/SimpleBank/SimpleBank.sol\":443:454  bankBalance */\n  0x01\n    /* \"contracts/SimpleBank/SimpleBank.sol\":443:458  bankBalance = 0 */\n  dup2\n  swap1\n  sstore\n  pop\n    /* \"contracts/SimpleBank/SimpleBank.sol\":62:5897  contract SimpleBank {... */\n  dataSize(sub_0)\n  dup1\n  dataOffset(sub_0)\n  0x00\n  codecopy\n  0x00\n  return\nstop\n\nsub_0: assembly {\n        /* \"contracts/SimpleBank/SimpleBank.sol\":62:5897  contract SimpleBank {... */\n      mstore(0x40, 0x80)\n      jumpi(tag_1, lt(calldatasize, 0x04))\n      shr(0xe0, calldataload(0x00))\n      dup1\n      0xa26e1186\n      gt\n      tag_13\n      jumpi\n      dup1\n      0xa26e1186\n      eq\n      tag_7\n      jumpi\n      dup1\n      0xa43e567a\n      eq\n      tag_8\n      jumpi\n      dup1\n      0xb2277d2c\n      eq\n      tag_9\n      jumpi\n      dup1\n      0xca1ae01c\n      eq\n      tag_10\n      jumpi\n      dup1\n      0xdf4734ed\n      eq\n      tag_11\n      jumpi\n      dup1\n      0xf8a0e8c3\n      eq\n      tag_12\n      jumpi\n      jump(tag_1)\n    tag_13:\n      dup1\n      0x16dfc5b2\n      eq\n      tag_2\n      jumpi\n      dup1\n      0x2ad26a04\n      eq\n      tag_3\n      jumpi\n      dup1\n      0x358eecb6\n      eq\n      tag_4\n      jumpi\n      dup1\n      0x5e345810\n      eq\n      tag_5\n      jumpi\n      dup1\n      0x7b83b50b\n      eq\n      tag_6\n      jumpi\n    tag_1:\n      0x00\n      dup1\n      revert\n        /* \"contracts/SimpleBank/SimpleBank.sol\":3716:5242  function transferAmountList(... */\n    tag_2:\n      callvalue\n      dup1\n      iszero\n      tag_14\n      jumpi\n      0x00\n      dup1\n      revert\n    tag_14:\n      pop\n      tag_15\n      0x04\n      dup1\n      calldatasize\n      sub\n      dup2\n      add\n      swap1\n      tag_16\n      swap2\n      swap1\n      tag_17\n      jump\t// in\n    tag_16:\n      tag_18\n      jump\t// in\n    tag_15:\n      stop\n        /* \"contracts/SimpleBank/SimpleBank.sol\":748:1124  function addAccount(string memory _name) public {... */\n    tag_3:\n      callvalue\n      dup1\n      iszero\n      tag_19\n      jumpi\n      0x00\n      dup1\n      revert\n    tag_19:\n      pop\n      tag_20\n      0x04\n      dup1\n      calldatasize\n      sub\n      dup2\n      add\n      swap1\n      tag_21\n      swap2\n      swap1\n      tag_22\n      jump\t// in\n    tag_21:\n      tag_23\n      jump\t// in\n    tag_20:\n      stop\n        /* \"contracts/SimpleBank/SimpleBank.sol\":1487:2141  function withdrawn(string memory _name, uint256 _amount) public {... */\n    tag_4:\n      callvalue\n      dup1\n      iszero\n      tag_24\n      jumpi\n      0x00\n      dup1\n      revert\n    tag_24:\n      pop\n      tag_25\n      0x04\n      dup1\n      calldatasize\n      sub\n      dup2\n      add\n      swap1\n      tag_26\n      swap2\n      swap1\n      tag_27\n      jump\t// in\n    tag_26:\n      tag_28\n      jump\t// in\n    tag_25:\n      stop\n        /* \"contracts/SimpleBank/SimpleBank.sol\":2149:3347  function transferAmount(... */\n    tag_5:\n      callvalue\n      dup1\n      iszero\n      tag_29\n      jumpi\n      0x00\n      dup1\n      revert\n    tag_29:\n      pop\n      tag_30\n      0x04\n      dup1\n      calldatasize\n      sub\n      dup2\n      add\n      swap1\n      tag_31\n      swap2\n      swap1\n      tag_32\n      jump\t// in\n    tag_31:\n      tag_33\n      jump\t// in\n    tag_30:\n      stop\n        /* \"contracts/SimpleBank/SimpleBank.sol\":5801:5894  function getBankBalance() public view returns (uint256) {... */\n    tag_6:\n      callvalue\n      dup1\n      iszero\n      tag_34\n      jumpi\n      0x00\n      dup1\n      revert\n    tag_34:\n      pop\n      tag_35\n      tag_36\n      jump\t// in\n    tag_35:\n      mload(0x40)\n      tag_37\n      swap2\n      swap1\n      tag_38\n      jump\t// in\n    tag_37:\n      mload(0x40)\n      dup1\n      swap2\n      sub\n      swap1\n      return\n        /* \"contracts/SimpleBank/SimpleBank.sol\":1132:1479  function deposit(string memory _name) public payable {... */\n    tag_7:\n      tag_39\n      0x04\n      dup1\n      calldatasize\n      sub\n      dup2\n      add\n      swap1\n      tag_40\n      swap2\n      swap1\n      tag_22\n      jump\t// in\n    tag_40:\n      tag_41\n      jump\t// in\n    tag_39:\n      stop\n        /* \"contracts/SimpleBank/SimpleBank.sol\":5581:5696  function getUserAccounts() public view returns (string[] memory) {... */\n    tag_8:\n      callvalue\n      dup1\n      iszero\n      tag_42\n      jumpi\n      0x00\n      dup1\n      revert\n    tag_42:\n      pop\n      tag_43\n      tag_44\n      jump\t// in\n    tag_43:\n      mload(0x40)\n      tag_45\n      swap2\n      swap1\n      tag_46\n      jump\t// in\n    tag_45:\n      mload(0x40)\n      dup1\n      swap2\n      sub\n      swap1\n      return\n        /* \"contracts/SimpleBank/SimpleBank.sol\":5704:5793  function getBankOwner() public view returns (address) {... */\n    tag_9:\n      callvalue\n      dup1\n      iszero\n      tag_47\n      jumpi\n      0x00\n      dup1\n      revert\n    tag_47:\n      pop\n      tag_48\n      tag_49\n      jump\t// in\n    tag_48:\n      mload(0x40)\n      tag_50\n      swap2\n      swap1\n      tag_51\n      jump\t// in\n    tag_50:\n      mload(0x40)\n      dup1\n      swap2\n      sub\n      swap1\n      return\n        /* \"contracts/SimpleBank/SimpleBank.sol\":5415:5573  function getBalanceByName(string memory _name)... */\n    tag_10:\n      callvalue\n      dup1\n      iszero\n      tag_52\n      jumpi\n      0x00\n      dup1\n      revert\n    tag_52:\n      pop\n      tag_53\n      0x04\n      dup1\n      calldatasize\n      sub\n      dup2\n      add\n      swap1\n      tag_54\n      swap2\n      swap1\n      tag_22\n      jump\t// in\n    tag_54:\n      tag_55\n      jump\t// in\n    tag_53:\n      mload(0x40)\n      tag_56\n      swap2\n      swap1\n      tag_38\n      jump\t// in\n    tag_56:\n      mload(0x40)\n      dup1\n      swap2\n      sub\n      swap1\n      return\n        /* \"contracts/SimpleBank/SimpleBank.sol\":5250:5407  function getAccountByName(string memory _name)... */\n    tag_11:\n      callvalue\n      dup1\n      iszero\n      tag_57\n      jumpi\n      0x00\n      dup1\n      revert\n    tag_57:\n      pop\n      tag_58\n      0x04\n      dup1\n      calldatasize\n      sub\n      dup2\n      add\n      swap1\n      tag_59\n      swap2\n      swap1\n      tag_22\n      jump\t// in\n    tag_59:\n      tag_60\n      jump\t// in\n    tag_58:\n      mload(0x40)\n      tag_61\n      swap2\n      swap1\n      tag_62\n      jump\t// in\n    tag_61:\n      mload(0x40)\n      dup1\n      swap2\n      sub\n      swap1\n      return\n        /* \"contracts/SimpleBank/SimpleBank.sol\":3355:3708  function withdrawnBankBalance(uint256 _amount) public {... */\n    tag_12:\n      callvalue\n      dup1\n      iszero\n      tag_63\n      jumpi\n      0x00\n      dup1\n      revert\n    tag_63:\n      pop\n      tag_64\n      0x04\n      dup1\n      calldatasize\n      sub\n      dup2\n      add\n      swap1\n      tag_65\n      swap2\n      swap1\n      tag_66\n      jump\t// in\n    tag_65:\n      tag_67\n      jump\t// in\n    tag_64:\n      stop\n        /* \"contracts/SimpleBank/SimpleBank.sol\":3716:5242  function transferAmountList(... */\n    tag_18:\n        /* \"contracts/SimpleBank/SimpleBank.sol\":3907:3911  true */\n      0x01\n        /* \"contracts/SimpleBank/SimpleBank.sol\":3878:3911  isAccountNameExist[_from] == true */\n      iszero\n      iszero\n        /* \"contracts/SimpleBank/SimpleBank.sol\":3878:3896  isAccountNameExist */\n      0x04\n        /* \"contracts/SimpleBank/SimpleBank.sol\":3897:3902  _from */\n      dup5\n        /* \"contracts/SimpleBank/SimpleBank.sol\":3878:3903  isAccountNameExist[_from] */\n      mload(0x40)\n      tag_69\n      swap2\n      swap1\n      tag_70\n      jump\t// in\n    tag_69:\n      swap1\n      dup2\n      mstore\n      0x20\n      add\n      mload(0x40)\n      dup1\n      swap2\n      sub\n      swap1\n      keccak256\n      0x00\n      swap1\n      sload\n      swap1\n      0x0100\n      exp\n      swap1\n      div\n      0xff\n      and\n        /* \"contracts/SimpleBank/SimpleBank.sol\":3878:3911  isAccountNameExist[_from] == true */\n      iszero\n      iszero\n      eq\n        /* \"contracts/SimpleBank/SimpleBank.sol\":3856:3972  require(... */\n      tag_71\n      jumpi\n      mload(0x40)\n      0x08c379a000000000000000000000000000000000000000000000000000000000\n      dup2\n      mstore\n      0x04\n      add\n      tag_72\n      swap1\n      tag_73\n      jump\t// in\n    tag_72:\n      mload(0x40)\n      dup1\n      swap2\n      sub\n      swap1\n      revert\n    tag_71:\n        /* \"contracts/SimpleBank/SimpleBank.sol\":4030:4040  msg.sender */\n      caller\n        /* \"contracts/SimpleBank/SimpleBank.sol\":4005:4040  accounts[_from].owner == msg.sender */\n      0xffffffffffffffffffffffffffffffffffffffff\n      and\n        /* \"contracts/SimpleBank/SimpleBank.sol\":4005:4013  accounts */\n      0x03\n        /* \"contracts/SimpleBank/SimpleBank.sol\":4014:4019  _from */\n      dup5\n        /* \"contracts/SimpleBank/SimpleBank.sol\":4005:4020  accounts[_from] */\n      mload(0x40)\n      tag_74\n      swap2\n      swap1\n      tag_70\n      jump\t// in\n    tag_74:\n      swap1\n      dup2\n      mstore\n      0x20\n      add\n      mload(0x40)\n      dup1\n      swap2\n      sub\n      swap1\n      keccak256\n        /* \"contracts/SimpleBank/SimpleBank.sol\":4005:4026  accounts[_from].owner */\n      0x00\n      add\n      0x00\n      swap1\n      sload\n      swap1\n      0x0100\n      exp\n      swap1\n      div\n      0xffffffffffffffffffffffffffffffffffffffff\n      and\n        /* \"contracts/SimpleBank/SimpleBank.sol\":4005:4040  accounts[_from].owner == msg.sender */\n      0xffffffffffffffffffffffffffffffffffffffff\n      and\n      eq\n        /* \"contracts/SimpleBank/SimpleBank.sol\":3983:4096  require(... */\n      tag_75\n      jumpi\n      mload(0x40)\n      0x08c379a000000000000000000000000000000000000000000000000000000000\n      dup2\n      mstore\n      0x04\n      add\n      tag_76\n      swap1\n      tag_77\n      jump\t// in\n    tag_76:\n      mload(0x40)\n      dup1\n      swap2\n      sub\n      swap1\n      revert\n    tag_75:\n        /* \"contracts/SimpleBank/SimpleBank.sol\":4126:4129  100 */\n      0x64\n        /* \"contracts/SimpleBank/SimpleBank.sol\":4115:4122  _amount */\n      dup2\n        /* \"contracts/SimpleBank/SimpleBank.sol\":4115:4129  _amount >= 100 */\n      lt\n      iszero\n        /* \"contracts/SimpleBank/SimpleBank.sol\":4107:4167  require(_amount >= 100, \"transfer_fail_value_less_than_100\") */\n      tag_78\n      jumpi\n      mload(0x40)\n      0x08c379a000000000000000000000000000000000000000000000000000000000\n      dup2\n      mstore\n      0x04\n      add\n      tag_79\n      swap1\n      tag_80\n      jump\t// in\n    tag_79:\n      mload(0x40)\n      dup1\n      swap2\n      sub\n      swap1\n      revert\n    tag_78:\n        /* \"contracts/SimpleBank/SimpleBank.sol\":4237:4241  _tos */\n      dup2\n        /* \"contracts/SimpleBank/SimpleBank.sol\":4237:4248  _tos.length */\n      mload\n        /* \"contracts/SimpleBank/SimpleBank.sol\":4227:4234  _amount */\n      dup2\n        /* \"contracts/SimpleBank/SimpleBank.sol\":4227:4248  _amount * _tos.length */\n      tag_81\n      swap2\n      swap1\n      tag_82\n      jump\t// in\n    tag_81:\n        /* \"contracts/SimpleBank/SimpleBank.sol\":4200:4208  accounts */\n      0x03\n        /* \"contracts/SimpleBank/SimpleBank.sol\":4209:4214  _from */\n      dup5\n        /* \"contracts/SimpleBank/SimpleBank.sol\":4200:4215  accounts[_from] */\n      mload(0x40)\n      tag_83\n      swap2\n      swap1\n      tag_70\n      jump\t// in\n    tag_83:\n      swap1\n      dup2\n      mstore\n      0x20\n      add\n      mload(0x40)\n      dup1\n      swap2\n      sub\n      swap1\n      keccak256\n        /* \"contracts/SimpleBank/SimpleBank.sol\":4200:4223  accounts[_from].balance */\n      0x02\n      add\n      sload\n        /* \"contracts/SimpleBank/SimpleBank.sol\":4200:4248  accounts[_from].balance >= _amount * _tos.length */\n      lt\n      iszero\n        /* \"contracts/SimpleBank/SimpleBank.sol\":4178:4313  require(... */\n      tag_84\n      jumpi\n      mload(0x40)\n      0x08c379a000000000000000000000000000000000000000000000000000000000\n      dup2\n      mstore\n      0x04\n      add\n      tag_85\n      swap1\n      tag_86\n      jump\t// in\n    tag_85:\n      mload(0x40)\n      dup1\n      swap2\n      sub\n      swap1\n      revert\n    tag_84:\n        /* \"contracts/SimpleBank/SimpleBank.sol\":4329:4338  uint256 i */\n      0x00\n        /* \"contracts/SimpleBank/SimpleBank.sol\":4324:5235  for (uint256 i = 0; i < _tos.length; i++) {... */\n    tag_87:\n        /* \"contracts/SimpleBank/SimpleBank.sol\":4348:4352  _tos */\n      dup3\n        /* \"contracts/SimpleBank/SimpleBank.sol\":4348:4359  _tos.length */\n      mload\n        /* \"contracts/SimpleBank/SimpleBank.sol\":4344:4345  i */\n      dup2\n        /* \"contracts/SimpleBank/SimpleBank.sol\":4344:4359  i < _tos.length */\n      lt\n        /* \"contracts/SimpleBank/SimpleBank.sol\":4324:5235  for (uint256 i = 0; i < _tos.length; i++) {... */\n      iszero\n      tag_88\n      jumpi\n        /* \"contracts/SimpleBank/SimpleBank.sol\":4438:4442  true */\n      0x01\n        /* \"contracts/SimpleBank/SimpleBank.sol\":4407:4442  isAccountNameExist[_tos[i]] == true */\n      iszero\n      iszero\n        /* \"contracts/SimpleBank/SimpleBank.sol\":4407:4425  isAccountNameExist */\n      0x04\n        /* \"contracts/SimpleBank/SimpleBank.sol\":4426:4430  _tos */\n      dup5\n        /* \"contracts/SimpleBank/SimpleBank.sol\":4431:4432  i */\n      dup4\n        /* \"contracts/SimpleBank/SimpleBank.sol\":4426:4433  _tos[i] */\n      dup2\n      mload\n      dup2\n      lt\n      tag_90\n      jumpi\n      tag_91\n      tag_92\n      jump\t// in\n    tag_91:\n    tag_90:\n      0x20\n      mul\n      0x20\n      add\n      add\n      mload\n        /* \"contracts/SimpleBank/SimpleBank.sol\":4407:4434  isAccountNameExist[_tos[i]] */\n      mload(0x40)\n      tag_93\n      swap2\n      swap1\n      tag_70\n      jump\t// in\n    tag_93:\n      swap1\n      dup2\n      mstore\n      0x20\n      add\n      mload(0x40)\n      dup1\n      swap2\n      sub\n      swap1\n      keccak256\n      0x00\n      swap1\n      sload\n      swap1\n      0x0100\n      exp\n      swap1\n      div\n      0xff\n      and\n        /* \"contracts/SimpleBank/SimpleBank.sol\":4407:4442  isAccountNameExist[_tos[i]] == true */\n      iszero\n      iszero\n      eq\n        /* \"contracts/SimpleBank/SimpleBank.sol\":4381:4509  require(... */\n      tag_94\n      jumpi\n      mload(0x40)\n      0x08c379a000000000000000000000000000000000000000000000000000000000\n      dup2\n      mstore\n      0x04\n      add\n      tag_95\n      swap1\n      tag_96\n      jump\t// in\n    tag_95:\n      mload(0x40)\n      dup1\n      swap2\n      sub\n      swap1\n      revert\n    tag_94:\n        /* \"contracts/SimpleBank/SimpleBank.sol\":4553:4561  accounts */\n      0x03\n        /* \"contracts/SimpleBank/SimpleBank.sol\":4562:4566  _tos */\n      dup4\n        /* \"contracts/SimpleBank/SimpleBank.sol\":4567:4568  i */\n      dup3\n        /* \"contracts/SimpleBank/SimpleBank.sol\":4562:4569  _tos[i] */\n      dup2\n      mload\n      dup2\n      lt\n      tag_97\n      jumpi\n      tag_98\n      tag_92\n      jump\t// in\n    tag_98:\n    tag_97:\n      0x20\n      mul\n      0x20\n      add\n      add\n      mload\n        /* \"contracts/SimpleBank/SimpleBank.sol\":4553:4570  accounts[_tos[i]] */\n      mload(0x40)\n      tag_99\n      swap2\n      swap1\n      tag_70\n      jump\t// in\n    tag_99:\n      swap1\n      dup2\n      mstore\n      0x20\n      add\n      mload(0x40)\n      dup1\n      swap2\n      sub\n      swap1\n      keccak256\n        /* \"contracts/SimpleBank/SimpleBank.sol\":4553:4576  accounts[_tos[i]].owner */\n      0x00\n      add\n      0x00\n      swap1\n      sload\n      swap1\n      0x0100\n      exp\n      swap1\n      div\n      0xffffffffffffffffffffffffffffffffffffffff\n      and\n        /* \"contracts/SimpleBank/SimpleBank.sol\":4528:4576  accounts[_from].owner != accounts[_tos[i]].owner */\n      0xffffffffffffffffffffffffffffffffffffffff\n      and\n        /* \"contracts/SimpleBank/SimpleBank.sol\":4528:4536  accounts */\n      0x03\n        /* \"contracts/SimpleBank/SimpleBank.sol\":4537:4542  _from */\n      dup6\n        /* \"contracts/SimpleBank/SimpleBank.sol\":4528:4543  accounts[_from] */\n      mload(0x40)\n      tag_100\n      swap2\n      swap1\n      tag_70\n      jump\t// in\n    tag_100:\n      swap1\n      dup2\n      mstore\n      0x20\n      add\n      mload(0x40)\n      dup1\n      swap2\n      sub\n      swap1\n      keccak256\n        /* \"contracts/SimpleBank/SimpleBank.sol\":4528:4549  accounts[_from].owner */\n      0x00\n      add\n      0x00\n      swap1\n      sload\n      swap1\n      0x0100\n      exp\n      swap1\n      div\n      0xffffffffffffffffffffffffffffffffffffffff\n      and\n        /* \"contracts/SimpleBank/SimpleBank.sol\":4528:4576  accounts[_from].owner != accounts[_tos[i]].owner */\n      0xffffffffffffffffffffffffffffffffffffffff\n      and\n      eq\n        /* \"contracts/SimpleBank/SimpleBank.sol\":4524:5224  if (accounts[_from].owner != accounts[_tos[i]].owner) {... */\n      tag_101\n      jumpi\n        /* \"contracts/SimpleBank/SimpleBank.sol\":4658:4662  true */\n      0x01\n        /* \"contracts/SimpleBank/SimpleBank.sol\":4627:4662  isAccountNameExist[_tos[i]] == true */\n      iszero\n      iszero\n        /* \"contracts/SimpleBank/SimpleBank.sol\":4627:4645  isAccountNameExist */\n      0x04\n        /* \"contracts/SimpleBank/SimpleBank.sol\":4646:4650  _tos */\n      dup5\n        /* \"contracts/SimpleBank/SimpleBank.sol\":4651:4652  i */\n      dup4\n        /* \"contracts/SimpleBank/SimpleBank.sol\":4646:4653  _tos[i] */\n      dup2\n      mload\n      dup2\n      lt\n      tag_102\n      jumpi\n      tag_103\n      tag_92\n      jump\t// in\n    tag_103:\n    tag_102:\n      0x20\n      mul\n      0x20\n      add\n      add\n      mload\n        /* \"contracts/SimpleBank/SimpleBank.sol\":4627:4654  isAccountNameExist[_tos[i]] */\n      mload(0x40)\n      tag_104\n      swap2\n      swap1\n      tag_70\n      jump\t// in\n    tag_104:\n      swap1\n      dup2\n      mstore\n      0x20\n      add\n      mload(0x40)\n      dup1\n      swap2\n      sub\n      swap1\n      keccak256\n      0x00\n      swap1\n      sload\n      swap1\n      0x0100\n      exp\n      swap1\n      div\n      0xff\n      and\n        /* \"contracts/SimpleBank/SimpleBank.sol\":4627:4662  isAccountNameExist[_tos[i]] == true */\n      iszero\n      iszero\n      eq\n        /* \"contracts/SimpleBank/SimpleBank.sol\":4597:4737  require(... */\n      tag_105\n      jumpi\n      mload(0x40)\n      0x08c379a000000000000000000000000000000000000000000000000000000000\n      dup2\n      mstore\n      0x04\n      add\n      tag_106\n      swap1\n      tag_96\n      jump\t// in\n    tag_106:\n      mload(0x40)\n      dup1\n      swap2\n      sub\n      swap1\n      revert\n    tag_105:\n        /* \"contracts/SimpleBank/SimpleBank.sol\":4756:4767  uint256 fee */\n      0x00\n        /* \"contracts/SimpleBank/SimpleBank.sol\":4780:4783  100 */\n      0x64\n        /* \"contracts/SimpleBank/SimpleBank.sol\":4770:4777  _amount */\n      dup4\n        /* \"contracts/SimpleBank/SimpleBank.sol\":4770:4783  _amount / 100 */\n      tag_107\n      swap2\n      swap1\n      tag_108\n      jump\t// in\n    tag_107:\n        /* \"contracts/SimpleBank/SimpleBank.sol\":4756:4783  uint256 fee = _amount / 100 */\n      swap1\n      pop\n        /* \"contracts/SimpleBank/SimpleBank.sol\":4817:4820  fee */\n      dup1\n        /* \"contracts/SimpleBank/SimpleBank.sol\":4802:4813  bankBalance */\n      0x01\n      0x00\n        /* \"contracts/SimpleBank/SimpleBank.sol\":4802:4820  bankBalance += fee */\n      dup3\n      dup3\n      sload\n      tag_109\n      swap2\n      swap1\n      tag_110\n      jump\t// in\n    tag_109:\n      swap3\n      pop\n      pop\n      dup2\n      swap1\n      sstore\n      pop\n        /* \"contracts/SimpleBank/SimpleBank.sol\":4866:4873  _amount */\n      dup3\n        /* \"contracts/SimpleBank/SimpleBank.sol\":4839:4847  accounts */\n      0x03\n        /* \"contracts/SimpleBank/SimpleBank.sol\":4848:4853  _from */\n      dup7\n        /* \"contracts/SimpleBank/SimpleBank.sol\":4839:4854  accounts[_from] */\n      mload(0x40)\n      tag_111\n      swap2\n      swap1\n      tag_70\n      jump\t// in\n    tag_111:\n      swap1\n      dup2\n      mstore\n      0x20\n      add\n      mload(0x40)\n      dup1\n      swap2\n      sub\n      swap1\n      keccak256\n        /* \"contracts/SimpleBank/SimpleBank.sol\":4839:4862  accounts[_from].balance */\n      0x02\n      add\n      0x00\n        /* \"contracts/SimpleBank/SimpleBank.sol\":4839:4873  accounts[_from].balance -= _amount */\n      dup3\n      dup3\n      sload\n      tag_112\n      swap2\n      swap1\n      tag_113\n      jump\t// in\n    tag_112:\n      swap3\n      pop\n      pop\n      dup2\n      swap1\n      sstore\n      pop\n        /* \"contracts/SimpleBank/SimpleBank.sol\":4932:4935  fee */\n      dup1\n        /* \"contracts/SimpleBank/SimpleBank.sol\":4922:4929  _amount */\n      dup4\n        /* \"contracts/SimpleBank/SimpleBank.sol\":4922:4935  _amount - fee */\n      tag_114\n      swap2\n      swap1\n      tag_113\n      jump\t// in\n    tag_114:\n        /* \"contracts/SimpleBank/SimpleBank.sol\":4892:4900  accounts */\n      0x03\n        /* \"contracts/SimpleBank/SimpleBank.sol\":4901:4905  _tos */\n      dup6\n        /* \"contracts/SimpleBank/SimpleBank.sol\":4906:4907  i */\n      dup5\n        /* \"contracts/SimpleBank/SimpleBank.sol\":4901:4908  _tos[i] */\n      dup2\n      mload\n      dup2\n      lt\n      tag_115\n      jumpi\n      tag_116\n      tag_92\n      jump\t// in\n    tag_116:\n    tag_115:\n      0x20\n      mul\n      0x20\n      add\n      add\n      mload\n        /* \"contracts/SimpleBank/SimpleBank.sol\":4892:4909  accounts[_tos[i]] */\n      mload(0x40)\n      tag_117\n      swap2\n      swap1\n      tag_70\n      jump\t// in\n    tag_117:\n      swap1\n      dup2\n      mstore\n      0x20\n      add\n      mload(0x40)\n      dup1\n      swap2\n      sub\n      swap1\n      keccak256\n        /* \"contracts/SimpleBank/SimpleBank.sol\":4892:4917  accounts[_tos[i]].balance */\n      0x02\n      add\n      0x00\n        /* \"contracts/SimpleBank/SimpleBank.sol\":4892:4936  accounts[_tos[i]].balance += (_amount - fee) */\n      dup3\n      dup3\n      sload\n      tag_118\n      swap2\n      swap1\n      tag_110\n      jump\t// in\n    tag_118:\n      swap3\n      pop\n      pop\n      dup2\n      swap1\n      sstore\n      pop\n        /* \"contracts/SimpleBank/SimpleBank.sol\":4960:5010  TransferAmountEvent(_from, _tos[i], _amount - fee) */\n      0x370044a47246afacf081fd58c8468a6482ebc8673d418e785b8d0492240f95de\n        /* \"contracts/SimpleBank/SimpleBank.sol\":4980:4985  _from */\n      dup6\n        /* \"contracts/SimpleBank/SimpleBank.sol\":4987:4991  _tos */\n      dup6\n        /* \"contracts/SimpleBank/SimpleBank.sol\":4992:4993  i */\n      dup5\n        /* \"contracts/SimpleBank/SimpleBank.sol\":4987:4994  _tos[i] */\n      dup2\n      mload\n      dup2\n      lt\n      tag_119\n      jumpi\n      tag_120\n      tag_92\n      jump\t// in\n    tag_120:\n    tag_119:\n      0x20\n      mul\n      0x20\n      add\n      add\n      mload\n        /* \"contracts/SimpleBank/SimpleBank.sol\":5006:5009  fee */\n      dup4\n        /* \"contracts/SimpleBank/SimpleBank.sol\":4996:5003  _amount */\n      dup7\n        /* \"contracts/SimpleBank/SimpleBank.sol\":4996:5009  _amount - fee */\n      tag_121\n      swap2\n      swap1\n      tag_113\n      jump\t// in\n    tag_121:\n        /* \"contracts/SimpleBank/SimpleBank.sol\":4960:5010  TransferAmountEvent(_from, _tos[i], _amount - fee) */\n      mload(0x40)\n      tag_122\n      swap4\n      swap3\n      swap2\n      swap1\n      tag_123\n      jump\t// in\n    tag_122:\n      mload(0x40)\n      dup1\n      swap2\n      sub\n      swap1\n      log1\n        /* \"contracts/SimpleBank/SimpleBank.sol\":4578:5026  {... */\n      pop\n        /* \"contracts/SimpleBank/SimpleBank.sol\":4524:5224  if (accounts[_from].owner != accounts[_tos[i]].owner) {... */\n      jump(tag_124)\n    tag_101:\n        /* \"contracts/SimpleBank/SimpleBank.sol\":5078:5085  _amount */\n      dup2\n        /* \"contracts/SimpleBank/SimpleBank.sol\":5051:5059  accounts */\n      0x03\n        /* \"contracts/SimpleBank/SimpleBank.sol\":5060:5065  _from */\n      dup6\n        /* \"contracts/SimpleBank/SimpleBank.sol\":5051:5066  accounts[_from] */\n      mload(0x40)\n      tag_125\n      swap2\n      swap1\n      tag_70\n      jump\t// in\n    tag_125:\n      swap1\n      dup2\n      mstore\n      0x20\n      add\n      mload(0x40)\n      dup1\n      swap2\n      sub\n      swap1\n      keccak256\n        /* \"contracts/SimpleBank/SimpleBank.sol\":5051:5074  accounts[_from].balance */\n      0x02\n      add\n      0x00\n        /* \"contracts/SimpleBank/SimpleBank.sol\":5051:5085  accounts[_from].balance -= _amount */\n      dup3\n      dup3\n      sload\n      tag_126\n      swap2\n      swap1\n      tag_113\n      jump\t// in\n    tag_126:\n      swap3\n      pop\n      pop\n      dup2\n      swap1\n      sstore\n      pop\n        /* \"contracts/SimpleBank/SimpleBank.sol\":5133:5140  _amount */\n      dup2\n        /* \"contracts/SimpleBank/SimpleBank.sol\":5104:5112  accounts */\n      0x03\n        /* \"contracts/SimpleBank/SimpleBank.sol\":5113:5117  _tos */\n      dup5\n        /* \"contracts/SimpleBank/SimpleBank.sol\":5118:5119  i */\n      dup4\n        /* \"contracts/SimpleBank/SimpleBank.sol\":5113:5120  _tos[i] */\n      dup2\n      mload\n      dup2\n      lt\n      tag_127\n      jumpi\n      tag_128\n      tag_92\n      jump\t// in\n    tag_128:\n    tag_127:\n      0x20\n      mul\n      0x20\n      add\n      add\n      mload\n        /* \"contracts/SimpleBank/SimpleBank.sol\":5104:5121  accounts[_tos[i]] */\n      mload(0x40)\n      tag_129\n      swap2\n      swap1\n      tag_70\n      jump\t// in\n    tag_129:\n      swap1\n      dup2\n      mstore\n      0x20\n      add\n      mload(0x40)\n      dup1\n      swap2\n      sub\n      swap1\n      keccak256\n        /* \"contracts/SimpleBank/SimpleBank.sol\":5104:5129  accounts[_tos[i]].balance */\n      0x02\n      add\n      0x00\n        /* \"contracts/SimpleBank/SimpleBank.sol\":5104:5140  accounts[_tos[i]].balance += _amount */\n      dup3\n      dup3\n      sload\n      tag_130\n      swap2\n      swap1\n      tag_110\n      jump\t// in\n    tag_130:\n      swap3\n      pop\n      pop\n      dup2\n      swap1\n      sstore\n      pop\n        /* \"contracts/SimpleBank/SimpleBank.sol\":5164:5208  TransferAmountEvent(_from, _tos[i], _amount) */\n      0x370044a47246afacf081fd58c8468a6482ebc8673d418e785b8d0492240f95de\n        /* \"contracts/SimpleBank/SimpleBank.sol\":5184:5189  _from */\n      dup5\n        /* \"contracts/SimpleBank/SimpleBank.sol\":5191:5195  _tos */\n      dup5\n        /* \"contracts/SimpleBank/SimpleBank.sol\":5196:5197  i */\n      dup4\n        /* \"contracts/SimpleBank/SimpleBank.sol\":5191:5198  _tos[i] */\n      dup2\n      mload\n      dup2\n      lt\n      tag_131\n      jumpi\n      tag_132\n      tag_92\n      jump\t// in\n    tag_132:\n    tag_131:\n      0x20\n      mul\n      0x20\n      add\n      add\n      mload\n        /* \"contracts/SimpleBank/SimpleBank.sol\":5200:5207  _amount */\n      dup5\n        /* \"contracts/SimpleBank/SimpleBank.sol\":5164:5208  TransferAmountEvent(_from, _tos[i], _amount) */\n      mload(0x40)\n      tag_133\n      swap4\n      swap3\n      swap2\n      swap1\n      tag_123\n      jump\t// in\n    tag_133:\n      mload(0x40)\n      dup1\n      swap2\n      sub\n      swap1\n      log1\n        /* \"contracts/SimpleBank/SimpleBank.sol\":4524:5224  if (accounts[_from].owner != accounts[_tos[i]].owner) {... */\n    tag_124:\n        /* \"contracts/SimpleBank/SimpleBank.sol\":4361:4364  i++ */\n      dup1\n      dup1\n      tag_134\n      swap1\n      tag_135\n      jump\t// in\n    tag_134:\n      swap2\n      pop\n      pop\n        /* \"contracts/SimpleBank/SimpleBank.sol\":4324:5235  for (uint256 i = 0; i < _tos.length; i++) {... */\n      jump(tag_87)\n    tag_88:\n      pop\n        /* \"contracts/SimpleBank/SimpleBank.sol\":3716:5242  function transferAmountList(... */\n      pop\n      pop\n      pop\n      jump\t// out\n        /* \"contracts/SimpleBank/SimpleBank.sol\":748:1124  function addAccount(string memory _name) public {... */\n    tag_23:\n        /* \"contracts/SimpleBank/SimpleBank.sol\":858:863  false */\n      0x00\n        /* \"contracts/SimpleBank/SimpleBank.sol\":829:863  isAccountNameExist[_name] == false */\n      iszero\n      iszero\n        /* \"contracts/SimpleBank/SimpleBank.sol\":829:847  isAccountNameExist */\n      0x04\n        /* \"contracts/SimpleBank/SimpleBank.sol\":848:853  _name */\n      dup3\n        /* \"contracts/SimpleBank/SimpleBank.sol\":829:854  isAccountNameExist[_name] */\n      mload(0x40)\n      tag_137\n      swap2\n      swap1\n      tag_70\n      jump\t// in\n    tag_137:\n      swap1\n      dup2\n      mstore\n      0x20\n      add\n      mload(0x40)\n      dup1\n      swap2\n      sub\n      swap1\n      keccak256\n      0x00\n      swap1\n      sload\n      swap1\n      0x0100\n      exp\n      swap1\n      div\n      0xff\n      and\n        /* \"contracts/SimpleBank/SimpleBank.sol\":829:863  isAccountNameExist[_name] == false */\n      iszero\n      iszero\n      eq\n        /* \"contracts/SimpleBank/SimpleBank.sol\":807:918  require(... */\n      tag_138\n      jumpi\n      mload(0x40)\n      0x08c379a000000000000000000000000000000000000000000000000000000000\n      dup2\n      mstore\n      0x04\n      add\n      tag_139\n      swap1\n      tag_140\n      jump\t// in\n    tag_139:\n      mload(0x40)\n      dup1\n      swap2\n      sub\n      swap1\n      revert\n    tag_138:\n        /* \"contracts/SimpleBank/SimpleBank.sol\":947:976  Account(msg.sender, _name, 0) */\n      mload(0x40)\n      dup1\n      0x60\n      add\n      0x40\n      mstore\n      dup1\n        /* \"contracts/SimpleBank/SimpleBank.sol\":955:965  msg.sender */\n      caller\n        /* \"contracts/SimpleBank/SimpleBank.sol\":947:976  Account(msg.sender, _name, 0) */\n      0xffffffffffffffffffffffffffffffffffffffff\n      and\n      dup2\n      mstore\n      0x20\n      add\n        /* \"contracts/SimpleBank/SimpleBank.sol\":967:972  _name */\n      dup3\n        /* \"contracts/SimpleBank/SimpleBank.sol\":947:976  Account(msg.sender, _name, 0) */\n      dup2\n      mstore\n      0x20\n      add\n        /* \"contracts/SimpleBank/SimpleBank.sol\":974:975  0 */\n      0x00\n        /* \"contracts/SimpleBank/SimpleBank.sol\":947:976  Account(msg.sender, _name, 0) */\n      dup2\n      mstore\n      pop\n        /* \"contracts/SimpleBank/SimpleBank.sol\":929:937  accounts */\n      0x03\n        /* \"contracts/SimpleBank/SimpleBank.sol\":938:943  _name */\n      dup3\n        /* \"contracts/SimpleBank/SimpleBank.sol\":929:944  accounts[_name] */\n      mload(0x40)\n      tag_141\n      swap2\n      swap1\n      tag_70\n      jump\t// in\n    tag_141:\n      swap1\n      dup2\n      mstore\n      0x20\n      add\n      mload(0x40)\n      dup1\n      swap2\n      sub\n      swap1\n      keccak256\n        /* \"contracts/SimpleBank/SimpleBank.sol\":929:976  accounts[_name] = Account(msg.sender, _name, 0) */\n      0x00\n      dup3\n      add\n      mload\n      dup2\n      0x00\n      add\n      exp(0x0100, 0x00)\n      dup2\n      sload\n      dup2\n      0xffffffffffffffffffffffffffffffffffffffff\n      mul\n      not\n      and\n      swap1\n      dup4\n      0xffffffffffffffffffffffffffffffffffffffff\n      and\n      mul\n      or\n      swap1\n      sstore\n      pop\n      0x20\n      dup3\n      add\n      mload\n      dup2\n      0x01\n      add\n      swap1\n      dup2\n      tag_142\n      swap2\n      swap1\n      tag_143\n      jump\t// in\n    tag_142:\n      pop\n      0x40\n      dup3\n      add\n      mload\n      dup2\n      0x02\n      add\n      sstore\n      swap1\n      pop\n      pop\n        /* \"contracts/SimpleBank/SimpleBank.sol\":987:999  userAccounts */\n      0x02\n        /* \"contracts/SimpleBank/SimpleBank.sol\":987:1011  userAccounts[msg.sender] */\n      0x00\n        /* \"contracts/SimpleBank/SimpleBank.sol\":1000:1010  msg.sender */\n      caller\n        /* \"contracts/SimpleBank/SimpleBank.sol\":987:1011  userAccounts[msg.sender] */\n      0xffffffffffffffffffffffffffffffffffffffff\n      and\n      0xffffffffffffffffffffffffffffffffffffffff\n      and\n      dup2\n      mstore\n      0x20\n      add\n      swap1\n      dup2\n      mstore\n      0x20\n      add\n      0x00\n      keccak256\n        /* \"contracts/SimpleBank/SimpleBank.sol\":1017:1022  _name */\n      dup2\n        /* \"contracts/SimpleBank/SimpleBank.sol\":987:1023  userAccounts[msg.sender].push(_name) */\n      swap1\n      dup1\n      0x01\n      dup2\n      sload\n      add\n      dup1\n      dup3\n      sstore\n      dup1\n      swap2\n      pop\n      pop\n      0x01\n      swap1\n      sub\n      swap1\n      0x00\n      mstore\n      keccak256(0x00, 0x20)\n      add\n      0x00\n      swap1\n      swap2\n      swap1\n      swap2\n      swap1\n      swap2\n      pop\n      swap1\n      dup2\n      tag_145\n      swap2\n      swap1\n      tag_143\n      jump\t// in\n    tag_145:\n      pop\n        /* \"contracts/SimpleBank/SimpleBank.sol\":1062:1066  true */\n      0x01\n        /* \"contracts/SimpleBank/SimpleBank.sol\":1034:1052  isAccountNameExist */\n      0x04\n        /* \"contracts/SimpleBank/SimpleBank.sol\":1053:1058  _name */\n      dup3\n        /* \"contracts/SimpleBank/SimpleBank.sol\":1034:1059  isAccountNameExist[_name] */\n      mload(0x40)\n      tag_146\n      swap2\n      swap1\n      tag_70\n      jump\t// in\n    tag_146:\n      swap1\n      dup2\n      mstore\n      0x20\n      add\n      mload(0x40)\n      dup1\n      swap2\n      sub\n      swap1\n      keccak256\n      0x00\n        /* \"contracts/SimpleBank/SimpleBank.sol\":1034:1066  isAccountNameExist[_name] = true */\n      0x0100\n      exp\n      dup2\n      sload\n      dup2\n      0xff\n      mul\n      not\n      and\n      swap1\n      dup4\n      iszero\n      iszero\n      mul\n      or\n      swap1\n      sstore\n      pop\n        /* \"contracts/SimpleBank/SimpleBank.sol\":1082:1116  AddAccountEvent(msg.sender, _name) */\n      0xb4833c10b628b390dd18880f97a54f11eae38c84eb68171f9a11b0fd7855fadf\n        /* \"contracts/SimpleBank/SimpleBank.sol\":1098:1108  msg.sender */\n      caller\n        /* \"contracts/SimpleBank/SimpleBank.sol\":1110:1115  _name */\n      dup3\n        /* \"contracts/SimpleBank/SimpleBank.sol\":1082:1116  AddAccountEvent(msg.sender, _name) */\n      mload(0x40)\n      tag_147\n      swap3\n      swap2\n      swap1\n      tag_148\n      jump\t// in\n    tag_147:\n      mload(0x40)\n      dup1\n      swap2\n      sub\n      swap1\n      log1\n        /* \"contracts/SimpleBank/SimpleBank.sol\":748:1124  function addAccount(string memory _name) public {... */\n      pop\n      jump\t// out\n        /* \"contracts/SimpleBank/SimpleBank.sol\":1487:2141  function withdrawn(string memory _name, uint256 _amount) public {... */\n    tag_28:\n        /* \"contracts/SimpleBank/SimpleBank.sol\":1613:1617  true */\n      0x01\n        /* \"contracts/SimpleBank/SimpleBank.sol\":1584:1617  isAccountNameExist[_name] == true */\n      iszero\n      iszero\n        /* \"contracts/SimpleBank/SimpleBank.sol\":1584:1602  isAccountNameExist */\n      0x04\n        /* \"contracts/SimpleBank/SimpleBank.sol\":1603:1608  _name */\n      dup4\n        /* \"contracts/SimpleBank/SimpleBank.sol\":1584:1609  isAccountNameExist[_name] */\n      mload(0x40)\n      tag_150\n      swap2\n      swap1\n      tag_70\n      jump\t// in\n    tag_150:\n      swap1\n      dup2\n      mstore\n      0x20\n      add\n      mload(0x40)\n      dup1\n      swap2\n      sub\n      swap1\n      keccak256\n      0x00\n      swap1\n      sload\n      swap1\n      0x0100\n      exp\n      swap1\n      div\n      0xff\n      and\n        /* \"contracts/SimpleBank/SimpleBank.sol\":1584:1617  isAccountNameExist[_name] == true */\n      iszero\n      iszero\n      eq\n        /* \"contracts/SimpleBank/SimpleBank.sol\":1562:1674  require(... */\n      tag_151\n      jumpi\n      mload(0x40)\n      0x08c379a000000000000000000000000000000000000000000000000000000000\n      dup2\n      mstore\n      0x04\n      add\n      tag_152\n      swap1\n      tag_153\n      jump\t// in\n    tag_152:\n      mload(0x40)\n      dup1\n      swap2\n      sub\n      swap1\n      revert\n    tag_151:\n        /* \"contracts/SimpleBank/SimpleBank.sol\":1732:1742  msg.sender */\n      caller\n        /* \"contracts/SimpleBank/SimpleBank.sol\":1707:1742  accounts[_name].owner == msg.sender */\n      0xffffffffffffffffffffffffffffffffffffffff\n      and\n        /* \"contracts/SimpleBank/SimpleBank.sol\":1707:1715  accounts */\n      0x03\n        /* \"contracts/SimpleBank/SimpleBank.sol\":1716:1721  _name */\n      dup4\n        /* \"contracts/SimpleBank/SimpleBank.sol\":1707:1722  accounts[_name] */\n      mload(0x40)\n      tag_154\n      swap2\n      swap1\n      tag_70\n      jump\t// in\n    tag_154:\n      swap1\n      dup2\n      mstore\n      0x20\n      add\n      mload(0x40)\n      dup1\n      swap2\n      sub\n      swap1\n      keccak256\n        /* \"contracts/SimpleBank/SimpleBank.sol\":1707:1728  accounts[_name].owner */\n      0x00\n      add\n      0x00\n      swap1\n      sload\n      swap1\n      0x0100\n      exp\n      swap1\n      div\n      0xffffffffffffffffffffffffffffffffffffffff\n      and\n        /* \"contracts/SimpleBank/SimpleBank.sol\":1707:1742  accounts[_name].owner == msg.sender */\n      0xffffffffffffffffffffffffffffffffffffffff\n      and\n      eq\n        /* \"contracts/SimpleBank/SimpleBank.sol\":1685:1794  require(... */\n      tag_155\n      jumpi\n      mload(0x40)\n      0x08c379a000000000000000000000000000000000000000000000000000000000\n      dup2\n      mstore\n      0x04\n      add\n      tag_156\n      swap1\n      tag_157\n      jump\t// in\n    tag_156:\n      mload(0x40)\n      dup1\n      swap2\n      sub\n      swap1\n      revert\n    tag_155:\n        /* \"contracts/SimpleBank/SimpleBank.sol\":1823:1824  0 */\n      0x00\n        /* \"contracts/SimpleBank/SimpleBank.sol\":1813:1820  _amount */\n      dup2\n        /* \"contracts/SimpleBank/SimpleBank.sol\":1813:1824  _amount > 0 */\n      gt\n        /* \"contracts/SimpleBank/SimpleBank.sol\":1805:1854  require(_amount > 0, \"withdrawn_fail_value_zero\") */\n      tag_158\n      jumpi\n      mload(0x40)\n      0x08c379a000000000000000000000000000000000000000000000000000000000\n      dup2\n      mstore\n      0x04\n      add\n      tag_159\n      swap1\n      tag_160\n      jump\t// in\n    tag_159:\n      mload(0x40)\n      dup1\n      swap2\n      sub\n      swap1\n      revert\n    tag_158:\n        /* \"contracts/SimpleBank/SimpleBank.sol\":1914:1921  _amount */\n      dup1\n        /* \"contracts/SimpleBank/SimpleBank.sol\":1887:1895  accounts */\n      0x03\n        /* \"contracts/SimpleBank/SimpleBank.sol\":1896:1901  _name */\n      dup4\n        /* \"contracts/SimpleBank/SimpleBank.sol\":1887:1902  accounts[_name] */\n      mload(0x40)\n      tag_161\n      swap2\n      swap1\n      tag_70\n      jump\t// in\n    tag_161:\n      swap1\n      dup2\n      mstore\n      0x20\n      add\n      mload(0x40)\n      dup1\n      swap2\n      sub\n      swap1\n      keccak256\n        /* \"contracts/SimpleBank/SimpleBank.sol\":1887:1910  accounts[_name].balance */\n      0x02\n      add\n      sload\n        /* \"contracts/SimpleBank/SimpleBank.sol\":1887:1921  accounts[_name].balance >= _amount */\n      lt\n      iszero\n        /* \"contracts/SimpleBank/SimpleBank.sol\":1865:1982  require(... */\n      tag_162\n      jumpi\n      mload(0x40)\n      0x08c379a000000000000000000000000000000000000000000000000000000000\n      dup2\n      mstore\n      0x04\n      add\n      tag_163\n      swap1\n      tag_164\n      jump\t// in\n    tag_163:\n      mload(0x40)\n      dup1\n      swap2\n      sub\n      swap1\n      revert\n    tag_162:\n        /* \"contracts/SimpleBank/SimpleBank.sol\":2020:2027  _amount */\n      dup1\n        /* \"contracts/SimpleBank/SimpleBank.sol\":1993:2001  accounts */\n      0x03\n        /* \"contracts/SimpleBank/SimpleBank.sol\":2002:2007  _name */\n      dup4\n        /* \"contracts/SimpleBank/SimpleBank.sol\":1993:2008  accounts[_name] */\n      mload(0x40)\n      tag_165\n      swap2\n      swap1\n      tag_70\n      jump\t// in\n    tag_165:\n      swap1\n      dup2\n      mstore\n      0x20\n      add\n      mload(0x40)\n      dup1\n      swap2\n      sub\n      swap1\n      keccak256\n        /* \"contracts/SimpleBank/SimpleBank.sol\":1993:2016  accounts[_name].balance */\n      0x02\n      add\n      0x00\n        /* \"contracts/SimpleBank/SimpleBank.sol\":1993:2027  accounts[_name].balance -= _amount */\n      dup3\n      dup3\n      sload\n      tag_166\n      swap2\n      swap1\n      tag_113\n      jump\t// in\n    tag_166:\n      swap3\n      pop\n      pop\n      dup2\n      swap1\n      sstore\n      pop\n        /* \"contracts/SimpleBank/SimpleBank.sol\":2046:2056  msg.sender */\n      caller\n        /* \"contracts/SimpleBank/SimpleBank.sol\":2038:2066  payable(msg.sender).transfer */\n      0xffffffffffffffffffffffffffffffffffffffff\n      and\n        /* \"contracts/SimpleBank/SimpleBank.sol\":2038:2075  payable(msg.sender).transfer(_amount) */\n      0x08fc\n        /* \"contracts/SimpleBank/SimpleBank.sol\":2067:2074  _amount */\n      dup3\n        /* \"contracts/SimpleBank/SimpleBank.sol\":2038:2075  payable(msg.sender).transfer(_amount) */\n      swap1\n      dup2\n      iszero\n      mul\n      swap1\n      mload(0x40)\n      0x00\n      mload(0x40)\n      dup1\n      dup4\n      sub\n      dup2\n      dup6\n      dup9\n      dup9\n      call\n      swap4\n      pop\n      pop\n      pop\n      pop\n      iszero\n      dup1\n      iszero\n      tag_168\n      jumpi\n      returndatasize\n      0x00\n      dup1\n      returndatacopy\n      revert(0x00, returndatasize)\n    tag_168:\n      pop\n        /* \"contracts/SimpleBank/SimpleBank.sol\":2091:2133  WithdrawnEvent(_name, msg.sender, _amount) */\n      0xf571bb39287f8941696401f5b5a1666ee251efbf23412140fbddce841655d9\n        /* \"contracts/SimpleBank/SimpleBank.sol\":2106:2111  _name */\n      dup3\n        /* \"contracts/SimpleBank/SimpleBank.sol\":2113:2123  msg.sender */\n      caller\n        /* \"contracts/SimpleBank/SimpleBank.sol\":2125:2132  _amount */\n      dup4\n        /* \"contracts/SimpleBank/SimpleBank.sol\":2091:2133  WithdrawnEvent(_name, msg.sender, _amount) */\n      mload(0x40)\n      tag_169\n      swap4\n      swap3\n      swap2\n      swap1\n      tag_170\n      jump\t// in\n    tag_169:\n      mload(0x40)\n      dup1\n      swap2\n      sub\n      swap1\n      log1\n        /* \"contracts/SimpleBank/SimpleBank.sol\":1487:2141  function withdrawn(string memory _name, uint256 _amount) public {... */\n      pop\n      pop\n      jump\t// out\n        /* \"contracts/SimpleBank/SimpleBank.sol\":2149:3347  function transferAmount(... */\n    tag_33:\n        /* \"contracts/SimpleBank/SimpleBank.sol\":2333:2337  true */\n      0x01\n        /* \"contracts/SimpleBank/SimpleBank.sol\":2304:2337  isAccountNameExist[_from] == true */\n      iszero\n      iszero\n        /* \"contracts/SimpleBank/SimpleBank.sol\":2304:2322  isAccountNameExist */\n      0x04\n        /* \"contracts/SimpleBank/SimpleBank.sol\":2323:2328  _from */\n      dup5\n        /* \"contracts/SimpleBank/SimpleBank.sol\":2304:2329  isAccountNameExist[_from] */\n      mload(0x40)\n      tag_172\n      swap2\n      swap1\n      tag_70\n      jump\t// in\n    tag_172:\n      swap1\n      dup2\n      mstore\n      0x20\n      add\n      mload(0x40)\n      dup1\n      swap2\n      sub\n      swap1\n      keccak256\n      0x00\n      swap1\n      sload\n      swap1\n      0x0100\n      exp\n      swap1\n      div\n      0xff\n      and\n        /* \"contracts/SimpleBank/SimpleBank.sol\":2304:2337  isAccountNameExist[_from] == true */\n      iszero\n      iszero\n      eq\n        /* \"contracts/SimpleBank/SimpleBank.sol\":2282:2398  require(... */\n      tag_173\n      jumpi\n      mload(0x40)\n      0x08c379a000000000000000000000000000000000000000000000000000000000\n      dup2\n      mstore\n      0x04\n      add\n      tag_174\n      swap1\n      tag_73\n      jump\t// in\n    tag_174:\n      mload(0x40)\n      dup1\n      swap2\n      sub\n      swap1\n      revert\n    tag_173:\n        /* \"contracts/SimpleBank/SimpleBank.sol\":2458:2462  true */\n      0x01\n        /* \"contracts/SimpleBank/SimpleBank.sol\":2431:2462  isAccountNameExist[_to] == true */\n      iszero\n      iszero\n        /* \"contracts/SimpleBank/SimpleBank.sol\":2431:2449  isAccountNameExist */\n      0x04\n        /* \"contracts/SimpleBank/SimpleBank.sol\":2450:2453  _to */\n      dup4\n        /* \"contracts/SimpleBank/SimpleBank.sol\":2431:2454  isAccountNameExist[_to] */\n      mload(0x40)\n      tag_175\n      swap2\n      swap1\n      tag_70\n      jump\t// in\n    tag_175:\n      swap1\n      dup2\n      mstore\n      0x20\n      add\n      mload(0x40)\n      dup1\n      swap2\n      sub\n      swap1\n      keccak256\n      0x00\n      swap1\n      sload\n      swap1\n      0x0100\n      exp\n      swap1\n      div\n      0xff\n      and\n        /* \"contracts/SimpleBank/SimpleBank.sol\":2431:2462  isAccountNameExist[_to] == true */\n      iszero\n      iszero\n      eq\n        /* \"contracts/SimpleBank/SimpleBank.sol\":2409:2521  require(... */\n      tag_176\n      jumpi\n      mload(0x40)\n      0x08c379a000000000000000000000000000000000000000000000000000000000\n      dup2\n      mstore\n      0x04\n      add\n      tag_177\n      swap1\n      tag_96\n      jump\t// in\n    tag_177:\n      mload(0x40)\n      dup1\n      swap2\n      sub\n      swap1\n      revert\n    tag_176:\n        /* \"contracts/SimpleBank/SimpleBank.sol\":2579:2589  msg.sender */\n      caller\n        /* \"contracts/SimpleBank/SimpleBank.sol\":2554:2589  accounts[_from].owner == msg.sender */\n      0xffffffffffffffffffffffffffffffffffffffff\n      and\n        /* \"contracts/SimpleBank/SimpleBank.sol\":2554:2562  accounts */\n      0x03\n        /* \"contracts/SimpleBank/SimpleBank.sol\":2563:2568  _from */\n      dup5\n        /* \"contracts/SimpleBank/SimpleBank.sol\":2554:2569  accounts[_from] */\n      mload(0x40)\n      tag_178\n      swap2\n      swap1\n      tag_70\n      jump\t// in\n    tag_178:\n      swap1\n      dup2\n      mstore\n      0x20\n      add\n      mload(0x40)\n      dup1\n      swap2\n      sub\n      swap1\n      keccak256\n        /* \"contracts/SimpleBank/SimpleBank.sol\":2554:2575  accounts[_from].owner */\n      0x00\n      add\n      0x00\n      swap1\n      sload\n      swap1\n      0x0100\n      exp\n      swap1\n      div\n      0xffffffffffffffffffffffffffffffffffffffff\n      and\n        /* \"contracts/SimpleBank/SimpleBank.sol\":2554:2589  accounts[_from].owner == msg.sender */\n      0xffffffffffffffffffffffffffffffffffffffff\n      and\n      eq\n        /* \"contracts/SimpleBank/SimpleBank.sol\":2532:2645  require(... */\n      tag_179\n      jumpi\n      mload(0x40)\n      0x08c379a000000000000000000000000000000000000000000000000000000000\n      dup2\n      mstore\n      0x04\n      add\n      tag_180\n      swap1\n      tag_77\n      jump\t// in\n    tag_180:\n      mload(0x40)\n      dup1\n      swap2\n      sub\n      swap1\n      revert\n    tag_179:\n        /* \"contracts/SimpleBank/SimpleBank.sol\":2675:2678  100 */\n      0x64\n        /* \"contracts/SimpleBank/SimpleBank.sol\":2664:2671  _amount */\n      dup2\n        /* \"contracts/SimpleBank/SimpleBank.sol\":2664:2678  _amount >= 100 */\n      lt\n      iszero\n        /* \"contracts/SimpleBank/SimpleBank.sol\":2656:2716  require(_amount >= 100, \"transfer_fail_value_less_than_100\") */\n      tag_181\n      jumpi\n      mload(0x40)\n      0x08c379a000000000000000000000000000000000000000000000000000000000\n      dup2\n      mstore\n      0x04\n      add\n      tag_182\n      swap1\n      tag_80\n      jump\t// in\n    tag_182:\n      mload(0x40)\n      dup1\n      swap2\n      sub\n      swap1\n      revert\n    tag_181:\n        /* \"contracts/SimpleBank/SimpleBank.sol\":2776:2783  _amount */\n      dup1\n        /* \"contracts/SimpleBank/SimpleBank.sol\":2749:2757  accounts */\n      0x03\n        /* \"contracts/SimpleBank/SimpleBank.sol\":2758:2763  _from */\n      dup5\n        /* \"contracts/SimpleBank/SimpleBank.sol\":2749:2764  accounts[_from] */\n      mload(0x40)\n      tag_183\n      swap2\n      swap1\n      tag_70\n      jump\t// in\n    tag_183:\n      swap1\n      dup2\n      mstore\n      0x20\n      add\n      mload(0x40)\n      dup1\n      swap2\n      sub\n      swap1\n      keccak256\n        /* \"contracts/SimpleBank/SimpleBank.sol\":2749:2772  accounts[_from].balance */\n      0x02\n      add\n      sload\n        /* \"contracts/SimpleBank/SimpleBank.sol\":2749:2783  accounts[_from].balance >= _amount */\n      lt\n      iszero\n        /* \"contracts/SimpleBank/SimpleBank.sol\":2727:2848  require(... */\n      tag_184\n      jumpi\n      mload(0x40)\n      0x08c379a000000000000000000000000000000000000000000000000000000000\n      dup2\n      mstore\n      0x04\n      add\n      tag_185\n      swap1\n      tag_86\n      jump\t// in\n    tag_185:\n      mload(0x40)\n      dup1\n      swap2\n      sub\n      swap1\n      revert\n    tag_184:\n        /* \"contracts/SimpleBank/SimpleBank.sol\":2888:2896  accounts */\n      0x03\n        /* \"contracts/SimpleBank/SimpleBank.sol\":2897:2900  _to */\n      dup3\n        /* \"contracts/SimpleBank/SimpleBank.sol\":2888:2901  accounts[_to] */\n      mload(0x40)\n      tag_186\n      swap2\n      swap1\n      tag_70\n      jump\t// in\n    tag_186:\n      swap1\n      dup2\n      mstore\n      0x20\n      add\n      mload(0x40)\n      dup1\n      swap2\n      sub\n      swap1\n      keccak256\n        /* \"contracts/SimpleBank/SimpleBank.sol\":2888:2907  accounts[_to].owner */\n      0x00\n      add\n      0x00\n      swap1\n      sload\n      swap1\n      0x0100\n      exp\n      swap1\n      div\n      0xffffffffffffffffffffffffffffffffffffffff\n      and\n        /* \"contracts/SimpleBank/SimpleBank.sol\":2863:2907  accounts[_from].owner != accounts[_to].owner */\n      0xffffffffffffffffffffffffffffffffffffffff\n      and\n        /* \"contracts/SimpleBank/SimpleBank.sol\":2863:2871  accounts */\n      0x03\n        /* \"contracts/SimpleBank/SimpleBank.sol\":2872:2877  _from */\n      dup5\n        /* \"contracts/SimpleBank/SimpleBank.sol\":2863:2878  accounts[_from] */\n      mload(0x40)\n      tag_187\n      swap2\n      swap1\n      tag_70\n      jump\t// in\n    tag_187:\n      swap1\n      dup2\n      mstore\n      0x20\n      add\n      mload(0x40)\n      dup1\n      swap2\n      sub\n      swap1\n      keccak256\n        /* \"contracts/SimpleBank/SimpleBank.sol\":2863:2884  accounts[_from].owner */\n      0x00\n      add\n      0x00\n      swap1\n      sload\n      swap1\n      0x0100\n      exp\n      swap1\n      div\n      0xffffffffffffffffffffffffffffffffffffffff\n      and\n        /* \"contracts/SimpleBank/SimpleBank.sol\":2863:2907  accounts[_from].owner != accounts[_to].owner */\n      0xffffffffffffffffffffffffffffffffffffffff\n      and\n      eq\n        /* \"contracts/SimpleBank/SimpleBank.sol\":2859:3340  if (accounts[_from].owner != accounts[_to].owner) {... */\n      tag_188\n      jumpi\n        /* \"contracts/SimpleBank/SimpleBank.sol\":2924:2935  uint256 fee */\n      0x00\n        /* \"contracts/SimpleBank/SimpleBank.sol\":2948:2951  100 */\n      0x64\n        /* \"contracts/SimpleBank/SimpleBank.sol\":2938:2945  _amount */\n      dup3\n        /* \"contracts/SimpleBank/SimpleBank.sol\":2938:2951  _amount / 100 */\n      tag_189\n      swap2\n      swap1\n      tag_108\n      jump\t// in\n    tag_189:\n        /* \"contracts/SimpleBank/SimpleBank.sol\":2924:2951  uint256 fee = _amount / 100 */\n      swap1\n      pop\n        /* \"contracts/SimpleBank/SimpleBank.sol\":2981:2984  fee */\n      dup1\n        /* \"contracts/SimpleBank/SimpleBank.sol\":2966:2977  bankBalance */\n      0x01\n      0x00\n        /* \"contracts/SimpleBank/SimpleBank.sol\":2966:2984  bankBalance += fee */\n      dup3\n      dup3\n      sload\n      tag_190\n      swap2\n      swap1\n      tag_110\n      jump\t// in\n    tag_190:\n      swap3\n      pop\n      pop\n      dup2\n      swap1\n      sstore\n      pop\n        /* \"contracts/SimpleBank/SimpleBank.sol\":3026:3033  _amount */\n      dup2\n        /* \"contracts/SimpleBank/SimpleBank.sol\":2999:3007  accounts */\n      0x03\n        /* \"contracts/SimpleBank/SimpleBank.sol\":3008:3013  _from */\n      dup6\n        /* \"contracts/SimpleBank/SimpleBank.sol\":2999:3014  accounts[_from] */\n      mload(0x40)\n      tag_191\n      swap2\n      swap1\n      tag_70\n      jump\t// in\n    tag_191:\n      swap1\n      dup2\n      mstore\n      0x20\n      add\n      mload(0x40)\n      dup1\n      swap2\n      sub\n      swap1\n      keccak256\n        /* \"contracts/SimpleBank/SimpleBank.sol\":2999:3022  accounts[_from].balance */\n      0x02\n      add\n      0x00\n        /* \"contracts/SimpleBank/SimpleBank.sol\":2999:3033  accounts[_from].balance -= _amount */\n      dup3\n      dup3\n      sload\n      tag_192\n      swap2\n      swap1\n      tag_113\n      jump\t// in\n    tag_192:\n      swap3\n      pop\n      pop\n      dup2\n      swap1\n      sstore\n      pop\n        /* \"contracts/SimpleBank/SimpleBank.sol\":3084:3087  fee */\n      dup1\n        /* \"contracts/SimpleBank/SimpleBank.sol\":3074:3081  _amount */\n      dup3\n        /* \"contracts/SimpleBank/SimpleBank.sol\":3074:3087  _amount - fee */\n      tag_193\n      swap2\n      swap1\n      tag_113\n      jump\t// in\n    tag_193:\n        /* \"contracts/SimpleBank/SimpleBank.sol\":3048:3056  accounts */\n      0x03\n        /* \"contracts/SimpleBank/SimpleBank.sol\":3057:3060  _to */\n      dup5\n        /* \"contracts/SimpleBank/SimpleBank.sol\":3048:3061  accounts[_to] */\n      mload(0x40)\n      tag_194\n      swap2\n      swap1\n      tag_70\n      jump\t// in\n    tag_194:\n      swap1\n      dup2\n      mstore\n      0x20\n      add\n      mload(0x40)\n      dup1\n      swap2\n      sub\n      swap1\n      keccak256\n        /* \"contracts/SimpleBank/SimpleBank.sol\":3048:3069  accounts[_to].balance */\n      0x02\n      add\n      0x00\n        /* \"contracts/SimpleBank/SimpleBank.sol\":3048:3088  accounts[_to].balance += (_amount - fee) */\n      dup3\n      dup3\n      sload\n      tag_195\n      swap2\n      swap1\n      tag_110\n      jump\t// in\n    tag_195:\n      swap3\n      pop\n      pop\n      dup2\n      swap1\n      sstore\n      pop\n        /* \"contracts/SimpleBank/SimpleBank.sol\":3108:3154  TransferAmountEvent(_from, _to, _amount - fee) */\n      0x370044a47246afacf081fd58c8468a6482ebc8673d418e785b8d0492240f95de\n        /* \"contracts/SimpleBank/SimpleBank.sol\":3128:3133  _from */\n      dup5\n        /* \"contracts/SimpleBank/SimpleBank.sol\":3135:3138  _to */\n      dup5\n        /* \"contracts/SimpleBank/SimpleBank.sol\":3150:3153  fee */\n      dup4\n        /* \"contracts/SimpleBank/SimpleBank.sol\":3140:3147  _amount */\n      dup6\n        /* \"contracts/SimpleBank/SimpleBank.sol\":3140:3153  _amount - fee */\n      tag_196\n      swap2\n      swap1\n      tag_113\n      jump\t// in\n    tag_196:\n        /* \"contracts/SimpleBank/SimpleBank.sol\":3108:3154  TransferAmountEvent(_from, _to, _amount - fee) */\n      mload(0x40)\n      tag_197\n      swap4\n      swap3\n      swap2\n      swap1\n      tag_123\n      jump\t// in\n    tag_197:\n      mload(0x40)\n      dup1\n      swap2\n      sub\n      swap1\n      log1\n        /* \"contracts/SimpleBank/SimpleBank.sol\":2909:3166  {... */\n      pop\n        /* \"contracts/SimpleBank/SimpleBank.sol\":2859:3340  if (accounts[_from].owner != accounts[_to].owner) {... */\n      jump(tag_198)\n    tag_188:\n        /* \"contracts/SimpleBank/SimpleBank.sol\":3214:3221  _amount */\n      dup1\n        /* \"contracts/SimpleBank/SimpleBank.sol\":3187:3195  accounts */\n      0x03\n        /* \"contracts/SimpleBank/SimpleBank.sol\":3196:3201  _from */\n      dup5\n        /* \"contracts/SimpleBank/SimpleBank.sol\":3187:3202  accounts[_from] */\n      mload(0x40)\n      tag_199\n      swap2\n      swap1\n      tag_70\n      jump\t// in\n    tag_199:\n      swap1\n      dup2\n      mstore\n      0x20\n      add\n      mload(0x40)\n      dup1\n      swap2\n      sub\n      swap1\n      keccak256\n        /* \"contracts/SimpleBank/SimpleBank.sol\":3187:3210  accounts[_from].balance */\n      0x02\n      add\n      0x00\n        /* \"contracts/SimpleBank/SimpleBank.sol\":3187:3221  accounts[_from].balance -= _amount */\n      dup3\n      dup3\n      sload\n      tag_200\n      swap2\n      swap1\n      tag_113\n      jump\t// in\n    tag_200:\n      swap3\n      pop\n      pop\n      dup2\n      swap1\n      sstore\n      pop\n        /* \"contracts/SimpleBank/SimpleBank.sol\":3261:3268  _amount */\n      dup1\n        /* \"contracts/SimpleBank/SimpleBank.sol\":3236:3244  accounts */\n      0x03\n        /* \"contracts/SimpleBank/SimpleBank.sol\":3245:3248  _to */\n      dup4\n        /* \"contracts/SimpleBank/SimpleBank.sol\":3236:3249  accounts[_to] */\n      mload(0x40)\n      tag_201\n      swap2\n      swap1\n      tag_70\n      jump\t// in\n    tag_201:\n      swap1\n      dup2\n      mstore\n      0x20\n      add\n      mload(0x40)\n      dup1\n      swap2\n      sub\n      swap1\n      keccak256\n        /* \"contracts/SimpleBank/SimpleBank.sol\":3236:3257  accounts[_to].balance */\n      0x02\n      add\n      0x00\n        /* \"contracts/SimpleBank/SimpleBank.sol\":3236:3268  accounts[_to].balance += _amount */\n      dup3\n      dup3\n      sload\n      tag_202\n      swap2\n      swap1\n      tag_110\n      jump\t// in\n    tag_202:\n      swap3\n      pop\n      pop\n      dup2\n      swap1\n      sstore\n      pop\n        /* \"contracts/SimpleBank/SimpleBank.sol\":3288:3328  TransferAmountEvent(_from, _to, _amount) */\n      0x370044a47246afacf081fd58c8468a6482ebc8673d418e785b8d0492240f95de\n        /* \"contracts/SimpleBank/SimpleBank.sol\":3308:3313  _from */\n      dup4\n        /* \"contracts/SimpleBank/SimpleBank.sol\":3315:3318  _to */\n      dup4\n        /* \"contracts/SimpleBank/SimpleBank.sol\":3320:3327  _amount */\n      dup4\n        /* \"contracts/SimpleBank/SimpleBank.sol\":3288:3328  TransferAmountEvent(_from, _to, _amount) */\n      mload(0x40)\n      tag_203\n      swap4\n      swap3\n      swap2\n      swap1\n      tag_123\n      jump\t// in\n    tag_203:\n      mload(0x40)\n      dup1\n      swap2\n      sub\n      swap1\n      log1\n        /* \"contracts/SimpleBank/SimpleBank.sol\":2859:3340  if (accounts[_from].owner != accounts[_to].owner) {... */\n    tag_198:\n        /* \"contracts/SimpleBank/SimpleBank.sol\":2149:3347  function transferAmount(... */\n      pop\n      pop\n      pop\n      jump\t// out\n        /* \"contracts/SimpleBank/SimpleBank.sol\":5801:5894  function getBankBalance() public view returns (uint256) {... */\n    tag_36:\n        /* \"contracts/SimpleBank/SimpleBank.sol\":5848:5855  uint256 */\n      0x00\n        /* \"contracts/SimpleBank/SimpleBank.sol\":5875:5886  bankBalance */\n      sload(0x01)\n        /* \"contracts/SimpleBank/SimpleBank.sol\":5868:5886  return bankBalance */\n      swap1\n      pop\n        /* \"contracts/SimpleBank/SimpleBank.sol\":5801:5894  function getBankBalance() public view returns (uint256) {... */\n      swap1\n      jump\t// out\n        /* \"contracts/SimpleBank/SimpleBank.sol\":1132:1479  function deposit(string memory _name) public payable {... */\n    tag_41:\n        /* \"contracts/SimpleBank/SimpleBank.sol\":1247:1251  true */\n      0x01\n        /* \"contracts/SimpleBank/SimpleBank.sol\":1218:1251  isAccountNameExist[_name] == true */\n      iszero\n      iszero\n        /* \"contracts/SimpleBank/SimpleBank.sol\":1218:1236  isAccountNameExist */\n      0x04\n        /* \"contracts/SimpleBank/SimpleBank.sol\":1237:1242  _name */\n      dup3\n        /* \"contracts/SimpleBank/SimpleBank.sol\":1218:1243  isAccountNameExist[_name] */\n      mload(0x40)\n      tag_206\n      swap2\n      swap1\n      tag_70\n      jump\t// in\n    tag_206:\n      swap1\n      dup2\n      mstore\n      0x20\n      add\n      mload(0x40)\n      dup1\n      swap2\n      sub\n      swap1\n      keccak256\n      0x00\n      swap1\n      sload\n      swap1\n      0x0100\n      exp\n      swap1\n      div\n      0xff\n      and\n        /* \"contracts/SimpleBank/SimpleBank.sol\":1218:1251  isAccountNameExist[_name] == true */\n      iszero\n      iszero\n      eq\n        /* \"contracts/SimpleBank/SimpleBank.sol\":1196:1306  require(... */\n      tag_207\n      jumpi\n      mload(0x40)\n      0x08c379a000000000000000000000000000000000000000000000000000000000\n      dup2\n      mstore\n      0x04\n      add\n      tag_208\n      swap1\n      tag_209\n      jump\t// in\n    tag_208:\n      mload(0x40)\n      dup1\n      swap2\n      sub\n      swap1\n      revert\n    tag_207:\n        /* \"contracts/SimpleBank/SimpleBank.sol\":1337:1338  0 */\n      0x00\n        /* \"contracts/SimpleBank/SimpleBank.sol\":1325:1334  msg.value */\n      callvalue\n        /* \"contracts/SimpleBank/SimpleBank.sol\":1325:1338  msg.value > 0 */\n      gt\n        /* \"contracts/SimpleBank/SimpleBank.sol\":1317:1366  require(msg.value > 0, \"deposit_fail_value_zero\") */\n      tag_210\n      jumpi\n      mload(0x40)\n      0x08c379a000000000000000000000000000000000000000000000000000000000\n      dup2\n      mstore\n      0x04\n      add\n      tag_211\n      swap1\n      tag_212\n      jump\t// in\n    tag_211:\n      mload(0x40)\n      dup1\n      swap2\n      sub\n      swap1\n      revert\n    tag_210:\n        /* \"contracts/SimpleBank/SimpleBank.sol\":1404:1413  msg.value */\n      callvalue\n        /* \"contracts/SimpleBank/SimpleBank.sol\":1377:1385  accounts */\n      0x03\n        /* \"contracts/SimpleBank/SimpleBank.sol\":1386:1391  _name */\n      dup3\n        /* \"contracts/SimpleBank/SimpleBank.sol\":1377:1392  accounts[_name] */\n      mload(0x40)\n      tag_213\n      swap2\n      swap1\n      tag_70\n      jump\t// in\n    tag_213:\n      swap1\n      dup2\n      mstore\n      0x20\n      add\n      mload(0x40)\n      dup1\n      swap2\n      sub\n      swap1\n      keccak256\n        /* \"contracts/SimpleBank/SimpleBank.sol\":1377:1400  accounts[_name].balance */\n      0x02\n      add\n      0x00\n        /* \"contracts/SimpleBank/SimpleBank.sol\":1377:1413  accounts[_name].balance += msg.value */\n      dup3\n      dup3\n      sload\n      tag_214\n      swap2\n      swap1\n      tag_110\n      jump\t// in\n    tag_214:\n      swap3\n      pop\n      pop\n      dup2\n      swap1\n      sstore\n      pop\n        /* \"contracts/SimpleBank/SimpleBank.sol\":1429:1471  DepositEvent(msg.sender, _name, msg.value) */\n      0x03e0b25ba1ab101c1d9112766101bb987f00f29a37a44b4a0813ed489a4f3ffa\n        /* \"contracts/SimpleBank/SimpleBank.sol\":1442:1452  msg.sender */\n      caller\n        /* \"contracts/SimpleBank/SimpleBank.sol\":1454:1459  _name */\n      dup3\n        /* \"contracts/SimpleBank/SimpleBank.sol\":1461:1470  msg.value */\n      callvalue\n        /* \"contracts/SimpleBank/SimpleBank.sol\":1429:1471  DepositEvent(msg.sender, _name, msg.value) */\n      mload(0x40)\n      tag_215\n      swap4\n      swap3\n      swap2\n      swap1\n      tag_216\n      jump\t// in\n    tag_215:\n      mload(0x40)\n      dup1\n      swap2\n      sub\n      swap1\n      log1\n        /* \"contracts/SimpleBank/SimpleBank.sol\":1132:1479  function deposit(string memory _name) public payable {... */\n      pop\n      jump\t// out\n        /* \"contracts/SimpleBank/SimpleBank.sol\":5581:5696  function getUserAccounts() public view returns (string[] memory) {... */\n    tag_44:\n        /* \"contracts/SimpleBank/SimpleBank.sol\":5629:5644  string[] memory */\n      0x60\n        /* \"contracts/SimpleBank/SimpleBank.sol\":5664:5676  userAccounts */\n      0x02\n        /* \"contracts/SimpleBank/SimpleBank.sol\":5664:5688  userAccounts[msg.sender] */\n      0x00\n        /* \"contracts/SimpleBank/SimpleBank.sol\":5677:5687  msg.sender */\n      caller\n        /* \"contracts/SimpleBank/SimpleBank.sol\":5664:5688  userAccounts[msg.sender] */\n      0xffffffffffffffffffffffffffffffffffffffff\n      and\n      0xffffffffffffffffffffffffffffffffffffffff\n      and\n      dup2\n      mstore\n      0x20\n      add\n      swap1\n      dup2\n      mstore\n      0x20\n      add\n      0x00\n      keccak256\n        /* \"contracts/SimpleBank/SimpleBank.sol\":5657:5688  return userAccounts[msg.sender] */\n      dup1\n      sload\n      dup1\n      0x20\n      mul\n      0x20\n      add\n      mload(0x40)\n      swap1\n      dup2\n      add\n      0x40\n      mstore\n      dup1\n      swap3\n      swap2\n      swap1\n      dup2\n      dup2\n      mstore\n      0x20\n      add\n      0x00\n      swap1\n    tag_218:\n      dup3\n      dup3\n      lt\n      iszero\n      tag_219\n      jumpi\n      dup4\n      dup3\n      swap1\n      0x00\n      mstore\n      keccak256(0x00, 0x20)\n      add\n      dup1\n      sload\n      tag_221\n      swap1\n      tag_222\n      jump\t// in\n    tag_221:\n      dup1\n      0x1f\n      add\n      0x20\n      dup1\n      swap2\n      div\n      mul\n      0x20\n      add\n      mload(0x40)\n      swap1\n      dup2\n      add\n      0x40\n      mstore\n      dup1\n      swap3\n      swap2\n      swap1\n      dup2\n      dup2\n      mstore\n      0x20\n      add\n      dup3\n      dup1\n      sload\n      tag_223\n      swap1\n      tag_222\n      jump\t// in\n    tag_223:\n      dup1\n      iszero\n      tag_224\n      jumpi\n      dup1\n      0x1f\n      lt\n      tag_225\n      jumpi\n      0x0100\n      dup1\n      dup4\n      sload\n      div\n      mul\n      dup4\n      mstore\n      swap2\n      0x20\n      add\n      swap2\n      jump(tag_224)\n    tag_225:\n      dup3\n      add\n      swap2\n      swap1\n      0x00\n      mstore\n      keccak256(0x00, 0x20)\n      swap1\n    tag_226:\n      dup2\n      sload\n      dup2\n      mstore\n      swap1\n      0x01\n      add\n      swap1\n      0x20\n      add\n      dup1\n      dup4\n      gt\n      tag_226\n      jumpi\n      dup3\n      swap1\n      sub\n      0x1f\n      and\n      dup3\n      add\n      swap2\n    tag_224:\n      pop\n      pop\n      pop\n      pop\n      pop\n      dup2\n      mstore\n      0x20\n      add\n      swap1\n      0x01\n      add\n      swap1\n      jump(tag_218)\n    tag_219:\n      pop\n      pop\n      pop\n      pop\n      swap1\n      pop\n        /* \"contracts/SimpleBank/SimpleBank.sol\":5581:5696  function getUserAccounts() public view returns (string[] memory) {... */\n      swap1\n      jump\t// out\n        /* \"contracts/SimpleBank/SimpleBank.sol\":5704:5793  function getBankOwner() public view returns (address) {... */\n    tag_49:\n        /* \"contracts/SimpleBank/SimpleBank.sol\":5749:5756  address */\n      0x00\n        /* \"contracts/SimpleBank/SimpleBank.sol\":5776:5785  bankOwner */\n      dup1\n      0x00\n      swap1\n      sload\n      swap1\n      0x0100\n      exp\n      swap1\n      div\n      0xffffffffffffffffffffffffffffffffffffffff\n      and\n        /* \"contracts/SimpleBank/SimpleBank.sol\":5769:5785  return bankOwner */\n      swap1\n      pop\n        /* \"contracts/SimpleBank/SimpleBank.sol\":5704:5793  function getBankOwner() public view returns (address) {... */\n      swap1\n      jump\t// out\n        /* \"contracts/SimpleBank/SimpleBank.sol\":5415:5573  function getBalanceByName(string memory _name)... */\n    tag_55:\n        /* \"contracts/SimpleBank/SimpleBank.sol\":5510:5517  uint256 */\n      0x00\n        /* \"contracts/SimpleBank/SimpleBank.sol\":5542:5550  accounts */\n      0x03\n        /* \"contracts/SimpleBank/SimpleBank.sol\":5551:5556  _name */\n      dup3\n        /* \"contracts/SimpleBank/SimpleBank.sol\":5542:5557  accounts[_name] */\n      mload(0x40)\n      tag_229\n      swap2\n      swap1\n      tag_70\n      jump\t// in\n    tag_229:\n      swap1\n      dup2\n      mstore\n      0x20\n      add\n      mload(0x40)\n      dup1\n      swap2\n      sub\n      swap1\n      keccak256\n        /* \"contracts/SimpleBank/SimpleBank.sol\":5542:5565  accounts[_name].balance */\n      0x02\n      add\n      sload\n        /* \"contracts/SimpleBank/SimpleBank.sol\":5535:5565  return accounts[_name].balance */\n      swap1\n      pop\n        /* \"contracts/SimpleBank/SimpleBank.sol\":5415:5573  function getBalanceByName(string memory _name)... */\n      swap2\n      swap1\n      pop\n      jump\t// out\n        /* \"contracts/SimpleBank/SimpleBank.sol\":5250:5407  function getAccountByName(string memory _name)... */\n    tag_60:\n        /* \"contracts/SimpleBank/SimpleBank.sol\":5345:5359  Account memory */\n      tag_230\n      tag_231\n      jump\t// in\n    tag_230:\n        /* \"contracts/SimpleBank/SimpleBank.sol\":5384:5392  accounts */\n      0x03\n        /* \"contracts/SimpleBank/SimpleBank.sol\":5393:5398  _name */\n      dup3\n        /* \"contracts/SimpleBank/SimpleBank.sol\":5384:5399  accounts[_name] */\n      mload(0x40)\n      tag_233\n      swap2\n      swap1\n      tag_70\n      jump\t// in\n    tag_233:\n      swap1\n      dup2\n      mstore\n      0x20\n      add\n      mload(0x40)\n      dup1\n      swap2\n      sub\n      swap1\n      keccak256\n        /* \"contracts/SimpleBank/SimpleBank.sol\":5377:5399  return accounts[_name] */\n      mload(0x40)\n      dup1\n      0x60\n      add\n      0x40\n      mstore\n      swap1\n      dup2\n      0x00\n      dup3\n      add\n      0x00\n      swap1\n      sload\n      swap1\n      0x0100\n      exp\n      swap1\n      div\n      0xffffffffffffffffffffffffffffffffffffffff\n      and\n      0xffffffffffffffffffffffffffffffffffffffff\n      and\n      0xffffffffffffffffffffffffffffffffffffffff\n      and\n      dup2\n      mstore\n      0x20\n      add\n      0x01\n      dup3\n      add\n      dup1\n      sload\n      tag_234\n      swap1\n      tag_222\n      jump\t// in\n    tag_234:\n      dup1\n      0x1f\n      add\n      0x20\n      dup1\n      swap2\n      div\n      mul\n      0x20\n      add\n      mload(0x40)\n      swap1\n      dup2\n      add\n      0x40\n      mstore\n      dup1\n      swap3\n      swap2\n      swap1\n      dup2\n      dup2\n      mstore\n      0x20\n      add\n      dup3\n      dup1\n      sload\n      tag_235\n      swap1\n      tag_222\n      jump\t// in\n    tag_235:\n      dup1\n      iszero\n      tag_236\n      jumpi\n      dup1\n      0x1f\n      lt\n      tag_237\n      jumpi\n      0x0100\n      dup1\n      dup4\n      sload\n      div\n      mul\n      dup4\n      mstore\n      swap2\n      0x20\n      add\n      swap2\n      jump(tag_236)\n    tag_237:\n      dup3\n      add\n      swap2\n      swap1\n      0x00\n      mstore\n      keccak256(0x00, 0x20)\n      swap1\n    tag_238:\n      dup2\n      sload\n      dup2\n      mstore\n      swap1\n      0x01\n      add\n      swap1\n      0x20\n      add\n      dup1\n      dup4\n      gt\n      tag_238\n      jumpi\n      dup3\n      swap1\n      sub\n      0x1f\n      and\n      dup3\n      add\n      swap2\n    tag_236:\n      pop\n      pop\n      pop\n      pop\n      pop\n      dup2\n      mstore\n      0x20\n      add\n      0x02\n      dup3\n      add\n      sload\n      dup2\n      mstore\n      pop\n      pop\n      swap1\n      pop\n        /* \"contracts/SimpleBank/SimpleBank.sol\":5250:5407  function getAccountByName(string memory _name)... */\n      swap2\n      swap1\n      pop\n      jump\t// out\n        /* \"contracts/SimpleBank/SimpleBank.sol\":3355:3708  function withdrawnBankBalance(uint256 _amount) public {... */\n    tag_67:\n        /* \"contracts/SimpleBank/SimpleBank.sol\":3441:3451  msg.sender */\n      caller\n        /* \"contracts/SimpleBank/SimpleBank.sol\":3428:3451  bankOwner == msg.sender */\n      0xffffffffffffffffffffffffffffffffffffffff\n      and\n        /* \"contracts/SimpleBank/SimpleBank.sol\":3428:3437  bankOwner */\n      0x00\n      dup1\n      sload\n      swap1\n      0x0100\n      exp\n      swap1\n      div\n      0xffffffffffffffffffffffffffffffffffffffff\n      and\n        /* \"contracts/SimpleBank/SimpleBank.sol\":3428:3451  bankOwner == msg.sender */\n      0xffffffffffffffffffffffffffffffffffffffff\n      and\n      eq\n        /* \"contracts/SimpleBank/SimpleBank.sol\":3420:3480  require(bankOwner == msg.sender, \"withdrawn_fail_not_owner\") */\n      tag_240\n      jumpi\n      mload(0x40)\n      0x08c379a000000000000000000000000000000000000000000000000000000000\n      dup2\n      mstore\n      0x04\n      add\n      tag_241\n      swap1\n      tag_157\n      jump\t// in\n    tag_241:\n      mload(0x40)\n      dup1\n      swap2\n      sub\n      swap1\n      revert\n    tag_240:\n        /* \"contracts/SimpleBank/SimpleBank.sol\":3509:3510  0 */\n      0x00\n        /* \"contracts/SimpleBank/SimpleBank.sol\":3499:3506  _amount */\n      dup2\n        /* \"contracts/SimpleBank/SimpleBank.sol\":3499:3510  _amount > 0 */\n      gt\n        /* \"contracts/SimpleBank/SimpleBank.sol\":3491:3540  require(_amount > 0, \"withdrawn_fail_value_zero\") */\n      tag_242\n      jumpi\n      mload(0x40)\n      0x08c379a000000000000000000000000000000000000000000000000000000000\n      dup2\n      mstore\n      0x04\n      add\n      tag_243\n      swap1\n      tag_160\n      jump\t// in\n    tag_243:\n      mload(0x40)\n      dup1\n      swap2\n      sub\n      swap1\n      revert\n    tag_242:\n        /* \"contracts/SimpleBank/SimpleBank.sol\":3574:3581  _amount */\n      dup1\n        /* \"contracts/SimpleBank/SimpleBank.sol\":3559:3570  bankBalance */\n      sload(0x01)\n        /* \"contracts/SimpleBank/SimpleBank.sol\":3559:3581  bankBalance >= _amount */\n      lt\n      iszero\n        /* \"contracts/SimpleBank/SimpleBank.sol\":3551:3619  require(bankBalance >= _amount, \"withdrawn_fail_balance_not_enough\") */\n      tag_244\n      jumpi\n      mload(0x40)\n      0x08c379a000000000000000000000000000000000000000000000000000000000\n      dup2\n      mstore\n      0x04\n      add\n      tag_245\n      swap1\n      tag_164\n      jump\t// in\n    tag_245:\n      mload(0x40)\n      dup1\n      swap2\n      sub\n      swap1\n      revert\n    tag_244:\n        /* \"contracts/SimpleBank/SimpleBank.sol\":3645:3652  _amount */\n      dup1\n        /* \"contracts/SimpleBank/SimpleBank.sol\":3630:3641  bankBalance */\n      0x01\n      0x00\n        /* \"contracts/SimpleBank/SimpleBank.sol\":3630:3652  bankBalance -= _amount */\n      dup3\n      dup3\n      sload\n      tag_246\n      swap2\n      swap1\n      tag_113\n      jump\t// in\n    tag_246:\n      swap3\n      pop\n      pop\n      dup2\n      swap1\n      sstore\n      pop\n        /* \"contracts/SimpleBank/SimpleBank.sol\":3671:3681  msg.sender */\n      caller\n        /* \"contracts/SimpleBank/SimpleBank.sol\":3663:3691  payable(msg.sender).transfer */\n      0xffffffffffffffffffffffffffffffffffffffff\n      and\n        /* \"contracts/SimpleBank/SimpleBank.sol\":3663:3700  payable(msg.sender).transfer(_amount) */\n      0x08fc\n        /* \"contracts/SimpleBank/SimpleBank.sol\":3692:3699  _amount */\n      dup3\n        /* \"contracts/SimpleBank/SimpleBank.sol\":3663:3700  payable(msg.sender).transfer(_amount) */\n      swap1\n      dup2\n      iszero\n      mul\n      swap1\n      mload(0x40)\n      0x00\n      mload(0x40)\n      dup1\n      dup4\n      sub\n      dup2\n      dup6\n      dup9\n      dup9\n      call\n      swap4\n      pop\n      pop\n      pop\n      pop\n      iszero\n      dup1\n      iszero\n      tag_248\n      jumpi\n      returndatasize\n      0x00\n      dup1\n      returndatacopy\n      revert(0x00, returndatasize)\n    tag_248:\n      pop\n        /* \"contracts/SimpleBank/SimpleBank.sol\":3355:3708  function withdrawnBankBalance(uint256 _amount) public {... */\n      pop\n      jump\t// out\n    tag_231:\n      mload(0x40)\n      dup1\n      0x60\n      add\n      0x40\n      mstore\n      dup1\n      and(0xffffffffffffffffffffffffffffffffffffffff, 0x00)\n      dup2\n      mstore\n      0x20\n      add\n      0x60\n      dup2\n      mstore\n      0x20\n      add\n      0x00\n      dup2\n      mstore\n      pop\n      swap1\n      jump\t// out\n        /* \"#utility.yul\":7:82   */\n    tag_249:\n        /* \"#utility.yul\":40:46   */\n      0x00\n        /* \"#utility.yul\":73:75   */\n      0x40\n        /* \"#utility.yul\":67:76   */\n      mload\n        /* \"#utility.yul\":57:76   */\n      swap1\n      pop\n        /* \"#utility.yul\":7:82   */\n      swap1\n      jump\t// out\n        /* \"#utility.yul\":88:205   */\n    tag_250:\n        /* \"#utility.yul\":197:198   */\n      0x00\n        /* \"#utility.yul\":194:195   */\n      dup1\n        /* \"#utility.yul\":187:199   */\n      revert\n        /* \"#utility.yul\":211:328   */\n    tag_251:\n        /* \"#utility.yul\":320:321   */\n      0x00\n        /* \"#utility.yul\":317:318   */\n      dup1\n        /* \"#utility.yul\":310:322   */\n      revert\n        /* \"#utility.yul\":334:451   */\n    tag_252:\n        /* \"#utility.yul\":443:444   */\n      0x00\n        /* \"#utility.yul\":440:441   */\n      dup1\n        /* \"#utility.yul\":433:445   */\n      revert\n        /* \"#utility.yul\":457:574   */\n    tag_253:\n        /* \"#utility.yul\":566:567   */\n      0x00\n        /* \"#utility.yul\":563:564   */\n      dup1\n        /* \"#utility.yul\":556:568   */\n      revert\n        /* \"#utility.yul\":580:682   */\n    tag_254:\n        /* \"#utility.yul\":621:627   */\n      0x00\n        /* \"#utility.yul\":672:674   */\n      0x1f\n        /* \"#utility.yul\":668:675   */\n      not\n        /* \"#utility.yul\":663:665   */\n      0x1f\n        /* \"#utility.yul\":656:661   */\n      dup4\n        /* \"#utility.yul\":652:666   */\n      add\n        /* \"#utility.yul\":648:676   */\n      and\n        /* \"#utility.yul\":638:676   */\n      swap1\n      pop\n        /* \"#utility.yul\":580:682   */\n      swap2\n      swap1\n      pop\n      jump\t// out\n        /* \"#utility.yul\":688:868   */\n    tag_255:\n        /* \"#utility.yul\":736:813   */\n      0x4e487b7100000000000000000000000000000000000000000000000000000000\n        /* \"#utility.yul\":733:734   */\n      0x00\n        /* \"#utility.yul\":726:814   */\n      mstore\n        /* \"#utility.yul\":833:837   */\n      0x41\n        /* \"#utility.yul\":830:831   */\n      0x04\n        /* \"#utility.yul\":823:838   */\n      mstore\n        /* \"#utility.yul\":857:861   */\n      0x24\n        /* \"#utility.yul\":854:855   */\n      0x00\n        /* \"#utility.yul\":847:862   */\n      revert\n        /* \"#utility.yul\":874:1155   */\n    tag_256:\n        /* \"#utility.yul\":957:984   */\n      tag_341\n        /* \"#utility.yul\":979:983   */\n      dup3\n        /* \"#utility.yul\":957:984   */\n      tag_254\n      jump\t// in\n    tag_341:\n        /* \"#utility.yul\":949:955   */\n      dup2\n        /* \"#utility.yul\":945:985   */\n      add\n        /* \"#utility.yul\":1087:1093   */\n      dup2\n        /* \"#utility.yul\":1075:1085   */\n      dup2\n        /* \"#utility.yul\":1072:1094   */\n      lt\n        /* \"#utility.yul\":1051:1069   */\n      0xffffffffffffffff\n        /* \"#utility.yul\":1039:1049   */\n      dup3\n        /* \"#utility.yul\":1036:1070   */\n      gt\n        /* \"#utility.yul\":1033:1095   */\n      or\n        /* \"#utility.yul\":1030:1118   */\n      iszero\n      tag_342\n      jumpi\n        /* \"#utility.yul\":1098:1116   */\n      tag_343\n      tag_255\n      jump\t// in\n    tag_343:\n        /* \"#utility.yul\":1030:1118   */\n    tag_342:\n        /* \"#utility.yul\":1138:1148   */\n      dup1\n        /* \"#utility.yul\":1134:1136   */\n      0x40\n        /* \"#utility.yul\":1127:1149   */\n      mstore\n        /* \"#utility.yul\":917:1155   */\n      pop\n        /* \"#utility.yul\":874:1155   */\n      pop\n      pop\n      jump\t// out\n        /* \"#utility.yul\":1161:1290   */\n    tag_257:\n        /* \"#utility.yul\":1195:1201   */\n      0x00\n        /* \"#utility.yul\":1222:1242   */\n      tag_345\n      tag_249\n      jump\t// in\n    tag_345:\n        /* \"#utility.yul\":1212:1242   */\n      swap1\n      pop\n        /* \"#utility.yul\":1251:1284   */\n      tag_346\n        /* \"#utility.yul\":1279:1283   */\n      dup3\n        /* \"#utility.yul\":1271:1277   */\n      dup3\n        /* \"#utility.yul\":1251:1284   */\n      tag_256\n      jump\t// in\n    tag_346:\n        /* \"#utility.yul\":1161:1290   */\n      swap2\n      swap1\n      pop\n      jump\t// out\n        /* \"#utility.yul\":1296:1604   */\n    tag_258:\n        /* \"#utility.yul\":1358:1362   */\n      0x00\n        /* \"#utility.yul\":1448:1466   */\n      0xffffffffffffffff\n        /* \"#utility.yul\":1440:1446   */\n      dup3\n        /* \"#utility.yul\":1437:1467   */\n      gt\n        /* \"#utility.yul\":1434:1490   */\n      iszero\n      tag_348\n      jumpi\n        /* \"#utility.yul\":1470:1488   */\n      tag_349\n      tag_255\n      jump\t// in\n    tag_349:\n        /* \"#utility.yul\":1434:1490   */\n    tag_348:\n        /* \"#utility.yul\":1508:1537   */\n      tag_350\n        /* \"#utility.yul\":1530:1536   */\n      dup3\n        /* \"#utility.yul\":1508:1537   */\n      tag_254\n      jump\t// in\n    tag_350:\n        /* \"#utility.yul\":1500:1537   */\n      swap1\n      pop\n        /* \"#utility.yul\":1592:1596   */\n      0x20\n        /* \"#utility.yul\":1586:1590   */\n      dup2\n        /* \"#utility.yul\":1582:1597   */\n      add\n        /* \"#utility.yul\":1574:1597   */\n      swap1\n      pop\n        /* \"#utility.yul\":1296:1604   */\n      swap2\n      swap1\n      pop\n      jump\t// out\n        /* \"#utility.yul\":1610:1764   */\n    tag_259:\n        /* \"#utility.yul\":1694:1700   */\n      dup3\n        /* \"#utility.yul\":1689:1692   */\n      dup2\n        /* \"#utility.yul\":1684:1687   */\n      dup4\n        /* \"#utility.yul\":1671:1701   */\n      calldatacopy\n        /* \"#utility.yul\":1756:1757   */\n      0x00\n        /* \"#utility.yul\":1747:1753   */\n      dup4\n        /* \"#utility.yul\":1742:1745   */\n      dup4\n        /* \"#utility.yul\":1738:1754   */\n      add\n        /* \"#utility.yul\":1731:1758   */\n      mstore\n        /* \"#utility.yul\":1610:1764   */\n      pop\n      pop\n      pop\n      jump\t// out\n        /* \"#utility.yul\":1770:2182   */\n    tag_260:\n        /* \"#utility.yul\":1848:1853   */\n      0x00\n        /* \"#utility.yul\":1873:1939   */\n      tag_353\n        /* \"#utility.yul\":1889:1938   */\n      tag_354\n        /* \"#utility.yul\":1931:1937   */\n      dup5\n        /* \"#utility.yul\":1889:1938   */\n      tag_258\n      jump\t// in\n    tag_354:\n        /* \"#utility.yul\":1873:1939   */\n      tag_257\n      jump\t// in\n    tag_353:\n        /* \"#utility.yul\":1864:1939   */\n      swap1\n      pop\n        /* \"#utility.yul\":1962:1968   */\n      dup3\n        /* \"#utility.yul\":1955:1960   */\n      dup2\n        /* \"#utility.yul\":1948:1969   */\n      mstore\n        /* \"#utility.yul\":2000:2004   */\n      0x20\n        /* \"#utility.yul\":1993:1998   */\n      dup2\n        /* \"#utility.yul\":1989:2005   */\n      add\n        /* \"#utility.yul\":2038:2041   */\n      dup5\n        /* \"#utility.yul\":2029:2035   */\n      dup5\n        /* \"#utility.yul\":2024:2027   */\n      dup5\n        /* \"#utility.yul\":2020:2036   */\n      add\n        /* \"#utility.yul\":2017:2042   */\n      gt\n        /* \"#utility.yul\":2014:2126   */\n      iszero\n      tag_355\n      jumpi\n        /* \"#utility.yul\":2045:2124   */\n      tag_356\n      tag_253\n      jump\t// in\n    tag_356:\n        /* \"#utility.yul\":2014:2126   */\n    tag_355:\n        /* \"#utility.yul\":2135:2176   */\n      tag_357\n        /* \"#utility.yul\":2169:2175   */\n      dup5\n        /* \"#utility.yul\":2164:2167   */\n      dup3\n        /* \"#utility.yul\":2159:2162   */\n      dup6\n        /* \"#utility.yul\":2135:2176   */\n      tag_259\n      jump\t// in\n    tag_357:\n        /* \"#utility.yul\":1854:2182   */\n      pop\n        /* \"#utility.yul\":1770:2182   */\n      swap4\n      swap3\n      pop\n      pop\n      pop\n      jump\t// out\n        /* \"#utility.yul\":2202:2542   */\n    tag_261:\n        /* \"#utility.yul\":2258:2263   */\n      0x00\n        /* \"#utility.yul\":2307:2310   */\n      dup3\n        /* \"#utility.yul\":2300:2304   */\n      0x1f\n        /* \"#utility.yul\":2292:2298   */\n      dup4\n        /* \"#utility.yul\":2288:2305   */\n      add\n        /* \"#utility.yul\":2284:2311   */\n      slt\n        /* \"#utility.yul\":2274:2396   */\n      tag_359\n      jumpi\n        /* \"#utility.yul\":2315:2394   */\n      tag_360\n      tag_252\n      jump\t// in\n    tag_360:\n        /* \"#utility.yul\":2274:2396   */\n    tag_359:\n        /* \"#utility.yul\":2432:2438   */\n      dup2\n        /* \"#utility.yul\":2419:2439   */\n      calldataload\n        /* \"#utility.yul\":2457:2536   */\n      tag_361\n        /* \"#utility.yul\":2532:2535   */\n      dup5\n        /* \"#utility.yul\":2524:2530   */\n      dup3\n        /* \"#utility.yul\":2517:2521   */\n      0x20\n        /* \"#utility.yul\":2509:2515   */\n      dup7\n        /* \"#utility.yul\":2505:2522   */\n      add\n        /* \"#utility.yul\":2457:2536   */\n      tag_260\n      jump\t// in\n    tag_361:\n        /* \"#utility.yul\":2448:2536   */\n      swap2\n      pop\n        /* \"#utility.yul\":2264:2542   */\n      pop\n        /* \"#utility.yul\":2202:2542   */\n      swap3\n      swap2\n      pop\n      pop\n      jump\t// out\n        /* \"#utility.yul\":2548:2869   */\n    tag_262:\n        /* \"#utility.yul\":2635:2639   */\n      0x00\n        /* \"#utility.yul\":2725:2743   */\n      0xffffffffffffffff\n        /* \"#utility.yul\":2717:2723   */\n      dup3\n        /* \"#utility.yul\":2714:2744   */\n      gt\n        /* \"#utility.yul\":2711:2767   */\n      iszero\n      tag_363\n      jumpi\n        /* \"#utility.yul\":2747:2765   */\n      tag_364\n      tag_255\n      jump\t// in\n    tag_364:\n        /* \"#utility.yul\":2711:2767   */\n    tag_363:\n        /* \"#utility.yul\":2797:2801   */\n      0x20\n        /* \"#utility.yul\":2789:2795   */\n      dup3\n        /* \"#utility.yul\":2785:2802   */\n      mul\n        /* \"#utility.yul\":2777:2802   */\n      swap1\n      pop\n        /* \"#utility.yul\":2857:2861   */\n      0x20\n        /* \"#utility.yul\":2851:2855   */\n      dup2\n        /* \"#utility.yul\":2847:2862   */\n      add\n        /* \"#utility.yul\":2839:2862   */\n      swap1\n      pop\n        /* \"#utility.yul\":2548:2869   */\n      swap2\n      swap1\n      pop\n      jump\t// out\n        /* \"#utility.yul\":2875:2992   */\n    tag_263:\n        /* \"#utility.yul\":2984:2985   */\n      0x00\n        /* \"#utility.yul\":2981:2982   */\n      dup1\n        /* \"#utility.yul\":2974:2986   */\n      revert\n        /* \"#utility.yul\":3014:3959   */\n    tag_264:\n        /* \"#utility.yul\":3120:3125   */\n      0x00\n        /* \"#utility.yul\":3145:3236   */\n      tag_367\n        /* \"#utility.yul\":3161:3235   */\n      tag_368\n        /* \"#utility.yul\":3228:3234   */\n      dup5\n        /* \"#utility.yul\":3161:3235   */\n      tag_262\n      jump\t// in\n    tag_368:\n        /* \"#utility.yul\":3145:3236   */\n      tag_257\n      jump\t// in\n    tag_367:\n        /* \"#utility.yul\":3136:3236   */\n      swap1\n      pop\n        /* \"#utility.yul\":3256:3261   */\n      dup1\n        /* \"#utility.yul\":3285:3291   */\n      dup4\n        /* \"#utility.yul\":3278:3283   */\n      dup3\n        /* \"#utility.yul\":3271:3292   */\n      mstore\n        /* \"#utility.yul\":3319:3323   */\n      0x20\n        /* \"#utility.yul\":3312:3317   */\n      dup3\n        /* \"#utility.yul\":3308:3324   */\n      add\n        /* \"#utility.yul\":3301:3324   */\n      swap1\n      pop\n        /* \"#utility.yul\":3372:3376   */\n      0x20\n        /* \"#utility.yul\":3364:3370   */\n      dup5\n        /* \"#utility.yul\":3360:3377   */\n      mul\n        /* \"#utility.yul\":3352:3358   */\n      dup4\n        /* \"#utility.yul\":3348:3378   */\n      add\n        /* \"#utility.yul\":3401:3404   */\n      dup6\n        /* \"#utility.yul\":3393:3399   */\n      dup2\n        /* \"#utility.yul\":3390:3405   */\n      gt\n        /* \"#utility.yul\":3387:3509   */\n      iszero\n      tag_369\n      jumpi\n        /* \"#utility.yul\":3420:3499   */\n      tag_370\n      tag_263\n      jump\t// in\n    tag_370:\n        /* \"#utility.yul\":3387:3509   */\n    tag_369:\n        /* \"#utility.yul\":3535:3541   */\n      dup4\n        /* \"#utility.yul\":3518:3953   */\n    tag_371:\n        /* \"#utility.yul\":3552:3558   */\n      dup2\n        /* \"#utility.yul\":3547:3550   */\n      dup2\n        /* \"#utility.yul\":3544:3559   */\n      lt\n        /* \"#utility.yul\":3518:3953   */\n      iszero\n      tag_373\n      jumpi\n        /* \"#utility.yul\":3641:3644   */\n      dup1\n        /* \"#utility.yul\":3628:3645   */\n      calldataload\n        /* \"#utility.yul\":3677:3695   */\n      0xffffffffffffffff\n        /* \"#utility.yul\":3664:3675   */\n      dup2\n        /* \"#utility.yul\":3661:3696   */\n      gt\n        /* \"#utility.yul\":3658:3780   */\n      iszero\n      tag_374\n      jumpi\n        /* \"#utility.yul\":3699:3778   */\n      tag_375\n      tag_252\n      jump\t// in\n    tag_375:\n        /* \"#utility.yul\":3658:3780   */\n    tag_374:\n        /* \"#utility.yul\":3823:3834   */\n      dup1\n        /* \"#utility.yul\":3815:3821   */\n      dup7\n        /* \"#utility.yul\":3811:3835   */\n      add\n        /* \"#utility.yul\":3861:3908   */\n      tag_376\n        /* \"#utility.yul\":3904:3907   */\n      dup10\n        /* \"#utility.yul\":3892:3902   */\n      dup3\n        /* \"#utility.yul\":3861:3908   */\n      tag_261\n      jump\t// in\n    tag_376:\n        /* \"#utility.yul\":3856:3859   */\n      dup6\n        /* \"#utility.yul\":3849:3909   */\n      mstore\n        /* \"#utility.yul\":3938:3942   */\n      0x20\n        /* \"#utility.yul\":3933:3936   */\n      dup6\n        /* \"#utility.yul\":3929:3943   */\n      add\n        /* \"#utility.yul\":3922:3943   */\n      swap5\n      pop\n        /* \"#utility.yul\":3594:3953   */\n      pop\n      pop\n        /* \"#utility.yul\":3578:3582   */\n      0x20\n        /* \"#utility.yul\":3573:3576   */\n      dup2\n        /* \"#utility.yul\":3569:3583   */\n      add\n        /* \"#utility.yul\":3562:3583   */\n      swap1\n      pop\n        /* \"#utility.yul\":3518:3953   */\n      jump(tag_371)\n    tag_373:\n        /* \"#utility.yul\":3522:3543   */\n      pop\n        /* \"#utility.yul\":3126:3959   */\n      pop\n      pop\n        /* \"#utility.yul\":3014:3959   */\n      swap4\n      swap3\n      pop\n      pop\n      pop\n      jump\t// out\n        /* \"#utility.yul\":3981:4371   */\n    tag_265:\n        /* \"#utility.yul\":4062:4067   */\n      0x00\n        /* \"#utility.yul\":4111:4114   */\n      dup3\n        /* \"#utility.yul\":4104:4108   */\n      0x1f\n        /* \"#utility.yul\":4096:4102   */\n      dup4\n        /* \"#utility.yul\":4092:4109   */\n      add\n        /* \"#utility.yul\":4088:4115   */\n      slt\n        /* \"#utility.yul\":4078:4200   */\n      tag_378\n      jumpi\n        /* \"#utility.yul\":4119:4198   */\n      tag_379\n      tag_252\n      jump\t// in\n    tag_379:\n        /* \"#utility.yul\":4078:4200   */\n    tag_378:\n        /* \"#utility.yul\":4236:4242   */\n      dup2\n        /* \"#utility.yul\":4223:4243   */\n      calldataload\n        /* \"#utility.yul\":4261:4365   */\n      tag_380\n        /* \"#utility.yul\":4361:4364   */\n      dup5\n        /* \"#utility.yul\":4353:4359   */\n      dup3\n        /* \"#utility.yul\":4346:4350   */\n      0x20\n        /* \"#utility.yul\":4338:4344   */\n      dup7\n        /* \"#utility.yul\":4334:4351   */\n      add\n        /* \"#utility.yul\":4261:4365   */\n      tag_264\n      jump\t// in\n    tag_380:\n        /* \"#utility.yul\":4252:4365   */\n      swap2\n      pop\n        /* \"#utility.yul\":4068:4371   */\n      pop\n        /* \"#utility.yul\":3981:4371   */\n      swap3\n      swap2\n      pop\n      pop\n      jump\t// out\n        /* \"#utility.yul\":4377:4454   */\n    tag_266:\n        /* \"#utility.yul\":4414:4421   */\n      0x00\n        /* \"#utility.yul\":4443:4448   */\n      dup2\n        /* \"#utility.yul\":4432:4448   */\n      swap1\n      pop\n        /* \"#utility.yul\":4377:4454   */\n      swap2\n      swap1\n      pop\n      jump\t// out\n        /* \"#utility.yul\":4460:4582   */\n    tag_267:\n        /* \"#utility.yul\":4533:4557   */\n      tag_383\n        /* \"#utility.yul\":4551:4556   */\n      dup2\n        /* \"#utility.yul\":4533:4557   */\n      tag_266\n      jump\t// in\n    tag_383:\n        /* \"#utility.yul\":4526:4531   */\n      dup2\n        /* \"#utility.yul\":4523:4558   */\n      eq\n        /* \"#utility.yul\":4513:4576   */\n      tag_384\n      jumpi\n        /* \"#utility.yul\":4572:4573   */\n      0x00\n        /* \"#utility.yul\":4569:4570   */\n      dup1\n        /* \"#utility.yul\":4562:4574   */\n      revert\n        /* \"#utility.yul\":4513:4576   */\n    tag_384:\n        /* \"#utility.yul\":4460:4582   */\n      pop\n      jump\t// out\n        /* \"#utility.yul\":4588:4727   */\n    tag_268:\n        /* \"#utility.yul\":4634:4639   */\n      0x00\n        /* \"#utility.yul\":4672:4678   */\n      dup2\n        /* \"#utility.yul\":4659:4679   */\n      calldataload\n        /* \"#utility.yul\":4650:4679   */\n      swap1\n      pop\n        /* \"#utility.yul\":4688:4721   */\n      tag_386\n        /* \"#utility.yul\":4715:4720   */\n      dup2\n        /* \"#utility.yul\":4688:4721   */\n      tag_267\n      jump\t// in\n    tag_386:\n        /* \"#utility.yul\":4588:4727   */\n      swap3\n      swap2\n      pop\n      pop\n      jump\t// out\n        /* \"#utility.yul\":4733:5762   */\n    tag_17:\n        /* \"#utility.yul\":4855:4861   */\n      0x00\n        /* \"#utility.yul\":4863:4869   */\n      dup1\n        /* \"#utility.yul\":4871:4877   */\n      0x00\n        /* \"#utility.yul\":4920:4922   */\n      0x60\n        /* \"#utility.yul\":4908:4917   */\n      dup5\n        /* \"#utility.yul\":4899:4906   */\n      dup7\n        /* \"#utility.yul\":4895:4918   */\n      sub\n        /* \"#utility.yul\":4891:4923   */\n      slt\n        /* \"#utility.yul\":4888:5007   */\n      iszero\n      tag_388\n      jumpi\n        /* \"#utility.yul\":4926:5005   */\n      tag_389\n      tag_250\n      jump\t// in\n    tag_389:\n        /* \"#utility.yul\":4888:5007   */\n    tag_388:\n        /* \"#utility.yul\":5074:5075   */\n      0x00\n        /* \"#utility.yul\":5063:5072   */\n      dup5\n        /* \"#utility.yul\":5059:5076   */\n      add\n        /* \"#utility.yul\":5046:5077   */\n      calldataload\n        /* \"#utility.yul\":5104:5122   */\n      0xffffffffffffffff\n        /* \"#utility.yul\":5096:5102   */\n      dup2\n        /* \"#utility.yul\":5093:5123   */\n      gt\n        /* \"#utility.yul\":5090:5207   */\n      iszero\n      tag_390\n      jumpi\n        /* \"#utility.yul\":5126:5205   */\n      tag_391\n      tag_251\n      jump\t// in\n    tag_391:\n        /* \"#utility.yul\":5090:5207   */\n    tag_390:\n        /* \"#utility.yul\":5231:5294   */\n      tag_392\n        /* \"#utility.yul\":5286:5293   */\n      dup7\n        /* \"#utility.yul\":5277:5283   */\n      dup3\n        /* \"#utility.yul\":5266:5275   */\n      dup8\n        /* \"#utility.yul\":5262:5284   */\n      add\n        /* \"#utility.yul\":5231:5294   */\n      tag_261\n      jump\t// in\n    tag_392:\n        /* \"#utility.yul\":5221:5294   */\n      swap4\n      pop\n        /* \"#utility.yul\":5017:5304   */\n      pop\n        /* \"#utility.yul\":5371:5373   */\n      0x20\n        /* \"#utility.yul\":5360:5369   */\n      dup5\n        /* \"#utility.yul\":5356:5374   */\n      add\n        /* \"#utility.yul\":5343:5375   */\n      calldataload\n        /* \"#utility.yul\":5402:5420   */\n      0xffffffffffffffff\n        /* \"#utility.yul\":5394:5400   */\n      dup2\n        /* \"#utility.yul\":5391:5421   */\n      gt\n        /* \"#utility.yul\":5388:5505   */\n      iszero\n      tag_393\n      jumpi\n        /* \"#utility.yul\":5424:5503   */\n      tag_394\n      tag_251\n      jump\t// in\n    tag_394:\n        /* \"#utility.yul\":5388:5505   */\n    tag_393:\n        /* \"#utility.yul\":5529:5617   */\n      tag_395\n        /* \"#utility.yul\":5609:5616   */\n      dup7\n        /* \"#utility.yul\":5600:5606   */\n      dup3\n        /* \"#utility.yul\":5589:5598   */\n      dup8\n        /* \"#utility.yul\":5585:5607   */\n      add\n        /* \"#utility.yul\":5529:5617   */\n      tag_265\n      jump\t// in\n    tag_395:\n        /* \"#utility.yul\":5519:5617   */\n      swap3\n      pop\n        /* \"#utility.yul\":5314:5627   */\n      pop\n        /* \"#utility.yul\":5666:5668   */\n      0x40\n        /* \"#utility.yul\":5692:5745   */\n      tag_396\n        /* \"#utility.yul\":5737:5744   */\n      dup7\n        /* \"#utility.yul\":5728:5734   */\n      dup3\n        /* \"#utility.yul\":5717:5726   */\n      dup8\n        /* \"#utility.yul\":5713:5735   */\n      add\n        /* \"#utility.yul\":5692:5745   */\n      tag_268\n      jump\t// in\n    tag_396:\n        /* \"#utility.yul\":5682:5745   */\n      swap2\n      pop\n        /* \"#utility.yul\":5637:5755   */\n      pop\n        /* \"#utility.yul\":4733:5762   */\n      swap3\n      pop\n      swap3\n      pop\n      swap3\n      jump\t// out\n        /* \"#utility.yul\":5768:6277   */\n    tag_22:\n        /* \"#utility.yul\":5837:5843   */\n      0x00\n        /* \"#utility.yul\":5886:5888   */\n      0x20\n        /* \"#utility.yul\":5874:5883   */\n      dup3\n        /* \"#utility.yul\":5865:5872   */\n      dup5\n        /* \"#utility.yul\":5861:5884   */\n      sub\n        /* \"#utility.yul\":5857:5889   */\n      slt\n        /* \"#utility.yul\":5854:5973   */\n      iszero\n      tag_398\n      jumpi\n        /* \"#utility.yul\":5892:5971   */\n      tag_399\n      tag_250\n      jump\t// in\n    tag_399:\n        /* \"#utility.yul\":5854:5973   */\n    tag_398:\n        /* \"#utility.yul\":6040:6041   */\n      0x00\n        /* \"#utility.yul\":6029:6038   */\n      dup3\n        /* \"#utility.yul\":6025:6042   */\n      add\n        /* \"#utility.yul\":6012:6043   */\n      calldataload\n        /* \"#utility.yul\":6070:6088   */\n      0xffffffffffffffff\n        /* \"#utility.yul\":6062:6068   */\n      dup2\n        /* \"#utility.yul\":6059:6089   */\n      gt\n        /* \"#utility.yul\":6056:6173   */\n      iszero\n      tag_400\n      jumpi\n        /* \"#utility.yul\":6092:6171   */\n      tag_401\n      tag_251\n      jump\t// in\n    tag_401:\n        /* \"#utility.yul\":6056:6173   */\n    tag_400:\n        /* \"#utility.yul\":6197:6260   */\n      tag_402\n        /* \"#utility.yul\":6252:6259   */\n      dup5\n        /* \"#utility.yul\":6243:6249   */\n      dup3\n        /* \"#utility.yul\":6232:6241   */\n      dup6\n        /* \"#utility.yul\":6228:6250   */\n      add\n        /* \"#utility.yul\":6197:6260   */\n      tag_261\n      jump\t// in\n    tag_402:\n        /* \"#utility.yul\":6187:6260   */\n      swap2\n      pop\n        /* \"#utility.yul\":5983:6270   */\n      pop\n        /* \"#utility.yul\":5768:6277   */\n      swap3\n      swap2\n      pop\n      pop\n      jump\t// out\n        /* \"#utility.yul\":6283:6937   */\n    tag_27:\n        /* \"#utility.yul\":6361:6367   */\n      0x00\n        /* \"#utility.yul\":6369:6375   */\n      dup1\n        /* \"#utility.yul\":6418:6420   */\n      0x40\n        /* \"#utility.yul\":6406:6415   */\n      dup4\n        /* \"#utility.yul\":6397:6404   */\n      dup6\n        /* \"#utility.yul\":6393:6416   */\n      sub\n        /* \"#utility.yul\":6389:6421   */\n      slt\n        /* \"#utility.yul\":6386:6505   */\n      iszero\n      tag_404\n      jumpi\n        /* \"#utility.yul\":6424:6503   */\n      tag_405\n      tag_250\n      jump\t// in\n    tag_405:\n        /* \"#utility.yul\":6386:6505   */\n    tag_404:\n        /* \"#utility.yul\":6572:6573   */\n      0x00\n        /* \"#utility.yul\":6561:6570   */\n      dup4\n        /* \"#utility.yul\":6557:6574   */\n      add\n        /* \"#utility.yul\":6544:6575   */\n      calldataload\n        /* \"#utility.yul\":6602:6620   */\n      0xffffffffffffffff\n        /* \"#utility.yul\":6594:6600   */\n      dup2\n        /* \"#utility.yul\":6591:6621   */\n      gt\n        /* \"#utility.yul\":6588:6705   */\n      iszero\n      tag_406\n      jumpi\n        /* \"#utility.yul\":6624:6703   */\n      tag_407\n      tag_251\n      jump\t// in\n    tag_407:\n        /* \"#utility.yul\":6588:6705   */\n    tag_406:\n        /* \"#utility.yul\":6729:6792   */\n      tag_408\n        /* \"#utility.yul\":6784:6791   */\n      dup6\n        /* \"#utility.yul\":6775:6781   */\n      dup3\n        /* \"#utility.yul\":6764:6773   */\n      dup7\n        /* \"#utility.yul\":6760:6782   */\n      add\n        /* \"#utility.yul\":6729:6792   */\n      tag_261\n      jump\t// in\n    tag_408:\n        /* \"#utility.yul\":6719:6792   */\n      swap3\n      pop\n        /* \"#utility.yul\":6515:6802   */\n      pop\n        /* \"#utility.yul\":6841:6843   */\n      0x20\n        /* \"#utility.yul\":6867:6920   */\n      tag_409\n        /* \"#utility.yul\":6912:6919   */\n      dup6\n        /* \"#utility.yul\":6903:6909   */\n      dup3\n        /* \"#utility.yul\":6892:6901   */\n      dup7\n        /* \"#utility.yul\":6888:6910   */\n      add\n        /* \"#utility.yul\":6867:6920   */\n      tag_268\n      jump\t// in\n    tag_409:\n        /* \"#utility.yul\":6857:6920   */\n      swap2\n      pop\n        /* \"#utility.yul\":6812:6930   */\n      pop\n        /* \"#utility.yul\":6283:6937   */\n      swap3\n      pop\n      swap3\n      swap1\n      pop\n      jump\t// out\n        /* \"#utility.yul\":6943:7922   */\n    tag_32:\n        /* \"#utility.yul\":7040:7046   */\n      0x00\n        /* \"#utility.yul\":7048:7054   */\n      dup1\n        /* \"#utility.yul\":7056:7062   */\n      0x00\n        /* \"#utility.yul\":7105:7107   */\n      0x60\n        /* \"#utility.yul\":7093:7102   */\n      dup5\n        /* \"#utility.yul\":7084:7091   */\n      dup7\n        /* \"#utility.yul\":7080:7103   */\n      sub\n        /* \"#utility.yul\":7076:7108   */\n      slt\n        /* \"#utility.yul\":7073:7192   */\n      iszero\n      tag_411\n      jumpi\n        /* \"#utility.yul\":7111:7190   */\n      tag_412\n      tag_250\n      jump\t// in\n    tag_412:\n        /* \"#utility.yul\":7073:7192   */\n    tag_411:\n        /* \"#utility.yul\":7259:7260   */\n      0x00\n        /* \"#utility.yul\":7248:7257   */\n      dup5\n        /* \"#utility.yul\":7244:7261   */\n      add\n        /* \"#utility.yul\":7231:7262   */\n      calldataload\n        /* \"#utility.yul\":7289:7307   */\n      0xffffffffffffffff\n        /* \"#utility.yul\":7281:7287   */\n      dup2\n        /* \"#utility.yul\":7278:7308   */\n      gt\n        /* \"#utility.yul\":7275:7392   */\n      iszero\n      tag_413\n      jumpi\n        /* \"#utility.yul\":7311:7390   */\n      tag_414\n      tag_251\n      jump\t// in\n    tag_414:\n        /* \"#utility.yul\":7275:7392   */\n    tag_413:\n        /* \"#utility.yul\":7416:7479   */\n      tag_415\n        /* \"#utility.yul\":7471:7478   */\n      dup7\n        /* \"#utility.yul\":7462:7468   */\n      dup3\n        /* \"#utility.yul\":7451:7460   */\n      dup8\n        /* \"#utility.yul\":7447:7469   */\n      add\n        /* \"#utility.yul\":7416:7479   */\n      tag_261\n      jump\t// in\n    tag_415:\n        /* \"#utility.yul\":7406:7479   */\n      swap4\n      pop\n        /* \"#utility.yul\":7202:7489   */\n      pop\n        /* \"#utility.yul\":7556:7558   */\n      0x20\n        /* \"#utility.yul\":7545:7554   */\n      dup5\n        /* \"#utility.yul\":7541:7559   */\n      add\n        /* \"#utility.yul\":7528:7560   */\n      calldataload\n        /* \"#utility.yul\":7587:7605   */\n      0xffffffffffffffff\n        /* \"#utility.yul\":7579:7585   */\n      dup2\n        /* \"#utility.yul\":7576:7606   */\n      gt\n        /* \"#utility.yul\":7573:7690   */\n      iszero\n      tag_416\n      jumpi\n        /* \"#utility.yul\":7609:7688   */\n      tag_417\n      tag_251\n      jump\t// in\n    tag_417:\n        /* \"#utility.yul\":7573:7690   */\n    tag_416:\n        /* \"#utility.yul\":7714:7777   */\n      tag_418\n        /* \"#utility.yul\":7769:7776   */\n      dup7\n        /* \"#utility.yul\":7760:7766   */\n      dup3\n        /* \"#utility.yul\":7749:7758   */\n      dup8\n        /* \"#utility.yul\":7745:7767   */\n      add\n        /* \"#utility.yul\":7714:7777   */\n      tag_261\n      jump\t// in\n    tag_418:\n        /* \"#utility.yul\":7704:7777   */\n      swap3\n      pop\n        /* \"#utility.yul\":7499:7787   */\n      pop\n        /* \"#utility.yul\":7826:7828   */\n      0x40\n        /* \"#utility.yul\":7852:7905   */\n      tag_419\n        /* \"#utility.yul\":7897:7904   */\n      dup7\n        /* \"#utility.yul\":7888:7894   */\n      dup3\n        /* \"#utility.yul\":7877:7886   */\n      dup8\n        /* \"#utility.yul\":7873:7895   */\n      add\n        /* \"#utility.yul\":7852:7905   */\n      tag_268\n      jump\t// in\n    tag_419:\n        /* \"#utility.yul\":7842:7905   */\n      swap2\n      pop\n        /* \"#utility.yul\":7797:7915   */\n      pop\n        /* \"#utility.yul\":6943:7922   */\n      swap3\n      pop\n      swap3\n      pop\n      swap3\n      jump\t// out\n        /* \"#utility.yul\":7928:8046   */\n    tag_269:\n        /* \"#utility.yul\":8015:8039   */\n      tag_421\n        /* \"#utility.yul\":8033:8038   */\n      dup2\n        /* \"#utility.yul\":8015:8039   */\n      tag_266\n      jump\t// in\n    tag_421:\n        /* \"#utility.yul\":8010:8013   */\n      dup3\n        /* \"#utility.yul\":8003:8040   */\n      mstore\n        /* \"#utility.yul\":7928:8046   */\n      pop\n      pop\n      jump\t// out\n        /* \"#utility.yul\":8052:8274   */\n    tag_38:\n        /* \"#utility.yul\":8145:8149   */\n      0x00\n        /* \"#utility.yul\":8183:8185   */\n      0x20\n        /* \"#utility.yul\":8172:8181   */\n      dup3\n        /* \"#utility.yul\":8168:8186   */\n      add\n        /* \"#utility.yul\":8160:8186   */\n      swap1\n      pop\n        /* \"#utility.yul\":8196:8267   */\n      tag_423\n        /* \"#utility.yul\":8264:8265   */\n      0x00\n        /* \"#utility.yul\":8253:8262   */\n      dup4\n        /* \"#utility.yul\":8249:8266   */\n      add\n        /* \"#utility.yul\":8240:8246   */\n      dup5\n        /* \"#utility.yul\":8196:8267   */\n      tag_269\n      jump\t// in\n    tag_423:\n        /* \"#utility.yul\":8052:8274   */\n      swap3\n      swap2\n      pop\n      pop\n      jump\t// out\n        /* \"#utility.yul\":8280:8404   */\n    tag_270:\n        /* \"#utility.yul\":8357:8363   */\n      0x00\n        /* \"#utility.yul\":8391:8396   */\n      dup2\n        /* \"#utility.yul\":8385:8397   */\n      mload\n        /* \"#utility.yul\":8375:8397   */\n      swap1\n      pop\n        /* \"#utility.yul\":8280:8404   */\n      swap2\n      swap1\n      pop\n      jump\t// out\n        /* \"#utility.yul\":8410:8604   */\n    tag_271:\n        /* \"#utility.yul\":8519:8530   */\n      0x00\n        /* \"#utility.yul\":8553:8559   */\n      dup3\n        /* \"#utility.yul\":8548:8551   */\n      dup3\n        /* \"#utility.yul\":8541:8560   */\n      mstore\n        /* \"#utility.yul\":8593:8597   */\n      0x20\n        /* \"#utility.yul\":8588:8591   */\n      dup3\n        /* \"#utility.yul\":8584:8598   */\n      add\n        /* \"#utility.yul\":8569:8598   */\n      swap1\n      pop\n        /* \"#utility.yul\":8410:8604   */\n      swap3\n      swap2\n      pop\n      pop\n      jump\t// out\n        /* \"#utility.yul\":8610:8752   */\n    tag_272:\n        /* \"#utility.yul\":8687:8691   */\n      0x00\n        /* \"#utility.yul\":8710:8713   */\n      dup2\n        /* \"#utility.yul\":8702:8713   */\n      swap1\n      pop\n        /* \"#utility.yul\":8740:8744   */\n      0x20\n        /* \"#utility.yul\":8735:8738   */\n      dup3\n        /* \"#utility.yul\":8731:8745   */\n      add\n        /* \"#utility.yul\":8723:8745   */\n      swap1\n      pop\n        /* \"#utility.yul\":8610:8752   */\n      swap2\n      swap1\n      pop\n      jump\t// out\n        /* \"#utility.yul\":8758:8857   */\n    tag_273:\n        /* \"#utility.yul\":8810:8816   */\n      0x00\n        /* \"#utility.yul\":8844:8849   */\n      dup2\n        /* \"#utility.yul\":8838:8850   */\n      mload\n        /* \"#utility.yul\":8828:8850   */\n      swap1\n      pop\n        /* \"#utility.yul\":8758:8857   */\n      swap2\n      swap1\n      pop\n      jump\t// out\n        /* \"#utility.yul\":8863:9022   */\n    tag_274:\n        /* \"#utility.yul\":8937:8948   */\n      0x00\n        /* \"#utility.yul\":8971:8977   */\n      dup3\n        /* \"#utility.yul\":8966:8969   */\n      dup3\n        /* \"#utility.yul\":8959:8978   */\n      mstore\n        /* \"#utility.yul\":9011:9015   */\n      0x20\n        /* \"#utility.yul\":9006:9009   */\n      dup3\n        /* \"#utility.yul\":9002:9016   */\n      add\n        /* \"#utility.yul\":8987:9016   */\n      swap1\n      pop\n        /* \"#utility.yul\":8863:9022   */\n      swap3\n      swap2\n      pop\n      pop\n      jump\t// out\n        /* \"#utility.yul\":9028:9335   */\n    tag_275:\n        /* \"#utility.yul\":9096:9097   */\n      0x00\n        /* \"#utility.yul\":9106:9219   */\n    tag_430:\n        /* \"#utility.yul\":9120:9126   */\n      dup4\n        /* \"#utility.yul\":9117:9118   */\n      dup2\n        /* \"#utility.yul\":9114:9127   */\n      lt\n        /* \"#utility.yul\":9106:9219   */\n      iszero\n      tag_432\n      jumpi\n        /* \"#utility.yul\":9205:9206   */\n      dup1\n        /* \"#utility.yul\":9200:9203   */\n      dup3\n        /* \"#utility.yul\":9196:9207   */\n      add\n        /* \"#utility.yul\":9190:9208   */\n      mload\n        /* \"#utility.yul\":9186:9187   */\n      dup2\n        /* \"#utility.yul\":9181:9184   */\n      dup5\n        /* \"#utility.yul\":9177:9188   */\n      add\n        /* \"#utility.yul\":9170:9209   */\n      mstore\n        /* \"#utility.yul\":9142:9144   */\n      0x20\n        /* \"#utility.yul\":9139:9140   */\n      dup2\n        /* \"#utility.yul\":9135:9145   */\n      add\n        /* \"#utility.yul\":9130:9145   */\n      swap1\n      pop\n        /* \"#utility.yul\":9106:9219   */\n      jump(tag_430)\n    tag_432:\n        /* \"#utility.yul\":9237:9243   */\n      dup4\n        /* \"#utility.yul\":9234:9235   */\n      dup2\n        /* \"#utility.yul\":9231:9244   */\n      gt\n        /* \"#utility.yul\":9228:9329   */\n      iszero\n      tag_433\n      jumpi\n        /* \"#utility.yul\":9317:9318   */\n      0x00\n        /* \"#utility.yul\":9308:9314   */\n      dup5\n        /* \"#utility.yul\":9303:9306   */\n      dup5\n        /* \"#utility.yul\":9299:9315   */\n      add\n        /* \"#utility.yul\":9292:9319   */\n      mstore\n        /* \"#utility.yul\":9228:9329   */\n    tag_433:\n        /* \"#utility.yul\":9077:9335   */\n      pop\n        /* \"#utility.yul\":9028:9335   */\n      pop\n      pop\n      pop\n      jump\t// out\n        /* \"#utility.yul\":9341:9685   */\n    tag_276:\n        /* \"#utility.yul\":9419:9422   */\n      0x00\n        /* \"#utility.yul\":9447:9486   */\n      tag_435\n        /* \"#utility.yul\":9480:9485   */\n      dup3\n        /* \"#utility.yul\":9447:9486   */\n      tag_273\n      jump\t// in\n    tag_435:\n        /* \"#utility.yul\":9502:9563   */\n      tag_436\n        /* \"#utility.yul\":9556:9562   */\n      dup2\n        /* \"#utility.yul\":9551:9554   */\n      dup6\n        /* \"#utility.yul\":9502:9563   */\n      tag_274\n      jump\t// in\n    tag_436:\n        /* \"#utility.yul\":9495:9563   */\n      swap4\n      pop\n        /* \"#utility.yul\":9572:9624   */\n      tag_437\n        /* \"#utility.yul\":9617:9623   */\n      dup2\n        /* \"#utility.yul\":9612:9615   */\n      dup6\n        /* \"#utility.yul\":9605:9609   */\n      0x20\n        /* \"#utility.yul\":9598:9603   */\n      dup7\n        /* \"#utility.yul\":9594:9610   */\n      add\n        /* \"#utility.yul\":9572:9624   */\n      tag_275\n      jump\t// in\n    tag_437:\n        /* \"#utility.yul\":9649:9678   */\n      tag_438\n        /* \"#utility.yul\":9671:9677   */\n      dup2\n        /* \"#utility.yul\":9649:9678   */\n      tag_254\n      jump\t// in\n    tag_438:\n        /* \"#utility.yul\":9644:9647   */\n      dup5\n        /* \"#utility.yul\":9640:9679   */\n      add\n        /* \"#utility.yul\":9633:9679   */\n      swap2\n      pop\n        /* \"#utility.yul\":9423:9685   */\n      pop\n        /* \"#utility.yul\":9341:9685   */\n      swap3\n      swap2\n      pop\n      pop\n      jump\t// out\n        /* \"#utility.yul\":9691:9887   */\n    tag_277:\n        /* \"#utility.yul\":9780:9790   */\n      0x00\n        /* \"#utility.yul\":9815:9881   */\n      tag_440\n        /* \"#utility.yul\":9877:9880   */\n      dup4\n        /* \"#utility.yul\":9869:9875   */\n      dup4\n        /* \"#utility.yul\":9815:9881   */\n      tag_276\n      jump\t// in\n    tag_440:\n        /* \"#utility.yul\":9801:9881   */\n      swap1\n      pop\n        /* \"#utility.yul\":9691:9887   */\n      swap3\n      swap2\n      pop\n      pop\n      jump\t// out\n        /* \"#utility.yul\":9893:10016   */\n    tag_278:\n        /* \"#utility.yul\":9973:9977   */\n      0x00\n        /* \"#utility.yul\":10005:10009   */\n      0x20\n        /* \"#utility.yul\":10000:10003   */\n      dup3\n        /* \"#utility.yul\":9996:10010   */\n      add\n        /* \"#utility.yul\":9988:10010   */\n      swap1\n      pop\n        /* \"#utility.yul\":9893:10016   */\n      swap2\n      swap1\n      pop\n      jump\t// out\n        /* \"#utility.yul\":10050:11041   */\n    tag_279:\n        /* \"#utility.yul\":10189:10192   */\n      0x00\n        /* \"#utility.yul\":10218:10282   */\n      tag_443\n        /* \"#utility.yul\":10276:10281   */\n      dup3\n        /* \"#utility.yul\":10218:10282   */\n      tag_270\n      jump\t// in\n    tag_443:\n        /* \"#utility.yul\":10298:10394   */\n      tag_444\n        /* \"#utility.yul\":10387:10393   */\n      dup2\n        /* \"#utility.yul\":10382:10385   */\n      dup6\n        /* \"#utility.yul\":10298:10394   */\n      tag_271\n      jump\t// in\n    tag_444:\n        /* \"#utility.yul\":10291:10394   */\n      swap4\n      pop\n        /* \"#utility.yul\":10420:10423   */\n      dup4\n        /* \"#utility.yul\":10465:10469   */\n      0x20\n        /* \"#utility.yul\":10457:10463   */\n      dup3\n        /* \"#utility.yul\":10453:10470   */\n      mul\n        /* \"#utility.yul\":10448:10451   */\n      dup6\n        /* \"#utility.yul\":10444:10471   */\n      add\n        /* \"#utility.yul\":10495:10561   */\n      tag_445\n        /* \"#utility.yul\":10555:10560   */\n      dup6\n        /* \"#utility.yul\":10495:10561   */\n      tag_272\n      jump\t// in\n    tag_445:\n        /* \"#utility.yul\":10584:10591   */\n      dup1\n        /* \"#utility.yul\":10615:10616   */\n      0x00\n        /* \"#utility.yul\":10600:10996   */\n    tag_446:\n        /* \"#utility.yul\":10625:10631   */\n      dup6\n        /* \"#utility.yul\":10622:10623   */\n      dup2\n        /* \"#utility.yul\":10619:10632   */\n      lt\n        /* \"#utility.yul\":10600:10996   */\n      iszero\n      tag_448\n      jumpi\n        /* \"#utility.yul\":10696:10705   */\n      dup5\n        /* \"#utility.yul\":10690:10694   */\n      dup5\n        /* \"#utility.yul\":10686:10706   */\n      sub\n        /* \"#utility.yul\":10681:10684   */\n      dup10\n        /* \"#utility.yul\":10674:10707   */\n      mstore\n        /* \"#utility.yul\":10747:10753   */\n      dup2\n        /* \"#utility.yul\":10741:10754   */\n      mload\n        /* \"#utility.yul\":10775:10859   */\n      tag_449\n        /* \"#utility.yul\":10854:10858   */\n      dup6\n        /* \"#utility.yul\":10839:10852   */\n      dup3\n        /* \"#utility.yul\":10775:10859   */\n      tag_277\n      jump\t// in\n    tag_449:\n        /* \"#utility.yul\":10767:10859   */\n      swap5\n      pop\n        /* \"#utility.yul\":10882:10952   */\n      tag_450\n        /* \"#utility.yul\":10945:10951   */\n      dup4\n        /* \"#utility.yul\":10882:10952   */\n      tag_278\n      jump\t// in\n    tag_450:\n        /* \"#utility.yul\":10872:10952   */\n      swap3\n      pop\n        /* \"#utility.yul\":10981:10985   */\n      0x20\n        /* \"#utility.yul\":10976:10979   */\n      dup11\n        /* \"#utility.yul\":10972:10986   */\n      add\n        /* \"#utility.yul\":10965:10986   */\n      swap10\n      pop\n        /* \"#utility.yul\":10660:10996   */\n      pop\n        /* \"#utility.yul\":10647:10648   */\n      0x01\n        /* \"#utility.yul\":10644:10645   */\n      dup2\n        /* \"#utility.yul\":10640:10649   */\n      add\n        /* \"#utility.yul\":10635:10649   */\n      swap1\n      pop\n        /* \"#utility.yul\":10600:10996   */\n      jump(tag_446)\n    tag_448:\n        /* \"#utility.yul\":10604:10618   */\n      pop\n        /* \"#utility.yul\":11012:11016   */\n      dup3\n        /* \"#utility.yul\":11005:11016   */\n      swap8\n      pop\n        /* \"#utility.yul\":11032:11035   */\n      dup8\n        /* \"#utility.yul\":11025:11035   */\n      swap6\n      pop\n        /* \"#utility.yul\":10194:11041   */\n      pop\n      pop\n      pop\n      pop\n      pop\n        /* \"#utility.yul\":10050:11041   */\n      swap3\n      swap2\n      pop\n      pop\n      jump\t// out\n        /* \"#utility.yul\":11047:11460   */\n    tag_46:\n        /* \"#utility.yul\":11210:11214   */\n      0x00\n        /* \"#utility.yul\":11248:11250   */\n      0x20\n        /* \"#utility.yul\":11237:11246   */\n      dup3\n        /* \"#utility.yul\":11233:11251   */\n      add\n        /* \"#utility.yul\":11225:11251   */\n      swap1\n      pop\n        /* \"#utility.yul\":11297:11306   */\n      dup2\n        /* \"#utility.yul\":11291:11295   */\n      dup2\n        /* \"#utility.yul\":11287:11307   */\n      sub\n        /* \"#utility.yul\":11283:11284   */\n      0x00\n        /* \"#utility.yul\":11272:11281   */\n      dup4\n        /* \"#utility.yul\":11268:11285   */\n      add\n        /* \"#utility.yul\":11261:11308   */\n      mstore\n        /* \"#utility.yul\":11325:11453   */\n      tag_452\n        /* \"#utility.yul\":11448:11452   */\n      dup2\n        /* \"#utility.yul\":11439:11445   */\n      dup5\n        /* \"#utility.yul\":11325:11453   */\n      tag_279\n      jump\t// in\n    tag_452:\n        /* \"#utility.yul\":11317:11453   */\n      swap1\n      pop\n        /* \"#utility.yul\":11047:11460   */\n      swap3\n      swap2\n      pop\n      pop\n      jump\t// out\n        /* \"#utility.yul\":11466:11592   */\n    tag_280:\n        /* \"#utility.yul\":11503:11510   */\n      0x00\n        /* \"#utility.yul\":11543:11585   */\n      0xffffffffffffffffffffffffffffffffffffffff\n        /* \"#utility.yul\":11536:11541   */\n      dup3\n        /* \"#utility.yul\":11532:11586   */\n      and\n        /* \"#utility.yul\":11521:11586   */\n      swap1\n      pop\n        /* \"#utility.yul\":11466:11592   */\n      swap2\n      swap1\n      pop\n      jump\t// out\n        /* \"#utility.yul\":11598:11694   */\n    tag_281:\n        /* \"#utility.yul\":11635:11642   */\n      0x00\n        /* \"#utility.yul\":11664:11688   */\n      tag_455\n        /* \"#utility.yul\":11682:11687   */\n      dup3\n        /* \"#utility.yul\":11664:11688   */\n      tag_280\n      jump\t// in\n    tag_455:\n        /* \"#utility.yul\":11653:11688   */\n      swap1\n      pop\n        /* \"#utility.yul\":11598:11694   */\n      swap2\n      swap1\n      pop\n      jump\t// out\n        /* \"#utility.yul\":11700:11818   */\n    tag_282:\n        /* \"#utility.yul\":11787:11811   */\n      tag_457\n        /* \"#utility.yul\":11805:11810   */\n      dup2\n        /* \"#utility.yul\":11787:11811   */\n      tag_281\n      jump\t// in\n    tag_457:\n        /* \"#utility.yul\":11782:11785   */\n      dup3\n        /* \"#utility.yul\":11775:11812   */\n      mstore\n        /* \"#utility.yul\":11700:11818   */\n      pop\n      pop\n      jump\t// out\n        /* \"#utility.yul\":11824:12046   */\n    tag_51:\n        /* \"#utility.yul\":11917:11921   */\n      0x00\n        /* \"#utility.yul\":11955:11957   */\n      0x20\n        /* \"#utility.yul\":11944:11953   */\n      dup3\n        /* \"#utility.yul\":11940:11958   */\n      add\n        /* \"#utility.yul\":11932:11958   */\n      swap1\n      pop\n        /* \"#utility.yul\":11968:12039   */\n      tag_459\n        /* \"#utility.yul\":12036:12037   */\n      0x00\n        /* \"#utility.yul\":12025:12034   */\n      dup4\n        /* \"#utility.yul\":12021:12038   */\n      add\n        /* \"#utility.yul\":12012:12018   */\n      dup5\n        /* \"#utility.yul\":11968:12039   */\n      tag_282\n      jump\t// in\n    tag_459:\n        /* \"#utility.yul\":11824:12046   */\n      swap3\n      swap2\n      pop\n      pop\n      jump\t// out\n        /* \"#utility.yul\":12052:12160   */\n    tag_283:\n        /* \"#utility.yul\":12129:12153   */\n      tag_461\n        /* \"#utility.yul\":12147:12152   */\n      dup2\n        /* \"#utility.yul\":12129:12153   */\n      tag_281\n      jump\t// in\n    tag_461:\n        /* \"#utility.yul\":12124:12127   */\n      dup3\n        /* \"#utility.yul\":12117:12154   */\n      mstore\n        /* \"#utility.yul\":12052:12160   */\n      pop\n      pop\n      jump\t// out\n        /* \"#utility.yul\":12166:12274   */\n    tag_284:\n        /* \"#utility.yul\":12243:12267   */\n      tag_463\n        /* \"#utility.yul\":12261:12266   */\n      dup2\n        /* \"#utility.yul\":12243:12267   */\n      tag_266\n      jump\t// in\n    tag_463:\n        /* \"#utility.yul\":12238:12241   */\n      dup3\n        /* \"#utility.yul\":12231:12268   */\n      mstore\n        /* \"#utility.yul\":12166:12274   */\n      pop\n      pop\n      jump\t// out\n        /* \"#utility.yul\":12342:13122   */\n    tag_285:\n        /* \"#utility.yul\":12457:12460   */\n      0x00\n        /* \"#utility.yul\":12493:12497   */\n      0x60\n        /* \"#utility.yul\":12488:12491   */\n      dup4\n        /* \"#utility.yul\":12484:12498   */\n      add\n        /* \"#utility.yul\":12581:12585   */\n      0x00\n        /* \"#utility.yul\":12574:12579   */\n      dup4\n        /* \"#utility.yul\":12570:12586   */\n      add\n        /* \"#utility.yul\":12564:12587   */\n      mload\n        /* \"#utility.yul\":12600:12663   */\n      tag_465\n        /* \"#utility.yul\":12657:12661   */\n      0x00\n        /* \"#utility.yul\":12652:12655   */\n      dup7\n        /* \"#utility.yul\":12648:12662   */\n      add\n        /* \"#utility.yul\":12634:12646   */\n      dup3\n        /* \"#utility.yul\":12600:12663   */\n      tag_283\n      jump\t// in\n    tag_465:\n        /* \"#utility.yul\":12508:12673   */\n      pop\n        /* \"#utility.yul\":12755:12759   */\n      0x20\n        /* \"#utility.yul\":12748:12753   */\n      dup4\n        /* \"#utility.yul\":12744:12760   */\n      add\n        /* \"#utility.yul\":12738:12761   */\n      mload\n        /* \"#utility.yul\":12808:12811   */\n      dup5\n        /* \"#utility.yul\":12802:12806   */\n      dup3\n        /* \"#utility.yul\":12798:12812   */\n      sub\n        /* \"#utility.yul\":12791:12795   */\n      0x20\n        /* \"#utility.yul\":12786:12789   */\n      dup7\n        /* \"#utility.yul\":12782:12796   */\n      add\n        /* \"#utility.yul\":12775:12813   */\n      mstore\n        /* \"#utility.yul\":12834:12907   */\n      tag_466\n        /* \"#utility.yul\":12902:12906   */\n      dup3\n        /* \"#utility.yul\":12888:12900   */\n      dup3\n        /* \"#utility.yul\":12834:12907   */\n      tag_276\n      jump\t// in\n    tag_466:\n        /* \"#utility.yul\":12826:12907   */\n      swap2\n      pop\n        /* \"#utility.yul\":12683:12918   */\n      pop\n        /* \"#utility.yul\":13003:13007   */\n      0x40\n        /* \"#utility.yul\":12996:13001   */\n      dup4\n        /* \"#utility.yul\":12992:13008   */\n      add\n        /* \"#utility.yul\":12986:13009   */\n      mload\n        /* \"#utility.yul\":13022:13085   */\n      tag_467\n        /* \"#utility.yul\":13079:13083   */\n      0x40\n        /* \"#utility.yul\":13074:13077   */\n      dup7\n        /* \"#utility.yul\":13070:13084   */\n      add\n        /* \"#utility.yul\":13056:13068   */\n      dup3\n        /* \"#utility.yul\":13022:13085   */\n      tag_284\n      jump\t// in\n    tag_467:\n        /* \"#utility.yul\":12928:13095   */\n      pop\n        /* \"#utility.yul\":13112:13116   */\n      dup1\n        /* \"#utility.yul\":13105:13116   */\n      swap2\n      pop\n        /* \"#utility.yul\":12462:13122   */\n      pop\n        /* \"#utility.yul\":12342:13122   */\n      swap3\n      swap2\n      pop\n      pop\n      jump\t// out\n        /* \"#utility.yul\":13128:13493   */\n    tag_62:\n        /* \"#utility.yul\":13267:13271   */\n      0x00\n        /* \"#utility.yul\":13305:13307   */\n      0x20\n        /* \"#utility.yul\":13294:13303   */\n      dup3\n        /* \"#utility.yul\":13290:13308   */\n      add\n        /* \"#utility.yul\":13282:13308   */\n      swap1\n      pop\n        /* \"#utility.yul\":13354:13363   */\n      dup2\n        /* \"#utility.yul\":13348:13352   */\n      dup2\n        /* \"#utility.yul\":13344:13364   */\n      sub\n        /* \"#utility.yul\":13340:13341   */\n      0x00\n        /* \"#utility.yul\":13329:13338   */\n      dup4\n        /* \"#utility.yul\":13325:13342   */\n      add\n        /* \"#utility.yul\":13318:13365   */\n      mstore\n        /* \"#utility.yul\":13382:13486   */\n      tag_469\n        /* \"#utility.yul\":13481:13485   */\n      dup2\n        /* \"#utility.yul\":13472:13478   */\n      dup5\n        /* \"#utility.yul\":13382:13486   */\n      tag_285\n      jump\t// in\n    tag_469:\n        /* \"#utility.yul\":13374:13486   */\n      swap1\n      pop\n        /* \"#utility.yul\":13128:13493   */\n      swap3\n      swap2\n      pop\n      pop\n      jump\t// out\n        /* \"#utility.yul\":13499:13828   */\n    tag_66:\n        /* \"#utility.yul\":13558:13564   */\n      0x00\n        /* \"#utility.yul\":13607:13609   */\n      0x20\n        /* \"#utility.yul\":13595:13604   */\n      dup3\n        /* \"#utility.yul\":13586:13593   */\n      dup5\n        /* \"#utility.yul\":13582:13605   */\n      sub\n        /* \"#utility.yul\":13578:13610   */\n      slt\n        /* \"#utility.yul\":13575:13694   */\n      iszero\n      tag_471\n      jumpi\n        /* \"#utility.yul\":13613:13692   */\n      tag_472\n      tag_250\n      jump\t// in\n    tag_472:\n        /* \"#utility.yul\":13575:13694   */\n    tag_471:\n        /* \"#utility.yul\":13733:13734   */\n      0x00\n        /* \"#utility.yul\":13758:13811   */\n      tag_473\n        /* \"#utility.yul\":13803:13810   */\n      dup5\n        /* \"#utility.yul\":13794:13800   */\n      dup3\n        /* \"#utility.yul\":13783:13792   */\n      dup6\n        /* \"#utility.yul\":13779:13801   */\n      add\n        /* \"#utility.yul\":13758:13811   */\n      tag_268\n      jump\t// in\n    tag_473:\n        /* \"#utility.yul\":13748:13811   */\n      swap2\n      pop\n        /* \"#utility.yul\":13704:13821   */\n      pop\n        /* \"#utility.yul\":13499:13828   */\n      swap3\n      swap2\n      pop\n      pop\n      jump\t// out\n        /* \"#utility.yul\":13834:13982   */\n    tag_286:\n        /* \"#utility.yul\":13936:13947   */\n      0x00\n        /* \"#utility.yul\":13973:13976   */\n      dup2\n        /* \"#utility.yul\":13958:13976   */\n      swap1\n      pop\n        /* \"#utility.yul\":13834:13982   */\n      swap3\n      swap2\n      pop\n      pop\n      jump\t// out\n        /* \"#utility.yul\":13988:14365   */\n    tag_287:\n        /* \"#utility.yul\":14094:14097   */\n      0x00\n        /* \"#utility.yul\":14122:14161   */\n      tag_476\n        /* \"#utility.yul\":14155:14160   */\n      dup3\n        /* \"#utility.yul\":14122:14161   */\n      tag_273\n      jump\t// in\n    tag_476:\n        /* \"#utility.yul\":14177:14266   */\n      tag_477\n        /* \"#utility.yul\":14259:14265   */\n      dup2\n        /* \"#utility.yul\":14254:14257   */\n      dup6\n        /* \"#utility.yul\":14177:14266   */\n      tag_286\n      jump\t// in\n    tag_477:\n        /* \"#utility.yul\":14170:14266   */\n      swap4\n      pop\n        /* \"#utility.yul\":14275:14327   */\n      tag_478\n        /* \"#utility.yul\":14320:14326   */\n      dup2\n        /* \"#utility.yul\":14315:14318   */\n      dup6\n        /* \"#utility.yul\":14308:14312   */\n      0x20\n        /* \"#utility.yul\":14301:14306   */\n      dup7\n        /* \"#utility.yul\":14297:14313   */\n      add\n        /* \"#utility.yul\":14275:14327   */\n      tag_275\n      jump\t// in\n    tag_478:\n        /* \"#utility.yul\":14352:14358   */\n      dup1\n        /* \"#utility.yul\":14347:14350   */\n      dup5\n        /* \"#utility.yul\":14343:14359   */\n      add\n        /* \"#utility.yul\":14336:14359   */\n      swap2\n      pop\n        /* \"#utility.yul\":14098:14365   */\n      pop\n        /* \"#utility.yul\":13988:14365   */\n      swap3\n      swap2\n      pop\n      pop\n      jump\t// out\n        /* \"#utility.yul\":14371:14646   */\n    tag_70:\n        /* \"#utility.yul\":14503:14506   */\n      0x00\n        /* \"#utility.yul\":14525:14620   */\n      tag_480\n        /* \"#utility.yul\":14616:14619   */\n      dup3\n        /* \"#utility.yul\":14607:14613   */\n      dup5\n        /* \"#utility.yul\":14525:14620   */\n      tag_287\n      jump\t// in\n    tag_480:\n        /* \"#utility.yul\":14518:14620   */\n      swap2\n      pop\n        /* \"#utility.yul\":14637:14640   */\n      dup2\n        /* \"#utility.yul\":14630:14640   */\n      swap1\n      pop\n        /* \"#utility.yul\":14371:14646   */\n      swap3\n      swap2\n      pop\n      pop\n      jump\t// out\n        /* \"#utility.yul\":14652:14821   */\n    tag_288:\n        /* \"#utility.yul\":14736:14747   */\n      0x00\n        /* \"#utility.yul\":14770:14776   */\n      dup3\n        /* \"#utility.yul\":14765:14768   */\n      dup3\n        /* \"#utility.yul\":14758:14777   */\n      mstore\n        /* \"#utility.yul\":14810:14814   */\n      0x20\n        /* \"#utility.yul\":14805:14808   */\n      dup3\n        /* \"#utility.yul\":14801:14815   */\n      add\n        /* \"#utility.yul\":14786:14815   */\n      swap1\n      pop\n        /* \"#utility.yul\":14652:14821   */\n      swap3\n      swap2\n      pop\n      pop\n      jump\t// out\n        /* \"#utility.yul\":14827:15047   */\n    tag_289:\n        /* \"#utility.yul\":14967:15001   */\n      0x7472616e736665725f6661696c5f66726f6d5f6e616d655f6e6f745f65786973\n        /* \"#utility.yul\":14963:14964   */\n      0x00\n        /* \"#utility.yul\":14955:14961   */\n      dup3\n        /* \"#utility.yul\":14951:14965   */\n      add\n        /* \"#utility.yul\":14944:15002   */\n      mstore\n        /* \"#utility.yul\":15036:15039   */\n      0x7400000000000000000000000000000000000000000000000000000000000000\n        /* \"#utility.yul\":15031:15033   */\n      0x20\n        /* \"#utility.yul\":15023:15029   */\n      dup3\n        /* \"#utility.yul\":15019:15034   */\n      add\n        /* \"#utility.yul\":15012:15040   */\n      mstore\n        /* \"#utility.yul\":14827:15047   */\n      pop\n      jump\t// out\n        /* \"#utility.yul\":15053:15419   */\n    tag_290:\n        /* \"#utility.yul\":15195:15198   */\n      0x00\n        /* \"#utility.yul\":15216:15283   */\n      tag_484\n        /* \"#utility.yul\":15280:15282   */\n      0x21\n        /* \"#utility.yul\":15275:15278   */\n      dup4\n        /* \"#utility.yul\":15216:15283   */\n      tag_288\n      jump\t// in\n    tag_484:\n        /* \"#utility.yul\":15209:15283   */\n      swap2\n      pop\n        /* \"#utility.yul\":15292:15385   */\n      tag_485\n        /* \"#utility.yul\":15381:15384   */\n      dup3\n        /* \"#utility.yul\":15292:15385   */\n      tag_289\n      jump\t// in\n    tag_485:\n        /* \"#utility.yul\":15410:15412   */\n      0x40\n        /* \"#utility.yul\":15405:15408   */\n      dup3\n        /* \"#utility.yul\":15401:15413   */\n      add\n        /* \"#utility.yul\":15394:15413   */\n      swap1\n      pop\n        /* \"#utility.yul\":15053:15419   */\n      swap2\n      swap1\n      pop\n      jump\t// out\n        /* \"#utility.yul\":15425:15844   */\n    tag_73:\n        /* \"#utility.yul\":15591:15595   */\n      0x00\n        /* \"#utility.yul\":15629:15631   */\n      0x20\n        /* \"#utility.yul\":15618:15627   */\n      dup3\n        /* \"#utility.yul\":15614:15632   */\n      add\n        /* \"#utility.yul\":15606:15632   */\n      swap1\n      pop\n        /* \"#utility.yul\":15678:15687   */\n      dup2\n        /* \"#utility.yul\":15672:15676   */\n      dup2\n        /* \"#utility.yul\":15668:15688   */\n      sub\n        /* \"#utility.yul\":15664:15665   */\n      0x00\n        /* \"#utility.yul\":15653:15662   */\n      dup4\n        /* \"#utility.yul\":15649:15666   */\n      add\n        /* \"#utility.yul\":15642:15689   */\n      mstore\n        /* \"#utility.yul\":15706:15837   */\n      tag_487\n        /* \"#utility.yul\":15832:15836   */\n      dup2\n        /* \"#utility.yul\":15706:15837   */\n      tag_290\n      jump\t// in\n    tag_487:\n        /* \"#utility.yul\":15698:15837   */\n      swap1\n      pop\n        /* \"#utility.yul\":15425:15844   */\n      swap2\n      swap1\n      pop\n      jump\t// out\n        /* \"#utility.yul\":15850:16028   */\n    tag_291:\n        /* \"#utility.yul\":15990:16020   */\n      0x7472616e736665725f6661696c5f66726f6d5f6e6f745f6f776e657200000000\n        /* \"#utility.yul\":15986:15987   */\n      0x00\n        /* \"#utility.yul\":15978:15984   */\n      dup3\n        /* \"#utility.yul\":15974:15988   */\n      add\n        /* \"#utility.yul\":15967:16021   */\n      mstore\n        /* \"#utility.yul\":15850:16028   */\n      pop\n      jump\t// out\n        /* \"#utility.yul\":16034:16400   */\n    tag_292:\n        /* \"#utility.yul\":16176:16179   */\n      0x00\n        /* \"#utility.yul\":16197:16264   */\n      tag_490\n        /* \"#utility.yul\":16261:16263   */\n      0x1c\n        /* \"#utility.yul\":16256:16259   */\n      dup4\n        /* \"#utility.yul\":16197:16264   */\n      tag_288\n      jump\t// in\n    tag_490:\n        /* \"#utility.yul\":16190:16264   */\n      swap2\n      pop\n        /* \"#utility.yul\":16273:16366   */\n      tag_491\n        /* \"#utility.yul\":16362:16365   */\n      dup3\n        /* \"#utility.yul\":16273:16366   */\n      tag_291\n      jump\t// in\n    tag_491:\n        /* \"#utility.yul\":16391:16393   */\n      0x20\n        /* \"#utility.yul\":16386:16389   */\n      dup3\n        /* \"#utility.yul\":16382:16394   */\n      add\n        /* \"#utility.yul\":16375:16394   */\n      swap1\n      pop\n        /* \"#utility.yul\":16034:16400   */\n      swap2\n      swap1\n      pop\n      jump\t// out\n        /* \"#utility.yul\":16406:16825   */\n    tag_77:\n        /* \"#utility.yul\":16572:16576   */\n      0x00\n        /* \"#utility.yul\":16610:16612   */\n      0x20\n        /* \"#utility.yul\":16599:16608   */\n      dup3\n        /* \"#utility.yul\":16595:16613   */\n      add\n        /* \"#utility.yul\":16587:16613   */\n      swap1\n      pop\n        /* \"#utility.yul\":16659:16668   */\n      dup2\n        /* \"#utility.yul\":16653:16657   */\n      dup2\n        /* \"#utility.yul\":16649:16669   */\n      sub\n        /* \"#utility.yul\":16645:16646   */\n      0x00\n        /* \"#utility.yul\":16634:16643   */\n      dup4\n        /* \"#utility.yul\":16630:16647   */\n      add\n        /* \"#utility.yul\":16623:16670   */\n      mstore\n        /* \"#utility.yul\":16687:16818   */\n      tag_493\n        /* \"#utility.yul\":16813:16817   */\n      dup2\n        /* \"#utility.yul\":16687:16818   */\n      tag_292\n      jump\t// in\n    tag_493:\n        /* \"#utility.yul\":16679:16818   */\n      swap1\n      pop\n        /* \"#utility.yul\":16406:16825   */\n      swap2\n      swap1\n      pop\n      jump\t// out\n        /* \"#utility.yul\":16831:17051   */\n    tag_293:\n        /* \"#utility.yul\":16971:17005   */\n      0x7472616e736665725f6661696c5f76616c75655f6c6573735f7468616e5f3130\n        /* \"#utility.yul\":16967:16968   */\n      0x00\n        /* \"#utility.yul\":16959:16965   */\n      dup3\n        /* \"#utility.yul\":16955:16969   */\n      add\n        /* \"#utility.yul\":16948:17006   */\n      mstore\n        /* \"#utility.yul\":17040:17043   */\n      0x3000000000000000000000000000000000000000000000000000000000000000\n        /* \"#utility.yul\":17035:17037   */\n      0x20\n        /* \"#utility.yul\":17027:17033   */\n      dup3\n        /* \"#utility.yul\":17023:17038   */\n      add\n        /* \"#utility.yul\":17016:17044   */\n      mstore\n        /* \"#utility.yul\":16831:17051   */\n      pop\n      jump\t// out\n        /* \"#utility.yul\":17057:17423   */\n    tag_294:\n        /* \"#utility.yul\":17199:17202   */\n      0x00\n        /* \"#utility.yul\":17220:17287   */\n      tag_496\n        /* \"#utility.yul\":17284:17286   */\n      0x21\n        /* \"#utility.yul\":17279:17282   */\n      dup4\n        /* \"#utility.yul\":17220:17287   */\n      tag_288\n      jump\t// in\n    tag_496:\n        /* \"#utility.yul\":17213:17287   */\n      swap2\n      pop\n        /* \"#utility.yul\":17296:17389   */\n      tag_497\n        /* \"#utility.yul\":17385:17388   */\n      dup3\n        /* \"#utility.yul\":17296:17389   */\n      tag_293\n      jump\t// in\n    tag_497:\n        /* \"#utility.yul\":17414:17416   */\n      0x40\n        /* \"#utility.yul\":17409:17412   */\n      dup3\n        /* \"#utility.yul\":17405:17417   */\n      add\n        /* \"#utility.yul\":17398:17417   */\n      swap1\n      pop\n        /* \"#utility.yul\":17057:17423   */\n      swap2\n      swap1\n      pop\n      jump\t// out\n        /* \"#utility.yul\":17429:17848   */\n    tag_80:\n        /* \"#utility.yul\":17595:17599   */\n      0x00\n        /* \"#utility.yul\":17633:17635   */\n      0x20\n        /* \"#utility.yul\":17622:17631   */\n      dup3\n        /* \"#utility.yul\":17618:17636   */\n      add\n        /* \"#utility.yul\":17610:17636   */\n      swap1\n      pop\n        /* \"#utility.yul\":17682:17691   */\n      dup2\n        /* \"#utility.yul\":17676:17680   */\n      dup2\n        /* \"#utility.yul\":17672:17692   */\n      sub\n        /* \"#utility.yul\":17668:17669   */\n      0x00\n        /* \"#utility.yul\":17657:17666   */\n      dup4\n        /* \"#utility.yul\":17653:17670   */\n      add\n        /* \"#utility.yul\":17646:17693   */\n      mstore\n        /* \"#utility.yul\":17710:17841   */\n      tag_499\n        /* \"#utility.yul\":17836:17840   */\n      dup2\n        /* \"#utility.yul\":17710:17841   */\n      tag_294\n      jump\t// in\n    tag_499:\n        /* \"#utility.yul\":17702:17841   */\n      swap1\n      pop\n        /* \"#utility.yul\":17429:17848   */\n      swap2\n      swap1\n      pop\n      jump\t// out\n        /* \"#utility.yul\":17854:18034   */\n    tag_295:\n        /* \"#utility.yul\":17902:17979   */\n      0x4e487b7100000000000000000000000000000000000000000000000000000000\n        /* \"#utility.yul\":17899:17900   */\n      0x00\n        /* \"#utility.yul\":17892:17980   */\n      mstore\n        /* \"#utility.yul\":17999:18003   */\n      0x11\n        /* \"#utility.yul\":17996:17997   */\n      0x04\n        /* \"#utility.yul\":17989:18004   */\n      mstore\n        /* \"#utility.yul\":18023:18027   */\n      0x24\n        /* \"#utility.yul\":18020:18021   */\n      0x00\n        /* \"#utility.yul\":18013:18028   */\n      revert\n        /* \"#utility.yul\":18040:18388   */\n    tag_82:\n        /* \"#utility.yul\":18080:18087   */\n      0x00\n        /* \"#utility.yul\":18103:18123   */\n      tag_502\n        /* \"#utility.yul\":18121:18122   */\n      dup3\n        /* \"#utility.yul\":18103:18123   */\n      tag_266\n      jump\t// in\n    tag_502:\n        /* \"#utility.yul\":18098:18123   */\n      swap2\n      pop\n        /* \"#utility.yul\":18137:18157   */\n      tag_503\n        /* \"#utility.yul\":18155:18156   */\n      dup4\n        /* \"#utility.yul\":18137:18157   */\n      tag_266\n      jump\t// in\n    tag_503:\n        /* \"#utility.yul\":18132:18157   */\n      swap3\n      pop\n        /* \"#utility.yul\":18325:18326   */\n      dup2\n        /* \"#utility.yul\":18257:18323   */\n      0xffffffffffffffffffffffffffffffffffffffffffffffffffffffffffffffff\n        /* \"#utility.yul\":18253:18327   */\n      div\n        /* \"#utility.yul\":18250:18251   */\n      dup4\n        /* \"#utility.yul\":18247:18328   */\n      gt\n        /* \"#utility.yul\":18242:18243   */\n      dup3\n        /* \"#utility.yul\":18235:18244   */\n      iszero\n        /* \"#utility.yul\":18228:18245   */\n      iszero\n        /* \"#utility.yul\":18224:18329   */\n      and\n        /* \"#utility.yul\":18221:18352   */\n      iszero\n      tag_504\n      jumpi\n        /* \"#utility.yul\":18332:18350   */\n      tag_505\n      tag_295\n      jump\t// in\n    tag_505:\n        /* \"#utility.yul\":18221:18352   */\n    tag_504:\n        /* \"#utility.yul\":18380:18381   */\n      dup3\n        /* \"#utility.yul\":18377:18378   */\n      dup3\n        /* \"#utility.yul\":18373:18382   */\n      mul\n        /* \"#utility.yul\":18362:18382   */\n      swap1\n      pop\n        /* \"#utility.yul\":18040:18388   */\n      swap3\n      swap2\n      pop\n      pop\n      jump\t// out\n        /* \"#utility.yul\":18394:18618   */\n    tag_296:\n        /* \"#utility.yul\":18534:18568   */\n      0x7472616e736665725f6661696c5f66726f6d5f62616c616e63655f6e6f745f65\n        /* \"#utility.yul\":18530:18531   */\n      0x00\n        /* \"#utility.yul\":18522:18528   */\n      dup3\n        /* \"#utility.yul\":18518:18532   */\n      add\n        /* \"#utility.yul\":18511:18569   */\n      mstore\n        /* \"#utility.yul\":18603:18610   */\n      0x6e6f756768000000000000000000000000000000000000000000000000000000\n        /* \"#utility.yul\":18598:18600   */\n      0x20\n        /* \"#utility.yul\":18590:18596   */\n      dup3\n        /* \"#utility.yul\":18586:18601   */\n      add\n        /* \"#utility.yul\":18579:18611   */\n      mstore\n        /* \"#utility.yul\":18394:18618   */\n      pop\n      jump\t// out\n        /* \"#utility.yul\":18624:18990   */\n    tag_297:\n        /* \"#utility.yul\":18766:18769   */\n      0x00\n        /* \"#utility.yul\":18787:18854   */\n      tag_508\n        /* \"#utility.yul\":18851:18853   */\n      0x25\n        /* \"#utility.yul\":18846:18849   */\n      dup4\n        /* \"#utility.yul\":18787:18854   */\n      tag_288\n      jump\t// in\n    tag_508:\n        /* \"#utility.yul\":18780:18854   */\n      swap2\n      pop\n        /* \"#utility.yul\":18863:18956   */\n      tag_509\n        /* \"#utility.yul\":18952:18955   */\n      dup3\n        /* \"#utility.yul\":18863:18956   */\n      tag_296\n      jump\t// in\n    tag_509:\n        /* \"#utility.yul\":18981:18983   */\n      0x40\n        /* \"#utility.yul\":18976:18979   */\n      dup3\n        /* \"#utility.yul\":18972:18984   */\n      add\n        /* \"#utility.yul\":18965:18984   */\n      swap1\n      pop\n        /* \"#utility.yul\":18624:18990   */\n      swap2\n      swap1\n      pop\n      jump\t// out\n        /* \"#utility.yul\":18996:19415   */\n    tag_86:\n        /* \"#utility.yul\":19162:19166   */\n      0x00\n        /* \"#utility.yul\":19200:19202   */\n      0x20\n        /* \"#utility.yul\":19189:19198   */\n      dup3\n        /* \"#utility.yul\":19185:19203   */\n      add\n        /* \"#utility.yul\":19177:19203   */\n      swap1\n      pop\n        /* \"#utility.yul\":19249:19258   */\n      dup2\n        /* \"#utility.yul\":19243:19247   */\n      dup2\n        /* \"#utility.yul\":19239:19259   */\n      sub\n        /* \"#utility.yul\":19235:19236   */\n      0x00\n        /* \"#utility.yul\":19224:19233   */\n      dup4\n        /* \"#utility.yul\":19220:19237   */\n      add\n        /* \"#utility.yul\":19213:19260   */\n      mstore\n        /* \"#utility.yul\":19277:19408   */\n      tag_511\n        /* \"#utility.yul\":19403:19407   */\n      dup2\n        /* \"#utility.yul\":19277:19408   */\n      tag_297\n      jump\t// in\n    tag_511:\n        /* \"#utility.yul\":19269:19408   */\n      swap1\n      pop\n        /* \"#utility.yul\":18996:19415   */\n      swap2\n      swap1\n      pop\n      jump\t// out\n        /* \"#utility.yul\":19421:19601   */\n    tag_92:\n        /* \"#utility.yul\":19469:19546   */\n      0x4e487b7100000000000000000000000000000000000000000000000000000000\n        /* \"#utility.yul\":19466:19467   */\n      0x00\n        /* \"#utility.yul\":19459:19547   */\n      mstore\n        /* \"#utility.yul\":19566:19570   */\n      0x32\n        /* \"#utility.yul\":19563:19564   */\n      0x04\n        /* \"#utility.yul\":19556:19571   */\n      mstore\n        /* \"#utility.yul\":19590:19594   */\n      0x24\n        /* \"#utility.yul\":19587:19588   */\n      0x00\n        /* \"#utility.yul\":19580:19595   */\n      revert\n        /* \"#utility.yul\":19607:19788   */\n    tag_298:\n        /* \"#utility.yul\":19747:19780   */\n      0x7472616e736665725f6661696c5f746f5f6e616d655f6e6f745f657869737400\n        /* \"#utility.yul\":19743:19744   */\n      0x00\n        /* \"#utility.yul\":19735:19741   */\n      dup3\n        /* \"#utility.yul\":19731:19745   */\n      add\n        /* \"#utility.yul\":19724:19781   */\n      mstore\n        /* \"#utility.yul\":19607:19788   */\n      pop\n      jump\t// out\n        /* \"#utility.yul\":19794:20160   */\n    tag_299:\n        /* \"#utility.yul\":19936:19939   */\n      0x00\n        /* \"#utility.yul\":19957:20024   */\n      tag_515\n        /* \"#utility.yul\":20021:20023   */\n      0x1f\n        /* \"#utility.yul\":20016:20019   */\n      dup4\n        /* \"#utility.yul\":19957:20024   */\n      tag_288\n      jump\t// in\n    tag_515:\n        /* \"#utility.yul\":19950:20024   */\n      swap2\n      pop\n        /* \"#utility.yul\":20033:20126   */\n      tag_516\n        /* \"#utility.yul\":20122:20125   */\n      dup3\n        /* \"#utility.yul\":20033:20126   */\n      tag_298\n      jump\t// in\n    tag_516:\n        /* \"#utility.yul\":20151:20153   */\n      0x20\n        /* \"#utility.yul\":20146:20149   */\n      dup3\n        /* \"#utility.yul\":20142:20154   */\n      add\n        /* \"#utility.yul\":20135:20154   */\n      swap1\n      pop\n        /* \"#utility.yul\":19794:20160   */\n      swap2\n      swap1\n      pop\n      jump\t// out\n        /* \"#utility.yul\":20166:20585   */\n    tag_96:\n        /* \"#utility.yul\":20332:20336   */\n      0x00\n        /* \"#utility.yul\":20370:20372   */\n      0x20\n        /* \"#utility.yul\":20359:20368   */\n      dup3\n        /* \"#utility.yul\":20355:20373   */\n      add\n        /* \"#utility.yul\":20347:20373   */\n      swap1\n      pop\n        /* \"#utility.yul\":20419:20428   */\n      dup2\n        /* \"#utility.yul\":20413:20417   */\n      dup2\n        /* \"#utility.yul\":20409:20429   */\n      sub\n        /* \"#utility.yul\":20405:20406   */\n      0x00\n        /* \"#utility.yul\":20394:20403   */\n      dup4\n        /* \"#utility.yul\":20390:20407   */\n      add\n        /* \"#utility.yul\":20383:20430   */\n      mstore\n        /* \"#utility.yul\":20447:20578   */\n      tag_518\n        /* \"#utility.yul\":20573:20577   */\n      dup2\n        /* \"#utility.yul\":20447:20578   */\n      tag_299\n      jump\t// in\n    tag_518:\n        /* \"#utility.yul\":20439:20578   */\n      swap1\n      pop\n        /* \"#utility.yul\":20166:20585   */\n      swap2\n      swap1\n      pop\n      jump\t// out\n        /* \"#utility.yul\":20591:20771   */\n    tag_300:\n        /* \"#utility.yul\":20639:20716   */\n      0x4e487b7100000000000000000000000000000000000000000000000000000000\n        /* \"#utility.yul\":20636:20637   */\n      0x00\n        /* \"#utility.yul\":20629:20717   */\n      mstore\n        /* \"#utility.yul\":20736:20740   */\n      0x12\n        /* \"#utility.yul\":20733:20734   */\n      0x04\n        /* \"#utility.yul\":20726:20741   */\n      mstore\n        /* \"#utility.yul\":20760:20764   */\n      0x24\n        /* \"#utility.yul\":20757:20758   */\n      0x00\n        /* \"#utility.yul\":20750:20765   */\n      revert\n        /* \"#utility.yul\":20777:20962   */\n    tag_108:\n        /* \"#utility.yul\":20817:20818   */\n      0x00\n        /* \"#utility.yul\":20834:20854   */\n      tag_521\n        /* \"#utility.yul\":20852:20853   */\n      dup3\n        /* \"#utility.yul\":20834:20854   */\n      tag_266\n      jump\t// in\n    tag_521:\n        /* \"#utility.yul\":20829:20854   */\n      swap2\n      pop\n        /* \"#utility.yul\":20868:20888   */\n      tag_522\n        /* \"#utility.yul\":20886:20887   */\n      dup4\n        /* \"#utility.yul\":20868:20888   */\n      tag_266\n      jump\t// in\n    tag_522:\n        /* \"#utility.yul\":20863:20888   */\n      swap3\n      pop\n        /* \"#utility.yul\":20907:20908   */\n      dup3\n        /* \"#utility.yul\":20897:20932   */\n      tag_523\n      jumpi\n        /* \"#utility.yul\":20912:20930   */\n      tag_524\n      tag_300\n      jump\t// in\n    tag_524:\n        /* \"#utility.yul\":20897:20932   */\n    tag_523:\n        /* \"#utility.yul\":20954:20955   */\n      dup3\n        /* \"#utility.yul\":20951:20952   */\n      dup3\n        /* \"#utility.yul\":20947:20956   */\n      div\n        /* \"#utility.yul\":20942:20956   */\n      swap1\n      pop\n        /* \"#utility.yul\":20777:20962   */\n      swap3\n      swap2\n      pop\n      pop\n      jump\t// out\n        /* \"#utility.yul\":20968:21273   */\n    tag_110:\n        /* \"#utility.yul\":21008:21011   */\n      0x00\n        /* \"#utility.yul\":21027:21047   */\n      tag_526\n        /* \"#utility.yul\":21045:21046   */\n      dup3\n        /* \"#utility.yul\":21027:21047   */\n      tag_266\n      jump\t// in\n    tag_526:\n        /* \"#utility.yul\":21022:21047   */\n      swap2\n      pop\n        /* \"#utility.yul\":21061:21081   */\n      tag_527\n        /* \"#utility.yul\":21079:21080   */\n      dup4\n        /* \"#utility.yul\":21061:21081   */\n      tag_266\n      jump\t// in\n    tag_527:\n        /* \"#utility.yul\":21056:21081   */\n      swap3\n      pop\n        /* \"#utility.yul\":21215:21216   */\n      dup3\n        /* \"#utility.yul\":21147:21213   */\n      0xffffffffffffffffffffffffffffffffffffffffffffffffffffffffffffffff\n        /* \"#utility.yul\":21143:21217   */\n      sub\n        /* \"#utility.yul\":21140:21141   */\n      dup3\n        /* \"#utility.yul\":21137:21218   */\n      gt\n        /* \"#utility.yul\":21134:21241   */\n      iszero\n      tag_528\n      jumpi\n        /* \"#utility.yul\":21221:21239   */\n      tag_529\n      tag_295\n      jump\t// in\n    tag_529:\n        /* \"#utility.yul\":21134:21241   */\n    tag_528:\n        /* \"#utility.yul\":21265:21266   */\n      dup3\n        /* \"#utility.yul\":21262:21263   */\n      dup3\n        /* \"#utility.yul\":21258:21267   */\n      add\n        /* \"#utility.yul\":21251:21267   */\n      swap1\n      pop\n        /* \"#utility.yul\":20968:21273   */\n      swap3\n      swap2\n      pop\n      pop\n      jump\t// out\n        /* \"#utility.yul\":21279:21470   */\n    tag_113:\n        /* \"#utility.yul\":21319:21323   */\n      0x00\n        /* \"#utility.yul\":21339:21359   */\n      tag_531\n        /* \"#utility.yul\":21357:21358   */\n      dup3\n        /* \"#utility.yul\":21339:21359   */\n      tag_266\n      jump\t// in\n    tag_531:\n        /* \"#utility.yul\":21334:21359   */\n      swap2\n      pop\n        /* \"#utility.yul\":21373:21393   */\n      tag_532\n        /* \"#utility.yul\":21391:21392   */\n      dup4\n        /* \"#utility.yul\":21373:21393   */\n      tag_266\n      jump\t// in\n    tag_532:\n        /* \"#utility.yul\":21368:21393   */\n      swap3\n      pop\n        /* \"#utility.yul\":21412:21413   */\n      dup3\n        /* \"#utility.yul\":21409:21410   */\n      dup3\n        /* \"#utility.yul\":21406:21414   */\n      lt\n        /* \"#utility.yul\":21403:21437   */\n      iszero\n      tag_533\n      jumpi\n        /* \"#utility.yul\":21417:21435   */\n      tag_534\n      tag_295\n      jump\t// in\n    tag_534:\n        /* \"#utility.yul\":21403:21437   */\n    tag_533:\n        /* \"#utility.yul\":21462:21463   */\n      dup3\n        /* \"#utility.yul\":21459:21460   */\n      dup3\n        /* \"#utility.yul\":21455:21464   */\n      sub\n        /* \"#utility.yul\":21447:21464   */\n      swap1\n      pop\n        /* \"#utility.yul\":21279:21470   */\n      swap3\n      swap2\n      pop\n      pop\n      jump\t// out\n        /* \"#utility.yul\":21476:21840   */\n    tag_301:\n        /* \"#utility.yul\":21564:21567   */\n      0x00\n        /* \"#utility.yul\":21592:21631   */\n      tag_536\n        /* \"#utility.yul\":21625:21630   */\n      dup3\n        /* \"#utility.yul\":21592:21631   */\n      tag_273\n      jump\t// in\n    tag_536:\n        /* \"#utility.yul\":21647:21718   */\n      tag_537\n        /* \"#utility.yul\":21711:21717   */\n      dup2\n        /* \"#utility.yul\":21706:21709   */\n      dup6\n        /* \"#utility.yul\":21647:21718   */\n      tag_288\n      jump\t// in\n    tag_537:\n        /* \"#utility.yul\":21640:21718   */\n      swap4\n      pop\n        /* \"#utility.yul\":21727:21779   */\n      tag_538\n        /* \"#utility.yul\":21772:21778   */\n      dup2\n        /* \"#utility.yul\":21767:21770   */\n      dup6\n        /* \"#utility.yul\":21760:21764   */\n      0x20\n        /* \"#utility.yul\":21753:21758   */\n      dup7\n        /* \"#utility.yul\":21749:21765   */\n      add\n        /* \"#utility.yul\":21727:21779   */\n      tag_275\n      jump\t// in\n    tag_538:\n        /* \"#utility.yul\":21804:21833   */\n      tag_539\n        /* \"#utility.yul\":21826:21832   */\n      dup2\n        /* \"#utility.yul\":21804:21833   */\n      tag_254\n      jump\t// in\n    tag_539:\n        /* \"#utility.yul\":21799:21802   */\n      dup5\n        /* \"#utility.yul\":21795:21834   */\n      add\n        /* \"#utility.yul\":21788:21834   */\n      swap2\n      pop\n        /* \"#utility.yul\":21568:21840   */\n      pop\n        /* \"#utility.yul\":21476:21840   */\n      swap3\n      swap2\n      pop\n      pop\n      jump\t// out\n        /* \"#utility.yul\":21846:22470   */\n    tag_123:\n        /* \"#utility.yul\":22035:22039   */\n      0x00\n        /* \"#utility.yul\":22073:22075   */\n      0x60\n        /* \"#utility.yul\":22062:22071   */\n      dup3\n        /* \"#utility.yul\":22058:22076   */\n      add\n        /* \"#utility.yul\":22050:22076   */\n      swap1\n      pop\n        /* \"#utility.yul\":22122:22131   */\n      dup2\n        /* \"#utility.yul\":22116:22120   */\n      dup2\n        /* \"#utility.yul\":22112:22132   */\n      sub\n        /* \"#utility.yul\":22108:22109   */\n      0x00\n        /* \"#utility.yul\":22097:22106   */\n      dup4\n        /* \"#utility.yul\":22093:22110   */\n      add\n        /* \"#utility.yul\":22086:22133   */\n      mstore\n        /* \"#utility.yul\":22150:22228   */\n      tag_541\n        /* \"#utility.yul\":22223:22227   */\n      dup2\n        /* \"#utility.yul\":22214:22220   */\n      dup7\n        /* \"#utility.yul\":22150:22228   */\n      tag_301\n      jump\t// in\n    tag_541:\n        /* \"#utility.yul\":22142:22228   */\n      swap1\n      pop\n        /* \"#utility.yul\":22275:22284   */\n      dup2\n        /* \"#utility.yul\":22269:22273   */\n      dup2\n        /* \"#utility.yul\":22265:22285   */\n      sub\n        /* \"#utility.yul\":22260:22262   */\n      0x20\n        /* \"#utility.yul\":22249:22258   */\n      dup4\n        /* \"#utility.yul\":22245:22263   */\n      add\n        /* \"#utility.yul\":22238:22286   */\n      mstore\n        /* \"#utility.yul\":22303:22381   */\n      tag_542\n        /* \"#utility.yul\":22376:22380   */\n      dup2\n        /* \"#utility.yul\":22367:22373   */\n      dup6\n        /* \"#utility.yul\":22303:22381   */\n      tag_301\n      jump\t// in\n    tag_542:\n        /* \"#utility.yul\":22295:22381   */\n      swap1\n      pop\n        /* \"#utility.yul\":22391:22463   */\n      tag_543\n        /* \"#utility.yul\":22459:22461   */\n      0x40\n        /* \"#utility.yul\":22448:22457   */\n      dup4\n        /* \"#utility.yul\":22444:22462   */\n      add\n        /* \"#utility.yul\":22435:22441   */\n      dup5\n        /* \"#utility.yul\":22391:22463   */\n      tag_269\n      jump\t// in\n    tag_543:\n        /* \"#utility.yul\":21846:22470   */\n      swap5\n      swap4\n      pop\n      pop\n      pop\n      pop\n      jump\t// out\n        /* \"#utility.yul\":22476:22709   */\n    tag_135:\n        /* \"#utility.yul\":22515:22518   */\n      0x00\n        /* \"#utility.yul\":22538:22562   */\n      tag_545\n        /* \"#utility.yul\":22556:22561   */\n      dup3\n        /* \"#utility.yul\":22538:22562   */\n      tag_266\n      jump\t// in\n    tag_545:\n        /* \"#utility.yul\":22529:22562   */\n      swap2\n      pop\n        /* \"#utility.yul\":22584:22650   */\n      0xffffffffffffffffffffffffffffffffffffffffffffffffffffffffffffffff\n        /* \"#utility.yul\":22577:22582   */\n      dup3\n        /* \"#utility.yul\":22574:22651   */\n      sub\n        /* \"#utility.yul\":22571:22674   */\n      tag_546\n      jumpi\n        /* \"#utility.yul\":22654:22672   */\n      tag_547\n      tag_295\n      jump\t// in\n    tag_547:\n        /* \"#utility.yul\":22571:22674   */\n    tag_546:\n        /* \"#utility.yul\":22701:22702   */\n      0x01\n        /* \"#utility.yul\":22694:22699   */\n      dup3\n        /* \"#utility.yul\":22690:22703   */\n      add\n        /* \"#utility.yul\":22683:22703   */\n      swap1\n      pop\n        /* \"#utility.yul\":22476:22709   */\n      swap2\n      swap1\n      pop\n      jump\t// out\n        /* \"#utility.yul\":22715:22892   */\n    tag_302:\n        /* \"#utility.yul\":22855:22884   */\n      0x6164645f6163636f756e745f6661696c5f6e616d655f65786973740000000000\n        /* \"#utility.yul\":22851:22852   */\n      0x00\n        /* \"#utility.yul\":22843:22849   */\n      dup3\n        /* \"#utility.yul\":22839:22853   */\n      add\n        /* \"#utility.yul\":22832:22885   */\n      mstore\n        /* \"#utility.yul\":22715:22892   */\n      pop\n      jump\t// out\n        /* \"#utility.yul\":22898:23264   */\n    tag_303:\n        /* \"#utility.yul\":23040:23043   */\n      0x00\n        /* \"#utility.yul\":23061:23128   */\n      tag_550\n        /* \"#utility.yul\":23125:23127   */\n      0x1b\n        /* \"#utility.yul\":23120:23123   */\n      dup4\n        /* \"#utility.yul\":23061:23128   */\n      tag_288\n      jump\t// in\n    tag_550:\n        /* \"#utility.yul\":23054:23128   */\n      swap2\n      pop\n        /* \"#utility.yul\":23137:23230   */\n      tag_551\n        /* \"#utility.yul\":23226:23229   */\n      dup3\n        /* \"#utility.yul\":23137:23230   */\n      tag_302\n      jump\t// in\n    tag_551:\n        /* \"#utility.yul\":23255:23257   */\n      0x20\n        /* \"#utility.yul\":23250:23253   */\n      dup3\n        /* \"#utility.yul\":23246:23258   */\n      add\n        /* \"#utility.yul\":23239:23258   */\n      swap1\n      pop\n        /* \"#utility.yul\":22898:23264   */\n      swap2\n      swap1\n      pop\n      jump\t// out\n        /* \"#utility.yul\":23270:23689   */\n    tag_140:\n        /* \"#utility.yul\":23436:23440   */\n      0x00\n        /* \"#utility.yul\":23474:23476   */\n      0x20\n        /* \"#utility.yul\":23463:23472   */\n      dup3\n        /* \"#utility.yul\":23459:23477   */\n      add\n        /* \"#utility.yul\":23451:23477   */\n      swap1\n      pop\n        /* \"#utility.yul\":23523:23532   */\n      dup2\n        /* \"#utility.yul\":23517:23521   */\n      dup2\n        /* \"#utility.yul\":23513:23533   */\n      sub\n        /* \"#utility.yul\":23509:23510   */\n      0x00\n        /* \"#utility.yul\":23498:23507   */\n      dup4\n        /* \"#utility.yul\":23494:23511   */\n      add\n        /* \"#utility.yul\":23487:23534   */\n      mstore\n        /* \"#utility.yul\":23551:23682   */\n      tag_553\n        /* \"#utility.yul\":23677:23681   */\n      dup2\n        /* \"#utility.yul\":23551:23682   */\n      tag_303\n      jump\t// in\n    tag_553:\n        /* \"#utility.yul\":23543:23682   */\n      swap1\n      pop\n        /* \"#utility.yul\":23270:23689   */\n      swap2\n      swap1\n      pop\n      jump\t// out\n        /* \"#utility.yul\":23695:23875   */\n    tag_304:\n        /* \"#utility.yul\":23743:23820   */\n      0x4e487b7100000000000000000000000000000000000000000000000000000000\n        /* \"#utility.yul\":23740:23741   */\n      0x00\n        /* \"#utility.yul\":23733:23821   */\n      mstore\n        /* \"#utility.yul\":23840:23844   */\n      0x22\n        /* \"#utility.yul\":23837:23838   */\n      0x04\n        /* \"#utility.yul\":23830:23845   */\n      mstore\n        /* \"#utility.yul\":23864:23868   */\n      0x24\n        /* \"#utility.yul\":23861:23862   */\n      0x00\n        /* \"#utility.yul\":23854:23869   */\n      revert\n        /* \"#utility.yul\":23881:24201   */\n    tag_222:\n        /* \"#utility.yul\":23925:23931   */\n      0x00\n        /* \"#utility.yul\":23962:23963   */\n      0x02\n        /* \"#utility.yul\":23956:23960   */\n      dup3\n        /* \"#utility.yul\":23952:23964   */\n      div\n        /* \"#utility.yul\":23942:23964   */\n      swap1\n      pop\n        /* \"#utility.yul\":24009:24010   */\n      0x01\n        /* \"#utility.yul\":24003:24007   */\n      dup3\n        /* \"#utility.yul\":23999:24011   */\n      and\n        /* \"#utility.yul\":24030:24048   */\n      dup1\n        /* \"#utility.yul\":24020:24101   */\n      tag_556\n      jumpi\n        /* \"#utility.yul\":24086:24090   */\n      0x7f\n        /* \"#utility.yul\":24078:24084   */\n      dup3\n        /* \"#utility.yul\":24074:24091   */\n      and\n        /* \"#utility.yul\":24064:24091   */\n      swap2\n      pop\n        /* \"#utility.yul\":24020:24101   */\n    tag_556:\n        /* \"#utility.yul\":24148:24150   */\n      0x20\n        /* \"#utility.yul\":24140:24146   */\n      dup3\n        /* \"#utility.yul\":24137:24151   */\n      lt\n        /* \"#utility.yul\":24117:24135   */\n      dup2\n        /* \"#utility.yul\":24114:24152   */\n      sub\n        /* \"#utility.yul\":24111:24195   */\n      tag_557\n      jumpi\n        /* \"#utility.yul\":24167:24185   */\n      tag_558\n      tag_304\n      jump\t// in\n    tag_558:\n        /* \"#utility.yul\":24111:24195   */\n    tag_557:\n        /* \"#utility.yul\":23932:24201   */\n      pop\n        /* \"#utility.yul\":23881:24201   */\n      swap2\n      swap1\n      pop\n      jump\t// out\n        /* \"#utility.yul\":24207:24348   */\n    tag_305:\n        /* \"#utility.yul\":24256:24260   */\n      0x00\n        /* \"#utility.yul\":24279:24282   */\n      dup2\n        /* \"#utility.yul\":24271:24282   */\n      swap1\n      pop\n        /* \"#utility.yul\":24302:24305   */\n      dup2\n        /* \"#utility.yul\":24299:24300   */\n      0x00\n        /* \"#utility.yul\":24292:24306   */\n      mstore\n        /* \"#utility.yul\":24336:24340   */\n      0x20\n        /* \"#utility.yul\":24333:24334   */\n      0x00\n        /* \"#utility.yul\":24323:24341   */\n      keccak256\n        /* \"#utility.yul\":24315:24341   */\n      swap1\n      pop\n        /* \"#utility.yul\":24207:24348   */\n      swap2\n      swap1\n      pop\n      jump\t// out\n        /* \"#utility.yul\":24354:24447   */\n    tag_306:\n        /* \"#utility.yul\":24391:24397   */\n      0x00\n        /* \"#utility.yul\":24438:24440   */\n      0x20\n        /* \"#utility.yul\":24433:24435   */\n      0x1f\n        /* \"#utility.yul\":24426:24431   */\n      dup4\n        /* \"#utility.yul\":24422:24436   */\n      add\n        /* \"#utility.yul\":24418:24441   */\n      div\n        /* \"#utility.yul\":24408:24441   */\n      swap1\n      pop\n        /* \"#utility.yul\":24354:24447   */\n      swap2\n      swap1\n      pop\n      jump\t// out\n        /* \"#utility.yul\":24453:24560   */\n    tag_307:\n        /* \"#utility.yul\":24497:24505   */\n      0x00\n        /* \"#utility.yul\":24547:24552   */\n      dup3\n        /* \"#utility.yul\":24541:24545   */\n      dup3\n        /* \"#utility.yul\":24537:24553   */\n      shl\n        /* \"#utility.yul\":24516:24553   */\n      swap1\n      pop\n        /* \"#utility.yul\":24453:24560   */\n      swap3\n      swap2\n      pop\n      pop\n      jump\t// out\n        /* \"#utility.yul\":24566:24959   */\n    tag_308:\n        /* \"#utility.yul\":24635:24641   */\n      0x00\n        /* \"#utility.yul\":24685:24686   */\n      0x08\n        /* \"#utility.yul\":24673:24683   */\n      dup4\n        /* \"#utility.yul\":24669:24687   */\n      mul\n        /* \"#utility.yul\":24708:24805   */\n      tag_563\n        /* \"#utility.yul\":24738:24804   */\n      0xffffffffffffffffffffffffffffffffffffffffffffffffffffffffffffffff\n        /* \"#utility.yul\":24727:24736   */\n      dup3\n        /* \"#utility.yul\":24708:24805   */\n      tag_307\n      jump\t// in\n    tag_563:\n        /* \"#utility.yul\":24826:24865   */\n      tag_564\n        /* \"#utility.yul\":24856:24864   */\n      dup7\n        /* \"#utility.yul\":24845:24854   */\n      dup4\n        /* \"#utility.yul\":24826:24865   */\n      tag_307\n      jump\t// in\n    tag_564:\n        /* \"#utility.yul\":24814:24865   */\n      swap6\n      pop\n        /* \"#utility.yul\":24898:24902   */\n      dup1\n        /* \"#utility.yul\":24894:24903   */\n      not\n        /* \"#utility.yul\":24887:24892   */\n      dup5\n        /* \"#utility.yul\":24883:24904   */\n      and\n        /* \"#utility.yul\":24874:24904   */\n      swap4\n      pop\n        /* \"#utility.yul\":24947:24951   */\n      dup1\n        /* \"#utility.yul\":24937:24945   */\n      dup7\n        /* \"#utility.yul\":24933:24952   */\n      and\n        /* \"#utility.yul\":24926:24931   */\n      dup5\n        /* \"#utility.yul\":24923:24953   */\n      or\n        /* \"#utility.yul\":24913:24953   */\n      swap3\n      pop\n        /* \"#utility.yul\":24642:24959   */\n      pop\n      pop\n        /* \"#utility.yul\":24566:24959   */\n      swap4\n      swap3\n      pop\n      pop\n      pop\n      jump\t// out\n        /* \"#utility.yul\":24965:25025   */\n    tag_309:\n        /* \"#utility.yul\":24993:24996   */\n      0x00\n        /* \"#utility.yul\":25014:25019   */\n      dup2\n        /* \"#utility.yul\":25007:25019   */\n      swap1\n      pop\n        /* \"#utility.yul\":24965:25025   */\n      swap2\n      swap1\n      pop\n      jump\t// out\n        /* \"#utility.yul\":25031:25173   */\n    tag_310:\n        /* \"#utility.yul\":25081:25090   */\n      0x00\n        /* \"#utility.yul\":25114:25167   */\n      tag_567\n        /* \"#utility.yul\":25132:25166   */\n      tag_568\n        /* \"#utility.yul\":25141:25165   */\n      tag_569\n        /* \"#utility.yul\":25159:25164   */\n      dup5\n        /* \"#utility.yul\":25141:25165   */\n      tag_266\n      jump\t// in\n    tag_569:\n        /* \"#utility.yul\":25132:25166   */\n      tag_309\n      jump\t// in\n    tag_568:\n        /* \"#utility.yul\":25114:25167   */\n      tag_266\n      jump\t// in\n    tag_567:\n        /* \"#utility.yul\":25101:25167   */\n      swap1\n      pop\n        /* \"#utility.yul\":25031:25173   */\n      swap2\n      swap1\n      pop\n      jump\t// out\n        /* \"#utility.yul\":25179:25254   */\n    tag_311:\n        /* \"#utility.yul\":25222:25225   */\n      0x00\n        /* \"#utility.yul\":25243:25248   */\n      dup2\n        /* \"#utility.yul\":25236:25248   */\n      swap1\n      pop\n        /* \"#utility.yul\":25179:25254   */\n      swap2\n      swap1\n      pop\n      jump\t// out\n        /* \"#utility.yul\":25260:25529   */\n    tag_312:\n        /* \"#utility.yul\":25370:25409   */\n      tag_572\n        /* \"#utility.yul\":25401:25408   */\n      dup4\n        /* \"#utility.yul\":25370:25409   */\n      tag_310\n      jump\t// in\n    tag_572:\n        /* \"#utility.yul\":25431:25522   */\n      tag_573\n        /* \"#utility.yul\":25480:25521   */\n      tag_574\n        /* \"#utility.yul\":25504:25520   */\n      dup3\n        /* \"#utility.yul\":25480:25521   */\n      tag_311\n      jump\t// in\n    tag_574:\n        /* \"#utility.yul\":25472:25478   */\n      dup5\n        /* \"#utility.yul\":25465:25469   */\n      dup5\n        /* \"#utility.yul\":25459:25470   */\n      sload\n        /* \"#utility.yul\":25431:25522   */\n      tag_308\n      jump\t// in\n    tag_573:\n        /* \"#utility.yul\":25425:25429   */\n      dup3\n        /* \"#utility.yul\":25418:25523   */\n      sstore\n        /* \"#utility.yul\":25336:25529   */\n      pop\n        /* \"#utility.yul\":25260:25529   */\n      pop\n      pop\n      pop\n      jump\t// out\n        /* \"#utility.yul\":25535:25608   */\n    tag_313:\n        /* \"#utility.yul\":25580:25583   */\n      0x00\n        /* \"#utility.yul\":25535:25608   */\n      swap1\n      jump\t// out\n        /* \"#utility.yul\":25614:25803   */\n    tag_314:\n        /* \"#utility.yul\":25691:25723   */\n      tag_577\n      tag_313\n      jump\t// in\n    tag_577:\n        /* \"#utility.yul\":25732:25797   */\n      tag_578\n        /* \"#utility.yul\":25790:25796   */\n      dup2\n        /* \"#utility.yul\":25782:25788   */\n      dup5\n        /* \"#utility.yul\":25776:25780   */\n      dup5\n        /* \"#utility.yul\":25732:25797   */\n      tag_312\n      jump\t// in\n    tag_578:\n        /* \"#utility.yul\":25667:25803   */\n      pop\n        /* \"#utility.yul\":25614:25803   */\n      pop\n      pop\n      jump\t// out\n        /* \"#utility.yul\":25809:25995   */\n    tag_315:\n        /* \"#utility.yul\":25869:25989   */\n    tag_580:\n        /* \"#utility.yul\":25886:25889   */\n      dup2\n        /* \"#utility.yul\":25879:25884   */\n      dup2\n        /* \"#utility.yul\":25876:25890   */\n      lt\n        /* \"#utility.yul\":25869:25989   */\n      iszero\n      tag_582\n      jumpi\n        /* \"#utility.yul\":25940:25979   */\n      tag_583\n        /* \"#utility.yul\":25977:25978   */\n      0x00\n        /* \"#utility.yul\":25970:25975   */\n      dup3\n        /* \"#utility.yul\":25940:25979   */\n      tag_314\n      jump\t// in\n    tag_583:\n        /* \"#utility.yul\":25913:25914   */\n      0x01\n        /* \"#utility.yul\":25906:25911   */\n      dup2\n        /* \"#utility.yul\":25902:25915   */\n      add\n        /* \"#utility.yul\":25893:25915   */\n      swap1\n      pop\n        /* \"#utility.yul\":25869:25989   */\n      jump(tag_580)\n    tag_582:\n        /* \"#utility.yul\":25809:25995   */\n      pop\n      pop\n      jump\t// out\n        /* \"#utility.yul\":26001:26544   */\n    tag_316:\n        /* \"#utility.yul\":26102:26104   */\n      0x1f\n        /* \"#utility.yul\":26097:26100   */\n      dup3\n        /* \"#utility.yul\":26094:26105   */\n      gt\n        /* \"#utility.yul\":26091:26537   */\n      iszero\n      tag_585\n      jumpi\n        /* \"#utility.yul\":26136:26174   */\n      tag_586\n        /* \"#utility.yul\":26168:26173   */\n      dup2\n        /* \"#utility.yul\":26136:26174   */\n      tag_305\n      jump\t// in\n    tag_586:\n        /* \"#utility.yul\":26220:26249   */\n      tag_587\n        /* \"#utility.yul\":26238:26248   */\n      dup5\n        /* \"#utility.yul\":26220:26249   */\n      tag_306\n      jump\t// in\n    tag_587:\n        /* \"#utility.yul\":26210:26218   */\n      dup2\n        /* \"#utility.yul\":26206:26250   */\n      add\n        /* \"#utility.yul\":26403:26405   */\n      0x20\n        /* \"#utility.yul\":26391:26401   */\n      dup6\n        /* \"#utility.yul\":26388:26406   */\n      lt\n        /* \"#utility.yul\":26385:26434   */\n      iszero\n      tag_588\n      jumpi\n        /* \"#utility.yul\":26424:26432   */\n      dup2\n        /* \"#utility.yul\":26409:26432   */\n      swap1\n      pop\n        /* \"#utility.yul\":26385:26434   */\n    tag_588:\n        /* \"#utility.yul\":26447:26527   */\n      tag_589\n        /* \"#utility.yul\":26503:26525   */\n      tag_590\n        /* \"#utility.yul\":26521:26524   */\n      dup6\n        /* \"#utility.yul\":26503:26525   */\n      tag_306\n      jump\t// in\n    tag_590:\n        /* \"#utility.yul\":26493:26501   */\n      dup4\n        /* \"#utility.yul\":26489:26526   */\n      add\n        /* \"#utility.yul\":26476:26487   */\n      dup3\n        /* \"#utility.yul\":26447:26527   */\n      tag_315\n      jump\t// in\n    tag_589:\n        /* \"#utility.yul\":26106:26537   */\n      pop\n      pop\n        /* \"#utility.yul\":26091:26537   */\n    tag_585:\n        /* \"#utility.yul\":26001:26544   */\n      pop\n      pop\n      pop\n      jump\t// out\n        /* \"#utility.yul\":26550:26667   */\n    tag_317:\n        /* \"#utility.yul\":26604:26612   */\n      0x00\n        /* \"#utility.yul\":26654:26659   */\n      dup3\n        /* \"#utility.yul\":26648:26652   */\n      dup3\n        /* \"#utility.yul\":26644:26660   */\n      shr\n        /* \"#utility.yul\":26623:26660   */\n      swap1\n      pop\n        /* \"#utility.yul\":26550:26667   */\n      swap3\n      swap2\n      pop\n      pop\n      jump\t// out\n        /* \"#utility.yul\":26673:26842   */\n    tag_318:\n        /* \"#utility.yul\":26717:26723   */\n      0x00\n        /* \"#utility.yul\":26750:26801   */\n      tag_593\n        /* \"#utility.yul\":26798:26799   */\n      0x00\n        /* \"#utility.yul\":26794:26800   */\n      not\n        /* \"#utility.yul\":26786:26791   */\n      dup5\n        /* \"#utility.yul\":26783:26784   */\n      0x08\n        /* \"#utility.yul\":26779:26792   */\n      mul\n        /* \"#utility.yul\":26750:26801   */\n      tag_317\n      jump\t// in\n    tag_593:\n        /* \"#utility.yul\":26746:26802   */\n      not\n        /* \"#utility.yul\":26831:26835   */\n      dup1\n        /* \"#utility.yul\":26825:26829   */\n      dup4\n        /* \"#utility.yul\":26821:26836   */\n      and\n        /* \"#utility.yul\":26811:26836   */\n      swap2\n      pop\n        /* \"#utility.yul\":26724:26842   */\n      pop\n        /* \"#utility.yul\":26673:26842   */\n      swap3\n      swap2\n      pop\n      pop\n      jump\t// out\n        /* \"#utility.yul\":26847:27142   */\n    tag_319:\n        /* \"#utility.yul\":26923:26927   */\n      0x00\n        /* \"#utility.yul\":27069:27098   */\n      tag_595\n        /* \"#utility.yul\":27094:27097   */\n      dup4\n        /* \"#utility.yul\":27088:27092   */\n      dup4\n        /* \"#utility.yul\":27069:27098   */\n      tag_318\n      jump\t// in\n    tag_595:\n        /* \"#utility.yul\":27061:27098   */\n      swap2\n      pop\n        /* \"#utility.yul\":27131:27134   */\n      dup3\n        /* \"#utility.yul\":27128:27129   */\n      0x02\n        /* \"#utility.yul\":27124:27135   */\n      mul\n        /* \"#utility.yul\":27118:27122   */\n      dup3\n        /* \"#utility.yul\":27115:27136   */\n      or\n        /* \"#utility.yul\":27107:27136   */\n      swap1\n      pop\n        /* \"#utility.yul\":26847:27142   */\n      swap3\n      swap2\n      pop\n      pop\n      jump\t// out\n        /* \"#utility.yul\":27147:28542   */\n    tag_143:\n        /* \"#utility.yul\":27264:27301   */\n      tag_597\n        /* \"#utility.yul\":27297:27300   */\n      dup3\n        /* \"#utility.yul\":27264:27301   */\n      tag_273\n      jump\t// in\n    tag_597:\n        /* \"#utility.yul\":27366:27384   */\n      0xffffffffffffffff\n        /* \"#utility.yul\":27358:27364   */\n      dup2\n        /* \"#utility.yul\":27355:27385   */\n      gt\n        /* \"#utility.yul\":27352:27408   */\n      iszero\n      tag_598\n      jumpi\n        /* \"#utility.yul\":27388:27406   */\n      tag_599\n      tag_255\n      jump\t// in\n    tag_599:\n        /* \"#utility.yul\":27352:27408   */\n    tag_598:\n        /* \"#utility.yul\":27432:27470   */\n      tag_600\n        /* \"#utility.yul\":27464:27468   */\n      dup3\n        /* \"#utility.yul\":27458:27469   */\n      sload\n        /* \"#utility.yul\":27432:27470   */\n      tag_222\n      jump\t// in\n    tag_600:\n        /* \"#utility.yul\":27517:27584   */\n      tag_601\n        /* \"#utility.yul\":27577:27583   */\n      dup3\n        /* \"#utility.yul\":27569:27575   */\n      dup3\n        /* \"#utility.yul\":27563:27567   */\n      dup6\n        /* \"#utility.yul\":27517:27584   */\n      tag_316\n      jump\t// in\n    tag_601:\n        /* \"#utility.yul\":27611:27612   */\n      0x00\n        /* \"#utility.yul\":27635:27639   */\n      0x20\n        /* \"#utility.yul\":27622:27639   */\n      swap1\n      pop\n        /* \"#utility.yul\":27667:27669   */\n      0x1f\n        /* \"#utility.yul\":27659:27665   */\n      dup4\n        /* \"#utility.yul\":27656:27670   */\n      gt\n        /* \"#utility.yul\":27684:27685   */\n      0x01\n        /* \"#utility.yul\":27679:28297   */\n      dup2\n      eq\n      tag_603\n      jumpi\n        /* \"#utility.yul\":28341:28342   */\n      0x00\n        /* \"#utility.yul\":28358:28364   */\n      dup5\n        /* \"#utility.yul\":28355:28432   */\n      iszero\n      tag_604\n      jumpi\n        /* \"#utility.yul\":28407:28416   */\n      dup3\n        /* \"#utility.yul\":28402:28405   */\n      dup8\n        /* \"#utility.yul\":28398:28417   */\n      add\n        /* \"#utility.yul\":28392:28418   */\n      mload\n        /* \"#utility.yul\":28383:28418   */\n      swap1\n      pop\n        /* \"#utility.yul\":28355:28432   */\n    tag_604:\n        /* \"#utility.yul\":28458:28525   */\n      tag_605\n        /* \"#utility.yul\":28518:28524   */\n      dup6\n        /* \"#utility.yul\":28511:28516   */\n      dup3\n        /* \"#utility.yul\":28458:28525   */\n      tag_319\n      jump\t// in\n    tag_605:\n        /* \"#utility.yul\":28452:28456   */\n      dup7\n        /* \"#utility.yul\":28445:28526   */\n      sstore\n        /* \"#utility.yul\":28314:28536   */\n      pop\n        /* \"#utility.yul\":27649:28536   */\n      jump(tag_602)\n        /* \"#utility.yul\":27679:28297   */\n    tag_603:\n        /* \"#utility.yul\":27731:27735   */\n      0x1f\n        /* \"#utility.yul\":27727:27736   */\n      not\n        /* \"#utility.yul\":27719:27725   */\n      dup5\n        /* \"#utility.yul\":27715:27737   */\n      and\n        /* \"#utility.yul\":27765:27802   */\n      tag_606\n        /* \"#utility.yul\":27797:27801   */\n      dup7\n        /* \"#utility.yul\":27765:27802   */\n      tag_305\n      jump\t// in\n    tag_606:\n        /* \"#utility.yul\":27824:27825   */\n      0x00\n        /* \"#utility.yul\":27838:28046   */\n    tag_607:\n        /* \"#utility.yul\":27852:27859   */\n      dup3\n        /* \"#utility.yul\":27849:27850   */\n      dup2\n        /* \"#utility.yul\":27846:27860   */\n      lt\n        /* \"#utility.yul\":27838:28046   */\n      iszero\n      tag_609\n      jumpi\n        /* \"#utility.yul\":27931:27940   */\n      dup5\n        /* \"#utility.yul\":27926:27929   */\n      dup10\n        /* \"#utility.yul\":27922:27941   */\n      add\n        /* \"#utility.yul\":27916:27942   */\n      mload\n        /* \"#utility.yul\":27908:27914   */\n      dup3\n        /* \"#utility.yul\":27901:27943   */\n      sstore\n        /* \"#utility.yul\":27982:27983   */\n      0x01\n        /* \"#utility.yul\":27974:27980   */\n      dup3\n        /* \"#utility.yul\":27970:27984   */\n      add\n        /* \"#utility.yul\":27960:27984   */\n      swap2\n      pop\n        /* \"#utility.yul\":28029:28031   */\n      0x20\n        /* \"#utility.yul\":28018:28027   */\n      dup6\n        /* \"#utility.yul\":28014:28032   */\n      add\n        /* \"#utility.yul\":28001:28032   */\n      swap5\n      pop\n        /* \"#utility.yul\":27875:27879   */\n      0x20\n        /* \"#utility.yul\":27872:27873   */\n      dup2\n        /* \"#utility.yul\":27868:27880   */\n      add\n        /* \"#utility.yul\":27863:27880   */\n      swap1\n      pop\n        /* \"#utility.yul\":27838:28046   */\n      jump(tag_607)\n    tag_609:\n        /* \"#utility.yul\":28074:28080   */\n      dup7\n        /* \"#utility.yul\":28065:28072   */\n      dup4\n        /* \"#utility.yul\":28062:28081   */\n      lt\n        /* \"#utility.yul\":28059:28238   */\n      iszero\n      tag_610\n      jumpi\n        /* \"#utility.yul\":28132:28141   */\n      dup5\n        /* \"#utility.yul\":28127:28130   */\n      dup10\n        /* \"#utility.yul\":28123:28142   */\n      add\n        /* \"#utility.yul\":28117:28143   */\n      mload\n        /* \"#utility.yul\":28175:28223   */\n      tag_611\n        /* \"#utility.yul\":28217:28221   */\n      0x1f\n        /* \"#utility.yul\":28209:28215   */\n      dup10\n        /* \"#utility.yul\":28205:28222   */\n      and\n        /* \"#utility.yul\":28194:28203   */\n      dup3\n        /* \"#utility.yul\":28175:28223   */\n      tag_318\n      jump\t// in\n    tag_611:\n        /* \"#utility.yul\":28167:28173   */\n      dup4\n        /* \"#utility.yul\":28160:28224   */\n      sstore\n        /* \"#utility.yul\":28082:28238   */\n      pop\n        /* \"#utility.yul\":28059:28238   */\n    tag_610:\n        /* \"#utility.yul\":28284:28285   */\n      0x01\n        /* \"#utility.yul\":28280:28281   */\n      0x02\n        /* \"#utility.yul\":28272:28278   */\n      dup9\n        /* \"#utility.yul\":28268:28282   */\n      mul\n        /* \"#utility.yul\":28264:28286   */\n      add\n        /* \"#utility.yul\":28258:28262   */\n      dup9\n        /* \"#utility.yul\":28251:28287   */\n      sstore\n        /* \"#utility.yul\":27686:28297   */\n      pop\n      pop\n      pop\n        /* \"#utility.yul\":27649:28536   */\n    tag_602:\n      pop\n        /* \"#utility.yul\":27239:28542   */\n      pop\n      pop\n      pop\n        /* \"#utility.yul\":27147:28542   */\n      pop\n      pop\n      jump\t// out\n        /* \"#utility.yul\":28548:28971   */\n    tag_148:\n        /* \"#utility.yul\":28689:28693   */\n      0x00\n        /* \"#utility.yul\":28727:28729   */\n      0x40\n        /* \"#utility.yul\":28716:28725   */\n      dup3\n        /* \"#utility.yul\":28712:28730   */\n      add\n        /* \"#utility.yul\":28704:28730   */\n      swap1\n      pop\n        /* \"#utility.yul\":28740:28811   */\n      tag_613\n        /* \"#utility.yul\":28808:28809   */\n      0x00\n        /* \"#utility.yul\":28797:28806   */\n      dup4\n        /* \"#utility.yul\":28793:28810   */\n      add\n        /* \"#utility.yul\":28784:28790   */\n      dup6\n        /* \"#utility.yul\":28740:28811   */\n      tag_282\n      jump\t// in\n    tag_613:\n        /* \"#utility.yul\":28858:28867   */\n      dup2\n        /* \"#utility.yul\":28852:28856   */\n      dup2\n        /* \"#utility.yul\":28848:28868   */\n      sub\n        /* \"#utility.yul\":28843:28845   */\n      0x20\n        /* \"#utility.yul\":28832:28841   */\n      dup4\n        /* \"#utility.yul\":28828:28846   */\n      add\n        /* \"#utility.yul\":28821:28869   */\n      mstore\n        /* \"#utility.yul\":28886:28964   */\n      tag_614\n        /* \"#utility.yul\":28959:28963   */\n      dup2\n        /* \"#utility.yul\":28950:28956   */\n      dup5\n        /* \"#utility.yul\":28886:28964   */\n      tag_301\n      jump\t// in\n    tag_614:\n        /* \"#utility.yul\":28878:28964   */\n      swap1\n      pop\n        /* \"#utility.yul\":28548:28971   */\n      swap4\n      swap3\n      pop\n      pop\n      pop\n      jump\t// out\n        /* \"#utility.yul\":28977:29156   */\n    tag_320:\n        /* \"#utility.yul\":29117:29148   */\n      0x77697468647261776e5f6661696c5f6e616d655f6e6f745f6578697374000000\n        /* \"#utility.yul\":29113:29114   */\n      0x00\n        /* \"#utility.yul\":29105:29111   */\n      dup3\n        /* \"#utility.yul\":29101:29115   */\n      add\n        /* \"#utility.yul\":29094:29149   */\n      mstore\n        /* \"#utility.yul\":28977:29156   */\n      pop\n      jump\t// out\n        /* \"#utility.yul\":29162:29528   */\n    tag_321:\n        /* \"#utility.yul\":29304:29307   */\n      0x00\n        /* \"#utility.yul\":29325:29392   */\n      tag_617\n        /* \"#utility.yul\":29389:29391   */\n      0x1d\n        /* \"#utility.yul\":29384:29387   */\n      dup4\n        /* \"#utility.yul\":29325:29392   */\n      tag_288\n      jump\t// in\n    tag_617:\n        /* \"#utility.yul\":29318:29392   */\n      swap2\n      pop\n        /* \"#utility.yul\":29401:29494   */\n      tag_618\n        /* \"#utility.yul\":29490:29493   */\n      dup3\n        /* \"#utility.yul\":29401:29494   */\n      tag_320\n      jump\t// in\n    tag_618:\n        /* \"#utility.yul\":29519:29521   */\n      0x20\n        /* \"#utility.yul\":29514:29517   */\n      dup3\n        /* \"#utility.yul\":29510:29522   */\n      add\n        /* \"#utility.yul\":29503:29522   */\n      swap1\n      pop\n        /* \"#utility.yul\":29162:29528   */\n      swap2\n      swap1\n      pop\n      jump\t// out\n        /* \"#utility.yul\":29534:29953   */\n    tag_153:\n        /* \"#utility.yul\":29700:29704   */\n      0x00\n        /* \"#utility.yul\":29738:29740   */\n      0x20\n        /* \"#utility.yul\":29727:29736   */\n      dup3\n        /* \"#utility.yul\":29723:29741   */\n      add\n        /* \"#utility.yul\":29715:29741   */\n      swap1\n      pop\n        /* \"#utility.yul\":29787:29796   */\n      dup2\n        /* \"#utility.yul\":29781:29785   */\n      dup2\n        /* \"#utility.yul\":29777:29797   */\n      sub\n        /* \"#utility.yul\":29773:29774   */\n      0x00\n        /* \"#utility.yul\":29762:29771   */\n      dup4\n        /* \"#utility.yul\":29758:29775   */\n      add\n        /* \"#utility.yul\":29751:29798   */\n      mstore\n        /* \"#utility.yul\":29815:29946   */\n      tag_620\n        /* \"#utility.yul\":29941:29945   */\n      dup2\n        /* \"#utility.yul\":29815:29946   */\n      tag_321\n      jump\t// in\n    tag_620:\n        /* \"#utility.yul\":29807:29946   */\n      swap1\n      pop\n        /* \"#utility.yul\":29534:29953   */\n      swap2\n      swap1\n      pop\n      jump\t// out\n        /* \"#utility.yul\":29959:30133   */\n    tag_322:\n        /* \"#utility.yul\":30099:30125   */\n      0x77697468647261776e5f6661696c5f6e6f745f6f776e65720000000000000000\n        /* \"#utility.yul\":30095:30096   */\n      0x00\n        /* \"#utility.yul\":30087:30093   */\n      dup3\n        /* \"#utility.yul\":30083:30097   */\n      add\n        /* \"#utility.yul\":30076:30126   */\n      mstore\n        /* \"#utility.yul\":29959:30133   */\n      pop\n      jump\t// out\n        /* \"#utility.yul\":30139:30505   */\n    tag_323:\n        /* \"#utility.yul\":30281:30284   */\n      0x00\n        /* \"#utility.yul\":30302:30369   */\n      tag_623\n        /* \"#utility.yul\":30366:30368   */\n      0x18\n        /* \"#utility.yul\":30361:30364   */\n      dup4\n        /* \"#utility.yul\":30302:30369   */\n      tag_288\n      jump\t// in\n    tag_623:\n        /* \"#utility.yul\":30295:30369   */\n      swap2\n      pop\n        /* \"#utility.yul\":30378:30471   */\n      tag_624\n        /* \"#utility.yul\":30467:30470   */\n      dup3\n        /* \"#utility.yul\":30378:30471   */\n      tag_322\n      jump\t// in\n    tag_624:\n        /* \"#utility.yul\":30496:30498   */\n      0x20\n        /* \"#utility.yul\":30491:30494   */\n      dup3\n        /* \"#utility.yul\":30487:30499   */\n      add\n        /* \"#utility.yul\":30480:30499   */\n      swap1\n      pop\n        /* \"#utility.yul\":30139:30505   */\n      swap2\n      swap1\n      pop\n      jump\t// out\n        /* \"#utility.yul\":30511:30930   */\n    tag_157:\n        /* \"#utility.yul\":30677:30681   */\n      0x00\n        /* \"#utility.yul\":30715:30717   */\n      0x20\n        /* \"#utility.yul\":30704:30713   */\n      dup3\n        /* \"#utility.yul\":30700:30718   */\n      add\n        /* \"#utility.yul\":30692:30718   */\n      swap1\n      pop\n        /* \"#utility.yul\":30764:30773   */\n      dup2\n        /* \"#utility.yul\":30758:30762   */\n      dup2\n        /* \"#utility.yul\":30754:30774   */\n      sub\n        /* \"#utility.yul\":30750:30751   */\n      0x00\n        /* \"#utility.yul\":30739:30748   */\n      dup4\n        /* \"#utility.yul\":30735:30752   */\n      add\n        /* \"#utility.yul\":30728:30775   */\n      mstore\n        /* \"#utility.yul\":30792:30923   */\n      tag_626\n        /* \"#utility.yul\":30918:30922   */\n      dup2\n        /* \"#utility.yul\":30792:30923   */\n      tag_323\n      jump\t// in\n    tag_626:\n        /* \"#utility.yul\":30784:30923   */\n      swap1\n      pop\n        /* \"#utility.yul\":30511:30930   */\n      swap2\n      swap1\n      pop\n      jump\t// out\n        /* \"#utility.yul\":30936:31111   */\n    tag_324:\n        /* \"#utility.yul\":31076:31103   */\n      0x77697468647261776e5f6661696c5f76616c75655f7a65726f00000000000000\n        /* \"#utility.yul\":31072:31073   */\n      0x00\n        /* \"#utility.yul\":31064:31070   */\n      dup3\n        /* \"#utility.yul\":31060:31074   */\n      add\n        /* \"#utility.yul\":31053:31104   */\n      mstore\n        /* \"#utility.yul\":30936:31111   */\n      pop\n      jump\t// out\n        /* \"#utility.yul\":31117:31483   */\n    tag_325:\n        /* \"#utility.yul\":31259:31262   */\n      0x00\n        /* \"#utility.yul\":31280:31347   */\n      tag_629\n        /* \"#utility.yul\":31344:31346   */\n      0x19\n        /* \"#utility.yul\":31339:31342   */\n      dup4\n        /* \"#utility.yul\":31280:31347   */\n      tag_288\n      jump\t// in\n    tag_629:\n        /* \"#utility.yul\":31273:31347   */\n      swap2\n      pop\n        /* \"#utility.yul\":31356:31449   */\n      tag_630\n        /* \"#utility.yul\":31445:31448   */\n      dup3\n        /* \"#utility.yul\":31356:31449   */\n      tag_324\n      jump\t// in\n    tag_630:\n        /* \"#utility.yul\":31474:31476   */\n      0x20\n        /* \"#utility.yul\":31469:31472   */\n      dup3\n        /* \"#utility.yul\":31465:31477   */\n      add\n        /* \"#utility.yul\":31458:31477   */\n      swap1\n      pop\n        /* \"#utility.yul\":31117:31483   */\n      swap2\n      swap1\n      pop\n      jump\t// out\n        /* \"#utility.yul\":31489:31908   */\n    tag_160:\n        /* \"#utility.yul\":31655:31659   */\n      0x00\n        /* \"#utility.yul\":31693:31695   */\n      0x20\n        /* \"#utility.yul\":31682:31691   */\n      dup3\n        /* \"#utility.yul\":31678:31696   */\n      add\n        /* \"#utility.yul\":31670:31696   */\n      swap1\n      pop\n        /* \"#utility.yul\":31742:31751   */\n      dup2\n        /* \"#utility.yul\":31736:31740   */\n      dup2\n        /* \"#utility.yul\":31732:31752   */\n      sub\n        /* \"#utility.yul\":31728:31729   */\n      0x00\n        /* \"#utility.yul\":31717:31726   */\n      dup4\n        /* \"#utility.yul\":31713:31730   */\n      add\n        /* \"#utility.yul\":31706:31753   */\n      mstore\n        /* \"#utility.yul\":31770:31901   */\n      tag_632\n        /* \"#utility.yul\":31896:31900   */\n      dup2\n        /* \"#utility.yul\":31770:31901   */\n      tag_325\n      jump\t// in\n    tag_632:\n        /* \"#utility.yul\":31762:31901   */\n      swap1\n      pop\n        /* \"#utility.yul\":31489:31908   */\n      swap2\n      swap1\n      pop\n      jump\t// out\n        /* \"#utility.yul\":31914:32134   */\n    tag_326:\n        /* \"#utility.yul\":32054:32088   */\n      0x77697468647261776e5f6661696c5f62616c616e63655f6e6f745f656e6f7567\n        /* \"#utility.yul\":32050:32051   */\n      0x00\n        /* \"#utility.yul\":32042:32048   */\n      dup3\n        /* \"#utility.yul\":32038:32052   */\n      add\n        /* \"#utility.yul\":32031:32089   */\n      mstore\n        /* \"#utility.yul\":32123:32126   */\n      0x6800000000000000000000000000000000000000000000000000000000000000\n        /* \"#utility.yul\":32118:32120   */\n      0x20\n        /* \"#utility.yul\":32110:32116   */\n      dup3\n        /* \"#utility.yul\":32106:32121   */\n      add\n        /* \"#utility.yul\":32099:32127   */\n      mstore\n        /* \"#utility.yul\":31914:32134   */\n      pop\n      jump\t// out\n        /* \"#utility.yul\":32140:32506   */\n    tag_327:\n        /* \"#utility.yul\":32282:32285   */\n      0x00\n        /* \"#utility.yul\":32303:32370   */\n      tag_635\n        /* \"#utility.yul\":32367:32369   */\n      0x21\n        /* \"#utility.yul\":32362:32365   */\n      dup4\n        /* \"#utility.yul\":32303:32370   */\n      tag_288\n      jump\t// in\n    tag_635:\n        /* \"#utility.yul\":32296:32370   */\n      swap2\n      pop\n        /* \"#utility.yul\":32379:32472   */\n      tag_636\n        /* \"#utility.yul\":32468:32471   */\n      dup3\n        /* \"#utility.yul\":32379:32472   */\n      tag_326\n      jump\t// in\n    tag_636:\n        /* \"#utility.yul\":32497:32499   */\n      0x40\n        /* \"#utility.yul\":32492:32495   */\n      dup3\n        /* \"#utility.yul\":32488:32500   */\n      add\n        /* \"#utility.yul\":32481:32500   */\n      swap1\n      pop\n        /* \"#utility.yul\":32140:32506   */\n      swap2\n      swap1\n      pop\n      jump\t// out\n        /* \"#utility.yul\":32512:32931   */\n    tag_164:\n        /* \"#utility.yul\":32678:32682   */\n      0x00\n        /* \"#utility.yul\":32716:32718   */\n      0x20\n        /* \"#utility.yul\":32705:32714   */\n      dup3\n        /* \"#utility.yul\":32701:32719   */\n      add\n        /* \"#utility.yul\":32693:32719   */\n      swap1\n      pop\n        /* \"#utility.yul\":32765:32774   */\n      dup2\n        /* \"#utility.yul\":32759:32763   */\n      dup2\n        /* \"#utility.yul\":32755:32775   */\n      sub\n        /* \"#utility.yul\":32751:32752   */\n      0x00\n        /* \"#utility.yul\":32740:32749   */\n      dup4\n        /* \"#utility.yul\":32736:32753   */\n      add\n        /* \"#utility.yul\":32729:32776   */\n      mstore\n        /* \"#utility.yul\":32793:32924   */\n      tag_638\n        /* \"#utility.yul\":32919:32923   */\n      dup2\n        /* \"#utility.yul\":32793:32924   */\n      tag_327\n      jump\t// in\n    tag_638:\n        /* \"#utility.yul\":32785:32924   */\n      swap1\n      pop\n        /* \"#utility.yul\":32512:32931   */\n      swap2\n      swap1\n      pop\n      jump\t// out\n        /* \"#utility.yul\":32937:33470   */\n    tag_170:\n        /* \"#utility.yul\":33106:33110   */\n      0x00\n        /* \"#utility.yul\":33144:33146   */\n      0x60\n        /* \"#utility.yul\":33133:33142   */\n      dup3\n        /* \"#utility.yul\":33129:33147   */\n      add\n        /* \"#utility.yul\":33121:33147   */\n      swap1\n      pop\n        /* \"#utility.yul\":33193:33202   */\n      dup2\n        /* \"#utility.yul\":33187:33191   */\n      dup2\n        /* \"#utility.yul\":33183:33203   */\n      sub\n        /* \"#utility.yul\":33179:33180   */\n      0x00\n        /* \"#utility.yul\":33168:33177   */\n      dup4\n        /* \"#utility.yul\":33164:33181   */\n      add\n        /* \"#utility.yul\":33157:33204   */\n      mstore\n        /* \"#utility.yul\":33221:33299   */\n      tag_640\n        /* \"#utility.yul\":33294:33298   */\n      dup2\n        /* \"#utility.yul\":33285:33291   */\n      dup7\n        /* \"#utility.yul\":33221:33299   */\n      tag_301\n      jump\t// in\n    tag_640:\n        /* \"#utility.yul\":33213:33299   */\n      swap1\n      pop\n        /* \"#utility.yul\":33309:33381   */\n      tag_641\n        /* \"#utility.yul\":33377:33379   */\n      0x20\n        /* \"#utility.yul\":33366:33375   */\n      dup4\n        /* \"#utility.yul\":33362:33380   */\n      add\n        /* \"#utility.yul\":33353:33359   */\n      dup6\n        /* \"#utility.yul\":33309:33381   */\n      tag_282\n      jump\t// in\n    tag_641:\n        /* \"#utility.yul\":33391:33463   */\n      tag_642\n        /* \"#utility.yul\":33459:33461   */\n      0x40\n        /* \"#utility.yul\":33448:33457   */\n      dup4\n        /* \"#utility.yul\":33444:33462   */\n      add\n        /* \"#utility.yul\":33435:33441   */\n      dup5\n        /* \"#utility.yul\":33391:33463   */\n      tag_269\n      jump\t// in\n    tag_642:\n        /* \"#utility.yul\":32937:33470   */\n      swap5\n      swap4\n      pop\n      pop\n      pop\n      pop\n      jump\t// out\n        /* \"#utility.yul\":33476:33653   */\n    tag_328:\n        /* \"#utility.yul\":33616:33645   */\n      0x6465706f7369745f6661696c5f6e616d655f6e6f745f65786973740000000000\n        /* \"#utility.yul\":33612:33613   */\n      0x00\n        /* \"#utility.yul\":33604:33610   */\n      dup3\n        /* \"#utility.yul\":33600:33614   */\n      add\n        /* \"#utility.yul\":33593:33646   */\n      mstore\n        /* \"#utility.yul\":33476:33653   */\n      pop\n      jump\t// out\n        /* \"#utility.yul\":33659:34025   */\n    tag_329:\n        /* \"#utility.yul\":33801:33804   */\n      0x00\n        /* \"#utility.yul\":33822:33889   */\n      tag_645\n        /* \"#utility.yul\":33886:33888   */\n      0x1b\n        /* \"#utility.yul\":33881:33884   */\n      dup4\n        /* \"#utility.yul\":33822:33889   */\n      tag_288\n      jump\t// in\n    tag_645:\n        /* \"#utility.yul\":33815:33889   */\n      swap2\n      pop\n        /* \"#utility.yul\":33898:33991   */\n      tag_646\n        /* \"#utility.yul\":33987:33990   */\n      dup3\n        /* \"#utility.yul\":33898:33991   */\n      tag_328\n      jump\t// in\n    tag_646:\n        /* \"#utility.yul\":34016:34018   */\n      0x20\n        /* \"#utility.yul\":34011:34014   */\n      dup3\n        /* \"#utility.yul\":34007:34019   */\n      add\n        /* \"#utility.yul\":34000:34019   */\n      swap1\n      pop\n        /* \"#utility.yul\":33659:34025   */\n      swap2\n      swap1\n      pop\n      jump\t// out\n        /* \"#utility.yul\":34031:34450   */\n    tag_209:\n        /* \"#utility.yul\":34197:34201   */\n      0x00\n        /* \"#utility.yul\":34235:34237   */\n      0x20\n        /* \"#utility.yul\":34224:34233   */\n      dup3\n        /* \"#utility.yul\":34220:34238   */\n      add\n        /* \"#utility.yul\":34212:34238   */\n      swap1\n      pop\n        /* \"#utility.yul\":34284:34293   */\n      dup2\n        /* \"#utility.yul\":34278:34282   */\n      dup2\n        /* \"#utility.yul\":34274:34294   */\n      sub\n        /* \"#utility.yul\":34270:34271   */\n      0x00\n        /* \"#utility.yul\":34259:34268   */\n      dup4\n        /* \"#utility.yul\":34255:34272   */\n      add\n        /* \"#utility.yul\":34248:34295   */\n      mstore\n        /* \"#utility.yul\":34312:34443   */\n      tag_648\n        /* \"#utility.yul\":34438:34442   */\n      dup2\n        /* \"#utility.yul\":34312:34443   */\n      tag_329\n      jump\t// in\n    tag_648:\n        /* \"#utility.yul\":34304:34443   */\n      swap1\n      pop\n        /* \"#utility.yul\":34031:34450   */\n      swap2\n      swap1\n      pop\n      jump\t// out\n        /* \"#utility.yul\":34456:34629   */\n    tag_330:\n        /* \"#utility.yul\":34596:34621   */\n      0x6465706f7369745f6661696c5f76616c75655f7a65726f000000000000000000\n        /* \"#utility.yul\":34592:34593   */\n      0x00\n        /* \"#utility.yul\":34584:34590   */\n      dup3\n        /* \"#utility.yul\":34580:34594   */\n      add\n        /* \"#utility.yul\":34573:34622   */\n      mstore\n        /* \"#utility.yul\":34456:34629   */\n      pop\n      jump\t// out\n        /* \"#utility.yul\":34635:35001   */\n    tag_331:\n        /* \"#utility.yul\":34777:34780   */\n      0x00\n        /* \"#utility.yul\":34798:34865   */\n      tag_651\n        /* \"#utility.yul\":34862:34864   */\n      0x17\n        /* \"#utility.yul\":34857:34860   */\n      dup4\n        /* \"#utility.yul\":34798:34865   */\n      tag_288\n      jump\t// in\n    tag_651:\n        /* \"#utility.yul\":34791:34865   */\n      swap2\n      pop\n        /* \"#utility.yul\":34874:34967   */\n      tag_652\n        /* \"#utility.yul\":34963:34966   */\n      dup3\n        /* \"#utility.yul\":34874:34967   */\n      tag_330\n      jump\t// in\n    tag_652:\n        /* \"#utility.yul\":34992:34994   */\n      0x20\n        /* \"#utility.yul\":34987:34990   */\n      dup3\n        /* \"#utility.yul\":34983:34995   */\n      add\n        /* \"#utility.yul\":34976:34995   */\n      swap1\n      pop\n        /* \"#utility.yul\":34635:35001   */\n      swap2\n      swap1\n      pop\n      jump\t// out\n        /* \"#utility.yul\":35007:35426   */\n    tag_212:\n        /* \"#utility.yul\":35173:35177   */\n      0x00\n        /* \"#utility.yul\":35211:35213   */\n      0x20\n        /* \"#utility.yul\":35200:35209   */\n      dup3\n        /* \"#utility.yul\":35196:35214   */\n      add\n        /* \"#utility.yul\":35188:35214   */\n      swap1\n      pop\n        /* \"#utility.yul\":35260:35269   */\n      dup2\n        /* \"#utility.yul\":35254:35258   */\n      dup2\n        /* \"#utility.yul\":35250:35270   */\n      sub\n        /* \"#utility.yul\":35246:35247   */\n      0x00\n        /* \"#utility.yul\":35235:35244   */\n      dup4\n        /* \"#utility.yul\":35231:35248   */\n      add\n        /* \"#utility.yul\":35224:35271   */\n      mstore\n        /* \"#utility.yul\":35288:35419   */\n      tag_654\n        /* \"#utility.yul\":35414:35418   */\n      dup2\n        /* \"#utility.yul\":35288:35419   */\n      tag_331\n      jump\t// in\n    tag_654:\n        /* \"#utility.yul\":35280:35419   */\n      swap1\n      pop\n        /* \"#utility.yul\":35007:35426   */\n      swap2\n      swap1\n      pop\n      jump\t// out\n        /* \"#utility.yul\":35432:35965   */\n    tag_216:\n        /* \"#utility.yul\":35601:35605   */\n      0x00\n        /* \"#utility.yul\":35639:35641   */\n      0x60\n        /* \"#utility.yul\":35628:35637   */\n      dup3\n        /* \"#utility.yul\":35624:35642   */\n      add\n        /* \"#utility.yul\":35616:35642   */\n      swap1\n      pop\n        /* \"#utility.yul\":35652:35723   */\n      tag_656\n        /* \"#utility.yul\":35720:35721   */\n      0x00\n        /* \"#utility.yul\":35709:35718   */\n      dup4\n        /* \"#utility.yul\":35705:35722   */\n      add\n        /* \"#utility.yul\":35696:35702   */\n      dup7\n        /* \"#utility.yul\":35652:35723   */\n      tag_282\n      jump\t// in\n    tag_656:\n        /* \"#utility.yul\":35770:35779   */\n      dup2\n        /* \"#utility.yul\":35764:35768   */\n      dup2\n        /* \"#utility.yul\":35760:35780   */\n      sub\n        /* \"#utility.yul\":35755:35757   */\n      0x20\n        /* \"#utility.yul\":35744:35753   */\n      dup4\n        /* \"#utility.yul\":35740:35758   */\n      add\n        /* \"#utility.yul\":35733:35781   */\n      mstore\n        /* \"#utility.yul\":35798:35876   */\n      tag_657\n        /* \"#utility.yul\":35871:35875   */\n      dup2\n        /* \"#utility.yul\":35862:35868   */\n      dup6\n        /* \"#utility.yul\":35798:35876   */\n      tag_301\n      jump\t// in\n    tag_657:\n        /* \"#utility.yul\":35790:35876   */\n      swap1\n      pop\n        /* \"#utility.yul\":35886:35958   */\n      tag_658\n        /* \"#utility.yul\":35954:35956   */\n      0x40\n        /* \"#utility.yul\":35943:35952   */\n      dup4\n        /* \"#utility.yul\":35939:35957   */\n      add\n        /* \"#utility.yul\":35930:35936   */\n      dup5\n        /* \"#utility.yul\":35886:35958   */\n      tag_269\n      jump\t// in\n    tag_658:\n        /* \"#utility.yul\":35432:35965   */\n      swap5\n      swap4\n      pop\n      pop\n      pop\n      pop\n      jump\t// out\n\n    auxdata: 0xa264697066735822122062979c961e33e47d2bcc47e2885bbc12b61ef274a95671b935cf40c0ed80fd1e64736f6c634300080f0033\n}\n",
				"bytecode": {
					"linkReferences": {},
					"object": "608060405234801561001057600080fd5b50336000806101000a81548173ffffffffffffffffffffffffffffffffffffffff021916908373ffffffffffffffffffffffffffffffffffffffff1602179055506000600181905550612a20806100686000396000f3fe60806040526004361061009c5760003560e01c8063a26e118611610064578063a26e118614610170578063a43e567a1461018c578063b2277d2c146101b7578063ca1ae01c146101e2578063df4734ed1461021f578063f8a0e8c31461025c5761009c565b806316dfc5b2146100a15780632ad26a04146100ca578063358eecb6146100f35780635e3458101461011c5780637b83b50b14610145575b600080fd5b3480156100ad57600080fd5b506100c860048036038101906100c39190611982565b610285565b005b3480156100d657600080fd5b506100f160048036038101906100ec9190611a0d565b61086b565b005b3480156100ff57600080fd5b5061011a60048036038101906101159190611a56565b610a7c565b005b34801561012857600080fd5b50610143600480360381019061013e9190611ab2565b610d01565b005b34801561015157600080fd5b5061015a611193565b6040516101679190611b4c565b60405180910390f35b61018a60048036038101906101859190611a0d565b61119d565b005b34801561019857600080fd5b506101a16112c8565b6040516101ae9190611cb1565b60405180910390f35b3480156101c357600080fd5b506101cc6113de565b6040516101d99190611d14565b60405180910390f35b3480156101ee57600080fd5b5061020960048036038101906102049190611a0d565b611407565b6040516102169190611b4c565b60405180910390f35b34801561022b57600080fd5b5061024660048036038101906102419190611a0d565b611432565b6040516102539190611d9d565b60405180910390f35b34801561026857600080fd5b50610283600480360381019061027e9190611dbf565b61155c565b005b600115156004846040516102999190611e28565b908152602001604051809103902060009054906101000a900460ff161515146102f7576040517f08c379a00000000000000000000000000000000000000000000000000000000081526004016102ee90611ec2565b60405180910390fd5b3373ffffffffffffffffffffffffffffffffffffffff1660038460405161031e9190611e28565b908152602001604051809103902060000160009054906101000a900473ffffffffffffffffffffffffffffffffffffffff1673ffffffffffffffffffffffffffffffffffffffff16146103a6576040517f08c379a000000000000000000000000000000000000000000000000000000000815260040161039d90611f2e565b60405180910390fd5b60648110156103ea576040517f08c379a00000000000000000000000000000000000000000000000000000000081526004016103e190611fc0565b60405180910390fd5b8151816103f7919061200f565b6003846040516104079190611e28565b908152602001604051809103902060020154101561045a576040517f08c379a0000000000000000000000000000000000000000000000000000000008152600401610451906120db565b60405180910390fd5b60005b82518110156108655760011515600484838151811061047f5761047e6120fb565b5b60200260200101516040516104949190611e28565b908152602001604051809103902060009054906101000a900460ff161515146104f2576040517f08c379a00000000000000000000000000000000000000000000000000000000081526004016104e990612176565b60405180910390fd5b6003838281518110610507576105066120fb565b5b602002602001015160405161051c9190611e28565b908152602001604051809103902060000160009054906101000a900473ffffffffffffffffffffffffffffffffffffffff1673ffffffffffffffffffffffffffffffffffffffff166003856040516105749190611e28565b908152602001604051809103902060000160009054906101000a900473ffffffffffffffffffffffffffffffffffffffff1673ffffffffffffffffffffffffffffffffffffffff1614610772576001151560048483815181106105da576105d96120fb565b5b60200260200101516040516105ef9190611e28565b908152602001604051809103902060009054906101000a900460ff1615151461064d576040517f08c379a000000000000000000000000000000000000000000000000000000000815260040161064490612176565b60405180910390fd5b600060648361065c91906121c5565b9050806001600082825461067091906121f6565b92505081905550826003866040516106889190611e28565b908152602001604051809103902060020160008282546106a8919061224c565b9250508190555080836106bb919061224c565b60038584815181106106d0576106cf6120fb565b5b60200260200101516040516106e59190611e28565b9081526020016040518091039020600201600082825461070591906121f6565b925050819055507f370044a47246afacf081fd58c8468a6482ebc8673d418e785b8d0492240f95de85858481518110610741576107406120fb565b5b60200260200101518386610755919061224c565b604051610764939291906122b9565b60405180910390a150610852565b816003856040516107839190611e28565b908152602001604051809103902060020160008282546107a3919061224c565b925050819055508160038483815181106107c0576107bf6120fb565b5b60200260200101516040516107d59190611e28565b908152602001604051809103902060020160008282546107f591906121f6565b925050819055507f370044a47246afacf081fd58c8468a6482ebc8673d418e785b8d0492240f95de84848381518110610831576108306120fb565b5b602002602001015184604051610849939291906122b9565b60405180910390a15b808061085d906122fe565b91505061045d565b50505050565b6000151560048260405161087f9190611e28565b908152602001604051809103902060009054906101000a900460ff161515146108dd576040517f08c379a00000000000000000000000000000000000000000000000000000000081526004016108d490612392565b60405180910390fd5b60405180606001604052803373ffffffffffffffffffffffffffffffffffffffff168152602001828152602001600081525060038260405161091f9190611e28565b908152602001604051809103902060008201518160000160006101000a81548173ffffffffffffffffffffffffffffffffffffffff021916908373ffffffffffffffffffffffffffffffffffffffff160217905550602082015181600101908161098991906125be565b5060408201518160020155905050600260003373ffffffffffffffffffffffffffffffffffffffff1673ffffffffffffffffffffffffffffffffffffffff16815260200190815260200160002081908060018154018082558091505060019003906000526020600020016000909190919091509081610a0891906125be565b506001600482604051610a1b9190611e28565b908152602001604051809103902060006101000a81548160ff0219169083151502179055507fb4833c10b628b390dd18880f97a54f11eae38c84eb68171f9a11b0fd7855fadf3382604051610a71929190612690565b60405180910390a150565b60011515600483604051610a909190611e28565b908152602001604051809103902060009054906101000a900460ff16151514610aee576040517f08c379a0000000000000000000000000000000000000000000000000000000008152600401610ae59061270c565b60405180910390fd5b3373ffffffffffffffffffffffffffffffffffffffff16600383604051610b159190611e28565b908152602001604051809103902060000160009054906101000a900473ffffffffffffffffffffffffffffffffffffffff1673ffffffffffffffffffffffffffffffffffffffff1614610b9d576040517f08c379a0000000000000000000000000000000000000000000000000000000008152600401610b9490612778565b60405180910390fd5b60008111610be0576040517f08c379a0000000000000000000000000000000000000000000000000000000008152600401610bd7906127e4565b60405180910390fd5b80600383604051610bf19190611e28565b9081526020016040518091039020600201541015610c44576040517f08c379a0000000000000000000000000000000000000000000000000000000008152600401610c3b90612876565b60405180910390fd5b80600383604051610c559190611e28565b90815260200160405180910390206002016000828254610c75919061224c565b925050819055503373ffffffffffffffffffffffffffffffffffffffff166108fc829081150290604051600060405180830381858888f19350505050158015610cc2573d6000803e3d6000fd5b507ef571bb39287f8941696401f5b5a1666ee251efbf23412140fbddce841655d9823383604051610cf593929190612896565b60405180910390a15050565b60011515600484604051610d159190611e28565b908152602001604051809103902060009054906101000a900460ff16151514610d73576040517f08c379a0000000000000000000000000000000000000000000000000000000008152600401610d6a90611ec2565b60405180910390fd5b60011515600483604051610d879190611e28565b908152602001604051809103902060009054906101000a900460ff16151514610de5576040517f08c379a0000000000000000000000000000000000000000000000000000000008152600401610ddc90612176565b60405180910390fd5b3373ffffffffffffffffffffffffffffffffffffffff16600384604051610e0c9190611e28565b908152602001604051809103902060000160009054906101000a900473ffffffffffffffffffffffffffffffffffffffff1673ffffffffffffffffffffffffffffffffffffffff1614610e94576040517f08c379a0000000000000000000000000000000000000000000000000000000008152600401610e8b90611f2e565b60405180910390fd5b6064811015610ed8576040517f08c379a0000000000000000000000000000000000000000000000000000000008152600401610ecf90611fc0565b60405180910390fd5b80600384604051610ee99190611e28565b9081526020016040518091039020600201541015610f3c576040517f08c379a0000000000000000000000000000000000000000000000000000000008152600401610f33906120db565b60405180910390fd5b600382604051610f4c9190611e28565b908152602001604051809103902060000160009054906101000a900473ffffffffffffffffffffffffffffffffffffffff1673ffffffffffffffffffffffffffffffffffffffff16600384604051610fa49190611e28565b908152602001604051809103902060000160009054906101000a900473ffffffffffffffffffffffffffffffffffffffff1673ffffffffffffffffffffffffffffffffffffffff16146110e257600060648261100091906121c5565b9050806001600082825461101491906121f6565b925050819055508160038560405161102c9190611e28565b9081526020016040518091039020600201600082825461104c919061224c565b92505081905550808261105f919061224c565b60038460405161106f9190611e28565b9081526020016040518091039020600201600082825461108f91906121f6565b925050819055507f370044a47246afacf081fd58c8468a6482ebc8673d418e785b8d0492240f95de848483856110c5919061224c565b6040516110d4939291906122b9565b60405180910390a15061118e565b806003846040516110f39190611e28565b90815260200160405180910390206002016000828254611113919061224c565b925050819055508060038360405161112b9190611e28565b9081526020016040518091039020600201600082825461114b91906121f6565b925050819055507f370044a47246afacf081fd58c8468a6482ebc8673d418e785b8d0492240f95de838383604051611185939291906122b9565b60405180910390a15b505050565b6000600154905090565b600115156004826040516111b19190611e28565b908152602001604051809103902060009054906101000a900460ff1615151461120f576040517f08c379a000000000000000000000000000000000000000000000000000000000815260040161120690612920565b60405180910390fd5b60003411611252576040517f08c379a00000000000000000000000000000000000000000000000000000000081526004016112499061298c565b60405180910390fd5b346003826040516112639190611e28565b9081526020016040518091039020600201600082825461128391906121f6565b925050819055507f03e0b25ba1ab101c1d9112766101bb987f00f29a37a44b4a0813ed489a4f3ffa3382346040516112bd939291906129ac565b60405180910390a150565b6060600260003373ffffffffffffffffffffffffffffffffffffffff1673ffffffffffffffffffffffffffffffffffffffff168152602001908152602001600020805480602002602001604051908101604052809291908181526020016000905b828210156113d5578382906000526020600020018054611348906123e1565b80601f0160208091040260200160405190810160405280929190818152602001828054611374906123e1565b80156113c15780601f10611396576101008083540402835291602001916113c1565b820191906000526020600020905b8154815290600101906020018083116113a457829003601f168201915b505050505081526020019060010190611329565b50505050905090565b60008060009054906101000a900473ffffffffffffffffffffffffffffffffffffffff16905090565b60006003826040516114199190611e28565b9081526020016040518091039020600201549050919050565b61143a6116d5565b60038260405161144a9190611e28565b90815260200160405180910390206040518060600160405290816000820160009054906101000a900473ffffffffffffffffffffffffffffffffffffffff1673ffffffffffffffffffffffffffffffffffffffff1673ffffffffffffffffffffffffffffffffffffffff1681526020016001820180546114c9906123e1565b80601f01602080910402602001604051908101604052809291908181526020018280546114f5906123e1565b80156115425780601f1061151757610100808354040283529160200191611542565b820191906000526020600020905b81548152906001019060200180831161152557829003601f168201915b505050505081526020016002820154815250509050919050565b3373ffffffffffffffffffffffffffffffffffffffff1660008054906101000a900473ffffffffffffffffffffffffffffffffffffffff1673ffffffffffffffffffffffffffffffffffffffff16146115ea576040517f08c379a00000000000000000000000000000000000000000000000000000000081526004016115e190612778565b60405180910390fd5b6000811161162d576040517f08c379a0000000000000000000000000000000000000000000000000000000008152600401611624906127e4565b60405180910390fd5b806001541015611672576040517f08c379a000000000000000000000000000000000000000000000000000000000815260040161166990612876565b60405180910390fd5b8060016000828254611684919061224c565b925050819055503373ffffffffffffffffffffffffffffffffffffffff166108fc829081150290604051600060405180830381858888f193505050501580156116d1573d6000803e3d6000fd5b5050565b6040518060600160405280600073ffffffffffffffffffffffffffffffffffffffff16815260200160608152602001600081525090565b6000604051905090565b600080fd5b600080fd5b600080fd5b600080fd5b6000601f19601f8301169050919050565b7f4e487b7100000000000000000000000000000000000000000000000000000000600052604160045260246000fd5b6117738261172a565b810181811067ffffffffffffffff821117156117925761179161173b565b5b80604052505050565b60006117a561170c565b90506117b1828261176a565b919050565b600067ffffffffffffffff8211156117d1576117d061173b565b5b6117da8261172a565b9050602081019050919050565b82818337600083830152505050565b6000611809611804846117b6565b61179b565b90508281526020810184848401111561182557611824611725565b5b6118308482856117e7565b509392505050565b600082601f83011261184d5761184c611720565b5b813561185d8482602086016117f6565b91505092915050565b600067ffffffffffffffff8211156118815761188061173b565b5b602082029050602081019050919050565b600080fd5b60006118aa6118a584611866565b61179b565b905080838252602082019050602084028301858111156118cd576118cc611892565b5b835b8181101561191457803567ffffffffffffffff8111156118f2576118f1611720565b5b8086016118ff8982611838565b855260208501945050506020810190506118cf565b5050509392505050565b600082601f83011261193357611932611720565b5b8135611943848260208601611897565b91505092915050565b6000819050919050565b61195f8161194c565b811461196a57600080fd5b50565b60008135905061197c81611956565b92915050565b60008060006060848603121561199b5761199a611716565b5b600084013567ffffffffffffffff8111156119b9576119b861171b565b5b6119c586828701611838565b935050602084013567ffffffffffffffff8111156119e6576119e561171b565b5b6119f28682870161191e565b9250506040611a038682870161196d565b9150509250925092565b600060208284031215611a2357611a22611716565b5b600082013567ffffffffffffffff811115611a4157611a4061171b565b5b611a4d84828501611838565b91505092915050565b60008060408385031215611a6d57611a6c611716565b5b600083013567ffffffffffffffff811115611a8b57611a8a61171b565b5b611a9785828601611838565b9250506020611aa88582860161196d565b9150509250929050565b600080600060608486031215611acb57611aca611716565b5b600084013567ffffffffffffffff811115611ae957611ae861171b565b5b611af586828701611838565b935050602084013567ffffffffffffffff811115611b1657611b1561171b565b5b611b2286828701611838565b9250506040611b338682870161196d565b9150509250925092565b611b468161194c565b82525050565b6000602082019050611b616000830184611b3d565b92915050565b600081519050919050565b600082825260208201905092915050565b6000819050602082019050919050565b600081519050919050565b600082825260208201905092915050565b60005b83811015611bcd578082015181840152602081019050611bb2565b83811115611bdc576000848401525b50505050565b6000611bed82611b93565b611bf78185611b9e565b9350611c07818560208601611baf565b611c108161172a565b840191505092915050565b6000611c278383611be2565b905092915050565b6000602082019050919050565b6000611c4782611b67565b611c518185611b72565b935083602082028501611c6385611b83565b8060005b85811015611c9f5784840389528151611c808582611c1b565b9450611c8b83611c2f565b925060208a01995050600181019050611c67565b50829750879550505050505092915050565b60006020820190508181036000830152611ccb8184611c3c565b905092915050565b600073ffffffffffffffffffffffffffffffffffffffff82169050919050565b6000611cfe82611cd3565b9050919050565b611d0e81611cf3565b82525050565b6000602082019050611d296000830184611d05565b92915050565b611d3881611cf3565b82525050565b611d478161194c565b82525050565b6000606083016000830151611d656000860182611d2f565b5060208301518482036020860152611d7d8282611be2565b9150506040830151611d926040860182611d3e565b508091505092915050565b60006020820190508181036000830152611db78184611d4d565b905092915050565b600060208284031215611dd557611dd4611716565b5b6000611de38482850161196d565b91505092915050565b600081905092915050565b6000611e0282611b93565b611e0c8185611dec565b9350611e1c818560208601611baf565b80840191505092915050565b6000611e348284611df7565b915081905092915050565b600082825260208201905092915050565b7f7472616e736665725f6661696c5f66726f6d5f6e616d655f6e6f745f6578697360008201527f7400000000000000000000000000000000000000000000000000000000000000602082015250565b6000611eac602183611e3f565b9150611eb782611e50565b604082019050919050565b60006020820190508181036000830152611edb81611e9f565b9050919050565b7f7472616e736665725f6661696c5f66726f6d5f6e6f745f6f776e657200000000600082015250565b6000611f18601c83611e3f565b9150611f2382611ee2565b602082019050919050565b60006020820190508181036000830152611f4781611f0b565b9050919050565b7f7472616e736665725f6661696c5f76616c75655f6c6573735f7468616e5f313060008201527f3000000000000000000000000000000000000000000000000000000000000000602082015250565b6000611faa602183611e3f565b9150611fb582611f4e565b604082019050919050565b60006020820190508181036000830152611fd981611f9d565b9050919050565b7f4e487b7100000000000000000000000000000000000000000000000000000000600052601160045260246000fd5b600061201a8261194c565b91506120258361194c565b9250817fffffffffffffffffffffffffffffffffffffffffffffffffffffffffffffffff048311821515161561205e5761205d611fe0565b5b828202905092915050565b7f7472616e736665725f6661696c5f66726f6d5f62616c616e63655f6e6f745f6560008201527f6e6f756768000000000000000000000000000000000000000000000000000000602082015250565b60006120c5602583611e3f565b91506120d082612069565b604082019050919050565b600060208201905081810360008301526120f4816120b8565b9050919050565b7f4e487b7100000000000000000000000000000000000000000000000000000000600052603260045260246000fd5b7f7472616e736665725f6661696c5f746f5f6e616d655f6e6f745f657869737400600082015250565b6000612160601f83611e3f565b915061216b8261212a565b602082019050919050565b6000602082019050818103600083015261218f81612153565b9050919050565b7f4e487b7100000000000000000000000000000000000000000000000000000000600052601260045260246000fd5b60006121d08261194c565b91506121db8361194c565b9250826121eb576121ea612196565b5b828204905092915050565b60006122018261194c565b915061220c8361194c565b9250827fffffffffffffffffffffffffffffffffffffffffffffffffffffffffffffffff0382111561224157612240611fe0565b5b828201905092915050565b60006122578261194c565b91506122628361194c565b92508282101561227557612274611fe0565b5b828203905092915050565b600061228b82611b93565b6122958185611e3f565b93506122a5818560208601611baf565b6122ae8161172a565b840191505092915050565b600060608201905081810360008301526122d38186612280565b905081810360208301526122e78185612280565b90506122f66040830184611b3d565b949350505050565b60006123098261194c565b91507fffffffffffffffffffffffffffffffffffffffffffffffffffffffffffffffff820361233b5761233a611fe0565b5b600182019050919050565b7f6164645f6163636f756e745f6661696c5f6e616d655f65786973740000000000600082015250565b600061237c601b83611e3f565b915061238782612346565b602082019050919050565b600060208201905081810360008301526123ab8161236f565b9050919050565b7f4e487b7100000000000000000000000000000000000000000000000000000000600052602260045260246000fd5b600060028204905060018216806123f957607f821691505b60208210810361240c5761240b6123b2565b5b50919050565b60008190508160005260206000209050919050565b60006020601f8301049050919050565b600082821b905092915050565b6000600883026124747fffffffffffffffffffffffffffffffffffffffffffffffffffffffffffffffff82612437565b61247e8683612437565b95508019841693508086168417925050509392505050565b6000819050919050565b60006124bb6124b66124b18461194c565b612496565b61194c565b9050919050565b6000819050919050565b6124d5836124a0565b6124e96124e1826124c2565b848454612444565b825550505050565b600090565b6124fe6124f1565b6125098184846124cc565b505050565b5b8181101561252d576125226000826124f6565b60018101905061250f565b5050565b601f8211156125725761254381612412565b61254c84612427565b8101602085101561255b578190505b61256f61256785612427565b83018261250e565b50505b505050565b600082821c905092915050565b600061259560001984600802612577565b1980831691505092915050565b60006125ae8383612584565b9150826002028217905092915050565b6125c782611b93565b67ffffffffffffffff8111156125e0576125df61173b565b5b6125ea82546123e1565b6125f5828285612531565b600060209050601f8311600181146126285760008415612616578287015190505b61262085826125a2565b865550612688565b601f19841661263686612412565b60005b8281101561265e57848901518255600182019150602085019450602081019050612639565b8683101561267b5784890151612677601f891682612584565b8355505b6001600288020188555050505b505050505050565b60006040820190506126a56000830185611d05565b81810360208301526126b78184612280565b90509392505050565b7f77697468647261776e5f6661696c5f6e616d655f6e6f745f6578697374000000600082015250565b60006126f6601d83611e3f565b9150612701826126c0565b602082019050919050565b60006020820190508181036000830152612725816126e9565b9050919050565b7f77697468647261776e5f6661696c5f6e6f745f6f776e65720000000000000000600082015250565b6000612762601883611e3f565b915061276d8261272c565b602082019050919050565b6000602082019050818103600083015261279181612755565b9050919050565b7f77697468647261776e5f6661696c5f76616c75655f7a65726f00000000000000600082015250565b60006127ce601983611e3f565b91506127d982612798565b602082019050919050565b600060208201905081810360008301526127fd816127c1565b9050919050565b7f77697468647261776e5f6661696c5f62616c616e63655f6e6f745f656e6f756760008201527f6800000000000000000000000000000000000000000000000000000000000000602082015250565b6000612860602183611e3f565b915061286b82612804565b604082019050919050565b6000602082019050818103600083015261288f81612853565b9050919050565b600060608201905081810360008301526128b08186612280565b90506128bf6020830185611d05565b6128cc6040830184611b3d565b949350505050565b7f6465706f7369745f6661696c5f6e616d655f6e6f745f65786973740000000000600082015250565b600061290a601b83611e3f565b9150612915826128d4565b602082019050919050565b60006020820190508181036000830152612939816128fd565b9050919050565b7f6465706f7369745f6661696c5f76616c75655f7a65726f000000000000000000600082015250565b6000612976601783611e3f565b915061298182612940565b602082019050919050565b600060208201905081810360008301526129a581612969565b9050919050565b60006060820190506129c16000830186611d05565b81810360208301526129d38185612280565b90506129e26040830184611b3d565b94935050505056fea264697066735822122062979c961e33e47d2bcc47e2885bbc12b61ef274a95671b935cf40c0ed80fd1e64736f6c634300080f0033",
					"opcodes": "PUSH1 0x80 PUSH1 0x40 MSTORE CALLVALUE DUP1 ISZERO PUSH2 0x10 JUMPI PUSH1 0x0 DUP1 REVERT JUMPDEST POP CALLER PUSH1 0x0 DUP1 PUSH2 0x100 EXP DUP2 SLOAD DUP2 PUSH20 0xFFFFFFFFFFFFFFFFFFFFFFFFFFFFFFFFFFFFFFFF MUL NOT AND SWAP1 DUP4 PUSH20 0xFFFFFFFFFFFFFFFFFFFFFFFFFFFFFFFFFFFFFFFF AND MUL OR SWAP1 SSTORE POP PUSH1 0x0 PUSH1 0x1 DUP2 SWAP1 SSTORE POP PUSH2 0x2A20 DUP1 PUSH2 0x68 PUSH1 0x0 CODECOPY PUSH1 0x0 RETURN INVALID PUSH1 0x80 PUSH1 0x40 MSTORE PUSH1 0x4 CALLDATASIZE LT PUSH2 0x9C JUMPI PUSH1 0x0 CALLDATALOAD PUSH1 0xE0 SHR DUP1 PUSH4 0xA26E1186 GT PUSH2 0x64 JUMPI DUP1 PUSH4 0xA26E1186 EQ PUSH2 0x170 JUMPI DUP1 PUSH4 0xA43E567A EQ PUSH2 0x18C JUMPI DUP1 PUSH4 0xB2277D2C EQ PUSH2 0x1B7 JUMPI DUP1 PUSH4 0xCA1AE01C EQ PUSH2 0x1E2 JUMPI DUP1 PUSH4 0xDF4734ED EQ PUSH2 0x21F JUMPI DUP1 PUSH4 0xF8A0E8C3 EQ PUSH2 0x25C JUMPI PUSH2 0x9C JUMP JUMPDEST DUP1 PUSH4 0x16DFC5B2 EQ PUSH2 0xA1 JUMPI DUP1 PUSH4 0x2AD26A04 EQ PUSH2 0xCA JUMPI DUP1 PUSH4 0x358EECB6 EQ PUSH2 0xF3 JUMPI DUP1 PUSH4 0x5E345810 EQ PUSH2 0x11C JUMPI DUP1 PUSH4 0x7B83B50B EQ PUSH2 0x145 JUMPI JUMPDEST PUSH1 0x0 DUP1 REVERT JUMPDEST CALLVALUE DUP1 ISZERO PUSH2 0xAD JUMPI PUSH1 0x0 DUP1 REVERT JUMPDEST POP PUSH2 0xC8 PUSH1 0x4 DUP1 CALLDATASIZE SUB DUP2 ADD SWAP1 PUSH2 0xC3 SWAP2 SWAP1 PUSH2 0x1982 JUMP JUMPDEST PUSH2 0x285 JUMP JUMPDEST STOP JUMPDEST CALLVALUE DUP1 ISZERO PUSH2 0xD6 JUMPI PUSH1 0x0 DUP1 REVERT JUMPDEST POP PUSH2 0xF1 PUSH1 0x4 DUP1 CALLDATASIZE SUB DUP2 ADD SWAP1 PUSH2 0xEC SWAP2 SWAP1 PUSH2 0x1A0D JUMP JUMPDEST PUSH2 0x86B JUMP JUMPDEST STOP JUMPDEST CALLVALUE DUP1 ISZERO PUSH2 0xFF JUMPI PUSH1 0x0 DUP1 REVERT JUMPDEST POP PUSH2 0x11A PUSH1 0x4 DUP1 CALLDATASIZE SUB DUP2 ADD SWAP1 PUSH2 0x115 SWAP2 SWAP1 PUSH2 0x1A56 JUMP JUMPDEST PUSH2 0xA7C JUMP JUMPDEST STOP JUMPDEST CALLVALUE DUP1 ISZERO PUSH2 0x128 JUMPI PUSH1 0x0 DUP1 REVERT JUMPDEST POP PUSH2 0x143 PUSH1 0x4 DUP1 CALLDATASIZE SUB DUP2 ADD SWAP1 PUSH2 0x13E SWAP2 SWAP1 PUSH2 0x1AB2 JUMP JUMPDEST PUSH2 0xD01 JUMP JUMPDEST STOP JUMPDEST CALLVALUE DUP1 ISZERO PUSH2 0x151 JUMPI PUSH1 0x0 DUP1 REVERT JUMPDEST POP PUSH2 0x15A PUSH2 0x1193 JUMP JUMPDEST PUSH1 0x40 MLOAD PUSH2 0x167 SWAP2 SWAP1 PUSH2 0x1B4C JUMP JUMPDEST PUSH1 0x40 MLOAD DUP1 SWAP2 SUB SWAP1 RETURN JUMPDEST PUSH2 0x18A PUSH1 0x4 DUP1 CALLDATASIZE SUB DUP2 ADD SWAP1 PUSH2 0x185 SWAP2 SWAP1 PUSH2 0x1A0D JUMP JUMPDEST PUSH2 0x119D JUMP JUMPDEST STOP JUMPDEST CALLVALUE DUP1 ISZERO PUSH2 0x198 JUMPI PUSH1 0x0 DUP1 REVERT JUMPDEST POP PUSH2 0x1A1 PUSH2 0x12C8 JUMP JUMPDEST PUSH1 0x40 MLOAD PUSH2 0x1AE SWAP2 SWAP1 PUSH2 0x1CB1 JUMP JUMPDEST PUSH1 0x40 MLOAD DUP1 SWAP2 SUB SWAP1 RETURN JUMPDEST CALLVALUE DUP1 ISZERO PUSH2 0x1C3 JUMPI PUSH1 0x0 DUP1 REVERT JUMPDEST POP PUSH2 0x1CC PUSH2 0x13DE JUMP JUMPDEST PUSH1 0x40 MLOAD PUSH2 0x1D9 SWAP2 SWAP1 PUSH2 0x1D14 JUMP JUMPDEST PUSH1 0x40 MLOAD DUP1 SWAP2 SUB SWAP1 RETURN JUMPDEST CALLVALUE DUP1 ISZERO PUSH2 0x1EE JUMPI PUSH1 0x0 DUP1 REVERT JUMPDEST POP PUSH2 0x209 PUSH1 0x4 DUP1 CALLDATASIZE SUB DUP2 ADD SWAP1 PUSH2 0x204 SWAP2 SWAP1 PUSH2 0x1A0D JUMP JUMPDEST PUSH2 0x1407 JUMP JUMPDEST PUSH1 0x40 MLOAD PUSH2 0x216 SWAP2 SWAP1 PUSH2 0x1B4C JUMP JUMPDEST PUSH1 0x40 MLOAD DUP1 SWAP2 SUB SWAP1 RETURN JUMPDEST CALLVALUE DUP1 ISZERO PUSH2 0x22B JUMPI PUSH1 0x0 DUP1 REVERT JUMPDEST POP PUSH2 0x246 PUSH1 0x4 DUP1 CALLDATASIZE SUB DUP2 ADD SWAP1 PUSH2 0x241 SWAP2 SWAP1 PUSH2 0x1A0D JUMP JUMPDEST PUSH2 0x1432 JUMP JUMPDEST PUSH1 0x40 MLOAD PUSH2 0x253 SWAP2 SWAP1 PUSH2 0x1D9D JUMP JUMPDEST PUSH1 0x40 MLOAD DUP1 SWAP2 SUB SWAP1 RETURN JUMPDEST CALLVALUE DUP1 ISZERO PUSH2 0x268 JUMPI PUSH1 0x0 DUP1 REVERT JUMPDEST POP PUSH2 0x283 PUSH1 0x4 DUP1 CALLDATASIZE SUB DUP2 ADD SWAP1 PUSH2 0x27E SWAP2 SWAP1 PUSH2 0x1DBF JUMP JUMPDEST PUSH2 0x155C JUMP JUMPDEST STOP JUMPDEST PUSH1 0x1 ISZERO ISZERO PUSH1 0x4 DUP5 PUSH1 0x40 MLOAD PUSH2 0x299 SWAP2 SWAP1 PUSH2 0x1E28 JUMP JUMPDEST SWAP1 DUP2 MSTORE PUSH1 0x20 ADD PUSH1 0x40 MLOAD DUP1 SWAP2 SUB SWAP1 KECCAK256 PUSH1 0x0 SWAP1 SLOAD SWAP1 PUSH2 0x100 EXP SWAP1 DIV PUSH1 0xFF AND ISZERO ISZERO EQ PUSH2 0x2F7 JUMPI PUSH1 0x40 MLOAD PUSH32 0x8C379A000000000000000000000000000000000000000000000000000000000 DUP2 MSTORE PUSH1 0x4 ADD PUSH2 0x2EE SWAP1 PUSH2 0x1EC2 JUMP JUMPDEST PUSH1 0x40 MLOAD DUP1 SWAP2 SUB SWAP1 REVERT JUMPDEST CALLER PUSH20 0xFFFFFFFFFFFFFFFFFFFFFFFFFFFFFFFFFFFFFFFF AND PUSH1 0x3 DUP5 PUSH1 0x40 MLOAD PUSH2 0x31E SWAP2 SWAP1 PUSH2 0x1E28 JUMP JUMPDEST SWAP1 DUP2 MSTORE PUSH1 0x20 ADD PUSH1 0x40 MLOAD DUP1 SWAP2 SUB SWAP1 KECCAK256 PUSH1 0x0 ADD PUSH1 0x0 SWAP1 SLOAD SWAP1 PUSH2 0x100 EXP SWAP1 DIV PUSH20 0xFFFFFFFFFFFFFFFFFFFFFFFFFFFFFFFFFFFFFFFF AND PUSH20 0xFFFFFFFFFFFFFFFFFFFFFFFFFFFFFFFFFFFFFFFF AND EQ PUSH2 0x3A6 JUMPI PUSH1 0x40 MLOAD PUSH32 0x8C379A000000000000000000000000000000000000000000000000000000000 DUP2 MSTORE PUSH1 0x4 ADD PUSH2 0x39D SWAP1 PUSH2 0x1F2E JUMP JUMPDEST PUSH1 0x40 MLOAD DUP1 SWAP2 SUB SWAP1 REVERT JUMPDEST PUSH1 0x64 DUP2 LT ISZERO PUSH2 0x3EA JUMPI PUSH1 0x40 MLOAD PUSH32 0x8C379A000000000000000000000000000000000000000000000000000000000 DUP2 MSTORE PUSH1 0x4 ADD PUSH2 0x3E1 SWAP1 PUSH2 0x1FC0 JUMP JUMPDEST PUSH1 0x40 MLOAD DUP1 SWAP2 SUB SWAP1 REVERT JUMPDEST DUP2 MLOAD DUP2 PUSH2 0x3F7 SWAP2 SWAP1 PUSH2 0x200F JUMP JUMPDEST PUSH1 0x3 DUP5 PUSH1 0x40 MLOAD PUSH2 0x407 SWAP2 SWAP1 PUSH2 0x1E28 JUMP JUMPDEST SWAP1 DUP2 MSTORE PUSH1 0x20 ADD PUSH1 0x40 MLOAD DUP1 SWAP2 SUB SWAP1 KECCAK256 PUSH1 0x2 ADD SLOAD LT ISZERO PUSH2 0x45A JUMPI PUSH1 0x40 MLOAD PUSH32 0x8C379A000000000000000000000000000000000000000000000000000000000 DUP2 MSTORE PUSH1 0x4 ADD PUSH2 0x451 SWAP1 PUSH2 0x20DB JUMP JUMPDEST PUSH1 0x40 MLOAD DUP1 SWAP2 SUB SWAP1 REVERT JUMPDEST PUSH1 0x0 JUMPDEST DUP3 MLOAD DUP2 LT ISZERO PUSH2 0x865 JUMPI PUSH1 0x1 ISZERO ISZERO PUSH1 0x4 DUP5 DUP4 DUP2 MLOAD DUP2 LT PUSH2 0x47F JUMPI PUSH2 0x47E PUSH2 0x20FB JUMP JUMPDEST JUMPDEST PUSH1 0x20 MUL PUSH1 0x20 ADD ADD MLOAD PUSH1 0x40 MLOAD PUSH2 0x494 SWAP2 SWAP1 PUSH2 0x1E28 JUMP JUMPDEST SWAP1 DUP2 MSTORE PUSH1 0x20 ADD PUSH1 0x40 MLOAD DUP1 SWAP2 SUB SWAP1 KECCAK256 PUSH1 0x0 SWAP1 SLOAD SWAP1 PUSH2 0x100 EXP SWAP1 DIV PUSH1 0xFF AND ISZERO ISZERO EQ PUSH2 0x4F2 JUMPI PUSH1 0x40 MLOAD PUSH32 0x8C379A000000000000000000000000000000000000000000000000000000000 DUP2 MSTORE PUSH1 0x4 ADD PUSH2 0x4E9 SWAP1 PUSH2 0x2176 JUMP JUMPDEST PUSH1 0x40 MLOAD DUP1 SWAP2 SUB SWAP1 REVERT JUMPDEST PUSH1 0x3 DUP4 DUP3 DUP2 MLOAD DUP2 LT PUSH2 0x507 JUMPI PUSH2 0x506 PUSH2 0x20FB JUMP JUMPDEST JUMPDEST PUSH1 0x20 MUL PUSH1 0x20 ADD ADD MLOAD PUSH1 0x40 MLOAD PUSH2 0x51C SWAP2 SWAP1 PUSH2 0x1E28 JUMP JUMPDEST SWAP1 DUP2 MSTORE PUSH1 0x20 ADD PUSH1 0x40 MLOAD DUP1 SWAP2 SUB SWAP1 KECCAK256 PUSH1 0x0 ADD PUSH1 0x0 SWAP1 SLOAD SWAP1 PUSH2 0x100 EXP SWAP1 DIV PUSH20 0xFFFFFFFFFFFFFFFFFFFFFFFFFFFFFFFFFFFFFFFF AND PUSH20 0xFFFFFFFFFFFFFFFFFFFFFFFFFFFFFFFFFFFFFFFF AND PUSH1 0x3 DUP6 PUSH1 0x40 MLOAD PUSH2 0x574 SWAP2 SWAP1 PUSH2 0x1E28 JUMP JUMPDEST SWAP1 DUP2 MSTORE PUSH1 0x20 ADD PUSH1 0x40 MLOAD DUP1 SWAP2 SUB SWAP1 KECCAK256 PUSH1 0x0 ADD PUSH1 0x0 SWAP1 SLOAD SWAP1 PUSH2 0x100 EXP SWAP1 DIV PUSH20 0xFFFFFFFFFFFFFFFFFFFFFFFFFFFFFFFFFFFFFFFF AND PUSH20 0xFFFFFFFFFFFFFFFFFFFFFFFFFFFFFFFFFFFFFFFF AND EQ PUSH2 0x772 JUMPI PUSH1 0x1 ISZERO ISZERO PUSH1 0x4 DUP5 DUP4 DUP2 MLOAD DUP2 LT PUSH2 0x5DA JUMPI PUSH2 0x5D9 PUSH2 0x20FB JUMP JUMPDEST JUMPDEST PUSH1 0x20 MUL PUSH1 0x20 ADD ADD MLOAD PUSH1 0x40 MLOAD PUSH2 0x5EF SWAP2 SWAP1 PUSH2 0x1E28 JUMP JUMPDEST SWAP1 DUP2 MSTORE PUSH1 0x20 ADD PUSH1 0x40 MLOAD DUP1 SWAP2 SUB SWAP1 KECCAK256 PUSH1 0x0 SWAP1 SLOAD SWAP1 PUSH2 0x100 EXP SWAP1 DIV PUSH1 0xFF AND ISZERO ISZERO EQ PUSH2 0x64D JUMPI PUSH1 0x40 MLOAD PUSH32 0x8C379A000000000000000000000000000000000000000000000000000000000 DUP2 MSTORE PUSH1 0x4 ADD PUSH2 0x644 SWAP1 PUSH2 0x2176 JUMP JUMPDEST PUSH1 0x40 MLOAD DUP1 SWAP2 SUB SWAP1 REVERT JUMPDEST PUSH1 0x0 PUSH1 0x64 DUP4 PUSH2 0x65C SWAP2 SWAP1 PUSH2 0x21C5 JUMP JUMPDEST SWAP1 POP DUP1 PUSH1 0x1 PUSH1 0x0 DUP3 DUP3 SLOAD PUSH2 0x670 SWAP2 SWAP1 PUSH2 0x21F6 JUMP JUMPDEST SWAP3 POP POP DUP2 SWAP1 SSTORE POP DUP3 PUSH1 0x3 DUP7 PUSH1 0x40 MLOAD PUSH2 0x688 SWAP2 SWAP1 PUSH2 0x1E28 JUMP JUMPDEST SWAP1 DUP2 MSTORE PUSH1 0x20 ADD PUSH1 0x40 MLOAD DUP1 SWAP2 SUB SWAP1 KECCAK256 PUSH1 0x2 ADD PUSH1 0x0 DUP3 DUP3 SLOAD PUSH2 0x6A8 SWAP2 SWAP1 PUSH2 0x224C JUMP JUMPDEST SWAP3 POP POP DUP2 SWAP1 SSTORE POP DUP1 DUP4 PUSH2 0x6BB SWAP2 SWAP1 PUSH2 0x224C JUMP JUMPDEST PUSH1 0x3 DUP6 DUP5 DUP2 MLOAD DUP2 LT PUSH2 0x6D0 JUMPI PUSH2 0x6CF PUSH2 0x20FB JUMP JUMPDEST JUMPDEST PUSH1 0x20 MUL PUSH1 0x20 ADD ADD MLOAD PUSH1 0x40 MLOAD PUSH2 0x6E5 SWAP2 SWAP1 PUSH2 0x1E28 JUMP JUMPDEST SWAP1 DUP2 MSTORE PUSH1 0x20 ADD PUSH1 0x40 MLOAD DUP1 SWAP2 SUB SWAP1 KECCAK256 PUSH1 0x2 ADD PUSH1 0x0 DUP3 DUP3 SLOAD PUSH2 0x705 SWAP2 SWAP1 PUSH2 0x21F6 JUMP JUMPDEST SWAP3 POP POP DUP2 SWAP1 SSTORE POP PUSH32 0x370044A47246AFACF081FD58C8468A6482EBC8673D418E785B8D0492240F95DE DUP6 DUP6 DUP5 DUP2 MLOAD DUP2 LT PUSH2 0x741 JUMPI PUSH2 0x740 PUSH2 0x20FB JUMP JUMPDEST JUMPDEST PUSH1 0x20 MUL PUSH1 0x20 ADD ADD MLOAD DUP4 DUP7 PUSH2 0x755 SWAP2 SWAP1 PUSH2 0x224C JUMP JUMPDEST PUSH1 0x40 MLOAD PUSH2 0x764 SWAP4 SWAP3 SWAP2 SWAP1 PUSH2 0x22B9 JUMP JUMPDEST PUSH1 0x40 MLOAD DUP1 SWAP2 SUB SWAP1 LOG1 POP PUSH2 0x852 JUMP JUMPDEST DUP2 PUSH1 0x3 DUP6 PUSH1 0x40 MLOAD PUSH2 0x783 SWAP2 SWAP1 PUSH2 0x1E28 JUMP JUMPDEST SWAP1 DUP2 MSTORE PUSH1 0x20 ADD PUSH1 0x40 MLOAD DUP1 SWAP2 SUB SWAP1 KECCAK256 PUSH1 0x2 ADD PUSH1 0x0 DUP3 DUP3 SLOAD PUSH2 0x7A3 SWAP2 SWAP1 PUSH2 0x224C JUMP JUMPDEST SWAP3 POP POP DUP2 SWAP1 SSTORE POP DUP2 PUSH1 0x3 DUP5 DUP4 DUP2 MLOAD DUP2 LT PUSH2 0x7C0 JUMPI PUSH2 0x7BF PUSH2 0x20FB JUMP JUMPDEST JUMPDEST PUSH1 0x20 MUL PUSH1 0x20 ADD ADD MLOAD PUSH1 0x40 MLOAD PUSH2 0x7D5 SWAP2 SWAP1 PUSH2 0x1E28 JUMP JUMPDEST SWAP1 DUP2 MSTORE PUSH1 0x20 ADD PUSH1 0x40 MLOAD DUP1 SWAP2 SUB SWAP1 KECCAK256 PUSH1 0x2 ADD PUSH1 0x0 DUP3 DUP3 SLOAD PUSH2 0x7F5 SWAP2 SWAP1 PUSH2 0x21F6 JUMP JUMPDEST SWAP3 POP POP DUP2 SWAP1 SSTORE POP PUSH32 0x370044A47246AFACF081FD58C8468A6482EBC8673D418E785B8D0492240F95DE DUP5 DUP5 DUP4 DUP2 MLOAD DUP2 LT PUSH2 0x831 JUMPI PUSH2 0x830 PUSH2 0x20FB JUMP JUMPDEST JUMPDEST PUSH1 0x20 MUL PUSH1 0x20 ADD ADD MLOAD DUP5 PUSH1 0x40 MLOAD PUSH2 0x849 SWAP4 SWAP3 SWAP2 SWAP1 PUSH2 0x22B9 JUMP JUMPDEST PUSH1 0x40 MLOAD DUP1 SWAP2 SUB SWAP1 LOG1 JUMPDEST DUP1 DUP1 PUSH2 0x85D SWAP1 PUSH2 0x22FE JUMP JUMPDEST SWAP2 POP POP PUSH2 0x45D JUMP JUMPDEST POP POP POP POP JUMP JUMPDEST PUSH1 0x0 ISZERO ISZERO PUSH1 0x4 DUP3 PUSH1 0x40 MLOAD PUSH2 0x87F SWAP2 SWAP1 PUSH2 0x1E28 JUMP JUMPDEST SWAP1 DUP2 MSTORE PUSH1 0x20 ADD PUSH1 0x40 MLOAD DUP1 SWAP2 SUB SWAP1 KECCAK256 PUSH1 0x0 SWAP1 SLOAD SWAP1 PUSH2 0x100 EXP SWAP1 DIV PUSH1 0xFF AND ISZERO ISZERO EQ PUSH2 0x8DD JUMPI PUSH1 0x40 MLOAD PUSH32 0x8C379A000000000000000000000000000000000000000000000000000000000 DUP2 MSTORE PUSH1 0x4 ADD PUSH2 0x8D4 SWAP1 PUSH2 0x2392 JUMP JUMPDEST PUSH1 0x40 MLOAD DUP1 SWAP2 SUB SWAP1 REVERT JUMPDEST PUSH1 0x40 MLOAD DUP1 PUSH1 0x60 ADD PUSH1 0x40 MSTORE DUP1 CALLER PUSH20 0xFFFFFFFFFFFFFFFFFFFFFFFFFFFFFFFFFFFFFFFF AND DUP2 MSTORE PUSH1 0x20 ADD DUP3 DUP2 MSTORE PUSH1 0x20 ADD PUSH1 0x0 DUP2 MSTORE POP PUSH1 0x3 DUP3 PUSH1 0x40 MLOAD PUSH2 0x91F SWAP2 SWAP1 PUSH2 0x1E28 JUMP JUMPDEST SWAP1 DUP2 MSTORE PUSH1 0x20 ADD PUSH1 0x40 MLOAD DUP1 SWAP2 SUB SWAP1 KECCAK256 PUSH1 0x0 DUP3 ADD MLOAD DUP2 PUSH1 0x0 ADD PUSH1 0x0 PUSH2 0x100 EXP DUP2 SLOAD DUP2 PUSH20 0xFFFFFFFFFFFFFFFFFFFFFFFFFFFFFFFFFFFFFFFF MUL NOT AND SWAP1 DUP4 PUSH20 0xFFFFFFFFFFFFFFFFFFFFFFFFFFFFFFFFFFFFFFFF AND MUL OR SWAP1 SSTORE POP PUSH1 0x20 DUP3 ADD MLOAD DUP2 PUSH1 0x1 ADD SWAP1 DUP2 PUSH2 0x989 SWAP2 SWAP1 PUSH2 0x25BE JUMP JUMPDEST POP PUSH1 0x40 DUP3 ADD MLOAD DUP2 PUSH1 0x2 ADD SSTORE SWAP1 POP POP PUSH1 0x2 PUSH1 0x0 CALLER PUSH20 0xFFFFFFFFFFFFFFFFFFFFFFFFFFFFFFFFFFFFFFFF AND PUSH20 0xFFFFFFFFFFFFFFFFFFFFFFFFFFFFFFFFFFFFFFFF AND DUP2 MSTORE PUSH1 0x20 ADD SWAP1 DUP2 MSTORE PUSH1 0x20 ADD PUSH1 0x0 KECCAK256 DUP2 SWAP1 DUP1 PUSH1 0x1 DUP2 SLOAD ADD DUP1 DUP3 SSTORE DUP1 SWAP2 POP POP PUSH1 0x1 SWAP1 SUB SWAP1 PUSH1 0x0 MSTORE PUSH1 0x20 PUSH1 0x0 KECCAK256 ADD PUSH1 0x0 SWAP1 SWAP2 SWAP1 SWAP2 SWAP1 SWAP2 POP SWAP1 DUP2 PUSH2 0xA08 SWAP2 SWAP1 PUSH2 0x25BE JUMP JUMPDEST POP PUSH1 0x1 PUSH1 0x4 DUP3 PUSH1 0x40 MLOAD PUSH2 0xA1B SWAP2 SWAP1 PUSH2 0x1E28 JUMP JUMPDEST SWAP1 DUP2 MSTORE PUSH1 0x20 ADD PUSH1 0x40 MLOAD DUP1 SWAP2 SUB SWAP1 KECCAK256 PUSH1 0x0 PUSH2 0x100 EXP DUP2 SLOAD DUP2 PUSH1 0xFF MUL NOT AND SWAP1 DUP4 ISZERO ISZERO MUL OR SWAP1 SSTORE POP PUSH32 0xB4833C10B628B390DD18880F97A54F11EAE38C84EB68171F9A11B0FD7855FADF CALLER DUP3 PUSH1 0x40 MLOAD PUSH2 0xA71 SWAP3 SWAP2 SWAP1 PUSH2 0x2690 JUMP JUMPDEST PUSH1 0x40 MLOAD DUP1 SWAP2 SUB SWAP1 LOG1 POP JUMP JUMPDEST PUSH1 0x1 ISZERO ISZERO PUSH1 0x4 DUP4 PUSH1 0x40 MLOAD PUSH2 0xA90 SWAP2 SWAP1 PUSH2 0x1E28 JUMP JUMPDEST SWAP1 DUP2 MSTORE PUSH1 0x20 ADD PUSH1 0x40 MLOAD DUP1 SWAP2 SUB SWAP1 KECCAK256 PUSH1 0x0 SWAP1 SLOAD SWAP1 PUSH2 0x100 EXP SWAP1 DIV PUSH1 0xFF AND ISZERO ISZERO EQ PUSH2 0xAEE JUMPI PUSH1 0x40 MLOAD PUSH32 0x8C379A000000000000000000000000000000000000000000000000000000000 DUP2 MSTORE PUSH1 0x4 ADD PUSH2 0xAE5 SWAP1 PUSH2 0x270C JUMP JUMPDEST PUSH1 0x40 MLOAD DUP1 SWAP2 SUB SWAP1 REVERT JUMPDEST CALLER PUSH20 0xFFFFFFFFFFFFFFFFFFFFFFFFFFFFFFFFFFFFFFFF AND PUSH1 0x3 DUP4 PUSH1 0x40 MLOAD PUSH2 0xB15 SWAP2 SWAP1 PUSH2 0x1E28 JUMP JUMPDEST SWAP1 DUP2 MSTORE PUSH1 0x20 ADD PUSH1 0x40 MLOAD DUP1 SWAP2 SUB SWAP1 KECCAK256 PUSH1 0x0 ADD PUSH1 0x0 SWAP1 SLOAD SWAP1 PUSH2 0x100 EXP SWAP1 DIV PUSH20 0xFFFFFFFFFFFFFFFFFFFFFFFFFFFFFFFFFFFFFFFF AND PUSH20 0xFFFFFFFFFFFFFFFFFFFFFFFFFFFFFFFFFFFFFFFF AND EQ PUSH2 0xB9D JUMPI PUSH1 0x40 MLOAD PUSH32 0x8C379A000000000000000000000000000000000000000000000000000000000 DUP2 MSTORE PUSH1 0x4 ADD PUSH2 0xB94 SWAP1 PUSH2 0x2778 JUMP JUMPDEST PUSH1 0x40 MLOAD DUP1 SWAP2 SUB SWAP1 REVERT JUMPDEST PUSH1 0x0 DUP2 GT PUSH2 0xBE0 JUMPI PUSH1 0x40 MLOAD PUSH32 0x8C379A000000000000000000000000000000000000000000000000000000000 DUP2 MSTORE PUSH1 0x4 ADD PUSH2 0xBD7 SWAP1 PUSH2 0x27E4 JUMP JUMPDEST PUSH1 0x40 MLOAD DUP1 SWAP2 SUB SWAP1 REVERT JUMPDEST DUP1 PUSH1 0x3 DUP4 PUSH1 0x40 MLOAD PUSH2 0xBF1 SWAP2 SWAP1 PUSH2 0x1E28 JUMP JUMPDEST SWAP1 DUP2 MSTORE PUSH1 0x20 ADD PUSH1 0x40 MLOAD DUP1 SWAP2 SUB SWAP1 KECCAK256 PUSH1 0x2 ADD SLOAD LT ISZERO PUSH2 0xC44 JUMPI PUSH1 0x40 MLOAD PUSH32 0x8C379A000000000000000000000000000000000000000000000000000000000 DUP2 MSTORE PUSH1 0x4 ADD PUSH2 0xC3B SWAP1 PUSH2 0x2876 JUMP JUMPDEST PUSH1 0x40 MLOAD DUP1 SWAP2 SUB SWAP1 REVERT JUMPDEST DUP1 PUSH1 0x3 DUP4 PUSH1 0x40 MLOAD PUSH2 0xC55 SWAP2 SWAP1 PUSH2 0x1E28 JUMP JUMPDEST SWAP1 DUP2 MSTORE PUSH1 0x20 ADD PUSH1 0x40 MLOAD DUP1 SWAP2 SUB SWAP1 KECCAK256 PUSH1 0x2 ADD PUSH1 0x0 DUP3 DUP3 SLOAD PUSH2 0xC75 SWAP2 SWAP1 PUSH2 0x224C JUMP JUMPDEST SWAP3 POP POP DUP2 SWAP1 SSTORE POP CALLER PUSH20 0xFFFFFFFFFFFFFFFFFFFFFFFFFFFFFFFFFFFFFFFF AND PUSH2 0x8FC DUP3 SWAP1 DUP2 ISZERO MUL SWAP1 PUSH1 0x40 MLOAD PUSH1 0x0 PUSH1 0x40 MLOAD DUP1 DUP4 SUB DUP2 DUP6 DUP9 DUP9 CALL SWAP4 POP POP POP POP ISZERO DUP1 ISZERO PUSH2 0xCC2 JUMPI RETURNDATASIZE PUSH1 0x0 DUP1 RETURNDATACOPY RETURNDATASIZE PUSH1 0x0 REVERT JUMPDEST POP PUSH31 0xF571BB39287F8941696401F5B5A1666EE251EFBF23412140FBDDCE841655D9 DUP3 CALLER DUP4 PUSH1 0x40 MLOAD PUSH2 0xCF5 SWAP4 SWAP3 SWAP2 SWAP1 PUSH2 0x2896 JUMP JUMPDEST PUSH1 0x40 MLOAD DUP1 SWAP2 SUB SWAP1 LOG1 POP POP JUMP JUMPDEST PUSH1 0x1 ISZERO ISZERO PUSH1 0x4 DUP5 PUSH1 0x40 MLOAD PUSH2 0xD15 SWAP2 SWAP1 PUSH2 0x1E28 JUMP JUMPDEST SWAP1 DUP2 MSTORE PUSH1 0x20 ADD PUSH1 0x40 MLOAD DUP1 SWAP2 SUB SWAP1 KECCAK256 PUSH1 0x0 SWAP1 SLOAD SWAP1 PUSH2 0x100 EXP SWAP1 DIV PUSH1 0xFF AND ISZERO ISZERO EQ PUSH2 0xD73 JUMPI PUSH1 0x40 MLOAD PUSH32 0x8C379A000000000000000000000000000000000000000000000000000000000 DUP2 MSTORE PUSH1 0x4 ADD PUSH2 0xD6A SWAP1 PUSH2 0x1EC2 JUMP JUMPDEST PUSH1 0x40 MLOAD DUP1 SWAP2 SUB SWAP1 REVERT JUMPDEST PUSH1 0x1 ISZERO ISZERO PUSH1 0x4 DUP4 PUSH1 0x40 MLOAD PUSH2 0xD87 SWAP2 SWAP1 PUSH2 0x1E28 JUMP JUMPDEST SWAP1 DUP2 MSTORE PUSH1 0x20 ADD PUSH1 0x40 MLOAD DUP1 SWAP2 SUB SWAP1 KECCAK256 PUSH1 0x0 SWAP1 SLOAD SWAP1 PUSH2 0x100 EXP SWAP1 DIV PUSH1 0xFF AND ISZERO ISZERO EQ PUSH2 0xDE5 JUMPI PUSH1 0x40 MLOAD PUSH32 0x8C379A000000000000000000000000000000000000000000000000000000000 DUP2 MSTORE PUSH1 0x4 ADD PUSH2 0xDDC SWAP1 PUSH2 0x2176 JUMP JUMPDEST PUSH1 0x40 MLOAD DUP1 SWAP2 SUB SWAP1 REVERT JUMPDEST CALLER PUSH20 0xFFFFFFFFFFFFFFFFFFFFFFFFFFFFFFFFFFFFFFFF AND PUSH1 0x3 DUP5 PUSH1 0x40 MLOAD PUSH2 0xE0C SWAP2 SWAP1 PUSH2 0x1E28 JUMP JUMPDEST SWAP1 DUP2 MSTORE PUSH1 0x20 ADD PUSH1 0x40 MLOAD DUP1 SWAP2 SUB SWAP1 KECCAK256 PUSH1 0x0 ADD PUSH1 0x0 SWAP1 SLOAD SWAP1 PUSH2 0x100 EXP SWAP1 DIV PUSH20 0xFFFFFFFFFFFFFFFFFFFFFFFFFFFFFFFFFFFFFFFF AND PUSH20 0xFFFFFFFFFFFFFFFFFFFFFFFFFFFFFFFFFFFFFFFF AND EQ PUSH2 0xE94 JUMPI PUSH1 0x40 MLOAD PUSH32 0x8C379A000000000000000000000000000000000000000000000000000000000 DUP2 MSTORE PUSH1 0x4 ADD PUSH2 0xE8B SWAP1 PUSH2 0x1F2E JUMP JUMPDEST PUSH1 0x40 MLOAD DUP1 SWAP2 SUB SWAP1 REVERT JUMPDEST PUSH1 0x64 DUP2 LT ISZERO PUSH2 0xED8 JUMPI PUSH1 0x40 MLOAD PUSH32 0x8C379A000000000000000000000000000000000000000000000000000000000 DUP2 MSTORE PUSH1 0x4 ADD PUSH2 0xECF SWAP1 PUSH2 0x1FC0 JUMP JUMPDEST PUSH1 0x40 MLOAD DUP1 SWAP2 SUB SWAP1 REVERT JUMPDEST DUP1 PUSH1 0x3 DUP5 PUSH1 0x40 MLOAD PUSH2 0xEE9 SWAP2 SWAP1 PUSH2 0x1E28 JUMP JUMPDEST SWAP1 DUP2 MSTORE PUSH1 0x20 ADD PUSH1 0x40 MLOAD DUP1 SWAP2 SUB SWAP1 KECCAK256 PUSH1 0x2 ADD SLOAD LT ISZERO PUSH2 0xF3C JUMPI PUSH1 0x40 MLOAD PUSH32 0x8C379A000000000000000000000000000000000000000000000000000000000 DUP2 MSTORE PUSH1 0x4 ADD PUSH2 0xF33 SWAP1 PUSH2 0x20DB JUMP JUMPDEST PUSH1 0x40 MLOAD DUP1 SWAP2 SUB SWAP1 REVERT JUMPDEST PUSH1 0x3 DUP3 PUSH1 0x40 MLOAD PUSH2 0xF4C SWAP2 SWAP1 PUSH2 0x1E28 JUMP JUMPDEST SWAP1 DUP2 MSTORE PUSH1 0x20 ADD PUSH1 0x40 MLOAD DUP1 SWAP2 SUB SWAP1 KECCAK256 PUSH1 0x0 ADD PUSH1 0x0 SWAP1 SLOAD SWAP1 PUSH2 0x100 EXP SWAP1 DIV PUSH20 0xFFFFFFFFFFFFFFFFFFFFFFFFFFFFFFFFFFFFFFFF AND PUSH20 0xFFFFFFFFFFFFFFFFFFFFFFFFFFFFFFFFFFFFFFFF AND PUSH1 0x3 DUP5 PUSH1 0x40 MLOAD PUSH2 0xFA4 SWAP2 SWAP1 PUSH2 0x1E28 JUMP JUMPDEST SWAP1 DUP2 MSTORE PUSH1 0x20 ADD PUSH1 0x40 MLOAD DUP1 SWAP2 SUB SWAP1 KECCAK256 PUSH1 0x0 ADD PUSH1 0x0 SWAP1 SLOAD SWAP1 PUSH2 0x100 EXP SWAP1 DIV PUSH20 0xFFFFFFFFFFFFFFFFFFFFFFFFFFFFFFFFFFFFFFFF AND PUSH20 0xFFFFFFFFFFFFFFFFFFFFFFFFFFFFFFFFFFFFFFFF AND EQ PUSH2 0x10E2 JUMPI PUSH1 0x0 PUSH1 0x64 DUP3 PUSH2 0x1000 SWAP2 SWAP1 PUSH2 0x21C5 JUMP JUMPDEST SWAP1 POP DUP1 PUSH1 0x1 PUSH1 0x0 DUP3 DUP3 SLOAD PUSH2 0x1014 SWAP2 SWAP1 PUSH2 0x21F6 JUMP JUMPDEST SWAP3 POP POP DUP2 SWAP1 SSTORE POP DUP2 PUSH1 0x3 DUP6 PUSH1 0x40 MLOAD PUSH2 0x102C SWAP2 SWAP1 PUSH2 0x1E28 JUMP JUMPDEST SWAP1 DUP2 MSTORE PUSH1 0x20 ADD PUSH1 0x40 MLOAD DUP1 SWAP2 SUB SWAP1 KECCAK256 PUSH1 0x2 ADD PUSH1 0x0 DUP3 DUP3 SLOAD PUSH2 0x104C SWAP2 SWAP1 PUSH2 0x224C JUMP JUMPDEST SWAP3 POP POP DUP2 SWAP1 SSTORE POP DUP1 DUP3 PUSH2 0x105F SWAP2 SWAP1 PUSH2 0x224C JUMP JUMPDEST PUSH1 0x3 DUP5 PUSH1 0x40 MLOAD PUSH2 0x106F SWAP2 SWAP1 PUSH2 0x1E28 JUMP JUMPDEST SWAP1 DUP2 MSTORE PUSH1 0x20 ADD PUSH1 0x40 MLOAD DUP1 SWAP2 SUB SWAP1 KECCAK256 PUSH1 0x2 ADD PUSH1 0x0 DUP3 DUP3 SLOAD PUSH2 0x108F SWAP2 SWAP1 PUSH2 0x21F6 JUMP JUMPDEST SWAP3 POP POP DUP2 SWAP1 SSTORE POP PUSH32 0x370044A47246AFACF081FD58C8468A6482EBC8673D418E785B8D0492240F95DE DUP5 DUP5 DUP4 DUP6 PUSH2 0x10C5 SWAP2 SWAP1 PUSH2 0x224C JUMP JUMPDEST PUSH1 0x40 MLOAD PUSH2 0x10D4 SWAP4 SWAP3 SWAP2 SWAP1 PUSH2 0x22B9 JUMP JUMPDEST PUSH1 0x40 MLOAD DUP1 SWAP2 SUB SWAP1 LOG1 POP PUSH2 0x118E JUMP JUMPDEST DUP1 PUSH1 0x3 DUP5 PUSH1 0x40 MLOAD PUSH2 0x10F3 SWAP2 SWAP1 PUSH2 0x1E28 JUMP JUMPDEST SWAP1 DUP2 MSTORE PUSH1 0x20 ADD PUSH1 0x40 MLOAD DUP1 SWAP2 SUB SWAP1 KECCAK256 PUSH1 0x2 ADD PUSH1 0x0 DUP3 DUP3 SLOAD PUSH2 0x1113 SWAP2 SWAP1 PUSH2 0x224C JUMP JUMPDEST SWAP3 POP POP DUP2 SWAP1 SSTORE POP DUP1 PUSH1 0x3 DUP4 PUSH1 0x40 MLOAD PUSH2 0x112B SWAP2 SWAP1 PUSH2 0x1E28 JUMP JUMPDEST SWAP1 DUP2 MSTORE PUSH1 0x20 ADD PUSH1 0x40 MLOAD DUP1 SWAP2 SUB SWAP1 KECCAK256 PUSH1 0x2 ADD PUSH1 0x0 DUP3 DUP3 SLOAD PUSH2 0x114B SWAP2 SWAP1 PUSH2 0x21F6 JUMP JUMPDEST SWAP3 POP POP DUP2 SWAP1 SSTORE POP PUSH32 0x370044A47246AFACF081FD58C8468A6482EBC8673D418E785B8D0492240F95DE DUP4 DUP4 DUP4 PUSH1 0x40 MLOAD PUSH2 0x1185 SWAP4 SWAP3 SWAP2 SWAP1 PUSH2 0x22B9 JUMP JUMPDEST PUSH1 0x40 MLOAD DUP1 SWAP2 SUB SWAP1 LOG1 JUMPDEST POP POP POP JUMP JUMPDEST PUSH1 0x0 PUSH1 0x1 SLOAD SWAP1 POP SWAP1 JUMP JUMPDEST PUSH1 0x1 ISZERO ISZERO PUSH1 0x4 DUP3 PUSH1 0x40 MLOAD PUSH2 0x11B1 SWAP2 SWAP1 PUSH2 0x1E28 JUMP JUMPDEST SWAP1 DUP2 MSTORE PUSH1 0x20 ADD PUSH1 0x40 MLOAD DUP1 SWAP2 SUB SWAP1 KECCAK256 PUSH1 0x0 SWAP1 SLOAD SWAP1 PUSH2 0x100 EXP SWAP1 DIV PUSH1 0xFF AND ISZERO ISZERO EQ PUSH2 0x120F JUMPI PUSH1 0x40 MLOAD PUSH32 0x8C379A000000000000000000000000000000000000000000000000000000000 DUP2 MSTORE PUSH1 0x4 ADD PUSH2 0x1206 SWAP1 PUSH2 0x2920 JUMP JUMPDEST PUSH1 0x40 MLOAD DUP1 SWAP2 SUB SWAP1 REVERT JUMPDEST PUSH1 0x0 CALLVALUE GT PUSH2 0x1252 JUMPI PUSH1 0x40 MLOAD PUSH32 0x8C379A000000000000000000000000000000000000000000000000000000000 DUP2 MSTORE PUSH1 0x4 ADD PUSH2 0x1249 SWAP1 PUSH2 0x298C JUMP JUMPDEST PUSH1 0x40 MLOAD DUP1 SWAP2 SUB SWAP1 REVERT JUMPDEST CALLVALUE PUSH1 0x3 DUP3 PUSH1 0x40 MLOAD PUSH2 0x1263 SWAP2 SWAP1 PUSH2 0x1E28 JUMP JUMPDEST SWAP1 DUP2 MSTORE PUSH1 0x20 ADD PUSH1 0x40 MLOAD DUP1 SWAP2 SUB SWAP1 KECCAK256 PUSH1 0x2 ADD PUSH1 0x0 DUP3 DUP3 SLOAD PUSH2 0x1283 SWAP2 SWAP1 PUSH2 0x21F6 JUMP JUMPDEST SWAP3 POP POP DUP2 SWAP1 SSTORE POP PUSH32 0x3E0B25BA1AB101C1D9112766101BB987F00F29A37A44B4A0813ED489A4F3FFA CALLER DUP3 CALLVALUE PUSH1 0x40 MLOAD PUSH2 0x12BD SWAP4 SWAP3 SWAP2 SWAP1 PUSH2 0x29AC JUMP JUMPDEST PUSH1 0x40 MLOAD DUP1 SWAP2 SUB SWAP1 LOG1 POP JUMP JUMPDEST PUSH1 0x60 PUSH1 0x2 PUSH1 0x0 CALLER PUSH20 0xFFFFFFFFFFFFFFFFFFFFFFFFFFFFFFFFFFFFFFFF AND PUSH20 0xFFFFFFFFFFFFFFFFFFFFFFFFFFFFFFFFFFFFFFFF AND DUP2 MSTORE PUSH1 0x20 ADD SWAP1 DUP2 MSTORE PUSH1 0x20 ADD PUSH1 0x0 KECCAK256 DUP1 SLOAD DUP1 PUSH1 0x20 MUL PUSH1 0x20 ADD PUSH1 0x40 MLOAD SWAP1 DUP2 ADD PUSH1 0x40 MSTORE DUP1 SWAP3 SWAP2 SWAP1 DUP2 DUP2 MSTORE PUSH1 0x20 ADD PUSH1 0x0 SWAP1 JUMPDEST DUP3 DUP3 LT ISZERO PUSH2 0x13D5 JUMPI DUP4 DUP3 SWAP1 PUSH1 0x0 MSTORE PUSH1 0x20 PUSH1 0x0 KECCAK256 ADD DUP1 SLOAD PUSH2 0x1348 SWAP1 PUSH2 0x23E1 JUMP JUMPDEST DUP1 PUSH1 0x1F ADD PUSH1 0x20 DUP1 SWAP2 DIV MUL PUSH1 0x20 ADD PUSH1 0x40 MLOAD SWAP1 DUP2 ADD PUSH1 0x40 MSTORE DUP1 SWAP3 SWAP2 SWAP1 DUP2 DUP2 MSTORE PUSH1 0x20 ADD DUP3 DUP1 SLOAD PUSH2 0x1374 SWAP1 PUSH2 0x23E1 JUMP JUMPDEST DUP1 ISZERO PUSH2 0x13C1 JUMPI DUP1 PUSH1 0x1F LT PUSH2 0x1396 JUMPI PUSH2 0x100 DUP1 DUP4 SLOAD DIV MUL DUP4 MSTORE SWAP2 PUSH1 0x20 ADD SWAP2 PUSH2 0x13C1 JUMP JUMPDEST DUP3 ADD SWAP2 SWAP1 PUSH1 0x0 MSTORE PUSH1 0x20 PUSH1 0x0 KECCAK256 SWAP1 JUMPDEST DUP2 SLOAD DUP2 MSTORE SWAP1 PUSH1 0x1 ADD SWAP1 PUSH1 0x20 ADD DUP1 DUP4 GT PUSH2 0x13A4 JUMPI DUP3 SWAP1 SUB PUSH1 0x1F AND DUP3 ADD SWAP2 JUMPDEST POP POP POP POP POP DUP2 MSTORE PUSH1 0x20 ADD SWAP1 PUSH1 0x1 ADD SWAP1 PUSH2 0x1329 JUMP JUMPDEST POP POP POP POP SWAP1 POP SWAP1 JUMP JUMPDEST PUSH1 0x0 DUP1 PUSH1 0x0 SWAP1 SLOAD SWAP1 PUSH2 0x100 EXP SWAP1 DIV PUSH20 0xFFFFFFFFFFFFFFFFFFFFFFFFFFFFFFFFFFFFFFFF AND SWAP1 POP SWAP1 JUMP JUMPDEST PUSH1 0x0 PUSH1 0x3 DUP3 PUSH1 0x40 MLOAD PUSH2 0x1419 SWAP2 SWAP1 PUSH2 0x1E28 JUMP JUMPDEST SWAP1 DUP2 MSTORE PUSH1 0x20 ADD PUSH1 0x40 MLOAD DUP1 SWAP2 SUB SWAP1 KECCAK256 PUSH1 0x2 ADD SLOAD SWAP1 POP SWAP2 SWAP1 POP JUMP JUMPDEST PUSH2 0x143A PUSH2 0x16D5 JUMP JUMPDEST PUSH1 0x3 DUP3 PUSH1 0x40 MLOAD PUSH2 0x144A SWAP2 SWAP1 PUSH2 0x1E28 JUMP JUMPDEST SWAP1 DUP2 MSTORE PUSH1 0x20 ADD PUSH1 0x40 MLOAD DUP1 SWAP2 SUB SWAP1 KECCAK256 PUSH1 0x40 MLOAD DUP1 PUSH1 0x60 ADD PUSH1 0x40 MSTORE SWAP1 DUP2 PUSH1 0x0 DUP3 ADD PUSH1 0x0 SWAP1 SLOAD SWAP1 PUSH2 0x100 EXP SWAP1 DIV PUSH20 0xFFFFFFFFFFFFFFFFFFFFFFFFFFFFFFFFFFFFFFFF AND PUSH20 0xFFFFFFFFFFFFFFFFFFFFFFFFFFFFFFFFFFFFFFFF AND PUSH20 0xFFFFFFFFFFFFFFFFFFFFFFFFFFFFFFFFFFFFFFFF AND DUP2 MSTORE PUSH1 0x20 ADD PUSH1 0x1 DUP3 ADD DUP1 SLOAD PUSH2 0x14C9 SWAP1 PUSH2 0x23E1 JUMP JUMPDEST DUP1 PUSH1 0x1F ADD PUSH1 0x20 DUP1 SWAP2 DIV MUL PUSH1 0x20 ADD PUSH1 0x40 MLOAD SWAP1 DUP2 ADD PUSH1 0x40 MSTORE DUP1 SWAP3 SWAP2 SWAP1 DUP2 DUP2 MSTORE PUSH1 0x20 ADD DUP3 DUP1 SLOAD PUSH2 0x14F5 SWAP1 PUSH2 0x23E1 JUMP JUMPDEST DUP1 ISZERO PUSH2 0x1542 JUMPI DUP1 PUSH1 0x1F LT PUSH2 0x1517 JUMPI PUSH2 0x100 DUP1 DUP4 SLOAD DIV MUL DUP4 MSTORE SWAP2 PUSH1 0x20 ADD SWAP2 PUSH2 0x1542 JUMP JUMPDEST DUP3 ADD SWAP2 SWAP1 PUSH1 0x0 MSTORE PUSH1 0x20 PUSH1 0x0 KECCAK256 SWAP1 JUMPDEST DUP2 SLOAD DUP2 MSTORE SWAP1 PUSH1 0x1 ADD SWAP1 PUSH1 0x20 ADD DUP1 DUP4 GT PUSH2 0x1525 JUMPI DUP3 SWAP1 SUB PUSH1 0x1F AND DUP3 ADD SWAP2 JUMPDEST POP POP POP POP POP DUP2 MSTORE PUSH1 0x20 ADD PUSH1 0x2 DUP3 ADD SLOAD DUP2 MSTORE POP POP SWAP1 POP SWAP2 SWAP1 POP JUMP JUMPDEST CALLER PUSH20 0xFFFFFFFFFFFFFFFFFFFFFFFFFFFFFFFFFFFFFFFF AND PUSH1 0x0 DUP1 SLOAD SWAP1 PUSH2 0x100 EXP SWAP1 DIV PUSH20 0xFFFFFFFFFFFFFFFFFFFFFFFFFFFFFFFFFFFFFFFF AND PUSH20 0xFFFFFFFFFFFFFFFFFFFFFFFFFFFFFFFFFFFFFFFF AND EQ PUSH2 0x15EA JUMPI PUSH1 0x40 MLOAD PUSH32 0x8C379A000000000000000000000000000000000000000000000000000000000 DUP2 MSTORE PUSH1 0x4 ADD PUSH2 0x15E1 SWAP1 PUSH2 0x2778 JUMP JUMPDEST PUSH1 0x40 MLOAD DUP1 SWAP2 SUB SWAP1 REVERT JUMPDEST PUSH1 0x0 DUP2 GT PUSH2 0x162D JUMPI PUSH1 0x40 MLOAD PUSH32 0x8C379A000000000000000000000000000000000000000000000000000000000 DUP2 MSTORE PUSH1 0x4 ADD PUSH2 0x1624 SWAP1 PUSH2 0x27E4 JUMP JUMPDEST PUSH1 0x40 MLOAD DUP1 SWAP2 SUB SWAP1 REVERT JUMPDEST DUP1 PUSH1 0x1 SLOAD LT ISZERO PUSH2 0x1672 JUMPI PUSH1 0x40 MLOAD PUSH32 0x8C379A000000000000000000000000000000000000000000000000000000000 DUP2 MSTORE PUSH1 0x4 ADD PUSH2 0x1669 SWAP1 PUSH2 0x2876 JUMP JUMPDEST PUSH1 0x40 MLOAD DUP1 SWAP2 SUB SWAP1 REVERT JUMPDEST DUP1 PUSH1 0x1 PUSH1 0x0 DUP3 DUP3 SLOAD PUSH2 0x1684 SWAP2 SWAP1 PUSH2 0x224C JUMP JUMPDEST SWAP3 POP POP DUP2 SWAP1 SSTORE POP CALLER PUSH20 0xFFFFFFFFFFFFFFFFFFFFFFFFFFFFFFFFFFFFFFFF AND PUSH2 0x8FC DUP3 SWAP1 DUP2 ISZERO MUL SWAP1 PUSH1 0x40 MLOAD PUSH1 0x0 PUSH1 0x40 MLOAD DUP1 DUP4 SUB DUP2 DUP6 DUP9 DUP9 CALL SWAP4 POP POP POP POP ISZERO DUP1 ISZERO PUSH2 0x16D1 JUMPI RETURNDATASIZE PUSH1 0x0 DUP1 RETURNDATACOPY RETURNDATASIZE PUSH1 0x0 REVERT JUMPDEST POP POP JUMP JUMPDEST PUSH1 0x40 MLOAD DUP1 PUSH1 0x60 ADD PUSH1 0x40 MSTORE DUP1 PUSH1 0x0 PUSH20 0xFFFFFFFFFFFFFFFFFFFFFFFFFFFFFFFFFFFFFFFF AND DUP2 MSTORE PUSH1 0x20 ADD PUSH1 0x60 DUP2 MSTORE PUSH1 0x20 ADD PUSH1 0x0 DUP2 MSTORE POP SWAP1 JUMP JUMPDEST PUSH1 0x0 PUSH1 0x40 MLOAD SWAP1 POP SWAP1 JUMP JUMPDEST PUSH1 0x0 DUP1 REVERT JUMPDEST PUSH1 0x0 DUP1 REVERT JUMPDEST PUSH1 0x0 DUP1 REVERT JUMPDEST PUSH1 0x0 DUP1 REVERT JUMPDEST PUSH1 0x0 PUSH1 0x1F NOT PUSH1 0x1F DUP4 ADD AND SWAP1 POP SWAP2 SWAP1 POP JUMP JUMPDEST PUSH32 0x4E487B7100000000000000000000000000000000000000000000000000000000 PUSH1 0x0 MSTORE PUSH1 0x41 PUSH1 0x4 MSTORE PUSH1 0x24 PUSH1 0x0 REVERT JUMPDEST PUSH2 0x1773 DUP3 PUSH2 0x172A JUMP JUMPDEST DUP2 ADD DUP2 DUP2 LT PUSH8 0xFFFFFFFFFFFFFFFF DUP3 GT OR ISZERO PUSH2 0x1792 JUMPI PUSH2 0x1791 PUSH2 0x173B JUMP JUMPDEST JUMPDEST DUP1 PUSH1 0x40 MSTORE POP POP POP JUMP JUMPDEST PUSH1 0x0 PUSH2 0x17A5 PUSH2 0x170C JUMP JUMPDEST SWAP1 POP PUSH2 0x17B1 DUP3 DUP3 PUSH2 0x176A JUMP JUMPDEST SWAP2 SWAP1 POP JUMP JUMPDEST PUSH1 0x0 PUSH8 0xFFFFFFFFFFFFFFFF DUP3 GT ISZERO PUSH2 0x17D1 JUMPI PUSH2 0x17D0 PUSH2 0x173B JUMP JUMPDEST JUMPDEST PUSH2 0x17DA DUP3 PUSH2 0x172A JUMP JUMPDEST SWAP1 POP PUSH1 0x20 DUP2 ADD SWAP1 POP SWAP2 SWAP1 POP JUMP JUMPDEST DUP3 DUP2 DUP4 CALLDATACOPY PUSH1 0x0 DUP4 DUP4 ADD MSTORE POP POP POP JUMP JUMPDEST PUSH1 0x0 PUSH2 0x1809 PUSH2 0x1804 DUP5 PUSH2 0x17B6 JUMP JUMPDEST PUSH2 0x179B JUMP JUMPDEST SWAP1 POP DUP3 DUP2 MSTORE PUSH1 0x20 DUP2 ADD DUP5 DUP5 DUP5 ADD GT ISZERO PUSH2 0x1825 JUMPI PUSH2 0x1824 PUSH2 0x1725 JUMP JUMPDEST JUMPDEST PUSH2 0x1830 DUP5 DUP3 DUP6 PUSH2 0x17E7 JUMP JUMPDEST POP SWAP4 SWAP3 POP POP POP JUMP JUMPDEST PUSH1 0x0 DUP3 PUSH1 0x1F DUP4 ADD SLT PUSH2 0x184D JUMPI PUSH2 0x184C PUSH2 0x1720 JUMP JUMPDEST JUMPDEST DUP2 CALLDATALOAD PUSH2 0x185D DUP5 DUP3 PUSH1 0x20 DUP7 ADD PUSH2 0x17F6 JUMP JUMPDEST SWAP2 POP POP SWAP3 SWAP2 POP POP JUMP JUMPDEST PUSH1 0x0 PUSH8 0xFFFFFFFFFFFFFFFF DUP3 GT ISZERO PUSH2 0x1881 JUMPI PUSH2 0x1880 PUSH2 0x173B JUMP JUMPDEST JUMPDEST PUSH1 0x20 DUP3 MUL SWAP1 POP PUSH1 0x20 DUP2 ADD SWAP1 POP SWAP2 SWAP1 POP JUMP JUMPDEST PUSH1 0x0 DUP1 REVERT JUMPDEST PUSH1 0x0 PUSH2 0x18AA PUSH2 0x18A5 DUP5 PUSH2 0x1866 JUMP JUMPDEST PUSH2 0x179B JUMP JUMPDEST SWAP1 POP DUP1 DUP4 DUP3 MSTORE PUSH1 0x20 DUP3 ADD SWAP1 POP PUSH1 0x20 DUP5 MUL DUP4 ADD DUP6 DUP2 GT ISZERO PUSH2 0x18CD JUMPI PUSH2 0x18CC PUSH2 0x1892 JUMP JUMPDEST JUMPDEST DUP4 JUMPDEST DUP2 DUP2 LT ISZERO PUSH2 0x1914 JUMPI DUP1 CALLDATALOAD PUSH8 0xFFFFFFFFFFFFFFFF DUP2 GT ISZERO PUSH2 0x18F2 JUMPI PUSH2 0x18F1 PUSH2 0x1720 JUMP JUMPDEST JUMPDEST DUP1 DUP7 ADD PUSH2 0x18FF DUP10 DUP3 PUSH2 0x1838 JUMP JUMPDEST DUP6 MSTORE PUSH1 0x20 DUP6 ADD SWAP5 POP POP POP PUSH1 0x20 DUP2 ADD SWAP1 POP PUSH2 0x18CF JUMP JUMPDEST POP POP POP SWAP4 SWAP3 POP POP POP JUMP JUMPDEST PUSH1 0x0 DUP3 PUSH1 0x1F DUP4 ADD SLT PUSH2 0x1933 JUMPI PUSH2 0x1932 PUSH2 0x1720 JUMP JUMPDEST JUMPDEST DUP2 CALLDATALOAD PUSH2 0x1943 DUP5 DUP3 PUSH1 0x20 DUP7 ADD PUSH2 0x1897 JUMP JUMPDEST SWAP2 POP POP SWAP3 SWAP2 POP POP JUMP JUMPDEST PUSH1 0x0 DUP2 SWAP1 POP SWAP2 SWAP1 POP JUMP JUMPDEST PUSH2 0x195F DUP2 PUSH2 0x194C JUMP JUMPDEST DUP2 EQ PUSH2 0x196A JUMPI PUSH1 0x0 DUP1 REVERT JUMPDEST POP JUMP JUMPDEST PUSH1 0x0 DUP2 CALLDATALOAD SWAP1 POP PUSH2 0x197C DUP2 PUSH2 0x1956 JUMP JUMPDEST SWAP3 SWAP2 POP POP JUMP JUMPDEST PUSH1 0x0 DUP1 PUSH1 0x0 PUSH1 0x60 DUP5 DUP7 SUB SLT ISZERO PUSH2 0x199B JUMPI PUSH2 0x199A PUSH2 0x1716 JUMP JUMPDEST JUMPDEST PUSH1 0x0 DUP5 ADD CALLDATALOAD PUSH8 0xFFFFFFFFFFFFFFFF DUP2 GT ISZERO PUSH2 0x19B9 JUMPI PUSH2 0x19B8 PUSH2 0x171B JUMP JUMPDEST JUMPDEST PUSH2 0x19C5 DUP7 DUP3 DUP8 ADD PUSH2 0x1838 JUMP JUMPDEST SWAP4 POP POP PUSH1 0x20 DUP5 ADD CALLDATALOAD PUSH8 0xFFFFFFFFFFFFFFFF DUP2 GT ISZERO PUSH2 0x19E6 JUMPI PUSH2 0x19E5 PUSH2 0x171B JUMP JUMPDEST JUMPDEST PUSH2 0x19F2 DUP7 DUP3 DUP8 ADD PUSH2 0x191E JUMP JUMPDEST SWAP3 POP POP PUSH1 0x40 PUSH2 0x1A03 DUP7 DUP3 DUP8 ADD PUSH2 0x196D JUMP JUMPDEST SWAP2 POP POP SWAP3 POP SWAP3 POP SWAP3 JUMP JUMPDEST PUSH1 0x0 PUSH1 0x20 DUP3 DUP5 SUB SLT ISZERO PUSH2 0x1A23 JUMPI PUSH2 0x1A22 PUSH2 0x1716 JUMP JUMPDEST JUMPDEST PUSH1 0x0 DUP3 ADD CALLDATALOAD PUSH8 0xFFFFFFFFFFFFFFFF DUP2 GT ISZERO PUSH2 0x1A41 JUMPI PUSH2 0x1A40 PUSH2 0x171B JUMP JUMPDEST JUMPDEST PUSH2 0x1A4D DUP5 DUP3 DUP6 ADD PUSH2 0x1838 JUMP JUMPDEST SWAP2 POP POP SWAP3 SWAP2 POP POP JUMP JUMPDEST PUSH1 0x0 DUP1 PUSH1 0x40 DUP4 DUP6 SUB SLT ISZERO PUSH2 0x1A6D JUMPI PUSH2 0x1A6C PUSH2 0x1716 JUMP JUMPDEST JUMPDEST PUSH1 0x0 DUP4 ADD CALLDATALOAD PUSH8 0xFFFFFFFFFFFFFFFF DUP2 GT ISZERO PUSH2 0x1A8B JUMPI PUSH2 0x1A8A PUSH2 0x171B JUMP JUMPDEST JUMPDEST PUSH2 0x1A97 DUP6 DUP3 DUP7 ADD PUSH2 0x1838 JUMP JUMPDEST SWAP3 POP POP PUSH1 0x20 PUSH2 0x1AA8 DUP6 DUP3 DUP7 ADD PUSH2 0x196D JUMP JUMPDEST SWAP2 POP POP SWAP3 POP SWAP3 SWAP1 POP JUMP JUMPDEST PUSH1 0x0 DUP1 PUSH1 0x0 PUSH1 0x60 DUP5 DUP7 SUB SLT ISZERO PUSH2 0x1ACB JUMPI PUSH2 0x1ACA PUSH2 0x1716 JUMP JUMPDEST JUMPDEST PUSH1 0x0 DUP5 ADD CALLDATALOAD PUSH8 0xFFFFFFFFFFFFFFFF DUP2 GT ISZERO PUSH2 0x1AE9 JUMPI PUSH2 0x1AE8 PUSH2 0x171B JUMP JUMPDEST JUMPDEST PUSH2 0x1AF5 DUP7 DUP3 DUP8 ADD PUSH2 0x1838 JUMP JUMPDEST SWAP4 POP POP PUSH1 0x20 DUP5 ADD CALLDATALOAD PUSH8 0xFFFFFFFFFFFFFFFF DUP2 GT ISZERO PUSH2 0x1B16 JUMPI PUSH2 0x1B15 PUSH2 0x171B JUMP JUMPDEST JUMPDEST PUSH2 0x1B22 DUP7 DUP3 DUP8 ADD PUSH2 0x1838 JUMP JUMPDEST SWAP3 POP POP PUSH1 0x40 PUSH2 0x1B33 DUP7 DUP3 DUP8 ADD PUSH2 0x196D JUMP JUMPDEST SWAP2 POP POP SWAP3 POP SWAP3 POP SWAP3 JUMP JUMPDEST PUSH2 0x1B46 DUP2 PUSH2 0x194C JUMP JUMPDEST DUP3 MSTORE POP POP JUMP JUMPDEST PUSH1 0x0 PUSH1 0x20 DUP3 ADD SWAP1 POP PUSH2 0x1B61 PUSH1 0x0 DUP4 ADD DUP5 PUSH2 0x1B3D JUMP JUMPDEST SWAP3 SWAP2 POP POP JUMP JUMPDEST PUSH1 0x0 DUP2 MLOAD SWAP1 POP SWAP2 SWAP1 POP JUMP JUMPDEST PUSH1 0x0 DUP3 DUP3 MSTORE PUSH1 0x20 DUP3 ADD SWAP1 POP SWAP3 SWAP2 POP POP JUMP JUMPDEST PUSH1 0x0 DUP2 SWAP1 POP PUSH1 0x20 DUP3 ADD SWAP1 POP SWAP2 SWAP1 POP JUMP JUMPDEST PUSH1 0x0 DUP2 MLOAD SWAP1 POP SWAP2 SWAP1 POP JUMP JUMPDEST PUSH1 0x0 DUP3 DUP3 MSTORE PUSH1 0x20 DUP3 ADD SWAP1 POP SWAP3 SWAP2 POP POP JUMP JUMPDEST PUSH1 0x0 JUMPDEST DUP4 DUP2 LT ISZERO PUSH2 0x1BCD JUMPI DUP1 DUP3 ADD MLOAD DUP2 DUP5 ADD MSTORE PUSH1 0x20 DUP2 ADD SWAP1 POP PUSH2 0x1BB2 JUMP JUMPDEST DUP4 DUP2 GT ISZERO PUSH2 0x1BDC JUMPI PUSH1 0x0 DUP5 DUP5 ADD MSTORE JUMPDEST POP POP POP POP JUMP JUMPDEST PUSH1 0x0 PUSH2 0x1BED DUP3 PUSH2 0x1B93 JUMP JUMPDEST PUSH2 0x1BF7 DUP2 DUP6 PUSH2 0x1B9E JUMP JUMPDEST SWAP4 POP PUSH2 0x1C07 DUP2 DUP6 PUSH1 0x20 DUP7 ADD PUSH2 0x1BAF JUMP JUMPDEST PUSH2 0x1C10 DUP2 PUSH2 0x172A JUMP JUMPDEST DUP5 ADD SWAP2 POP POP SWAP3 SWAP2 POP POP JUMP JUMPDEST PUSH1 0x0 PUSH2 0x1C27 DUP4 DUP4 PUSH2 0x1BE2 JUMP JUMPDEST SWAP1 POP SWAP3 SWAP2 POP POP JUMP JUMPDEST PUSH1 0x0 PUSH1 0x20 DUP3 ADD SWAP1 POP SWAP2 SWAP1 POP JUMP JUMPDEST PUSH1 0x0 PUSH2 0x1C47 DUP3 PUSH2 0x1B67 JUMP JUMPDEST PUSH2 0x1C51 DUP2 DUP6 PUSH2 0x1B72 JUMP JUMPDEST SWAP4 POP DUP4 PUSH1 0x20 DUP3 MUL DUP6 ADD PUSH2 0x1C63 DUP6 PUSH2 0x1B83 JUMP JUMPDEST DUP1 PUSH1 0x0 JUMPDEST DUP6 DUP2 LT ISZERO PUSH2 0x1C9F JUMPI DUP5 DUP5 SUB DUP10 MSTORE DUP2 MLOAD PUSH2 0x1C80 DUP6 DUP3 PUSH2 0x1C1B JUMP JUMPDEST SWAP5 POP PUSH2 0x1C8B DUP4 PUSH2 0x1C2F JUMP JUMPDEST SWAP3 POP PUSH1 0x20 DUP11 ADD SWAP10 POP POP PUSH1 0x1 DUP2 ADD SWAP1 POP PUSH2 0x1C67 JUMP JUMPDEST POP DUP3 SWAP8 POP DUP8 SWAP6 POP POP POP POP POP POP SWAP3 SWAP2 POP POP JUMP JUMPDEST PUSH1 0x0 PUSH1 0x20 DUP3 ADD SWAP1 POP DUP2 DUP2 SUB PUSH1 0x0 DUP4 ADD MSTORE PUSH2 0x1CCB DUP2 DUP5 PUSH2 0x1C3C JUMP JUMPDEST SWAP1 POP SWAP3 SWAP2 POP POP JUMP JUMPDEST PUSH1 0x0 PUSH20 0xFFFFFFFFFFFFFFFFFFFFFFFFFFFFFFFFFFFFFFFF DUP3 AND SWAP1 POP SWAP2 SWAP1 POP JUMP JUMPDEST PUSH1 0x0 PUSH2 0x1CFE DUP3 PUSH2 0x1CD3 JUMP JUMPDEST SWAP1 POP SWAP2 SWAP1 POP JUMP JUMPDEST PUSH2 0x1D0E DUP2 PUSH2 0x1CF3 JUMP JUMPDEST DUP3 MSTORE POP POP JUMP JUMPDEST PUSH1 0x0 PUSH1 0x20 DUP3 ADD SWAP1 POP PUSH2 0x1D29 PUSH1 0x0 DUP4 ADD DUP5 PUSH2 0x1D05 JUMP JUMPDEST SWAP3 SWAP2 POP POP JUMP JUMPDEST PUSH2 0x1D38 DUP2 PUSH2 0x1CF3 JUMP JUMPDEST DUP3 MSTORE POP POP JUMP JUMPDEST PUSH2 0x1D47 DUP2 PUSH2 0x194C JUMP JUMPDEST DUP3 MSTORE POP POP JUMP JUMPDEST PUSH1 0x0 PUSH1 0x60 DUP4 ADD PUSH1 0x0 DUP4 ADD MLOAD PUSH2 0x1D65 PUSH1 0x0 DUP7 ADD DUP3 PUSH2 0x1D2F JUMP JUMPDEST POP PUSH1 0x20 DUP4 ADD MLOAD DUP5 DUP3 SUB PUSH1 0x20 DUP7 ADD MSTORE PUSH2 0x1D7D DUP3 DUP3 PUSH2 0x1BE2 JUMP JUMPDEST SWAP2 POP POP PUSH1 0x40 DUP4 ADD MLOAD PUSH2 0x1D92 PUSH1 0x40 DUP7 ADD DUP3 PUSH2 0x1D3E JUMP JUMPDEST POP DUP1 SWAP2 POP POP SWAP3 SWAP2 POP POP JUMP JUMPDEST PUSH1 0x0 PUSH1 0x20 DUP3 ADD SWAP1 POP DUP2 DUP2 SUB PUSH1 0x0 DUP4 ADD MSTORE PUSH2 0x1DB7 DUP2 DUP5 PUSH2 0x1D4D JUMP JUMPDEST SWAP1 POP SWAP3 SWAP2 POP POP JUMP JUMPDEST PUSH1 0x0 PUSH1 0x20 DUP3 DUP5 SUB SLT ISZERO PUSH2 0x1DD5 JUMPI PUSH2 0x1DD4 PUSH2 0x1716 JUMP JUMPDEST JUMPDEST PUSH1 0x0 PUSH2 0x1DE3 DUP5 DUP3 DUP6 ADD PUSH2 0x196D JUMP JUMPDEST SWAP2 POP POP SWAP3 SWAP2 POP POP JUMP JUMPDEST PUSH1 0x0 DUP2 SWAP1 POP SWAP3 SWAP2 POP POP JUMP JUMPDEST PUSH1 0x0 PUSH2 0x1E02 DUP3 PUSH2 0x1B93 JUMP JUMPDEST PUSH2 0x1E0C DUP2 DUP6 PUSH2 0x1DEC JUMP JUMPDEST SWAP4 POP PUSH2 0x1E1C DUP2 DUP6 PUSH1 0x20 DUP7 ADD PUSH2 0x1BAF JUMP JUMPDEST DUP1 DUP5 ADD SWAP2 POP POP SWAP3 SWAP2 POP POP JUMP JUMPDEST PUSH1 0x0 PUSH2 0x1E34 DUP3 DUP5 PUSH2 0x1DF7 JUMP JUMPDEST SWAP2 POP DUP2 SWAP1 POP SWAP3 SWAP2 POP POP JUMP JUMPDEST PUSH1 0x0 DUP3 DUP3 MSTORE PUSH1 0x20 DUP3 ADD SWAP1 POP SWAP3 SWAP2 POP POP JUMP JUMPDEST PUSH32 0x7472616E736665725F6661696C5F66726F6D5F6E616D655F6E6F745F65786973 PUSH1 0x0 DUP3 ADD MSTORE PUSH32 0x7400000000000000000000000000000000000000000000000000000000000000 PUSH1 0x20 DUP3 ADD MSTORE POP JUMP JUMPDEST PUSH1 0x0 PUSH2 0x1EAC PUSH1 0x21 DUP4 PUSH2 0x1E3F JUMP JUMPDEST SWAP2 POP PUSH2 0x1EB7 DUP3 PUSH2 0x1E50 JUMP JUMPDEST PUSH1 0x40 DUP3 ADD SWAP1 POP SWAP2 SWAP1 POP JUMP JUMPDEST PUSH1 0x0 PUSH1 0x20 DUP3 ADD SWAP1 POP DUP2 DUP2 SUB PUSH1 0x0 DUP4 ADD MSTORE PUSH2 0x1EDB DUP2 PUSH2 0x1E9F JUMP JUMPDEST SWAP1 POP SWAP2 SWAP1 POP JUMP JUMPDEST PUSH32 0x7472616E736665725F6661696C5F66726F6D5F6E6F745F6F776E657200000000 PUSH1 0x0 DUP3 ADD MSTORE POP JUMP JUMPDEST PUSH1 0x0 PUSH2 0x1F18 PUSH1 0x1C DUP4 PUSH2 0x1E3F JUMP JUMPDEST SWAP2 POP PUSH2 0x1F23 DUP3 PUSH2 0x1EE2 JUMP JUMPDEST PUSH1 0x20 DUP3 ADD SWAP1 POP SWAP2 SWAP1 POP JUMP JUMPDEST PUSH1 0x0 PUSH1 0x20 DUP3 ADD SWAP1 POP DUP2 DUP2 SUB PUSH1 0x0 DUP4 ADD MSTORE PUSH2 0x1F47 DUP2 PUSH2 0x1F0B JUMP JUMPDEST SWAP1 POP SWAP2 SWAP1 POP JUMP JUMPDEST PUSH32 0x7472616E736665725F6661696C5F76616C75655F6C6573735F7468616E5F3130 PUSH1 0x0 DUP3 ADD MSTORE PUSH32 0x3000000000000000000000000000000000000000000000000000000000000000 PUSH1 0x20 DUP3 ADD MSTORE POP JUMP JUMPDEST PUSH1 0x0 PUSH2 0x1FAA PUSH1 0x21 DUP4 PUSH2 0x1E3F JUMP JUMPDEST SWAP2 POP PUSH2 0x1FB5 DUP3 PUSH2 0x1F4E JUMP JUMPDEST PUSH1 0x40 DUP3 ADD SWAP1 POP SWAP2 SWAP1 POP JUMP JUMPDEST PUSH1 0x0 PUSH1 0x20 DUP3 ADD SWAP1 POP DUP2 DUP2 SUB PUSH1 0x0 DUP4 ADD MSTORE PUSH2 0x1FD9 DUP2 PUSH2 0x1F9D JUMP JUMPDEST SWAP1 POP SWAP2 SWAP1 POP JUMP JUMPDEST PUSH32 0x4E487B7100000000000000000000000000000000000000000000000000000000 PUSH1 0x0 MSTORE PUSH1 0x11 PUSH1 0x4 MSTORE PUSH1 0x24 PUSH1 0x0 REVERT JUMPDEST PUSH1 0x0 PUSH2 0x201A DUP3 PUSH2 0x194C JUMP JUMPDEST SWAP2 POP PUSH2 0x2025 DUP4 PUSH2 0x194C JUMP JUMPDEST SWAP3 POP DUP2 PUSH32 0xFFFFFFFFFFFFFFFFFFFFFFFFFFFFFFFFFFFFFFFFFFFFFFFFFFFFFFFFFFFFFFFF DIV DUP4 GT DUP3 ISZERO ISZERO AND ISZERO PUSH2 0x205E JUMPI PUSH2 0x205D PUSH2 0x1FE0 JUMP JUMPDEST JUMPDEST DUP3 DUP3 MUL SWAP1 POP SWAP3 SWAP2 POP POP JUMP JUMPDEST PUSH32 0x7472616E736665725F6661696C5F66726F6D5F62616C616E63655F6E6F745F65 PUSH1 0x0 DUP3 ADD MSTORE PUSH32 0x6E6F756768000000000000000000000000000000000000000000000000000000 PUSH1 0x20 DUP3 ADD MSTORE POP JUMP JUMPDEST PUSH1 0x0 PUSH2 0x20C5 PUSH1 0x25 DUP4 PUSH2 0x1E3F JUMP JUMPDEST SWAP2 POP PUSH2 0x20D0 DUP3 PUSH2 0x2069 JUMP JUMPDEST PUSH1 0x40 DUP3 ADD SWAP1 POP SWAP2 SWAP1 POP JUMP JUMPDEST PUSH1 0x0 PUSH1 0x20 DUP3 ADD SWAP1 POP DUP2 DUP2 SUB PUSH1 0x0 DUP4 ADD MSTORE PUSH2 0x20F4 DUP2 PUSH2 0x20B8 JUMP JUMPDEST SWAP1 POP SWAP2 SWAP1 POP JUMP JUMPDEST PUSH32 0x4E487B7100000000000000000000000000000000000000000000000000000000 PUSH1 0x0 MSTORE PUSH1 0x32 PUSH1 0x4 MSTORE PUSH1 0x24 PUSH1 0x0 REVERT JUMPDEST PUSH32 0x7472616E736665725F6661696C5F746F5F6E616D655F6E6F745F657869737400 PUSH1 0x0 DUP3 ADD MSTORE POP JUMP JUMPDEST PUSH1 0x0 PUSH2 0x2160 PUSH1 0x1F DUP4 PUSH2 0x1E3F JUMP JUMPDEST SWAP2 POP PUSH2 0x216B DUP3 PUSH2 0x212A JUMP JUMPDEST PUSH1 0x20 DUP3 ADD SWAP1 POP SWAP2 SWAP1 POP JUMP JUMPDEST PUSH1 0x0 PUSH1 0x20 DUP3 ADD SWAP1 POP DUP2 DUP2 SUB PUSH1 0x0 DUP4 ADD MSTORE PUSH2 0x218F DUP2 PUSH2 0x2153 JUMP JUMPDEST SWAP1 POP SWAP2 SWAP1 POP JUMP JUMPDEST PUSH32 0x4E487B7100000000000000000000000000000000000000000000000000000000 PUSH1 0x0 MSTORE PUSH1 0x12 PUSH1 0x4 MSTORE PUSH1 0x24 PUSH1 0x0 REVERT JUMPDEST PUSH1 0x0 PUSH2 0x21D0 DUP3 PUSH2 0x194C JUMP JUMPDEST SWAP2 POP PUSH2 0x21DB DUP4 PUSH2 0x194C JUMP JUMPDEST SWAP3 POP DUP3 PUSH2 0x21EB JUMPI PUSH2 0x21EA PUSH2 0x2196 JUMP JUMPDEST JUMPDEST DUP3 DUP3 DIV SWAP1 POP SWAP3 SWAP2 POP POP JUMP JUMPDEST PUSH1 0x0 PUSH2 0x2201 DUP3 PUSH2 0x194C JUMP JUMPDEST SWAP2 POP PUSH2 0x220C DUP4 PUSH2 0x194C JUMP JUMPDEST SWAP3 POP DUP3 PUSH32 0xFFFFFFFFFFFFFFFFFFFFFFFFFFFFFFFFFFFFFFFFFFFFFFFFFFFFFFFFFFFFFFFF SUB DUP3 GT ISZERO PUSH2 0x2241 JUMPI PUSH2 0x2240 PUSH2 0x1FE0 JUMP JUMPDEST JUMPDEST DUP3 DUP3 ADD SWAP1 POP SWAP3 SWAP2 POP POP JUMP JUMPDEST PUSH1 0x0 PUSH2 0x2257 DUP3 PUSH2 0x194C JUMP JUMPDEST SWAP2 POP PUSH2 0x2262 DUP4 PUSH2 0x194C JUMP JUMPDEST SWAP3 POP DUP3 DUP3 LT ISZERO PUSH2 0x2275 JUMPI PUSH2 0x2274 PUSH2 0x1FE0 JUMP JUMPDEST JUMPDEST DUP3 DUP3 SUB SWAP1 POP SWAP3 SWAP2 POP POP JUMP JUMPDEST PUSH1 0x0 PUSH2 0x228B DUP3 PUSH2 0x1B93 JUMP JUMPDEST PUSH2 0x2295 DUP2 DUP6 PUSH2 0x1E3F JUMP JUMPDEST SWAP4 POP PUSH2 0x22A5 DUP2 DUP6 PUSH1 0x20 DUP7 ADD PUSH2 0x1BAF JUMP JUMPDEST PUSH2 0x22AE DUP2 PUSH2 0x172A JUMP JUMPDEST DUP5 ADD SWAP2 POP POP SWAP3 SWAP2 POP POP JUMP JUMPDEST PUSH1 0x0 PUSH1 0x60 DUP3 ADD SWAP1 POP DUP2 DUP2 SUB PUSH1 0x0 DUP4 ADD MSTORE PUSH2 0x22D3 DUP2 DUP7 PUSH2 0x2280 JUMP JUMPDEST SWAP1 POP DUP2 DUP2 SUB PUSH1 0x20 DUP4 ADD MSTORE PUSH2 0x22E7 DUP2 DUP6 PUSH2 0x2280 JUMP JUMPDEST SWAP1 POP PUSH2 0x22F6 PUSH1 0x40 DUP4 ADD DUP5 PUSH2 0x1B3D JUMP JUMPDEST SWAP5 SWAP4 POP POP POP POP JUMP JUMPDEST PUSH1 0x0 PUSH2 0x2309 DUP3 PUSH2 0x194C JUMP JUMPDEST SWAP2 POP PUSH32 0xFFFFFFFFFFFFFFFFFFFFFFFFFFFFFFFFFFFFFFFFFFFFFFFFFFFFFFFFFFFFFFFF DUP3 SUB PUSH2 0x233B JUMPI PUSH2 0x233A PUSH2 0x1FE0 JUMP JUMPDEST JUMPDEST PUSH1 0x1 DUP3 ADD SWAP1 POP SWAP2 SWAP1 POP JUMP JUMPDEST PUSH32 0x6164645F6163636F756E745F6661696C5F6E616D655F65786973740000000000 PUSH1 0x0 DUP3 ADD MSTORE POP JUMP JUMPDEST PUSH1 0x0 PUSH2 0x237C PUSH1 0x1B DUP4 PUSH2 0x1E3F JUMP JUMPDEST SWAP2 POP PUSH2 0x2387 DUP3 PUSH2 0x2346 JUMP JUMPDEST PUSH1 0x20 DUP3 ADD SWAP1 POP SWAP2 SWAP1 POP JUMP JUMPDEST PUSH1 0x0 PUSH1 0x20 DUP3 ADD SWAP1 POP DUP2 DUP2 SUB PUSH1 0x0 DUP4 ADD MSTORE PUSH2 0x23AB DUP2 PUSH2 0x236F JUMP JUMPDEST SWAP1 POP SWAP2 SWAP1 POP JUMP JUMPDEST PUSH32 0x4E487B7100000000000000000000000000000000000000000000000000000000 PUSH1 0x0 MSTORE PUSH1 0x22 PUSH1 0x4 MSTORE PUSH1 0x24 PUSH1 0x0 REVERT JUMPDEST PUSH1 0x0 PUSH1 0x2 DUP3 DIV SWAP1 POP PUSH1 0x1 DUP3 AND DUP1 PUSH2 0x23F9 JUMPI PUSH1 0x7F DUP3 AND SWAP2 POP JUMPDEST PUSH1 0x20 DUP3 LT DUP2 SUB PUSH2 0x240C JUMPI PUSH2 0x240B PUSH2 0x23B2 JUMP JUMPDEST JUMPDEST POP SWAP2 SWAP1 POP JUMP JUMPDEST PUSH1 0x0 DUP2 SWAP1 POP DUP2 PUSH1 0x0 MSTORE PUSH1 0x20 PUSH1 0x0 KECCAK256 SWAP1 POP SWAP2 SWAP1 POP JUMP JUMPDEST PUSH1 0x0 PUSH1 0x20 PUSH1 0x1F DUP4 ADD DIV SWAP1 POP SWAP2 SWAP1 POP JUMP JUMPDEST PUSH1 0x0 DUP3 DUP3 SHL SWAP1 POP SWAP3 SWAP2 POP POP JUMP JUMPDEST PUSH1 0x0 PUSH1 0x8 DUP4 MUL PUSH2 0x2474 PUSH32 0xFFFFFFFFFFFFFFFFFFFFFFFFFFFFFFFFFFFFFFFFFFFFFFFFFFFFFFFFFFFFFFFF DUP3 PUSH2 0x2437 JUMP JUMPDEST PUSH2 0x247E DUP7 DUP4 PUSH2 0x2437 JUMP JUMPDEST SWAP6 POP DUP1 NOT DUP5 AND SWAP4 POP DUP1 DUP7 AND DUP5 OR SWAP3 POP POP POP SWAP4 SWAP3 POP POP POP JUMP JUMPDEST PUSH1 0x0 DUP2 SWAP1 POP SWAP2 SWAP1 POP JUMP JUMPDEST PUSH1 0x0 PUSH2 0x24BB PUSH2 0x24B6 PUSH2 0x24B1 DUP5 PUSH2 0x194C JUMP JUMPDEST PUSH2 0x2496 JUMP JUMPDEST PUSH2 0x194C JUMP JUMPDEST SWAP1 POP SWAP2 SWAP1 POP JUMP JUMPDEST PUSH1 0x0 DUP2 SWAP1 POP SWAP2 SWAP1 POP JUMP JUMPDEST PUSH2 0x24D5 DUP4 PUSH2 0x24A0 JUMP JUMPDEST PUSH2 0x24E9 PUSH2 0x24E1 DUP3 PUSH2 0x24C2 JUMP JUMPDEST DUP5 DUP5 SLOAD PUSH2 0x2444 JUMP JUMPDEST DUP3 SSTORE POP POP POP POP JUMP JUMPDEST PUSH1 0x0 SWAP1 JUMP JUMPDEST PUSH2 0x24FE PUSH2 0x24F1 JUMP JUMPDEST PUSH2 0x2509 DUP2 DUP5 DUP5 PUSH2 0x24CC JUMP JUMPDEST POP POP POP JUMP JUMPDEST JUMPDEST DUP2 DUP2 LT ISZERO PUSH2 0x252D JUMPI PUSH2 0x2522 PUSH1 0x0 DUP3 PUSH2 0x24F6 JUMP JUMPDEST PUSH1 0x1 DUP2 ADD SWAP1 POP PUSH2 0x250F JUMP JUMPDEST POP POP JUMP JUMPDEST PUSH1 0x1F DUP3 GT ISZERO PUSH2 0x2572 JUMPI PUSH2 0x2543 DUP2 PUSH2 0x2412 JUMP JUMPDEST PUSH2 0x254C DUP5 PUSH2 0x2427 JUMP JUMPDEST DUP2 ADD PUSH1 0x20 DUP6 LT ISZERO PUSH2 0x255B JUMPI DUP2 SWAP1 POP JUMPDEST PUSH2 0x256F PUSH2 0x2567 DUP6 PUSH2 0x2427 JUMP JUMPDEST DUP4 ADD DUP3 PUSH2 0x250E JUMP JUMPDEST POP POP JUMPDEST POP POP POP JUMP JUMPDEST PUSH1 0x0 DUP3 DUP3 SHR SWAP1 POP SWAP3 SWAP2 POP POP JUMP JUMPDEST PUSH1 0x0 PUSH2 0x2595 PUSH1 0x0 NOT DUP5 PUSH1 0x8 MUL PUSH2 0x2577 JUMP JUMPDEST NOT DUP1 DUP4 AND SWAP2 POP POP SWAP3 SWAP2 POP POP JUMP JUMPDEST PUSH1 0x0 PUSH2 0x25AE DUP4 DUP4 PUSH2 0x2584 JUMP JUMPDEST SWAP2 POP DUP3 PUSH1 0x2 MUL DUP3 OR SWAP1 POP SWAP3 SWAP2 POP POP JUMP JUMPDEST PUSH2 0x25C7 DUP3 PUSH2 0x1B93 JUMP JUMPDEST PUSH8 0xFFFFFFFFFFFFFFFF DUP2 GT ISZERO PUSH2 0x25E0 JUMPI PUSH2 0x25DF PUSH2 0x173B JUMP JUMPDEST JUMPDEST PUSH2 0x25EA DUP3 SLOAD PUSH2 0x23E1 JUMP JUMPDEST PUSH2 0x25F5 DUP3 DUP3 DUP6 PUSH2 0x2531 JUMP JUMPDEST PUSH1 0x0 PUSH1 0x20 SWAP1 POP PUSH1 0x1F DUP4 GT PUSH1 0x1 DUP2 EQ PUSH2 0x2628 JUMPI PUSH1 0x0 DUP5 ISZERO PUSH2 0x2616 JUMPI DUP3 DUP8 ADD MLOAD SWAP1 POP JUMPDEST PUSH2 0x2620 DUP6 DUP3 PUSH2 0x25A2 JUMP JUMPDEST DUP7 SSTORE POP PUSH2 0x2688 JUMP JUMPDEST PUSH1 0x1F NOT DUP5 AND PUSH2 0x2636 DUP7 PUSH2 0x2412 JUMP JUMPDEST PUSH1 0x0 JUMPDEST DUP3 DUP2 LT ISZERO PUSH2 0x265E JUMPI DUP5 DUP10 ADD MLOAD DUP3 SSTORE PUSH1 0x1 DUP3 ADD SWAP2 POP PUSH1 0x20 DUP6 ADD SWAP5 POP PUSH1 0x20 DUP2 ADD SWAP1 POP PUSH2 0x2639 JUMP JUMPDEST DUP7 DUP4 LT ISZERO PUSH2 0x267B JUMPI DUP5 DUP10 ADD MLOAD PUSH2 0x2677 PUSH1 0x1F DUP10 AND DUP3 PUSH2 0x2584 JUMP JUMPDEST DUP4 SSTORE POP JUMPDEST PUSH1 0x1 PUSH1 0x2 DUP9 MUL ADD DUP9 SSTORE POP POP POP JUMPDEST POP POP POP POP POP POP JUMP JUMPDEST PUSH1 0x0 PUSH1 0x40 DUP3 ADD SWAP1 POP PUSH2 0x26A5 PUSH1 0x0 DUP4 ADD DUP6 PUSH2 0x1D05 JUMP JUMPDEST DUP2 DUP2 SUB PUSH1 0x20 DUP4 ADD MSTORE PUSH2 0x26B7 DUP2 DUP5 PUSH2 0x2280 JUMP JUMPDEST SWAP1 POP SWAP4 SWAP3 POP POP POP JUMP JUMPDEST PUSH32 0x77697468647261776E5F6661696C5F6E616D655F6E6F745F6578697374000000 PUSH1 0x0 DUP3 ADD MSTORE POP JUMP JUMPDEST PUSH1 0x0 PUSH2 0x26F6 PUSH1 0x1D DUP4 PUSH2 0x1E3F JUMP JUMPDEST SWAP2 POP PUSH2 0x2701 DUP3 PUSH2 0x26C0 JUMP JUMPDEST PUSH1 0x20 DUP3 ADD SWAP1 POP SWAP2 SWAP1 POP JUMP JUMPDEST PUSH1 0x0 PUSH1 0x20 DUP3 ADD SWAP1 POP DUP2 DUP2 SUB PUSH1 0x0 DUP4 ADD MSTORE PUSH2 0x2725 DUP2 PUSH2 0x26E9 JUMP JUMPDEST SWAP1 POP SWAP2 SWAP1 POP JUMP JUMPDEST PUSH32 0x77697468647261776E5F6661696C5F6E6F745F6F776E65720000000000000000 PUSH1 0x0 DUP3 ADD MSTORE POP JUMP JUMPDEST PUSH1 0x0 PUSH2 0x2762 PUSH1 0x18 DUP4 PUSH2 0x1E3F JUMP JUMPDEST SWAP2 POP PUSH2 0x276D DUP3 PUSH2 0x272C JUMP JUMPDEST PUSH1 0x20 DUP3 ADD SWAP1 POP SWAP2 SWAP1 POP JUMP JUMPDEST PUSH1 0x0 PUSH1 0x20 DUP3 ADD SWAP1 POP DUP2 DUP2 SUB PUSH1 0x0 DUP4 ADD MSTORE PUSH2 0x2791 DUP2 PUSH2 0x2755 JUMP JUMPDEST SWAP1 POP SWAP2 SWAP1 POP JUMP JUMPDEST PUSH32 0x77697468647261776E5F6661696C5F76616C75655F7A65726F00000000000000 PUSH1 0x0 DUP3 ADD MSTORE POP JUMP JUMPDEST PUSH1 0x0 PUSH2 0x27CE PUSH1 0x19 DUP4 PUSH2 0x1E3F JUMP JUMPDEST SWAP2 POP PUSH2 0x27D9 DUP3 PUSH2 0x2798 JUMP JUMPDEST PUSH1 0x20 DUP3 ADD SWAP1 POP SWAP2 SWAP1 POP JUMP JUMPDEST PUSH1 0x0 PUSH1 0x20 DUP3 ADD SWAP1 POP DUP2 DUP2 SUB PUSH1 0x0 DUP4 ADD MSTORE PUSH2 0x27FD DUP2 PUSH2 0x27C1 JUMP JUMPDEST SWAP1 POP SWAP2 SWAP1 POP JUMP JUMPDEST PUSH32 0x77697468647261776E5F6661696C5F62616C616E63655F6E6F745F656E6F7567 PUSH1 0x0 DUP3 ADD MSTORE PUSH32 0x6800000000000000000000000000000000000000000000000000000000000000 PUSH1 0x20 DUP3 ADD MSTORE POP JUMP JUMPDEST PUSH1 0x0 PUSH2 0x2860 PUSH1 0x21 DUP4 PUSH2 0x1E3F JUMP JUMPDEST SWAP2 POP PUSH2 0x286B DUP3 PUSH2 0x2804 JUMP JUMPDEST PUSH1 0x40 DUP3 ADD SWAP1 POP SWAP2 SWAP1 POP JUMP JUMPDEST PUSH1 0x0 PUSH1 0x20 DUP3 ADD SWAP1 POP DUP2 DUP2 SUB PUSH1 0x0 DUP4 ADD MSTORE PUSH2 0x288F DUP2 PUSH2 0x2853 JUMP JUMPDEST SWAP1 POP SWAP2 SWAP1 POP JUMP JUMPDEST PUSH1 0x0 PUSH1 0x60 DUP3 ADD SWAP1 POP DUP2 DUP2 SUB PUSH1 0x0 DUP4 ADD MSTORE PUSH2 0x28B0 DUP2 DUP7 PUSH2 0x2280 JUMP JUMPDEST SWAP1 POP PUSH2 0x28BF PUSH1 0x20 DUP4 ADD DUP6 PUSH2 0x1D05 JUMP JUMPDEST PUSH2 0x28CC PUSH1 0x40 DUP4 ADD DUP5 PUSH2 0x1B3D JUMP JUMPDEST SWAP5 SWAP4 POP POP POP POP JUMP JUMPDEST PUSH32 0x6465706F7369745F6661696C5F6E616D655F6E6F745F65786973740000000000 PUSH1 0x0 DUP3 ADD MSTORE POP JUMP JUMPDEST PUSH1 0x0 PUSH2 0x290A PUSH1 0x1B DUP4 PUSH2 0x1E3F JUMP JUMPDEST SWAP2 POP PUSH2 0x2915 DUP3 PUSH2 0x28D4 JUMP JUMPDEST PUSH1 0x20 DUP3 ADD SWAP1 POP SWAP2 SWAP1 POP JUMP JUMPDEST PUSH1 0x0 PUSH1 0x20 DUP3 ADD SWAP1 POP DUP2 DUP2 SUB PUSH1 0x0 DUP4 ADD MSTORE PUSH2 0x2939 DUP2 PUSH2 0x28FD JUMP JUMPDEST SWAP1 POP SWAP2 SWAP1 POP JUMP JUMPDEST PUSH32 0x6465706F7369745F6661696C5F76616C75655F7A65726F000000000000000000 PUSH1 0x0 DUP3 ADD MSTORE POP JUMP JUMPDEST PUSH1 0x0 PUSH2 0x2976 PUSH1 0x17 DUP4 PUSH2 0x1E3F JUMP JUMPDEST SWAP2 POP PUSH2 0x2981 DUP3 PUSH2 0x2940 JUMP JUMPDEST PUSH1 0x20 DUP3 ADD SWAP1 POP SWAP2 SWAP1 POP JUMP JUMPDEST PUSH1 0x0 PUSH1 0x20 DUP3 ADD SWAP1 POP DUP2 DUP2 SUB PUSH1 0x0 DUP4 ADD MSTORE PUSH2 0x29A5 DUP2 PUSH2 0x2969 JUMP JUMPDEST SWAP1 POP SWAP2 SWAP1 POP JUMP JUMPDEST PUSH1 0x0 PUSH1 0x60 DUP3 ADD SWAP1 POP PUSH2 0x29C1 PUSH1 0x0 DUP4 ADD DUP7 PUSH2 0x1D05 JUMP JUMPDEST DUP2 DUP2 SUB PUSH1 0x20 DUP4 ADD MSTORE PUSH2 0x29D3 DUP2 DUP6 PUSH2 0x2280 JUMP JUMPDEST SWAP1 POP PUSH2 0x29E2 PUSH1 0x40 DUP4 ADD DUP5 PUSH2 0x1B3D JUMP JUMPDEST SWAP5 SWAP4 POP POP POP POP JUMP INVALID LOG2 PUSH5 0x6970667358 0x22 SLT KECCAK256 PUSH3 0x979C96 0x1E CALLER 0xE4 PUSH30 0x2BCC47E2885BBC12B61EF274A95671B935CF40C0ED80FD1E64736F6C6343 STOP ADDMOD 0xF STOP CALLER "
				},
				"gasEstimates": {
					"creation": {
						"codeDepositCost": "2156800",
						"executionCost": "31574",
						"totalCost": "2188374"
					},
					"external": {
						"addAccount(string)": "infinite",
						"deposit(string)": "infinite",
						"getAccountByName(string)": "infinite",
						"getBalanceByName(string)": "infinite",
						"getBankBalance()": "2526",
						"getBankOwner()": "2566",
						"getUserAccounts()": "infinite",
						"transferAmount(string,string,uint256)": "infinite",
						"transferAmountList(string,string[],uint256)": "infinite",
						"withdrawn(string,uint256)": "infinite",
						"withdrawnBankBalance(uint256)": "infinite"
					}
				},
				"methodIdentifiers": {
					"addAccount(string)": "2ad26a04",
					"deposit(string)": "a26e1186",
					"getAccountByName(string)": "df4734ed",
					"getBalanceByName(string)": "ca1ae01c",
					"getBankBalance()": "7b83b50b",
					"getBankOwner()": "b2277d2c",
					"getUserAccounts()": "a43e567a",
					"transferAmount(string,string,uint256)": "5e345810",
					"transferAmountList(string,string[],uint256)": "16dfc5b2",
					"withdrawn(string,uint256)": "358eecb6",
					"withdrawnBankBalance(uint256)": "f8a0e8c3"
				}
			},
			"storageLayout": {
				"storage": [
					{
						"astId": 3,
						"contract": "contracts/SimpleBank/SimpleBank.sol:SimpleBank",
						"label": "bankOwner",
						"offset": 0,
						"slot": "0",
						"type": "t_address"
					},
					{
						"astId": 5,
						"contract": "contracts/SimpleBank/SimpleBank.sol:SimpleBank",
						"label": "bankBalance",
						"offset": 0,
						"slot": "1",
						"type": "t_uint256"
					},
					{
						"astId": 17,
						"contract": "contracts/SimpleBank/SimpleBank.sol:SimpleBank",
						"label": "userAccounts",
						"offset": 0,
						"slot": "2",
						"type": "t_mapping(t_address,t_array(t_string_storage)dyn_storage)"
					},
					{
						"astId": 22,
						"contract": "contracts/SimpleBank/SimpleBank.sol:SimpleBank",
						"label": "accounts",
						"offset": 0,
						"slot": "3",
						"type": "t_mapping(t_string_memory_ptr,t_struct(Account)12_storage)"
					},
					{
						"astId": 26,
						"contract": "contracts/SimpleBank/SimpleBank.sol:SimpleBank",
						"label": "isAccountNameExist",
						"offset": 0,
						"slot": "4",
						"type": "t_mapping(t_string_memory_ptr,t_bool)"
					}
				],
				"types": {
					"t_address": {
						"encoding": "inplace",
						"label": "address",
						"numberOfBytes": "20"
					},
					"t_array(t_string_storage)dyn_storage": {
						"base": "t_string_storage",
						"encoding": "dynamic_array",
						"label": "string[]",
						"numberOfBytes": "32"
					},
					"t_bool": {
						"encoding": "inplace",
						"label": "bool",
						"numberOfBytes": "1"
					},
					"t_mapping(t_address,t_array(t_string_storage)dyn_storage)": {
						"encoding": "mapping",
						"key": "t_address",
						"label": "mapping(address => string[])",
						"numberOfBytes": "32",
						"value": "t_array(t_string_storage)dyn_storage"
					},
					"t_mapping(t_string_memory_ptr,t_bool)": {
						"encoding": "mapping",
						"key": "t_string_memory_ptr",
						"label": "mapping(string => bool)",
						"numberOfBytes": "32",
						"value": "t_bool"
					},
					"t_mapping(t_string_memory_ptr,t_struct(Account)12_storage)": {
						"encoding": "mapping",
						"key": "t_string_memory_ptr",
						"label": "mapping(string => struct SimpleBank.Account)",
						"numberOfBytes": "32",
						"value": "t_struct(Account)12_storage"
					},
					"t_string_memory_ptr": {
						"encoding": "bytes",
						"label": "string",
						"numberOfBytes": "32"
					},
					"t_string_storage": {
						"encoding": "bytes",
						"label": "string",
						"numberOfBytes": "32"
					},
					"t_struct(Account)12_storage": {
						"encoding": "inplace",
						"label": "struct SimpleBank.Account",
						"members": [
							{
								"astId": 7,
								"contract": "contracts/SimpleBank/SimpleBank.sol:SimpleBank",
								"label": "owner",
								"offset": 0,
								"slot": "0",
								"type": "t_address"
							},
							{
								"astId": 9,
								"contract": "contracts/SimpleBank/SimpleBank.sol:SimpleBank",
								"label": "name",
								"offset": 0,
								"slot": "1",
								"type": "t_string_storage"
							},
							{
								"astId": 11,
								"contract": "contracts/SimpleBank/SimpleBank.sol:SimpleBank",
								"label": "balance",
								"offset": 0,
								"slot": "2",
								"type": "t_uint256"
							}
						],
						"numberOfBytes": "96"
					},
					"t_uint256": {
						"encoding": "inplace",
						"label": "uint256",
						"numberOfBytes": "32"
					}
				}
			},
			"userdoc": {
				"kind": "user",
				"methods": {},
				"version": 1
			}
		}
	}
}