{
	"contracts/SimpleBank/SimpleBank.sol": {
		"SimpleBank": {
			"abi": [
				{
					"inputs": [],
					"stateMutability": "nonpayable",
					"type": "constructor"
				},
				{
					"anonymous": false,
					"inputs": [
						{
							"indexed": false,
							"internalType": "address",
							"name": "_user",
							"type": "address"
						},
						{
							"indexed": false,
							"internalType": "string",
							"name": "_name",
							"type": "string"
						}
					],
					"name": "AddAccountEvent",
					"type": "event"
				},
				{
					"anonymous": false,
					"inputs": [
						{
							"indexed": false,
							"internalType": "address",
							"name": "_from",
							"type": "address"
						},
						{
							"indexed": false,
							"internalType": "string",
							"name": "_to",
							"type": "string"
						},
						{
							"indexed": false,
							"internalType": "uint256",
							"name": "_amount",
							"type": "uint256"
						}
					],
					"name": "DepositEvent",
					"type": "event"
				},
				{
					"anonymous": false,
					"inputs": [
						{
							"indexed": false,
							"internalType": "string",
							"name": "_from",
							"type": "string"
						},
						{
							"indexed": false,
							"internalType": "string",
							"name": "_to",
							"type": "string"
						},
						{
							"indexed": false,
							"internalType": "uint256",
							"name": "_amount",
							"type": "uint256"
						}
					],
					"name": "TransferAmountEvent",
					"type": "event"
				},
				{
					"anonymous": false,
					"inputs": [
						{
							"indexed": false,
							"internalType": "string",
							"name": "_from",
							"type": "string"
						},
						{
							"indexed": false,
							"internalType": "address",
							"name": "_to",
							"type": "address"
						},
						{
							"indexed": false,
							"internalType": "uint256",
							"name": "_amount",
							"type": "uint256"
						}
					],
					"name": "WithdrawnEvent",
					"type": "event"
				},
				{
					"inputs": [
						{
							"internalType": "string",
							"name": "_name",
							"type": "string"
						}
					],
					"name": "addAccount",
					"outputs": [],
					"stateMutability": "nonpayable",
					"type": "function"
				},
				{
					"inputs": [
						{
							"internalType": "string",
							"name": "_name",
							"type": "string"
						}
					],
					"name": "deposit",
					"outputs": [],
					"stateMutability": "payable",
					"type": "function"
				},
				{
					"inputs": [
						{
							"internalType": "string",
							"name": "_name",
							"type": "string"
						}
					],
					"name": "getBalanceByName",
					"outputs": [
						{
							"internalType": "uint256",
							"name": "",
							"type": "uint256"
						}
					],
					"stateMutability": "view",
					"type": "function"
				},
				{
					"inputs": [],
					"name": "getBankBalance",
					"outputs": [
						{
							"internalType": "uint256",
							"name": "",
							"type": "uint256"
						}
					],
					"stateMutability": "view",
					"type": "function"
				},
				{
					"inputs": [],
					"name": "getBankOwner",
					"outputs": [
						{
							"internalType": "address",
							"name": "",
							"type": "address"
						}
					],
					"stateMutability": "view",
					"type": "function"
				},
				{
					"inputs": [
						{
							"internalType": "string",
							"name": "_name",
							"type": "string"
						}
					],
					"name": "getOwnerByName",
					"outputs": [
						{
							"internalType": "address",
							"name": "",
							"type": "address"
						}
					],
					"stateMutability": "view",
					"type": "function"
				},
				{
					"inputs": [],
					"name": "getUserAccounts",
					"outputs": [
						{
							"internalType": "string[]",
							"name": "",
							"type": "string[]"
						}
					],
					"stateMutability": "view",
					"type": "function"
				},
				{
					"inputs": [
						{
							"internalType": "string",
							"name": "_from",
							"type": "string"
						},
						{
							"internalType": "string",
							"name": "_to",
							"type": "string"
						},
						{
							"internalType": "uint256",
							"name": "_amount",
							"type": "uint256"
						}
					],
					"name": "transferAmount",
					"outputs": [],
					"stateMutability": "nonpayable",
					"type": "function"
				},
				{
					"inputs": [
						{
							"internalType": "string",
							"name": "_from",
							"type": "string"
						},
						{
							"internalType": "string[]",
							"name": "_tos",
							"type": "string[]"
						},
						{
							"internalType": "uint256",
							"name": "_amount",
							"type": "uint256"
						}
					],
					"name": "transferAmountList",
					"outputs": [],
					"stateMutability": "nonpayable",
					"type": "function"
				},
				{
					"inputs": [
						{
							"internalType": "string",
							"name": "_name",
							"type": "string"
						},
						{
							"internalType": "uint256",
							"name": "_amount",
							"type": "uint256"
						}
					],
					"name": "withdrawn",
					"outputs": [],
					"stateMutability": "nonpayable",
					"type": "function"
				},
				{
					"inputs": [
						{
							"internalType": "uint256",
							"name": "_amount",
							"type": "uint256"
						}
					],
					"name": "withdrawnBankBalance",
					"outputs": [],
					"stateMutability": "nonpayable",
					"type": "function"
				}
			],
			"devdoc": {
				"kind": "dev",
				"methods": {},
				"version": 1
			},
			"evm": {
				"assembly": "    /* \"contracts/SimpleBank/SimpleBank.sol\":62:5735  contract SimpleBank {... */\n  mstore(0x40, 0x80)\n    /* \"contracts/SimpleBank/SimpleBank.sol\":385:466  constructor() {... */\n  callvalue\n  dup1\n  iszero\n  tag_1\n  jumpi\n  0x00\n  dup1\n  revert\ntag_1:\n  pop\n    /* \"contracts/SimpleBank/SimpleBank.sol\":422:432  msg.sender */\n  caller\n    /* \"contracts/SimpleBank/SimpleBank.sol\":410:419  bankOwner */\n  0x00\n  dup1\n    /* \"contracts/SimpleBank/SimpleBank.sol\":410:432  bankOwner = msg.sender */\n  0x0100\n  exp\n  dup2\n  sload\n  dup2\n  0xffffffffffffffffffffffffffffffffffffffff\n  mul\n  not\n  and\n  swap1\n  dup4\n  0xffffffffffffffffffffffffffffffffffffffff\n  and\n  mul\n  or\n  swap1\n  sstore\n  pop\n    /* \"contracts/SimpleBank/SimpleBank.sol\":457:458  0 */\n  0x00\n    /* \"contracts/SimpleBank/SimpleBank.sol\":443:454  bankBalance */\n  0x01\n    /* \"contracts/SimpleBank/SimpleBank.sol\":443:458  bankBalance = 0 */\n  dup2\n  swap1\n  sstore\n  pop\n    /* \"contracts/SimpleBank/SimpleBank.sol\":62:5735  contract SimpleBank {... */\n  dataSize(sub_0)\n  dup1\n  dataOffset(sub_0)\n  0x00\n  codecopy\n  0x00\n  return\nstop\n\nsub_0: assembly {\n        /* \"contracts/SimpleBank/SimpleBank.sol\":62:5735  contract SimpleBank {... */\n      mstore(0x40, 0x80)\n      jumpi(tag_1, lt(calldatasize, 0x04))\n      shr(0xe0, calldataload(0x00))\n      dup1\n      0x7b83b50b\n      gt\n      tag_13\n      jumpi\n      dup1\n      0x7b83b50b\n      eq\n      tag_7\n      jumpi\n      dup1\n      0xa26e1186\n      eq\n      tag_8\n      jumpi\n      dup1\n      0xa43e567a\n      eq\n      tag_9\n      jumpi\n      dup1\n      0xb2277d2c\n      eq\n      tag_10\n      jumpi\n      dup1\n      0xca1ae01c\n      eq\n      tag_11\n      jumpi\n      dup1\n      0xf8a0e8c3\n      eq\n      tag_12\n      jumpi\n      jump(tag_1)\n    tag_13:\n      dup1\n      0x16dfc5b2\n      eq\n      tag_2\n      jumpi\n      dup1\n      0x2ad26a04\n      eq\n      tag_3\n      jumpi\n      dup1\n      0x358eecb6\n      eq\n      tag_4\n      jumpi\n      dup1\n      0x4695bfe6\n      eq\n      tag_5\n      jumpi\n      dup1\n      0x5e345810\n      eq\n      tag_6\n      jumpi\n    tag_1:\n      0x00\n      dup1\n      revert\n        /* \"contracts/SimpleBank/SimpleBank.sol\":3716:5083  function transferAmountList(... */\n    tag_2:\n      callvalue\n      dup1\n      iszero\n      tag_14\n      jumpi\n      0x00\n      dup1\n      revert\n    tag_14:\n      pop\n      tag_15\n      0x04\n      dup1\n      calldatasize\n      sub\n      dup2\n      add\n      swap1\n      tag_16\n      swap2\n      swap1\n      tag_17\n      jump\t// in\n    tag_16:\n      tag_18\n      jump\t// in\n    tag_15:\n      stop\n        /* \"contracts/SimpleBank/SimpleBank.sol\":748:1124  function addAccount(string memory _name) public {... */\n    tag_3:\n      callvalue\n      dup1\n      iszero\n      tag_19\n      jumpi\n      0x00\n      dup1\n      revert\n    tag_19:\n      pop\n      tag_20\n      0x04\n      dup1\n      calldatasize\n      sub\n      dup2\n      add\n      swap1\n      tag_21\n      swap2\n      swap1\n      tag_22\n      jump\t// in\n    tag_21:\n      tag_23\n      jump\t// in\n    tag_20:\n      stop\n        /* \"contracts/SimpleBank/SimpleBank.sol\":1487:2141  function withdrawn(string memory _name, uint256 _amount) public {... */\n    tag_4:\n      callvalue\n      dup1\n      iszero\n      tag_24\n      jumpi\n      0x00\n      dup1\n      revert\n    tag_24:\n      pop\n      tag_25\n      0x04\n      dup1\n      calldatasize\n      sub\n      dup2\n      add\n      swap1\n      tag_26\n      swap2\n      swap1\n      tag_27\n      jump\t// in\n    tag_26:\n      tag_28\n      jump\t// in\n    tag_25:\n      stop\n        /* \"contracts/SimpleBank/SimpleBank.sol\":5091:5245  function getOwnerByName(string memory _name)... */\n    tag_5:\n      callvalue\n      dup1\n      iszero\n      tag_29\n      jumpi\n      0x00\n      dup1\n      revert\n    tag_29:\n      pop\n      tag_30\n      0x04\n      dup1\n      calldatasize\n      sub\n      dup2\n      add\n      swap1\n      tag_31\n      swap2\n      swap1\n      tag_22\n      jump\t// in\n    tag_31:\n      tag_32\n      jump\t// in\n    tag_30:\n      mload(0x40)\n      tag_33\n      swap2\n      swap1\n      tag_34\n      jump\t// in\n    tag_33:\n      mload(0x40)\n      dup1\n      swap2\n      sub\n      swap1\n      return\n        /* \"contracts/SimpleBank/SimpleBank.sol\":2149:3347  function transferAmount(... */\n    tag_6:\n      callvalue\n      dup1\n      iszero\n      tag_35\n      jumpi\n      0x00\n      dup1\n      revert\n    tag_35:\n      pop\n      tag_36\n      0x04\n      dup1\n      calldatasize\n      sub\n      dup2\n      add\n      swap1\n      tag_37\n      swap2\n      swap1\n      tag_38\n      jump\t// in\n    tag_37:\n      tag_39\n      jump\t// in\n    tag_36:\n      stop\n        /* \"contracts/SimpleBank/SimpleBank.sol\":5639:5732  function getBankBalance() public view returns (uint256) {... */\n    tag_7:\n      callvalue\n      dup1\n      iszero\n      tag_40\n      jumpi\n      0x00\n      dup1\n      revert\n    tag_40:\n      pop\n      tag_41\n      tag_42\n      jump\t// in\n    tag_41:\n      mload(0x40)\n      tag_43\n      swap2\n      swap1\n      tag_44\n      jump\t// in\n    tag_43:\n      mload(0x40)\n      dup1\n      swap2\n      sub\n      swap1\n      return\n        /* \"contracts/SimpleBank/SimpleBank.sol\":1132:1479  function deposit(string memory _name) public payable {... */\n    tag_8:\n      tag_45\n      0x04\n      dup1\n      calldatasize\n      sub\n      dup2\n      add\n      swap1\n      tag_46\n      swap2\n      swap1\n      tag_22\n      jump\t// in\n    tag_46:\n      tag_47\n      jump\t// in\n    tag_45:\n      stop\n        /* \"contracts/SimpleBank/SimpleBank.sol\":5419:5534  function getUserAccounts() public view returns (string[] memory) {... */\n    tag_9:\n      callvalue\n      dup1\n      iszero\n      tag_48\n      jumpi\n      0x00\n      dup1\n      revert\n    tag_48:\n      pop\n      tag_49\n      tag_50\n      jump\t// in\n    tag_49:\n      mload(0x40)\n      tag_51\n      swap2\n      swap1\n      tag_52\n      jump\t// in\n    tag_51:\n      mload(0x40)\n      dup1\n      swap2\n      sub\n      swap1\n      return\n        /* \"contracts/SimpleBank/SimpleBank.sol\":5542:5631  function getBankOwner() public view returns (address) {... */\n    tag_10:\n      callvalue\n      dup1\n      iszero\n      tag_53\n      jumpi\n      0x00\n      dup1\n      revert\n    tag_53:\n      pop\n      tag_54\n      tag_55\n      jump\t// in\n    tag_54:\n      mload(0x40)\n      tag_56\n      swap2\n      swap1\n      tag_34\n      jump\t// in\n    tag_56:\n      mload(0x40)\n      dup1\n      swap2\n      sub\n      swap1\n      return\n        /* \"contracts/SimpleBank/SimpleBank.sol\":5253:5411  function getBalanceByName(string memory _name)... */\n    tag_11:\n      callvalue\n      dup1\n      iszero\n      tag_57\n      jumpi\n      0x00\n      dup1\n      revert\n    tag_57:\n      pop\n      tag_58\n      0x04\n      dup1\n      calldatasize\n      sub\n      dup2\n      add\n      swap1\n      tag_59\n      swap2\n      swap1\n      tag_22\n      jump\t// in\n    tag_59:\n      tag_60\n      jump\t// in\n    tag_58:\n      mload(0x40)\n      tag_61\n      swap2\n      swap1\n      tag_44\n      jump\t// in\n    tag_61:\n      mload(0x40)\n      dup1\n      swap2\n      sub\n      swap1\n      return\n        /* \"contracts/SimpleBank/SimpleBank.sol\":3355:3708  function withdrawnBankBalance(uint256 _amount) public {... */\n    tag_12:\n      callvalue\n      dup1\n      iszero\n      tag_62\n      jumpi\n      0x00\n      dup1\n      revert\n    tag_62:\n      pop\n      tag_63\n      0x04\n      dup1\n      calldatasize\n      sub\n      dup2\n      add\n      swap1\n      tag_64\n      swap2\n      swap1\n      tag_65\n      jump\t// in\n    tag_64:\n      tag_66\n      jump\t// in\n    tag_63:\n      stop\n        /* \"contracts/SimpleBank/SimpleBank.sol\":3716:5083  function transferAmountList(... */\n    tag_18:\n        /* \"contracts/SimpleBank/SimpleBank.sol\":3907:3911  true */\n      0x01\n        /* \"contracts/SimpleBank/SimpleBank.sol\":3878:3911  isAccountNameExist[_from] == true */\n      iszero\n      iszero\n        /* \"contracts/SimpleBank/SimpleBank.sol\":3878:3896  isAccountNameExist */\n      0x04\n        /* \"contracts/SimpleBank/SimpleBank.sol\":3897:3902  _from */\n      dup5\n        /* \"contracts/SimpleBank/SimpleBank.sol\":3878:3903  isAccountNameExist[_from] */\n      mload(0x40)\n      tag_68\n      swap2\n      swap1\n      tag_69\n      jump\t// in\n    tag_68:\n      swap1\n      dup2\n      mstore\n      0x20\n      add\n      mload(0x40)\n      dup1\n      swap2\n      sub\n      swap1\n      keccak256\n      0x00\n      swap1\n      sload\n      swap1\n      0x0100\n      exp\n      swap1\n      div\n      0xff\n      and\n        /* \"contracts/SimpleBank/SimpleBank.sol\":3878:3911  isAccountNameExist[_from] == true */\n      iszero\n      iszero\n      eq\n        /* \"contracts/SimpleBank/SimpleBank.sol\":3856:3972  require(... */\n      tag_70\n      jumpi\n      mload(0x40)\n      0x08c379a000000000000000000000000000000000000000000000000000000000\n      dup2\n      mstore\n      0x04\n      add\n      tag_71\n      swap1\n      tag_72\n      jump\t// in\n    tag_71:\n      mload(0x40)\n      dup1\n      swap2\n      sub\n      swap1\n      revert\n    tag_70:\n        /* \"contracts/SimpleBank/SimpleBank.sol\":4030:4040  msg.sender */\n      caller\n        /* \"contracts/SimpleBank/SimpleBank.sol\":4005:4040  accounts[_from].owner == msg.sender */\n      0xffffffffffffffffffffffffffffffffffffffff\n      and\n        /* \"contracts/SimpleBank/SimpleBank.sol\":4005:4013  accounts */\n      0x03\n        /* \"contracts/SimpleBank/SimpleBank.sol\":4014:4019  _from */\n      dup5\n        /* \"contracts/SimpleBank/SimpleBank.sol\":4005:4020  accounts[_from] */\n      mload(0x40)\n      tag_73\n      swap2\n      swap1\n      tag_69\n      jump\t// in\n    tag_73:\n      swap1\n      dup2\n      mstore\n      0x20\n      add\n      mload(0x40)\n      dup1\n      swap2\n      sub\n      swap1\n      keccak256\n        /* \"contracts/SimpleBank/SimpleBank.sol\":4005:4026  accounts[_from].owner */\n      0x00\n      add\n      0x00\n      swap1\n      sload\n      swap1\n      0x0100\n      exp\n      swap1\n      div\n      0xffffffffffffffffffffffffffffffffffffffff\n      and\n        /* \"contracts/SimpleBank/SimpleBank.sol\":4005:4040  accounts[_from].owner == msg.sender */\n      0xffffffffffffffffffffffffffffffffffffffff\n      and\n      eq\n        /* \"contracts/SimpleBank/SimpleBank.sol\":3983:4096  require(... */\n      tag_74\n      jumpi\n      mload(0x40)\n      0x08c379a000000000000000000000000000000000000000000000000000000000\n      dup2\n      mstore\n      0x04\n      add\n      tag_75\n      swap1\n      tag_76\n      jump\t// in\n    tag_75:\n      mload(0x40)\n      dup1\n      swap2\n      sub\n      swap1\n      revert\n    tag_74:\n        /* \"contracts/SimpleBank/SimpleBank.sol\":4126:4129  100 */\n      0x64\n        /* \"contracts/SimpleBank/SimpleBank.sol\":4115:4122  _amount */\n      dup2\n        /* \"contracts/SimpleBank/SimpleBank.sol\":4115:4129  _amount >= 100 */\n      lt\n      iszero\n        /* \"contracts/SimpleBank/SimpleBank.sol\":4107:4167  require(_amount >= 100, \"transfer_fail_value_less_than_100\") */\n      tag_77\n      jumpi\n      mload(0x40)\n      0x08c379a000000000000000000000000000000000000000000000000000000000\n      dup2\n      mstore\n      0x04\n      add\n      tag_78\n      swap1\n      tag_79\n      jump\t// in\n    tag_78:\n      mload(0x40)\n      dup1\n      swap2\n      sub\n      swap1\n      revert\n    tag_77:\n        /* \"contracts/SimpleBank/SimpleBank.sol\":4237:4241  _tos */\n      dup2\n        /* \"contracts/SimpleBank/SimpleBank.sol\":4237:4248  _tos.length */\n      mload\n        /* \"contracts/SimpleBank/SimpleBank.sol\":4227:4234  _amount */\n      dup2\n        /* \"contracts/SimpleBank/SimpleBank.sol\":4227:4248  _amount * _tos.length */\n      tag_80\n      swap2\n      swap1\n      tag_81\n      jump\t// in\n    tag_80:\n        /* \"contracts/SimpleBank/SimpleBank.sol\":4200:4208  accounts */\n      0x03\n        /* \"contracts/SimpleBank/SimpleBank.sol\":4209:4214  _from */\n      dup5\n        /* \"contracts/SimpleBank/SimpleBank.sol\":4200:4215  accounts[_from] */\n      mload(0x40)\n      tag_82\n      swap2\n      swap1\n      tag_69\n      jump\t// in\n    tag_82:\n      swap1\n      dup2\n      mstore\n      0x20\n      add\n      mload(0x40)\n      dup1\n      swap2\n      sub\n      swap1\n      keccak256\n        /* \"contracts/SimpleBank/SimpleBank.sol\":4200:4223  accounts[_from].balance */\n      0x02\n      add\n      sload\n        /* \"contracts/SimpleBank/SimpleBank.sol\":4200:4248  accounts[_from].balance >= _amount * _tos.length */\n      lt\n      iszero\n        /* \"contracts/SimpleBank/SimpleBank.sol\":4178:4313  require(... */\n      tag_83\n      jumpi\n      mload(0x40)\n      0x08c379a000000000000000000000000000000000000000000000000000000000\n      dup2\n      mstore\n      0x04\n      add\n      tag_84\n      swap1\n      tag_85\n      jump\t// in\n    tag_84:\n      mload(0x40)\n      dup1\n      swap2\n      sub\n      swap1\n      revert\n    tag_83:\n        /* \"contracts/SimpleBank/SimpleBank.sol\":4329:4338  uint256 i */\n      0x00\n        /* \"contracts/SimpleBank/SimpleBank.sol\":4324:5076  for (uint256 i = 0; i < _tos.length; i++) {... */\n    tag_86:\n        /* \"contracts/SimpleBank/SimpleBank.sol\":4348:4352  _tos */\n      dup3\n        /* \"contracts/SimpleBank/SimpleBank.sol\":4348:4359  _tos.length */\n      mload\n        /* \"contracts/SimpleBank/SimpleBank.sol\":4344:4345  i */\n      dup2\n        /* \"contracts/SimpleBank/SimpleBank.sol\":4344:4359  i < _tos.length */\n      lt\n        /* \"contracts/SimpleBank/SimpleBank.sol\":4324:5076  for (uint256 i = 0; i < _tos.length; i++) {... */\n      iszero\n      tag_87\n      jumpi\n        /* \"contracts/SimpleBank/SimpleBank.sol\":4438:4442  true */\n      0x01\n        /* \"contracts/SimpleBank/SimpleBank.sol\":4407:4442  isAccountNameExist[_tos[i]] == true */\n      iszero\n      iszero\n        /* \"contracts/SimpleBank/SimpleBank.sol\":4407:4425  isAccountNameExist */\n      0x04\n        /* \"contracts/SimpleBank/SimpleBank.sol\":4426:4430  _tos */\n      dup5\n        /* \"contracts/SimpleBank/SimpleBank.sol\":4431:4432  i */\n      dup4\n        /* \"contracts/SimpleBank/SimpleBank.sol\":4426:4433  _tos[i] */\n      dup2\n      mload\n      dup2\n      lt\n      tag_89\n      jumpi\n      tag_90\n      tag_91\n      jump\t// in\n    tag_90:\n    tag_89:\n      0x20\n      mul\n      0x20\n      add\n      add\n      mload\n        /* \"contracts/SimpleBank/SimpleBank.sol\":4407:4434  isAccountNameExist[_tos[i]] */\n      mload(0x40)\n      tag_92\n      swap2\n      swap1\n      tag_69\n      jump\t// in\n    tag_92:\n      swap1\n      dup2\n      mstore\n      0x20\n      add\n      mload(0x40)\n      dup1\n      swap2\n      sub\n      swap1\n      keccak256\n      0x00\n      swap1\n      sload\n      swap1\n      0x0100\n      exp\n      swap1\n      div\n      0xff\n      and\n        /* \"contracts/SimpleBank/SimpleBank.sol\":4407:4442  isAccountNameExist[_tos[i]] == true */\n      iszero\n      iszero\n      eq\n        /* \"contracts/SimpleBank/SimpleBank.sol\":4381:4509  require(... */\n      tag_93\n      jumpi\n      mload(0x40)\n      0x08c379a000000000000000000000000000000000000000000000000000000000\n      dup2\n      mstore\n      0x04\n      add\n      tag_94\n      swap1\n      tag_95\n      jump\t// in\n    tag_94:\n      mload(0x40)\n      dup1\n      swap2\n      sub\n      swap1\n      revert\n    tag_93:\n        /* \"contracts/SimpleBank/SimpleBank.sol\":4553:4561  accounts */\n      0x03\n        /* \"contracts/SimpleBank/SimpleBank.sol\":4562:4566  _tos */\n      dup4\n        /* \"contracts/SimpleBank/SimpleBank.sol\":4567:4568  i */\n      dup3\n        /* \"contracts/SimpleBank/SimpleBank.sol\":4562:4569  _tos[i] */\n      dup2\n      mload\n      dup2\n      lt\n      tag_96\n      jumpi\n      tag_97\n      tag_91\n      jump\t// in\n    tag_97:\n    tag_96:\n      0x20\n      mul\n      0x20\n      add\n      add\n      mload\n        /* \"contracts/SimpleBank/SimpleBank.sol\":4553:4570  accounts[_tos[i]] */\n      mload(0x40)\n      tag_98\n      swap2\n      swap1\n      tag_69\n      jump\t// in\n    tag_98:\n      swap1\n      dup2\n      mstore\n      0x20\n      add\n      mload(0x40)\n      dup1\n      swap2\n      sub\n      swap1\n      keccak256\n        /* \"contracts/SimpleBank/SimpleBank.sol\":4553:4576  accounts[_tos[i]].owner */\n      0x00\n      add\n      0x00\n      swap1\n      sload\n      swap1\n      0x0100\n      exp\n      swap1\n      div\n      0xffffffffffffffffffffffffffffffffffffffff\n      and\n        /* \"contracts/SimpleBank/SimpleBank.sol\":4528:4576  accounts[_from].owner != accounts[_tos[i]].owner */\n      0xffffffffffffffffffffffffffffffffffffffff\n      and\n        /* \"contracts/SimpleBank/SimpleBank.sol\":4528:4536  accounts */\n      0x03\n        /* \"contracts/SimpleBank/SimpleBank.sol\":4537:4542  _from */\n      dup6\n        /* \"contracts/SimpleBank/SimpleBank.sol\":4528:4543  accounts[_from] */\n      mload(0x40)\n      tag_99\n      swap2\n      swap1\n      tag_69\n      jump\t// in\n    tag_99:\n      swap1\n      dup2\n      mstore\n      0x20\n      add\n      mload(0x40)\n      dup1\n      swap2\n      sub\n      swap1\n      keccak256\n        /* \"contracts/SimpleBank/SimpleBank.sol\":4528:4549  accounts[_from].owner */\n      0x00\n      add\n      0x00\n      swap1\n      sload\n      swap1\n      0x0100\n      exp\n      swap1\n      div\n      0xffffffffffffffffffffffffffffffffffffffff\n      and\n        /* \"contracts/SimpleBank/SimpleBank.sol\":4528:4576  accounts[_from].owner != accounts[_tos[i]].owner */\n      0xffffffffffffffffffffffffffffffffffffffff\n      and\n      eq\n        /* \"contracts/SimpleBank/SimpleBank.sol\":4524:5065  if (accounts[_from].owner != accounts[_tos[i]].owner) {... */\n      tag_100\n      jumpi\n        /* \"contracts/SimpleBank/SimpleBank.sol\":4597:4608  uint256 fee */\n      0x00\n        /* \"contracts/SimpleBank/SimpleBank.sol\":4621:4624  100 */\n      0x64\n        /* \"contracts/SimpleBank/SimpleBank.sol\":4611:4618  _amount */\n      dup4\n        /* \"contracts/SimpleBank/SimpleBank.sol\":4611:4624  _amount / 100 */\n      tag_101\n      swap2\n      swap1\n      tag_102\n      jump\t// in\n    tag_101:\n        /* \"contracts/SimpleBank/SimpleBank.sol\":4597:4624  uint256 fee = _amount / 100 */\n      swap1\n      pop\n        /* \"contracts/SimpleBank/SimpleBank.sol\":4658:4661  fee */\n      dup1\n        /* \"contracts/SimpleBank/SimpleBank.sol\":4643:4654  bankBalance */\n      0x01\n      0x00\n        /* \"contracts/SimpleBank/SimpleBank.sol\":4643:4661  bankBalance += fee */\n      dup3\n      dup3\n      sload\n      tag_103\n      swap2\n      swap1\n      tag_104\n      jump\t// in\n    tag_103:\n      swap3\n      pop\n      pop\n      dup2\n      swap1\n      sstore\n      pop\n        /* \"contracts/SimpleBank/SimpleBank.sol\":4707:4714  _amount */\n      dup3\n        /* \"contracts/SimpleBank/SimpleBank.sol\":4680:4688  accounts */\n      0x03\n        /* \"contracts/SimpleBank/SimpleBank.sol\":4689:4694  _from */\n      dup7\n        /* \"contracts/SimpleBank/SimpleBank.sol\":4680:4695  accounts[_from] */\n      mload(0x40)\n      tag_105\n      swap2\n      swap1\n      tag_69\n      jump\t// in\n    tag_105:\n      swap1\n      dup2\n      mstore\n      0x20\n      add\n      mload(0x40)\n      dup1\n      swap2\n      sub\n      swap1\n      keccak256\n        /* \"contracts/SimpleBank/SimpleBank.sol\":4680:4703  accounts[_from].balance */\n      0x02\n      add\n      0x00\n        /* \"contracts/SimpleBank/SimpleBank.sol\":4680:4714  accounts[_from].balance -= _amount */\n      dup3\n      dup3\n      sload\n      tag_106\n      swap2\n      swap1\n      tag_107\n      jump\t// in\n    tag_106:\n      swap3\n      pop\n      pop\n      dup2\n      swap1\n      sstore\n      pop\n        /* \"contracts/SimpleBank/SimpleBank.sol\":4773:4776  fee */\n      dup1\n        /* \"contracts/SimpleBank/SimpleBank.sol\":4763:4770  _amount */\n      dup4\n        /* \"contracts/SimpleBank/SimpleBank.sol\":4763:4776  _amount - fee */\n      tag_108\n      swap2\n      swap1\n      tag_107\n      jump\t// in\n    tag_108:\n        /* \"contracts/SimpleBank/SimpleBank.sol\":4733:4741  accounts */\n      0x03\n        /* \"contracts/SimpleBank/SimpleBank.sol\":4742:4746  _tos */\n      dup6\n        /* \"contracts/SimpleBank/SimpleBank.sol\":4747:4748  i */\n      dup5\n        /* \"contracts/SimpleBank/SimpleBank.sol\":4742:4749  _tos[i] */\n      dup2\n      mload\n      dup2\n      lt\n      tag_109\n      jumpi\n      tag_110\n      tag_91\n      jump\t// in\n    tag_110:\n    tag_109:\n      0x20\n      mul\n      0x20\n      add\n      add\n      mload\n        /* \"contracts/SimpleBank/SimpleBank.sol\":4733:4750  accounts[_tos[i]] */\n      mload(0x40)\n      tag_111\n      swap2\n      swap1\n      tag_69\n      jump\t// in\n    tag_111:\n      swap1\n      dup2\n      mstore\n      0x20\n      add\n      mload(0x40)\n      dup1\n      swap2\n      sub\n      swap1\n      keccak256\n        /* \"contracts/SimpleBank/SimpleBank.sol\":4733:4758  accounts[_tos[i]].balance */\n      0x02\n      add\n      0x00\n        /* \"contracts/SimpleBank/SimpleBank.sol\":4733:4777  accounts[_tos[i]].balance += (_amount - fee) */\n      dup3\n      dup3\n      sload\n      tag_112\n      swap2\n      swap1\n      tag_104\n      jump\t// in\n    tag_112:\n      swap3\n      pop\n      pop\n      dup2\n      swap1\n      sstore\n      pop\n        /* \"contracts/SimpleBank/SimpleBank.sol\":4801:4851  TransferAmountEvent(_from, _tos[i], _amount - fee) */\n      0x370044a47246afacf081fd58c8468a6482ebc8673d418e785b8d0492240f95de\n        /* \"contracts/SimpleBank/SimpleBank.sol\":4821:4826  _from */\n      dup6\n        /* \"contracts/SimpleBank/SimpleBank.sol\":4828:4832  _tos */\n      dup6\n        /* \"contracts/SimpleBank/SimpleBank.sol\":4833:4834  i */\n      dup5\n        /* \"contracts/SimpleBank/SimpleBank.sol\":4828:4835  _tos[i] */\n      dup2\n      mload\n      dup2\n      lt\n      tag_113\n      jumpi\n      tag_114\n      tag_91\n      jump\t// in\n    tag_114:\n    tag_113:\n      0x20\n      mul\n      0x20\n      add\n      add\n      mload\n        /* \"contracts/SimpleBank/SimpleBank.sol\":4847:4850  fee */\n      dup4\n        /* \"contracts/SimpleBank/SimpleBank.sol\":4837:4844  _amount */\n      dup7\n        /* \"contracts/SimpleBank/SimpleBank.sol\":4837:4850  _amount - fee */\n      tag_115\n      swap2\n      swap1\n      tag_107\n      jump\t// in\n    tag_115:\n        /* \"contracts/SimpleBank/SimpleBank.sol\":4801:4851  TransferAmountEvent(_from, _tos[i], _amount - fee) */\n      mload(0x40)\n      tag_116\n      swap4\n      swap3\n      swap2\n      swap1\n      tag_117\n      jump\t// in\n    tag_116:\n      mload(0x40)\n      dup1\n      swap2\n      sub\n      swap1\n      log1\n        /* \"contracts/SimpleBank/SimpleBank.sol\":4578:4867  {... */\n      pop\n        /* \"contracts/SimpleBank/SimpleBank.sol\":4524:5065  if (accounts[_from].owner != accounts[_tos[i]].owner) {... */\n      jump(tag_118)\n    tag_100:\n        /* \"contracts/SimpleBank/SimpleBank.sol\":4919:4926  _amount */\n      dup2\n        /* \"contracts/SimpleBank/SimpleBank.sol\":4892:4900  accounts */\n      0x03\n        /* \"contracts/SimpleBank/SimpleBank.sol\":4901:4906  _from */\n      dup6\n        /* \"contracts/SimpleBank/SimpleBank.sol\":4892:4907  accounts[_from] */\n      mload(0x40)\n      tag_119\n      swap2\n      swap1\n      tag_69\n      jump\t// in\n    tag_119:\n      swap1\n      dup2\n      mstore\n      0x20\n      add\n      mload(0x40)\n      dup1\n      swap2\n      sub\n      swap1\n      keccak256\n        /* \"contracts/SimpleBank/SimpleBank.sol\":4892:4915  accounts[_from].balance */\n      0x02\n      add\n      0x00\n        /* \"contracts/SimpleBank/SimpleBank.sol\":4892:4926  accounts[_from].balance -= _amount */\n      dup3\n      dup3\n      sload\n      tag_120\n      swap2\n      swap1\n      tag_107\n      jump\t// in\n    tag_120:\n      swap3\n      pop\n      pop\n      dup2\n      swap1\n      sstore\n      pop\n        /* \"contracts/SimpleBank/SimpleBank.sol\":4974:4981  _amount */\n      dup2\n        /* \"contracts/SimpleBank/SimpleBank.sol\":4945:4953  accounts */\n      0x03\n        /* \"contracts/SimpleBank/SimpleBank.sol\":4954:4958  _tos */\n      dup5\n        /* \"contracts/SimpleBank/SimpleBank.sol\":4959:4960  i */\n      dup4\n        /* \"contracts/SimpleBank/SimpleBank.sol\":4954:4961  _tos[i] */\n      dup2\n      mload\n      dup2\n      lt\n      tag_121\n      jumpi\n      tag_122\n      tag_91\n      jump\t// in\n    tag_122:\n    tag_121:\n      0x20\n      mul\n      0x20\n      add\n      add\n      mload\n        /* \"contracts/SimpleBank/SimpleBank.sol\":4945:4962  accounts[_tos[i]] */\n      mload(0x40)\n      tag_123\n      swap2\n      swap1\n      tag_69\n      jump\t// in\n    tag_123:\n      swap1\n      dup2\n      mstore\n      0x20\n      add\n      mload(0x40)\n      dup1\n      swap2\n      sub\n      swap1\n      keccak256\n        /* \"contracts/SimpleBank/SimpleBank.sol\":4945:4970  accounts[_tos[i]].balance */\n      0x02\n      add\n      0x00\n        /* \"contracts/SimpleBank/SimpleBank.sol\":4945:4981  accounts[_tos[i]].balance += _amount */\n      dup3\n      dup3\n      sload\n      tag_124\n      swap2\n      swap1\n      tag_104\n      jump\t// in\n    tag_124:\n      swap3\n      pop\n      pop\n      dup2\n      swap1\n      sstore\n      pop\n        /* \"contracts/SimpleBank/SimpleBank.sol\":5005:5049  TransferAmountEvent(_from, _tos[i], _amount) */\n      0x370044a47246afacf081fd58c8468a6482ebc8673d418e785b8d0492240f95de\n        /* \"contracts/SimpleBank/SimpleBank.sol\":5025:5030  _from */\n      dup5\n        /* \"contracts/SimpleBank/SimpleBank.sol\":5032:5036  _tos */\n      dup5\n        /* \"contracts/SimpleBank/SimpleBank.sol\":5037:5038  i */\n      dup4\n        /* \"contracts/SimpleBank/SimpleBank.sol\":5032:5039  _tos[i] */\n      dup2\n      mload\n      dup2\n      lt\n      tag_125\n      jumpi\n      tag_126\n      tag_91\n      jump\t// in\n    tag_126:\n    tag_125:\n      0x20\n      mul\n      0x20\n      add\n      add\n      mload\n        /* \"contracts/SimpleBank/SimpleBank.sol\":5041:5048  _amount */\n      dup5\n        /* \"contracts/SimpleBank/SimpleBank.sol\":5005:5049  TransferAmountEvent(_from, _tos[i], _amount) */\n      mload(0x40)\n      tag_127\n      swap4\n      swap3\n      swap2\n      swap1\n      tag_117\n      jump\t// in\n    tag_127:\n      mload(0x40)\n      dup1\n      swap2\n      sub\n      swap1\n      log1\n        /* \"contracts/SimpleBank/SimpleBank.sol\":4524:5065  if (accounts[_from].owner != accounts[_tos[i]].owner) {... */\n    tag_118:\n        /* \"contracts/SimpleBank/SimpleBank.sol\":4361:4364  i++ */\n      dup1\n      dup1\n      tag_128\n      swap1\n      tag_129\n      jump\t// in\n    tag_128:\n      swap2\n      pop\n      pop\n        /* \"contracts/SimpleBank/SimpleBank.sol\":4324:5076  for (uint256 i = 0; i < _tos.length; i++) {... */\n      jump(tag_86)\n    tag_87:\n      pop\n        /* \"contracts/SimpleBank/SimpleBank.sol\":3716:5083  function transferAmountList(... */\n      pop\n      pop\n      pop\n      jump\t// out\n        /* \"contracts/SimpleBank/SimpleBank.sol\":748:1124  function addAccount(string memory _name) public {... */\n    tag_23:\n        /* \"contracts/SimpleBank/SimpleBank.sol\":858:863  false */\n      0x00\n        /* \"contracts/SimpleBank/SimpleBank.sol\":829:863  isAccountNameExist[_name] == false */\n      iszero\n      iszero\n        /* \"contracts/SimpleBank/SimpleBank.sol\":829:847  isAccountNameExist */\n      0x04\n        /* \"contracts/SimpleBank/SimpleBank.sol\":848:853  _name */\n      dup3\n        /* \"contracts/SimpleBank/SimpleBank.sol\":829:854  isAccountNameExist[_name] */\n      mload(0x40)\n      tag_131\n      swap2\n      swap1\n      tag_69\n      jump\t// in\n    tag_131:\n      swap1\n      dup2\n      mstore\n      0x20\n      add\n      mload(0x40)\n      dup1\n      swap2\n      sub\n      swap1\n      keccak256\n      0x00\n      swap1\n      sload\n      swap1\n      0x0100\n      exp\n      swap1\n      div\n      0xff\n      and\n        /* \"contracts/SimpleBank/SimpleBank.sol\":829:863  isAccountNameExist[_name] == false */\n      iszero\n      iszero\n      eq\n        /* \"contracts/SimpleBank/SimpleBank.sol\":807:918  require(... */\n      tag_132\n      jumpi\n      mload(0x40)\n      0x08c379a000000000000000000000000000000000000000000000000000000000\n      dup2\n      mstore\n      0x04\n      add\n      tag_133\n      swap1\n      tag_134\n      jump\t// in\n    tag_133:\n      mload(0x40)\n      dup1\n      swap2\n      sub\n      swap1\n      revert\n    tag_132:\n        /* \"contracts/SimpleBank/SimpleBank.sol\":947:976  Account(msg.sender, _name, 0) */\n      mload(0x40)\n      dup1\n      0x60\n      add\n      0x40\n      mstore\n      dup1\n        /* \"contracts/SimpleBank/SimpleBank.sol\":955:965  msg.sender */\n      caller\n        /* \"contracts/SimpleBank/SimpleBank.sol\":947:976  Account(msg.sender, _name, 0) */\n      0xffffffffffffffffffffffffffffffffffffffff\n      and\n      dup2\n      mstore\n      0x20\n      add\n        /* \"contracts/SimpleBank/SimpleBank.sol\":967:972  _name */\n      dup3\n        /* \"contracts/SimpleBank/SimpleBank.sol\":947:976  Account(msg.sender, _name, 0) */\n      dup2\n      mstore\n      0x20\n      add\n        /* \"contracts/SimpleBank/SimpleBank.sol\":974:975  0 */\n      0x00\n        /* \"contracts/SimpleBank/SimpleBank.sol\":947:976  Account(msg.sender, _name, 0) */\n      dup2\n      mstore\n      pop\n        /* \"contracts/SimpleBank/SimpleBank.sol\":929:937  accounts */\n      0x03\n        /* \"contracts/SimpleBank/SimpleBank.sol\":938:943  _name */\n      dup3\n        /* \"contracts/SimpleBank/SimpleBank.sol\":929:944  accounts[_name] */\n      mload(0x40)\n      tag_135\n      swap2\n      swap1\n      tag_69\n      jump\t// in\n    tag_135:\n      swap1\n      dup2\n      mstore\n      0x20\n      add\n      mload(0x40)\n      dup1\n      swap2\n      sub\n      swap1\n      keccak256\n        /* \"contracts/SimpleBank/SimpleBank.sol\":929:976  accounts[_name] = Account(msg.sender, _name, 0) */\n      0x00\n      dup3\n      add\n      mload\n      dup2\n      0x00\n      add\n      exp(0x0100, 0x00)\n      dup2\n      sload\n      dup2\n      0xffffffffffffffffffffffffffffffffffffffff\n      mul\n      not\n      and\n      swap1\n      dup4\n      0xffffffffffffffffffffffffffffffffffffffff\n      and\n      mul\n      or\n      swap1\n      sstore\n      pop\n      0x20\n      dup3\n      add\n      mload\n      dup2\n      0x01\n      add\n      swap1\n      dup2\n      tag_136\n      swap2\n      swap1\n      tag_137\n      jump\t// in\n    tag_136:\n      pop\n      0x40\n      dup3\n      add\n      mload\n      dup2\n      0x02\n      add\n      sstore\n      swap1\n      pop\n      pop\n        /* \"contracts/SimpleBank/SimpleBank.sol\":987:999  userAccounts */\n      0x02\n        /* \"contracts/SimpleBank/SimpleBank.sol\":987:1011  userAccounts[msg.sender] */\n      0x00\n        /* \"contracts/SimpleBank/SimpleBank.sol\":1000:1010  msg.sender */\n      caller\n        /* \"contracts/SimpleBank/SimpleBank.sol\":987:1011  userAccounts[msg.sender] */\n      0xffffffffffffffffffffffffffffffffffffffff\n      and\n      0xffffffffffffffffffffffffffffffffffffffff\n      and\n      dup2\n      mstore\n      0x20\n      add\n      swap1\n      dup2\n      mstore\n      0x20\n      add\n      0x00\n      keccak256\n        /* \"contracts/SimpleBank/SimpleBank.sol\":1017:1022  _name */\n      dup2\n        /* \"contracts/SimpleBank/SimpleBank.sol\":987:1023  userAccounts[msg.sender].push(_name) */\n      swap1\n      dup1\n      0x01\n      dup2\n      sload\n      add\n      dup1\n      dup3\n      sstore\n      dup1\n      swap2\n      pop\n      pop\n      0x01\n      swap1\n      sub\n      swap1\n      0x00\n      mstore\n      keccak256(0x00, 0x20)\n      add\n      0x00\n      swap1\n      swap2\n      swap1\n      swap2\n      swap1\n      swap2\n      pop\n      swap1\n      dup2\n      tag_139\n      swap2\n      swap1\n      tag_137\n      jump\t// in\n    tag_139:\n      pop\n        /* \"contracts/SimpleBank/SimpleBank.sol\":1062:1066  true */\n      0x01\n        /* \"contracts/SimpleBank/SimpleBank.sol\":1034:1052  isAccountNameExist */\n      0x04\n        /* \"contracts/SimpleBank/SimpleBank.sol\":1053:1058  _name */\n      dup3\n        /* \"contracts/SimpleBank/SimpleBank.sol\":1034:1059  isAccountNameExist[_name] */\n      mload(0x40)\n      tag_140\n      swap2\n      swap1\n      tag_69\n      jump\t// in\n    tag_140:\n      swap1\n      dup2\n      mstore\n      0x20\n      add\n      mload(0x40)\n      dup1\n      swap2\n      sub\n      swap1\n      keccak256\n      0x00\n        /* \"contracts/SimpleBank/SimpleBank.sol\":1034:1066  isAccountNameExist[_name] = true */\n      0x0100\n      exp\n      dup2\n      sload\n      dup2\n      0xff\n      mul\n      not\n      and\n      swap1\n      dup4\n      iszero\n      iszero\n      mul\n      or\n      swap1\n      sstore\n      pop\n        /* \"contracts/SimpleBank/SimpleBank.sol\":1082:1116  AddAccountEvent(msg.sender, _name) */\n      0xb4833c10b628b390dd18880f97a54f11eae38c84eb68171f9a11b0fd7855fadf\n        /* \"contracts/SimpleBank/SimpleBank.sol\":1098:1108  msg.sender */\n      caller\n        /* \"contracts/SimpleBank/SimpleBank.sol\":1110:1115  _name */\n      dup3\n        /* \"contracts/SimpleBank/SimpleBank.sol\":1082:1116  AddAccountEvent(msg.sender, _name) */\n      mload(0x40)\n      tag_141\n      swap3\n      swap2\n      swap1\n      tag_142\n      jump\t// in\n    tag_141:\n      mload(0x40)\n      dup1\n      swap2\n      sub\n      swap1\n      log1\n        /* \"contracts/SimpleBank/SimpleBank.sol\":748:1124  function addAccount(string memory _name) public {... */\n      pop\n      jump\t// out\n        /* \"contracts/SimpleBank/SimpleBank.sol\":1487:2141  function withdrawn(string memory _name, uint256 _amount) public {... */\n    tag_28:\n        /* \"contracts/SimpleBank/SimpleBank.sol\":1613:1617  true */\n      0x01\n        /* \"contracts/SimpleBank/SimpleBank.sol\":1584:1617  isAccountNameExist[_name] == true */\n      iszero\n      iszero\n        /* \"contracts/SimpleBank/SimpleBank.sol\":1584:1602  isAccountNameExist */\n      0x04\n        /* \"contracts/SimpleBank/SimpleBank.sol\":1603:1608  _name */\n      dup4\n        /* \"contracts/SimpleBank/SimpleBank.sol\":1584:1609  isAccountNameExist[_name] */\n      mload(0x40)\n      tag_144\n      swap2\n      swap1\n      tag_69\n      jump\t// in\n    tag_144:\n      swap1\n      dup2\n      mstore\n      0x20\n      add\n      mload(0x40)\n      dup1\n      swap2\n      sub\n      swap1\n      keccak256\n      0x00\n      swap1\n      sload\n      swap1\n      0x0100\n      exp\n      swap1\n      div\n      0xff\n      and\n        /* \"contracts/SimpleBank/SimpleBank.sol\":1584:1617  isAccountNameExist[_name] == true */\n      iszero\n      iszero\n      eq\n        /* \"contracts/SimpleBank/SimpleBank.sol\":1562:1674  require(... */\n      tag_145\n      jumpi\n      mload(0x40)\n      0x08c379a000000000000000000000000000000000000000000000000000000000\n      dup2\n      mstore\n      0x04\n      add\n      tag_146\n      swap1\n      tag_147\n      jump\t// in\n    tag_146:\n      mload(0x40)\n      dup1\n      swap2\n      sub\n      swap1\n      revert\n    tag_145:\n        /* \"contracts/SimpleBank/SimpleBank.sol\":1732:1742  msg.sender */\n      caller\n        /* \"contracts/SimpleBank/SimpleBank.sol\":1707:1742  accounts[_name].owner == msg.sender */\n      0xffffffffffffffffffffffffffffffffffffffff\n      and\n        /* \"contracts/SimpleBank/SimpleBank.sol\":1707:1715  accounts */\n      0x03\n        /* \"contracts/SimpleBank/SimpleBank.sol\":1716:1721  _name */\n      dup4\n        /* \"contracts/SimpleBank/SimpleBank.sol\":1707:1722  accounts[_name] */\n      mload(0x40)\n      tag_148\n      swap2\n      swap1\n      tag_69\n      jump\t// in\n    tag_148:\n      swap1\n      dup2\n      mstore\n      0x20\n      add\n      mload(0x40)\n      dup1\n      swap2\n      sub\n      swap1\n      keccak256\n        /* \"contracts/SimpleBank/SimpleBank.sol\":1707:1728  accounts[_name].owner */\n      0x00\n      add\n      0x00\n      swap1\n      sload\n      swap1\n      0x0100\n      exp\n      swap1\n      div\n      0xffffffffffffffffffffffffffffffffffffffff\n      and\n        /* \"contracts/SimpleBank/SimpleBank.sol\":1707:1742  accounts[_name].owner == msg.sender */\n      0xffffffffffffffffffffffffffffffffffffffff\n      and\n      eq\n        /* \"contracts/SimpleBank/SimpleBank.sol\":1685:1794  require(... */\n      tag_149\n      jumpi\n      mload(0x40)\n      0x08c379a000000000000000000000000000000000000000000000000000000000\n      dup2\n      mstore\n      0x04\n      add\n      tag_150\n      swap1\n      tag_151\n      jump\t// in\n    tag_150:\n      mload(0x40)\n      dup1\n      swap2\n      sub\n      swap1\n      revert\n    tag_149:\n        /* \"contracts/SimpleBank/SimpleBank.sol\":1823:1824  0 */\n      0x00\n        /* \"contracts/SimpleBank/SimpleBank.sol\":1813:1820  _amount */\n      dup2\n        /* \"contracts/SimpleBank/SimpleBank.sol\":1813:1824  _amount > 0 */\n      gt\n        /* \"contracts/SimpleBank/SimpleBank.sol\":1805:1854  require(_amount > 0, \"withdrawn_fail_value_zero\") */\n      tag_152\n      jumpi\n      mload(0x40)\n      0x08c379a000000000000000000000000000000000000000000000000000000000\n      dup2\n      mstore\n      0x04\n      add\n      tag_153\n      swap1\n      tag_154\n      jump\t// in\n    tag_153:\n      mload(0x40)\n      dup1\n      swap2\n      sub\n      swap1\n      revert\n    tag_152:\n        /* \"contracts/SimpleBank/SimpleBank.sol\":1914:1921  _amount */\n      dup1\n        /* \"contracts/SimpleBank/SimpleBank.sol\":1887:1895  accounts */\n      0x03\n        /* \"contracts/SimpleBank/SimpleBank.sol\":1896:1901  _name */\n      dup4\n        /* \"contracts/SimpleBank/SimpleBank.sol\":1887:1902  accounts[_name] */\n      mload(0x40)\n      tag_155\n      swap2\n      swap1\n      tag_69\n      jump\t// in\n    tag_155:\n      swap1\n      dup2\n      mstore\n      0x20\n      add\n      mload(0x40)\n      dup1\n      swap2\n      sub\n      swap1\n      keccak256\n        /* \"contracts/SimpleBank/SimpleBank.sol\":1887:1910  accounts[_name].balance */\n      0x02\n      add\n      sload\n        /* \"contracts/SimpleBank/SimpleBank.sol\":1887:1921  accounts[_name].balance >= _amount */\n      lt\n      iszero\n        /* \"contracts/SimpleBank/SimpleBank.sol\":1865:1982  require(... */\n      tag_156\n      jumpi\n      mload(0x40)\n      0x08c379a000000000000000000000000000000000000000000000000000000000\n      dup2\n      mstore\n      0x04\n      add\n      tag_157\n      swap1\n      tag_158\n      jump\t// in\n    tag_157:\n      mload(0x40)\n      dup1\n      swap2\n      sub\n      swap1\n      revert\n    tag_156:\n        /* \"contracts/SimpleBank/SimpleBank.sol\":2020:2027  _amount */\n      dup1\n        /* \"contracts/SimpleBank/SimpleBank.sol\":1993:2001  accounts */\n      0x03\n        /* \"contracts/SimpleBank/SimpleBank.sol\":2002:2007  _name */\n      dup4\n        /* \"contracts/SimpleBank/SimpleBank.sol\":1993:2008  accounts[_name] */\n      mload(0x40)\n      tag_159\n      swap2\n      swap1\n      tag_69\n      jump\t// in\n    tag_159:\n      swap1\n      dup2\n      mstore\n      0x20\n      add\n      mload(0x40)\n      dup1\n      swap2\n      sub\n      swap1\n      keccak256\n        /* \"contracts/SimpleBank/SimpleBank.sol\":1993:2016  accounts[_name].balance */\n      0x02\n      add\n      0x00\n        /* \"contracts/SimpleBank/SimpleBank.sol\":1993:2027  accounts[_name].balance -= _amount */\n      dup3\n      dup3\n      sload\n      tag_160\n      swap2\n      swap1\n      tag_107\n      jump\t// in\n    tag_160:\n      swap3\n      pop\n      pop\n      dup2\n      swap1\n      sstore\n      pop\n        /* \"contracts/SimpleBank/SimpleBank.sol\":2046:2056  msg.sender */\n      caller\n        /* \"contracts/SimpleBank/SimpleBank.sol\":2038:2066  payable(msg.sender).transfer */\n      0xffffffffffffffffffffffffffffffffffffffff\n      and\n        /* \"contracts/SimpleBank/SimpleBank.sol\":2038:2075  payable(msg.sender).transfer(_amount) */\n      0x08fc\n        /* \"contracts/SimpleBank/SimpleBank.sol\":2067:2074  _amount */\n      dup3\n        /* \"contracts/SimpleBank/SimpleBank.sol\":2038:2075  payable(msg.sender).transfer(_amount) */\n      swap1\n      dup2\n      iszero\n      mul\n      swap1\n      mload(0x40)\n      0x00\n      mload(0x40)\n      dup1\n      dup4\n      sub\n      dup2\n      dup6\n      dup9\n      dup9\n      call\n      swap4\n      pop\n      pop\n      pop\n      pop\n      iszero\n      dup1\n      iszero\n      tag_162\n      jumpi\n      returndatasize\n      0x00\n      dup1\n      returndatacopy\n      revert(0x00, returndatasize)\n    tag_162:\n      pop\n        /* \"contracts/SimpleBank/SimpleBank.sol\":2091:2133  WithdrawnEvent(_name, msg.sender, _amount) */\n      0xf571bb39287f8941696401f5b5a1666ee251efbf23412140fbddce841655d9\n        /* \"contracts/SimpleBank/SimpleBank.sol\":2106:2111  _name */\n      dup3\n        /* \"contracts/SimpleBank/SimpleBank.sol\":2113:2123  msg.sender */\n      caller\n        /* \"contracts/SimpleBank/SimpleBank.sol\":2125:2132  _amount */\n      dup4\n        /* \"contracts/SimpleBank/SimpleBank.sol\":2091:2133  WithdrawnEvent(_name, msg.sender, _amount) */\n      mload(0x40)\n      tag_163\n      swap4\n      swap3\n      swap2\n      swap1\n      tag_164\n      jump\t// in\n    tag_163:\n      mload(0x40)\n      dup1\n      swap2\n      sub\n      swap1\n      log1\n        /* \"contracts/SimpleBank/SimpleBank.sol\":1487:2141  function withdrawn(string memory _name, uint256 _amount) public {... */\n      pop\n      pop\n      jump\t// out\n        /* \"contracts/SimpleBank/SimpleBank.sol\":5091:5245  function getOwnerByName(string memory _name)... */\n    tag_32:\n        /* \"contracts/SimpleBank/SimpleBank.sol\":5184:5191  address */\n      0x00\n        /* \"contracts/SimpleBank/SimpleBank.sol\":5216:5224  accounts */\n      0x03\n        /* \"contracts/SimpleBank/SimpleBank.sol\":5225:5230  _name */\n      dup3\n        /* \"contracts/SimpleBank/SimpleBank.sol\":5216:5231  accounts[_name] */\n      mload(0x40)\n      tag_166\n      swap2\n      swap1\n      tag_69\n      jump\t// in\n    tag_166:\n      swap1\n      dup2\n      mstore\n      0x20\n      add\n      mload(0x40)\n      dup1\n      swap2\n      sub\n      swap1\n      keccak256\n        /* \"contracts/SimpleBank/SimpleBank.sol\":5216:5237  accounts[_name].owner */\n      0x00\n      add\n      0x00\n      swap1\n      sload\n      swap1\n      0x0100\n      exp\n      swap1\n      div\n      0xffffffffffffffffffffffffffffffffffffffff\n      and\n        /* \"contracts/SimpleBank/SimpleBank.sol\":5209:5237  return accounts[_name].owner */\n      swap1\n      pop\n        /* \"contracts/SimpleBank/SimpleBank.sol\":5091:5245  function getOwnerByName(string memory _name)... */\n      swap2\n      swap1\n      pop\n      jump\t// out\n        /* \"contracts/SimpleBank/SimpleBank.sol\":2149:3347  function transferAmount(... */\n    tag_39:\n        /* \"contracts/SimpleBank/SimpleBank.sol\":2333:2337  true */\n      0x01\n        /* \"contracts/SimpleBank/SimpleBank.sol\":2304:2337  isAccountNameExist[_from] == true */\n      iszero\n      iszero\n        /* \"contracts/SimpleBank/SimpleBank.sol\":2304:2322  isAccountNameExist */\n      0x04\n        /* \"contracts/SimpleBank/SimpleBank.sol\":2323:2328  _from */\n      dup5\n        /* \"contracts/SimpleBank/SimpleBank.sol\":2304:2329  isAccountNameExist[_from] */\n      mload(0x40)\n      tag_168\n      swap2\n      swap1\n      tag_69\n      jump\t// in\n    tag_168:\n      swap1\n      dup2\n      mstore\n      0x20\n      add\n      mload(0x40)\n      dup1\n      swap2\n      sub\n      swap1\n      keccak256\n      0x00\n      swap1\n      sload\n      swap1\n      0x0100\n      exp\n      swap1\n      div\n      0xff\n      and\n        /* \"contracts/SimpleBank/SimpleBank.sol\":2304:2337  isAccountNameExist[_from] == true */\n      iszero\n      iszero\n      eq\n        /* \"contracts/SimpleBank/SimpleBank.sol\":2282:2398  require(... */\n      tag_169\n      jumpi\n      mload(0x40)\n      0x08c379a000000000000000000000000000000000000000000000000000000000\n      dup2\n      mstore\n      0x04\n      add\n      tag_170\n      swap1\n      tag_72\n      jump\t// in\n    tag_170:\n      mload(0x40)\n      dup1\n      swap2\n      sub\n      swap1\n      revert\n    tag_169:\n        /* \"contracts/SimpleBank/SimpleBank.sol\":2458:2462  true */\n      0x01\n        /* \"contracts/SimpleBank/SimpleBank.sol\":2431:2462  isAccountNameExist[_to] == true */\n      iszero\n      iszero\n        /* \"contracts/SimpleBank/SimpleBank.sol\":2431:2449  isAccountNameExist */\n      0x04\n        /* \"contracts/SimpleBank/SimpleBank.sol\":2450:2453  _to */\n      dup4\n        /* \"contracts/SimpleBank/SimpleBank.sol\":2431:2454  isAccountNameExist[_to] */\n      mload(0x40)\n      tag_171\n      swap2\n      swap1\n      tag_69\n      jump\t// in\n    tag_171:\n      swap1\n      dup2\n      mstore\n      0x20\n      add\n      mload(0x40)\n      dup1\n      swap2\n      sub\n      swap1\n      keccak256\n      0x00\n      swap1\n      sload\n      swap1\n      0x0100\n      exp\n      swap1\n      div\n      0xff\n      and\n        /* \"contracts/SimpleBank/SimpleBank.sol\":2431:2462  isAccountNameExist[_to] == true */\n      iszero\n      iszero\n      eq\n        /* \"contracts/SimpleBank/SimpleBank.sol\":2409:2521  require(... */\n      tag_172\n      jumpi\n      mload(0x40)\n      0x08c379a000000000000000000000000000000000000000000000000000000000\n      dup2\n      mstore\n      0x04\n      add\n      tag_173\n      swap1\n      tag_95\n      jump\t// in\n    tag_173:\n      mload(0x40)\n      dup1\n      swap2\n      sub\n      swap1\n      revert\n    tag_172:\n        /* \"contracts/SimpleBank/SimpleBank.sol\":2579:2589  msg.sender */\n      caller\n        /* \"contracts/SimpleBank/SimpleBank.sol\":2554:2589  accounts[_from].owner == msg.sender */\n      0xffffffffffffffffffffffffffffffffffffffff\n      and\n        /* \"contracts/SimpleBank/SimpleBank.sol\":2554:2562  accounts */\n      0x03\n        /* \"contracts/SimpleBank/SimpleBank.sol\":2563:2568  _from */\n      dup5\n        /* \"contracts/SimpleBank/SimpleBank.sol\":2554:2569  accounts[_from] */\n      mload(0x40)\n      tag_174\n      swap2\n      swap1\n      tag_69\n      jump\t// in\n    tag_174:\n      swap1\n      dup2\n      mstore\n      0x20\n      add\n      mload(0x40)\n      dup1\n      swap2\n      sub\n      swap1\n      keccak256\n        /* \"contracts/SimpleBank/SimpleBank.sol\":2554:2575  accounts[_from].owner */\n      0x00\n      add\n      0x00\n      swap1\n      sload\n      swap1\n      0x0100\n      exp\n      swap1\n      div\n      0xffffffffffffffffffffffffffffffffffffffff\n      and\n        /* \"contracts/SimpleBank/SimpleBank.sol\":2554:2589  accounts[_from].owner == msg.sender */\n      0xffffffffffffffffffffffffffffffffffffffff\n      and\n      eq\n        /* \"contracts/SimpleBank/SimpleBank.sol\":2532:2645  require(... */\n      tag_175\n      jumpi\n      mload(0x40)\n      0x08c379a000000000000000000000000000000000000000000000000000000000\n      dup2\n      mstore\n      0x04\n      add\n      tag_176\n      swap1\n      tag_76\n      jump\t// in\n    tag_176:\n      mload(0x40)\n      dup1\n      swap2\n      sub\n      swap1\n      revert\n    tag_175:\n        /* \"contracts/SimpleBank/SimpleBank.sol\":2675:2678  100 */\n      0x64\n        /* \"contracts/SimpleBank/SimpleBank.sol\":2664:2671  _amount */\n      dup2\n        /* \"contracts/SimpleBank/SimpleBank.sol\":2664:2678  _amount >= 100 */\n      lt\n      iszero\n        /* \"contracts/SimpleBank/SimpleBank.sol\":2656:2716  require(_amount >= 100, \"transfer_fail_value_less_than_100\") */\n      tag_177\n      jumpi\n      mload(0x40)\n      0x08c379a000000000000000000000000000000000000000000000000000000000\n      dup2\n      mstore\n      0x04\n      add\n      tag_178\n      swap1\n      tag_79\n      jump\t// in\n    tag_178:\n      mload(0x40)\n      dup1\n      swap2\n      sub\n      swap1\n      revert\n    tag_177:\n        /* \"contracts/SimpleBank/SimpleBank.sol\":2776:2783  _amount */\n      dup1\n        /* \"contracts/SimpleBank/SimpleBank.sol\":2749:2757  accounts */\n      0x03\n        /* \"contracts/SimpleBank/SimpleBank.sol\":2758:2763  _from */\n      dup5\n        /* \"contracts/SimpleBank/SimpleBank.sol\":2749:2764  accounts[_from] */\n      mload(0x40)\n      tag_179\n      swap2\n      swap1\n      tag_69\n      jump\t// in\n    tag_179:\n      swap1\n      dup2\n      mstore\n      0x20\n      add\n      mload(0x40)\n      dup1\n      swap2\n      sub\n      swap1\n      keccak256\n        /* \"contracts/SimpleBank/SimpleBank.sol\":2749:2772  accounts[_from].balance */\n      0x02\n      add\n      sload\n        /* \"contracts/SimpleBank/SimpleBank.sol\":2749:2783  accounts[_from].balance >= _amount */\n      lt\n      iszero\n        /* \"contracts/SimpleBank/SimpleBank.sol\":2727:2848  require(... */\n      tag_180\n      jumpi\n      mload(0x40)\n      0x08c379a000000000000000000000000000000000000000000000000000000000\n      dup2\n      mstore\n      0x04\n      add\n      tag_181\n      swap1\n      tag_85\n      jump\t// in\n    tag_181:\n      mload(0x40)\n      dup1\n      swap2\n      sub\n      swap1\n      revert\n    tag_180:\n        /* \"contracts/SimpleBank/SimpleBank.sol\":2888:2896  accounts */\n      0x03\n        /* \"contracts/SimpleBank/SimpleBank.sol\":2897:2900  _to */\n      dup3\n        /* \"contracts/SimpleBank/SimpleBank.sol\":2888:2901  accounts[_to] */\n      mload(0x40)\n      tag_182\n      swap2\n      swap1\n      tag_69\n      jump\t// in\n    tag_182:\n      swap1\n      dup2\n      mstore\n      0x20\n      add\n      mload(0x40)\n      dup1\n      swap2\n      sub\n      swap1\n      keccak256\n        /* \"contracts/SimpleBank/SimpleBank.sol\":2888:2907  accounts[_to].owner */\n      0x00\n      add\n      0x00\n      swap1\n      sload\n      swap1\n      0x0100\n      exp\n      swap1\n      div\n      0xffffffffffffffffffffffffffffffffffffffff\n      and\n        /* \"contracts/SimpleBank/SimpleBank.sol\":2863:2907  accounts[_from].owner != accounts[_to].owner */\n      0xffffffffffffffffffffffffffffffffffffffff\n      and\n        /* \"contracts/SimpleBank/SimpleBank.sol\":2863:2871  accounts */\n      0x03\n        /* \"contracts/SimpleBank/SimpleBank.sol\":2872:2877  _from */\n      dup5\n        /* \"contracts/SimpleBank/SimpleBank.sol\":2863:2878  accounts[_from] */\n      mload(0x40)\n      tag_183\n      swap2\n      swap1\n      tag_69\n      jump\t// in\n    tag_183:\n      swap1\n      dup2\n      mstore\n      0x20\n      add\n      mload(0x40)\n      dup1\n      swap2\n      sub\n      swap1\n      keccak256\n        /* \"contracts/SimpleBank/SimpleBank.sol\":2863:2884  accounts[_from].owner */\n      0x00\n      add\n      0x00\n      swap1\n      sload\n      swap1\n      0x0100\n      exp\n      swap1\n      div\n      0xffffffffffffffffffffffffffffffffffffffff\n      and\n        /* \"contracts/SimpleBank/SimpleBank.sol\":2863:2907  accounts[_from].owner != accounts[_to].owner */\n      0xffffffffffffffffffffffffffffffffffffffff\n      and\n      eq\n        /* \"contracts/SimpleBank/SimpleBank.sol\":2859:3340  if (accounts[_from].owner != accounts[_to].owner) {... */\n      tag_184\n      jumpi\n        /* \"contracts/SimpleBank/SimpleBank.sol\":2924:2935  uint256 fee */\n      0x00\n        /* \"contracts/SimpleBank/SimpleBank.sol\":2948:2951  100 */\n      0x64\n        /* \"contracts/SimpleBank/SimpleBank.sol\":2938:2945  _amount */\n      dup3\n        /* \"contracts/SimpleBank/SimpleBank.sol\":2938:2951  _amount / 100 */\n      tag_185\n      swap2\n      swap1\n      tag_102\n      jump\t// in\n    tag_185:\n        /* \"contracts/SimpleBank/SimpleBank.sol\":2924:2951  uint256 fee = _amount / 100 */\n      swap1\n      pop\n        /* \"contracts/SimpleBank/SimpleBank.sol\":2981:2984  fee */\n      dup1\n        /* \"contracts/SimpleBank/SimpleBank.sol\":2966:2977  bankBalance */\n      0x01\n      0x00\n        /* \"contracts/SimpleBank/SimpleBank.sol\":2966:2984  bankBalance += fee */\n      dup3\n      dup3\n      sload\n      tag_186\n      swap2\n      swap1\n      tag_104\n      jump\t// in\n    tag_186:\n      swap3\n      pop\n      pop\n      dup2\n      swap1\n      sstore\n      pop\n        /* \"contracts/SimpleBank/SimpleBank.sol\":3026:3033  _amount */\n      dup2\n        /* \"contracts/SimpleBank/SimpleBank.sol\":2999:3007  accounts */\n      0x03\n        /* \"contracts/SimpleBank/SimpleBank.sol\":3008:3013  _from */\n      dup6\n        /* \"contracts/SimpleBank/SimpleBank.sol\":2999:3014  accounts[_from] */\n      mload(0x40)\n      tag_187\n      swap2\n      swap1\n      tag_69\n      jump\t// in\n    tag_187:\n      swap1\n      dup2\n      mstore\n      0x20\n      add\n      mload(0x40)\n      dup1\n      swap2\n      sub\n      swap1\n      keccak256\n        /* \"contracts/SimpleBank/SimpleBank.sol\":2999:3022  accounts[_from].balance */\n      0x02\n      add\n      0x00\n        /* \"contracts/SimpleBank/SimpleBank.sol\":2999:3033  accounts[_from].balance -= _amount */\n      dup3\n      dup3\n      sload\n      tag_188\n      swap2\n      swap1\n      tag_107\n      jump\t// in\n    tag_188:\n      swap3\n      pop\n      pop\n      dup2\n      swap1\n      sstore\n      pop\n        /* \"contracts/SimpleBank/SimpleBank.sol\":3084:3087  fee */\n      dup1\n        /* \"contracts/SimpleBank/SimpleBank.sol\":3074:3081  _amount */\n      dup3\n        /* \"contracts/SimpleBank/SimpleBank.sol\":3074:3087  _amount - fee */\n      tag_189\n      swap2\n      swap1\n      tag_107\n      jump\t// in\n    tag_189:\n        /* \"contracts/SimpleBank/SimpleBank.sol\":3048:3056  accounts */\n      0x03\n        /* \"contracts/SimpleBank/SimpleBank.sol\":3057:3060  _to */\n      dup5\n        /* \"contracts/SimpleBank/SimpleBank.sol\":3048:3061  accounts[_to] */\n      mload(0x40)\n      tag_190\n      swap2\n      swap1\n      tag_69\n      jump\t// in\n    tag_190:\n      swap1\n      dup2\n      mstore\n      0x20\n      add\n      mload(0x40)\n      dup1\n      swap2\n      sub\n      swap1\n      keccak256\n        /* \"contracts/SimpleBank/SimpleBank.sol\":3048:3069  accounts[_to].balance */\n      0x02\n      add\n      0x00\n        /* \"contracts/SimpleBank/SimpleBank.sol\":3048:3088  accounts[_to].balance += (_amount - fee) */\n      dup3\n      dup3\n      sload\n      tag_191\n      swap2\n      swap1\n      tag_104\n      jump\t// in\n    tag_191:\n      swap3\n      pop\n      pop\n      dup2\n      swap1\n      sstore\n      pop\n        /* \"contracts/SimpleBank/SimpleBank.sol\":3108:3154  TransferAmountEvent(_from, _to, _amount - fee) */\n      0x370044a47246afacf081fd58c8468a6482ebc8673d418e785b8d0492240f95de\n        /* \"contracts/SimpleBank/SimpleBank.sol\":3128:3133  _from */\n      dup5\n        /* \"contracts/SimpleBank/SimpleBank.sol\":3135:3138  _to */\n      dup5\n        /* \"contracts/SimpleBank/SimpleBank.sol\":3150:3153  fee */\n      dup4\n        /* \"contracts/SimpleBank/SimpleBank.sol\":3140:3147  _amount */\n      dup6\n        /* \"contracts/SimpleBank/SimpleBank.sol\":3140:3153  _amount - fee */\n      tag_192\n      swap2\n      swap1\n      tag_107\n      jump\t// in\n    tag_192:\n        /* \"contracts/SimpleBank/SimpleBank.sol\":3108:3154  TransferAmountEvent(_from, _to, _amount - fee) */\n      mload(0x40)\n      tag_193\n      swap4\n      swap3\n      swap2\n      swap1\n      tag_117\n      jump\t// in\n    tag_193:\n      mload(0x40)\n      dup1\n      swap2\n      sub\n      swap1\n      log1\n        /* \"contracts/SimpleBank/SimpleBank.sol\":2909:3166  {... */\n      pop\n        /* \"contracts/SimpleBank/SimpleBank.sol\":2859:3340  if (accounts[_from].owner != accounts[_to].owner) {... */\n      jump(tag_194)\n    tag_184:\n        /* \"contracts/SimpleBank/SimpleBank.sol\":3214:3221  _amount */\n      dup1\n        /* \"contracts/SimpleBank/SimpleBank.sol\":3187:3195  accounts */\n      0x03\n        /* \"contracts/SimpleBank/SimpleBank.sol\":3196:3201  _from */\n      dup5\n        /* \"contracts/SimpleBank/SimpleBank.sol\":3187:3202  accounts[_from] */\n      mload(0x40)\n      tag_195\n      swap2\n      swap1\n      tag_69\n      jump\t// in\n    tag_195:\n      swap1\n      dup2\n      mstore\n      0x20\n      add\n      mload(0x40)\n      dup1\n      swap2\n      sub\n      swap1\n      keccak256\n        /* \"contracts/SimpleBank/SimpleBank.sol\":3187:3210  accounts[_from].balance */\n      0x02\n      add\n      0x00\n        /* \"contracts/SimpleBank/SimpleBank.sol\":3187:3221  accounts[_from].balance -= _amount */\n      dup3\n      dup3\n      sload\n      tag_196\n      swap2\n      swap1\n      tag_107\n      jump\t// in\n    tag_196:\n      swap3\n      pop\n      pop\n      dup2\n      swap1\n      sstore\n      pop\n        /* \"contracts/SimpleBank/SimpleBank.sol\":3261:3268  _amount */\n      dup1\n        /* \"contracts/SimpleBank/SimpleBank.sol\":3236:3244  accounts */\n      0x03\n        /* \"contracts/SimpleBank/SimpleBank.sol\":3245:3248  _to */\n      dup4\n        /* \"contracts/SimpleBank/SimpleBank.sol\":3236:3249  accounts[_to] */\n      mload(0x40)\n      tag_197\n      swap2\n      swap1\n      tag_69\n      jump\t// in\n    tag_197:\n      swap1\n      dup2\n      mstore\n      0x20\n      add\n      mload(0x40)\n      dup1\n      swap2\n      sub\n      swap1\n      keccak256\n        /* \"contracts/SimpleBank/SimpleBank.sol\":3236:3257  accounts[_to].balance */\n      0x02\n      add\n      0x00\n        /* \"contracts/SimpleBank/SimpleBank.sol\":3236:3268  accounts[_to].balance += _amount */\n      dup3\n      dup3\n      sload\n      tag_198\n      swap2\n      swap1\n      tag_104\n      jump\t// in\n    tag_198:\n      swap3\n      pop\n      pop\n      dup2\n      swap1\n      sstore\n      pop\n        /* \"contracts/SimpleBank/SimpleBank.sol\":3288:3328  TransferAmountEvent(_from, _to, _amount) */\n      0x370044a47246afacf081fd58c8468a6482ebc8673d418e785b8d0492240f95de\n        /* \"contracts/SimpleBank/SimpleBank.sol\":3308:3313  _from */\n      dup4\n        /* \"contracts/SimpleBank/SimpleBank.sol\":3315:3318  _to */\n      dup4\n        /* \"contracts/SimpleBank/SimpleBank.sol\":3320:3327  _amount */\n      dup4\n        /* \"contracts/SimpleBank/SimpleBank.sol\":3288:3328  TransferAmountEvent(_from, _to, _amount) */\n      mload(0x40)\n      tag_199\n      swap4\n      swap3\n      swap2\n      swap1\n      tag_117\n      jump\t// in\n    tag_199:\n      mload(0x40)\n      dup1\n      swap2\n      sub\n      swap1\n      log1\n        /* \"contracts/SimpleBank/SimpleBank.sol\":2859:3340  if (accounts[_from].owner != accounts[_to].owner) {... */\n    tag_194:\n        /* \"contracts/SimpleBank/SimpleBank.sol\":2149:3347  function transferAmount(... */\n      pop\n      pop\n      pop\n      jump\t// out\n        /* \"contracts/SimpleBank/SimpleBank.sol\":5639:5732  function getBankBalance() public view returns (uint256) {... */\n    tag_42:\n        /* \"contracts/SimpleBank/SimpleBank.sol\":5686:5693  uint256 */\n      0x00\n        /* \"contracts/SimpleBank/SimpleBank.sol\":5713:5724  bankBalance */\n      sload(0x01)\n        /* \"contracts/SimpleBank/SimpleBank.sol\":5706:5724  return bankBalance */\n      swap1\n      pop\n        /* \"contracts/SimpleBank/SimpleBank.sol\":5639:5732  function getBankBalance() public view returns (uint256) {... */\n      swap1\n      jump\t// out\n        /* \"contracts/SimpleBank/SimpleBank.sol\":1132:1479  function deposit(string memory _name) public payable {... */\n    tag_47:\n        /* \"contracts/SimpleBank/SimpleBank.sol\":1247:1251  true */\n      0x01\n        /* \"contracts/SimpleBank/SimpleBank.sol\":1218:1251  isAccountNameExist[_name] == true */\n      iszero\n      iszero\n        /* \"contracts/SimpleBank/SimpleBank.sol\":1218:1236  isAccountNameExist */\n      0x04\n        /* \"contracts/SimpleBank/SimpleBank.sol\":1237:1242  _name */\n      dup3\n        /* \"contracts/SimpleBank/SimpleBank.sol\":1218:1243  isAccountNameExist[_name] */\n      mload(0x40)\n      tag_202\n      swap2\n      swap1\n      tag_69\n      jump\t// in\n    tag_202:\n      swap1\n      dup2\n      mstore\n      0x20\n      add\n      mload(0x40)\n      dup1\n      swap2\n      sub\n      swap1\n      keccak256\n      0x00\n      swap1\n      sload\n      swap1\n      0x0100\n      exp\n      swap1\n      div\n      0xff\n      and\n        /* \"contracts/SimpleBank/SimpleBank.sol\":1218:1251  isAccountNameExist[_name] == true */\n      iszero\n      iszero\n      eq\n        /* \"contracts/SimpleBank/SimpleBank.sol\":1196:1306  require(... */\n      tag_203\n      jumpi\n      mload(0x40)\n      0x08c379a000000000000000000000000000000000000000000000000000000000\n      dup2\n      mstore\n      0x04\n      add\n      tag_204\n      swap1\n      tag_205\n      jump\t// in\n    tag_204:\n      mload(0x40)\n      dup1\n      swap2\n      sub\n      swap1\n      revert\n    tag_203:\n        /* \"contracts/SimpleBank/SimpleBank.sol\":1337:1338  0 */\n      0x00\n        /* \"contracts/SimpleBank/SimpleBank.sol\":1325:1334  msg.value */\n      callvalue\n        /* \"contracts/SimpleBank/SimpleBank.sol\":1325:1338  msg.value > 0 */\n      gt\n        /* \"contracts/SimpleBank/SimpleBank.sol\":1317:1366  require(msg.value > 0, \"deposit_fail_value_zero\") */\n      tag_206\n      jumpi\n      mload(0x40)\n      0x08c379a000000000000000000000000000000000000000000000000000000000\n      dup2\n      mstore\n      0x04\n      add\n      tag_207\n      swap1\n      tag_208\n      jump\t// in\n    tag_207:\n      mload(0x40)\n      dup1\n      swap2\n      sub\n      swap1\n      revert\n    tag_206:\n        /* \"contracts/SimpleBank/SimpleBank.sol\":1404:1413  msg.value */\n      callvalue\n        /* \"contracts/SimpleBank/SimpleBank.sol\":1377:1385  accounts */\n      0x03\n        /* \"contracts/SimpleBank/SimpleBank.sol\":1386:1391  _name */\n      dup3\n        /* \"contracts/SimpleBank/SimpleBank.sol\":1377:1392  accounts[_name] */\n      mload(0x40)\n      tag_209\n      swap2\n      swap1\n      tag_69\n      jump\t// in\n    tag_209:\n      swap1\n      dup2\n      mstore\n      0x20\n      add\n      mload(0x40)\n      dup1\n      swap2\n      sub\n      swap1\n      keccak256\n        /* \"contracts/SimpleBank/SimpleBank.sol\":1377:1400  accounts[_name].balance */\n      0x02\n      add\n      0x00\n        /* \"contracts/SimpleBank/SimpleBank.sol\":1377:1413  accounts[_name].balance += msg.value */\n      dup3\n      dup3\n      sload\n      tag_210\n      swap2\n      swap1\n      tag_104\n      jump\t// in\n    tag_210:\n      swap3\n      pop\n      pop\n      dup2\n      swap1\n      sstore\n      pop\n        /* \"contracts/SimpleBank/SimpleBank.sol\":1429:1471  DepositEvent(msg.sender, _name, msg.value) */\n      0x03e0b25ba1ab101c1d9112766101bb987f00f29a37a44b4a0813ed489a4f3ffa\n        /* \"contracts/SimpleBank/SimpleBank.sol\":1442:1452  msg.sender */\n      caller\n        /* \"contracts/SimpleBank/SimpleBank.sol\":1454:1459  _name */\n      dup3\n        /* \"contracts/SimpleBank/SimpleBank.sol\":1461:1470  msg.value */\n      callvalue\n        /* \"contracts/SimpleBank/SimpleBank.sol\":1429:1471  DepositEvent(msg.sender, _name, msg.value) */\n      mload(0x40)\n      tag_211\n      swap4\n      swap3\n      swap2\n      swap1\n      tag_212\n      jump\t// in\n    tag_211:\n      mload(0x40)\n      dup1\n      swap2\n      sub\n      swap1\n      log1\n        /* \"contracts/SimpleBank/SimpleBank.sol\":1132:1479  function deposit(string memory _name) public payable {... */\n      pop\n      jump\t// out\n        /* \"contracts/SimpleBank/SimpleBank.sol\":5419:5534  function getUserAccounts() public view returns (string[] memory) {... */\n    tag_50:\n        /* \"contracts/SimpleBank/SimpleBank.sol\":5467:5482  string[] memory */\n      0x60\n        /* \"contracts/SimpleBank/SimpleBank.sol\":5502:5514  userAccounts */\n      0x02\n        /* \"contracts/SimpleBank/SimpleBank.sol\":5502:5526  userAccounts[msg.sender] */\n      0x00\n        /* \"contracts/SimpleBank/SimpleBank.sol\":5515:5525  msg.sender */\n      caller\n        /* \"contracts/SimpleBank/SimpleBank.sol\":5502:5526  userAccounts[msg.sender] */\n      0xffffffffffffffffffffffffffffffffffffffff\n      and\n      0xffffffffffffffffffffffffffffffffffffffff\n      and\n      dup2\n      mstore\n      0x20\n      add\n      swap1\n      dup2\n      mstore\n      0x20\n      add\n      0x00\n      keccak256\n        /* \"contracts/SimpleBank/SimpleBank.sol\":5495:5526  return userAccounts[msg.sender] */\n      dup1\n      sload\n      dup1\n      0x20\n      mul\n      0x20\n      add\n      mload(0x40)\n      swap1\n      dup2\n      add\n      0x40\n      mstore\n      dup1\n      swap3\n      swap2\n      swap1\n      dup2\n      dup2\n      mstore\n      0x20\n      add\n      0x00\n      swap1\n    tag_214:\n      dup3\n      dup3\n      lt\n      iszero\n      tag_215\n      jumpi\n      dup4\n      dup3\n      swap1\n      0x00\n      mstore\n      keccak256(0x00, 0x20)\n      add\n      dup1\n      sload\n      tag_217\n      swap1\n      tag_218\n      jump\t// in\n    tag_217:\n      dup1\n      0x1f\n      add\n      0x20\n      dup1\n      swap2\n      div\n      mul\n      0x20\n      add\n      mload(0x40)\n      swap1\n      dup2\n      add\n      0x40\n      mstore\n      dup1\n      swap3\n      swap2\n      swap1\n      dup2\n      dup2\n      mstore\n      0x20\n      add\n      dup3\n      dup1\n      sload\n      tag_219\n      swap1\n      tag_218\n      jump\t// in\n    tag_219:\n      dup1\n      iszero\n      tag_220\n      jumpi\n      dup1\n      0x1f\n      lt\n      tag_221\n      jumpi\n      0x0100\n      dup1\n      dup4\n      sload\n      div\n      mul\n      dup4\n      mstore\n      swap2\n      0x20\n      add\n      swap2\n      jump(tag_220)\n    tag_221:\n      dup3\n      add\n      swap2\n      swap1\n      0x00\n      mstore\n      keccak256(0x00, 0x20)\n      swap1\n    tag_222:\n      dup2\n      sload\n      dup2\n      mstore\n      swap1\n      0x01\n      add\n      swap1\n      0x20\n      add\n      dup1\n      dup4\n      gt\n      tag_222\n      jumpi\n      dup3\n      swap1\n      sub\n      0x1f\n      and\n      dup3\n      add\n      swap2\n    tag_220:\n      pop\n      pop\n      pop\n      pop\n      pop\n      dup2\n      mstore\n      0x20\n      add\n      swap1\n      0x01\n      add\n      swap1\n      jump(tag_214)\n    tag_215:\n      pop\n      pop\n      pop\n      pop\n      swap1\n      pop\n        /* \"contracts/SimpleBank/SimpleBank.sol\":5419:5534  function getUserAccounts() public view returns (string[] memory) {... */\n      swap1\n      jump\t// out\n        /* \"contracts/SimpleBank/SimpleBank.sol\":5542:5631  function getBankOwner() public view returns (address) {... */\n    tag_55:\n        /* \"contracts/SimpleBank/SimpleBank.sol\":5587:5594  address */\n      0x00\n        /* \"contracts/SimpleBank/SimpleBank.sol\":5614:5623  bankOwner */\n      dup1\n      0x00\n      swap1\n      sload\n      swap1\n      0x0100\n      exp\n      swap1\n      div\n      0xffffffffffffffffffffffffffffffffffffffff\n      and\n        /* \"contracts/SimpleBank/SimpleBank.sol\":5607:5623  return bankOwner */\n      swap1\n      pop\n        /* \"contracts/SimpleBank/SimpleBank.sol\":5542:5631  function getBankOwner() public view returns (address) {... */\n      swap1\n      jump\t// out\n        /* \"contracts/SimpleBank/SimpleBank.sol\":5253:5411  function getBalanceByName(string memory _name)... */\n    tag_60:\n        /* \"contracts/SimpleBank/SimpleBank.sol\":5348:5355  uint256 */\n      0x00\n        /* \"contracts/SimpleBank/SimpleBank.sol\":5380:5388  accounts */\n      0x03\n        /* \"contracts/SimpleBank/SimpleBank.sol\":5389:5394  _name */\n      dup3\n        /* \"contracts/SimpleBank/SimpleBank.sol\":5380:5395  accounts[_name] */\n      mload(0x40)\n      tag_225\n      swap2\n      swap1\n      tag_69\n      jump\t// in\n    tag_225:\n      swap1\n      dup2\n      mstore\n      0x20\n      add\n      mload(0x40)\n      dup1\n      swap2\n      sub\n      swap1\n      keccak256\n        /* \"contracts/SimpleBank/SimpleBank.sol\":5380:5403  accounts[_name].balance */\n      0x02\n      add\n      sload\n        /* \"contracts/SimpleBank/SimpleBank.sol\":5373:5403  return accounts[_name].balance */\n      swap1\n      pop\n        /* \"contracts/SimpleBank/SimpleBank.sol\":5253:5411  function getBalanceByName(string memory _name)... */\n      swap2\n      swap1\n      pop\n      jump\t// out\n        /* \"contracts/SimpleBank/SimpleBank.sol\":3355:3708  function withdrawnBankBalance(uint256 _amount) public {... */\n    tag_66:\n        /* \"contracts/SimpleBank/SimpleBank.sol\":3441:3451  msg.sender */\n      caller\n        /* \"contracts/SimpleBank/SimpleBank.sol\":3428:3451  bankOwner == msg.sender */\n      0xffffffffffffffffffffffffffffffffffffffff\n      and\n        /* \"contracts/SimpleBank/SimpleBank.sol\":3428:3437  bankOwner */\n      0x00\n      dup1\n      sload\n      swap1\n      0x0100\n      exp\n      swap1\n      div\n      0xffffffffffffffffffffffffffffffffffffffff\n      and\n        /* \"contracts/SimpleBank/SimpleBank.sol\":3428:3451  bankOwner == msg.sender */\n      0xffffffffffffffffffffffffffffffffffffffff\n      and\n      eq\n        /* \"contracts/SimpleBank/SimpleBank.sol\":3420:3480  require(bankOwner == msg.sender, \"withdrawn_fail_not_owner\") */\n      tag_227\n      jumpi\n      mload(0x40)\n      0x08c379a000000000000000000000000000000000000000000000000000000000\n      dup2\n      mstore\n      0x04\n      add\n      tag_228\n      swap1\n      tag_151\n      jump\t// in\n    tag_228:\n      mload(0x40)\n      dup1\n      swap2\n      sub\n      swap1\n      revert\n    tag_227:\n        /* \"contracts/SimpleBank/SimpleBank.sol\":3509:3510  0 */\n      0x00\n        /* \"contracts/SimpleBank/SimpleBank.sol\":3499:3506  _amount */\n      dup2\n        /* \"contracts/SimpleBank/SimpleBank.sol\":3499:3510  _amount > 0 */\n      gt\n        /* \"contracts/SimpleBank/SimpleBank.sol\":3491:3540  require(_amount > 0, \"withdrawn_fail_value_zero\") */\n      tag_229\n      jumpi\n      mload(0x40)\n      0x08c379a000000000000000000000000000000000000000000000000000000000\n      dup2\n      mstore\n      0x04\n      add\n      tag_230\n      swap1\n      tag_154\n      jump\t// in\n    tag_230:\n      mload(0x40)\n      dup1\n      swap2\n      sub\n      swap1\n      revert\n    tag_229:\n        /* \"contracts/SimpleBank/SimpleBank.sol\":3574:3581  _amount */\n      dup1\n        /* \"contracts/SimpleBank/SimpleBank.sol\":3559:3570  bankBalance */\n      sload(0x01)\n        /* \"contracts/SimpleBank/SimpleBank.sol\":3559:3581  bankBalance >= _amount */\n      lt\n      iszero\n        /* \"contracts/SimpleBank/SimpleBank.sol\":3551:3619  require(bankBalance >= _amount, \"withdrawn_fail_balance_not_enough\") */\n      tag_231\n      jumpi\n      mload(0x40)\n      0x08c379a000000000000000000000000000000000000000000000000000000000\n      dup2\n      mstore\n      0x04\n      add\n      tag_232\n      swap1\n      tag_158\n      jump\t// in\n    tag_232:\n      mload(0x40)\n      dup1\n      swap2\n      sub\n      swap1\n      revert\n    tag_231:\n        /* \"contracts/SimpleBank/SimpleBank.sol\":3645:3652  _amount */\n      dup1\n        /* \"contracts/SimpleBank/SimpleBank.sol\":3630:3641  bankBalance */\n      0x01\n      0x00\n        /* \"contracts/SimpleBank/SimpleBank.sol\":3630:3652  bankBalance -= _amount */\n      dup3\n      dup3\n      sload\n      tag_233\n      swap2\n      swap1\n      tag_107\n      jump\t// in\n    tag_233:\n      swap3\n      pop\n      pop\n      dup2\n      swap1\n      sstore\n      pop\n        /* \"contracts/SimpleBank/SimpleBank.sol\":3671:3681  msg.sender */\n      caller\n        /* \"contracts/SimpleBank/SimpleBank.sol\":3663:3691  payable(msg.sender).transfer */\n      0xffffffffffffffffffffffffffffffffffffffff\n      and\n        /* \"contracts/SimpleBank/SimpleBank.sol\":3663:3700  payable(msg.sender).transfer(_amount) */\n      0x08fc\n        /* \"contracts/SimpleBank/SimpleBank.sol\":3692:3699  _amount */\n      dup3\n        /* \"contracts/SimpleBank/SimpleBank.sol\":3663:3700  payable(msg.sender).transfer(_amount) */\n      swap1\n      dup2\n      iszero\n      mul\n      swap1\n      mload(0x40)\n      0x00\n      mload(0x40)\n      dup1\n      dup4\n      sub\n      dup2\n      dup6\n      dup9\n      dup9\n      call\n      swap4\n      pop\n      pop\n      pop\n      pop\n      iszero\n      dup1\n      iszero\n      tag_235\n      jumpi\n      returndatasize\n      0x00\n      dup1\n      returndatacopy\n      revert(0x00, returndatasize)\n    tag_235:\n      pop\n        /* \"contracts/SimpleBank/SimpleBank.sol\":3355:3708  function withdrawnBankBalance(uint256 _amount) public {... */\n      pop\n      jump\t// out\n        /* \"#utility.yul\":7:82   */\n    tag_236:\n        /* \"#utility.yul\":40:46   */\n      0x00\n        /* \"#utility.yul\":73:75   */\n      0x40\n        /* \"#utility.yul\":67:76   */\n      mload\n        /* \"#utility.yul\":57:76   */\n      swap1\n      pop\n        /* \"#utility.yul\":7:82   */\n      swap1\n      jump\t// out\n        /* \"#utility.yul\":88:205   */\n    tag_237:\n        /* \"#utility.yul\":197:198   */\n      0x00\n        /* \"#utility.yul\":194:195   */\n      dup1\n        /* \"#utility.yul\":187:199   */\n      revert\n        /* \"#utility.yul\":211:328   */\n    tag_238:\n        /* \"#utility.yul\":320:321   */\n      0x00\n        /* \"#utility.yul\":317:318   */\n      dup1\n        /* \"#utility.yul\":310:322   */\n      revert\n        /* \"#utility.yul\":334:451   */\n    tag_239:\n        /* \"#utility.yul\":443:444   */\n      0x00\n        /* \"#utility.yul\":440:441   */\n      dup1\n        /* \"#utility.yul\":433:445   */\n      revert\n        /* \"#utility.yul\":457:574   */\n    tag_240:\n        /* \"#utility.yul\":566:567   */\n      0x00\n        /* \"#utility.yul\":563:564   */\n      dup1\n        /* \"#utility.yul\":556:568   */\n      revert\n        /* \"#utility.yul\":580:682   */\n    tag_241:\n        /* \"#utility.yul\":621:627   */\n      0x00\n        /* \"#utility.yul\":672:674   */\n      0x1f\n        /* \"#utility.yul\":668:675   */\n      not\n        /* \"#utility.yul\":663:665   */\n      0x1f\n        /* \"#utility.yul\":656:661   */\n      dup4\n        /* \"#utility.yul\":652:666   */\n      add\n        /* \"#utility.yul\":648:676   */\n      and\n        /* \"#utility.yul\":638:676   */\n      swap1\n      pop\n        /* \"#utility.yul\":580:682   */\n      swap2\n      swap1\n      pop\n      jump\t// out\n        /* \"#utility.yul\":688:868   */\n    tag_242:\n        /* \"#utility.yul\":736:813   */\n      0x4e487b7100000000000000000000000000000000000000000000000000000000\n        /* \"#utility.yul\":733:734   */\n      0x00\n        /* \"#utility.yul\":726:814   */\n      mstore\n        /* \"#utility.yul\":833:837   */\n      0x41\n        /* \"#utility.yul\":830:831   */\n      0x04\n        /* \"#utility.yul\":823:838   */\n      mstore\n        /* \"#utility.yul\":857:861   */\n      0x24\n        /* \"#utility.yul\":854:855   */\n      0x00\n        /* \"#utility.yul\":847:862   */\n      revert\n        /* \"#utility.yul\":874:1155   */\n    tag_243:\n        /* \"#utility.yul\":957:984   */\n      tag_325\n        /* \"#utility.yul\":979:983   */\n      dup3\n        /* \"#utility.yul\":957:984   */\n      tag_241\n      jump\t// in\n    tag_325:\n        /* \"#utility.yul\":949:955   */\n      dup2\n        /* \"#utility.yul\":945:985   */\n      add\n        /* \"#utility.yul\":1087:1093   */\n      dup2\n        /* \"#utility.yul\":1075:1085   */\n      dup2\n        /* \"#utility.yul\":1072:1094   */\n      lt\n        /* \"#utility.yul\":1051:1069   */\n      0xffffffffffffffff\n        /* \"#utility.yul\":1039:1049   */\n      dup3\n        /* \"#utility.yul\":1036:1070   */\n      gt\n        /* \"#utility.yul\":1033:1095   */\n      or\n        /* \"#utility.yul\":1030:1118   */\n      iszero\n      tag_326\n      jumpi\n        /* \"#utility.yul\":1098:1116   */\n      tag_327\n      tag_242\n      jump\t// in\n    tag_327:\n        /* \"#utility.yul\":1030:1118   */\n    tag_326:\n        /* \"#utility.yul\":1138:1148   */\n      dup1\n        /* \"#utility.yul\":1134:1136   */\n      0x40\n        /* \"#utility.yul\":1127:1149   */\n      mstore\n        /* \"#utility.yul\":917:1155   */\n      pop\n        /* \"#utility.yul\":874:1155   */\n      pop\n      pop\n      jump\t// out\n        /* \"#utility.yul\":1161:1290   */\n    tag_244:\n        /* \"#utility.yul\":1195:1201   */\n      0x00\n        /* \"#utility.yul\":1222:1242   */\n      tag_329\n      tag_236\n      jump\t// in\n    tag_329:\n        /* \"#utility.yul\":1212:1242   */\n      swap1\n      pop\n        /* \"#utility.yul\":1251:1284   */\n      tag_330\n        /* \"#utility.yul\":1279:1283   */\n      dup3\n        /* \"#utility.yul\":1271:1277   */\n      dup3\n        /* \"#utility.yul\":1251:1284   */\n      tag_243\n      jump\t// in\n    tag_330:\n        /* \"#utility.yul\":1161:1290   */\n      swap2\n      swap1\n      pop\n      jump\t// out\n        /* \"#utility.yul\":1296:1604   */\n    tag_245:\n        /* \"#utility.yul\":1358:1362   */\n      0x00\n        /* \"#utility.yul\":1448:1466   */\n      0xffffffffffffffff\n        /* \"#utility.yul\":1440:1446   */\n      dup3\n        /* \"#utility.yul\":1437:1467   */\n      gt\n        /* \"#utility.yul\":1434:1490   */\n      iszero\n      tag_332\n      jumpi\n        /* \"#utility.yul\":1470:1488   */\n      tag_333\n      tag_242\n      jump\t// in\n    tag_333:\n        /* \"#utility.yul\":1434:1490   */\n    tag_332:\n        /* \"#utility.yul\":1508:1537   */\n      tag_334\n        /* \"#utility.yul\":1530:1536   */\n      dup3\n        /* \"#utility.yul\":1508:1537   */\n      tag_241\n      jump\t// in\n    tag_334:\n        /* \"#utility.yul\":1500:1537   */\n      swap1\n      pop\n        /* \"#utility.yul\":1592:1596   */\n      0x20\n        /* \"#utility.yul\":1586:1590   */\n      dup2\n        /* \"#utility.yul\":1582:1597   */\n      add\n        /* \"#utility.yul\":1574:1597   */\n      swap1\n      pop\n        /* \"#utility.yul\":1296:1604   */\n      swap2\n      swap1\n      pop\n      jump\t// out\n        /* \"#utility.yul\":1610:1764   */\n    tag_246:\n        /* \"#utility.yul\":1694:1700   */\n      dup3\n        /* \"#utility.yul\":1689:1692   */\n      dup2\n        /* \"#utility.yul\":1684:1687   */\n      dup4\n        /* \"#utility.yul\":1671:1701   */\n      calldatacopy\n        /* \"#utility.yul\":1756:1757   */\n      0x00\n        /* \"#utility.yul\":1747:1753   */\n      dup4\n        /* \"#utility.yul\":1742:1745   */\n      dup4\n        /* \"#utility.yul\":1738:1754   */\n      add\n        /* \"#utility.yul\":1731:1758   */\n      mstore\n        /* \"#utility.yul\":1610:1764   */\n      pop\n      pop\n      pop\n      jump\t// out\n        /* \"#utility.yul\":1770:2182   */\n    tag_247:\n        /* \"#utility.yul\":1848:1853   */\n      0x00\n        /* \"#utility.yul\":1873:1939   */\n      tag_337\n        /* \"#utility.yul\":1889:1938   */\n      tag_338\n        /* \"#utility.yul\":1931:1937   */\n      dup5\n        /* \"#utility.yul\":1889:1938   */\n      tag_245\n      jump\t// in\n    tag_338:\n        /* \"#utility.yul\":1873:1939   */\n      tag_244\n      jump\t// in\n    tag_337:\n        /* \"#utility.yul\":1864:1939   */\n      swap1\n      pop\n        /* \"#utility.yul\":1962:1968   */\n      dup3\n        /* \"#utility.yul\":1955:1960   */\n      dup2\n        /* \"#utility.yul\":1948:1969   */\n      mstore\n        /* \"#utility.yul\":2000:2004   */\n      0x20\n        /* \"#utility.yul\":1993:1998   */\n      dup2\n        /* \"#utility.yul\":1989:2005   */\n      add\n        /* \"#utility.yul\":2038:2041   */\n      dup5\n        /* \"#utility.yul\":2029:2035   */\n      dup5\n        /* \"#utility.yul\":2024:2027   */\n      dup5\n        /* \"#utility.yul\":2020:2036   */\n      add\n        /* \"#utility.yul\":2017:2042   */\n      gt\n        /* \"#utility.yul\":2014:2126   */\n      iszero\n      tag_339\n      jumpi\n        /* \"#utility.yul\":2045:2124   */\n      tag_340\n      tag_240\n      jump\t// in\n    tag_340:\n        /* \"#utility.yul\":2014:2126   */\n    tag_339:\n        /* \"#utility.yul\":2135:2176   */\n      tag_341\n        /* \"#utility.yul\":2169:2175   */\n      dup5\n        /* \"#utility.yul\":2164:2167   */\n      dup3\n        /* \"#utility.yul\":2159:2162   */\n      dup6\n        /* \"#utility.yul\":2135:2176   */\n      tag_246\n      jump\t// in\n    tag_341:\n        /* \"#utility.yul\":1854:2182   */\n      pop\n        /* \"#utility.yul\":1770:2182   */\n      swap4\n      swap3\n      pop\n      pop\n      pop\n      jump\t// out\n        /* \"#utility.yul\":2202:2542   */\n    tag_248:\n        /* \"#utility.yul\":2258:2263   */\n      0x00\n        /* \"#utility.yul\":2307:2310   */\n      dup3\n        /* \"#utility.yul\":2300:2304   */\n      0x1f\n        /* \"#utility.yul\":2292:2298   */\n      dup4\n        /* \"#utility.yul\":2288:2305   */\n      add\n        /* \"#utility.yul\":2284:2311   */\n      slt\n        /* \"#utility.yul\":2274:2396   */\n      tag_343\n      jumpi\n        /* \"#utility.yul\":2315:2394   */\n      tag_344\n      tag_239\n      jump\t// in\n    tag_344:\n        /* \"#utility.yul\":2274:2396   */\n    tag_343:\n        /* \"#utility.yul\":2432:2438   */\n      dup2\n        /* \"#utility.yul\":2419:2439   */\n      calldataload\n        /* \"#utility.yul\":2457:2536   */\n      tag_345\n        /* \"#utility.yul\":2532:2535   */\n      dup5\n        /* \"#utility.yul\":2524:2530   */\n      dup3\n        /* \"#utility.yul\":2517:2521   */\n      0x20\n        /* \"#utility.yul\":2509:2515   */\n      dup7\n        /* \"#utility.yul\":2505:2522   */\n      add\n        /* \"#utility.yul\":2457:2536   */\n      tag_247\n      jump\t// in\n    tag_345:\n        /* \"#utility.yul\":2448:2536   */\n      swap2\n      pop\n        /* \"#utility.yul\":2264:2542   */\n      pop\n        /* \"#utility.yul\":2202:2542   */\n      swap3\n      swap2\n      pop\n      pop\n      jump\t// out\n        /* \"#utility.yul\":2548:2869   */\n    tag_249:\n        /* \"#utility.yul\":2635:2639   */\n      0x00\n        /* \"#utility.yul\":2725:2743   */\n      0xffffffffffffffff\n        /* \"#utility.yul\":2717:2723   */\n      dup3\n        /* \"#utility.yul\":2714:2744   */\n      gt\n        /* \"#utility.yul\":2711:2767   */\n      iszero\n      tag_347\n      jumpi\n        /* \"#utility.yul\":2747:2765   */\n      tag_348\n      tag_242\n      jump\t// in\n    tag_348:\n        /* \"#utility.yul\":2711:2767   */\n    tag_347:\n        /* \"#utility.yul\":2797:2801   */\n      0x20\n        /* \"#utility.yul\":2789:2795   */\n      dup3\n        /* \"#utility.yul\":2785:2802   */\n      mul\n        /* \"#utility.yul\":2777:2802   */\n      swap1\n      pop\n        /* \"#utility.yul\":2857:2861   */\n      0x20\n        /* \"#utility.yul\":2851:2855   */\n      dup2\n        /* \"#utility.yul\":2847:2862   */\n      add\n        /* \"#utility.yul\":2839:2862   */\n      swap1\n      pop\n        /* \"#utility.yul\":2548:2869   */\n      swap2\n      swap1\n      pop\n      jump\t// out\n        /* \"#utility.yul\":2875:2992   */\n    tag_250:\n        /* \"#utility.yul\":2984:2985   */\n      0x00\n        /* \"#utility.yul\":2981:2982   */\n      dup1\n        /* \"#utility.yul\":2974:2986   */\n      revert\n        /* \"#utility.yul\":3014:3959   */\n    tag_251:\n        /* \"#utility.yul\":3120:3125   */\n      0x00\n        /* \"#utility.yul\":3145:3236   */\n      tag_351\n        /* \"#utility.yul\":3161:3235   */\n      tag_352\n        /* \"#utility.yul\":3228:3234   */\n      dup5\n        /* \"#utility.yul\":3161:3235   */\n      tag_249\n      jump\t// in\n    tag_352:\n        /* \"#utility.yul\":3145:3236   */\n      tag_244\n      jump\t// in\n    tag_351:\n        /* \"#utility.yul\":3136:3236   */\n      swap1\n      pop\n        /* \"#utility.yul\":3256:3261   */\n      dup1\n        /* \"#utility.yul\":3285:3291   */\n      dup4\n        /* \"#utility.yul\":3278:3283   */\n      dup3\n        /* \"#utility.yul\":3271:3292   */\n      mstore\n        /* \"#utility.yul\":3319:3323   */\n      0x20\n        /* \"#utility.yul\":3312:3317   */\n      dup3\n        /* \"#utility.yul\":3308:3324   */\n      add\n        /* \"#utility.yul\":3301:3324   */\n      swap1\n      pop\n        /* \"#utility.yul\":3372:3376   */\n      0x20\n        /* \"#utility.yul\":3364:3370   */\n      dup5\n        /* \"#utility.yul\":3360:3377   */\n      mul\n        /* \"#utility.yul\":3352:3358   */\n      dup4\n        /* \"#utility.yul\":3348:3378   */\n      add\n        /* \"#utility.yul\":3401:3404   */\n      dup6\n        /* \"#utility.yul\":3393:3399   */\n      dup2\n        /* \"#utility.yul\":3390:3405   */\n      gt\n        /* \"#utility.yul\":3387:3509   */\n      iszero\n      tag_353\n      jumpi\n        /* \"#utility.yul\":3420:3499   */\n      tag_354\n      tag_250\n      jump\t// in\n    tag_354:\n        /* \"#utility.yul\":3387:3509   */\n    tag_353:\n        /* \"#utility.yul\":3535:3541   */\n      dup4\n        /* \"#utility.yul\":3518:3953   */\n    tag_355:\n        /* \"#utility.yul\":3552:3558   */\n      dup2\n        /* \"#utility.yul\":3547:3550   */\n      dup2\n        /* \"#utility.yul\":3544:3559   */\n      lt\n        /* \"#utility.yul\":3518:3953   */\n      iszero\n      tag_357\n      jumpi\n        /* \"#utility.yul\":3641:3644   */\n      dup1\n        /* \"#utility.yul\":3628:3645   */\n      calldataload\n        /* \"#utility.yul\":3677:3695   */\n      0xffffffffffffffff\n        /* \"#utility.yul\":3664:3675   */\n      dup2\n        /* \"#utility.yul\":3661:3696   */\n      gt\n        /* \"#utility.yul\":3658:3780   */\n      iszero\n      tag_358\n      jumpi\n        /* \"#utility.yul\":3699:3778   */\n      tag_359\n      tag_239\n      jump\t// in\n    tag_359:\n        /* \"#utility.yul\":3658:3780   */\n    tag_358:\n        /* \"#utility.yul\":3823:3834   */\n      dup1\n        /* \"#utility.yul\":3815:3821   */\n      dup7\n        /* \"#utility.yul\":3811:3835   */\n      add\n        /* \"#utility.yul\":3861:3908   */\n      tag_360\n        /* \"#utility.yul\":3904:3907   */\n      dup10\n        /* \"#utility.yul\":3892:3902   */\n      dup3\n        /* \"#utility.yul\":3861:3908   */\n      tag_248\n      jump\t// in\n    tag_360:\n        /* \"#utility.yul\":3856:3859   */\n      dup6\n        /* \"#utility.yul\":3849:3909   */\n      mstore\n        /* \"#utility.yul\":3938:3942   */\n      0x20\n        /* \"#utility.yul\":3933:3936   */\n      dup6\n        /* \"#utility.yul\":3929:3943   */\n      add\n        /* \"#utility.yul\":3922:3943   */\n      swap5\n      pop\n        /* \"#utility.yul\":3594:3953   */\n      pop\n      pop\n        /* \"#utility.yul\":3578:3582   */\n      0x20\n        /* \"#utility.yul\":3573:3576   */\n      dup2\n        /* \"#utility.yul\":3569:3583   */\n      add\n        /* \"#utility.yul\":3562:3583   */\n      swap1\n      pop\n        /* \"#utility.yul\":3518:3953   */\n      jump(tag_355)\n    tag_357:\n        /* \"#utility.yul\":3522:3543   */\n      pop\n        /* \"#utility.yul\":3126:3959   */\n      pop\n      pop\n        /* \"#utility.yul\":3014:3959   */\n      swap4\n      swap3\n      pop\n      pop\n      pop\n      jump\t// out\n        /* \"#utility.yul\":3981:4371   */\n    tag_252:\n        /* \"#utility.yul\":4062:4067   */\n      0x00\n        /* \"#utility.yul\":4111:4114   */\n      dup3\n        /* \"#utility.yul\":4104:4108   */\n      0x1f\n        /* \"#utility.yul\":4096:4102   */\n      dup4\n        /* \"#utility.yul\":4092:4109   */\n      add\n        /* \"#utility.yul\":4088:4115   */\n      slt\n        /* \"#utility.yul\":4078:4200   */\n      tag_362\n      jumpi\n        /* \"#utility.yul\":4119:4198   */\n      tag_363\n      tag_239\n      jump\t// in\n    tag_363:\n        /* \"#utility.yul\":4078:4200   */\n    tag_362:\n        /* \"#utility.yul\":4236:4242   */\n      dup2\n        /* \"#utility.yul\":4223:4243   */\n      calldataload\n        /* \"#utility.yul\":4261:4365   */\n      tag_364\n        /* \"#utility.yul\":4361:4364   */\n      dup5\n        /* \"#utility.yul\":4353:4359   */\n      dup3\n        /* \"#utility.yul\":4346:4350   */\n      0x20\n        /* \"#utility.yul\":4338:4344   */\n      dup7\n        /* \"#utility.yul\":4334:4351   */\n      add\n        /* \"#utility.yul\":4261:4365   */\n      tag_251\n      jump\t// in\n    tag_364:\n        /* \"#utility.yul\":4252:4365   */\n      swap2\n      pop\n        /* \"#utility.yul\":4068:4371   */\n      pop\n        /* \"#utility.yul\":3981:4371   */\n      swap3\n      swap2\n      pop\n      pop\n      jump\t// out\n        /* \"#utility.yul\":4377:4454   */\n    tag_253:\n        /* \"#utility.yul\":4414:4421   */\n      0x00\n        /* \"#utility.yul\":4443:4448   */\n      dup2\n        /* \"#utility.yul\":4432:4448   */\n      swap1\n      pop\n        /* \"#utility.yul\":4377:4454   */\n      swap2\n      swap1\n      pop\n      jump\t// out\n        /* \"#utility.yul\":4460:4582   */\n    tag_254:\n        /* \"#utility.yul\":4533:4557   */\n      tag_367\n        /* \"#utility.yul\":4551:4556   */\n      dup2\n        /* \"#utility.yul\":4533:4557   */\n      tag_253\n      jump\t// in\n    tag_367:\n        /* \"#utility.yul\":4526:4531   */\n      dup2\n        /* \"#utility.yul\":4523:4558   */\n      eq\n        /* \"#utility.yul\":4513:4576   */\n      tag_368\n      jumpi\n        /* \"#utility.yul\":4572:4573   */\n      0x00\n        /* \"#utility.yul\":4569:4570   */\n      dup1\n        /* \"#utility.yul\":4562:4574   */\n      revert\n        /* \"#utility.yul\":4513:4576   */\n    tag_368:\n        /* \"#utility.yul\":4460:4582   */\n      pop\n      jump\t// out\n        /* \"#utility.yul\":4588:4727   */\n    tag_255:\n        /* \"#utility.yul\":4634:4639   */\n      0x00\n        /* \"#utility.yul\":4672:4678   */\n      dup2\n        /* \"#utility.yul\":4659:4679   */\n      calldataload\n        /* \"#utility.yul\":4650:4679   */\n      swap1\n      pop\n        /* \"#utility.yul\":4688:4721   */\n      tag_370\n        /* \"#utility.yul\":4715:4720   */\n      dup2\n        /* \"#utility.yul\":4688:4721   */\n      tag_254\n      jump\t// in\n    tag_370:\n        /* \"#utility.yul\":4588:4727   */\n      swap3\n      swap2\n      pop\n      pop\n      jump\t// out\n        /* \"#utility.yul\":4733:5762   */\n    tag_17:\n        /* \"#utility.yul\":4855:4861   */\n      0x00\n        /* \"#utility.yul\":4863:4869   */\n      dup1\n        /* \"#utility.yul\":4871:4877   */\n      0x00\n        /* \"#utility.yul\":4920:4922   */\n      0x60\n        /* \"#utility.yul\":4908:4917   */\n      dup5\n        /* \"#utility.yul\":4899:4906   */\n      dup7\n        /* \"#utility.yul\":4895:4918   */\n      sub\n        /* \"#utility.yul\":4891:4923   */\n      slt\n        /* \"#utility.yul\":4888:5007   */\n      iszero\n      tag_372\n      jumpi\n        /* \"#utility.yul\":4926:5005   */\n      tag_373\n      tag_237\n      jump\t// in\n    tag_373:\n        /* \"#utility.yul\":4888:5007   */\n    tag_372:\n        /* \"#utility.yul\":5074:5075   */\n      0x00\n        /* \"#utility.yul\":5063:5072   */\n      dup5\n        /* \"#utility.yul\":5059:5076   */\n      add\n        /* \"#utility.yul\":5046:5077   */\n      calldataload\n        /* \"#utility.yul\":5104:5122   */\n      0xffffffffffffffff\n        /* \"#utility.yul\":5096:5102   */\n      dup2\n        /* \"#utility.yul\":5093:5123   */\n      gt\n        /* \"#utility.yul\":5090:5207   */\n      iszero\n      tag_374\n      jumpi\n        /* \"#utility.yul\":5126:5205   */\n      tag_375\n      tag_238\n      jump\t// in\n    tag_375:\n        /* \"#utility.yul\":5090:5207   */\n    tag_374:\n        /* \"#utility.yul\":5231:5294   */\n      tag_376\n        /* \"#utility.yul\":5286:5293   */\n      dup7\n        /* \"#utility.yul\":5277:5283   */\n      dup3\n        /* \"#utility.yul\":5266:5275   */\n      dup8\n        /* \"#utility.yul\":5262:5284   */\n      add\n        /* \"#utility.yul\":5231:5294   */\n      tag_248\n      jump\t// in\n    tag_376:\n        /* \"#utility.yul\":5221:5294   */\n      swap4\n      pop\n        /* \"#utility.yul\":5017:5304   */\n      pop\n        /* \"#utility.yul\":5371:5373   */\n      0x20\n        /* \"#utility.yul\":5360:5369   */\n      dup5\n        /* \"#utility.yul\":5356:5374   */\n      add\n        /* \"#utility.yul\":5343:5375   */\n      calldataload\n        /* \"#utility.yul\":5402:5420   */\n      0xffffffffffffffff\n        /* \"#utility.yul\":5394:5400   */\n      dup2\n        /* \"#utility.yul\":5391:5421   */\n      gt\n        /* \"#utility.yul\":5388:5505   */\n      iszero\n      tag_377\n      jumpi\n        /* \"#utility.yul\":5424:5503   */\n      tag_378\n      tag_238\n      jump\t// in\n    tag_378:\n        /* \"#utility.yul\":5388:5505   */\n    tag_377:\n        /* \"#utility.yul\":5529:5617   */\n      tag_379\n        /* \"#utility.yul\":5609:5616   */\n      dup7\n        /* \"#utility.yul\":5600:5606   */\n      dup3\n        /* \"#utility.yul\":5589:5598   */\n      dup8\n        /* \"#utility.yul\":5585:5607   */\n      add\n        /* \"#utility.yul\":5529:5617   */\n      tag_252\n      jump\t// in\n    tag_379:\n        /* \"#utility.yul\":5519:5617   */\n      swap3\n      pop\n        /* \"#utility.yul\":5314:5627   */\n      pop\n        /* \"#utility.yul\":5666:5668   */\n      0x40\n        /* \"#utility.yul\":5692:5745   */\n      tag_380\n        /* \"#utility.yul\":5737:5744   */\n      dup7\n        /* \"#utility.yul\":5728:5734   */\n      dup3\n        /* \"#utility.yul\":5717:5726   */\n      dup8\n        /* \"#utility.yul\":5713:5735   */\n      add\n        /* \"#utility.yul\":5692:5745   */\n      tag_255\n      jump\t// in\n    tag_380:\n        /* \"#utility.yul\":5682:5745   */\n      swap2\n      pop\n        /* \"#utility.yul\":5637:5755   */\n      pop\n        /* \"#utility.yul\":4733:5762   */\n      swap3\n      pop\n      swap3\n      pop\n      swap3\n      jump\t// out\n        /* \"#utility.yul\":5768:6277   */\n    tag_22:\n        /* \"#utility.yul\":5837:5843   */\n      0x00\n        /* \"#utility.yul\":5886:5888   */\n      0x20\n        /* \"#utility.yul\":5874:5883   */\n      dup3\n        /* \"#utility.yul\":5865:5872   */\n      dup5\n        /* \"#utility.yul\":5861:5884   */\n      sub\n        /* \"#utility.yul\":5857:5889   */\n      slt\n        /* \"#utility.yul\":5854:5973   */\n      iszero\n      tag_382\n      jumpi\n        /* \"#utility.yul\":5892:5971   */\n      tag_383\n      tag_237\n      jump\t// in\n    tag_383:\n        /* \"#utility.yul\":5854:5973   */\n    tag_382:\n        /* \"#utility.yul\":6040:6041   */\n      0x00\n        /* \"#utility.yul\":6029:6038   */\n      dup3\n        /* \"#utility.yul\":6025:6042   */\n      add\n        /* \"#utility.yul\":6012:6043   */\n      calldataload\n        /* \"#utility.yul\":6070:6088   */\n      0xffffffffffffffff\n        /* \"#utility.yul\":6062:6068   */\n      dup2\n        /* \"#utility.yul\":6059:6089   */\n      gt\n        /* \"#utility.yul\":6056:6173   */\n      iszero\n      tag_384\n      jumpi\n        /* \"#utility.yul\":6092:6171   */\n      tag_385\n      tag_238\n      jump\t// in\n    tag_385:\n        /* \"#utility.yul\":6056:6173   */\n    tag_384:\n        /* \"#utility.yul\":6197:6260   */\n      tag_386\n        /* \"#utility.yul\":6252:6259   */\n      dup5\n        /* \"#utility.yul\":6243:6249   */\n      dup3\n        /* \"#utility.yul\":6232:6241   */\n      dup6\n        /* \"#utility.yul\":6228:6250   */\n      add\n        /* \"#utility.yul\":6197:6260   */\n      tag_248\n      jump\t// in\n    tag_386:\n        /* \"#utility.yul\":6187:6260   */\n      swap2\n      pop\n        /* \"#utility.yul\":5983:6270   */\n      pop\n        /* \"#utility.yul\":5768:6277   */\n      swap3\n      swap2\n      pop\n      pop\n      jump\t// out\n        /* \"#utility.yul\":6283:6937   */\n    tag_27:\n        /* \"#utility.yul\":6361:6367   */\n      0x00\n        /* \"#utility.yul\":6369:6375   */\n      dup1\n        /* \"#utility.yul\":6418:6420   */\n      0x40\n        /* \"#utility.yul\":6406:6415   */\n      dup4\n        /* \"#utility.yul\":6397:6404   */\n      dup6\n        /* \"#utility.yul\":6393:6416   */\n      sub\n        /* \"#utility.yul\":6389:6421   */\n      slt\n        /* \"#utility.yul\":6386:6505   */\n      iszero\n      tag_388\n      jumpi\n        /* \"#utility.yul\":6424:6503   */\n      tag_389\n      tag_237\n      jump\t// in\n    tag_389:\n        /* \"#utility.yul\":6386:6505   */\n    tag_388:\n        /* \"#utility.yul\":6572:6573   */\n      0x00\n        /* \"#utility.yul\":6561:6570   */\n      dup4\n        /* \"#utility.yul\":6557:6574   */\n      add\n        /* \"#utility.yul\":6544:6575   */\n      calldataload\n        /* \"#utility.yul\":6602:6620   */\n      0xffffffffffffffff\n        /* \"#utility.yul\":6594:6600   */\n      dup2\n        /* \"#utility.yul\":6591:6621   */\n      gt\n        /* \"#utility.yul\":6588:6705   */\n      iszero\n      tag_390\n      jumpi\n        /* \"#utility.yul\":6624:6703   */\n      tag_391\n      tag_238\n      jump\t// in\n    tag_391:\n        /* \"#utility.yul\":6588:6705   */\n    tag_390:\n        /* \"#utility.yul\":6729:6792   */\n      tag_392\n        /* \"#utility.yul\":6784:6791   */\n      dup6\n        /* \"#utility.yul\":6775:6781   */\n      dup3\n        /* \"#utility.yul\":6764:6773   */\n      dup7\n        /* \"#utility.yul\":6760:6782   */\n      add\n        /* \"#utility.yul\":6729:6792   */\n      tag_248\n      jump\t// in\n    tag_392:\n        /* \"#utility.yul\":6719:6792   */\n      swap3\n      pop\n        /* \"#utility.yul\":6515:6802   */\n      pop\n        /* \"#utility.yul\":6841:6843   */\n      0x20\n        /* \"#utility.yul\":6867:6920   */\n      tag_393\n        /* \"#utility.yul\":6912:6919   */\n      dup6\n        /* \"#utility.yul\":6903:6909   */\n      dup3\n        /* \"#utility.yul\":6892:6901   */\n      dup7\n        /* \"#utility.yul\":6888:6910   */\n      add\n        /* \"#utility.yul\":6867:6920   */\n      tag_255\n      jump\t// in\n    tag_393:\n        /* \"#utility.yul\":6857:6920   */\n      swap2\n      pop\n        /* \"#utility.yul\":6812:6930   */\n      pop\n        /* \"#utility.yul\":6283:6937   */\n      swap3\n      pop\n      swap3\n      swap1\n      pop\n      jump\t// out\n        /* \"#utility.yul\":6943:7069   */\n    tag_256:\n        /* \"#utility.yul\":6980:6987   */\n      0x00\n        /* \"#utility.yul\":7020:7062   */\n      0xffffffffffffffffffffffffffffffffffffffff\n        /* \"#utility.yul\":7013:7018   */\n      dup3\n        /* \"#utility.yul\":7009:7063   */\n      and\n        /* \"#utility.yul\":6998:7063   */\n      swap1\n      pop\n        /* \"#utility.yul\":6943:7069   */\n      swap2\n      swap1\n      pop\n      jump\t// out\n        /* \"#utility.yul\":7075:7171   */\n    tag_257:\n        /* \"#utility.yul\":7112:7119   */\n      0x00\n        /* \"#utility.yul\":7141:7165   */\n      tag_396\n        /* \"#utility.yul\":7159:7164   */\n      dup3\n        /* \"#utility.yul\":7141:7165   */\n      tag_256\n      jump\t// in\n    tag_396:\n        /* \"#utility.yul\":7130:7165   */\n      swap1\n      pop\n        /* \"#utility.yul\":7075:7171   */\n      swap2\n      swap1\n      pop\n      jump\t// out\n        /* \"#utility.yul\":7177:7295   */\n    tag_258:\n        /* \"#utility.yul\":7264:7288   */\n      tag_398\n        /* \"#utility.yul\":7282:7287   */\n      dup2\n        /* \"#utility.yul\":7264:7288   */\n      tag_257\n      jump\t// in\n    tag_398:\n        /* \"#utility.yul\":7259:7262   */\n      dup3\n        /* \"#utility.yul\":7252:7289   */\n      mstore\n        /* \"#utility.yul\":7177:7295   */\n      pop\n      pop\n      jump\t// out\n        /* \"#utility.yul\":7301:7523   */\n    tag_34:\n        /* \"#utility.yul\":7394:7398   */\n      0x00\n        /* \"#utility.yul\":7432:7434   */\n      0x20\n        /* \"#utility.yul\":7421:7430   */\n      dup3\n        /* \"#utility.yul\":7417:7435   */\n      add\n        /* \"#utility.yul\":7409:7435   */\n      swap1\n      pop\n        /* \"#utility.yul\":7445:7516   */\n      tag_400\n        /* \"#utility.yul\":7513:7514   */\n      0x00\n        /* \"#utility.yul\":7502:7511   */\n      dup4\n        /* \"#utility.yul\":7498:7515   */\n      add\n        /* \"#utility.yul\":7489:7495   */\n      dup5\n        /* \"#utility.yul\":7445:7516   */\n      tag_258\n      jump\t// in\n    tag_400:\n        /* \"#utility.yul\":7301:7523   */\n      swap3\n      swap2\n      pop\n      pop\n      jump\t// out\n        /* \"#utility.yul\":7529:8508   */\n    tag_38:\n        /* \"#utility.yul\":7626:7632   */\n      0x00\n        /* \"#utility.yul\":7634:7640   */\n      dup1\n        /* \"#utility.yul\":7642:7648   */\n      0x00\n        /* \"#utility.yul\":7691:7693   */\n      0x60\n        /* \"#utility.yul\":7679:7688   */\n      dup5\n        /* \"#utility.yul\":7670:7677   */\n      dup7\n        /* \"#utility.yul\":7666:7689   */\n      sub\n        /* \"#utility.yul\":7662:7694   */\n      slt\n        /* \"#utility.yul\":7659:7778   */\n      iszero\n      tag_402\n      jumpi\n        /* \"#utility.yul\":7697:7776   */\n      tag_403\n      tag_237\n      jump\t// in\n    tag_403:\n        /* \"#utility.yul\":7659:7778   */\n    tag_402:\n        /* \"#utility.yul\":7845:7846   */\n      0x00\n        /* \"#utility.yul\":7834:7843   */\n      dup5\n        /* \"#utility.yul\":7830:7847   */\n      add\n        /* \"#utility.yul\":7817:7848   */\n      calldataload\n        /* \"#utility.yul\":7875:7893   */\n      0xffffffffffffffff\n        /* \"#utility.yul\":7867:7873   */\n      dup2\n        /* \"#utility.yul\":7864:7894   */\n      gt\n        /* \"#utility.yul\":7861:7978   */\n      iszero\n      tag_404\n      jumpi\n        /* \"#utility.yul\":7897:7976   */\n      tag_405\n      tag_238\n      jump\t// in\n    tag_405:\n        /* \"#utility.yul\":7861:7978   */\n    tag_404:\n        /* \"#utility.yul\":8002:8065   */\n      tag_406\n        /* \"#utility.yul\":8057:8064   */\n      dup7\n        /* \"#utility.yul\":8048:8054   */\n      dup3\n        /* \"#utility.yul\":8037:8046   */\n      dup8\n        /* \"#utility.yul\":8033:8055   */\n      add\n        /* \"#utility.yul\":8002:8065   */\n      tag_248\n      jump\t// in\n    tag_406:\n        /* \"#utility.yul\":7992:8065   */\n      swap4\n      pop\n        /* \"#utility.yul\":7788:8075   */\n      pop\n        /* \"#utility.yul\":8142:8144   */\n      0x20\n        /* \"#utility.yul\":8131:8140   */\n      dup5\n        /* \"#utility.yul\":8127:8145   */\n      add\n        /* \"#utility.yul\":8114:8146   */\n      calldataload\n        /* \"#utility.yul\":8173:8191   */\n      0xffffffffffffffff\n        /* \"#utility.yul\":8165:8171   */\n      dup2\n        /* \"#utility.yul\":8162:8192   */\n      gt\n        /* \"#utility.yul\":8159:8276   */\n      iszero\n      tag_407\n      jumpi\n        /* \"#utility.yul\":8195:8274   */\n      tag_408\n      tag_238\n      jump\t// in\n    tag_408:\n        /* \"#utility.yul\":8159:8276   */\n    tag_407:\n        /* \"#utility.yul\":8300:8363   */\n      tag_409\n        /* \"#utility.yul\":8355:8362   */\n      dup7\n        /* \"#utility.yul\":8346:8352   */\n      dup3\n        /* \"#utility.yul\":8335:8344   */\n      dup8\n        /* \"#utility.yul\":8331:8353   */\n      add\n        /* \"#utility.yul\":8300:8363   */\n      tag_248\n      jump\t// in\n    tag_409:\n        /* \"#utility.yul\":8290:8363   */\n      swap3\n      pop\n        /* \"#utility.yul\":8085:8373   */\n      pop\n        /* \"#utility.yul\":8412:8414   */\n      0x40\n        /* \"#utility.yul\":8438:8491   */\n      tag_410\n        /* \"#utility.yul\":8483:8490   */\n      dup7\n        /* \"#utility.yul\":8474:8480   */\n      dup3\n        /* \"#utility.yul\":8463:8472   */\n      dup8\n        /* \"#utility.yul\":8459:8481   */\n      add\n        /* \"#utility.yul\":8438:8491   */\n      tag_255\n      jump\t// in\n    tag_410:\n        /* \"#utility.yul\":8428:8491   */\n      swap2\n      pop\n        /* \"#utility.yul\":8383:8501   */\n      pop\n        /* \"#utility.yul\":7529:8508   */\n      swap3\n      pop\n      swap3\n      pop\n      swap3\n      jump\t// out\n        /* \"#utility.yul\":8514:8632   */\n    tag_259:\n        /* \"#utility.yul\":8601:8625   */\n      tag_412\n        /* \"#utility.yul\":8619:8624   */\n      dup2\n        /* \"#utility.yul\":8601:8625   */\n      tag_253\n      jump\t// in\n    tag_412:\n        /* \"#utility.yul\":8596:8599   */\n      dup3\n        /* \"#utility.yul\":8589:8626   */\n      mstore\n        /* \"#utility.yul\":8514:8632   */\n      pop\n      pop\n      jump\t// out\n        /* \"#utility.yul\":8638:8860   */\n    tag_44:\n        /* \"#utility.yul\":8731:8735   */\n      0x00\n        /* \"#utility.yul\":8769:8771   */\n      0x20\n        /* \"#utility.yul\":8758:8767   */\n      dup3\n        /* \"#utility.yul\":8754:8772   */\n      add\n        /* \"#utility.yul\":8746:8772   */\n      swap1\n      pop\n        /* \"#utility.yul\":8782:8853   */\n      tag_414\n        /* \"#utility.yul\":8850:8851   */\n      0x00\n        /* \"#utility.yul\":8839:8848   */\n      dup4\n        /* \"#utility.yul\":8835:8852   */\n      add\n        /* \"#utility.yul\":8826:8832   */\n      dup5\n        /* \"#utility.yul\":8782:8853   */\n      tag_259\n      jump\t// in\n    tag_414:\n        /* \"#utility.yul\":8638:8860   */\n      swap3\n      swap2\n      pop\n      pop\n      jump\t// out\n        /* \"#utility.yul\":8866:8990   */\n    tag_260:\n        /* \"#utility.yul\":8943:8949   */\n      0x00\n        /* \"#utility.yul\":8977:8982   */\n      dup2\n        /* \"#utility.yul\":8971:8983   */\n      mload\n        /* \"#utility.yul\":8961:8983   */\n      swap1\n      pop\n        /* \"#utility.yul\":8866:8990   */\n      swap2\n      swap1\n      pop\n      jump\t// out\n        /* \"#utility.yul\":8996:9190   */\n    tag_261:\n        /* \"#utility.yul\":9105:9116   */\n      0x00\n        /* \"#utility.yul\":9139:9145   */\n      dup3\n        /* \"#utility.yul\":9134:9137   */\n      dup3\n        /* \"#utility.yul\":9127:9146   */\n      mstore\n        /* \"#utility.yul\":9179:9183   */\n      0x20\n        /* \"#utility.yul\":9174:9177   */\n      dup3\n        /* \"#utility.yul\":9170:9184   */\n      add\n        /* \"#utility.yul\":9155:9184   */\n      swap1\n      pop\n        /* \"#utility.yul\":8996:9190   */\n      swap3\n      swap2\n      pop\n      pop\n      jump\t// out\n        /* \"#utility.yul\":9196:9338   */\n    tag_262:\n        /* \"#utility.yul\":9273:9277   */\n      0x00\n        /* \"#utility.yul\":9296:9299   */\n      dup2\n        /* \"#utility.yul\":9288:9299   */\n      swap1\n      pop\n        /* \"#utility.yul\":9326:9330   */\n      0x20\n        /* \"#utility.yul\":9321:9324   */\n      dup3\n        /* \"#utility.yul\":9317:9331   */\n      add\n        /* \"#utility.yul\":9309:9331   */\n      swap1\n      pop\n        /* \"#utility.yul\":9196:9338   */\n      swap2\n      swap1\n      pop\n      jump\t// out\n        /* \"#utility.yul\":9344:9443   */\n    tag_263:\n        /* \"#utility.yul\":9396:9402   */\n      0x00\n        /* \"#utility.yul\":9430:9435   */\n      dup2\n        /* \"#utility.yul\":9424:9436   */\n      mload\n        /* \"#utility.yul\":9414:9436   */\n      swap1\n      pop\n        /* \"#utility.yul\":9344:9443   */\n      swap2\n      swap1\n      pop\n      jump\t// out\n        /* \"#utility.yul\":9449:9608   */\n    tag_264:\n        /* \"#utility.yul\":9523:9534   */\n      0x00\n        /* \"#utility.yul\":9557:9563   */\n      dup3\n        /* \"#utility.yul\":9552:9555   */\n      dup3\n        /* \"#utility.yul\":9545:9564   */\n      mstore\n        /* \"#utility.yul\":9597:9601   */\n      0x20\n        /* \"#utility.yul\":9592:9595   */\n      dup3\n        /* \"#utility.yul\":9588:9602   */\n      add\n        /* \"#utility.yul\":9573:9602   */\n      swap1\n      pop\n        /* \"#utility.yul\":9449:9608   */\n      swap3\n      swap2\n      pop\n      pop\n      jump\t// out\n        /* \"#utility.yul\":9614:9921   */\n    tag_265:\n        /* \"#utility.yul\":9682:9683   */\n      0x00\n        /* \"#utility.yul\":9692:9805   */\n    tag_421:\n        /* \"#utility.yul\":9706:9712   */\n      dup4\n        /* \"#utility.yul\":9703:9704   */\n      dup2\n        /* \"#utility.yul\":9700:9713   */\n      lt\n        /* \"#utility.yul\":9692:9805   */\n      iszero\n      tag_423\n      jumpi\n        /* \"#utility.yul\":9791:9792   */\n      dup1\n        /* \"#utility.yul\":9786:9789   */\n      dup3\n        /* \"#utility.yul\":9782:9793   */\n      add\n        /* \"#utility.yul\":9776:9794   */\n      mload\n        /* \"#utility.yul\":9772:9773   */\n      dup2\n        /* \"#utility.yul\":9767:9770   */\n      dup5\n        /* \"#utility.yul\":9763:9774   */\n      add\n        /* \"#utility.yul\":9756:9795   */\n      mstore\n        /* \"#utility.yul\":9728:9730   */\n      0x20\n        /* \"#utility.yul\":9725:9726   */\n      dup2\n        /* \"#utility.yul\":9721:9731   */\n      add\n        /* \"#utility.yul\":9716:9731   */\n      swap1\n      pop\n        /* \"#utility.yul\":9692:9805   */\n      jump(tag_421)\n    tag_423:\n        /* \"#utility.yul\":9823:9829   */\n      dup4\n        /* \"#utility.yul\":9820:9821   */\n      dup2\n        /* \"#utility.yul\":9817:9830   */\n      gt\n        /* \"#utility.yul\":9814:9915   */\n      iszero\n      tag_424\n      jumpi\n        /* \"#utility.yul\":9903:9904   */\n      0x00\n        /* \"#utility.yul\":9894:9900   */\n      dup5\n        /* \"#utility.yul\":9889:9892   */\n      dup5\n        /* \"#utility.yul\":9885:9901   */\n      add\n        /* \"#utility.yul\":9878:9905   */\n      mstore\n        /* \"#utility.yul\":9814:9915   */\n    tag_424:\n        /* \"#utility.yul\":9663:9921   */\n      pop\n        /* \"#utility.yul\":9614:9921   */\n      pop\n      pop\n      pop\n      jump\t// out\n        /* \"#utility.yul\":9927:10271   */\n    tag_266:\n        /* \"#utility.yul\":10005:10008   */\n      0x00\n        /* \"#utility.yul\":10033:10072   */\n      tag_426\n        /* \"#utility.yul\":10066:10071   */\n      dup3\n        /* \"#utility.yul\":10033:10072   */\n      tag_263\n      jump\t// in\n    tag_426:\n        /* \"#utility.yul\":10088:10149   */\n      tag_427\n        /* \"#utility.yul\":10142:10148   */\n      dup2\n        /* \"#utility.yul\":10137:10140   */\n      dup6\n        /* \"#utility.yul\":10088:10149   */\n      tag_264\n      jump\t// in\n    tag_427:\n        /* \"#utility.yul\":10081:10149   */\n      swap4\n      pop\n        /* \"#utility.yul\":10158:10210   */\n      tag_428\n        /* \"#utility.yul\":10203:10209   */\n      dup2\n        /* \"#utility.yul\":10198:10201   */\n      dup6\n        /* \"#utility.yul\":10191:10195   */\n      0x20\n        /* \"#utility.yul\":10184:10189   */\n      dup7\n        /* \"#utility.yul\":10180:10196   */\n      add\n        /* \"#utility.yul\":10158:10210   */\n      tag_265\n      jump\t// in\n    tag_428:\n        /* \"#utility.yul\":10235:10264   */\n      tag_429\n        /* \"#utility.yul\":10257:10263   */\n      dup2\n        /* \"#utility.yul\":10235:10264   */\n      tag_241\n      jump\t// in\n    tag_429:\n        /* \"#utility.yul\":10230:10233   */\n      dup5\n        /* \"#utility.yul\":10226:10265   */\n      add\n        /* \"#utility.yul\":10219:10265   */\n      swap2\n      pop\n        /* \"#utility.yul\":10009:10271   */\n      pop\n        /* \"#utility.yul\":9927:10271   */\n      swap3\n      swap2\n      pop\n      pop\n      jump\t// out\n        /* \"#utility.yul\":10277:10473   */\n    tag_267:\n        /* \"#utility.yul\":10366:10376   */\n      0x00\n        /* \"#utility.yul\":10401:10467   */\n      tag_431\n        /* \"#utility.yul\":10463:10466   */\n      dup4\n        /* \"#utility.yul\":10455:10461   */\n      dup4\n        /* \"#utility.yul\":10401:10467   */\n      tag_266\n      jump\t// in\n    tag_431:\n        /* \"#utility.yul\":10387:10467   */\n      swap1\n      pop\n        /* \"#utility.yul\":10277:10473   */\n      swap3\n      swap2\n      pop\n      pop\n      jump\t// out\n        /* \"#utility.yul\":10479:10602   */\n    tag_268:\n        /* \"#utility.yul\":10559:10563   */\n      0x00\n        /* \"#utility.yul\":10591:10595   */\n      0x20\n        /* \"#utility.yul\":10586:10589   */\n      dup3\n        /* \"#utility.yul\":10582:10596   */\n      add\n        /* \"#utility.yul\":10574:10596   */\n      swap1\n      pop\n        /* \"#utility.yul\":10479:10602   */\n      swap2\n      swap1\n      pop\n      jump\t// out\n        /* \"#utility.yul\":10636:11627   */\n    tag_269:\n        /* \"#utility.yul\":10775:10778   */\n      0x00\n        /* \"#utility.yul\":10804:10868   */\n      tag_434\n        /* \"#utility.yul\":10862:10867   */\n      dup3\n        /* \"#utility.yul\":10804:10868   */\n      tag_260\n      jump\t// in\n    tag_434:\n        /* \"#utility.yul\":10884:10980   */\n      tag_435\n        /* \"#utility.yul\":10973:10979   */\n      dup2\n        /* \"#utility.yul\":10968:10971   */\n      dup6\n        /* \"#utility.yul\":10884:10980   */\n      tag_261\n      jump\t// in\n    tag_435:\n        /* \"#utility.yul\":10877:10980   */\n      swap4\n      pop\n        /* \"#utility.yul\":11006:11009   */\n      dup4\n        /* \"#utility.yul\":11051:11055   */\n      0x20\n        /* \"#utility.yul\":11043:11049   */\n      dup3\n        /* \"#utility.yul\":11039:11056   */\n      mul\n        /* \"#utility.yul\":11034:11037   */\n      dup6\n        /* \"#utility.yul\":11030:11057   */\n      add\n        /* \"#utility.yul\":11081:11147   */\n      tag_436\n        /* \"#utility.yul\":11141:11146   */\n      dup6\n        /* \"#utility.yul\":11081:11147   */\n      tag_262\n      jump\t// in\n    tag_436:\n        /* \"#utility.yul\":11170:11177   */\n      dup1\n        /* \"#utility.yul\":11201:11202   */\n      0x00\n        /* \"#utility.yul\":11186:11582   */\n    tag_437:\n        /* \"#utility.yul\":11211:11217   */\n      dup6\n        /* \"#utility.yul\":11208:11209   */\n      dup2\n        /* \"#utility.yul\":11205:11218   */\n      lt\n        /* \"#utility.yul\":11186:11582   */\n      iszero\n      tag_439\n      jumpi\n        /* \"#utility.yul\":11282:11291   */\n      dup5\n        /* \"#utility.yul\":11276:11280   */\n      dup5\n        /* \"#utility.yul\":11272:11292   */\n      sub\n        /* \"#utility.yul\":11267:11270   */\n      dup10\n        /* \"#utility.yul\":11260:11293   */\n      mstore\n        /* \"#utility.yul\":11333:11339   */\n      dup2\n        /* \"#utility.yul\":11327:11340   */\n      mload\n        /* \"#utility.yul\":11361:11445   */\n      tag_440\n        /* \"#utility.yul\":11440:11444   */\n      dup6\n        /* \"#utility.yul\":11425:11438   */\n      dup3\n        /* \"#utility.yul\":11361:11445   */\n      tag_267\n      jump\t// in\n    tag_440:\n        /* \"#utility.yul\":11353:11445   */\n      swap5\n      pop\n        /* \"#utility.yul\":11468:11538   */\n      tag_441\n        /* \"#utility.yul\":11531:11537   */\n      dup4\n        /* \"#utility.yul\":11468:11538   */\n      tag_268\n      jump\t// in\n    tag_441:\n        /* \"#utility.yul\":11458:11538   */\n      swap3\n      pop\n        /* \"#utility.yul\":11567:11571   */\n      0x20\n        /* \"#utility.yul\":11562:11565   */\n      dup11\n        /* \"#utility.yul\":11558:11572   */\n      add\n        /* \"#utility.yul\":11551:11572   */\n      swap10\n      pop\n        /* \"#utility.yul\":11246:11582   */\n      pop\n        /* \"#utility.yul\":11233:11234   */\n      0x01\n        /* \"#utility.yul\":11230:11231   */\n      dup2\n        /* \"#utility.yul\":11226:11235   */\n      add\n        /* \"#utility.yul\":11221:11235   */\n      swap1\n      pop\n        /* \"#utility.yul\":11186:11582   */\n      jump(tag_437)\n    tag_439:\n        /* \"#utility.yul\":11190:11204   */\n      pop\n        /* \"#utility.yul\":11598:11602   */\n      dup3\n        /* \"#utility.yul\":11591:11602   */\n      swap8\n      pop\n        /* \"#utility.yul\":11618:11621   */\n      dup8\n        /* \"#utility.yul\":11611:11621   */\n      swap6\n      pop\n        /* \"#utility.yul\":10780:11627   */\n      pop\n      pop\n      pop\n      pop\n      pop\n        /* \"#utility.yul\":10636:11627   */\n      swap3\n      swap2\n      pop\n      pop\n      jump\t// out\n        /* \"#utility.yul\":11633:12046   */\n    tag_52:\n        /* \"#utility.yul\":11796:11800   */\n      0x00\n        /* \"#utility.yul\":11834:11836   */\n      0x20\n        /* \"#utility.yul\":11823:11832   */\n      dup3\n        /* \"#utility.yul\":11819:11837   */\n      add\n        /* \"#utility.yul\":11811:11837   */\n      swap1\n      pop\n        /* \"#utility.yul\":11883:11892   */\n      dup2\n        /* \"#utility.yul\":11877:11881   */\n      dup2\n        /* \"#utility.yul\":11873:11893   */\n      sub\n        /* \"#utility.yul\":11869:11870   */\n      0x00\n        /* \"#utility.yul\":11858:11867   */\n      dup4\n        /* \"#utility.yul\":11854:11871   */\n      add\n        /* \"#utility.yul\":11847:11894   */\n      mstore\n        /* \"#utility.yul\":11911:12039   */\n      tag_443\n        /* \"#utility.yul\":12034:12038   */\n      dup2\n        /* \"#utility.yul\":12025:12031   */\n      dup5\n        /* \"#utility.yul\":11911:12039   */\n      tag_269\n      jump\t// in\n    tag_443:\n        /* \"#utility.yul\":11903:12039   */\n      swap1\n      pop\n        /* \"#utility.yul\":11633:12046   */\n      swap3\n      swap2\n      pop\n      pop\n      jump\t// out\n        /* \"#utility.yul\":12052:12381   */\n    tag_65:\n        /* \"#utility.yul\":12111:12117   */\n      0x00\n        /* \"#utility.yul\":12160:12162   */\n      0x20\n        /* \"#utility.yul\":12148:12157   */\n      dup3\n        /* \"#utility.yul\":12139:12146   */\n      dup5\n        /* \"#utility.yul\":12135:12158   */\n      sub\n        /* \"#utility.yul\":12131:12163   */\n      slt\n        /* \"#utility.yul\":12128:12247   */\n      iszero\n      tag_445\n      jumpi\n        /* \"#utility.yul\":12166:12245   */\n      tag_446\n      tag_237\n      jump\t// in\n    tag_446:\n        /* \"#utility.yul\":12128:12247   */\n    tag_445:\n        /* \"#utility.yul\":12286:12287   */\n      0x00\n        /* \"#utility.yul\":12311:12364   */\n      tag_447\n        /* \"#utility.yul\":12356:12363   */\n      dup5\n        /* \"#utility.yul\":12347:12353   */\n      dup3\n        /* \"#utility.yul\":12336:12345   */\n      dup6\n        /* \"#utility.yul\":12332:12354   */\n      add\n        /* \"#utility.yul\":12311:12364   */\n      tag_255\n      jump\t// in\n    tag_447:\n        /* \"#utility.yul\":12301:12364   */\n      swap2\n      pop\n        /* \"#utility.yul\":12257:12374   */\n      pop\n        /* \"#utility.yul\":12052:12381   */\n      swap3\n      swap2\n      pop\n      pop\n      jump\t// out\n        /* \"#utility.yul\":12387:12535   */\n    tag_270:\n        /* \"#utility.yul\":12489:12500   */\n      0x00\n        /* \"#utility.yul\":12526:12529   */\n      dup2\n        /* \"#utility.yul\":12511:12529   */\n      swap1\n      pop\n        /* \"#utility.yul\":12387:12535   */\n      swap3\n      swap2\n      pop\n      pop\n      jump\t// out\n        /* \"#utility.yul\":12541:12918   */\n    tag_271:\n        /* \"#utility.yul\":12647:12650   */\n      0x00\n        /* \"#utility.yul\":12675:12714   */\n      tag_450\n        /* \"#utility.yul\":12708:12713   */\n      dup3\n        /* \"#utility.yul\":12675:12714   */\n      tag_263\n      jump\t// in\n    tag_450:\n        /* \"#utility.yul\":12730:12819   */\n      tag_451\n        /* \"#utility.yul\":12812:12818   */\n      dup2\n        /* \"#utility.yul\":12807:12810   */\n      dup6\n        /* \"#utility.yul\":12730:12819   */\n      tag_270\n      jump\t// in\n    tag_451:\n        /* \"#utility.yul\":12723:12819   */\n      swap4\n      pop\n        /* \"#utility.yul\":12828:12880   */\n      tag_452\n        /* \"#utility.yul\":12873:12879   */\n      dup2\n        /* \"#utility.yul\":12868:12871   */\n      dup6\n        /* \"#utility.yul\":12861:12865   */\n      0x20\n        /* \"#utility.yul\":12854:12859   */\n      dup7\n        /* \"#utility.yul\":12850:12866   */\n      add\n        /* \"#utility.yul\":12828:12880   */\n      tag_265\n      jump\t// in\n    tag_452:\n        /* \"#utility.yul\":12905:12911   */\n      dup1\n        /* \"#utility.yul\":12900:12903   */\n      dup5\n        /* \"#utility.yul\":12896:12912   */\n      add\n        /* \"#utility.yul\":12889:12912   */\n      swap2\n      pop\n        /* \"#utility.yul\":12651:12918   */\n      pop\n        /* \"#utility.yul\":12541:12918   */\n      swap3\n      swap2\n      pop\n      pop\n      jump\t// out\n        /* \"#utility.yul\":12924:13199   */\n    tag_69:\n        /* \"#utility.yul\":13056:13059   */\n      0x00\n        /* \"#utility.yul\":13078:13173   */\n      tag_454\n        /* \"#utility.yul\":13169:13172   */\n      dup3\n        /* \"#utility.yul\":13160:13166   */\n      dup5\n        /* \"#utility.yul\":13078:13173   */\n      tag_271\n      jump\t// in\n    tag_454:\n        /* \"#utility.yul\":13071:13173   */\n      swap2\n      pop\n        /* \"#utility.yul\":13190:13193   */\n      dup2\n        /* \"#utility.yul\":13183:13193   */\n      swap1\n      pop\n        /* \"#utility.yul\":12924:13199   */\n      swap3\n      swap2\n      pop\n      pop\n      jump\t// out\n        /* \"#utility.yul\":13205:13374   */\n    tag_272:\n        /* \"#utility.yul\":13289:13300   */\n      0x00\n        /* \"#utility.yul\":13323:13329   */\n      dup3\n        /* \"#utility.yul\":13318:13321   */\n      dup3\n        /* \"#utility.yul\":13311:13330   */\n      mstore\n        /* \"#utility.yul\":13363:13367   */\n      0x20\n        /* \"#utility.yul\":13358:13361   */\n      dup3\n        /* \"#utility.yul\":13354:13368   */\n      add\n        /* \"#utility.yul\":13339:13368   */\n      swap1\n      pop\n        /* \"#utility.yul\":13205:13374   */\n      swap3\n      swap2\n      pop\n      pop\n      jump\t// out\n        /* \"#utility.yul\":13380:13600   */\n    tag_273:\n        /* \"#utility.yul\":13520:13554   */\n      0x7472616e736665725f6661696c5f66726f6d5f6e616d655f6e6f745f65786973\n        /* \"#utility.yul\":13516:13517   */\n      0x00\n        /* \"#utility.yul\":13508:13514   */\n      dup3\n        /* \"#utility.yul\":13504:13518   */\n      add\n        /* \"#utility.yul\":13497:13555   */\n      mstore\n        /* \"#utility.yul\":13589:13592   */\n      0x7400000000000000000000000000000000000000000000000000000000000000\n        /* \"#utility.yul\":13584:13586   */\n      0x20\n        /* \"#utility.yul\":13576:13582   */\n      dup3\n        /* \"#utility.yul\":13572:13587   */\n      add\n        /* \"#utility.yul\":13565:13593   */\n      mstore\n        /* \"#utility.yul\":13380:13600   */\n      pop\n      jump\t// out\n        /* \"#utility.yul\":13606:13972   */\n    tag_274:\n        /* \"#utility.yul\":13748:13751   */\n      0x00\n        /* \"#utility.yul\":13769:13836   */\n      tag_458\n        /* \"#utility.yul\":13833:13835   */\n      0x21\n        /* \"#utility.yul\":13828:13831   */\n      dup4\n        /* \"#utility.yul\":13769:13836   */\n      tag_272\n      jump\t// in\n    tag_458:\n        /* \"#utility.yul\":13762:13836   */\n      swap2\n      pop\n        /* \"#utility.yul\":13845:13938   */\n      tag_459\n        /* \"#utility.yul\":13934:13937   */\n      dup3\n        /* \"#utility.yul\":13845:13938   */\n      tag_273\n      jump\t// in\n    tag_459:\n        /* \"#utility.yul\":13963:13965   */\n      0x40\n        /* \"#utility.yul\":13958:13961   */\n      dup3\n        /* \"#utility.yul\":13954:13966   */\n      add\n        /* \"#utility.yul\":13947:13966   */\n      swap1\n      pop\n        /* \"#utility.yul\":13606:13972   */\n      swap2\n      swap1\n      pop\n      jump\t// out\n        /* \"#utility.yul\":13978:14397   */\n    tag_72:\n        /* \"#utility.yul\":14144:14148   */\n      0x00\n        /* \"#utility.yul\":14182:14184   */\n      0x20\n        /* \"#utility.yul\":14171:14180   */\n      dup3\n        /* \"#utility.yul\":14167:14185   */\n      add\n        /* \"#utility.yul\":14159:14185   */\n      swap1\n      pop\n        /* \"#utility.yul\":14231:14240   */\n      dup2\n        /* \"#utility.yul\":14225:14229   */\n      dup2\n        /* \"#utility.yul\":14221:14241   */\n      sub\n        /* \"#utility.yul\":14217:14218   */\n      0x00\n        /* \"#utility.yul\":14206:14215   */\n      dup4\n        /* \"#utility.yul\":14202:14219   */\n      add\n        /* \"#utility.yul\":14195:14242   */\n      mstore\n        /* \"#utility.yul\":14259:14390   */\n      tag_461\n        /* \"#utility.yul\":14385:14389   */\n      dup2\n        /* \"#utility.yul\":14259:14390   */\n      tag_274\n      jump\t// in\n    tag_461:\n        /* \"#utility.yul\":14251:14390   */\n      swap1\n      pop\n        /* \"#utility.yul\":13978:14397   */\n      swap2\n      swap1\n      pop\n      jump\t// out\n        /* \"#utility.yul\":14403:14581   */\n    tag_275:\n        /* \"#utility.yul\":14543:14573   */\n      0x7472616e736665725f6661696c5f66726f6d5f6e6f745f6f776e657200000000\n        /* \"#utility.yul\":14539:14540   */\n      0x00\n        /* \"#utility.yul\":14531:14537   */\n      dup3\n        /* \"#utility.yul\":14527:14541   */\n      add\n        /* \"#utility.yul\":14520:14574   */\n      mstore\n        /* \"#utility.yul\":14403:14581   */\n      pop\n      jump\t// out\n        /* \"#utility.yul\":14587:14953   */\n    tag_276:\n        /* \"#utility.yul\":14729:14732   */\n      0x00\n        /* \"#utility.yul\":14750:14817   */\n      tag_464\n        /* \"#utility.yul\":14814:14816   */\n      0x1c\n        /* \"#utility.yul\":14809:14812   */\n      dup4\n        /* \"#utility.yul\":14750:14817   */\n      tag_272\n      jump\t// in\n    tag_464:\n        /* \"#utility.yul\":14743:14817   */\n      swap2\n      pop\n        /* \"#utility.yul\":14826:14919   */\n      tag_465\n        /* \"#utility.yul\":14915:14918   */\n      dup3\n        /* \"#utility.yul\":14826:14919   */\n      tag_275\n      jump\t// in\n    tag_465:\n        /* \"#utility.yul\":14944:14946   */\n      0x20\n        /* \"#utility.yul\":14939:14942   */\n      dup3\n        /* \"#utility.yul\":14935:14947   */\n      add\n        /* \"#utility.yul\":14928:14947   */\n      swap1\n      pop\n        /* \"#utility.yul\":14587:14953   */\n      swap2\n      swap1\n      pop\n      jump\t// out\n        /* \"#utility.yul\":14959:15378   */\n    tag_76:\n        /* \"#utility.yul\":15125:15129   */\n      0x00\n        /* \"#utility.yul\":15163:15165   */\n      0x20\n        /* \"#utility.yul\":15152:15161   */\n      dup3\n        /* \"#utility.yul\":15148:15166   */\n      add\n        /* \"#utility.yul\":15140:15166   */\n      swap1\n      pop\n        /* \"#utility.yul\":15212:15221   */\n      dup2\n        /* \"#utility.yul\":15206:15210   */\n      dup2\n        /* \"#utility.yul\":15202:15222   */\n      sub\n        /* \"#utility.yul\":15198:15199   */\n      0x00\n        /* \"#utility.yul\":15187:15196   */\n      dup4\n        /* \"#utility.yul\":15183:15200   */\n      add\n        /* \"#utility.yul\":15176:15223   */\n      mstore\n        /* \"#utility.yul\":15240:15371   */\n      tag_467\n        /* \"#utility.yul\":15366:15370   */\n      dup2\n        /* \"#utility.yul\":15240:15371   */\n      tag_276\n      jump\t// in\n    tag_467:\n        /* \"#utility.yul\":15232:15371   */\n      swap1\n      pop\n        /* \"#utility.yul\":14959:15378   */\n      swap2\n      swap1\n      pop\n      jump\t// out\n        /* \"#utility.yul\":15384:15604   */\n    tag_277:\n        /* \"#utility.yul\":15524:15558   */\n      0x7472616e736665725f6661696c5f76616c75655f6c6573735f7468616e5f3130\n        /* \"#utility.yul\":15520:15521   */\n      0x00\n        /* \"#utility.yul\":15512:15518   */\n      dup3\n        /* \"#utility.yul\":15508:15522   */\n      add\n        /* \"#utility.yul\":15501:15559   */\n      mstore\n        /* \"#utility.yul\":15593:15596   */\n      0x3000000000000000000000000000000000000000000000000000000000000000\n        /* \"#utility.yul\":15588:15590   */\n      0x20\n        /* \"#utility.yul\":15580:15586   */\n      dup3\n        /* \"#utility.yul\":15576:15591   */\n      add\n        /* \"#utility.yul\":15569:15597   */\n      mstore\n        /* \"#utility.yul\":15384:15604   */\n      pop\n      jump\t// out\n        /* \"#utility.yul\":15610:15976   */\n    tag_278:\n        /* \"#utility.yul\":15752:15755   */\n      0x00\n        /* \"#utility.yul\":15773:15840   */\n      tag_470\n        /* \"#utility.yul\":15837:15839   */\n      0x21\n        /* \"#utility.yul\":15832:15835   */\n      dup4\n        /* \"#utility.yul\":15773:15840   */\n      tag_272\n      jump\t// in\n    tag_470:\n        /* \"#utility.yul\":15766:15840   */\n      swap2\n      pop\n        /* \"#utility.yul\":15849:15942   */\n      tag_471\n        /* \"#utility.yul\":15938:15941   */\n      dup3\n        /* \"#utility.yul\":15849:15942   */\n      tag_277\n      jump\t// in\n    tag_471:\n        /* \"#utility.yul\":15967:15969   */\n      0x40\n        /* \"#utility.yul\":15962:15965   */\n      dup3\n        /* \"#utility.yul\":15958:15970   */\n      add\n        /* \"#utility.yul\":15951:15970   */\n      swap1\n      pop\n        /* \"#utility.yul\":15610:15976   */\n      swap2\n      swap1\n      pop\n      jump\t// out\n        /* \"#utility.yul\":15982:16401   */\n    tag_79:\n        /* \"#utility.yul\":16148:16152   */\n      0x00\n        /* \"#utility.yul\":16186:16188   */\n      0x20\n        /* \"#utility.yul\":16175:16184   */\n      dup3\n        /* \"#utility.yul\":16171:16189   */\n      add\n        /* \"#utility.yul\":16163:16189   */\n      swap1\n      pop\n        /* \"#utility.yul\":16235:16244   */\n      dup2\n        /* \"#utility.yul\":16229:16233   */\n      dup2\n        /* \"#utility.yul\":16225:16245   */\n      sub\n        /* \"#utility.yul\":16221:16222   */\n      0x00\n        /* \"#utility.yul\":16210:16219   */\n      dup4\n        /* \"#utility.yul\":16206:16223   */\n      add\n        /* \"#utility.yul\":16199:16246   */\n      mstore\n        /* \"#utility.yul\":16263:16394   */\n      tag_473\n        /* \"#utility.yul\":16389:16393   */\n      dup2\n        /* \"#utility.yul\":16263:16394   */\n      tag_278\n      jump\t// in\n    tag_473:\n        /* \"#utility.yul\":16255:16394   */\n      swap1\n      pop\n        /* \"#utility.yul\":15982:16401   */\n      swap2\n      swap1\n      pop\n      jump\t// out\n        /* \"#utility.yul\":16407:16587   */\n    tag_279:\n        /* \"#utility.yul\":16455:16532   */\n      0x4e487b7100000000000000000000000000000000000000000000000000000000\n        /* \"#utility.yul\":16452:16453   */\n      0x00\n        /* \"#utility.yul\":16445:16533   */\n      mstore\n        /* \"#utility.yul\":16552:16556   */\n      0x11\n        /* \"#utility.yul\":16549:16550   */\n      0x04\n        /* \"#utility.yul\":16542:16557   */\n      mstore\n        /* \"#utility.yul\":16576:16580   */\n      0x24\n        /* \"#utility.yul\":16573:16574   */\n      0x00\n        /* \"#utility.yul\":16566:16581   */\n      revert\n        /* \"#utility.yul\":16593:16941   */\n    tag_81:\n        /* \"#utility.yul\":16633:16640   */\n      0x00\n        /* \"#utility.yul\":16656:16676   */\n      tag_476\n        /* \"#utility.yul\":16674:16675   */\n      dup3\n        /* \"#utility.yul\":16656:16676   */\n      tag_253\n      jump\t// in\n    tag_476:\n        /* \"#utility.yul\":16651:16676   */\n      swap2\n      pop\n        /* \"#utility.yul\":16690:16710   */\n      tag_477\n        /* \"#utility.yul\":16708:16709   */\n      dup4\n        /* \"#utility.yul\":16690:16710   */\n      tag_253\n      jump\t// in\n    tag_477:\n        /* \"#utility.yul\":16685:16710   */\n      swap3\n      pop\n        /* \"#utility.yul\":16878:16879   */\n      dup2\n        /* \"#utility.yul\":16810:16876   */\n      0xffffffffffffffffffffffffffffffffffffffffffffffffffffffffffffffff\n        /* \"#utility.yul\":16806:16880   */\n      div\n        /* \"#utility.yul\":16803:16804   */\n      dup4\n        /* \"#utility.yul\":16800:16881   */\n      gt\n        /* \"#utility.yul\":16795:16796   */\n      dup3\n        /* \"#utility.yul\":16788:16797   */\n      iszero\n        /* \"#utility.yul\":16781:16798   */\n      iszero\n        /* \"#utility.yul\":16777:16882   */\n      and\n        /* \"#utility.yul\":16774:16905   */\n      iszero\n      tag_478\n      jumpi\n        /* \"#utility.yul\":16885:16903   */\n      tag_479\n      tag_279\n      jump\t// in\n    tag_479:\n        /* \"#utility.yul\":16774:16905   */\n    tag_478:\n        /* \"#utility.yul\":16933:16934   */\n      dup3\n        /* \"#utility.yul\":16930:16931   */\n      dup3\n        /* \"#utility.yul\":16926:16935   */\n      mul\n        /* \"#utility.yul\":16915:16935   */\n      swap1\n      pop\n        /* \"#utility.yul\":16593:16941   */\n      swap3\n      swap2\n      pop\n      pop\n      jump\t// out\n        /* \"#utility.yul\":16947:17171   */\n    tag_280:\n        /* \"#utility.yul\":17087:17121   */\n      0x7472616e736665725f6661696c5f66726f6d5f62616c616e63655f6e6f745f65\n        /* \"#utility.yul\":17083:17084   */\n      0x00\n        /* \"#utility.yul\":17075:17081   */\n      dup3\n        /* \"#utility.yul\":17071:17085   */\n      add\n        /* \"#utility.yul\":17064:17122   */\n      mstore\n        /* \"#utility.yul\":17156:17163   */\n      0x6e6f756768000000000000000000000000000000000000000000000000000000\n        /* \"#utility.yul\":17151:17153   */\n      0x20\n        /* \"#utility.yul\":17143:17149   */\n      dup3\n        /* \"#utility.yul\":17139:17154   */\n      add\n        /* \"#utility.yul\":17132:17164   */\n      mstore\n        /* \"#utility.yul\":16947:17171   */\n      pop\n      jump\t// out\n        /* \"#utility.yul\":17177:17543   */\n    tag_281:\n        /* \"#utility.yul\":17319:17322   */\n      0x00\n        /* \"#utility.yul\":17340:17407   */\n      tag_482\n        /* \"#utility.yul\":17404:17406   */\n      0x25\n        /* \"#utility.yul\":17399:17402   */\n      dup4\n        /* \"#utility.yul\":17340:17407   */\n      tag_272\n      jump\t// in\n    tag_482:\n        /* \"#utility.yul\":17333:17407   */\n      swap2\n      pop\n        /* \"#utility.yul\":17416:17509   */\n      tag_483\n        /* \"#utility.yul\":17505:17508   */\n      dup3\n        /* \"#utility.yul\":17416:17509   */\n      tag_280\n      jump\t// in\n    tag_483:\n        /* \"#utility.yul\":17534:17536   */\n      0x40\n        /* \"#utility.yul\":17529:17532   */\n      dup3\n        /* \"#utility.yul\":17525:17537   */\n      add\n        /* \"#utility.yul\":17518:17537   */\n      swap1\n      pop\n        /* \"#utility.yul\":17177:17543   */\n      swap2\n      swap1\n      pop\n      jump\t// out\n        /* \"#utility.yul\":17549:17968   */\n    tag_85:\n        /* \"#utility.yul\":17715:17719   */\n      0x00\n        /* \"#utility.yul\":17753:17755   */\n      0x20\n        /* \"#utility.yul\":17742:17751   */\n      dup3\n        /* \"#utility.yul\":17738:17756   */\n      add\n        /* \"#utility.yul\":17730:17756   */\n      swap1\n      pop\n        /* \"#utility.yul\":17802:17811   */\n      dup2\n        /* \"#utility.yul\":17796:17800   */\n      dup2\n        /* \"#utility.yul\":17792:17812   */\n      sub\n        /* \"#utility.yul\":17788:17789   */\n      0x00\n        /* \"#utility.yul\":17777:17786   */\n      dup4\n        /* \"#utility.yul\":17773:17790   */\n      add\n        /* \"#utility.yul\":17766:17813   */\n      mstore\n        /* \"#utility.yul\":17830:17961   */\n      tag_485\n        /* \"#utility.yul\":17956:17960   */\n      dup2\n        /* \"#utility.yul\":17830:17961   */\n      tag_281\n      jump\t// in\n    tag_485:\n        /* \"#utility.yul\":17822:17961   */\n      swap1\n      pop\n        /* \"#utility.yul\":17549:17968   */\n      swap2\n      swap1\n      pop\n      jump\t// out\n        /* \"#utility.yul\":17974:18154   */\n    tag_91:\n        /* \"#utility.yul\":18022:18099   */\n      0x4e487b7100000000000000000000000000000000000000000000000000000000\n        /* \"#utility.yul\":18019:18020   */\n      0x00\n        /* \"#utility.yul\":18012:18100   */\n      mstore\n        /* \"#utility.yul\":18119:18123   */\n      0x32\n        /* \"#utility.yul\":18116:18117   */\n      0x04\n        /* \"#utility.yul\":18109:18124   */\n      mstore\n        /* \"#utility.yul\":18143:18147   */\n      0x24\n        /* \"#utility.yul\":18140:18141   */\n      0x00\n        /* \"#utility.yul\":18133:18148   */\n      revert\n        /* \"#utility.yul\":18160:18341   */\n    tag_282:\n        /* \"#utility.yul\":18300:18333   */\n      0x7472616e736665725f6661696c5f746f5f6e616d655f6e6f745f657869737400\n        /* \"#utility.yul\":18296:18297   */\n      0x00\n        /* \"#utility.yul\":18288:18294   */\n      dup3\n        /* \"#utility.yul\":18284:18298   */\n      add\n        /* \"#utility.yul\":18277:18334   */\n      mstore\n        /* \"#utility.yul\":18160:18341   */\n      pop\n      jump\t// out\n        /* \"#utility.yul\":18347:18713   */\n    tag_283:\n        /* \"#utility.yul\":18489:18492   */\n      0x00\n        /* \"#utility.yul\":18510:18577   */\n      tag_489\n        /* \"#utility.yul\":18574:18576   */\n      0x1f\n        /* \"#utility.yul\":18569:18572   */\n      dup4\n        /* \"#utility.yul\":18510:18577   */\n      tag_272\n      jump\t// in\n    tag_489:\n        /* \"#utility.yul\":18503:18577   */\n      swap2\n      pop\n        /* \"#utility.yul\":18586:18679   */\n      tag_490\n        /* \"#utility.yul\":18675:18678   */\n      dup3\n        /* \"#utility.yul\":18586:18679   */\n      tag_282\n      jump\t// in\n    tag_490:\n        /* \"#utility.yul\":18704:18706   */\n      0x20\n        /* \"#utility.yul\":18699:18702   */\n      dup3\n        /* \"#utility.yul\":18695:18707   */\n      add\n        /* \"#utility.yul\":18688:18707   */\n      swap1\n      pop\n        /* \"#utility.yul\":18347:18713   */\n      swap2\n      swap1\n      pop\n      jump\t// out\n        /* \"#utility.yul\":18719:19138   */\n    tag_95:\n        /* \"#utility.yul\":18885:18889   */\n      0x00\n        /* \"#utility.yul\":18923:18925   */\n      0x20\n        /* \"#utility.yul\":18912:18921   */\n      dup3\n        /* \"#utility.yul\":18908:18926   */\n      add\n        /* \"#utility.yul\":18900:18926   */\n      swap1\n      pop\n        /* \"#utility.yul\":18972:18981   */\n      dup2\n        /* \"#utility.yul\":18966:18970   */\n      dup2\n        /* \"#utility.yul\":18962:18982   */\n      sub\n        /* \"#utility.yul\":18958:18959   */\n      0x00\n        /* \"#utility.yul\":18947:18956   */\n      dup4\n        /* \"#utility.yul\":18943:18960   */\n      add\n        /* \"#utility.yul\":18936:18983   */\n      mstore\n        /* \"#utility.yul\":19000:19131   */\n      tag_492\n        /* \"#utility.yul\":19126:19130   */\n      dup2\n        /* \"#utility.yul\":19000:19131   */\n      tag_283\n      jump\t// in\n    tag_492:\n        /* \"#utility.yul\":18992:19131   */\n      swap1\n      pop\n        /* \"#utility.yul\":18719:19138   */\n      swap2\n      swap1\n      pop\n      jump\t// out\n        /* \"#utility.yul\":19144:19324   */\n    tag_284:\n        /* \"#utility.yul\":19192:19269   */\n      0x4e487b7100000000000000000000000000000000000000000000000000000000\n        /* \"#utility.yul\":19189:19190   */\n      0x00\n        /* \"#utility.yul\":19182:19270   */\n      mstore\n        /* \"#utility.yul\":19289:19293   */\n      0x12\n        /* \"#utility.yul\":19286:19287   */\n      0x04\n        /* \"#utility.yul\":19279:19294   */\n      mstore\n        /* \"#utility.yul\":19313:19317   */\n      0x24\n        /* \"#utility.yul\":19310:19311   */\n      0x00\n        /* \"#utility.yul\":19303:19318   */\n      revert\n        /* \"#utility.yul\":19330:19515   */\n    tag_102:\n        /* \"#utility.yul\":19370:19371   */\n      0x00\n        /* \"#utility.yul\":19387:19407   */\n      tag_495\n        /* \"#utility.yul\":19405:19406   */\n      dup3\n        /* \"#utility.yul\":19387:19407   */\n      tag_253\n      jump\t// in\n    tag_495:\n        /* \"#utility.yul\":19382:19407   */\n      swap2\n      pop\n        /* \"#utility.yul\":19421:19441   */\n      tag_496\n        /* \"#utility.yul\":19439:19440   */\n      dup4\n        /* \"#utility.yul\":19421:19441   */\n      tag_253\n      jump\t// in\n    tag_496:\n        /* \"#utility.yul\":19416:19441   */\n      swap3\n      pop\n        /* \"#utility.yul\":19460:19461   */\n      dup3\n        /* \"#utility.yul\":19450:19485   */\n      tag_497\n      jumpi\n        /* \"#utility.yul\":19465:19483   */\n      tag_498\n      tag_284\n      jump\t// in\n    tag_498:\n        /* \"#utility.yul\":19450:19485   */\n    tag_497:\n        /* \"#utility.yul\":19507:19508   */\n      dup3\n        /* \"#utility.yul\":19504:19505   */\n      dup3\n        /* \"#utility.yul\":19500:19509   */\n      div\n        /* \"#utility.yul\":19495:19509   */\n      swap1\n      pop\n        /* \"#utility.yul\":19330:19515   */\n      swap3\n      swap2\n      pop\n      pop\n      jump\t// out\n        /* \"#utility.yul\":19521:19826   */\n    tag_104:\n        /* \"#utility.yul\":19561:19564   */\n      0x00\n        /* \"#utility.yul\":19580:19600   */\n      tag_500\n        /* \"#utility.yul\":19598:19599   */\n      dup3\n        /* \"#utility.yul\":19580:19600   */\n      tag_253\n      jump\t// in\n    tag_500:\n        /* \"#utility.yul\":19575:19600   */\n      swap2\n      pop\n        /* \"#utility.yul\":19614:19634   */\n      tag_501\n        /* \"#utility.yul\":19632:19633   */\n      dup4\n        /* \"#utility.yul\":19614:19634   */\n      tag_253\n      jump\t// in\n    tag_501:\n        /* \"#utility.yul\":19609:19634   */\n      swap3\n      pop\n        /* \"#utility.yul\":19768:19769   */\n      dup3\n        /* \"#utility.yul\":19700:19766   */\n      0xffffffffffffffffffffffffffffffffffffffffffffffffffffffffffffffff\n        /* \"#utility.yul\":19696:19770   */\n      sub\n        /* \"#utility.yul\":19693:19694   */\n      dup3\n        /* \"#utility.yul\":19690:19771   */\n      gt\n        /* \"#utility.yul\":19687:19794   */\n      iszero\n      tag_502\n      jumpi\n        /* \"#utility.yul\":19774:19792   */\n      tag_503\n      tag_279\n      jump\t// in\n    tag_503:\n        /* \"#utility.yul\":19687:19794   */\n    tag_502:\n        /* \"#utility.yul\":19818:19819   */\n      dup3\n        /* \"#utility.yul\":19815:19816   */\n      dup3\n        /* \"#utility.yul\":19811:19820   */\n      add\n        /* \"#utility.yul\":19804:19820   */\n      swap1\n      pop\n        /* \"#utility.yul\":19521:19826   */\n      swap3\n      swap2\n      pop\n      pop\n      jump\t// out\n        /* \"#utility.yul\":19832:20023   */\n    tag_107:\n        /* \"#utility.yul\":19872:19876   */\n      0x00\n        /* \"#utility.yul\":19892:19912   */\n      tag_505\n        /* \"#utility.yul\":19910:19911   */\n      dup3\n        /* \"#utility.yul\":19892:19912   */\n      tag_253\n      jump\t// in\n    tag_505:\n        /* \"#utility.yul\":19887:19912   */\n      swap2\n      pop\n        /* \"#utility.yul\":19926:19946   */\n      tag_506\n        /* \"#utility.yul\":19944:19945   */\n      dup4\n        /* \"#utility.yul\":19926:19946   */\n      tag_253\n      jump\t// in\n    tag_506:\n        /* \"#utility.yul\":19921:19946   */\n      swap3\n      pop\n        /* \"#utility.yul\":19965:19966   */\n      dup3\n        /* \"#utility.yul\":19962:19963   */\n      dup3\n        /* \"#utility.yul\":19959:19967   */\n      lt\n        /* \"#utility.yul\":19956:19990   */\n      iszero\n      tag_507\n      jumpi\n        /* \"#utility.yul\":19970:19988   */\n      tag_508\n      tag_279\n      jump\t// in\n    tag_508:\n        /* \"#utility.yul\":19956:19990   */\n    tag_507:\n        /* \"#utility.yul\":20015:20016   */\n      dup3\n        /* \"#utility.yul\":20012:20013   */\n      dup3\n        /* \"#utility.yul\":20008:20017   */\n      sub\n        /* \"#utility.yul\":20000:20017   */\n      swap1\n      pop\n        /* \"#utility.yul\":19832:20023   */\n      swap3\n      swap2\n      pop\n      pop\n      jump\t// out\n        /* \"#utility.yul\":20029:20393   */\n    tag_285:\n        /* \"#utility.yul\":20117:20120   */\n      0x00\n        /* \"#utility.yul\":20145:20184   */\n      tag_510\n        /* \"#utility.yul\":20178:20183   */\n      dup3\n        /* \"#utility.yul\":20145:20184   */\n      tag_263\n      jump\t// in\n    tag_510:\n        /* \"#utility.yul\":20200:20271   */\n      tag_511\n        /* \"#utility.yul\":20264:20270   */\n      dup2\n        /* \"#utility.yul\":20259:20262   */\n      dup6\n        /* \"#utility.yul\":20200:20271   */\n      tag_272\n      jump\t// in\n    tag_511:\n        /* \"#utility.yul\":20193:20271   */\n      swap4\n      pop\n        /* \"#utility.yul\":20280:20332   */\n      tag_512\n        /* \"#utility.yul\":20325:20331   */\n      dup2\n        /* \"#utility.yul\":20320:20323   */\n      dup6\n        /* \"#utility.yul\":20313:20317   */\n      0x20\n        /* \"#utility.yul\":20306:20311   */\n      dup7\n        /* \"#utility.yul\":20302:20318   */\n      add\n        /* \"#utility.yul\":20280:20332   */\n      tag_265\n      jump\t// in\n    tag_512:\n        /* \"#utility.yul\":20357:20386   */\n      tag_513\n        /* \"#utility.yul\":20379:20385   */\n      dup2\n        /* \"#utility.yul\":20357:20386   */\n      tag_241\n      jump\t// in\n    tag_513:\n        /* \"#utility.yul\":20352:20355   */\n      dup5\n        /* \"#utility.yul\":20348:20387   */\n      add\n        /* \"#utility.yul\":20341:20387   */\n      swap2\n      pop\n        /* \"#utility.yul\":20121:20393   */\n      pop\n        /* \"#utility.yul\":20029:20393   */\n      swap3\n      swap2\n      pop\n      pop\n      jump\t// out\n        /* \"#utility.yul\":20399:21023   */\n    tag_117:\n        /* \"#utility.yul\":20588:20592   */\n      0x00\n        /* \"#utility.yul\":20626:20628   */\n      0x60\n        /* \"#utility.yul\":20615:20624   */\n      dup3\n        /* \"#utility.yul\":20611:20629   */\n      add\n        /* \"#utility.yul\":20603:20629   */\n      swap1\n      pop\n        /* \"#utility.yul\":20675:20684   */\n      dup2\n        /* \"#utility.yul\":20669:20673   */\n      dup2\n        /* \"#utility.yul\":20665:20685   */\n      sub\n        /* \"#utility.yul\":20661:20662   */\n      0x00\n        /* \"#utility.yul\":20650:20659   */\n      dup4\n        /* \"#utility.yul\":20646:20663   */\n      add\n        /* \"#utility.yul\":20639:20686   */\n      mstore\n        /* \"#utility.yul\":20703:20781   */\n      tag_515\n        /* \"#utility.yul\":20776:20780   */\n      dup2\n        /* \"#utility.yul\":20767:20773   */\n      dup7\n        /* \"#utility.yul\":20703:20781   */\n      tag_285\n      jump\t// in\n    tag_515:\n        /* \"#utility.yul\":20695:20781   */\n      swap1\n      pop\n        /* \"#utility.yul\":20828:20837   */\n      dup2\n        /* \"#utility.yul\":20822:20826   */\n      dup2\n        /* \"#utility.yul\":20818:20838   */\n      sub\n        /* \"#utility.yul\":20813:20815   */\n      0x20\n        /* \"#utility.yul\":20802:20811   */\n      dup4\n        /* \"#utility.yul\":20798:20816   */\n      add\n        /* \"#utility.yul\":20791:20839   */\n      mstore\n        /* \"#utility.yul\":20856:20934   */\n      tag_516\n        /* \"#utility.yul\":20929:20933   */\n      dup2\n        /* \"#utility.yul\":20920:20926   */\n      dup6\n        /* \"#utility.yul\":20856:20934   */\n      tag_285\n      jump\t// in\n    tag_516:\n        /* \"#utility.yul\":20848:20934   */\n      swap1\n      pop\n        /* \"#utility.yul\":20944:21016   */\n      tag_517\n        /* \"#utility.yul\":21012:21014   */\n      0x40\n        /* \"#utility.yul\":21001:21010   */\n      dup4\n        /* \"#utility.yul\":20997:21015   */\n      add\n        /* \"#utility.yul\":20988:20994   */\n      dup5\n        /* \"#utility.yul\":20944:21016   */\n      tag_259\n      jump\t// in\n    tag_517:\n        /* \"#utility.yul\":20399:21023   */\n      swap5\n      swap4\n      pop\n      pop\n      pop\n      pop\n      jump\t// out\n        /* \"#utility.yul\":21029:21262   */\n    tag_129:\n        /* \"#utility.yul\":21068:21071   */\n      0x00\n        /* \"#utility.yul\":21091:21115   */\n      tag_519\n        /* \"#utility.yul\":21109:21114   */\n      dup3\n        /* \"#utility.yul\":21091:21115   */\n      tag_253\n      jump\t// in\n    tag_519:\n        /* \"#utility.yul\":21082:21115   */\n      swap2\n      pop\n        /* \"#utility.yul\":21137:21203   */\n      0xffffffffffffffffffffffffffffffffffffffffffffffffffffffffffffffff\n        /* \"#utility.yul\":21130:21135   */\n      dup3\n        /* \"#utility.yul\":21127:21204   */\n      sub\n        /* \"#utility.yul\":21124:21227   */\n      tag_520\n      jumpi\n        /* \"#utility.yul\":21207:21225   */\n      tag_521\n      tag_279\n      jump\t// in\n    tag_521:\n        /* \"#utility.yul\":21124:21227   */\n    tag_520:\n        /* \"#utility.yul\":21254:21255   */\n      0x01\n        /* \"#utility.yul\":21247:21252   */\n      dup3\n        /* \"#utility.yul\":21243:21256   */\n      add\n        /* \"#utility.yul\":21236:21256   */\n      swap1\n      pop\n        /* \"#utility.yul\":21029:21262   */\n      swap2\n      swap1\n      pop\n      jump\t// out\n        /* \"#utility.yul\":21268:21445   */\n    tag_286:\n        /* \"#utility.yul\":21408:21437   */\n      0x6164645f6163636f756e745f6661696c5f6e616d655f65786973740000000000\n        /* \"#utility.yul\":21404:21405   */\n      0x00\n        /* \"#utility.yul\":21396:21402   */\n      dup3\n        /* \"#utility.yul\":21392:21406   */\n      add\n        /* \"#utility.yul\":21385:21438   */\n      mstore\n        /* \"#utility.yul\":21268:21445   */\n      pop\n      jump\t// out\n        /* \"#utility.yul\":21451:21817   */\n    tag_287:\n        /* \"#utility.yul\":21593:21596   */\n      0x00\n        /* \"#utility.yul\":21614:21681   */\n      tag_524\n        /* \"#utility.yul\":21678:21680   */\n      0x1b\n        /* \"#utility.yul\":21673:21676   */\n      dup4\n        /* \"#utility.yul\":21614:21681   */\n      tag_272\n      jump\t// in\n    tag_524:\n        /* \"#utility.yul\":21607:21681   */\n      swap2\n      pop\n        /* \"#utility.yul\":21690:21783   */\n      tag_525\n        /* \"#utility.yul\":21779:21782   */\n      dup3\n        /* \"#utility.yul\":21690:21783   */\n      tag_286\n      jump\t// in\n    tag_525:\n        /* \"#utility.yul\":21808:21810   */\n      0x20\n        /* \"#utility.yul\":21803:21806   */\n      dup3\n        /* \"#utility.yul\":21799:21811   */\n      add\n        /* \"#utility.yul\":21792:21811   */\n      swap1\n      pop\n        /* \"#utility.yul\":21451:21817   */\n      swap2\n      swap1\n      pop\n      jump\t// out\n        /* \"#utility.yul\":21823:22242   */\n    tag_134:\n        /* \"#utility.yul\":21989:21993   */\n      0x00\n        /* \"#utility.yul\":22027:22029   */\n      0x20\n        /* \"#utility.yul\":22016:22025   */\n      dup3\n        /* \"#utility.yul\":22012:22030   */\n      add\n        /* \"#utility.yul\":22004:22030   */\n      swap1\n      pop\n        /* \"#utility.yul\":22076:22085   */\n      dup2\n        /* \"#utility.yul\":22070:22074   */\n      dup2\n        /* \"#utility.yul\":22066:22086   */\n      sub\n        /* \"#utility.yul\":22062:22063   */\n      0x00\n        /* \"#utility.yul\":22051:22060   */\n      dup4\n        /* \"#utility.yul\":22047:22064   */\n      add\n        /* \"#utility.yul\":22040:22087   */\n      mstore\n        /* \"#utility.yul\":22104:22235   */\n      tag_527\n        /* \"#utility.yul\":22230:22234   */\n      dup2\n        /* \"#utility.yul\":22104:22235   */\n      tag_287\n      jump\t// in\n    tag_527:\n        /* \"#utility.yul\":22096:22235   */\n      swap1\n      pop\n        /* \"#utility.yul\":21823:22242   */\n      swap2\n      swap1\n      pop\n      jump\t// out\n        /* \"#utility.yul\":22248:22428   */\n    tag_288:\n        /* \"#utility.yul\":22296:22373   */\n      0x4e487b7100000000000000000000000000000000000000000000000000000000\n        /* \"#utility.yul\":22293:22294   */\n      0x00\n        /* \"#utility.yul\":22286:22374   */\n      mstore\n        /* \"#utility.yul\":22393:22397   */\n      0x22\n        /* \"#utility.yul\":22390:22391   */\n      0x04\n        /* \"#utility.yul\":22383:22398   */\n      mstore\n        /* \"#utility.yul\":22417:22421   */\n      0x24\n        /* \"#utility.yul\":22414:22415   */\n      0x00\n        /* \"#utility.yul\":22407:22422   */\n      revert\n        /* \"#utility.yul\":22434:22754   */\n    tag_218:\n        /* \"#utility.yul\":22478:22484   */\n      0x00\n        /* \"#utility.yul\":22515:22516   */\n      0x02\n        /* \"#utility.yul\":22509:22513   */\n      dup3\n        /* \"#utility.yul\":22505:22517   */\n      div\n        /* \"#utility.yul\":22495:22517   */\n      swap1\n      pop\n        /* \"#utility.yul\":22562:22563   */\n      0x01\n        /* \"#utility.yul\":22556:22560   */\n      dup3\n        /* \"#utility.yul\":22552:22564   */\n      and\n        /* \"#utility.yul\":22583:22601   */\n      dup1\n        /* \"#utility.yul\":22573:22654   */\n      tag_530\n      jumpi\n        /* \"#utility.yul\":22639:22643   */\n      0x7f\n        /* \"#utility.yul\":22631:22637   */\n      dup3\n        /* \"#utility.yul\":22627:22644   */\n      and\n        /* \"#utility.yul\":22617:22644   */\n      swap2\n      pop\n        /* \"#utility.yul\":22573:22654   */\n    tag_530:\n        /* \"#utility.yul\":22701:22703   */\n      0x20\n        /* \"#utility.yul\":22693:22699   */\n      dup3\n        /* \"#utility.yul\":22690:22704   */\n      lt\n        /* \"#utility.yul\":22670:22688   */\n      dup2\n        /* \"#utility.yul\":22667:22705   */\n      sub\n        /* \"#utility.yul\":22664:22748   */\n      tag_531\n      jumpi\n        /* \"#utility.yul\":22720:22738   */\n      tag_532\n      tag_288\n      jump\t// in\n    tag_532:\n        /* \"#utility.yul\":22664:22748   */\n    tag_531:\n        /* \"#utility.yul\":22485:22754   */\n      pop\n        /* \"#utility.yul\":22434:22754   */\n      swap2\n      swap1\n      pop\n      jump\t// out\n        /* \"#utility.yul\":22760:22901   */\n    tag_289:\n        /* \"#utility.yul\":22809:22813   */\n      0x00\n        /* \"#utility.yul\":22832:22835   */\n      dup2\n        /* \"#utility.yul\":22824:22835   */\n      swap1\n      pop\n        /* \"#utility.yul\":22855:22858   */\n      dup2\n        /* \"#utility.yul\":22852:22853   */\n      0x00\n        /* \"#utility.yul\":22845:22859   */\n      mstore\n        /* \"#utility.yul\":22889:22893   */\n      0x20\n        /* \"#utility.yul\":22886:22887   */\n      0x00\n        /* \"#utility.yul\":22876:22894   */\n      keccak256\n        /* \"#utility.yul\":22868:22894   */\n      swap1\n      pop\n        /* \"#utility.yul\":22760:22901   */\n      swap2\n      swap1\n      pop\n      jump\t// out\n        /* \"#utility.yul\":22907:23000   */\n    tag_290:\n        /* \"#utility.yul\":22944:22950   */\n      0x00\n        /* \"#utility.yul\":22991:22993   */\n      0x20\n        /* \"#utility.yul\":22986:22988   */\n      0x1f\n        /* \"#utility.yul\":22979:22984   */\n      dup4\n        /* \"#utility.yul\":22975:22989   */\n      add\n        /* \"#utility.yul\":22971:22994   */\n      div\n        /* \"#utility.yul\":22961:22994   */\n      swap1\n      pop\n        /* \"#utility.yul\":22907:23000   */\n      swap2\n      swap1\n      pop\n      jump\t// out\n        /* \"#utility.yul\":23006:23113   */\n    tag_291:\n        /* \"#utility.yul\":23050:23058   */\n      0x00\n        /* \"#utility.yul\":23100:23105   */\n      dup3\n        /* \"#utility.yul\":23094:23098   */\n      dup3\n        /* \"#utility.yul\":23090:23106   */\n      shl\n        /* \"#utility.yul\":23069:23106   */\n      swap1\n      pop\n        /* \"#utility.yul\":23006:23113   */\n      swap3\n      swap2\n      pop\n      pop\n      jump\t// out\n        /* \"#utility.yul\":23119:23512   */\n    tag_292:\n        /* \"#utility.yul\":23188:23194   */\n      0x00\n        /* \"#utility.yul\":23238:23239   */\n      0x08\n        /* \"#utility.yul\":23226:23236   */\n      dup4\n        /* \"#utility.yul\":23222:23240   */\n      mul\n        /* \"#utility.yul\":23261:23358   */\n      tag_537\n        /* \"#utility.yul\":23291:23357   */\n      0xffffffffffffffffffffffffffffffffffffffffffffffffffffffffffffffff\n        /* \"#utility.yul\":23280:23289   */\n      dup3\n        /* \"#utility.yul\":23261:23358   */\n      tag_291\n      jump\t// in\n    tag_537:\n        /* \"#utility.yul\":23379:23418   */\n      tag_538\n        /* \"#utility.yul\":23409:23417   */\n      dup7\n        /* \"#utility.yul\":23398:23407   */\n      dup4\n        /* \"#utility.yul\":23379:23418   */\n      tag_291\n      jump\t// in\n    tag_538:\n        /* \"#utility.yul\":23367:23418   */\n      swap6\n      pop\n        /* \"#utility.yul\":23451:23455   */\n      dup1\n        /* \"#utility.yul\":23447:23456   */\n      not\n        /* \"#utility.yul\":23440:23445   */\n      dup5\n        /* \"#utility.yul\":23436:23457   */\n      and\n        /* \"#utility.yul\":23427:23457   */\n      swap4\n      pop\n        /* \"#utility.yul\":23500:23504   */\n      dup1\n        /* \"#utility.yul\":23490:23498   */\n      dup7\n        /* \"#utility.yul\":23486:23505   */\n      and\n        /* \"#utility.yul\":23479:23484   */\n      dup5\n        /* \"#utility.yul\":23476:23506   */\n      or\n        /* \"#utility.yul\":23466:23506   */\n      swap3\n      pop\n        /* \"#utility.yul\":23195:23512   */\n      pop\n      pop\n        /* \"#utility.yul\":23119:23512   */\n      swap4\n      swap3\n      pop\n      pop\n      pop\n      jump\t// out\n        /* \"#utility.yul\":23518:23578   */\n    tag_293:\n        /* \"#utility.yul\":23546:23549   */\n      0x00\n        /* \"#utility.yul\":23567:23572   */\n      dup2\n        /* \"#utility.yul\":23560:23572   */\n      swap1\n      pop\n        /* \"#utility.yul\":23518:23578   */\n      swap2\n      swap1\n      pop\n      jump\t// out\n        /* \"#utility.yul\":23584:23726   */\n    tag_294:\n        /* \"#utility.yul\":23634:23643   */\n      0x00\n        /* \"#utility.yul\":23667:23720   */\n      tag_541\n        /* \"#utility.yul\":23685:23719   */\n      tag_542\n        /* \"#utility.yul\":23694:23718   */\n      tag_543\n        /* \"#utility.yul\":23712:23717   */\n      dup5\n        /* \"#utility.yul\":23694:23718   */\n      tag_253\n      jump\t// in\n    tag_543:\n        /* \"#utility.yul\":23685:23719   */\n      tag_293\n      jump\t// in\n    tag_542:\n        /* \"#utility.yul\":23667:23720   */\n      tag_253\n      jump\t// in\n    tag_541:\n        /* \"#utility.yul\":23654:23720   */\n      swap1\n      pop\n        /* \"#utility.yul\":23584:23726   */\n      swap2\n      swap1\n      pop\n      jump\t// out\n        /* \"#utility.yul\":23732:23807   */\n    tag_295:\n        /* \"#utility.yul\":23775:23778   */\n      0x00\n        /* \"#utility.yul\":23796:23801   */\n      dup2\n        /* \"#utility.yul\":23789:23801   */\n      swap1\n      pop\n        /* \"#utility.yul\":23732:23807   */\n      swap2\n      swap1\n      pop\n      jump\t// out\n        /* \"#utility.yul\":23813:24082   */\n    tag_296:\n        /* \"#utility.yul\":23923:23962   */\n      tag_546\n        /* \"#utility.yul\":23954:23961   */\n      dup4\n        /* \"#utility.yul\":23923:23962   */\n      tag_294\n      jump\t// in\n    tag_546:\n        /* \"#utility.yul\":23984:24075   */\n      tag_547\n        /* \"#utility.yul\":24033:24074   */\n      tag_548\n        /* \"#utility.yul\":24057:24073   */\n      dup3\n        /* \"#utility.yul\":24033:24074   */\n      tag_295\n      jump\t// in\n    tag_548:\n        /* \"#utility.yul\":24025:24031   */\n      dup5\n        /* \"#utility.yul\":24018:24022   */\n      dup5\n        /* \"#utility.yul\":24012:24023   */\n      sload\n        /* \"#utility.yul\":23984:24075   */\n      tag_292\n      jump\t// in\n    tag_547:\n        /* \"#utility.yul\":23978:23982   */\n      dup3\n        /* \"#utility.yul\":23971:24076   */\n      sstore\n        /* \"#utility.yul\":23889:24082   */\n      pop\n        /* \"#utility.yul\":23813:24082   */\n      pop\n      pop\n      pop\n      jump\t// out\n        /* \"#utility.yul\":24088:24161   */\n    tag_297:\n        /* \"#utility.yul\":24133:24136   */\n      0x00\n        /* \"#utility.yul\":24088:24161   */\n      swap1\n      jump\t// out\n        /* \"#utility.yul\":24167:24356   */\n    tag_298:\n        /* \"#utility.yul\":24244:24276   */\n      tag_551\n      tag_297\n      jump\t// in\n    tag_551:\n        /* \"#utility.yul\":24285:24350   */\n      tag_552\n        /* \"#utility.yul\":24343:24349   */\n      dup2\n        /* \"#utility.yul\":24335:24341   */\n      dup5\n        /* \"#utility.yul\":24329:24333   */\n      dup5\n        /* \"#utility.yul\":24285:24350   */\n      tag_296\n      jump\t// in\n    tag_552:\n        /* \"#utility.yul\":24220:24356   */\n      pop\n        /* \"#utility.yul\":24167:24356   */\n      pop\n      pop\n      jump\t// out\n        /* \"#utility.yul\":24362:24548   */\n    tag_299:\n        /* \"#utility.yul\":24422:24542   */\n    tag_554:\n        /* \"#utility.yul\":24439:24442   */\n      dup2\n        /* \"#utility.yul\":24432:24437   */\n      dup2\n        /* \"#utility.yul\":24429:24443   */\n      lt\n        /* \"#utility.yul\":24422:24542   */\n      iszero\n      tag_556\n      jumpi\n        /* \"#utility.yul\":24493:24532   */\n      tag_557\n        /* \"#utility.yul\":24530:24531   */\n      0x00\n        /* \"#utility.yul\":24523:24528   */\n      dup3\n        /* \"#utility.yul\":24493:24532   */\n      tag_298\n      jump\t// in\n    tag_557:\n        /* \"#utility.yul\":24466:24467   */\n      0x01\n        /* \"#utility.yul\":24459:24464   */\n      dup2\n        /* \"#utility.yul\":24455:24468   */\n      add\n        /* \"#utility.yul\":24446:24468   */\n      swap1\n      pop\n        /* \"#utility.yul\":24422:24542   */\n      jump(tag_554)\n    tag_556:\n        /* \"#utility.yul\":24362:24548   */\n      pop\n      pop\n      jump\t// out\n        /* \"#utility.yul\":24554:25097   */\n    tag_300:\n        /* \"#utility.yul\":24655:24657   */\n      0x1f\n        /* \"#utility.yul\":24650:24653   */\n      dup3\n        /* \"#utility.yul\":24647:24658   */\n      gt\n        /* \"#utility.yul\":24644:25090   */\n      iszero\n      tag_559\n      jumpi\n        /* \"#utility.yul\":24689:24727   */\n      tag_560\n        /* \"#utility.yul\":24721:24726   */\n      dup2\n        /* \"#utility.yul\":24689:24727   */\n      tag_289\n      jump\t// in\n    tag_560:\n        /* \"#utility.yul\":24773:24802   */\n      tag_561\n        /* \"#utility.yul\":24791:24801   */\n      dup5\n        /* \"#utility.yul\":24773:24802   */\n      tag_290\n      jump\t// in\n    tag_561:\n        /* \"#utility.yul\":24763:24771   */\n      dup2\n        /* \"#utility.yul\":24759:24803   */\n      add\n        /* \"#utility.yul\":24956:24958   */\n      0x20\n        /* \"#utility.yul\":24944:24954   */\n      dup6\n        /* \"#utility.yul\":24941:24959   */\n      lt\n        /* \"#utility.yul\":24938:24987   */\n      iszero\n      tag_562\n      jumpi\n        /* \"#utility.yul\":24977:24985   */\n      dup2\n        /* \"#utility.yul\":24962:24985   */\n      swap1\n      pop\n        /* \"#utility.yul\":24938:24987   */\n    tag_562:\n        /* \"#utility.yul\":25000:25080   */\n      tag_563\n        /* \"#utility.yul\":25056:25078   */\n      tag_564\n        /* \"#utility.yul\":25074:25077   */\n      dup6\n        /* \"#utility.yul\":25056:25078   */\n      tag_290\n      jump\t// in\n    tag_564:\n        /* \"#utility.yul\":25046:25054   */\n      dup4\n        /* \"#utility.yul\":25042:25079   */\n      add\n        /* \"#utility.yul\":25029:25040   */\n      dup3\n        /* \"#utility.yul\":25000:25080   */\n      tag_299\n      jump\t// in\n    tag_563:\n        /* \"#utility.yul\":24659:25090   */\n      pop\n      pop\n        /* \"#utility.yul\":24644:25090   */\n    tag_559:\n        /* \"#utility.yul\":24554:25097   */\n      pop\n      pop\n      pop\n      jump\t// out\n        /* \"#utility.yul\":25103:25220   */\n    tag_301:\n        /* \"#utility.yul\":25157:25165   */\n      0x00\n        /* \"#utility.yul\":25207:25212   */\n      dup3\n        /* \"#utility.yul\":25201:25205   */\n      dup3\n        /* \"#utility.yul\":25197:25213   */\n      shr\n        /* \"#utility.yul\":25176:25213   */\n      swap1\n      pop\n        /* \"#utility.yul\":25103:25220   */\n      swap3\n      swap2\n      pop\n      pop\n      jump\t// out\n        /* \"#utility.yul\":25226:25395   */\n    tag_302:\n        /* \"#utility.yul\":25270:25276   */\n      0x00\n        /* \"#utility.yul\":25303:25354   */\n      tag_567\n        /* \"#utility.yul\":25351:25352   */\n      0x00\n        /* \"#utility.yul\":25347:25353   */\n      not\n        /* \"#utility.yul\":25339:25344   */\n      dup5\n        /* \"#utility.yul\":25336:25337   */\n      0x08\n        /* \"#utility.yul\":25332:25345   */\n      mul\n        /* \"#utility.yul\":25303:25354   */\n      tag_301\n      jump\t// in\n    tag_567:\n        /* \"#utility.yul\":25299:25355   */\n      not\n        /* \"#utility.yul\":25384:25388   */\n      dup1\n        /* \"#utility.yul\":25378:25382   */\n      dup4\n        /* \"#utility.yul\":25374:25389   */\n      and\n        /* \"#utility.yul\":25364:25389   */\n      swap2\n      pop\n        /* \"#utility.yul\":25277:25395   */\n      pop\n        /* \"#utility.yul\":25226:25395   */\n      swap3\n      swap2\n      pop\n      pop\n      jump\t// out\n        /* \"#utility.yul\":25400:25695   */\n    tag_303:\n        /* \"#utility.yul\":25476:25480   */\n      0x00\n        /* \"#utility.yul\":25622:25651   */\n      tag_569\n        /* \"#utility.yul\":25647:25650   */\n      dup4\n        /* \"#utility.yul\":25641:25645   */\n      dup4\n        /* \"#utility.yul\":25622:25651   */\n      tag_302\n      jump\t// in\n    tag_569:\n        /* \"#utility.yul\":25614:25651   */\n      swap2\n      pop\n        /* \"#utility.yul\":25684:25687   */\n      dup3\n        /* \"#utility.yul\":25681:25682   */\n      0x02\n        /* \"#utility.yul\":25677:25688   */\n      mul\n        /* \"#utility.yul\":25671:25675   */\n      dup3\n        /* \"#utility.yul\":25668:25689   */\n      or\n        /* \"#utility.yul\":25660:25689   */\n      swap1\n      pop\n        /* \"#utility.yul\":25400:25695   */\n      swap3\n      swap2\n      pop\n      pop\n      jump\t// out\n        /* \"#utility.yul\":25700:27095   */\n    tag_137:\n        /* \"#utility.yul\":25817:25854   */\n      tag_571\n        /* \"#utility.yul\":25850:25853   */\n      dup3\n        /* \"#utility.yul\":25817:25854   */\n      tag_263\n      jump\t// in\n    tag_571:\n        /* \"#utility.yul\":25919:25937   */\n      0xffffffffffffffff\n        /* \"#utility.yul\":25911:25917   */\n      dup2\n        /* \"#utility.yul\":25908:25938   */\n      gt\n        /* \"#utility.yul\":25905:25961   */\n      iszero\n      tag_572\n      jumpi\n        /* \"#utility.yul\":25941:25959   */\n      tag_573\n      tag_242\n      jump\t// in\n    tag_573:\n        /* \"#utility.yul\":25905:25961   */\n    tag_572:\n        /* \"#utility.yul\":25985:26023   */\n      tag_574\n        /* \"#utility.yul\":26017:26021   */\n      dup3\n        /* \"#utility.yul\":26011:26022   */\n      sload\n        /* \"#utility.yul\":25985:26023   */\n      tag_218\n      jump\t// in\n    tag_574:\n        /* \"#utility.yul\":26070:26137   */\n      tag_575\n        /* \"#utility.yul\":26130:26136   */\n      dup3\n        /* \"#utility.yul\":26122:26128   */\n      dup3\n        /* \"#utility.yul\":26116:26120   */\n      dup6\n        /* \"#utility.yul\":26070:26137   */\n      tag_300\n      jump\t// in\n    tag_575:\n        /* \"#utility.yul\":26164:26165   */\n      0x00\n        /* \"#utility.yul\":26188:26192   */\n      0x20\n        /* \"#utility.yul\":26175:26192   */\n      swap1\n      pop\n        /* \"#utility.yul\":26220:26222   */\n      0x1f\n        /* \"#utility.yul\":26212:26218   */\n      dup4\n        /* \"#utility.yul\":26209:26223   */\n      gt\n        /* \"#utility.yul\":26237:26238   */\n      0x01\n        /* \"#utility.yul\":26232:26850   */\n      dup2\n      eq\n      tag_577\n      jumpi\n        /* \"#utility.yul\":26894:26895   */\n      0x00\n        /* \"#utility.yul\":26911:26917   */\n      dup5\n        /* \"#utility.yul\":26908:26985   */\n      iszero\n      tag_578\n      jumpi\n        /* \"#utility.yul\":26960:26969   */\n      dup3\n        /* \"#utility.yul\":26955:26958   */\n      dup8\n        /* \"#utility.yul\":26951:26970   */\n      add\n        /* \"#utility.yul\":26945:26971   */\n      mload\n        /* \"#utility.yul\":26936:26971   */\n      swap1\n      pop\n        /* \"#utility.yul\":26908:26985   */\n    tag_578:\n        /* \"#utility.yul\":27011:27078   */\n      tag_579\n        /* \"#utility.yul\":27071:27077   */\n      dup6\n        /* \"#utility.yul\":27064:27069   */\n      dup3\n        /* \"#utility.yul\":27011:27078   */\n      tag_303\n      jump\t// in\n    tag_579:\n        /* \"#utility.yul\":27005:27009   */\n      dup7\n        /* \"#utility.yul\":26998:27079   */\n      sstore\n        /* \"#utility.yul\":26867:27089   */\n      pop\n        /* \"#utility.yul\":26202:27089   */\n      jump(tag_576)\n        /* \"#utility.yul\":26232:26850   */\n    tag_577:\n        /* \"#utility.yul\":26284:26288   */\n      0x1f\n        /* \"#utility.yul\":26280:26289   */\n      not\n        /* \"#utility.yul\":26272:26278   */\n      dup5\n        /* \"#utility.yul\":26268:26290   */\n      and\n        /* \"#utility.yul\":26318:26355   */\n      tag_580\n        /* \"#utility.yul\":26350:26354   */\n      dup7\n        /* \"#utility.yul\":26318:26355   */\n      tag_289\n      jump\t// in\n    tag_580:\n        /* \"#utility.yul\":26377:26378   */\n      0x00\n        /* \"#utility.yul\":26391:26599   */\n    tag_581:\n        /* \"#utility.yul\":26405:26412   */\n      dup3\n        /* \"#utility.yul\":26402:26403   */\n      dup2\n        /* \"#utility.yul\":26399:26413   */\n      lt\n        /* \"#utility.yul\":26391:26599   */\n      iszero\n      tag_583\n      jumpi\n        /* \"#utility.yul\":26484:26493   */\n      dup5\n        /* \"#utility.yul\":26479:26482   */\n      dup10\n        /* \"#utility.yul\":26475:26494   */\n      add\n        /* \"#utility.yul\":26469:26495   */\n      mload\n        /* \"#utility.yul\":26461:26467   */\n      dup3\n        /* \"#utility.yul\":26454:26496   */\n      sstore\n        /* \"#utility.yul\":26535:26536   */\n      0x01\n        /* \"#utility.yul\":26527:26533   */\n      dup3\n        /* \"#utility.yul\":26523:26537   */\n      add\n        /* \"#utility.yul\":26513:26537   */\n      swap2\n      pop\n        /* \"#utility.yul\":26582:26584   */\n      0x20\n        /* \"#utility.yul\":26571:26580   */\n      dup6\n        /* \"#utility.yul\":26567:26585   */\n      add\n        /* \"#utility.yul\":26554:26585   */\n      swap5\n      pop\n        /* \"#utility.yul\":26428:26432   */\n      0x20\n        /* \"#utility.yul\":26425:26426   */\n      dup2\n        /* \"#utility.yul\":26421:26433   */\n      add\n        /* \"#utility.yul\":26416:26433   */\n      swap1\n      pop\n        /* \"#utility.yul\":26391:26599   */\n      jump(tag_581)\n    tag_583:\n        /* \"#utility.yul\":26627:26633   */\n      dup7\n        /* \"#utility.yul\":26618:26625   */\n      dup4\n        /* \"#utility.yul\":26615:26634   */\n      lt\n        /* \"#utility.yul\":26612:26791   */\n      iszero\n      tag_584\n      jumpi\n        /* \"#utility.yul\":26685:26694   */\n      dup5\n        /* \"#utility.yul\":26680:26683   */\n      dup10\n        /* \"#utility.yul\":26676:26695   */\n      add\n        /* \"#utility.yul\":26670:26696   */\n      mload\n        /* \"#utility.yul\":26728:26776   */\n      tag_585\n        /* \"#utility.yul\":26770:26774   */\n      0x1f\n        /* \"#utility.yul\":26762:26768   */\n      dup10\n        /* \"#utility.yul\":26758:26775   */\n      and\n        /* \"#utility.yul\":26747:26756   */\n      dup3\n        /* \"#utility.yul\":26728:26776   */\n      tag_302\n      jump\t// in\n    tag_585:\n        /* \"#utility.yul\":26720:26726   */\n      dup4\n        /* \"#utility.yul\":26713:26777   */\n      sstore\n        /* \"#utility.yul\":26635:26791   */\n      pop\n        /* \"#utility.yul\":26612:26791   */\n    tag_584:\n        /* \"#utility.yul\":26837:26838   */\n      0x01\n        /* \"#utility.yul\":26833:26834   */\n      0x02\n        /* \"#utility.yul\":26825:26831   */\n      dup9\n        /* \"#utility.yul\":26821:26835   */\n      mul\n        /* \"#utility.yul\":26817:26839   */\n      add\n        /* \"#utility.yul\":26811:26815   */\n      dup9\n        /* \"#utility.yul\":26804:26840   */\n      sstore\n        /* \"#utility.yul\":26239:26850   */\n      pop\n      pop\n      pop\n        /* \"#utility.yul\":26202:27089   */\n    tag_576:\n      pop\n        /* \"#utility.yul\":25792:27095   */\n      pop\n      pop\n      pop\n        /* \"#utility.yul\":25700:27095   */\n      pop\n      pop\n      jump\t// out\n        /* \"#utility.yul\":27101:27524   */\n    tag_142:\n        /* \"#utility.yul\":27242:27246   */\n      0x00\n        /* \"#utility.yul\":27280:27282   */\n      0x40\n        /* \"#utility.yul\":27269:27278   */\n      dup3\n        /* \"#utility.yul\":27265:27283   */\n      add\n        /* \"#utility.yul\":27257:27283   */\n      swap1\n      pop\n        /* \"#utility.yul\":27293:27364   */\n      tag_587\n        /* \"#utility.yul\":27361:27362   */\n      0x00\n        /* \"#utility.yul\":27350:27359   */\n      dup4\n        /* \"#utility.yul\":27346:27363   */\n      add\n        /* \"#utility.yul\":27337:27343   */\n      dup6\n        /* \"#utility.yul\":27293:27364   */\n      tag_258\n      jump\t// in\n    tag_587:\n        /* \"#utility.yul\":27411:27420   */\n      dup2\n        /* \"#utility.yul\":27405:27409   */\n      dup2\n        /* \"#utility.yul\":27401:27421   */\n      sub\n        /* \"#utility.yul\":27396:27398   */\n      0x20\n        /* \"#utility.yul\":27385:27394   */\n      dup4\n        /* \"#utility.yul\":27381:27399   */\n      add\n        /* \"#utility.yul\":27374:27422   */\n      mstore\n        /* \"#utility.yul\":27439:27517   */\n      tag_588\n        /* \"#utility.yul\":27512:27516   */\n      dup2\n        /* \"#utility.yul\":27503:27509   */\n      dup5\n        /* \"#utility.yul\":27439:27517   */\n      tag_285\n      jump\t// in\n    tag_588:\n        /* \"#utility.yul\":27431:27517   */\n      swap1\n      pop\n        /* \"#utility.yul\":27101:27524   */\n      swap4\n      swap3\n      pop\n      pop\n      pop\n      jump\t// out\n        /* \"#utility.yul\":27530:27709   */\n    tag_304:\n        /* \"#utility.yul\":27670:27701   */\n      0x77697468647261776e5f6661696c5f6e616d655f6e6f745f6578697374000000\n        /* \"#utility.yul\":27666:27667   */\n      0x00\n        /* \"#utility.yul\":27658:27664   */\n      dup3\n        /* \"#utility.yul\":27654:27668   */\n      add\n        /* \"#utility.yul\":27647:27702   */\n      mstore\n        /* \"#utility.yul\":27530:27709   */\n      pop\n      jump\t// out\n        /* \"#utility.yul\":27715:28081   */\n    tag_305:\n        /* \"#utility.yul\":27857:27860   */\n      0x00\n        /* \"#utility.yul\":27878:27945   */\n      tag_591\n        /* \"#utility.yul\":27942:27944   */\n      0x1d\n        /* \"#utility.yul\":27937:27940   */\n      dup4\n        /* \"#utility.yul\":27878:27945   */\n      tag_272\n      jump\t// in\n    tag_591:\n        /* \"#utility.yul\":27871:27945   */\n      swap2\n      pop\n        /* \"#utility.yul\":27954:28047   */\n      tag_592\n        /* \"#utility.yul\":28043:28046   */\n      dup3\n        /* \"#utility.yul\":27954:28047   */\n      tag_304\n      jump\t// in\n    tag_592:\n        /* \"#utility.yul\":28072:28074   */\n      0x20\n        /* \"#utility.yul\":28067:28070   */\n      dup3\n        /* \"#utility.yul\":28063:28075   */\n      add\n        /* \"#utility.yul\":28056:28075   */\n      swap1\n      pop\n        /* \"#utility.yul\":27715:28081   */\n      swap2\n      swap1\n      pop\n      jump\t// out\n        /* \"#utility.yul\":28087:28506   */\n    tag_147:\n        /* \"#utility.yul\":28253:28257   */\n      0x00\n        /* \"#utility.yul\":28291:28293   */\n      0x20\n        /* \"#utility.yul\":28280:28289   */\n      dup3\n        /* \"#utility.yul\":28276:28294   */\n      add\n        /* \"#utility.yul\":28268:28294   */\n      swap1\n      pop\n        /* \"#utility.yul\":28340:28349   */\n      dup2\n        /* \"#utility.yul\":28334:28338   */\n      dup2\n        /* \"#utility.yul\":28330:28350   */\n      sub\n        /* \"#utility.yul\":28326:28327   */\n      0x00\n        /* \"#utility.yul\":28315:28324   */\n      dup4\n        /* \"#utility.yul\":28311:28328   */\n      add\n        /* \"#utility.yul\":28304:28351   */\n      mstore\n        /* \"#utility.yul\":28368:28499   */\n      tag_594\n        /* \"#utility.yul\":28494:28498   */\n      dup2\n        /* \"#utility.yul\":28368:28499   */\n      tag_305\n      jump\t// in\n    tag_594:\n        /* \"#utility.yul\":28360:28499   */\n      swap1\n      pop\n        /* \"#utility.yul\":28087:28506   */\n      swap2\n      swap1\n      pop\n      jump\t// out\n        /* \"#utility.yul\":28512:28686   */\n    tag_306:\n        /* \"#utility.yul\":28652:28678   */\n      0x77697468647261776e5f6661696c5f6e6f745f6f776e65720000000000000000\n        /* \"#utility.yul\":28648:28649   */\n      0x00\n        /* \"#utility.yul\":28640:28646   */\n      dup3\n        /* \"#utility.yul\":28636:28650   */\n      add\n        /* \"#utility.yul\":28629:28679   */\n      mstore\n        /* \"#utility.yul\":28512:28686   */\n      pop\n      jump\t// out\n        /* \"#utility.yul\":28692:29058   */\n    tag_307:\n        /* \"#utility.yul\":28834:28837   */\n      0x00\n        /* \"#utility.yul\":28855:28922   */\n      tag_597\n        /* \"#utility.yul\":28919:28921   */\n      0x18\n        /* \"#utility.yul\":28914:28917   */\n      dup4\n        /* \"#utility.yul\":28855:28922   */\n      tag_272\n      jump\t// in\n    tag_597:\n        /* \"#utility.yul\":28848:28922   */\n      swap2\n      pop\n        /* \"#utility.yul\":28931:29024   */\n      tag_598\n        /* \"#utility.yul\":29020:29023   */\n      dup3\n        /* \"#utility.yul\":28931:29024   */\n      tag_306\n      jump\t// in\n    tag_598:\n        /* \"#utility.yul\":29049:29051   */\n      0x20\n        /* \"#utility.yul\":29044:29047   */\n      dup3\n        /* \"#utility.yul\":29040:29052   */\n      add\n        /* \"#utility.yul\":29033:29052   */\n      swap1\n      pop\n        /* \"#utility.yul\":28692:29058   */\n      swap2\n      swap1\n      pop\n      jump\t// out\n        /* \"#utility.yul\":29064:29483   */\n    tag_151:\n        /* \"#utility.yul\":29230:29234   */\n      0x00\n        /* \"#utility.yul\":29268:29270   */\n      0x20\n        /* \"#utility.yul\":29257:29266   */\n      dup3\n        /* \"#utility.yul\":29253:29271   */\n      add\n        /* \"#utility.yul\":29245:29271   */\n      swap1\n      pop\n        /* \"#utility.yul\":29317:29326   */\n      dup2\n        /* \"#utility.yul\":29311:29315   */\n      dup2\n        /* \"#utility.yul\":29307:29327   */\n      sub\n        /* \"#utility.yul\":29303:29304   */\n      0x00\n        /* \"#utility.yul\":29292:29301   */\n      dup4\n        /* \"#utility.yul\":29288:29305   */\n      add\n        /* \"#utility.yul\":29281:29328   */\n      mstore\n        /* \"#utility.yul\":29345:29476   */\n      tag_600\n        /* \"#utility.yul\":29471:29475   */\n      dup2\n        /* \"#utility.yul\":29345:29476   */\n      tag_307\n      jump\t// in\n    tag_600:\n        /* \"#utility.yul\":29337:29476   */\n      swap1\n      pop\n        /* \"#utility.yul\":29064:29483   */\n      swap2\n      swap1\n      pop\n      jump\t// out\n        /* \"#utility.yul\":29489:29664   */\n    tag_308:\n        /* \"#utility.yul\":29629:29656   */\n      0x77697468647261776e5f6661696c5f76616c75655f7a65726f00000000000000\n        /* \"#utility.yul\":29625:29626   */\n      0x00\n        /* \"#utility.yul\":29617:29623   */\n      dup3\n        /* \"#utility.yul\":29613:29627   */\n      add\n        /* \"#utility.yul\":29606:29657   */\n      mstore\n        /* \"#utility.yul\":29489:29664   */\n      pop\n      jump\t// out\n        /* \"#utility.yul\":29670:30036   */\n    tag_309:\n        /* \"#utility.yul\":29812:29815   */\n      0x00\n        /* \"#utility.yul\":29833:29900   */\n      tag_603\n        /* \"#utility.yul\":29897:29899   */\n      0x19\n        /* \"#utility.yul\":29892:29895   */\n      dup4\n        /* \"#utility.yul\":29833:29900   */\n      tag_272\n      jump\t// in\n    tag_603:\n        /* \"#utility.yul\":29826:29900   */\n      swap2\n      pop\n        /* \"#utility.yul\":29909:30002   */\n      tag_604\n        /* \"#utility.yul\":29998:30001   */\n      dup3\n        /* \"#utility.yul\":29909:30002   */\n      tag_308\n      jump\t// in\n    tag_604:\n        /* \"#utility.yul\":30027:30029   */\n      0x20\n        /* \"#utility.yul\":30022:30025   */\n      dup3\n        /* \"#utility.yul\":30018:30030   */\n      add\n        /* \"#utility.yul\":30011:30030   */\n      swap1\n      pop\n        /* \"#utility.yul\":29670:30036   */\n      swap2\n      swap1\n      pop\n      jump\t// out\n        /* \"#utility.yul\":30042:30461   */\n    tag_154:\n        /* \"#utility.yul\":30208:30212   */\n      0x00\n        /* \"#utility.yul\":30246:30248   */\n      0x20\n        /* \"#utility.yul\":30235:30244   */\n      dup3\n        /* \"#utility.yul\":30231:30249   */\n      add\n        /* \"#utility.yul\":30223:30249   */\n      swap1\n      pop\n        /* \"#utility.yul\":30295:30304   */\n      dup2\n        /* \"#utility.yul\":30289:30293   */\n      dup2\n        /* \"#utility.yul\":30285:30305   */\n      sub\n        /* \"#utility.yul\":30281:30282   */\n      0x00\n        /* \"#utility.yul\":30270:30279   */\n      dup4\n        /* \"#utility.yul\":30266:30283   */\n      add\n        /* \"#utility.yul\":30259:30306   */\n      mstore\n        /* \"#utility.yul\":30323:30454   */\n      tag_606\n        /* \"#utility.yul\":30449:30453   */\n      dup2\n        /* \"#utility.yul\":30323:30454   */\n      tag_309\n      jump\t// in\n    tag_606:\n        /* \"#utility.yul\":30315:30454   */\n      swap1\n      pop\n        /* \"#utility.yul\":30042:30461   */\n      swap2\n      swap1\n      pop\n      jump\t// out\n        /* \"#utility.yul\":30467:30687   */\n    tag_310:\n        /* \"#utility.yul\":30607:30641   */\n      0x77697468647261776e5f6661696c5f62616c616e63655f6e6f745f656e6f7567\n        /* \"#utility.yul\":30603:30604   */\n      0x00\n        /* \"#utility.yul\":30595:30601   */\n      dup3\n        /* \"#utility.yul\":30591:30605   */\n      add\n        /* \"#utility.yul\":30584:30642   */\n      mstore\n        /* \"#utility.yul\":30676:30679   */\n      0x6800000000000000000000000000000000000000000000000000000000000000\n        /* \"#utility.yul\":30671:30673   */\n      0x20\n        /* \"#utility.yul\":30663:30669   */\n      dup3\n        /* \"#utility.yul\":30659:30674   */\n      add\n        /* \"#utility.yul\":30652:30680   */\n      mstore\n        /* \"#utility.yul\":30467:30687   */\n      pop\n      jump\t// out\n        /* \"#utility.yul\":30693:31059   */\n    tag_311:\n        /* \"#utility.yul\":30835:30838   */\n      0x00\n        /* \"#utility.yul\":30856:30923   */\n      tag_609\n        /* \"#utility.yul\":30920:30922   */\n      0x21\n        /* \"#utility.yul\":30915:30918   */\n      dup4\n        /* \"#utility.yul\":30856:30923   */\n      tag_272\n      jump\t// in\n    tag_609:\n        /* \"#utility.yul\":30849:30923   */\n      swap2\n      pop\n        /* \"#utility.yul\":30932:31025   */\n      tag_610\n        /* \"#utility.yul\":31021:31024   */\n      dup3\n        /* \"#utility.yul\":30932:31025   */\n      tag_310\n      jump\t// in\n    tag_610:\n        /* \"#utility.yul\":31050:31052   */\n      0x40\n        /* \"#utility.yul\":31045:31048   */\n      dup3\n        /* \"#utility.yul\":31041:31053   */\n      add\n        /* \"#utility.yul\":31034:31053   */\n      swap1\n      pop\n        /* \"#utility.yul\":30693:31059   */\n      swap2\n      swap1\n      pop\n      jump\t// out\n        /* \"#utility.yul\":31065:31484   */\n    tag_158:\n        /* \"#utility.yul\":31231:31235   */\n      0x00\n        /* \"#utility.yul\":31269:31271   */\n      0x20\n        /* \"#utility.yul\":31258:31267   */\n      dup3\n        /* \"#utility.yul\":31254:31272   */\n      add\n        /* \"#utility.yul\":31246:31272   */\n      swap1\n      pop\n        /* \"#utility.yul\":31318:31327   */\n      dup2\n        /* \"#utility.yul\":31312:31316   */\n      dup2\n        /* \"#utility.yul\":31308:31328   */\n      sub\n        /* \"#utility.yul\":31304:31305   */\n      0x00\n        /* \"#utility.yul\":31293:31302   */\n      dup4\n        /* \"#utility.yul\":31289:31306   */\n      add\n        /* \"#utility.yul\":31282:31329   */\n      mstore\n        /* \"#utility.yul\":31346:31477   */\n      tag_612\n        /* \"#utility.yul\":31472:31476   */\n      dup2\n        /* \"#utility.yul\":31346:31477   */\n      tag_311\n      jump\t// in\n    tag_612:\n        /* \"#utility.yul\":31338:31477   */\n      swap1\n      pop\n        /* \"#utility.yul\":31065:31484   */\n      swap2\n      swap1\n      pop\n      jump\t// out\n        /* \"#utility.yul\":31490:32023   */\n    tag_164:\n        /* \"#utility.yul\":31659:31663   */\n      0x00\n        /* \"#utility.yul\":31697:31699   */\n      0x60\n        /* \"#utility.yul\":31686:31695   */\n      dup3\n        /* \"#utility.yul\":31682:31700   */\n      add\n        /* \"#utility.yul\":31674:31700   */\n      swap1\n      pop\n        /* \"#utility.yul\":31746:31755   */\n      dup2\n        /* \"#utility.yul\":31740:31744   */\n      dup2\n        /* \"#utility.yul\":31736:31756   */\n      sub\n        /* \"#utility.yul\":31732:31733   */\n      0x00\n        /* \"#utility.yul\":31721:31730   */\n      dup4\n        /* \"#utility.yul\":31717:31734   */\n      add\n        /* \"#utility.yul\":31710:31757   */\n      mstore\n        /* \"#utility.yul\":31774:31852   */\n      tag_614\n        /* \"#utility.yul\":31847:31851   */\n      dup2\n        /* \"#utility.yul\":31838:31844   */\n      dup7\n        /* \"#utility.yul\":31774:31852   */\n      tag_285\n      jump\t// in\n    tag_614:\n        /* \"#utility.yul\":31766:31852   */\n      swap1\n      pop\n        /* \"#utility.yul\":31862:31934   */\n      tag_615\n        /* \"#utility.yul\":31930:31932   */\n      0x20\n        /* \"#utility.yul\":31919:31928   */\n      dup4\n        /* \"#utility.yul\":31915:31933   */\n      add\n        /* \"#utility.yul\":31906:31912   */\n      dup6\n        /* \"#utility.yul\":31862:31934   */\n      tag_258\n      jump\t// in\n    tag_615:\n        /* \"#utility.yul\":31944:32016   */\n      tag_616\n        /* \"#utility.yul\":32012:32014   */\n      0x40\n        /* \"#utility.yul\":32001:32010   */\n      dup4\n        /* \"#utility.yul\":31997:32015   */\n      add\n        /* \"#utility.yul\":31988:31994   */\n      dup5\n        /* \"#utility.yul\":31944:32016   */\n      tag_259\n      jump\t// in\n    tag_616:\n        /* \"#utility.yul\":31490:32023   */\n      swap5\n      swap4\n      pop\n      pop\n      pop\n      pop\n      jump\t// out\n        /* \"#utility.yul\":32029:32206   */\n    tag_312:\n        /* \"#utility.yul\":32169:32198   */\n      0x6465706f7369745f6661696c5f6e616d655f6e6f745f65786973740000000000\n        /* \"#utility.yul\":32165:32166   */\n      0x00\n        /* \"#utility.yul\":32157:32163   */\n      dup3\n        /* \"#utility.yul\":32153:32167   */\n      add\n        /* \"#utility.yul\":32146:32199   */\n      mstore\n        /* \"#utility.yul\":32029:32206   */\n      pop\n      jump\t// out\n        /* \"#utility.yul\":32212:32578   */\n    tag_313:\n        /* \"#utility.yul\":32354:32357   */\n      0x00\n        /* \"#utility.yul\":32375:32442   */\n      tag_619\n        /* \"#utility.yul\":32439:32441   */\n      0x1b\n        /* \"#utility.yul\":32434:32437   */\n      dup4\n        /* \"#utility.yul\":32375:32442   */\n      tag_272\n      jump\t// in\n    tag_619:\n        /* \"#utility.yul\":32368:32442   */\n      swap2\n      pop\n        /* \"#utility.yul\":32451:32544   */\n      tag_620\n        /* \"#utility.yul\":32540:32543   */\n      dup3\n        /* \"#utility.yul\":32451:32544   */\n      tag_312\n      jump\t// in\n    tag_620:\n        /* \"#utility.yul\":32569:32571   */\n      0x20\n        /* \"#utility.yul\":32564:32567   */\n      dup3\n        /* \"#utility.yul\":32560:32572   */\n      add\n        /* \"#utility.yul\":32553:32572   */\n      swap1\n      pop\n        /* \"#utility.yul\":32212:32578   */\n      swap2\n      swap1\n      pop\n      jump\t// out\n        /* \"#utility.yul\":32584:33003   */\n    tag_205:\n        /* \"#utility.yul\":32750:32754   */\n      0x00\n        /* \"#utility.yul\":32788:32790   */\n      0x20\n        /* \"#utility.yul\":32777:32786   */\n      dup3\n        /* \"#utility.yul\":32773:32791   */\n      add\n        /* \"#utility.yul\":32765:32791   */\n      swap1\n      pop\n        /* \"#utility.yul\":32837:32846   */\n      dup2\n        /* \"#utility.yul\":32831:32835   */\n      dup2\n        /* \"#utility.yul\":32827:32847   */\n      sub\n        /* \"#utility.yul\":32823:32824   */\n      0x00\n        /* \"#utility.yul\":32812:32821   */\n      dup4\n        /* \"#utility.yul\":32808:32825   */\n      add\n        /* \"#utility.yul\":32801:32848   */\n      mstore\n        /* \"#utility.yul\":32865:32996   */\n      tag_622\n        /* \"#utility.yul\":32991:32995   */\n      dup2\n        /* \"#utility.yul\":32865:32996   */\n      tag_313\n      jump\t// in\n    tag_622:\n        /* \"#utility.yul\":32857:32996   */\n      swap1\n      pop\n        /* \"#utility.yul\":32584:33003   */\n      swap2\n      swap1\n      pop\n      jump\t// out\n        /* \"#utility.yul\":33009:33182   */\n    tag_314:\n        /* \"#utility.yul\":33149:33174   */\n      0x6465706f7369745f6661696c5f76616c75655f7a65726f000000000000000000\n        /* \"#utility.yul\":33145:33146   */\n      0x00\n        /* \"#utility.yul\":33137:33143   */\n      dup3\n        /* \"#utility.yul\":33133:33147   */\n      add\n        /* \"#utility.yul\":33126:33175   */\n      mstore\n        /* \"#utility.yul\":33009:33182   */\n      pop\n      jump\t// out\n        /* \"#utility.yul\":33188:33554   */\n    tag_315:\n        /* \"#utility.yul\":33330:33333   */\n      0x00\n        /* \"#utility.yul\":33351:33418   */\n      tag_625\n        /* \"#utility.yul\":33415:33417   */\n      0x17\n        /* \"#utility.yul\":33410:33413   */\n      dup4\n        /* \"#utility.yul\":33351:33418   */\n      tag_272\n      jump\t// in\n    tag_625:\n        /* \"#utility.yul\":33344:33418   */\n      swap2\n      pop\n        /* \"#utility.yul\":33427:33520   */\n      tag_626\n        /* \"#utility.yul\":33516:33519   */\n      dup3\n        /* \"#utility.yul\":33427:33520   */\n      tag_314\n      jump\t// in\n    tag_626:\n        /* \"#utility.yul\":33545:33547   */\n      0x20\n        /* \"#utility.yul\":33540:33543   */\n      dup3\n        /* \"#utility.yul\":33536:33548   */\n      add\n        /* \"#utility.yul\":33529:33548   */\n      swap1\n      pop\n        /* \"#utility.yul\":33188:33554   */\n      swap2\n      swap1\n      pop\n      jump\t// out\n        /* \"#utility.yul\":33560:33979   */\n    tag_208:\n        /* \"#utility.yul\":33726:33730   */\n      0x00\n        /* \"#utility.yul\":33764:33766   */\n      0x20\n        /* \"#utility.yul\":33753:33762   */\n      dup3\n        /* \"#utility.yul\":33749:33767   */\n      add\n        /* \"#utility.yul\":33741:33767   */\n      swap1\n      pop\n        /* \"#utility.yul\":33813:33822   */\n      dup2\n        /* \"#utility.yul\":33807:33811   */\n      dup2\n        /* \"#utility.yul\":33803:33823   */\n      sub\n        /* \"#utility.yul\":33799:33800   */\n      0x00\n        /* \"#utility.yul\":33788:33797   */\n      dup4\n        /* \"#utility.yul\":33784:33801   */\n      add\n        /* \"#utility.yul\":33777:33824   */\n      mstore\n        /* \"#utility.yul\":33841:33972   */\n      tag_628\n        /* \"#utility.yul\":33967:33971   */\n      dup2\n        /* \"#utility.yul\":33841:33972   */\n      tag_315\n      jump\t// in\n    tag_628:\n        /* \"#utility.yul\":33833:33972   */\n      swap1\n      pop\n        /* \"#utility.yul\":33560:33979   */\n      swap2\n      swap1\n      pop\n      jump\t// out\n        /* \"#utility.yul\":33985:34518   */\n    tag_212:\n        /* \"#utility.yul\":34154:34158   */\n      0x00\n        /* \"#utility.yul\":34192:34194   */\n      0x60\n        /* \"#utility.yul\":34181:34190   */\n      dup3\n        /* \"#utility.yul\":34177:34195   */\n      add\n        /* \"#utility.yul\":34169:34195   */\n      swap1\n      pop\n        /* \"#utility.yul\":34205:34276   */\n      tag_630\n        /* \"#utility.yul\":34273:34274   */\n      0x00\n        /* \"#utility.yul\":34262:34271   */\n      dup4\n        /* \"#utility.yul\":34258:34275   */\n      add\n        /* \"#utility.yul\":34249:34255   */\n      dup7\n        /* \"#utility.yul\":34205:34276   */\n      tag_258\n      jump\t// in\n    tag_630:\n        /* \"#utility.yul\":34323:34332   */\n      dup2\n        /* \"#utility.yul\":34317:34321   */\n      dup2\n        /* \"#utility.yul\":34313:34333   */\n      sub\n        /* \"#utility.yul\":34308:34310   */\n      0x20\n        /* \"#utility.yul\":34297:34306   */\n      dup4\n        /* \"#utility.yul\":34293:34311   */\n      add\n        /* \"#utility.yul\":34286:34334   */\n      mstore\n        /* \"#utility.yul\":34351:34429   */\n      tag_631\n        /* \"#utility.yul\":34424:34428   */\n      dup2\n        /* \"#utility.yul\":34415:34421   */\n      dup6\n        /* \"#utility.yul\":34351:34429   */\n      tag_285\n      jump\t// in\n    tag_631:\n        /* \"#utility.yul\":34343:34429   */\n      swap1\n      pop\n        /* \"#utility.yul\":34439:34511   */\n      tag_632\n        /* \"#utility.yul\":34507:34509   */\n      0x40\n        /* \"#utility.yul\":34496:34505   */\n      dup4\n        /* \"#utility.yul\":34492:34510   */\n      add\n        /* \"#utility.yul\":34483:34489   */\n      dup5\n        /* \"#utility.yul\":34439:34511   */\n      tag_259\n      jump\t// in\n    tag_632:\n        /* \"#utility.yul\":33985:34518   */\n      swap5\n      swap4\n      pop\n      pop\n      pop\n      pop\n      jump\t// out\n\n    auxdata: 0xa2646970667358221220cd0fa8a39277587c61f525c43ea54e0738f210133a28ac4d45d8090f05eab66064736f6c634300080f0033\n}\n",
				"bytecode": {
					"linkReferences": {},
					"object": "608060405234801561001057600080fd5b50336000806101000a81548173ffffffffffffffffffffffffffffffffffffffff021916908373ffffffffffffffffffffffffffffffffffffffff16021790555060006001819055506127ee806100686000396000f3fe60806040526004361061009c5760003560e01c80637b83b50b116100645780637b83b50b14610182578063a26e1186146101ad578063a43e567a146101c9578063b2277d2c146101f4578063ca1ae01c1461021f578063f8a0e8c31461025c5761009c565b806316dfc5b2146100a15780632ad26a04146100ca578063358eecb6146100f35780634695bfe61461011c5780635e34581014610159575b600080fd5b3480156100ad57600080fd5b506100c860048036038101906100c391906117e0565b610285565b005b3480156100d657600080fd5b506100f160048036038101906100ec919061186b565b6107df565b005b3480156100ff57600080fd5b5061011a600480360381019061011591906118b4565b6109f0565b005b34801561012857600080fd5b50610143600480360381019061013e919061186b565b610c75565b6040516101509190611951565b60405180910390f35b34801561016557600080fd5b50610180600480360381019061017b919061196c565b610cc0565b005b34801561018e57600080fd5b50610197611152565b6040516101a49190611a06565b60405180910390f35b6101c760048036038101906101c2919061186b565b61115c565b005b3480156101d557600080fd5b506101de611287565b6040516101eb9190611b6b565b60405180910390f35b34801561020057600080fd5b5061020961139d565b6040516102169190611951565b60405180910390f35b34801561022b57600080fd5b506102466004803603810190610241919061186b565b6113c6565b6040516102539190611a06565b60405180910390f35b34801561026857600080fd5b50610283600480360381019061027e9190611b8d565b6113f1565b005b600115156004846040516102999190611bf6565b908152602001604051809103902060009054906101000a900460ff161515146102f7576040517f08c379a00000000000000000000000000000000000000000000000000000000081526004016102ee90611c90565b60405180910390fd5b3373ffffffffffffffffffffffffffffffffffffffff1660038460405161031e9190611bf6565b908152602001604051809103902060000160009054906101000a900473ffffffffffffffffffffffffffffffffffffffff1673ffffffffffffffffffffffffffffffffffffffff16146103a6576040517f08c379a000000000000000000000000000000000000000000000000000000000815260040161039d90611cfc565b60405180910390fd5b60648110156103ea576040517f08c379a00000000000000000000000000000000000000000000000000000000081526004016103e190611d8e565b60405180910390fd5b8151816103f79190611ddd565b6003846040516104079190611bf6565b908152602001604051809103902060020154101561045a576040517f08c379a000000000000000000000000000000000000000000000000000000000815260040161045190611ea9565b60405180910390fd5b60005b82518110156107d95760011515600484838151811061047f5761047e611ec9565b5b60200260200101516040516104949190611bf6565b908152602001604051809103902060009054906101000a900460ff161515146104f2576040517f08c379a00000000000000000000000000000000000000000000000000000000081526004016104e990611f44565b60405180910390fd5b600383828151811061050757610506611ec9565b5b602002602001015160405161051c9190611bf6565b908152602001604051809103902060000160009054906101000a900473ffffffffffffffffffffffffffffffffffffffff1673ffffffffffffffffffffffffffffffffffffffff166003856040516105749190611bf6565b908152602001604051809103902060000160009054906101000a900473ffffffffffffffffffffffffffffffffffffffff1673ffffffffffffffffffffffffffffffffffffffff16146106e65760006064836105d09190611f93565b905080600160008282546105e49190611fc4565b92505081905550826003866040516105fc9190611bf6565b9081526020016040518091039020600201600082825461061c919061201a565b92505081905550808361062f919061201a565b600385848151811061064457610643611ec9565b5b60200260200101516040516106599190611bf6565b908152602001604051809103902060020160008282546106799190611fc4565b925050819055507f370044a47246afacf081fd58c8468a6482ebc8673d418e785b8d0492240f95de858584815181106106b5576106b4611ec9565b5b602002602001015183866106c9919061201a565b6040516106d893929190612087565b60405180910390a1506107c6565b816003856040516106f79190611bf6565b90815260200160405180910390206002016000828254610717919061201a565b9250508190555081600384838151811061073457610733611ec9565b5b60200260200101516040516107499190611bf6565b908152602001604051809103902060020160008282546107699190611fc4565b925050819055507f370044a47246afacf081fd58c8468a6482ebc8673d418e785b8d0492240f95de848483815181106107a5576107a4611ec9565b5b6020026020010151846040516107bd93929190612087565b60405180910390a15b80806107d1906120cc565b91505061045d565b50505050565b600015156004826040516107f39190611bf6565b908152602001604051809103902060009054906101000a900460ff16151514610851576040517f08c379a000000000000000000000000000000000000000000000000000000000815260040161084890612160565b60405180910390fd5b60405180606001604052803373ffffffffffffffffffffffffffffffffffffffff16815260200182815260200160008152506003826040516108939190611bf6565b908152602001604051809103902060008201518160000160006101000a81548173ffffffffffffffffffffffffffffffffffffffff021916908373ffffffffffffffffffffffffffffffffffffffff16021790555060208201518160010190816108fd919061238c565b5060408201518160020155905050600260003373ffffffffffffffffffffffffffffffffffffffff1673ffffffffffffffffffffffffffffffffffffffff1681526020019081526020016000208190806001815401808255809150506001900390600052602060002001600090919091909150908161097c919061238c565b50600160048260405161098f9190611bf6565b908152602001604051809103902060006101000a81548160ff0219169083151502179055507fb4833c10b628b390dd18880f97a54f11eae38c84eb68171f9a11b0fd7855fadf33826040516109e592919061245e565b60405180910390a150565b60011515600483604051610a049190611bf6565b908152602001604051809103902060009054906101000a900460ff16151514610a62576040517f08c379a0000000000000000000000000000000000000000000000000000000008152600401610a59906124da565b60405180910390fd5b3373ffffffffffffffffffffffffffffffffffffffff16600383604051610a899190611bf6565b908152602001604051809103902060000160009054906101000a900473ffffffffffffffffffffffffffffffffffffffff1673ffffffffffffffffffffffffffffffffffffffff1614610b11576040517f08c379a0000000000000000000000000000000000000000000000000000000008152600401610b0890612546565b60405180910390fd5b60008111610b54576040517f08c379a0000000000000000000000000000000000000000000000000000000008152600401610b4b906125b2565b60405180910390fd5b80600383604051610b659190611bf6565b9081526020016040518091039020600201541015610bb8576040517f08c379a0000000000000000000000000000000000000000000000000000000008152600401610baf90612644565b60405180910390fd5b80600383604051610bc99190611bf6565b90815260200160405180910390206002016000828254610be9919061201a565b925050819055503373ffffffffffffffffffffffffffffffffffffffff166108fc829081150290604051600060405180830381858888f19350505050158015610c36573d6000803e3d6000fd5b507ef571bb39287f8941696401f5b5a1666ee251efbf23412140fbddce841655d9823383604051610c6993929190612664565b60405180910390a15050565b6000600382604051610c879190611bf6565b908152602001604051809103902060000160009054906101000a900473ffffffffffffffffffffffffffffffffffffffff169050919050565b60011515600484604051610cd49190611bf6565b908152602001604051809103902060009054906101000a900460ff16151514610d32576040517f08c379a0000000000000000000000000000000000000000000000000000000008152600401610d2990611c90565b60405180910390fd5b60011515600483604051610d469190611bf6565b908152602001604051809103902060009054906101000a900460ff16151514610da4576040517f08c379a0000000000000000000000000000000000000000000000000000000008152600401610d9b90611f44565b60405180910390fd5b3373ffffffffffffffffffffffffffffffffffffffff16600384604051610dcb9190611bf6565b908152602001604051809103902060000160009054906101000a900473ffffffffffffffffffffffffffffffffffffffff1673ffffffffffffffffffffffffffffffffffffffff1614610e53576040517f08c379a0000000000000000000000000000000000000000000000000000000008152600401610e4a90611cfc565b60405180910390fd5b6064811015610e97576040517f08c379a0000000000000000000000000000000000000000000000000000000008152600401610e8e90611d8e565b60405180910390fd5b80600384604051610ea89190611bf6565b9081526020016040518091039020600201541015610efb576040517f08c379a0000000000000000000000000000000000000000000000000000000008152600401610ef290611ea9565b60405180910390fd5b600382604051610f0b9190611bf6565b908152602001604051809103902060000160009054906101000a900473ffffffffffffffffffffffffffffffffffffffff1673ffffffffffffffffffffffffffffffffffffffff16600384604051610f639190611bf6565b908152602001604051809103902060000160009054906101000a900473ffffffffffffffffffffffffffffffffffffffff1673ffffffffffffffffffffffffffffffffffffffff16146110a1576000606482610fbf9190611f93565b90508060016000828254610fd39190611fc4565b9250508190555081600385604051610feb9190611bf6565b9081526020016040518091039020600201600082825461100b919061201a565b92505081905550808261101e919061201a565b60038460405161102e9190611bf6565b9081526020016040518091039020600201600082825461104e9190611fc4565b925050819055507f370044a47246afacf081fd58c8468a6482ebc8673d418e785b8d0492240f95de84848385611084919061201a565b60405161109393929190612087565b60405180910390a15061114d565b806003846040516110b29190611bf6565b908152602001604051809103902060020160008282546110d2919061201a565b92505081905550806003836040516110ea9190611bf6565b9081526020016040518091039020600201600082825461110a9190611fc4565b925050819055507f370044a47246afacf081fd58c8468a6482ebc8673d418e785b8d0492240f95de83838360405161114493929190612087565b60405180910390a15b505050565b6000600154905090565b600115156004826040516111709190611bf6565b908152602001604051809103902060009054906101000a900460ff161515146111ce576040517f08c379a00000000000000000000000000000000000000000000000000000000081526004016111c5906126ee565b60405180910390fd5b60003411611211576040517f08c379a00000000000000000000000000000000000000000000000000000000081526004016112089061275a565b60405180910390fd5b346003826040516112229190611bf6565b908152602001604051809103902060020160008282546112429190611fc4565b925050819055507f03e0b25ba1ab101c1d9112766101bb987f00f29a37a44b4a0813ed489a4f3ffa33823460405161127c9392919061277a565b60405180910390a150565b6060600260003373ffffffffffffffffffffffffffffffffffffffff1673ffffffffffffffffffffffffffffffffffffffff168152602001908152602001600020805480602002602001604051908101604052809291908181526020016000905b82821015611394578382906000526020600020018054611307906121af565b80601f0160208091040260200160405190810160405280929190818152602001828054611333906121af565b80156113805780601f1061135557610100808354040283529160200191611380565b820191906000526020600020905b81548152906001019060200180831161136357829003601f168201915b5050505050815260200190600101906112e8565b50505050905090565b60008060009054906101000a900473ffffffffffffffffffffffffffffffffffffffff16905090565b60006003826040516113d89190611bf6565b9081526020016040518091039020600201549050919050565b3373ffffffffffffffffffffffffffffffffffffffff1660008054906101000a900473ffffffffffffffffffffffffffffffffffffffff1673ffffffffffffffffffffffffffffffffffffffff161461147f576040517f08c379a000000000000000000000000000000000000000000000000000000000815260040161147690612546565b60405180910390fd5b600081116114c2576040517f08c379a00000000000000000000000000000000000000000000000000000000081526004016114b9906125b2565b60405180910390fd5b806001541015611507576040517f08c379a00000000000000000000000000000000000000000000000000000000081526004016114fe90612644565b60405180910390fd5b8060016000828254611519919061201a565b925050819055503373ffffffffffffffffffffffffffffffffffffffff166108fc829081150290604051600060405180830381858888f19350505050158015611566573d6000803e3d6000fd5b5050565b6000604051905090565b600080fd5b600080fd5b600080fd5b600080fd5b6000601f19601f8301169050919050565b7f4e487b7100000000000000000000000000000000000000000000000000000000600052604160045260246000fd5b6115d182611588565b810181811067ffffffffffffffff821117156115f0576115ef611599565b5b80604052505050565b600061160361156a565b905061160f82826115c8565b919050565b600067ffffffffffffffff82111561162f5761162e611599565b5b61163882611588565b9050602081019050919050565b82818337600083830152505050565b600061166761166284611614565b6115f9565b90508281526020810184848401111561168357611682611583565b5b61168e848285611645565b509392505050565b600082601f8301126116ab576116aa61157e565b5b81356116bb848260208601611654565b91505092915050565b600067ffffffffffffffff8211156116df576116de611599565b5b602082029050602081019050919050565b600080fd5b6000611708611703846116c4565b6115f9565b9050808382526020820190506020840283018581111561172b5761172a6116f0565b5b835b8181101561177257803567ffffffffffffffff8111156117505761174f61157e565b5b80860161175d8982611696565b8552602085019450505060208101905061172d565b5050509392505050565b600082601f8301126117915761179061157e565b5b81356117a18482602086016116f5565b91505092915050565b6000819050919050565b6117bd816117aa565b81146117c857600080fd5b50565b6000813590506117da816117b4565b92915050565b6000806000606084860312156117f9576117f8611574565b5b600084013567ffffffffffffffff81111561181757611816611579565b5b61182386828701611696565b935050602084013567ffffffffffffffff81111561184457611843611579565b5b6118508682870161177c565b9250506040611861868287016117cb565b9150509250925092565b60006020828403121561188157611880611574565b5b600082013567ffffffffffffffff81111561189f5761189e611579565b5b6118ab84828501611696565b91505092915050565b600080604083850312156118cb576118ca611574565b5b600083013567ffffffffffffffff8111156118e9576118e8611579565b5b6118f585828601611696565b9250506020611906858286016117cb565b9150509250929050565b600073ffffffffffffffffffffffffffffffffffffffff82169050919050565b600061193b82611910565b9050919050565b61194b81611930565b82525050565b60006020820190506119666000830184611942565b92915050565b60008060006060848603121561198557611984611574565b5b600084013567ffffffffffffffff8111156119a3576119a2611579565b5b6119af86828701611696565b935050602084013567ffffffffffffffff8111156119d0576119cf611579565b5b6119dc86828701611696565b92505060406119ed868287016117cb565b9150509250925092565b611a00816117aa565b82525050565b6000602082019050611a1b60008301846119f7565b92915050565b600081519050919050565b600082825260208201905092915050565b6000819050602082019050919050565b600081519050919050565b600082825260208201905092915050565b60005b83811015611a87578082015181840152602081019050611a6c565b83811115611a96576000848401525b50505050565b6000611aa782611a4d565b611ab18185611a58565b9350611ac1818560208601611a69565b611aca81611588565b840191505092915050565b6000611ae18383611a9c565b905092915050565b6000602082019050919050565b6000611b0182611a21565b611b0b8185611a2c565b935083602082028501611b1d85611a3d565b8060005b85811015611b595784840389528151611b3a8582611ad5565b9450611b4583611ae9565b925060208a01995050600181019050611b21565b50829750879550505050505092915050565b60006020820190508181036000830152611b858184611af6565b905092915050565b600060208284031215611ba357611ba2611574565b5b6000611bb1848285016117cb565b91505092915050565b600081905092915050565b6000611bd082611a4d565b611bda8185611bba565b9350611bea818560208601611a69565b80840191505092915050565b6000611c028284611bc5565b915081905092915050565b600082825260208201905092915050565b7f7472616e736665725f6661696c5f66726f6d5f6e616d655f6e6f745f6578697360008201527f7400000000000000000000000000000000000000000000000000000000000000602082015250565b6000611c7a602183611c0d565b9150611c8582611c1e565b604082019050919050565b60006020820190508181036000830152611ca981611c6d565b9050919050565b7f7472616e736665725f6661696c5f66726f6d5f6e6f745f6f776e657200000000600082015250565b6000611ce6601c83611c0d565b9150611cf182611cb0565b602082019050919050565b60006020820190508181036000830152611d1581611cd9565b9050919050565b7f7472616e736665725f6661696c5f76616c75655f6c6573735f7468616e5f313060008201527f3000000000000000000000000000000000000000000000000000000000000000602082015250565b6000611d78602183611c0d565b9150611d8382611d1c565b604082019050919050565b60006020820190508181036000830152611da781611d6b565b9050919050565b7f4e487b7100000000000000000000000000000000000000000000000000000000600052601160045260246000fd5b6000611de8826117aa565b9150611df3836117aa565b9250817fffffffffffffffffffffffffffffffffffffffffffffffffffffffffffffffff0483118215151615611e2c57611e2b611dae565b5b828202905092915050565b7f7472616e736665725f6661696c5f66726f6d5f62616c616e63655f6e6f745f6560008201527f6e6f756768000000000000000000000000000000000000000000000000000000602082015250565b6000611e93602583611c0d565b9150611e9e82611e37565b604082019050919050565b60006020820190508181036000830152611ec281611e86565b9050919050565b7f4e487b7100000000000000000000000000000000000000000000000000000000600052603260045260246000fd5b7f7472616e736665725f6661696c5f746f5f6e616d655f6e6f745f657869737400600082015250565b6000611f2e601f83611c0d565b9150611f3982611ef8565b602082019050919050565b60006020820190508181036000830152611f5d81611f21565b9050919050565b7f4e487b7100000000000000000000000000000000000000000000000000000000600052601260045260246000fd5b6000611f9e826117aa565b9150611fa9836117aa565b925082611fb957611fb8611f64565b5b828204905092915050565b6000611fcf826117aa565b9150611fda836117aa565b9250827fffffffffffffffffffffffffffffffffffffffffffffffffffffffffffffffff0382111561200f5761200e611dae565b5b828201905092915050565b6000612025826117aa565b9150612030836117aa565b92508282101561204357612042611dae565b5b828203905092915050565b600061205982611a4d565b6120638185611c0d565b9350612073818560208601611a69565b61207c81611588565b840191505092915050565b600060608201905081810360008301526120a1818661204e565b905081810360208301526120b5818561204e565b90506120c460408301846119f7565b949350505050565b60006120d7826117aa565b91507fffffffffffffffffffffffffffffffffffffffffffffffffffffffffffffffff820361210957612108611dae565b5b600182019050919050565b7f6164645f6163636f756e745f6661696c5f6e616d655f65786973740000000000600082015250565b600061214a601b83611c0d565b915061215582612114565b602082019050919050565b600060208201905081810360008301526121798161213d565b9050919050565b7f4e487b7100000000000000000000000000000000000000000000000000000000600052602260045260246000fd5b600060028204905060018216806121c757607f821691505b6020821081036121da576121d9612180565b5b50919050565b60008190508160005260206000209050919050565b60006020601f8301049050919050565b600082821b905092915050565b6000600883026122427fffffffffffffffffffffffffffffffffffffffffffffffffffffffffffffffff82612205565b61224c8683612205565b95508019841693508086168417925050509392505050565b6000819050919050565b600061228961228461227f846117aa565b612264565b6117aa565b9050919050565b6000819050919050565b6122a38361226e565b6122b76122af82612290565b848454612212565b825550505050565b600090565b6122cc6122bf565b6122d781848461229a565b505050565b5b818110156122fb576122f06000826122c4565b6001810190506122dd565b5050565b601f82111561234057612311816121e0565b61231a846121f5565b81016020851015612329578190505b61233d612335856121f5565b8301826122dc565b50505b505050565b600082821c905092915050565b600061236360001984600802612345565b1980831691505092915050565b600061237c8383612352565b9150826002028217905092915050565b61239582611a4d565b67ffffffffffffffff8111156123ae576123ad611599565b5b6123b882546121af565b6123c38282856122ff565b600060209050601f8311600181146123f657600084156123e4578287015190505b6123ee8582612370565b865550612456565b601f198416612404866121e0565b60005b8281101561242c57848901518255600182019150602085019450602081019050612407565b868310156124495784890151612445601f891682612352565b8355505b6001600288020188555050505b505050505050565b60006040820190506124736000830185611942565b8181036020830152612485818461204e565b90509392505050565b7f77697468647261776e5f6661696c5f6e616d655f6e6f745f6578697374000000600082015250565b60006124c4601d83611c0d565b91506124cf8261248e565b602082019050919050565b600060208201905081810360008301526124f3816124b7565b9050919050565b7f77697468647261776e5f6661696c5f6e6f745f6f776e65720000000000000000600082015250565b6000612530601883611c0d565b915061253b826124fa565b602082019050919050565b6000602082019050818103600083015261255f81612523565b9050919050565b7f77697468647261776e5f6661696c5f76616c75655f7a65726f00000000000000600082015250565b600061259c601983611c0d565b91506125a782612566565b602082019050919050565b600060208201905081810360008301526125cb8161258f565b9050919050565b7f77697468647261776e5f6661696c5f62616c616e63655f6e6f745f656e6f756760008201527f6800000000000000000000000000000000000000000000000000000000000000602082015250565b600061262e602183611c0d565b9150612639826125d2565b604082019050919050565b6000602082019050818103600083015261265d81612621565b9050919050565b6000606082019050818103600083015261267e818661204e565b905061268d6020830185611942565b61269a60408301846119f7565b949350505050565b7f6465706f7369745f6661696c5f6e616d655f6e6f745f65786973740000000000600082015250565b60006126d8601b83611c0d565b91506126e3826126a2565b602082019050919050565b60006020820190508181036000830152612707816126cb565b9050919050565b7f6465706f7369745f6661696c5f76616c75655f7a65726f000000000000000000600082015250565b6000612744601783611c0d565b915061274f8261270e565b602082019050919050565b6000602082019050818103600083015261277381612737565b9050919050565b600060608201905061278f6000830186611942565b81810360208301526127a1818561204e565b90506127b060408301846119f7565b94935050505056fea2646970667358221220cd0fa8a39277587c61f525c43ea54e0738f210133a28ac4d45d8090f05eab66064736f6c634300080f0033",
					"opcodes": "PUSH1 0x80 PUSH1 0x40 MSTORE CALLVALUE DUP1 ISZERO PUSH2 0x10 JUMPI PUSH1 0x0 DUP1 REVERT JUMPDEST POP CALLER PUSH1 0x0 DUP1 PUSH2 0x100 EXP DUP2 SLOAD DUP2 PUSH20 0xFFFFFFFFFFFFFFFFFFFFFFFFFFFFFFFFFFFFFFFF MUL NOT AND SWAP1 DUP4 PUSH20 0xFFFFFFFFFFFFFFFFFFFFFFFFFFFFFFFFFFFFFFFF AND MUL OR SWAP1 SSTORE POP PUSH1 0x0 PUSH1 0x1 DUP2 SWAP1 SSTORE POP PUSH2 0x27EE DUP1 PUSH2 0x68 PUSH1 0x0 CODECOPY PUSH1 0x0 RETURN INVALID PUSH1 0x80 PUSH1 0x40 MSTORE PUSH1 0x4 CALLDATASIZE LT PUSH2 0x9C JUMPI PUSH1 0x0 CALLDATALOAD PUSH1 0xE0 SHR DUP1 PUSH4 0x7B83B50B GT PUSH2 0x64 JUMPI DUP1 PUSH4 0x7B83B50B EQ PUSH2 0x182 JUMPI DUP1 PUSH4 0xA26E1186 EQ PUSH2 0x1AD JUMPI DUP1 PUSH4 0xA43E567A EQ PUSH2 0x1C9 JUMPI DUP1 PUSH4 0xB2277D2C EQ PUSH2 0x1F4 JUMPI DUP1 PUSH4 0xCA1AE01C EQ PUSH2 0x21F JUMPI DUP1 PUSH4 0xF8A0E8C3 EQ PUSH2 0x25C JUMPI PUSH2 0x9C JUMP JUMPDEST DUP1 PUSH4 0x16DFC5B2 EQ PUSH2 0xA1 JUMPI DUP1 PUSH4 0x2AD26A04 EQ PUSH2 0xCA JUMPI DUP1 PUSH4 0x358EECB6 EQ PUSH2 0xF3 JUMPI DUP1 PUSH4 0x4695BFE6 EQ PUSH2 0x11C JUMPI DUP1 PUSH4 0x5E345810 EQ PUSH2 0x159 JUMPI JUMPDEST PUSH1 0x0 DUP1 REVERT JUMPDEST CALLVALUE DUP1 ISZERO PUSH2 0xAD JUMPI PUSH1 0x0 DUP1 REVERT JUMPDEST POP PUSH2 0xC8 PUSH1 0x4 DUP1 CALLDATASIZE SUB DUP2 ADD SWAP1 PUSH2 0xC3 SWAP2 SWAP1 PUSH2 0x17E0 JUMP JUMPDEST PUSH2 0x285 JUMP JUMPDEST STOP JUMPDEST CALLVALUE DUP1 ISZERO PUSH2 0xD6 JUMPI PUSH1 0x0 DUP1 REVERT JUMPDEST POP PUSH2 0xF1 PUSH1 0x4 DUP1 CALLDATASIZE SUB DUP2 ADD SWAP1 PUSH2 0xEC SWAP2 SWAP1 PUSH2 0x186B JUMP JUMPDEST PUSH2 0x7DF JUMP JUMPDEST STOP JUMPDEST CALLVALUE DUP1 ISZERO PUSH2 0xFF JUMPI PUSH1 0x0 DUP1 REVERT JUMPDEST POP PUSH2 0x11A PUSH1 0x4 DUP1 CALLDATASIZE SUB DUP2 ADD SWAP1 PUSH2 0x115 SWAP2 SWAP1 PUSH2 0x18B4 JUMP JUMPDEST PUSH2 0x9F0 JUMP JUMPDEST STOP JUMPDEST CALLVALUE DUP1 ISZERO PUSH2 0x128 JUMPI PUSH1 0x0 DUP1 REVERT JUMPDEST POP PUSH2 0x143 PUSH1 0x4 DUP1 CALLDATASIZE SUB DUP2 ADD SWAP1 PUSH2 0x13E SWAP2 SWAP1 PUSH2 0x186B JUMP JUMPDEST PUSH2 0xC75 JUMP JUMPDEST PUSH1 0x40 MLOAD PUSH2 0x150 SWAP2 SWAP1 PUSH2 0x1951 JUMP JUMPDEST PUSH1 0x40 MLOAD DUP1 SWAP2 SUB SWAP1 RETURN JUMPDEST CALLVALUE DUP1 ISZERO PUSH2 0x165 JUMPI PUSH1 0x0 DUP1 REVERT JUMPDEST POP PUSH2 0x180 PUSH1 0x4 DUP1 CALLDATASIZE SUB DUP2 ADD SWAP1 PUSH2 0x17B SWAP2 SWAP1 PUSH2 0x196C JUMP JUMPDEST PUSH2 0xCC0 JUMP JUMPDEST STOP JUMPDEST CALLVALUE DUP1 ISZERO PUSH2 0x18E JUMPI PUSH1 0x0 DUP1 REVERT JUMPDEST POP PUSH2 0x197 PUSH2 0x1152 JUMP JUMPDEST PUSH1 0x40 MLOAD PUSH2 0x1A4 SWAP2 SWAP1 PUSH2 0x1A06 JUMP JUMPDEST PUSH1 0x40 MLOAD DUP1 SWAP2 SUB SWAP1 RETURN JUMPDEST PUSH2 0x1C7 PUSH1 0x4 DUP1 CALLDATASIZE SUB DUP2 ADD SWAP1 PUSH2 0x1C2 SWAP2 SWAP1 PUSH2 0x186B JUMP JUMPDEST PUSH2 0x115C JUMP JUMPDEST STOP JUMPDEST CALLVALUE DUP1 ISZERO PUSH2 0x1D5 JUMPI PUSH1 0x0 DUP1 REVERT JUMPDEST POP PUSH2 0x1DE PUSH2 0x1287 JUMP JUMPDEST PUSH1 0x40 MLOAD PUSH2 0x1EB SWAP2 SWAP1 PUSH2 0x1B6B JUMP JUMPDEST PUSH1 0x40 MLOAD DUP1 SWAP2 SUB SWAP1 RETURN JUMPDEST CALLVALUE DUP1 ISZERO PUSH2 0x200 JUMPI PUSH1 0x0 DUP1 REVERT JUMPDEST POP PUSH2 0x209 PUSH2 0x139D JUMP JUMPDEST PUSH1 0x40 MLOAD PUSH2 0x216 SWAP2 SWAP1 PUSH2 0x1951 JUMP JUMPDEST PUSH1 0x40 MLOAD DUP1 SWAP2 SUB SWAP1 RETURN JUMPDEST CALLVALUE DUP1 ISZERO PUSH2 0x22B JUMPI PUSH1 0x0 DUP1 REVERT JUMPDEST POP PUSH2 0x246 PUSH1 0x4 DUP1 CALLDATASIZE SUB DUP2 ADD SWAP1 PUSH2 0x241 SWAP2 SWAP1 PUSH2 0x186B JUMP JUMPDEST PUSH2 0x13C6 JUMP JUMPDEST PUSH1 0x40 MLOAD PUSH2 0x253 SWAP2 SWAP1 PUSH2 0x1A06 JUMP JUMPDEST PUSH1 0x40 MLOAD DUP1 SWAP2 SUB SWAP1 RETURN JUMPDEST CALLVALUE DUP1 ISZERO PUSH2 0x268 JUMPI PUSH1 0x0 DUP1 REVERT JUMPDEST POP PUSH2 0x283 PUSH1 0x4 DUP1 CALLDATASIZE SUB DUP2 ADD SWAP1 PUSH2 0x27E SWAP2 SWAP1 PUSH2 0x1B8D JUMP JUMPDEST PUSH2 0x13F1 JUMP JUMPDEST STOP JUMPDEST PUSH1 0x1 ISZERO ISZERO PUSH1 0x4 DUP5 PUSH1 0x40 MLOAD PUSH2 0x299 SWAP2 SWAP1 PUSH2 0x1BF6 JUMP JUMPDEST SWAP1 DUP2 MSTORE PUSH1 0x20 ADD PUSH1 0x40 MLOAD DUP1 SWAP2 SUB SWAP1 KECCAK256 PUSH1 0x0 SWAP1 SLOAD SWAP1 PUSH2 0x100 EXP SWAP1 DIV PUSH1 0xFF AND ISZERO ISZERO EQ PUSH2 0x2F7 JUMPI PUSH1 0x40 MLOAD PUSH32 0x8C379A000000000000000000000000000000000000000000000000000000000 DUP2 MSTORE PUSH1 0x4 ADD PUSH2 0x2EE SWAP1 PUSH2 0x1C90 JUMP JUMPDEST PUSH1 0x40 MLOAD DUP1 SWAP2 SUB SWAP1 REVERT JUMPDEST CALLER PUSH20 0xFFFFFFFFFFFFFFFFFFFFFFFFFFFFFFFFFFFFFFFF AND PUSH1 0x3 DUP5 PUSH1 0x40 MLOAD PUSH2 0x31E SWAP2 SWAP1 PUSH2 0x1BF6 JUMP JUMPDEST SWAP1 DUP2 MSTORE PUSH1 0x20 ADD PUSH1 0x40 MLOAD DUP1 SWAP2 SUB SWAP1 KECCAK256 PUSH1 0x0 ADD PUSH1 0x0 SWAP1 SLOAD SWAP1 PUSH2 0x100 EXP SWAP1 DIV PUSH20 0xFFFFFFFFFFFFFFFFFFFFFFFFFFFFFFFFFFFFFFFF AND PUSH20 0xFFFFFFFFFFFFFFFFFFFFFFFFFFFFFFFFFFFFFFFF AND EQ PUSH2 0x3A6 JUMPI PUSH1 0x40 MLOAD PUSH32 0x8C379A000000000000000000000000000000000000000000000000000000000 DUP2 MSTORE PUSH1 0x4 ADD PUSH2 0x39D SWAP1 PUSH2 0x1CFC JUMP JUMPDEST PUSH1 0x40 MLOAD DUP1 SWAP2 SUB SWAP1 REVERT JUMPDEST PUSH1 0x64 DUP2 LT ISZERO PUSH2 0x3EA JUMPI PUSH1 0x40 MLOAD PUSH32 0x8C379A000000000000000000000000000000000000000000000000000000000 DUP2 MSTORE PUSH1 0x4 ADD PUSH2 0x3E1 SWAP1 PUSH2 0x1D8E JUMP JUMPDEST PUSH1 0x40 MLOAD DUP1 SWAP2 SUB SWAP1 REVERT JUMPDEST DUP2 MLOAD DUP2 PUSH2 0x3F7 SWAP2 SWAP1 PUSH2 0x1DDD JUMP JUMPDEST PUSH1 0x3 DUP5 PUSH1 0x40 MLOAD PUSH2 0x407 SWAP2 SWAP1 PUSH2 0x1BF6 JUMP JUMPDEST SWAP1 DUP2 MSTORE PUSH1 0x20 ADD PUSH1 0x40 MLOAD DUP1 SWAP2 SUB SWAP1 KECCAK256 PUSH1 0x2 ADD SLOAD LT ISZERO PUSH2 0x45A JUMPI PUSH1 0x40 MLOAD PUSH32 0x8C379A000000000000000000000000000000000000000000000000000000000 DUP2 MSTORE PUSH1 0x4 ADD PUSH2 0x451 SWAP1 PUSH2 0x1EA9 JUMP JUMPDEST PUSH1 0x40 MLOAD DUP1 SWAP2 SUB SWAP1 REVERT JUMPDEST PUSH1 0x0 JUMPDEST DUP3 MLOAD DUP2 LT ISZERO PUSH2 0x7D9 JUMPI PUSH1 0x1 ISZERO ISZERO PUSH1 0x4 DUP5 DUP4 DUP2 MLOAD DUP2 LT PUSH2 0x47F JUMPI PUSH2 0x47E PUSH2 0x1EC9 JUMP JUMPDEST JUMPDEST PUSH1 0x20 MUL PUSH1 0x20 ADD ADD MLOAD PUSH1 0x40 MLOAD PUSH2 0x494 SWAP2 SWAP1 PUSH2 0x1BF6 JUMP JUMPDEST SWAP1 DUP2 MSTORE PUSH1 0x20 ADD PUSH1 0x40 MLOAD DUP1 SWAP2 SUB SWAP1 KECCAK256 PUSH1 0x0 SWAP1 SLOAD SWAP1 PUSH2 0x100 EXP SWAP1 DIV PUSH1 0xFF AND ISZERO ISZERO EQ PUSH2 0x4F2 JUMPI PUSH1 0x40 MLOAD PUSH32 0x8C379A000000000000000000000000000000000000000000000000000000000 DUP2 MSTORE PUSH1 0x4 ADD PUSH2 0x4E9 SWAP1 PUSH2 0x1F44 JUMP JUMPDEST PUSH1 0x40 MLOAD DUP1 SWAP2 SUB SWAP1 REVERT JUMPDEST PUSH1 0x3 DUP4 DUP3 DUP2 MLOAD DUP2 LT PUSH2 0x507 JUMPI PUSH2 0x506 PUSH2 0x1EC9 JUMP JUMPDEST JUMPDEST PUSH1 0x20 MUL PUSH1 0x20 ADD ADD MLOAD PUSH1 0x40 MLOAD PUSH2 0x51C SWAP2 SWAP1 PUSH2 0x1BF6 JUMP JUMPDEST SWAP1 DUP2 MSTORE PUSH1 0x20 ADD PUSH1 0x40 MLOAD DUP1 SWAP2 SUB SWAP1 KECCAK256 PUSH1 0x0 ADD PUSH1 0x0 SWAP1 SLOAD SWAP1 PUSH2 0x100 EXP SWAP1 DIV PUSH20 0xFFFFFFFFFFFFFFFFFFFFFFFFFFFFFFFFFFFFFFFF AND PUSH20 0xFFFFFFFFFFFFFFFFFFFFFFFFFFFFFFFFFFFFFFFF AND PUSH1 0x3 DUP6 PUSH1 0x40 MLOAD PUSH2 0x574 SWAP2 SWAP1 PUSH2 0x1BF6 JUMP JUMPDEST SWAP1 DUP2 MSTORE PUSH1 0x20 ADD PUSH1 0x40 MLOAD DUP1 SWAP2 SUB SWAP1 KECCAK256 PUSH1 0x0 ADD PUSH1 0x0 SWAP1 SLOAD SWAP1 PUSH2 0x100 EXP SWAP1 DIV PUSH20 0xFFFFFFFFFFFFFFFFFFFFFFFFFFFFFFFFFFFFFFFF AND PUSH20 0xFFFFFFFFFFFFFFFFFFFFFFFFFFFFFFFFFFFFFFFF AND EQ PUSH2 0x6E6 JUMPI PUSH1 0x0 PUSH1 0x64 DUP4 PUSH2 0x5D0 SWAP2 SWAP1 PUSH2 0x1F93 JUMP JUMPDEST SWAP1 POP DUP1 PUSH1 0x1 PUSH1 0x0 DUP3 DUP3 SLOAD PUSH2 0x5E4 SWAP2 SWAP1 PUSH2 0x1FC4 JUMP JUMPDEST SWAP3 POP POP DUP2 SWAP1 SSTORE POP DUP3 PUSH1 0x3 DUP7 PUSH1 0x40 MLOAD PUSH2 0x5FC SWAP2 SWAP1 PUSH2 0x1BF6 JUMP JUMPDEST SWAP1 DUP2 MSTORE PUSH1 0x20 ADD PUSH1 0x40 MLOAD DUP1 SWAP2 SUB SWAP1 KECCAK256 PUSH1 0x2 ADD PUSH1 0x0 DUP3 DUP3 SLOAD PUSH2 0x61C SWAP2 SWAP1 PUSH2 0x201A JUMP JUMPDEST SWAP3 POP POP DUP2 SWAP1 SSTORE POP DUP1 DUP4 PUSH2 0x62F SWAP2 SWAP1 PUSH2 0x201A JUMP JUMPDEST PUSH1 0x3 DUP6 DUP5 DUP2 MLOAD DUP2 LT PUSH2 0x644 JUMPI PUSH2 0x643 PUSH2 0x1EC9 JUMP JUMPDEST JUMPDEST PUSH1 0x20 MUL PUSH1 0x20 ADD ADD MLOAD PUSH1 0x40 MLOAD PUSH2 0x659 SWAP2 SWAP1 PUSH2 0x1BF6 JUMP JUMPDEST SWAP1 DUP2 MSTORE PUSH1 0x20 ADD PUSH1 0x40 MLOAD DUP1 SWAP2 SUB SWAP1 KECCAK256 PUSH1 0x2 ADD PUSH1 0x0 DUP3 DUP3 SLOAD PUSH2 0x679 SWAP2 SWAP1 PUSH2 0x1FC4 JUMP JUMPDEST SWAP3 POP POP DUP2 SWAP1 SSTORE POP PUSH32 0x370044A47246AFACF081FD58C8468A6482EBC8673D418E785B8D0492240F95DE DUP6 DUP6 DUP5 DUP2 MLOAD DUP2 LT PUSH2 0x6B5 JUMPI PUSH2 0x6B4 PUSH2 0x1EC9 JUMP JUMPDEST JUMPDEST PUSH1 0x20 MUL PUSH1 0x20 ADD ADD MLOAD DUP4 DUP7 PUSH2 0x6C9 SWAP2 SWAP1 PUSH2 0x201A JUMP JUMPDEST PUSH1 0x40 MLOAD PUSH2 0x6D8 SWAP4 SWAP3 SWAP2 SWAP1 PUSH2 0x2087 JUMP JUMPDEST PUSH1 0x40 MLOAD DUP1 SWAP2 SUB SWAP1 LOG1 POP PUSH2 0x7C6 JUMP JUMPDEST DUP2 PUSH1 0x3 DUP6 PUSH1 0x40 MLOAD PUSH2 0x6F7 SWAP2 SWAP1 PUSH2 0x1BF6 JUMP JUMPDEST SWAP1 DUP2 MSTORE PUSH1 0x20 ADD PUSH1 0x40 MLOAD DUP1 SWAP2 SUB SWAP1 KECCAK256 PUSH1 0x2 ADD PUSH1 0x0 DUP3 DUP3 SLOAD PUSH2 0x717 SWAP2 SWAP1 PUSH2 0x201A JUMP JUMPDEST SWAP3 POP POP DUP2 SWAP1 SSTORE POP DUP2 PUSH1 0x3 DUP5 DUP4 DUP2 MLOAD DUP2 LT PUSH2 0x734 JUMPI PUSH2 0x733 PUSH2 0x1EC9 JUMP JUMPDEST JUMPDEST PUSH1 0x20 MUL PUSH1 0x20 ADD ADD MLOAD PUSH1 0x40 MLOAD PUSH2 0x749 SWAP2 SWAP1 PUSH2 0x1BF6 JUMP JUMPDEST SWAP1 DUP2 MSTORE PUSH1 0x20 ADD PUSH1 0x40 MLOAD DUP1 SWAP2 SUB SWAP1 KECCAK256 PUSH1 0x2 ADD PUSH1 0x0 DUP3 DUP3 SLOAD PUSH2 0x769 SWAP2 SWAP1 PUSH2 0x1FC4 JUMP JUMPDEST SWAP3 POP POP DUP2 SWAP1 SSTORE POP PUSH32 0x370044A47246AFACF081FD58C8468A6482EBC8673D418E785B8D0492240F95DE DUP5 DUP5 DUP4 DUP2 MLOAD DUP2 LT PUSH2 0x7A5 JUMPI PUSH2 0x7A4 PUSH2 0x1EC9 JUMP JUMPDEST JUMPDEST PUSH1 0x20 MUL PUSH1 0x20 ADD ADD MLOAD DUP5 PUSH1 0x40 MLOAD PUSH2 0x7BD SWAP4 SWAP3 SWAP2 SWAP1 PUSH2 0x2087 JUMP JUMPDEST PUSH1 0x40 MLOAD DUP1 SWAP2 SUB SWAP1 LOG1 JUMPDEST DUP1 DUP1 PUSH2 0x7D1 SWAP1 PUSH2 0x20CC JUMP JUMPDEST SWAP2 POP POP PUSH2 0x45D JUMP JUMPDEST POP POP POP POP JUMP JUMPDEST PUSH1 0x0 ISZERO ISZERO PUSH1 0x4 DUP3 PUSH1 0x40 MLOAD PUSH2 0x7F3 SWAP2 SWAP1 PUSH2 0x1BF6 JUMP JUMPDEST SWAP1 DUP2 MSTORE PUSH1 0x20 ADD PUSH1 0x40 MLOAD DUP1 SWAP2 SUB SWAP1 KECCAK256 PUSH1 0x0 SWAP1 SLOAD SWAP1 PUSH2 0x100 EXP SWAP1 DIV PUSH1 0xFF AND ISZERO ISZERO EQ PUSH2 0x851 JUMPI PUSH1 0x40 MLOAD PUSH32 0x8C379A000000000000000000000000000000000000000000000000000000000 DUP2 MSTORE PUSH1 0x4 ADD PUSH2 0x848 SWAP1 PUSH2 0x2160 JUMP JUMPDEST PUSH1 0x40 MLOAD DUP1 SWAP2 SUB SWAP1 REVERT JUMPDEST PUSH1 0x40 MLOAD DUP1 PUSH1 0x60 ADD PUSH1 0x40 MSTORE DUP1 CALLER PUSH20 0xFFFFFFFFFFFFFFFFFFFFFFFFFFFFFFFFFFFFFFFF AND DUP2 MSTORE PUSH1 0x20 ADD DUP3 DUP2 MSTORE PUSH1 0x20 ADD PUSH1 0x0 DUP2 MSTORE POP PUSH1 0x3 DUP3 PUSH1 0x40 MLOAD PUSH2 0x893 SWAP2 SWAP1 PUSH2 0x1BF6 JUMP JUMPDEST SWAP1 DUP2 MSTORE PUSH1 0x20 ADD PUSH1 0x40 MLOAD DUP1 SWAP2 SUB SWAP1 KECCAK256 PUSH1 0x0 DUP3 ADD MLOAD DUP2 PUSH1 0x0 ADD PUSH1 0x0 PUSH2 0x100 EXP DUP2 SLOAD DUP2 PUSH20 0xFFFFFFFFFFFFFFFFFFFFFFFFFFFFFFFFFFFFFFFF MUL NOT AND SWAP1 DUP4 PUSH20 0xFFFFFFFFFFFFFFFFFFFFFFFFFFFFFFFFFFFFFFFF AND MUL OR SWAP1 SSTORE POP PUSH1 0x20 DUP3 ADD MLOAD DUP2 PUSH1 0x1 ADD SWAP1 DUP2 PUSH2 0x8FD SWAP2 SWAP1 PUSH2 0x238C JUMP JUMPDEST POP PUSH1 0x40 DUP3 ADD MLOAD DUP2 PUSH1 0x2 ADD SSTORE SWAP1 POP POP PUSH1 0x2 PUSH1 0x0 CALLER PUSH20 0xFFFFFFFFFFFFFFFFFFFFFFFFFFFFFFFFFFFFFFFF AND PUSH20 0xFFFFFFFFFFFFFFFFFFFFFFFFFFFFFFFFFFFFFFFF AND DUP2 MSTORE PUSH1 0x20 ADD SWAP1 DUP2 MSTORE PUSH1 0x20 ADD PUSH1 0x0 KECCAK256 DUP2 SWAP1 DUP1 PUSH1 0x1 DUP2 SLOAD ADD DUP1 DUP3 SSTORE DUP1 SWAP2 POP POP PUSH1 0x1 SWAP1 SUB SWAP1 PUSH1 0x0 MSTORE PUSH1 0x20 PUSH1 0x0 KECCAK256 ADD PUSH1 0x0 SWAP1 SWAP2 SWAP1 SWAP2 SWAP1 SWAP2 POP SWAP1 DUP2 PUSH2 0x97C SWAP2 SWAP1 PUSH2 0x238C JUMP JUMPDEST POP PUSH1 0x1 PUSH1 0x4 DUP3 PUSH1 0x40 MLOAD PUSH2 0x98F SWAP2 SWAP1 PUSH2 0x1BF6 JUMP JUMPDEST SWAP1 DUP2 MSTORE PUSH1 0x20 ADD PUSH1 0x40 MLOAD DUP1 SWAP2 SUB SWAP1 KECCAK256 PUSH1 0x0 PUSH2 0x100 EXP DUP2 SLOAD DUP2 PUSH1 0xFF MUL NOT AND SWAP1 DUP4 ISZERO ISZERO MUL OR SWAP1 SSTORE POP PUSH32 0xB4833C10B628B390DD18880F97A54F11EAE38C84EB68171F9A11B0FD7855FADF CALLER DUP3 PUSH1 0x40 MLOAD PUSH2 0x9E5 SWAP3 SWAP2 SWAP1 PUSH2 0x245E JUMP JUMPDEST PUSH1 0x40 MLOAD DUP1 SWAP2 SUB SWAP1 LOG1 POP JUMP JUMPDEST PUSH1 0x1 ISZERO ISZERO PUSH1 0x4 DUP4 PUSH1 0x40 MLOAD PUSH2 0xA04 SWAP2 SWAP1 PUSH2 0x1BF6 JUMP JUMPDEST SWAP1 DUP2 MSTORE PUSH1 0x20 ADD PUSH1 0x40 MLOAD DUP1 SWAP2 SUB SWAP1 KECCAK256 PUSH1 0x0 SWAP1 SLOAD SWAP1 PUSH2 0x100 EXP SWAP1 DIV PUSH1 0xFF AND ISZERO ISZERO EQ PUSH2 0xA62 JUMPI PUSH1 0x40 MLOAD PUSH32 0x8C379A000000000000000000000000000000000000000000000000000000000 DUP2 MSTORE PUSH1 0x4 ADD PUSH2 0xA59 SWAP1 PUSH2 0x24DA JUMP JUMPDEST PUSH1 0x40 MLOAD DUP1 SWAP2 SUB SWAP1 REVERT JUMPDEST CALLER PUSH20 0xFFFFFFFFFFFFFFFFFFFFFFFFFFFFFFFFFFFFFFFF AND PUSH1 0x3 DUP4 PUSH1 0x40 MLOAD PUSH2 0xA89 SWAP2 SWAP1 PUSH2 0x1BF6 JUMP JUMPDEST SWAP1 DUP2 MSTORE PUSH1 0x20 ADD PUSH1 0x40 MLOAD DUP1 SWAP2 SUB SWAP1 KECCAK256 PUSH1 0x0 ADD PUSH1 0x0 SWAP1 SLOAD SWAP1 PUSH2 0x100 EXP SWAP1 DIV PUSH20 0xFFFFFFFFFFFFFFFFFFFFFFFFFFFFFFFFFFFFFFFF AND PUSH20 0xFFFFFFFFFFFFFFFFFFFFFFFFFFFFFFFFFFFFFFFF AND EQ PUSH2 0xB11 JUMPI PUSH1 0x40 MLOAD PUSH32 0x8C379A000000000000000000000000000000000000000000000000000000000 DUP2 MSTORE PUSH1 0x4 ADD PUSH2 0xB08 SWAP1 PUSH2 0x2546 JUMP JUMPDEST PUSH1 0x40 MLOAD DUP1 SWAP2 SUB SWAP1 REVERT JUMPDEST PUSH1 0x0 DUP2 GT PUSH2 0xB54 JUMPI PUSH1 0x40 MLOAD PUSH32 0x8C379A000000000000000000000000000000000000000000000000000000000 DUP2 MSTORE PUSH1 0x4 ADD PUSH2 0xB4B SWAP1 PUSH2 0x25B2 JUMP JUMPDEST PUSH1 0x40 MLOAD DUP1 SWAP2 SUB SWAP1 REVERT JUMPDEST DUP1 PUSH1 0x3 DUP4 PUSH1 0x40 MLOAD PUSH2 0xB65 SWAP2 SWAP1 PUSH2 0x1BF6 JUMP JUMPDEST SWAP1 DUP2 MSTORE PUSH1 0x20 ADD PUSH1 0x40 MLOAD DUP1 SWAP2 SUB SWAP1 KECCAK256 PUSH1 0x2 ADD SLOAD LT ISZERO PUSH2 0xBB8 JUMPI PUSH1 0x40 MLOAD PUSH32 0x8C379A000000000000000000000000000000000000000000000000000000000 DUP2 MSTORE PUSH1 0x4 ADD PUSH2 0xBAF SWAP1 PUSH2 0x2644 JUMP JUMPDEST PUSH1 0x40 MLOAD DUP1 SWAP2 SUB SWAP1 REVERT JUMPDEST DUP1 PUSH1 0x3 DUP4 PUSH1 0x40 MLOAD PUSH2 0xBC9 SWAP2 SWAP1 PUSH2 0x1BF6 JUMP JUMPDEST SWAP1 DUP2 MSTORE PUSH1 0x20 ADD PUSH1 0x40 MLOAD DUP1 SWAP2 SUB SWAP1 KECCAK256 PUSH1 0x2 ADD PUSH1 0x0 DUP3 DUP3 SLOAD PUSH2 0xBE9 SWAP2 SWAP1 PUSH2 0x201A JUMP JUMPDEST SWAP3 POP POP DUP2 SWAP1 SSTORE POP CALLER PUSH20 0xFFFFFFFFFFFFFFFFFFFFFFFFFFFFFFFFFFFFFFFF AND PUSH2 0x8FC DUP3 SWAP1 DUP2 ISZERO MUL SWAP1 PUSH1 0x40 MLOAD PUSH1 0x0 PUSH1 0x40 MLOAD DUP1 DUP4 SUB DUP2 DUP6 DUP9 DUP9 CALL SWAP4 POP POP POP POP ISZERO DUP1 ISZERO PUSH2 0xC36 JUMPI RETURNDATASIZE PUSH1 0x0 DUP1 RETURNDATACOPY RETURNDATASIZE PUSH1 0x0 REVERT JUMPDEST POP PUSH31 0xF571BB39287F8941696401F5B5A1666EE251EFBF23412140FBDDCE841655D9 DUP3 CALLER DUP4 PUSH1 0x40 MLOAD PUSH2 0xC69 SWAP4 SWAP3 SWAP2 SWAP1 PUSH2 0x2664 JUMP JUMPDEST PUSH1 0x40 MLOAD DUP1 SWAP2 SUB SWAP1 LOG1 POP POP JUMP JUMPDEST PUSH1 0x0 PUSH1 0x3 DUP3 PUSH1 0x40 MLOAD PUSH2 0xC87 SWAP2 SWAP1 PUSH2 0x1BF6 JUMP JUMPDEST SWAP1 DUP2 MSTORE PUSH1 0x20 ADD PUSH1 0x40 MLOAD DUP1 SWAP2 SUB SWAP1 KECCAK256 PUSH1 0x0 ADD PUSH1 0x0 SWAP1 SLOAD SWAP1 PUSH2 0x100 EXP SWAP1 DIV PUSH20 0xFFFFFFFFFFFFFFFFFFFFFFFFFFFFFFFFFFFFFFFF AND SWAP1 POP SWAP2 SWAP1 POP JUMP JUMPDEST PUSH1 0x1 ISZERO ISZERO PUSH1 0x4 DUP5 PUSH1 0x40 MLOAD PUSH2 0xCD4 SWAP2 SWAP1 PUSH2 0x1BF6 JUMP JUMPDEST SWAP1 DUP2 MSTORE PUSH1 0x20 ADD PUSH1 0x40 MLOAD DUP1 SWAP2 SUB SWAP1 KECCAK256 PUSH1 0x0 SWAP1 SLOAD SWAP1 PUSH2 0x100 EXP SWAP1 DIV PUSH1 0xFF AND ISZERO ISZERO EQ PUSH2 0xD32 JUMPI PUSH1 0x40 MLOAD PUSH32 0x8C379A000000000000000000000000000000000000000000000000000000000 DUP2 MSTORE PUSH1 0x4 ADD PUSH2 0xD29 SWAP1 PUSH2 0x1C90 JUMP JUMPDEST PUSH1 0x40 MLOAD DUP1 SWAP2 SUB SWAP1 REVERT JUMPDEST PUSH1 0x1 ISZERO ISZERO PUSH1 0x4 DUP4 PUSH1 0x40 MLOAD PUSH2 0xD46 SWAP2 SWAP1 PUSH2 0x1BF6 JUMP JUMPDEST SWAP1 DUP2 MSTORE PUSH1 0x20 ADD PUSH1 0x40 MLOAD DUP1 SWAP2 SUB SWAP1 KECCAK256 PUSH1 0x0 SWAP1 SLOAD SWAP1 PUSH2 0x100 EXP SWAP1 DIV PUSH1 0xFF AND ISZERO ISZERO EQ PUSH2 0xDA4 JUMPI PUSH1 0x40 MLOAD PUSH32 0x8C379A000000000000000000000000000000000000000000000000000000000 DUP2 MSTORE PUSH1 0x4 ADD PUSH2 0xD9B SWAP1 PUSH2 0x1F44 JUMP JUMPDEST PUSH1 0x40 MLOAD DUP1 SWAP2 SUB SWAP1 REVERT JUMPDEST CALLER PUSH20 0xFFFFFFFFFFFFFFFFFFFFFFFFFFFFFFFFFFFFFFFF AND PUSH1 0x3 DUP5 PUSH1 0x40 MLOAD PUSH2 0xDCB SWAP2 SWAP1 PUSH2 0x1BF6 JUMP JUMPDEST SWAP1 DUP2 MSTORE PUSH1 0x20 ADD PUSH1 0x40 MLOAD DUP1 SWAP2 SUB SWAP1 KECCAK256 PUSH1 0x0 ADD PUSH1 0x0 SWAP1 SLOAD SWAP1 PUSH2 0x100 EXP SWAP1 DIV PUSH20 0xFFFFFFFFFFFFFFFFFFFFFFFFFFFFFFFFFFFFFFFF AND PUSH20 0xFFFFFFFFFFFFFFFFFFFFFFFFFFFFFFFFFFFFFFFF AND EQ PUSH2 0xE53 JUMPI PUSH1 0x40 MLOAD PUSH32 0x8C379A000000000000000000000000000000000000000000000000000000000 DUP2 MSTORE PUSH1 0x4 ADD PUSH2 0xE4A SWAP1 PUSH2 0x1CFC JUMP JUMPDEST PUSH1 0x40 MLOAD DUP1 SWAP2 SUB SWAP1 REVERT JUMPDEST PUSH1 0x64 DUP2 LT ISZERO PUSH2 0xE97 JUMPI PUSH1 0x40 MLOAD PUSH32 0x8C379A000000000000000000000000000000000000000000000000000000000 DUP2 MSTORE PUSH1 0x4 ADD PUSH2 0xE8E SWAP1 PUSH2 0x1D8E JUMP JUMPDEST PUSH1 0x40 MLOAD DUP1 SWAP2 SUB SWAP1 REVERT JUMPDEST DUP1 PUSH1 0x3 DUP5 PUSH1 0x40 MLOAD PUSH2 0xEA8 SWAP2 SWAP1 PUSH2 0x1BF6 JUMP JUMPDEST SWAP1 DUP2 MSTORE PUSH1 0x20 ADD PUSH1 0x40 MLOAD DUP1 SWAP2 SUB SWAP1 KECCAK256 PUSH1 0x2 ADD SLOAD LT ISZERO PUSH2 0xEFB JUMPI PUSH1 0x40 MLOAD PUSH32 0x8C379A000000000000000000000000000000000000000000000000000000000 DUP2 MSTORE PUSH1 0x4 ADD PUSH2 0xEF2 SWAP1 PUSH2 0x1EA9 JUMP JUMPDEST PUSH1 0x40 MLOAD DUP1 SWAP2 SUB SWAP1 REVERT JUMPDEST PUSH1 0x3 DUP3 PUSH1 0x40 MLOAD PUSH2 0xF0B SWAP2 SWAP1 PUSH2 0x1BF6 JUMP JUMPDEST SWAP1 DUP2 MSTORE PUSH1 0x20 ADD PUSH1 0x40 MLOAD DUP1 SWAP2 SUB SWAP1 KECCAK256 PUSH1 0x0 ADD PUSH1 0x0 SWAP1 SLOAD SWAP1 PUSH2 0x100 EXP SWAP1 DIV PUSH20 0xFFFFFFFFFFFFFFFFFFFFFFFFFFFFFFFFFFFFFFFF AND PUSH20 0xFFFFFFFFFFFFFFFFFFFFFFFFFFFFFFFFFFFFFFFF AND PUSH1 0x3 DUP5 PUSH1 0x40 MLOAD PUSH2 0xF63 SWAP2 SWAP1 PUSH2 0x1BF6 JUMP JUMPDEST SWAP1 DUP2 MSTORE PUSH1 0x20 ADD PUSH1 0x40 MLOAD DUP1 SWAP2 SUB SWAP1 KECCAK256 PUSH1 0x0 ADD PUSH1 0x0 SWAP1 SLOAD SWAP1 PUSH2 0x100 EXP SWAP1 DIV PUSH20 0xFFFFFFFFFFFFFFFFFFFFFFFFFFFFFFFFFFFFFFFF AND PUSH20 0xFFFFFFFFFFFFFFFFFFFFFFFFFFFFFFFFFFFFFFFF AND EQ PUSH2 0x10A1 JUMPI PUSH1 0x0 PUSH1 0x64 DUP3 PUSH2 0xFBF SWAP2 SWAP1 PUSH2 0x1F93 JUMP JUMPDEST SWAP1 POP DUP1 PUSH1 0x1 PUSH1 0x0 DUP3 DUP3 SLOAD PUSH2 0xFD3 SWAP2 SWAP1 PUSH2 0x1FC4 JUMP JUMPDEST SWAP3 POP POP DUP2 SWAP1 SSTORE POP DUP2 PUSH1 0x3 DUP6 PUSH1 0x40 MLOAD PUSH2 0xFEB SWAP2 SWAP1 PUSH2 0x1BF6 JUMP JUMPDEST SWAP1 DUP2 MSTORE PUSH1 0x20 ADD PUSH1 0x40 MLOAD DUP1 SWAP2 SUB SWAP1 KECCAK256 PUSH1 0x2 ADD PUSH1 0x0 DUP3 DUP3 SLOAD PUSH2 0x100B SWAP2 SWAP1 PUSH2 0x201A JUMP JUMPDEST SWAP3 POP POP DUP2 SWAP1 SSTORE POP DUP1 DUP3 PUSH2 0x101E SWAP2 SWAP1 PUSH2 0x201A JUMP JUMPDEST PUSH1 0x3 DUP5 PUSH1 0x40 MLOAD PUSH2 0x102E SWAP2 SWAP1 PUSH2 0x1BF6 JUMP JUMPDEST SWAP1 DUP2 MSTORE PUSH1 0x20 ADD PUSH1 0x40 MLOAD DUP1 SWAP2 SUB SWAP1 KECCAK256 PUSH1 0x2 ADD PUSH1 0x0 DUP3 DUP3 SLOAD PUSH2 0x104E SWAP2 SWAP1 PUSH2 0x1FC4 JUMP JUMPDEST SWAP3 POP POP DUP2 SWAP1 SSTORE POP PUSH32 0x370044A47246AFACF081FD58C8468A6482EBC8673D418E785B8D0492240F95DE DUP5 DUP5 DUP4 DUP6 PUSH2 0x1084 SWAP2 SWAP1 PUSH2 0x201A JUMP JUMPDEST PUSH1 0x40 MLOAD PUSH2 0x1093 SWAP4 SWAP3 SWAP2 SWAP1 PUSH2 0x2087 JUMP JUMPDEST PUSH1 0x40 MLOAD DUP1 SWAP2 SUB SWAP1 LOG1 POP PUSH2 0x114D JUMP JUMPDEST DUP1 PUSH1 0x3 DUP5 PUSH1 0x40 MLOAD PUSH2 0x10B2 SWAP2 SWAP1 PUSH2 0x1BF6 JUMP JUMPDEST SWAP1 DUP2 MSTORE PUSH1 0x20 ADD PUSH1 0x40 MLOAD DUP1 SWAP2 SUB SWAP1 KECCAK256 PUSH1 0x2 ADD PUSH1 0x0 DUP3 DUP3 SLOAD PUSH2 0x10D2 SWAP2 SWAP1 PUSH2 0x201A JUMP JUMPDEST SWAP3 POP POP DUP2 SWAP1 SSTORE POP DUP1 PUSH1 0x3 DUP4 PUSH1 0x40 MLOAD PUSH2 0x10EA SWAP2 SWAP1 PUSH2 0x1BF6 JUMP JUMPDEST SWAP1 DUP2 MSTORE PUSH1 0x20 ADD PUSH1 0x40 MLOAD DUP1 SWAP2 SUB SWAP1 KECCAK256 PUSH1 0x2 ADD PUSH1 0x0 DUP3 DUP3 SLOAD PUSH2 0x110A SWAP2 SWAP1 PUSH2 0x1FC4 JUMP JUMPDEST SWAP3 POP POP DUP2 SWAP1 SSTORE POP PUSH32 0x370044A47246AFACF081FD58C8468A6482EBC8673D418E785B8D0492240F95DE DUP4 DUP4 DUP4 PUSH1 0x40 MLOAD PUSH2 0x1144 SWAP4 SWAP3 SWAP2 SWAP1 PUSH2 0x2087 JUMP JUMPDEST PUSH1 0x40 MLOAD DUP1 SWAP2 SUB SWAP1 LOG1 JUMPDEST POP POP POP JUMP JUMPDEST PUSH1 0x0 PUSH1 0x1 SLOAD SWAP1 POP SWAP1 JUMP JUMPDEST PUSH1 0x1 ISZERO ISZERO PUSH1 0x4 DUP3 PUSH1 0x40 MLOAD PUSH2 0x1170 SWAP2 SWAP1 PUSH2 0x1BF6 JUMP JUMPDEST SWAP1 DUP2 MSTORE PUSH1 0x20 ADD PUSH1 0x40 MLOAD DUP1 SWAP2 SUB SWAP1 KECCAK256 PUSH1 0x0 SWAP1 SLOAD SWAP1 PUSH2 0x100 EXP SWAP1 DIV PUSH1 0xFF AND ISZERO ISZERO EQ PUSH2 0x11CE JUMPI PUSH1 0x40 MLOAD PUSH32 0x8C379A000000000000000000000000000000000000000000000000000000000 DUP2 MSTORE PUSH1 0x4 ADD PUSH2 0x11C5 SWAP1 PUSH2 0x26EE JUMP JUMPDEST PUSH1 0x40 MLOAD DUP1 SWAP2 SUB SWAP1 REVERT JUMPDEST PUSH1 0x0 CALLVALUE GT PUSH2 0x1211 JUMPI PUSH1 0x40 MLOAD PUSH32 0x8C379A000000000000000000000000000000000000000000000000000000000 DUP2 MSTORE PUSH1 0x4 ADD PUSH2 0x1208 SWAP1 PUSH2 0x275A JUMP JUMPDEST PUSH1 0x40 MLOAD DUP1 SWAP2 SUB SWAP1 REVERT JUMPDEST CALLVALUE PUSH1 0x3 DUP3 PUSH1 0x40 MLOAD PUSH2 0x1222 SWAP2 SWAP1 PUSH2 0x1BF6 JUMP JUMPDEST SWAP1 DUP2 MSTORE PUSH1 0x20 ADD PUSH1 0x40 MLOAD DUP1 SWAP2 SUB SWAP1 KECCAK256 PUSH1 0x2 ADD PUSH1 0x0 DUP3 DUP3 SLOAD PUSH2 0x1242 SWAP2 SWAP1 PUSH2 0x1FC4 JUMP JUMPDEST SWAP3 POP POP DUP2 SWAP1 SSTORE POP PUSH32 0x3E0B25BA1AB101C1D9112766101BB987F00F29A37A44B4A0813ED489A4F3FFA CALLER DUP3 CALLVALUE PUSH1 0x40 MLOAD PUSH2 0x127C SWAP4 SWAP3 SWAP2 SWAP1 PUSH2 0x277A JUMP JUMPDEST PUSH1 0x40 MLOAD DUP1 SWAP2 SUB SWAP1 LOG1 POP JUMP JUMPDEST PUSH1 0x60 PUSH1 0x2 PUSH1 0x0 CALLER PUSH20 0xFFFFFFFFFFFFFFFFFFFFFFFFFFFFFFFFFFFFFFFF AND PUSH20 0xFFFFFFFFFFFFFFFFFFFFFFFFFFFFFFFFFFFFFFFF AND DUP2 MSTORE PUSH1 0x20 ADD SWAP1 DUP2 MSTORE PUSH1 0x20 ADD PUSH1 0x0 KECCAK256 DUP1 SLOAD DUP1 PUSH1 0x20 MUL PUSH1 0x20 ADD PUSH1 0x40 MLOAD SWAP1 DUP2 ADD PUSH1 0x40 MSTORE DUP1 SWAP3 SWAP2 SWAP1 DUP2 DUP2 MSTORE PUSH1 0x20 ADD PUSH1 0x0 SWAP1 JUMPDEST DUP3 DUP3 LT ISZERO PUSH2 0x1394 JUMPI DUP4 DUP3 SWAP1 PUSH1 0x0 MSTORE PUSH1 0x20 PUSH1 0x0 KECCAK256 ADD DUP1 SLOAD PUSH2 0x1307 SWAP1 PUSH2 0x21AF JUMP JUMPDEST DUP1 PUSH1 0x1F ADD PUSH1 0x20 DUP1 SWAP2 DIV MUL PUSH1 0x20 ADD PUSH1 0x40 MLOAD SWAP1 DUP2 ADD PUSH1 0x40 MSTORE DUP1 SWAP3 SWAP2 SWAP1 DUP2 DUP2 MSTORE PUSH1 0x20 ADD DUP3 DUP1 SLOAD PUSH2 0x1333 SWAP1 PUSH2 0x21AF JUMP JUMPDEST DUP1 ISZERO PUSH2 0x1380 JUMPI DUP1 PUSH1 0x1F LT PUSH2 0x1355 JUMPI PUSH2 0x100 DUP1 DUP4 SLOAD DIV MUL DUP4 MSTORE SWAP2 PUSH1 0x20 ADD SWAP2 PUSH2 0x1380 JUMP JUMPDEST DUP3 ADD SWAP2 SWAP1 PUSH1 0x0 MSTORE PUSH1 0x20 PUSH1 0x0 KECCAK256 SWAP1 JUMPDEST DUP2 SLOAD DUP2 MSTORE SWAP1 PUSH1 0x1 ADD SWAP1 PUSH1 0x20 ADD DUP1 DUP4 GT PUSH2 0x1363 JUMPI DUP3 SWAP1 SUB PUSH1 0x1F AND DUP3 ADD SWAP2 JUMPDEST POP POP POP POP POP DUP2 MSTORE PUSH1 0x20 ADD SWAP1 PUSH1 0x1 ADD SWAP1 PUSH2 0x12E8 JUMP JUMPDEST POP POP POP POP SWAP1 POP SWAP1 JUMP JUMPDEST PUSH1 0x0 DUP1 PUSH1 0x0 SWAP1 SLOAD SWAP1 PUSH2 0x100 EXP SWAP1 DIV PUSH20 0xFFFFFFFFFFFFFFFFFFFFFFFFFFFFFFFFFFFFFFFF AND SWAP1 POP SWAP1 JUMP JUMPDEST PUSH1 0x0 PUSH1 0x3 DUP3 PUSH1 0x40 MLOAD PUSH2 0x13D8 SWAP2 SWAP1 PUSH2 0x1BF6 JUMP JUMPDEST SWAP1 DUP2 MSTORE PUSH1 0x20 ADD PUSH1 0x40 MLOAD DUP1 SWAP2 SUB SWAP1 KECCAK256 PUSH1 0x2 ADD SLOAD SWAP1 POP SWAP2 SWAP1 POP JUMP JUMPDEST CALLER PUSH20 0xFFFFFFFFFFFFFFFFFFFFFFFFFFFFFFFFFFFFFFFF AND PUSH1 0x0 DUP1 SLOAD SWAP1 PUSH2 0x100 EXP SWAP1 DIV PUSH20 0xFFFFFFFFFFFFFFFFFFFFFFFFFFFFFFFFFFFFFFFF AND PUSH20 0xFFFFFFFFFFFFFFFFFFFFFFFFFFFFFFFFFFFFFFFF AND EQ PUSH2 0x147F JUMPI PUSH1 0x40 MLOAD PUSH32 0x8C379A000000000000000000000000000000000000000000000000000000000 DUP2 MSTORE PUSH1 0x4 ADD PUSH2 0x1476 SWAP1 PUSH2 0x2546 JUMP JUMPDEST PUSH1 0x40 MLOAD DUP1 SWAP2 SUB SWAP1 REVERT JUMPDEST PUSH1 0x0 DUP2 GT PUSH2 0x14C2 JUMPI PUSH1 0x40 MLOAD PUSH32 0x8C379A000000000000000000000000000000000000000000000000000000000 DUP2 MSTORE PUSH1 0x4 ADD PUSH2 0x14B9 SWAP1 PUSH2 0x25B2 JUMP JUMPDEST PUSH1 0x40 MLOAD DUP1 SWAP2 SUB SWAP1 REVERT JUMPDEST DUP1 PUSH1 0x1 SLOAD LT ISZERO PUSH2 0x1507 JUMPI PUSH1 0x40 MLOAD PUSH32 0x8C379A000000000000000000000000000000000000000000000000000000000 DUP2 MSTORE PUSH1 0x4 ADD PUSH2 0x14FE SWAP1 PUSH2 0x2644 JUMP JUMPDEST PUSH1 0x40 MLOAD DUP1 SWAP2 SUB SWAP1 REVERT JUMPDEST DUP1 PUSH1 0x1 PUSH1 0x0 DUP3 DUP3 SLOAD PUSH2 0x1519 SWAP2 SWAP1 PUSH2 0x201A JUMP JUMPDEST SWAP3 POP POP DUP2 SWAP1 SSTORE POP CALLER PUSH20 0xFFFFFFFFFFFFFFFFFFFFFFFFFFFFFFFFFFFFFFFF AND PUSH2 0x8FC DUP3 SWAP1 DUP2 ISZERO MUL SWAP1 PUSH1 0x40 MLOAD PUSH1 0x0 PUSH1 0x40 MLOAD DUP1 DUP4 SUB DUP2 DUP6 DUP9 DUP9 CALL SWAP4 POP POP POP POP ISZERO DUP1 ISZERO PUSH2 0x1566 JUMPI RETURNDATASIZE PUSH1 0x0 DUP1 RETURNDATACOPY RETURNDATASIZE PUSH1 0x0 REVERT JUMPDEST POP POP JUMP JUMPDEST PUSH1 0x0 PUSH1 0x40 MLOAD SWAP1 POP SWAP1 JUMP JUMPDEST PUSH1 0x0 DUP1 REVERT JUMPDEST PUSH1 0x0 DUP1 REVERT JUMPDEST PUSH1 0x0 DUP1 REVERT JUMPDEST PUSH1 0x0 DUP1 REVERT JUMPDEST PUSH1 0x0 PUSH1 0x1F NOT PUSH1 0x1F DUP4 ADD AND SWAP1 POP SWAP2 SWAP1 POP JUMP JUMPDEST PUSH32 0x4E487B7100000000000000000000000000000000000000000000000000000000 PUSH1 0x0 MSTORE PUSH1 0x41 PUSH1 0x4 MSTORE PUSH1 0x24 PUSH1 0x0 REVERT JUMPDEST PUSH2 0x15D1 DUP3 PUSH2 0x1588 JUMP JUMPDEST DUP2 ADD DUP2 DUP2 LT PUSH8 0xFFFFFFFFFFFFFFFF DUP3 GT OR ISZERO PUSH2 0x15F0 JUMPI PUSH2 0x15EF PUSH2 0x1599 JUMP JUMPDEST JUMPDEST DUP1 PUSH1 0x40 MSTORE POP POP POP JUMP JUMPDEST PUSH1 0x0 PUSH2 0x1603 PUSH2 0x156A JUMP JUMPDEST SWAP1 POP PUSH2 0x160F DUP3 DUP3 PUSH2 0x15C8 JUMP JUMPDEST SWAP2 SWAP1 POP JUMP JUMPDEST PUSH1 0x0 PUSH8 0xFFFFFFFFFFFFFFFF DUP3 GT ISZERO PUSH2 0x162F JUMPI PUSH2 0x162E PUSH2 0x1599 JUMP JUMPDEST JUMPDEST PUSH2 0x1638 DUP3 PUSH2 0x1588 JUMP JUMPDEST SWAP1 POP PUSH1 0x20 DUP2 ADD SWAP1 POP SWAP2 SWAP1 POP JUMP JUMPDEST DUP3 DUP2 DUP4 CALLDATACOPY PUSH1 0x0 DUP4 DUP4 ADD MSTORE POP POP POP JUMP JUMPDEST PUSH1 0x0 PUSH2 0x1667 PUSH2 0x1662 DUP5 PUSH2 0x1614 JUMP JUMPDEST PUSH2 0x15F9 JUMP JUMPDEST SWAP1 POP DUP3 DUP2 MSTORE PUSH1 0x20 DUP2 ADD DUP5 DUP5 DUP5 ADD GT ISZERO PUSH2 0x1683 JUMPI PUSH2 0x1682 PUSH2 0x1583 JUMP JUMPDEST JUMPDEST PUSH2 0x168E DUP5 DUP3 DUP6 PUSH2 0x1645 JUMP JUMPDEST POP SWAP4 SWAP3 POP POP POP JUMP JUMPDEST PUSH1 0x0 DUP3 PUSH1 0x1F DUP4 ADD SLT PUSH2 0x16AB JUMPI PUSH2 0x16AA PUSH2 0x157E JUMP JUMPDEST JUMPDEST DUP2 CALLDATALOAD PUSH2 0x16BB DUP5 DUP3 PUSH1 0x20 DUP7 ADD PUSH2 0x1654 JUMP JUMPDEST SWAP2 POP POP SWAP3 SWAP2 POP POP JUMP JUMPDEST PUSH1 0x0 PUSH8 0xFFFFFFFFFFFFFFFF DUP3 GT ISZERO PUSH2 0x16DF JUMPI PUSH2 0x16DE PUSH2 0x1599 JUMP JUMPDEST JUMPDEST PUSH1 0x20 DUP3 MUL SWAP1 POP PUSH1 0x20 DUP2 ADD SWAP1 POP SWAP2 SWAP1 POP JUMP JUMPDEST PUSH1 0x0 DUP1 REVERT JUMPDEST PUSH1 0x0 PUSH2 0x1708 PUSH2 0x1703 DUP5 PUSH2 0x16C4 JUMP JUMPDEST PUSH2 0x15F9 JUMP JUMPDEST SWAP1 POP DUP1 DUP4 DUP3 MSTORE PUSH1 0x20 DUP3 ADD SWAP1 POP PUSH1 0x20 DUP5 MUL DUP4 ADD DUP6 DUP2 GT ISZERO PUSH2 0x172B JUMPI PUSH2 0x172A PUSH2 0x16F0 JUMP JUMPDEST JUMPDEST DUP4 JUMPDEST DUP2 DUP2 LT ISZERO PUSH2 0x1772 JUMPI DUP1 CALLDATALOAD PUSH8 0xFFFFFFFFFFFFFFFF DUP2 GT ISZERO PUSH2 0x1750 JUMPI PUSH2 0x174F PUSH2 0x157E JUMP JUMPDEST JUMPDEST DUP1 DUP7 ADD PUSH2 0x175D DUP10 DUP3 PUSH2 0x1696 JUMP JUMPDEST DUP6 MSTORE PUSH1 0x20 DUP6 ADD SWAP5 POP POP POP PUSH1 0x20 DUP2 ADD SWAP1 POP PUSH2 0x172D JUMP JUMPDEST POP POP POP SWAP4 SWAP3 POP POP POP JUMP JUMPDEST PUSH1 0x0 DUP3 PUSH1 0x1F DUP4 ADD SLT PUSH2 0x1791 JUMPI PUSH2 0x1790 PUSH2 0x157E JUMP JUMPDEST JUMPDEST DUP2 CALLDATALOAD PUSH2 0x17A1 DUP5 DUP3 PUSH1 0x20 DUP7 ADD PUSH2 0x16F5 JUMP JUMPDEST SWAP2 POP POP SWAP3 SWAP2 POP POP JUMP JUMPDEST PUSH1 0x0 DUP2 SWAP1 POP SWAP2 SWAP1 POP JUMP JUMPDEST PUSH2 0x17BD DUP2 PUSH2 0x17AA JUMP JUMPDEST DUP2 EQ PUSH2 0x17C8 JUMPI PUSH1 0x0 DUP1 REVERT JUMPDEST POP JUMP JUMPDEST PUSH1 0x0 DUP2 CALLDATALOAD SWAP1 POP PUSH2 0x17DA DUP2 PUSH2 0x17B4 JUMP JUMPDEST SWAP3 SWAP2 POP POP JUMP JUMPDEST PUSH1 0x0 DUP1 PUSH1 0x0 PUSH1 0x60 DUP5 DUP7 SUB SLT ISZERO PUSH2 0x17F9 JUMPI PUSH2 0x17F8 PUSH2 0x1574 JUMP JUMPDEST JUMPDEST PUSH1 0x0 DUP5 ADD CALLDATALOAD PUSH8 0xFFFFFFFFFFFFFFFF DUP2 GT ISZERO PUSH2 0x1817 JUMPI PUSH2 0x1816 PUSH2 0x1579 JUMP JUMPDEST JUMPDEST PUSH2 0x1823 DUP7 DUP3 DUP8 ADD PUSH2 0x1696 JUMP JUMPDEST SWAP4 POP POP PUSH1 0x20 DUP5 ADD CALLDATALOAD PUSH8 0xFFFFFFFFFFFFFFFF DUP2 GT ISZERO PUSH2 0x1844 JUMPI PUSH2 0x1843 PUSH2 0x1579 JUMP JUMPDEST JUMPDEST PUSH2 0x1850 DUP7 DUP3 DUP8 ADD PUSH2 0x177C JUMP JUMPDEST SWAP3 POP POP PUSH1 0x40 PUSH2 0x1861 DUP7 DUP3 DUP8 ADD PUSH2 0x17CB JUMP JUMPDEST SWAP2 POP POP SWAP3 POP SWAP3 POP SWAP3 JUMP JUMPDEST PUSH1 0x0 PUSH1 0x20 DUP3 DUP5 SUB SLT ISZERO PUSH2 0x1881 JUMPI PUSH2 0x1880 PUSH2 0x1574 JUMP JUMPDEST JUMPDEST PUSH1 0x0 DUP3 ADD CALLDATALOAD PUSH8 0xFFFFFFFFFFFFFFFF DUP2 GT ISZERO PUSH2 0x189F JUMPI PUSH2 0x189E PUSH2 0x1579 JUMP JUMPDEST JUMPDEST PUSH2 0x18AB DUP5 DUP3 DUP6 ADD PUSH2 0x1696 JUMP JUMPDEST SWAP2 POP POP SWAP3 SWAP2 POP POP JUMP JUMPDEST PUSH1 0x0 DUP1 PUSH1 0x40 DUP4 DUP6 SUB SLT ISZERO PUSH2 0x18CB JUMPI PUSH2 0x18CA PUSH2 0x1574 JUMP JUMPDEST JUMPDEST PUSH1 0x0 DUP4 ADD CALLDATALOAD PUSH8 0xFFFFFFFFFFFFFFFF DUP2 GT ISZERO PUSH2 0x18E9 JUMPI PUSH2 0x18E8 PUSH2 0x1579 JUMP JUMPDEST JUMPDEST PUSH2 0x18F5 DUP6 DUP3 DUP7 ADD PUSH2 0x1696 JUMP JUMPDEST SWAP3 POP POP PUSH1 0x20 PUSH2 0x1906 DUP6 DUP3 DUP7 ADD PUSH2 0x17CB JUMP JUMPDEST SWAP2 POP POP SWAP3 POP SWAP3 SWAP1 POP JUMP JUMPDEST PUSH1 0x0 PUSH20 0xFFFFFFFFFFFFFFFFFFFFFFFFFFFFFFFFFFFFFFFF DUP3 AND SWAP1 POP SWAP2 SWAP1 POP JUMP JUMPDEST PUSH1 0x0 PUSH2 0x193B DUP3 PUSH2 0x1910 JUMP JUMPDEST SWAP1 POP SWAP2 SWAP1 POP JUMP JUMPDEST PUSH2 0x194B DUP2 PUSH2 0x1930 JUMP JUMPDEST DUP3 MSTORE POP POP JUMP JUMPDEST PUSH1 0x0 PUSH1 0x20 DUP3 ADD SWAP1 POP PUSH2 0x1966 PUSH1 0x0 DUP4 ADD DUP5 PUSH2 0x1942 JUMP JUMPDEST SWAP3 SWAP2 POP POP JUMP JUMPDEST PUSH1 0x0 DUP1 PUSH1 0x0 PUSH1 0x60 DUP5 DUP7 SUB SLT ISZERO PUSH2 0x1985 JUMPI PUSH2 0x1984 PUSH2 0x1574 JUMP JUMPDEST JUMPDEST PUSH1 0x0 DUP5 ADD CALLDATALOAD PUSH8 0xFFFFFFFFFFFFFFFF DUP2 GT ISZERO PUSH2 0x19A3 JUMPI PUSH2 0x19A2 PUSH2 0x1579 JUMP JUMPDEST JUMPDEST PUSH2 0x19AF DUP7 DUP3 DUP8 ADD PUSH2 0x1696 JUMP JUMPDEST SWAP4 POP POP PUSH1 0x20 DUP5 ADD CALLDATALOAD PUSH8 0xFFFFFFFFFFFFFFFF DUP2 GT ISZERO PUSH2 0x19D0 JUMPI PUSH2 0x19CF PUSH2 0x1579 JUMP JUMPDEST JUMPDEST PUSH2 0x19DC DUP7 DUP3 DUP8 ADD PUSH2 0x1696 JUMP JUMPDEST SWAP3 POP POP PUSH1 0x40 PUSH2 0x19ED DUP7 DUP3 DUP8 ADD PUSH2 0x17CB JUMP JUMPDEST SWAP2 POP POP SWAP3 POP SWAP3 POP SWAP3 JUMP JUMPDEST PUSH2 0x1A00 DUP2 PUSH2 0x17AA JUMP JUMPDEST DUP3 MSTORE POP POP JUMP JUMPDEST PUSH1 0x0 PUSH1 0x20 DUP3 ADD SWAP1 POP PUSH2 0x1A1B PUSH1 0x0 DUP4 ADD DUP5 PUSH2 0x19F7 JUMP JUMPDEST SWAP3 SWAP2 POP POP JUMP JUMPDEST PUSH1 0x0 DUP2 MLOAD SWAP1 POP SWAP2 SWAP1 POP JUMP JUMPDEST PUSH1 0x0 DUP3 DUP3 MSTORE PUSH1 0x20 DUP3 ADD SWAP1 POP SWAP3 SWAP2 POP POP JUMP JUMPDEST PUSH1 0x0 DUP2 SWAP1 POP PUSH1 0x20 DUP3 ADD SWAP1 POP SWAP2 SWAP1 POP JUMP JUMPDEST PUSH1 0x0 DUP2 MLOAD SWAP1 POP SWAP2 SWAP1 POP JUMP JUMPDEST PUSH1 0x0 DUP3 DUP3 MSTORE PUSH1 0x20 DUP3 ADD SWAP1 POP SWAP3 SWAP2 POP POP JUMP JUMPDEST PUSH1 0x0 JUMPDEST DUP4 DUP2 LT ISZERO PUSH2 0x1A87 JUMPI DUP1 DUP3 ADD MLOAD DUP2 DUP5 ADD MSTORE PUSH1 0x20 DUP2 ADD SWAP1 POP PUSH2 0x1A6C JUMP JUMPDEST DUP4 DUP2 GT ISZERO PUSH2 0x1A96 JUMPI PUSH1 0x0 DUP5 DUP5 ADD MSTORE JUMPDEST POP POP POP POP JUMP JUMPDEST PUSH1 0x0 PUSH2 0x1AA7 DUP3 PUSH2 0x1A4D JUMP JUMPDEST PUSH2 0x1AB1 DUP2 DUP6 PUSH2 0x1A58 JUMP JUMPDEST SWAP4 POP PUSH2 0x1AC1 DUP2 DUP6 PUSH1 0x20 DUP7 ADD PUSH2 0x1A69 JUMP JUMPDEST PUSH2 0x1ACA DUP2 PUSH2 0x1588 JUMP JUMPDEST DUP5 ADD SWAP2 POP POP SWAP3 SWAP2 POP POP JUMP JUMPDEST PUSH1 0x0 PUSH2 0x1AE1 DUP4 DUP4 PUSH2 0x1A9C JUMP JUMPDEST SWAP1 POP SWAP3 SWAP2 POP POP JUMP JUMPDEST PUSH1 0x0 PUSH1 0x20 DUP3 ADD SWAP1 POP SWAP2 SWAP1 POP JUMP JUMPDEST PUSH1 0x0 PUSH2 0x1B01 DUP3 PUSH2 0x1A21 JUMP JUMPDEST PUSH2 0x1B0B DUP2 DUP6 PUSH2 0x1A2C JUMP JUMPDEST SWAP4 POP DUP4 PUSH1 0x20 DUP3 MUL DUP6 ADD PUSH2 0x1B1D DUP6 PUSH2 0x1A3D JUMP JUMPDEST DUP1 PUSH1 0x0 JUMPDEST DUP6 DUP2 LT ISZERO PUSH2 0x1B59 JUMPI DUP5 DUP5 SUB DUP10 MSTORE DUP2 MLOAD PUSH2 0x1B3A DUP6 DUP3 PUSH2 0x1AD5 JUMP JUMPDEST SWAP5 POP PUSH2 0x1B45 DUP4 PUSH2 0x1AE9 JUMP JUMPDEST SWAP3 POP PUSH1 0x20 DUP11 ADD SWAP10 POP POP PUSH1 0x1 DUP2 ADD SWAP1 POP PUSH2 0x1B21 JUMP JUMPDEST POP DUP3 SWAP8 POP DUP8 SWAP6 POP POP POP POP POP POP SWAP3 SWAP2 POP POP JUMP JUMPDEST PUSH1 0x0 PUSH1 0x20 DUP3 ADD SWAP1 POP DUP2 DUP2 SUB PUSH1 0x0 DUP4 ADD MSTORE PUSH2 0x1B85 DUP2 DUP5 PUSH2 0x1AF6 JUMP JUMPDEST SWAP1 POP SWAP3 SWAP2 POP POP JUMP JUMPDEST PUSH1 0x0 PUSH1 0x20 DUP3 DUP5 SUB SLT ISZERO PUSH2 0x1BA3 JUMPI PUSH2 0x1BA2 PUSH2 0x1574 JUMP JUMPDEST JUMPDEST PUSH1 0x0 PUSH2 0x1BB1 DUP5 DUP3 DUP6 ADD PUSH2 0x17CB JUMP JUMPDEST SWAP2 POP POP SWAP3 SWAP2 POP POP JUMP JUMPDEST PUSH1 0x0 DUP2 SWAP1 POP SWAP3 SWAP2 POP POP JUMP JUMPDEST PUSH1 0x0 PUSH2 0x1BD0 DUP3 PUSH2 0x1A4D JUMP JUMPDEST PUSH2 0x1BDA DUP2 DUP6 PUSH2 0x1BBA JUMP JUMPDEST SWAP4 POP PUSH2 0x1BEA DUP2 DUP6 PUSH1 0x20 DUP7 ADD PUSH2 0x1A69 JUMP JUMPDEST DUP1 DUP5 ADD SWAP2 POP POP SWAP3 SWAP2 POP POP JUMP JUMPDEST PUSH1 0x0 PUSH2 0x1C02 DUP3 DUP5 PUSH2 0x1BC5 JUMP JUMPDEST SWAP2 POP DUP2 SWAP1 POP SWAP3 SWAP2 POP POP JUMP JUMPDEST PUSH1 0x0 DUP3 DUP3 MSTORE PUSH1 0x20 DUP3 ADD SWAP1 POP SWAP3 SWAP2 POP POP JUMP JUMPDEST PUSH32 0x7472616E736665725F6661696C5F66726F6D5F6E616D655F6E6F745F65786973 PUSH1 0x0 DUP3 ADD MSTORE PUSH32 0x7400000000000000000000000000000000000000000000000000000000000000 PUSH1 0x20 DUP3 ADD MSTORE POP JUMP JUMPDEST PUSH1 0x0 PUSH2 0x1C7A PUSH1 0x21 DUP4 PUSH2 0x1C0D JUMP JUMPDEST SWAP2 POP PUSH2 0x1C85 DUP3 PUSH2 0x1C1E JUMP JUMPDEST PUSH1 0x40 DUP3 ADD SWAP1 POP SWAP2 SWAP1 POP JUMP JUMPDEST PUSH1 0x0 PUSH1 0x20 DUP3 ADD SWAP1 POP DUP2 DUP2 SUB PUSH1 0x0 DUP4 ADD MSTORE PUSH2 0x1CA9 DUP2 PUSH2 0x1C6D JUMP JUMPDEST SWAP1 POP SWAP2 SWAP1 POP JUMP JUMPDEST PUSH32 0x7472616E736665725F6661696C5F66726F6D5F6E6F745F6F776E657200000000 PUSH1 0x0 DUP3 ADD MSTORE POP JUMP JUMPDEST PUSH1 0x0 PUSH2 0x1CE6 PUSH1 0x1C DUP4 PUSH2 0x1C0D JUMP JUMPDEST SWAP2 POP PUSH2 0x1CF1 DUP3 PUSH2 0x1CB0 JUMP JUMPDEST PUSH1 0x20 DUP3 ADD SWAP1 POP SWAP2 SWAP1 POP JUMP JUMPDEST PUSH1 0x0 PUSH1 0x20 DUP3 ADD SWAP1 POP DUP2 DUP2 SUB PUSH1 0x0 DUP4 ADD MSTORE PUSH2 0x1D15 DUP2 PUSH2 0x1CD9 JUMP JUMPDEST SWAP1 POP SWAP2 SWAP1 POP JUMP JUMPDEST PUSH32 0x7472616E736665725F6661696C5F76616C75655F6C6573735F7468616E5F3130 PUSH1 0x0 DUP3 ADD MSTORE PUSH32 0x3000000000000000000000000000000000000000000000000000000000000000 PUSH1 0x20 DUP3 ADD MSTORE POP JUMP JUMPDEST PUSH1 0x0 PUSH2 0x1D78 PUSH1 0x21 DUP4 PUSH2 0x1C0D JUMP JUMPDEST SWAP2 POP PUSH2 0x1D83 DUP3 PUSH2 0x1D1C JUMP JUMPDEST PUSH1 0x40 DUP3 ADD SWAP1 POP SWAP2 SWAP1 POP JUMP JUMPDEST PUSH1 0x0 PUSH1 0x20 DUP3 ADD SWAP1 POP DUP2 DUP2 SUB PUSH1 0x0 DUP4 ADD MSTORE PUSH2 0x1DA7 DUP2 PUSH2 0x1D6B JUMP JUMPDEST SWAP1 POP SWAP2 SWAP1 POP JUMP JUMPDEST PUSH32 0x4E487B7100000000000000000000000000000000000000000000000000000000 PUSH1 0x0 MSTORE PUSH1 0x11 PUSH1 0x4 MSTORE PUSH1 0x24 PUSH1 0x0 REVERT JUMPDEST PUSH1 0x0 PUSH2 0x1DE8 DUP3 PUSH2 0x17AA JUMP JUMPDEST SWAP2 POP PUSH2 0x1DF3 DUP4 PUSH2 0x17AA JUMP JUMPDEST SWAP3 POP DUP2 PUSH32 0xFFFFFFFFFFFFFFFFFFFFFFFFFFFFFFFFFFFFFFFFFFFFFFFFFFFFFFFFFFFFFFFF DIV DUP4 GT DUP3 ISZERO ISZERO AND ISZERO PUSH2 0x1E2C JUMPI PUSH2 0x1E2B PUSH2 0x1DAE JUMP JUMPDEST JUMPDEST DUP3 DUP3 MUL SWAP1 POP SWAP3 SWAP2 POP POP JUMP JUMPDEST PUSH32 0x7472616E736665725F6661696C5F66726F6D5F62616C616E63655F6E6F745F65 PUSH1 0x0 DUP3 ADD MSTORE PUSH32 0x6E6F756768000000000000000000000000000000000000000000000000000000 PUSH1 0x20 DUP3 ADD MSTORE POP JUMP JUMPDEST PUSH1 0x0 PUSH2 0x1E93 PUSH1 0x25 DUP4 PUSH2 0x1C0D JUMP JUMPDEST SWAP2 POP PUSH2 0x1E9E DUP3 PUSH2 0x1E37 JUMP JUMPDEST PUSH1 0x40 DUP3 ADD SWAP1 POP SWAP2 SWAP1 POP JUMP JUMPDEST PUSH1 0x0 PUSH1 0x20 DUP3 ADD SWAP1 POP DUP2 DUP2 SUB PUSH1 0x0 DUP4 ADD MSTORE PUSH2 0x1EC2 DUP2 PUSH2 0x1E86 JUMP JUMPDEST SWAP1 POP SWAP2 SWAP1 POP JUMP JUMPDEST PUSH32 0x4E487B7100000000000000000000000000000000000000000000000000000000 PUSH1 0x0 MSTORE PUSH1 0x32 PUSH1 0x4 MSTORE PUSH1 0x24 PUSH1 0x0 REVERT JUMPDEST PUSH32 0x7472616E736665725F6661696C5F746F5F6E616D655F6E6F745F657869737400 PUSH1 0x0 DUP3 ADD MSTORE POP JUMP JUMPDEST PUSH1 0x0 PUSH2 0x1F2E PUSH1 0x1F DUP4 PUSH2 0x1C0D JUMP JUMPDEST SWAP2 POP PUSH2 0x1F39 DUP3 PUSH2 0x1EF8 JUMP JUMPDEST PUSH1 0x20 DUP3 ADD SWAP1 POP SWAP2 SWAP1 POP JUMP JUMPDEST PUSH1 0x0 PUSH1 0x20 DUP3 ADD SWAP1 POP DUP2 DUP2 SUB PUSH1 0x0 DUP4 ADD MSTORE PUSH2 0x1F5D DUP2 PUSH2 0x1F21 JUMP JUMPDEST SWAP1 POP SWAP2 SWAP1 POP JUMP JUMPDEST PUSH32 0x4E487B7100000000000000000000000000000000000000000000000000000000 PUSH1 0x0 MSTORE PUSH1 0x12 PUSH1 0x4 MSTORE PUSH1 0x24 PUSH1 0x0 REVERT JUMPDEST PUSH1 0x0 PUSH2 0x1F9E DUP3 PUSH2 0x17AA JUMP JUMPDEST SWAP2 POP PUSH2 0x1FA9 DUP4 PUSH2 0x17AA JUMP JUMPDEST SWAP3 POP DUP3 PUSH2 0x1FB9 JUMPI PUSH2 0x1FB8 PUSH2 0x1F64 JUMP JUMPDEST JUMPDEST DUP3 DUP3 DIV SWAP1 POP SWAP3 SWAP2 POP POP JUMP JUMPDEST PUSH1 0x0 PUSH2 0x1FCF DUP3 PUSH2 0x17AA JUMP JUMPDEST SWAP2 POP PUSH2 0x1FDA DUP4 PUSH2 0x17AA JUMP JUMPDEST SWAP3 POP DUP3 PUSH32 0xFFFFFFFFFFFFFFFFFFFFFFFFFFFFFFFFFFFFFFFFFFFFFFFFFFFFFFFFFFFFFFFF SUB DUP3 GT ISZERO PUSH2 0x200F JUMPI PUSH2 0x200E PUSH2 0x1DAE JUMP JUMPDEST JUMPDEST DUP3 DUP3 ADD SWAP1 POP SWAP3 SWAP2 POP POP JUMP JUMPDEST PUSH1 0x0 PUSH2 0x2025 DUP3 PUSH2 0x17AA JUMP JUMPDEST SWAP2 POP PUSH2 0x2030 DUP4 PUSH2 0x17AA JUMP JUMPDEST SWAP3 POP DUP3 DUP3 LT ISZERO PUSH2 0x2043 JUMPI PUSH2 0x2042 PUSH2 0x1DAE JUMP JUMPDEST JUMPDEST DUP3 DUP3 SUB SWAP1 POP SWAP3 SWAP2 POP POP JUMP JUMPDEST PUSH1 0x0 PUSH2 0x2059 DUP3 PUSH2 0x1A4D JUMP JUMPDEST PUSH2 0x2063 DUP2 DUP6 PUSH2 0x1C0D JUMP JUMPDEST SWAP4 POP PUSH2 0x2073 DUP2 DUP6 PUSH1 0x20 DUP7 ADD PUSH2 0x1A69 JUMP JUMPDEST PUSH2 0x207C DUP2 PUSH2 0x1588 JUMP JUMPDEST DUP5 ADD SWAP2 POP POP SWAP3 SWAP2 POP POP JUMP JUMPDEST PUSH1 0x0 PUSH1 0x60 DUP3 ADD SWAP1 POP DUP2 DUP2 SUB PUSH1 0x0 DUP4 ADD MSTORE PUSH2 0x20A1 DUP2 DUP7 PUSH2 0x204E JUMP JUMPDEST SWAP1 POP DUP2 DUP2 SUB PUSH1 0x20 DUP4 ADD MSTORE PUSH2 0x20B5 DUP2 DUP6 PUSH2 0x204E JUMP JUMPDEST SWAP1 POP PUSH2 0x20C4 PUSH1 0x40 DUP4 ADD DUP5 PUSH2 0x19F7 JUMP JUMPDEST SWAP5 SWAP4 POP POP POP POP JUMP JUMPDEST PUSH1 0x0 PUSH2 0x20D7 DUP3 PUSH2 0x17AA JUMP JUMPDEST SWAP2 POP PUSH32 0xFFFFFFFFFFFFFFFFFFFFFFFFFFFFFFFFFFFFFFFFFFFFFFFFFFFFFFFFFFFFFFFF DUP3 SUB PUSH2 0x2109 JUMPI PUSH2 0x2108 PUSH2 0x1DAE JUMP JUMPDEST JUMPDEST PUSH1 0x1 DUP3 ADD SWAP1 POP SWAP2 SWAP1 POP JUMP JUMPDEST PUSH32 0x6164645F6163636F756E745F6661696C5F6E616D655F65786973740000000000 PUSH1 0x0 DUP3 ADD MSTORE POP JUMP JUMPDEST PUSH1 0x0 PUSH2 0x214A PUSH1 0x1B DUP4 PUSH2 0x1C0D JUMP JUMPDEST SWAP2 POP PUSH2 0x2155 DUP3 PUSH2 0x2114 JUMP JUMPDEST PUSH1 0x20 DUP3 ADD SWAP1 POP SWAP2 SWAP1 POP JUMP JUMPDEST PUSH1 0x0 PUSH1 0x20 DUP3 ADD SWAP1 POP DUP2 DUP2 SUB PUSH1 0x0 DUP4 ADD MSTORE PUSH2 0x2179 DUP2 PUSH2 0x213D JUMP JUMPDEST SWAP1 POP SWAP2 SWAP1 POP JUMP JUMPDEST PUSH32 0x4E487B7100000000000000000000000000000000000000000000000000000000 PUSH1 0x0 MSTORE PUSH1 0x22 PUSH1 0x4 MSTORE PUSH1 0x24 PUSH1 0x0 REVERT JUMPDEST PUSH1 0x0 PUSH1 0x2 DUP3 DIV SWAP1 POP PUSH1 0x1 DUP3 AND DUP1 PUSH2 0x21C7 JUMPI PUSH1 0x7F DUP3 AND SWAP2 POP JUMPDEST PUSH1 0x20 DUP3 LT DUP2 SUB PUSH2 0x21DA JUMPI PUSH2 0x21D9 PUSH2 0x2180 JUMP JUMPDEST JUMPDEST POP SWAP2 SWAP1 POP JUMP JUMPDEST PUSH1 0x0 DUP2 SWAP1 POP DUP2 PUSH1 0x0 MSTORE PUSH1 0x20 PUSH1 0x0 KECCAK256 SWAP1 POP SWAP2 SWAP1 POP JUMP JUMPDEST PUSH1 0x0 PUSH1 0x20 PUSH1 0x1F DUP4 ADD DIV SWAP1 POP SWAP2 SWAP1 POP JUMP JUMPDEST PUSH1 0x0 DUP3 DUP3 SHL SWAP1 POP SWAP3 SWAP2 POP POP JUMP JUMPDEST PUSH1 0x0 PUSH1 0x8 DUP4 MUL PUSH2 0x2242 PUSH32 0xFFFFFFFFFFFFFFFFFFFFFFFFFFFFFFFFFFFFFFFFFFFFFFFFFFFFFFFFFFFFFFFF DUP3 PUSH2 0x2205 JUMP JUMPDEST PUSH2 0x224C DUP7 DUP4 PUSH2 0x2205 JUMP JUMPDEST SWAP6 POP DUP1 NOT DUP5 AND SWAP4 POP DUP1 DUP7 AND DUP5 OR SWAP3 POP POP POP SWAP4 SWAP3 POP POP POP JUMP JUMPDEST PUSH1 0x0 DUP2 SWAP1 POP SWAP2 SWAP1 POP JUMP JUMPDEST PUSH1 0x0 PUSH2 0x2289 PUSH2 0x2284 PUSH2 0x227F DUP5 PUSH2 0x17AA JUMP JUMPDEST PUSH2 0x2264 JUMP JUMPDEST PUSH2 0x17AA JUMP JUMPDEST SWAP1 POP SWAP2 SWAP1 POP JUMP JUMPDEST PUSH1 0x0 DUP2 SWAP1 POP SWAP2 SWAP1 POP JUMP JUMPDEST PUSH2 0x22A3 DUP4 PUSH2 0x226E JUMP JUMPDEST PUSH2 0x22B7 PUSH2 0x22AF DUP3 PUSH2 0x2290 JUMP JUMPDEST DUP5 DUP5 SLOAD PUSH2 0x2212 JUMP JUMPDEST DUP3 SSTORE POP POP POP POP JUMP JUMPDEST PUSH1 0x0 SWAP1 JUMP JUMPDEST PUSH2 0x22CC PUSH2 0x22BF JUMP JUMPDEST PUSH2 0x22D7 DUP2 DUP5 DUP5 PUSH2 0x229A JUMP JUMPDEST POP POP POP JUMP JUMPDEST JUMPDEST DUP2 DUP2 LT ISZERO PUSH2 0x22FB JUMPI PUSH2 0x22F0 PUSH1 0x0 DUP3 PUSH2 0x22C4 JUMP JUMPDEST PUSH1 0x1 DUP2 ADD SWAP1 POP PUSH2 0x22DD JUMP JUMPDEST POP POP JUMP JUMPDEST PUSH1 0x1F DUP3 GT ISZERO PUSH2 0x2340 JUMPI PUSH2 0x2311 DUP2 PUSH2 0x21E0 JUMP JUMPDEST PUSH2 0x231A DUP5 PUSH2 0x21F5 JUMP JUMPDEST DUP2 ADD PUSH1 0x20 DUP6 LT ISZERO PUSH2 0x2329 JUMPI DUP2 SWAP1 POP JUMPDEST PUSH2 0x233D PUSH2 0x2335 DUP6 PUSH2 0x21F5 JUMP JUMPDEST DUP4 ADD DUP3 PUSH2 0x22DC JUMP JUMPDEST POP POP JUMPDEST POP POP POP JUMP JUMPDEST PUSH1 0x0 DUP3 DUP3 SHR SWAP1 POP SWAP3 SWAP2 POP POP JUMP JUMPDEST PUSH1 0x0 PUSH2 0x2363 PUSH1 0x0 NOT DUP5 PUSH1 0x8 MUL PUSH2 0x2345 JUMP JUMPDEST NOT DUP1 DUP4 AND SWAP2 POP POP SWAP3 SWAP2 POP POP JUMP JUMPDEST PUSH1 0x0 PUSH2 0x237C DUP4 DUP4 PUSH2 0x2352 JUMP JUMPDEST SWAP2 POP DUP3 PUSH1 0x2 MUL DUP3 OR SWAP1 POP SWAP3 SWAP2 POP POP JUMP JUMPDEST PUSH2 0x2395 DUP3 PUSH2 0x1A4D JUMP JUMPDEST PUSH8 0xFFFFFFFFFFFFFFFF DUP2 GT ISZERO PUSH2 0x23AE JUMPI PUSH2 0x23AD PUSH2 0x1599 JUMP JUMPDEST JUMPDEST PUSH2 0x23B8 DUP3 SLOAD PUSH2 0x21AF JUMP JUMPDEST PUSH2 0x23C3 DUP3 DUP3 DUP6 PUSH2 0x22FF JUMP JUMPDEST PUSH1 0x0 PUSH1 0x20 SWAP1 POP PUSH1 0x1F DUP4 GT PUSH1 0x1 DUP2 EQ PUSH2 0x23F6 JUMPI PUSH1 0x0 DUP5 ISZERO PUSH2 0x23E4 JUMPI DUP3 DUP8 ADD MLOAD SWAP1 POP JUMPDEST PUSH2 0x23EE DUP6 DUP3 PUSH2 0x2370 JUMP JUMPDEST DUP7 SSTORE POP PUSH2 0x2456 JUMP JUMPDEST PUSH1 0x1F NOT DUP5 AND PUSH2 0x2404 DUP7 PUSH2 0x21E0 JUMP JUMPDEST PUSH1 0x0 JUMPDEST DUP3 DUP2 LT ISZERO PUSH2 0x242C JUMPI DUP5 DUP10 ADD MLOAD DUP3 SSTORE PUSH1 0x1 DUP3 ADD SWAP2 POP PUSH1 0x20 DUP6 ADD SWAP5 POP PUSH1 0x20 DUP2 ADD SWAP1 POP PUSH2 0x2407 JUMP JUMPDEST DUP7 DUP4 LT ISZERO PUSH2 0x2449 JUMPI DUP5 DUP10 ADD MLOAD PUSH2 0x2445 PUSH1 0x1F DUP10 AND DUP3 PUSH2 0x2352 JUMP JUMPDEST DUP4 SSTORE POP JUMPDEST PUSH1 0x1 PUSH1 0x2 DUP9 MUL ADD DUP9 SSTORE POP POP POP JUMPDEST POP POP POP POP POP POP JUMP JUMPDEST PUSH1 0x0 PUSH1 0x40 DUP3 ADD SWAP1 POP PUSH2 0x2473 PUSH1 0x0 DUP4 ADD DUP6 PUSH2 0x1942 JUMP JUMPDEST DUP2 DUP2 SUB PUSH1 0x20 DUP4 ADD MSTORE PUSH2 0x2485 DUP2 DUP5 PUSH2 0x204E JUMP JUMPDEST SWAP1 POP SWAP4 SWAP3 POP POP POP JUMP JUMPDEST PUSH32 0x77697468647261776E5F6661696C5F6E616D655F6E6F745F6578697374000000 PUSH1 0x0 DUP3 ADD MSTORE POP JUMP JUMPDEST PUSH1 0x0 PUSH2 0x24C4 PUSH1 0x1D DUP4 PUSH2 0x1C0D JUMP JUMPDEST SWAP2 POP PUSH2 0x24CF DUP3 PUSH2 0x248E JUMP JUMPDEST PUSH1 0x20 DUP3 ADD SWAP1 POP SWAP2 SWAP1 POP JUMP JUMPDEST PUSH1 0x0 PUSH1 0x20 DUP3 ADD SWAP1 POP DUP2 DUP2 SUB PUSH1 0x0 DUP4 ADD MSTORE PUSH2 0x24F3 DUP2 PUSH2 0x24B7 JUMP JUMPDEST SWAP1 POP SWAP2 SWAP1 POP JUMP JUMPDEST PUSH32 0x77697468647261776E5F6661696C5F6E6F745F6F776E65720000000000000000 PUSH1 0x0 DUP3 ADD MSTORE POP JUMP JUMPDEST PUSH1 0x0 PUSH2 0x2530 PUSH1 0x18 DUP4 PUSH2 0x1C0D JUMP JUMPDEST SWAP2 POP PUSH2 0x253B DUP3 PUSH2 0x24FA JUMP JUMPDEST PUSH1 0x20 DUP3 ADD SWAP1 POP SWAP2 SWAP1 POP JUMP JUMPDEST PUSH1 0x0 PUSH1 0x20 DUP3 ADD SWAP1 POP DUP2 DUP2 SUB PUSH1 0x0 DUP4 ADD MSTORE PUSH2 0x255F DUP2 PUSH2 0x2523 JUMP JUMPDEST SWAP1 POP SWAP2 SWAP1 POP JUMP JUMPDEST PUSH32 0x77697468647261776E5F6661696C5F76616C75655F7A65726F00000000000000 PUSH1 0x0 DUP3 ADD MSTORE POP JUMP JUMPDEST PUSH1 0x0 PUSH2 0x259C PUSH1 0x19 DUP4 PUSH2 0x1C0D JUMP JUMPDEST SWAP2 POP PUSH2 0x25A7 DUP3 PUSH2 0x2566 JUMP JUMPDEST PUSH1 0x20 DUP3 ADD SWAP1 POP SWAP2 SWAP1 POP JUMP JUMPDEST PUSH1 0x0 PUSH1 0x20 DUP3 ADD SWAP1 POP DUP2 DUP2 SUB PUSH1 0x0 DUP4 ADD MSTORE PUSH2 0x25CB DUP2 PUSH2 0x258F JUMP JUMPDEST SWAP1 POP SWAP2 SWAP1 POP JUMP JUMPDEST PUSH32 0x77697468647261776E5F6661696C5F62616C616E63655F6E6F745F656E6F7567 PUSH1 0x0 DUP3 ADD MSTORE PUSH32 0x6800000000000000000000000000000000000000000000000000000000000000 PUSH1 0x20 DUP3 ADD MSTORE POP JUMP JUMPDEST PUSH1 0x0 PUSH2 0x262E PUSH1 0x21 DUP4 PUSH2 0x1C0D JUMP JUMPDEST SWAP2 POP PUSH2 0x2639 DUP3 PUSH2 0x25D2 JUMP JUMPDEST PUSH1 0x40 DUP3 ADD SWAP1 POP SWAP2 SWAP1 POP JUMP JUMPDEST PUSH1 0x0 PUSH1 0x20 DUP3 ADD SWAP1 POP DUP2 DUP2 SUB PUSH1 0x0 DUP4 ADD MSTORE PUSH2 0x265D DUP2 PUSH2 0x2621 JUMP JUMPDEST SWAP1 POP SWAP2 SWAP1 POP JUMP JUMPDEST PUSH1 0x0 PUSH1 0x60 DUP3 ADD SWAP1 POP DUP2 DUP2 SUB PUSH1 0x0 DUP4 ADD MSTORE PUSH2 0x267E DUP2 DUP7 PUSH2 0x204E JUMP JUMPDEST SWAP1 POP PUSH2 0x268D PUSH1 0x20 DUP4 ADD DUP6 PUSH2 0x1942 JUMP JUMPDEST PUSH2 0x269A PUSH1 0x40 DUP4 ADD DUP5 PUSH2 0x19F7 JUMP JUMPDEST SWAP5 SWAP4 POP POP POP POP JUMP JUMPDEST PUSH32 0x6465706F7369745F6661696C5F6E616D655F6E6F745F65786973740000000000 PUSH1 0x0 DUP3 ADD MSTORE POP JUMP JUMPDEST PUSH1 0x0 PUSH2 0x26D8 PUSH1 0x1B DUP4 PUSH2 0x1C0D JUMP JUMPDEST SWAP2 POP PUSH2 0x26E3 DUP3 PUSH2 0x26A2 JUMP JUMPDEST PUSH1 0x20 DUP3 ADD SWAP1 POP SWAP2 SWAP1 POP JUMP JUMPDEST PUSH1 0x0 PUSH1 0x20 DUP3 ADD SWAP1 POP DUP2 DUP2 SUB PUSH1 0x0 DUP4 ADD MSTORE PUSH2 0x2707 DUP2 PUSH2 0x26CB JUMP JUMPDEST SWAP1 POP SWAP2 SWAP1 POP JUMP JUMPDEST PUSH32 0x6465706F7369745F6661696C5F76616C75655F7A65726F000000000000000000 PUSH1 0x0 DUP3 ADD MSTORE POP JUMP JUMPDEST PUSH1 0x0 PUSH2 0x2744 PUSH1 0x17 DUP4 PUSH2 0x1C0D JUMP JUMPDEST SWAP2 POP PUSH2 0x274F DUP3 PUSH2 0x270E JUMP JUMPDEST PUSH1 0x20 DUP3 ADD SWAP1 POP SWAP2 SWAP1 POP JUMP JUMPDEST PUSH1 0x0 PUSH1 0x20 DUP3 ADD SWAP1 POP DUP2 DUP2 SUB PUSH1 0x0 DUP4 ADD MSTORE PUSH2 0x2773 DUP2 PUSH2 0x2737 JUMP JUMPDEST SWAP1 POP SWAP2 SWAP1 POP JUMP JUMPDEST PUSH1 0x0 PUSH1 0x60 DUP3 ADD SWAP1 POP PUSH2 0x278F PUSH1 0x0 DUP4 ADD DUP7 PUSH2 0x1942 JUMP JUMPDEST DUP2 DUP2 SUB PUSH1 0x20 DUP4 ADD MSTORE PUSH2 0x27A1 DUP2 DUP6 PUSH2 0x204E JUMP JUMPDEST SWAP1 POP PUSH2 0x27B0 PUSH1 0x40 DUP4 ADD DUP5 PUSH2 0x19F7 JUMP JUMPDEST SWAP5 SWAP4 POP POP POP POP JUMP INVALID LOG2 PUSH5 0x6970667358 0x22 SLT KECCAK256 0xCD 0xF 0xA8 LOG3 SWAP3 PUSH24 0x587C61F525C43EA54E0738F210133A28AC4D45D8090F05EA 0xB6 PUSH1 0x64 PUSH20 0x6F6C634300080F00330000000000000000000000 "
				},
				"gasEstimates": {
					"creation": {
						"codeDepositCost": "2044400",
						"executionCost": "31451",
						"totalCost": "2075851"
					},
					"external": {
						"addAccount(string)": "infinite",
						"deposit(string)": "infinite",
						"getBalanceByName(string)": "infinite",
						"getBankBalance()": "2437",
						"getBankOwner()": "2588",
						"getOwnerByName(string)": "infinite",
						"getUserAccounts()": "infinite",
						"transferAmount(string,string,uint256)": "infinite",
						"transferAmountList(string,string[],uint256)": "infinite",
						"withdrawn(string,uint256)": "infinite",
						"withdrawnBankBalance(uint256)": "infinite"
					}
				},
				"methodIdentifiers": {
					"addAccount(string)": "2ad26a04",
					"deposit(string)": "a26e1186",
					"getBalanceByName(string)": "ca1ae01c",
					"getBankBalance()": "7b83b50b",
					"getBankOwner()": "b2277d2c",
					"getOwnerByName(string)": "4695bfe6",
					"getUserAccounts()": "a43e567a",
					"transferAmount(string,string,uint256)": "5e345810",
					"transferAmountList(string,string[],uint256)": "16dfc5b2",
					"withdrawn(string,uint256)": "358eecb6",
					"withdrawnBankBalance(uint256)": "f8a0e8c3"
				}
			},
			"storageLayout": {
				"storage": [
					{
						"astId": 3,
						"contract": "contracts/SimpleBank/SimpleBank.sol:SimpleBank",
						"label": "bankOwner",
						"offset": 0,
						"slot": "0",
						"type": "t_address"
					},
					{
						"astId": 5,
						"contract": "contracts/SimpleBank/SimpleBank.sol:SimpleBank",
						"label": "bankBalance",
						"offset": 0,
						"slot": "1",
						"type": "t_uint256"
					},
					{
						"astId": 17,
						"contract": "contracts/SimpleBank/SimpleBank.sol:SimpleBank",
						"label": "userAccounts",
						"offset": 0,
						"slot": "2",
						"type": "t_mapping(t_address,t_array(t_string_storage)dyn_storage)"
					},
					{
						"astId": 22,
						"contract": "contracts/SimpleBank/SimpleBank.sol:SimpleBank",
						"label": "accounts",
						"offset": 0,
						"slot": "3",
						"type": "t_mapping(t_string_memory_ptr,t_struct(Account)12_storage)"
					},
					{
						"astId": 26,
						"contract": "contracts/SimpleBank/SimpleBank.sol:SimpleBank",
						"label": "isAccountNameExist",
						"offset": 0,
						"slot": "4",
						"type": "t_mapping(t_string_memory_ptr,t_bool)"
					}
				],
				"types": {
					"t_address": {
						"encoding": "inplace",
						"label": "address",
						"numberOfBytes": "20"
					},
					"t_array(t_string_storage)dyn_storage": {
						"base": "t_string_storage",
						"encoding": "dynamic_array",
						"label": "string[]",
						"numberOfBytes": "32"
					},
					"t_bool": {
						"encoding": "inplace",
						"label": "bool",
						"numberOfBytes": "1"
					},
					"t_mapping(t_address,t_array(t_string_storage)dyn_storage)": {
						"encoding": "mapping",
						"key": "t_address",
						"label": "mapping(address => string[])",
						"numberOfBytes": "32",
						"value": "t_array(t_string_storage)dyn_storage"
					},
					"t_mapping(t_string_memory_ptr,t_bool)": {
						"encoding": "mapping",
						"key": "t_string_memory_ptr",
						"label": "mapping(string => bool)",
						"numberOfBytes": "32",
						"value": "t_bool"
					},
					"t_mapping(t_string_memory_ptr,t_struct(Account)12_storage)": {
						"encoding": "mapping",
						"key": "t_string_memory_ptr",
						"label": "mapping(string => struct SimpleBank.Account)",
						"numberOfBytes": "32",
						"value": "t_struct(Account)12_storage"
					},
					"t_string_memory_ptr": {
						"encoding": "bytes",
						"label": "string",
						"numberOfBytes": "32"
					},
					"t_string_storage": {
						"encoding": "bytes",
						"label": "string",
						"numberOfBytes": "32"
					},
					"t_struct(Account)12_storage": {
						"encoding": "inplace",
						"label": "struct SimpleBank.Account",
						"members": [
							{
								"astId": 7,
								"contract": "contracts/SimpleBank/SimpleBank.sol:SimpleBank",
								"label": "owner",
								"offset": 0,
								"slot": "0",
								"type": "t_address"
							},
							{
								"astId": 9,
								"contract": "contracts/SimpleBank/SimpleBank.sol:SimpleBank",
								"label": "name",
								"offset": 0,
								"slot": "1",
								"type": "t_string_storage"
							},
							{
								"astId": 11,
								"contract": "contracts/SimpleBank/SimpleBank.sol:SimpleBank",
								"label": "balance",
								"offset": 0,
								"slot": "2",
								"type": "t_uint256"
							}
						],
						"numberOfBytes": "96"
					},
					"t_uint256": {
						"encoding": "inplace",
						"label": "uint256",
						"numberOfBytes": "32"
					}
				}
			},
			"userdoc": {
				"kind": "user",
				"methods": {},
				"version": 1
			}
		}
	}
}