{
	"data": {
		"bytecode": {
			"linkReferences": {},
			"object": "60806040523480156200001157600080fd5b50604051620010c4380380620010c4833981810160405281019062000037919062000293565b816000806101000a81548173ffffffffffffffffffffffffffffffffffffffff021916908373ffffffffffffffffffffffffffffffffffffffff160217905550806001908162000088919062000544565b5050506200062b565b6000604051905090565b600080fd5b600080fd5b600073ffffffffffffffffffffffffffffffffffffffff82169050919050565b6000620000d282620000a5565b9050919050565b620000e481620000c5565b8114620000f057600080fd5b50565b6000815190506200010481620000d9565b92915050565b600080fd5b600080fd5b6000601f19601f8301169050919050565b7f4e487b7100000000000000000000000000000000000000000000000000000000600052604160045260246000fd5b6200015f8262000114565b810181811067ffffffffffffffff8211171562000181576200018062000125565b5b80604052505050565b60006200019662000091565b9050620001a4828262000154565b919050565b600067ffffffffffffffff821115620001c757620001c662000125565b5b620001d28262000114565b9050602081019050919050565b60005b83811015620001ff578082015181840152602081019050620001e2565b838111156200020f576000848401525b50505050565b60006200022c6200022684620001a9565b6200018a565b9050828152602081018484840111156200024b576200024a6200010f565b5b62000258848285620001df565b509392505050565b600082601f8301126200027857620002776200010a565b5b81516200028a84826020860162000215565b91505092915050565b60008060408385031215620002ad57620002ac6200009b565b5b6000620002bd85828601620000f3565b925050602083015167ffffffffffffffff811115620002e157620002e0620000a0565b5b620002ef8582860162000260565b9150509250929050565b600081519050919050565b7f4e487b7100000000000000000000000000000000000000000000000000000000600052602260045260246000fd5b600060028204905060018216806200034c57607f821691505b60208210810362000362576200036162000304565b5b50919050565b60008190508160005260206000209050919050565b60006020601f8301049050919050565b600082821b905092915050565b600060088302620003cc7fffffffffffffffffffffffffffffffffffffffffffffffffffffffffffffffff826200038d565b620003d886836200038d565b95508019841693508086168417925050509392505050565b6000819050919050565b6000819050919050565b6000620004256200041f6200041984620003f0565b620003fa565b620003f0565b9050919050565b6000819050919050565b620004418362000404565b6200045962000450826200042c565b8484546200039a565b825550505050565b600090565b6200047062000461565b6200047d81848462000436565b505050565b5b81811015620004a5576200049960008262000466565b60018101905062000483565b5050565b601f821115620004f457620004be8162000368565b620004c9846200037d565b81016020851015620004d9578190505b620004f1620004e8856200037d565b83018262000482565b50505b505050565b600082821c905092915050565b60006200051960001984600802620004f9565b1980831691505092915050565b600062000534838362000506565b9150826002028217905092915050565b6200054f82620002f9565b67ffffffffffffffff8111156200056b576200056a62000125565b5b62000577825462000333565b62000584828285620004a9565b600060209050601f831160018114620005bc5760008415620005a7578287015190505b620005b3858262000526565b86555062000623565b601f198416620005cc8662000368565b60005b82811015620005f657848901518255600182019150602085019450602081019050620005cf565b8683101562000616578489015162000612601f89168262000506565b8355505b6001600288020188555050505b505050505050565b610a89806200063b6000396000f3fe60806040526004361061004e5760003560e01c806312065fe01461005a578063893d20e814610085578063d0e30db0146100b0578063d7081e03146100ba578063e6b43d01146100e357610055565b3661005557005b600080fd5b34801561006657600080fd5b5061006f61010c565b60405161007c9190610503565b60405180910390f35b34801561009157600080fd5b5061009a610114565b6040516100a7919061055f565b60405180910390f35b6100b861013d565b005b3480156100c657600080fd5b506100e160048036038101906100dc91906105e9565b6101bb565b005b3480156100ef57600080fd5b5061010a60048036038101906101059190610629565b610353565b005b600047905090565b60008060009054906101000a900473ffffffffffffffffffffffffffffffffffffffff16905090565b60003411610180576040517f08c379a0000000000000000000000000000000000000000000000000000000008152600401610177906106b3565b60405180910390fd5b7f2d8a08b6430a894aea608bcaa6013d5d3e263bc49110605e4d4ba76930ae5c2933346040516101b19291906106f4565b60405180910390a1565b3373ffffffffffffffffffffffffffffffffffffffff1660008054906101000a900473ffffffffffffffffffffffffffffffffffffffff1673ffffffffffffffffffffffffffffffffffffffff1614610249576040517f08c379a000000000000000000000000000000000000000000000000000000000815260040161024090610769565b60405180910390fd5b6000811161028c576040517f08c379a0000000000000000000000000000000000000000000000000000000008152600401610283906107d5565b60405180910390fd5b804710156102cf576040517f08c379a00000000000000000000000000000000000000000000000000000000081526004016102c690610841565b60405180910390fd5b8173ffffffffffffffffffffffffffffffffffffffff166108fc829081150290604051600060405180830381858888f19350505050158015610315573d6000803e3d6000fd5b507f769b911775301d21672bbef8128a3c1f62035d3b5c74d36c8dff6b67bfc92dad82826040516103479291906108c0565b60405180910390a15050565b3373ffffffffffffffffffffffffffffffffffffffff1660008054906101000a900473ffffffffffffffffffffffffffffffffffffffff1673ffffffffffffffffffffffffffffffffffffffff16146103e1576040517f08c379a00000000000000000000000000000000000000000000000000000000081526004016103d890610935565b60405180910390fd5b60008111610424576040517f08c379a000000000000000000000000000000000000000000000000000000000815260040161041b906109a1565b60405180910390fd5b80471015610467576040517f08c379a000000000000000000000000000000000000000000000000000000000815260040161045e90610a33565b60405180910390fd5b3373ffffffffffffffffffffffffffffffffffffffff166108fc829081150290604051600060405180830381858888f193505050501580156104ad573d6000803e3d6000fd5b507f6ebcbcb4b2536642fac8804d481d6ef6d6b5b881159527a2696de0d0b21967aa33826040516104df9291906106f4565b60405180910390a150565b6000819050919050565b6104fd816104ea565b82525050565b600060208201905061051860008301846104f4565b92915050565b600073ffffffffffffffffffffffffffffffffffffffff82169050919050565b60006105498261051e565b9050919050565b6105598161053e565b82525050565b60006020820190506105746000830184610550565b92915050565b600080fd5b600061058a8261053e565b9050919050565b61059a8161057f565b81146105a557600080fd5b50565b6000813590506105b781610591565b92915050565b6105c6816104ea565b81146105d157600080fd5b50565b6000813590506105e3816105bd565b92915050565b60008060408385031215610600576105ff61057a565b5b600061060e858286016105a8565b925050602061061f858286016105d4565b9150509250929050565b60006020828403121561063f5761063e61057a565b5b600061064d848285016105d4565b91505092915050565b600082825260208201905092915050565b7f6465706f7369745f6661696c5f76616c75655f7a65726f000000000000000000600082015250565b600061069d601783610656565b91506106a882610667565b602082019050919050565b600060208201905081810360008301526106cc81610690565b9050919050565b60006106de8261051e565b9050919050565b6106ee816106d3565b82525050565b600060408201905061070960008301856106e5565b61071660208301846104f4565b9392505050565b7f7472616e736665725f6661696c5f6e6f745f6f776e6572000000000000000000600082015250565b6000610753601783610656565b915061075e8261071d565b602082019050919050565b6000602082019050818103600083015261078281610746565b9050919050565b7f7472616e736665725f6661696c5f76616c75655f7a65726f0000000000000000600082015250565b60006107bf601883610656565b91506107ca82610789565b602082019050919050565b600060208201905081810360008301526107ee816107b2565b9050919050565b7f7472616e736665725f6661696c5f62616c616e63655f6e6f745f656e6f756768600082015250565b600061082b602083610656565b9150610836826107f5565b602082019050919050565b6000602082019050818103600083015261085a8161081e565b9050919050565b6000819050919050565b600061088661088161087c8461051e565b610861565b61051e565b9050919050565b60006108988261086b565b9050919050565b60006108aa8261088d565b9050919050565b6108ba8161089f565b82525050565b60006040820190506108d560008301856108b1565b6108e260208301846104f4565b9392505050565b7f77697468647261776e5f6661696c5f6e6f745f6f776e65720000000000000000600082015250565b600061091f601883610656565b915061092a826108e9565b602082019050919050565b6000602082019050818103600083015261094e81610912565b9050919050565b7f77697468647261776e5f6661696c5f76616c75655f7a65726f00000000000000600082015250565b600061098b601983610656565b915061099682610955565b602082019050919050565b600060208201905081810360008301526109ba8161097e565b9050919050565b7f77697468647261776e5f6661696c5f62616c616e63655f6e6f745f656e6f756760008201527f6800000000000000000000000000000000000000000000000000000000000000602082015250565b6000610a1d602183610656565b9150610a28826109c1565b604082019050919050565b60006020820190508181036000830152610a4c81610a10565b905091905056fea2646970667358221220cb1894388a41bfa14fe95c7d330082d9c04bab28525acc45f488e3c8153933be64736f6c634300080f0033",
			"opcodes": "PUSH1 0x80 PUSH1 0x40 MSTORE CALLVALUE DUP1 ISZERO PUSH3 0x11 JUMPI PUSH1 0x0 DUP1 REVERT JUMPDEST POP PUSH1 0x40 MLOAD PUSH3 0x10C4 CODESIZE SUB DUP1 PUSH3 0x10C4 DUP4 CODECOPY DUP2 DUP2 ADD PUSH1 0x40 MSTORE DUP2 ADD SWAP1 PUSH3 0x37 SWAP2 SWAP1 PUSH3 0x293 JUMP JUMPDEST DUP2 PUSH1 0x0 DUP1 PUSH2 0x100 EXP DUP2 SLOAD DUP2 PUSH20 0xFFFFFFFFFFFFFFFFFFFFFFFFFFFFFFFFFFFFFFFF MUL NOT AND SWAP1 DUP4 PUSH20 0xFFFFFFFFFFFFFFFFFFFFFFFFFFFFFFFFFFFFFFFF AND MUL OR SWAP1 SSTORE POP DUP1 PUSH1 0x1 SWAP1 DUP2 PUSH3 0x88 SWAP2 SWAP1 PUSH3 0x544 JUMP JUMPDEST POP POP POP PUSH3 0x62B JUMP JUMPDEST PUSH1 0x0 PUSH1 0x40 MLOAD SWAP1 POP SWAP1 JUMP JUMPDEST PUSH1 0x0 DUP1 REVERT JUMPDEST PUSH1 0x0 DUP1 REVERT JUMPDEST PUSH1 0x0 PUSH20 0xFFFFFFFFFFFFFFFFFFFFFFFFFFFFFFFFFFFFFFFF DUP3 AND SWAP1 POP SWAP2 SWAP1 POP JUMP JUMPDEST PUSH1 0x0 PUSH3 0xD2 DUP3 PUSH3 0xA5 JUMP JUMPDEST SWAP1 POP SWAP2 SWAP1 POP JUMP JUMPDEST PUSH3 0xE4 DUP2 PUSH3 0xC5 JUMP JUMPDEST DUP2 EQ PUSH3 0xF0 JUMPI PUSH1 0x0 DUP1 REVERT JUMPDEST POP JUMP JUMPDEST PUSH1 0x0 DUP2 MLOAD SWAP1 POP PUSH3 0x104 DUP2 PUSH3 0xD9 JUMP JUMPDEST SWAP3 SWAP2 POP POP JUMP JUMPDEST PUSH1 0x0 DUP1 REVERT JUMPDEST PUSH1 0x0 DUP1 REVERT JUMPDEST PUSH1 0x0 PUSH1 0x1F NOT PUSH1 0x1F DUP4 ADD AND SWAP1 POP SWAP2 SWAP1 POP JUMP JUMPDEST PUSH32 0x4E487B7100000000000000000000000000000000000000000000000000000000 PUSH1 0x0 MSTORE PUSH1 0x41 PUSH1 0x4 MSTORE PUSH1 0x24 PUSH1 0x0 REVERT JUMPDEST PUSH3 0x15F DUP3 PUSH3 0x114 JUMP JUMPDEST DUP2 ADD DUP2 DUP2 LT PUSH8 0xFFFFFFFFFFFFFFFF DUP3 GT OR ISZERO PUSH3 0x181 JUMPI PUSH3 0x180 PUSH3 0x125 JUMP JUMPDEST JUMPDEST DUP1 PUSH1 0x40 MSTORE POP POP POP JUMP JUMPDEST PUSH1 0x0 PUSH3 0x196 PUSH3 0x91 JUMP JUMPDEST SWAP1 POP PUSH3 0x1A4 DUP3 DUP3 PUSH3 0x154 JUMP JUMPDEST SWAP2 SWAP1 POP JUMP JUMPDEST PUSH1 0x0 PUSH8 0xFFFFFFFFFFFFFFFF DUP3 GT ISZERO PUSH3 0x1C7 JUMPI PUSH3 0x1C6 PUSH3 0x125 JUMP JUMPDEST JUMPDEST PUSH3 0x1D2 DUP3 PUSH3 0x114 JUMP JUMPDEST SWAP1 POP PUSH1 0x20 DUP2 ADD SWAP1 POP SWAP2 SWAP1 POP JUMP JUMPDEST PUSH1 0x0 JUMPDEST DUP4 DUP2 LT ISZERO PUSH3 0x1FF JUMPI DUP1 DUP3 ADD MLOAD DUP2 DUP5 ADD MSTORE PUSH1 0x20 DUP2 ADD SWAP1 POP PUSH3 0x1E2 JUMP JUMPDEST DUP4 DUP2 GT ISZERO PUSH3 0x20F JUMPI PUSH1 0x0 DUP5 DUP5 ADD MSTORE JUMPDEST POP POP POP POP JUMP JUMPDEST PUSH1 0x0 PUSH3 0x22C PUSH3 0x226 DUP5 PUSH3 0x1A9 JUMP JUMPDEST PUSH3 0x18A JUMP JUMPDEST SWAP1 POP DUP3 DUP2 MSTORE PUSH1 0x20 DUP2 ADD DUP5 DUP5 DUP5 ADD GT ISZERO PUSH3 0x24B JUMPI PUSH3 0x24A PUSH3 0x10F JUMP JUMPDEST JUMPDEST PUSH3 0x258 DUP5 DUP3 DUP6 PUSH3 0x1DF JUMP JUMPDEST POP SWAP4 SWAP3 POP POP POP JUMP JUMPDEST PUSH1 0x0 DUP3 PUSH1 0x1F DUP4 ADD SLT PUSH3 0x278 JUMPI PUSH3 0x277 PUSH3 0x10A JUMP JUMPDEST JUMPDEST DUP2 MLOAD PUSH3 0x28A DUP5 DUP3 PUSH1 0x20 DUP7 ADD PUSH3 0x215 JUMP JUMPDEST SWAP2 POP POP SWAP3 SWAP2 POP POP JUMP JUMPDEST PUSH1 0x0 DUP1 PUSH1 0x40 DUP4 DUP6 SUB SLT ISZERO PUSH3 0x2AD JUMPI PUSH3 0x2AC PUSH3 0x9B JUMP JUMPDEST JUMPDEST PUSH1 0x0 PUSH3 0x2BD DUP6 DUP3 DUP7 ADD PUSH3 0xF3 JUMP JUMPDEST SWAP3 POP POP PUSH1 0x20 DUP4 ADD MLOAD PUSH8 0xFFFFFFFFFFFFFFFF DUP2 GT ISZERO PUSH3 0x2E1 JUMPI PUSH3 0x2E0 PUSH3 0xA0 JUMP JUMPDEST JUMPDEST PUSH3 0x2EF DUP6 DUP3 DUP7 ADD PUSH3 0x260 JUMP JUMPDEST SWAP2 POP POP SWAP3 POP SWAP3 SWAP1 POP JUMP JUMPDEST PUSH1 0x0 DUP2 MLOAD SWAP1 POP SWAP2 SWAP1 POP JUMP JUMPDEST PUSH32 0x4E487B7100000000000000000000000000000000000000000000000000000000 PUSH1 0x0 MSTORE PUSH1 0x22 PUSH1 0x4 MSTORE PUSH1 0x24 PUSH1 0x0 REVERT JUMPDEST PUSH1 0x0 PUSH1 0x2 DUP3 DIV SWAP1 POP PUSH1 0x1 DUP3 AND DUP1 PUSH3 0x34C JUMPI PUSH1 0x7F DUP3 AND SWAP2 POP JUMPDEST PUSH1 0x20 DUP3 LT DUP2 SUB PUSH3 0x362 JUMPI PUSH3 0x361 PUSH3 0x304 JUMP JUMPDEST JUMPDEST POP SWAP2 SWAP1 POP JUMP JUMPDEST PUSH1 0x0 DUP2 SWAP1 POP DUP2 PUSH1 0x0 MSTORE PUSH1 0x20 PUSH1 0x0 KECCAK256 SWAP1 POP SWAP2 SWAP1 POP JUMP JUMPDEST PUSH1 0x0 PUSH1 0x20 PUSH1 0x1F DUP4 ADD DIV SWAP1 POP SWAP2 SWAP1 POP JUMP JUMPDEST PUSH1 0x0 DUP3 DUP3 SHL SWAP1 POP SWAP3 SWAP2 POP POP JUMP JUMPDEST PUSH1 0x0 PUSH1 0x8 DUP4 MUL PUSH3 0x3CC PUSH32 0xFFFFFFFFFFFFFFFFFFFFFFFFFFFFFFFFFFFFFFFFFFFFFFFFFFFFFFFFFFFFFFFF DUP3 PUSH3 0x38D JUMP JUMPDEST PUSH3 0x3D8 DUP7 DUP4 PUSH3 0x38D JUMP JUMPDEST SWAP6 POP DUP1 NOT DUP5 AND SWAP4 POP DUP1 DUP7 AND DUP5 OR SWAP3 POP POP POP SWAP4 SWAP3 POP POP POP JUMP JUMPDEST PUSH1 0x0 DUP2 SWAP1 POP SWAP2 SWAP1 POP JUMP JUMPDEST PUSH1 0x0 DUP2 SWAP1 POP SWAP2 SWAP1 POP JUMP JUMPDEST PUSH1 0x0 PUSH3 0x425 PUSH3 0x41F PUSH3 0x419 DUP5 PUSH3 0x3F0 JUMP JUMPDEST PUSH3 0x3FA JUMP JUMPDEST PUSH3 0x3F0 JUMP JUMPDEST SWAP1 POP SWAP2 SWAP1 POP JUMP JUMPDEST PUSH1 0x0 DUP2 SWAP1 POP SWAP2 SWAP1 POP JUMP JUMPDEST PUSH3 0x441 DUP4 PUSH3 0x404 JUMP JUMPDEST PUSH3 0x459 PUSH3 0x450 DUP3 PUSH3 0x42C JUMP JUMPDEST DUP5 DUP5 SLOAD PUSH3 0x39A JUMP JUMPDEST DUP3 SSTORE POP POP POP POP JUMP JUMPDEST PUSH1 0x0 SWAP1 JUMP JUMPDEST PUSH3 0x470 PUSH3 0x461 JUMP JUMPDEST PUSH3 0x47D DUP2 DUP5 DUP5 PUSH3 0x436 JUMP JUMPDEST POP POP POP JUMP JUMPDEST JUMPDEST DUP2 DUP2 LT ISZERO PUSH3 0x4A5 JUMPI PUSH3 0x499 PUSH1 0x0 DUP3 PUSH3 0x466 JUMP JUMPDEST PUSH1 0x1 DUP2 ADD SWAP1 POP PUSH3 0x483 JUMP JUMPDEST POP POP JUMP JUMPDEST PUSH1 0x1F DUP3 GT ISZERO PUSH3 0x4F4 JUMPI PUSH3 0x4BE DUP2 PUSH3 0x368 JUMP JUMPDEST PUSH3 0x4C9 DUP5 PUSH3 0x37D JUMP JUMPDEST DUP2 ADD PUSH1 0x20 DUP6 LT ISZERO PUSH3 0x4D9 JUMPI DUP2 SWAP1 POP JUMPDEST PUSH3 0x4F1 PUSH3 0x4E8 DUP6 PUSH3 0x37D JUMP JUMPDEST DUP4 ADD DUP3 PUSH3 0x482 JUMP JUMPDEST POP POP JUMPDEST POP POP POP JUMP JUMPDEST PUSH1 0x0 DUP3 DUP3 SHR SWAP1 POP SWAP3 SWAP2 POP POP JUMP JUMPDEST PUSH1 0x0 PUSH3 0x519 PUSH1 0x0 NOT DUP5 PUSH1 0x8 MUL PUSH3 0x4F9 JUMP JUMPDEST NOT DUP1 DUP4 AND SWAP2 POP POP SWAP3 SWAP2 POP POP JUMP JUMPDEST PUSH1 0x0 PUSH3 0x534 DUP4 DUP4 PUSH3 0x506 JUMP JUMPDEST SWAP2 POP DUP3 PUSH1 0x2 MUL DUP3 OR SWAP1 POP SWAP3 SWAP2 POP POP JUMP JUMPDEST PUSH3 0x54F DUP3 PUSH3 0x2F9 JUMP JUMPDEST PUSH8 0xFFFFFFFFFFFFFFFF DUP2 GT ISZERO PUSH3 0x56B JUMPI PUSH3 0x56A PUSH3 0x125 JUMP JUMPDEST JUMPDEST PUSH3 0x577 DUP3 SLOAD PUSH3 0x333 JUMP JUMPDEST PUSH3 0x584 DUP3 DUP3 DUP6 PUSH3 0x4A9 JUMP JUMPDEST PUSH1 0x0 PUSH1 0x20 SWAP1 POP PUSH1 0x1F DUP4 GT PUSH1 0x1 DUP2 EQ PUSH3 0x5BC JUMPI PUSH1 0x0 DUP5 ISZERO PUSH3 0x5A7 JUMPI DUP3 DUP8 ADD MLOAD SWAP1 POP JUMPDEST PUSH3 0x5B3 DUP6 DUP3 PUSH3 0x526 JUMP JUMPDEST DUP7 SSTORE POP PUSH3 0x623 JUMP JUMPDEST PUSH1 0x1F NOT DUP5 AND PUSH3 0x5CC DUP7 PUSH3 0x368 JUMP JUMPDEST PUSH1 0x0 JUMPDEST DUP3 DUP2 LT ISZERO PUSH3 0x5F6 JUMPI DUP5 DUP10 ADD MLOAD DUP3 SSTORE PUSH1 0x1 DUP3 ADD SWAP2 POP PUSH1 0x20 DUP6 ADD SWAP5 POP PUSH1 0x20 DUP2 ADD SWAP1 POP PUSH3 0x5CF JUMP JUMPDEST DUP7 DUP4 LT ISZERO PUSH3 0x616 JUMPI DUP5 DUP10 ADD MLOAD PUSH3 0x612 PUSH1 0x1F DUP10 AND DUP3 PUSH3 0x506 JUMP JUMPDEST DUP4 SSTORE POP JUMPDEST PUSH1 0x1 PUSH1 0x2 DUP9 MUL ADD DUP9 SSTORE POP POP POP JUMPDEST POP POP POP POP POP POP JUMP JUMPDEST PUSH2 0xA89 DUP1 PUSH3 0x63B PUSH1 0x0 CODECOPY PUSH1 0x0 RETURN INVALID PUSH1 0x80 PUSH1 0x40 MSTORE PUSH1 0x4 CALLDATASIZE LT PUSH2 0x4E JUMPI PUSH1 0x0 CALLDATALOAD PUSH1 0xE0 SHR DUP1 PUSH4 0x12065FE0 EQ PUSH2 0x5A JUMPI DUP1 PUSH4 0x893D20E8 EQ PUSH2 0x85 JUMPI DUP1 PUSH4 0xD0E30DB0 EQ PUSH2 0xB0 JUMPI DUP1 PUSH4 0xD7081E03 EQ PUSH2 0xBA JUMPI DUP1 PUSH4 0xE6B43D01 EQ PUSH2 0xE3 JUMPI PUSH2 0x55 JUMP JUMPDEST CALLDATASIZE PUSH2 0x55 JUMPI STOP JUMPDEST PUSH1 0x0 DUP1 REVERT JUMPDEST CALLVALUE DUP1 ISZERO PUSH2 0x66 JUMPI PUSH1 0x0 DUP1 REVERT JUMPDEST POP PUSH2 0x6F PUSH2 0x10C JUMP JUMPDEST PUSH1 0x40 MLOAD PUSH2 0x7C SWAP2 SWAP1 PUSH2 0x503 JUMP JUMPDEST PUSH1 0x40 MLOAD DUP1 SWAP2 SUB SWAP1 RETURN JUMPDEST CALLVALUE DUP1 ISZERO PUSH2 0x91 JUMPI PUSH1 0x0 DUP1 REVERT JUMPDEST POP PUSH2 0x9A PUSH2 0x114 JUMP JUMPDEST PUSH1 0x40 MLOAD PUSH2 0xA7 SWAP2 SWAP1 PUSH2 0x55F JUMP JUMPDEST PUSH1 0x40 MLOAD DUP1 SWAP2 SUB SWAP1 RETURN JUMPDEST PUSH2 0xB8 PUSH2 0x13D JUMP JUMPDEST STOP JUMPDEST CALLVALUE DUP1 ISZERO PUSH2 0xC6 JUMPI PUSH1 0x0 DUP1 REVERT JUMPDEST POP PUSH2 0xE1 PUSH1 0x4 DUP1 CALLDATASIZE SUB DUP2 ADD SWAP1 PUSH2 0xDC SWAP2 SWAP1 PUSH2 0x5E9 JUMP JUMPDEST PUSH2 0x1BB JUMP JUMPDEST STOP JUMPDEST CALLVALUE DUP1 ISZERO PUSH2 0xEF JUMPI PUSH1 0x0 DUP1 REVERT JUMPDEST POP PUSH2 0x10A PUSH1 0x4 DUP1 CALLDATASIZE SUB DUP2 ADD SWAP1 PUSH2 0x105 SWAP2 SWAP1 PUSH2 0x629 JUMP JUMPDEST PUSH2 0x353 JUMP JUMPDEST STOP JUMPDEST PUSH1 0x0 SELFBALANCE SWAP1 POP SWAP1 JUMP JUMPDEST PUSH1 0x0 DUP1 PUSH1 0x0 SWAP1 SLOAD SWAP1 PUSH2 0x100 EXP SWAP1 DIV PUSH20 0xFFFFFFFFFFFFFFFFFFFFFFFFFFFFFFFFFFFFFFFF AND SWAP1 POP SWAP1 JUMP JUMPDEST PUSH1 0x0 CALLVALUE GT PUSH2 0x180 JUMPI PUSH1 0x40 MLOAD PUSH32 0x8C379A000000000000000000000000000000000000000000000000000000000 DUP2 MSTORE PUSH1 0x4 ADD PUSH2 0x177 SWAP1 PUSH2 0x6B3 JUMP JUMPDEST PUSH1 0x40 MLOAD DUP1 SWAP2 SUB SWAP1 REVERT JUMPDEST PUSH32 0x2D8A08B6430A894AEA608BCAA6013D5D3E263BC49110605E4D4BA76930AE5C29 CALLER CALLVALUE PUSH1 0x40 MLOAD PUSH2 0x1B1 SWAP3 SWAP2 SWAP1 PUSH2 0x6F4 JUMP JUMPDEST PUSH1 0x40 MLOAD DUP1 SWAP2 SUB SWAP1 LOG1 JUMP JUMPDEST CALLER PUSH20 0xFFFFFFFFFFFFFFFFFFFFFFFFFFFFFFFFFFFFFFFF AND PUSH1 0x0 DUP1 SLOAD SWAP1 PUSH2 0x100 EXP SWAP1 DIV PUSH20 0xFFFFFFFFFFFFFFFFFFFFFFFFFFFFFFFFFFFFFFFF AND PUSH20 0xFFFFFFFFFFFFFFFFFFFFFFFFFFFFFFFFFFFFFFFF AND EQ PUSH2 0x249 JUMPI PUSH1 0x40 MLOAD PUSH32 0x8C379A000000000000000000000000000000000000000000000000000000000 DUP2 MSTORE PUSH1 0x4 ADD PUSH2 0x240 SWAP1 PUSH2 0x769 JUMP JUMPDEST PUSH1 0x40 MLOAD DUP1 SWAP2 SUB SWAP1 REVERT JUMPDEST PUSH1 0x0 DUP2 GT PUSH2 0x28C JUMPI PUSH1 0x40 MLOAD PUSH32 0x8C379A000000000000000000000000000000000000000000000000000000000 DUP2 MSTORE PUSH1 0x4 ADD PUSH2 0x283 SWAP1 PUSH2 0x7D5 JUMP JUMPDEST PUSH1 0x40 MLOAD DUP1 SWAP2 SUB SWAP1 REVERT JUMPDEST DUP1 SELFBALANCE LT ISZERO PUSH2 0x2CF JUMPI PUSH1 0x40 MLOAD PUSH32 0x8C379A000000000000000000000000000000000000000000000000000000000 DUP2 MSTORE PUSH1 0x4 ADD PUSH2 0x2C6 SWAP1 PUSH2 0x841 JUMP JUMPDEST PUSH1 0x40 MLOAD DUP1 SWAP2 SUB SWAP1 REVERT JUMPDEST DUP2 PUSH20 0xFFFFFFFFFFFFFFFFFFFFFFFFFFFFFFFFFFFFFFFF AND PUSH2 0x8FC DUP3 SWAP1 DUP2 ISZERO MUL SWAP1 PUSH1 0x40 MLOAD PUSH1 0x0 PUSH1 0x40 MLOAD DUP1 DUP4 SUB DUP2 DUP6 DUP9 DUP9 CALL SWAP4 POP POP POP POP ISZERO DUP1 ISZERO PUSH2 0x315 JUMPI RETURNDATASIZE PUSH1 0x0 DUP1 RETURNDATACOPY RETURNDATASIZE PUSH1 0x0 REVERT JUMPDEST POP PUSH32 0x769B911775301D21672BBEF8128A3C1F62035D3B5C74D36C8DFF6B67BFC92DAD DUP3 DUP3 PUSH1 0x40 MLOAD PUSH2 0x347 SWAP3 SWAP2 SWAP1 PUSH2 0x8C0 JUMP JUMPDEST PUSH1 0x40 MLOAD DUP1 SWAP2 SUB SWAP1 LOG1 POP POP JUMP JUMPDEST CALLER PUSH20 0xFFFFFFFFFFFFFFFFFFFFFFFFFFFFFFFFFFFFFFFF AND PUSH1 0x0 DUP1 SLOAD SWAP1 PUSH2 0x100 EXP SWAP1 DIV PUSH20 0xFFFFFFFFFFFFFFFFFFFFFFFFFFFFFFFFFFFFFFFF AND PUSH20 0xFFFFFFFFFFFFFFFFFFFFFFFFFFFFFFFFFFFFFFFF AND EQ PUSH2 0x3E1 JUMPI PUSH1 0x40 MLOAD PUSH32 0x8C379A000000000000000000000000000000000000000000000000000000000 DUP2 MSTORE PUSH1 0x4 ADD PUSH2 0x3D8 SWAP1 PUSH2 0x935 JUMP JUMPDEST PUSH1 0x40 MLOAD DUP1 SWAP2 SUB SWAP1 REVERT JUMPDEST PUSH1 0x0 DUP2 GT PUSH2 0x424 JUMPI PUSH1 0x40 MLOAD PUSH32 0x8C379A000000000000000000000000000000000000000000000000000000000 DUP2 MSTORE PUSH1 0x4 ADD PUSH2 0x41B SWAP1 PUSH2 0x9A1 JUMP JUMPDEST PUSH1 0x40 MLOAD DUP1 SWAP2 SUB SWAP1 REVERT JUMPDEST DUP1 SELFBALANCE LT ISZERO PUSH2 0x467 JUMPI PUSH1 0x40 MLOAD PUSH32 0x8C379A000000000000000000000000000000000000000000000000000000000 DUP2 MSTORE PUSH1 0x4 ADD PUSH2 0x45E SWAP1 PUSH2 0xA33 JUMP JUMPDEST PUSH1 0x40 MLOAD DUP1 SWAP2 SUB SWAP1 REVERT JUMPDEST CALLER PUSH20 0xFFFFFFFFFFFFFFFFFFFFFFFFFFFFFFFFFFFFFFFF AND PUSH2 0x8FC DUP3 SWAP1 DUP2 ISZERO MUL SWAP1 PUSH1 0x40 MLOAD PUSH1 0x0 PUSH1 0x40 MLOAD DUP1 DUP4 SUB DUP2 DUP6 DUP9 DUP9 CALL SWAP4 POP POP POP POP ISZERO DUP1 ISZERO PUSH2 0x4AD JUMPI RETURNDATASIZE PUSH1 0x0 DUP1 RETURNDATACOPY RETURNDATASIZE PUSH1 0x0 REVERT JUMPDEST POP PUSH32 0x6EBCBCB4B2536642FAC8804D481D6EF6D6B5B881159527A2696DE0D0B21967AA CALLER DUP3 PUSH1 0x40 MLOAD PUSH2 0x4DF SWAP3 SWAP2 SWAP1 PUSH2 0x6F4 JUMP JUMPDEST PUSH1 0x40 MLOAD DUP1 SWAP2 SUB SWAP1 LOG1 POP JUMP JUMPDEST PUSH1 0x0 DUP2 SWAP1 POP SWAP2 SWAP1 POP JUMP JUMPDEST PUSH2 0x4FD DUP2 PUSH2 0x4EA JUMP JUMPDEST DUP3 MSTORE POP POP JUMP JUMPDEST PUSH1 0x0 PUSH1 0x20 DUP3 ADD SWAP1 POP PUSH2 0x518 PUSH1 0x0 DUP4 ADD DUP5 PUSH2 0x4F4 JUMP JUMPDEST SWAP3 SWAP2 POP POP JUMP JUMPDEST PUSH1 0x0 PUSH20 0xFFFFFFFFFFFFFFFFFFFFFFFFFFFFFFFFFFFFFFFF DUP3 AND SWAP1 POP SWAP2 SWAP1 POP JUMP JUMPDEST PUSH1 0x0 PUSH2 0x549 DUP3 PUSH2 0x51E JUMP JUMPDEST SWAP1 POP SWAP2 SWAP1 POP JUMP JUMPDEST PUSH2 0x559 DUP2 PUSH2 0x53E JUMP JUMPDEST DUP3 MSTORE POP POP JUMP JUMPDEST PUSH1 0x0 PUSH1 0x20 DUP3 ADD SWAP1 POP PUSH2 0x574 PUSH1 0x0 DUP4 ADD DUP5 PUSH2 0x550 JUMP JUMPDEST SWAP3 SWAP2 POP POP JUMP JUMPDEST PUSH1 0x0 DUP1 REVERT JUMPDEST PUSH1 0x0 PUSH2 0x58A DUP3 PUSH2 0x53E JUMP JUMPDEST SWAP1 POP SWAP2 SWAP1 POP JUMP JUMPDEST PUSH2 0x59A DUP2 PUSH2 0x57F JUMP JUMPDEST DUP2 EQ PUSH2 0x5A5 JUMPI PUSH1 0x0 DUP1 REVERT JUMPDEST POP JUMP JUMPDEST PUSH1 0x0 DUP2 CALLDATALOAD SWAP1 POP PUSH2 0x5B7 DUP2 PUSH2 0x591 JUMP JUMPDEST SWAP3 SWAP2 POP POP JUMP JUMPDEST PUSH2 0x5C6 DUP2 PUSH2 0x4EA JUMP JUMPDEST DUP2 EQ PUSH2 0x5D1 JUMPI PUSH1 0x0 DUP1 REVERT JUMPDEST POP JUMP JUMPDEST PUSH1 0x0 DUP2 CALLDATALOAD SWAP1 POP PUSH2 0x5E3 DUP2 PUSH2 0x5BD JUMP JUMPDEST SWAP3 SWAP2 POP POP JUMP JUMPDEST PUSH1 0x0 DUP1 PUSH1 0x40 DUP4 DUP6 SUB SLT ISZERO PUSH2 0x600 JUMPI PUSH2 0x5FF PUSH2 0x57A JUMP JUMPDEST JUMPDEST PUSH1 0x0 PUSH2 0x60E DUP6 DUP3 DUP7 ADD PUSH2 0x5A8 JUMP JUMPDEST SWAP3 POP POP PUSH1 0x20 PUSH2 0x61F DUP6 DUP3 DUP7 ADD PUSH2 0x5D4 JUMP JUMPDEST SWAP2 POP POP SWAP3 POP SWAP3 SWAP1 POP JUMP JUMPDEST PUSH1 0x0 PUSH1 0x20 DUP3 DUP5 SUB SLT ISZERO PUSH2 0x63F JUMPI PUSH2 0x63E PUSH2 0x57A JUMP JUMPDEST JUMPDEST PUSH1 0x0 PUSH2 0x64D DUP5 DUP3 DUP6 ADD PUSH2 0x5D4 JUMP JUMPDEST SWAP2 POP POP SWAP3 SWAP2 POP POP JUMP JUMPDEST PUSH1 0x0 DUP3 DUP3 MSTORE PUSH1 0x20 DUP3 ADD SWAP1 POP SWAP3 SWAP2 POP POP JUMP JUMPDEST PUSH32 0x6465706F7369745F6661696C5F76616C75655F7A65726F000000000000000000 PUSH1 0x0 DUP3 ADD MSTORE POP JUMP JUMPDEST PUSH1 0x0 PUSH2 0x69D PUSH1 0x17 DUP4 PUSH2 0x656 JUMP JUMPDEST SWAP2 POP PUSH2 0x6A8 DUP3 PUSH2 0x667 JUMP JUMPDEST PUSH1 0x20 DUP3 ADD SWAP1 POP SWAP2 SWAP1 POP JUMP JUMPDEST PUSH1 0x0 PUSH1 0x20 DUP3 ADD SWAP1 POP DUP2 DUP2 SUB PUSH1 0x0 DUP4 ADD MSTORE PUSH2 0x6CC DUP2 PUSH2 0x690 JUMP JUMPDEST SWAP1 POP SWAP2 SWAP1 POP JUMP JUMPDEST PUSH1 0x0 PUSH2 0x6DE DUP3 PUSH2 0x51E JUMP JUMPDEST SWAP1 POP SWAP2 SWAP1 POP JUMP JUMPDEST PUSH2 0x6EE DUP2 PUSH2 0x6D3 JUMP JUMPDEST DUP3 MSTORE POP POP JUMP JUMPDEST PUSH1 0x0 PUSH1 0x40 DUP3 ADD SWAP1 POP PUSH2 0x709 PUSH1 0x0 DUP4 ADD DUP6 PUSH2 0x6E5 JUMP JUMPDEST PUSH2 0x716 PUSH1 0x20 DUP4 ADD DUP5 PUSH2 0x4F4 JUMP JUMPDEST SWAP4 SWAP3 POP POP POP JUMP JUMPDEST PUSH32 0x7472616E736665725F6661696C5F6E6F745F6F776E6572000000000000000000 PUSH1 0x0 DUP3 ADD MSTORE POP JUMP JUMPDEST PUSH1 0x0 PUSH2 0x753 PUSH1 0x17 DUP4 PUSH2 0x656 JUMP JUMPDEST SWAP2 POP PUSH2 0x75E DUP3 PUSH2 0x71D JUMP JUMPDEST PUSH1 0x20 DUP3 ADD SWAP1 POP SWAP2 SWAP1 POP JUMP JUMPDEST PUSH1 0x0 PUSH1 0x20 DUP3 ADD SWAP1 POP DUP2 DUP2 SUB PUSH1 0x0 DUP4 ADD MSTORE PUSH2 0x782 DUP2 PUSH2 0x746 JUMP JUMPDEST SWAP1 POP SWAP2 SWAP1 POP JUMP JUMPDEST PUSH32 0x7472616E736665725F6661696C5F76616C75655F7A65726F0000000000000000 PUSH1 0x0 DUP3 ADD MSTORE POP JUMP JUMPDEST PUSH1 0x0 PUSH2 0x7BF PUSH1 0x18 DUP4 PUSH2 0x656 JUMP JUMPDEST SWAP2 POP PUSH2 0x7CA DUP3 PUSH2 0x789 JUMP JUMPDEST PUSH1 0x20 DUP3 ADD SWAP1 POP SWAP2 SWAP1 POP JUMP JUMPDEST PUSH1 0x0 PUSH1 0x20 DUP3 ADD SWAP1 POP DUP2 DUP2 SUB PUSH1 0x0 DUP4 ADD MSTORE PUSH2 0x7EE DUP2 PUSH2 0x7B2 JUMP JUMPDEST SWAP1 POP SWAP2 SWAP1 POP JUMP JUMPDEST PUSH32 0x7472616E736665725F6661696C5F62616C616E63655F6E6F745F656E6F756768 PUSH1 0x0 DUP3 ADD MSTORE POP JUMP JUMPDEST PUSH1 0x0 PUSH2 0x82B PUSH1 0x20 DUP4 PUSH2 0x656 JUMP JUMPDEST SWAP2 POP PUSH2 0x836 DUP3 PUSH2 0x7F5 JUMP JUMPDEST PUSH1 0x20 DUP3 ADD SWAP1 POP SWAP2 SWAP1 POP JUMP JUMPDEST PUSH1 0x0 PUSH1 0x20 DUP3 ADD SWAP1 POP DUP2 DUP2 SUB PUSH1 0x0 DUP4 ADD MSTORE PUSH2 0x85A DUP2 PUSH2 0x81E JUMP JUMPDEST SWAP1 POP SWAP2 SWAP1 POP JUMP JUMPDEST PUSH1 0x0 DUP2 SWAP1 POP SWAP2 SWAP1 POP JUMP JUMPDEST PUSH1 0x0 PUSH2 0x886 PUSH2 0x881 PUSH2 0x87C DUP5 PUSH2 0x51E JUMP JUMPDEST PUSH2 0x861 JUMP JUMPDEST PUSH2 0x51E JUMP JUMPDEST SWAP1 POP SWAP2 SWAP1 POP JUMP JUMPDEST PUSH1 0x0 PUSH2 0x898 DUP3 PUSH2 0x86B JUMP JUMPDEST SWAP1 POP SWAP2 SWAP1 POP JUMP JUMPDEST PUSH1 0x0 PUSH2 0x8AA DUP3 PUSH2 0x88D JUMP JUMPDEST SWAP1 POP SWAP2 SWAP1 POP JUMP JUMPDEST PUSH2 0x8BA DUP2 PUSH2 0x89F JUMP JUMPDEST DUP3 MSTORE POP POP JUMP JUMPDEST PUSH1 0x0 PUSH1 0x40 DUP3 ADD SWAP1 POP PUSH2 0x8D5 PUSH1 0x0 DUP4 ADD DUP6 PUSH2 0x8B1 JUMP JUMPDEST PUSH2 0x8E2 PUSH1 0x20 DUP4 ADD DUP5 PUSH2 0x4F4 JUMP JUMPDEST SWAP4 SWAP3 POP POP POP JUMP JUMPDEST PUSH32 0x77697468647261776E5F6661696C5F6E6F745F6F776E65720000000000000000 PUSH1 0x0 DUP3 ADD MSTORE POP JUMP JUMPDEST PUSH1 0x0 PUSH2 0x91F PUSH1 0x18 DUP4 PUSH2 0x656 JUMP JUMPDEST SWAP2 POP PUSH2 0x92A DUP3 PUSH2 0x8E9 JUMP JUMPDEST PUSH1 0x20 DUP3 ADD SWAP1 POP SWAP2 SWAP1 POP JUMP JUMPDEST PUSH1 0x0 PUSH1 0x20 DUP3 ADD SWAP1 POP DUP2 DUP2 SUB PUSH1 0x0 DUP4 ADD MSTORE PUSH2 0x94E DUP2 PUSH2 0x912 JUMP JUMPDEST SWAP1 POP SWAP2 SWAP1 POP JUMP JUMPDEST PUSH32 0x77697468647261776E5F6661696C5F76616C75655F7A65726F00000000000000 PUSH1 0x0 DUP3 ADD MSTORE POP JUMP JUMPDEST PUSH1 0x0 PUSH2 0x98B PUSH1 0x19 DUP4 PUSH2 0x656 JUMP JUMPDEST SWAP2 POP PUSH2 0x996 DUP3 PUSH2 0x955 JUMP JUMPDEST PUSH1 0x20 DUP3 ADD SWAP1 POP SWAP2 SWAP1 POP JUMP JUMPDEST PUSH1 0x0 PUSH1 0x20 DUP3 ADD SWAP1 POP DUP2 DUP2 SUB PUSH1 0x0 DUP4 ADD MSTORE PUSH2 0x9BA DUP2 PUSH2 0x97E JUMP JUMPDEST SWAP1 POP SWAP2 SWAP1 POP JUMP JUMPDEST PUSH32 0x77697468647261776E5F6661696C5F62616C616E63655F6E6F745F656E6F7567 PUSH1 0x0 DUP3 ADD MSTORE PUSH32 0x6800000000000000000000000000000000000000000000000000000000000000 PUSH1 0x20 DUP3 ADD MSTORE POP JUMP JUMPDEST PUSH1 0x0 PUSH2 0xA1D PUSH1 0x21 DUP4 PUSH2 0x656 JUMP JUMPDEST SWAP2 POP PUSH2 0xA28 DUP3 PUSH2 0x9C1 JUMP JUMPDEST PUSH1 0x40 DUP3 ADD SWAP1 POP SWAP2 SWAP1 POP JUMP JUMPDEST PUSH1 0x0 PUSH1 0x20 DUP3 ADD SWAP1 POP DUP2 DUP2 SUB PUSH1 0x0 DUP4 ADD MSTORE PUSH2 0xA4C DUP2 PUSH2 0xA10 JUMP JUMPDEST SWAP1 POP SWAP2 SWAP1 POP JUMP INVALID LOG2 PUSH5 0x6970667358 0x22 SLT KECCAK256 0xCB XOR SWAP5 CODESIZE DUP11 COINBASE 0xBF LOG1 0x4F 0xE9 0x5C PUSH30 0x330082D9C04BAB28525ACC45F488E3C8153933BE64736F6C634300080F00 CALLER "
		},
		"gasEstimates": {
			"creation": {
				"codeDepositCost": "539400",
				"executionCost": "infinite",
				"totalCost": "infinite"
			},
			"external": {
				"deposit()": "1761",
				"getBalance()": "317",
				"getOwner()": "2522",
				"transferAmount(address,uint256)": "infinite",
				"withdrawn(uint256)": "infinite"
			}
		},
		"methodIdentifiers": {
			"deposit()": "d0e30db0",
			"getBalance()": "12065fe0",
			"getOwner()": "893d20e8",
			"transferAmount(address,uint256)": "d7081e03",
			"withdrawn(uint256)": "e6b43d01"
		}
	},
	"abi": [
		{
			"inputs": [
				{
					"internalType": "address",
					"name": "_owner",
					"type": "address"
				},
				{
					"internalType": "string",
					"name": "_name",
					"type": "string"
				}
			],
			"stateMutability": "nonpayable",
			"type": "constructor"
		},
		{
			"anonymous": false,
			"inputs": [
				{
					"indexed": false,
					"internalType": "address",
					"name": "_from",
					"type": "address"
				},
				{
					"indexed": false,
					"internalType": "uint256",
					"name": "_amount",
					"type": "uint256"
				}
			],
			"name": "DepositEvent",
			"type": "event"
		},
		{
			"anonymous": false,
			"inputs": [
				{
					"indexed": false,
					"internalType": "contract Account",
					"name": "_to",
					"type": "address"
				},
				{
					"indexed": false,
					"internalType": "uint256",
					"name": "_amount",
					"type": "uint256"
				}
			],
			"name": "TransferAmountEvent",
			"type": "event"
		},
		{
			"anonymous": false,
			"inputs": [
				{
					"indexed": false,
					"internalType": "address",
					"name": "_to",
					"type": "address"
				},
				{
					"indexed": false,
					"internalType": "uint256",
					"name": "_amount",
					"type": "uint256"
				}
			],
			"name": "WithdrawnEvent",
			"type": "event"
		},
		{
			"inputs": [],
			"name": "deposit",
			"outputs": [],
			"stateMutability": "payable",
			"type": "function"
		},
		{
			"inputs": [],
			"name": "getBalance",
			"outputs": [
				{
					"internalType": "uint256",
					"name": "",
					"type": "uint256"
				}
			],
			"stateMutability": "view",
			"type": "function"
		},
		{
			"inputs": [],
			"name": "getOwner",
			"outputs": [
				{
					"internalType": "address payable",
					"name": "",
					"type": "address"
				}
			],
			"stateMutability": "view",
			"type": "function"
		},
		{
			"inputs": [
				{
					"internalType": "contract Account",
					"name": "_receiver",
					"type": "address"
				},
				{
					"internalType": "uint256",
					"name": "_amount",
					"type": "uint256"
				}
			],
			"name": "transferAmount",
			"outputs": [],
			"stateMutability": "nonpayable",
			"type": "function"
		},
		{
			"inputs": [
				{
					"internalType": "uint256",
					"name": "_amount",
					"type": "uint256"
				}
			],
			"name": "withdrawn",
			"outputs": [],
			"stateMutability": "nonpayable",
			"type": "function"
		},
		{
			"stateMutability": "payable",
			"type": "receive"
		}
	]
}