{
	"data": {
		"bytecode": {
			"linkReferences": {},
			"object": "608060405234801561001057600080fd5b506119ac806100206000396000f3fe60806040523480156200001157600080fd5b50600436106200003a5760003560e01c80632ad26a04146200003f5780638a48ac031462000075575b600080fd5b6200005d600480360381019062000057919062000514565b62000097565b6040516200006c9190620005f8565b60405180910390f35b6200007f620002c4565b6040516200008e919062000764565b60405180910390f35b606060001515600283604051620000af9190620007ca565b908152602001604051809103902060009054906101000a900460ff1615151462000110576040517f08c379a0000000000000000000000000000000000000000000000000000000008152600401620001079062000833565b60405180910390fd5b6001600283604051620001249190620007ca565b908152602001604051809103902060006101000a81548160ff021916908315150217905550600033836040516200015b9062000390565b620001689291906200087a565b604051809103906000f08015801562000185573d6000803e3d6000fd5b5090506000803373ffffffffffffffffffffffffffffffffffffffff1673ffffffffffffffffffffffffffffffffffffffff168152602001908152602001600020819080600181540180825580915050600190039060005260206000200160009091909190916101000a81548173ffffffffffffffffffffffffffffffffffffffff021916908373ffffffffffffffffffffffffffffffffffffffff160217905550806001846040516200023a9190620007ca565b908152602001604051809103902060006101000a81548173ffffffffffffffffffffffffffffffffffffffff021916908373ffffffffffffffffffffffffffffffffffffffff1602179055506040518060400160405280601381526020017f6164645f6163636f756e745f7375636365737300000000000000000000000000815250915050919050565b60606000803373ffffffffffffffffffffffffffffffffffffffff1673ffffffffffffffffffffffffffffffffffffffff1681526020019081526020016000208054806020026020016040519081016040528092919081815260200182805480156200038657602002820191906000526020600020905b8160009054906101000a900473ffffffffffffffffffffffffffffffffffffffff1673ffffffffffffffffffffffffffffffffffffffff16815260200190600101908083116200033b575b5050505050905090565b6110c880620008af83390190565b6000604051905090565b600080fd5b600080fd5b600080fd5b600080fd5b6000601f19601f8301169050919050565b7f4e487b7100000000000000000000000000000000000000000000000000000000600052604160045260246000fd5b6200040782620003bc565b810181811067ffffffffffffffff82111715620004295762000428620003cd565b5b80604052505050565b60006200043e6200039e565b90506200044c8282620003fc565b919050565b600067ffffffffffffffff8211156200046f576200046e620003cd565b5b6200047a82620003bc565b9050602081019050919050565b82818337600083830152505050565b6000620004ad620004a78462000451565b62000432565b905082815260208101848484011115620004cc57620004cb620003b7565b5b620004d984828562000487565b509392505050565b600082601f830112620004f957620004f8620003b2565b5b81356200050b84826020860162000496565b91505092915050565b6000602082840312156200052d576200052c620003a8565b5b600082013567ffffffffffffffff8111156200054e576200054d620003ad565b5b6200055c84828501620004e1565b91505092915050565b600081519050919050565b600082825260208201905092915050565b60005b83811015620005a157808201518184015260208101905062000584565b83811115620005b1576000848401525b50505050565b6000620005c48262000565565b620005d0818562000570565b9350620005e281856020860162000581565b620005ed81620003bc565b840191505092915050565b60006020820190508181036000830152620006148184620005b7565b905092915050565b600081519050919050565b600082825260208201905092915050565b6000819050602082019050919050565b600073ffffffffffffffffffffffffffffffffffffffff82169050919050565b6000819050919050565b6000620006936200068d620006878462000648565b62000668565b62000648565b9050919050565b6000620006a78262000672565b9050919050565b6000620006bb826200069a565b9050919050565b620006cd81620006ae565b82525050565b6000620006e18383620006c2565b60208301905092915050565b6000602082019050919050565b600062000707826200061c565b62000713818562000627565b9350620007208362000638565b8060005b83811015620007575781516200073b8882620006d3565b97506200074883620006ed565b92505060018101905062000724565b5085935050505092915050565b60006020820190508181036000830152620007808184620006fa565b905092915050565b600081905092915050565b6000620007a08262000565565b620007ac818562000788565b9350620007be81856020860162000581565b80840191505092915050565b6000620007d8828462000793565b915081905092915050565b7f6164645f6163636f756e745f6661696c5f6e616d655f65786973740000000000600082015250565b60006200081b601b8362000570565b91506200082882620007e3565b602082019050919050565b600060208201905081810360008301526200084e816200080c565b9050919050565b6000620008628262000648565b9050919050565b620008748162000855565b82525050565b600060408201905062000891600083018562000869565b8181036020830152620008a58184620005b7565b9050939250505056fe60806040523480156200001157600080fd5b50604051620010c8380380620010c8833981810160405281019062000037919062000293565b816000806101000a81548173ffffffffffffffffffffffffffffffffffffffff021916908373ffffffffffffffffffffffffffffffffffffffff160217905550806001908162000088919062000544565b5050506200062b565b6000604051905090565b600080fd5b600080fd5b600073ffffffffffffffffffffffffffffffffffffffff82169050919050565b6000620000d282620000a5565b9050919050565b620000e481620000c5565b8114620000f057600080fd5b50565b6000815190506200010481620000d9565b92915050565b600080fd5b600080fd5b6000601f19601f8301169050919050565b7f4e487b7100000000000000000000000000000000000000000000000000000000600052604160045260246000fd5b6200015f8262000114565b810181811067ffffffffffffffff8211171562000181576200018062000125565b5b80604052505050565b60006200019662000091565b9050620001a4828262000154565b919050565b600067ffffffffffffffff821115620001c757620001c662000125565b5b620001d28262000114565b9050602081019050919050565b60005b83811015620001ff578082015181840152602081019050620001e2565b838111156200020f576000848401525b50505050565b60006200022c6200022684620001a9565b6200018a565b9050828152602081018484840111156200024b576200024a6200010f565b5b62000258848285620001df565b509392505050565b600082601f8301126200027857620002776200010a565b5b81516200028a84826020860162000215565b91505092915050565b60008060408385031215620002ad57620002ac6200009b565b5b6000620002bd85828601620000f3565b925050602083015167ffffffffffffffff811115620002e157620002e0620000a0565b5b620002ef8582860162000260565b9150509250929050565b600081519050919050565b7f4e487b7100000000000000000000000000000000000000000000000000000000600052602260045260246000fd5b600060028204905060018216806200034c57607f821691505b60208210810362000362576200036162000304565b5b50919050565b60008190508160005260206000209050919050565b60006020601f8301049050919050565b600082821b905092915050565b600060088302620003cc7fffffffffffffffffffffffffffffffffffffffffffffffffffffffffffffffff826200038d565b620003d886836200038d565b95508019841693508086168417925050509392505050565b6000819050919050565b6000819050919050565b6000620004256200041f6200041984620003f0565b620003fa565b620003f0565b9050919050565b6000819050919050565b620004418362000404565b6200045962000450826200042c565b8484546200039a565b825550505050565b600090565b6200047062000461565b6200047d81848462000436565b505050565b5b81811015620004a5576200049960008262000466565b60018101905062000483565b5050565b601f821115620004f457620004be8162000368565b620004c9846200037d565b81016020851015620004d9578190505b620004f1620004e8856200037d565b83018262000482565b50505b505050565b600082821c905092915050565b60006200051960001984600802620004f9565b1980831691505092915050565b600062000534838362000506565b9150826002028217905092915050565b6200054f82620002f9565b67ffffffffffffffff8111156200056b576200056a62000125565b5b62000577825462000333565b62000584828285620004a9565b600060209050601f831160018114620005bc5760008415620005a7578287015190505b620005b3858262000526565b86555062000623565b601f198416620005cc8662000368565b60005b82811015620005f657848901518255600182019150602085019450602081019050620005cf565b8683101562000616578489015162000612601f89168262000506565b8355505b6001600288020188555050505b505050505050565b610a8d806200063b6000396000f3fe60806040526004361061004a5760003560e01c806312065fe01461004f578063893d20e81461007a578063a9059cbb146100a5578063d0e30db0146100d5578063e6b43d01146100f3575b600080fd5b34801561005b57600080fd5b50610064610130565b604051610071919061052f565b60405180910390f35b34801561008657600080fd5b5061008f610138565b60405161009c919061058b565b60405180910390f35b6100bf60048036038101906100ba9190610615565b610161565b6040516100cc91906106ee565b60405180910390f35b6100dd6102fc565b6040516100ea91906106ee565b60405180910390f35b3480156100ff57600080fd5b5061011a60048036038101906101159190610710565b61037c565b60405161012791906106ee565b60405180910390f35b600047905090565b60008060009054906101000a900473ffffffffffffffffffffffffffffffffffffffff16905090565b60603373ffffffffffffffffffffffffffffffffffffffff1660008054906101000a900473ffffffffffffffffffffffffffffffffffffffff1673ffffffffffffffffffffffffffffffffffffffff16146101f1576040517f08c379a00000000000000000000000000000000000000000000000000000000081526004016101e890610789565b60405180910390fd5b60008211610234576040517f08c379a000000000000000000000000000000000000000000000000000000000815260040161022b906107f5565b60405180910390fd5b81471015610277576040517f08c379a000000000000000000000000000000000000000000000000000000000815260040161026e90610861565b60405180910390fd5b8273ffffffffffffffffffffffffffffffffffffffff166108fc839081150290604051600060405180830381858888f193505050501580156102bd573d6000803e3d6000fd5b506040518060400160405280601081526020017f7472616e736665725f7375636365737300000000000000000000000000000000815250905092915050565b606060003411610341576040517f08c379a0000000000000000000000000000000000000000000000000000000008152600401610338906108cd565b60405180910390fd5b6040518060400160405280600f81526020017f6465706f7369745f737563636573730000000000000000000000000000000000815250905090565b60603373ffffffffffffffffffffffffffffffffffffffff1660008054906101000a900473ffffffffffffffffffffffffffffffffffffffff1673ffffffffffffffffffffffffffffffffffffffff161461040c576040517f08c379a000000000000000000000000000000000000000000000000000000000815260040161040390610939565b60405180910390fd5b6000821161044f576040517f08c379a0000000000000000000000000000000000000000000000000000000008152600401610446906109a5565b60405180910390fd5b81471015610492576040517f08c379a000000000000000000000000000000000000000000000000000000000815260040161048990610a37565b60405180910390fd5b3373ffffffffffffffffffffffffffffffffffffffff166108fc839081150290604051600060405180830381858888f193505050501580156104d8573d6000803e3d6000fd5b506040518060400160405280601181526020017f77697468647261776e5f737563636573730000000000000000000000000000008152509050919050565b6000819050919050565b61052981610516565b82525050565b60006020820190506105446000830184610520565b92915050565b600073ffffffffffffffffffffffffffffffffffffffff82169050919050565b60006105758261054a565b9050919050565b6105858161056a565b82525050565b60006020820190506105a0600083018461057c565b92915050565b600080fd5b60006105b68261054a565b9050919050565b6105c6816105ab565b81146105d157600080fd5b50565b6000813590506105e3816105bd565b92915050565b6105f281610516565b81146105fd57600080fd5b50565b60008135905061060f816105e9565b92915050565b6000806040838503121561062c5761062b6105a6565b5b600061063a858286016105d4565b925050602061064b85828601610600565b9150509250929050565b600081519050919050565b600082825260208201905092915050565b60005b8381101561068f578082015181840152602081019050610674565b8381111561069e576000848401525b50505050565b6000601f19601f8301169050919050565b60006106c082610655565b6106ca8185610660565b93506106da818560208601610671565b6106e3816106a4565b840191505092915050565b6000602082019050818103600083015261070881846106b5565b905092915050565b600060208284031215610726576107256105a6565b5b600061073484828501610600565b91505092915050565b7f7472616e736665725f6661696c5f6e6f745f6f776e6572000000000000000000600082015250565b6000610773601783610660565b915061077e8261073d565b602082019050919050565b600060208201905081810360008301526107a281610766565b9050919050565b7f7472616e736665725f6661696c5f76616c75655f7a65726f0000000000000000600082015250565b60006107df601883610660565b91506107ea826107a9565b602082019050919050565b6000602082019050818103600083015261080e816107d2565b9050919050565b7f7472616e736665725f6661696c5f62616c616e63655f6e6f745f656e6f756768600082015250565b600061084b602083610660565b915061085682610815565b602082019050919050565b6000602082019050818103600083015261087a8161083e565b9050919050565b7f6465706f7369745f6661696c5f76616c75655f7a65726f000000000000000000600082015250565b60006108b7601783610660565b91506108c282610881565b602082019050919050565b600060208201905081810360008301526108e6816108aa565b9050919050565b7f77697468647261776e5f6661696c5f6e6f745f6f776e65720000000000000000600082015250565b6000610923601883610660565b915061092e826108ed565b602082019050919050565b6000602082019050818103600083015261095281610916565b9050919050565b7f77697468647261776e5f6661696c5f76616c75655f7a65726f00000000000000600082015250565b600061098f601983610660565b915061099a82610959565b602082019050919050565b600060208201905081810360008301526109be81610982565b9050919050565b7f77697468647261776e5f6661696c5f62616c616e63655f6e6f745f656e6f756760008201527f6800000000000000000000000000000000000000000000000000000000000000602082015250565b6000610a21602183610660565b9150610a2c826109c5565b604082019050919050565b60006020820190508181036000830152610a5081610a14565b905091905056fea26469706673582212202a41d198ffd9abdbe1a9a6e315892763a7c520ea9d8a34f7c43a3256418cfcf364736f6c634300080f0033a26469706673582212207c7e600888b8077f9910b48cf3f9229b5dcdbaf0d05c9be4708c8261d180dd1a64736f6c634300080f0033",
			"opcodes": "PUSH1 0x80 PUSH1 0x40 MSTORE CALLVALUE DUP1 ISZERO PUSH2 0x10 JUMPI PUSH1 0x0 DUP1 REVERT JUMPDEST POP PUSH2 0x19AC DUP1 PUSH2 0x20 PUSH1 0x0 CODECOPY PUSH1 0x0 RETURN INVALID PUSH1 0x80 PUSH1 0x40 MSTORE CALLVALUE DUP1 ISZERO PUSH3 0x11 JUMPI PUSH1 0x0 DUP1 REVERT JUMPDEST POP PUSH1 0x4 CALLDATASIZE LT PUSH3 0x3A JUMPI PUSH1 0x0 CALLDATALOAD PUSH1 0xE0 SHR DUP1 PUSH4 0x2AD26A04 EQ PUSH3 0x3F JUMPI DUP1 PUSH4 0x8A48AC03 EQ PUSH3 0x75 JUMPI JUMPDEST PUSH1 0x0 DUP1 REVERT JUMPDEST PUSH3 0x5D PUSH1 0x4 DUP1 CALLDATASIZE SUB DUP2 ADD SWAP1 PUSH3 0x57 SWAP2 SWAP1 PUSH3 0x514 JUMP JUMPDEST PUSH3 0x97 JUMP JUMPDEST PUSH1 0x40 MLOAD PUSH3 0x6C SWAP2 SWAP1 PUSH3 0x5F8 JUMP JUMPDEST PUSH1 0x40 MLOAD DUP1 SWAP2 SUB SWAP1 RETURN JUMPDEST PUSH3 0x7F PUSH3 0x2C4 JUMP JUMPDEST PUSH1 0x40 MLOAD PUSH3 0x8E SWAP2 SWAP1 PUSH3 0x764 JUMP JUMPDEST PUSH1 0x40 MLOAD DUP1 SWAP2 SUB SWAP1 RETURN JUMPDEST PUSH1 0x60 PUSH1 0x0 ISZERO ISZERO PUSH1 0x2 DUP4 PUSH1 0x40 MLOAD PUSH3 0xAF SWAP2 SWAP1 PUSH3 0x7CA JUMP JUMPDEST SWAP1 DUP2 MSTORE PUSH1 0x20 ADD PUSH1 0x40 MLOAD DUP1 SWAP2 SUB SWAP1 KECCAK256 PUSH1 0x0 SWAP1 SLOAD SWAP1 PUSH2 0x100 EXP SWAP1 DIV PUSH1 0xFF AND ISZERO ISZERO EQ PUSH3 0x110 JUMPI PUSH1 0x40 MLOAD PUSH32 0x8C379A000000000000000000000000000000000000000000000000000000000 DUP2 MSTORE PUSH1 0x4 ADD PUSH3 0x107 SWAP1 PUSH3 0x833 JUMP JUMPDEST PUSH1 0x40 MLOAD DUP1 SWAP2 SUB SWAP1 REVERT JUMPDEST PUSH1 0x1 PUSH1 0x2 DUP4 PUSH1 0x40 MLOAD PUSH3 0x124 SWAP2 SWAP1 PUSH3 0x7CA JUMP JUMPDEST SWAP1 DUP2 MSTORE PUSH1 0x20 ADD PUSH1 0x40 MLOAD DUP1 SWAP2 SUB SWAP1 KECCAK256 PUSH1 0x0 PUSH2 0x100 EXP DUP2 SLOAD DUP2 PUSH1 0xFF MUL NOT AND SWAP1 DUP4 ISZERO ISZERO MUL OR SWAP1 SSTORE POP PUSH1 0x0 CALLER DUP4 PUSH1 0x40 MLOAD PUSH3 0x15B SWAP1 PUSH3 0x390 JUMP JUMPDEST PUSH3 0x168 SWAP3 SWAP2 SWAP1 PUSH3 0x87A JUMP JUMPDEST PUSH1 0x40 MLOAD DUP1 SWAP2 SUB SWAP1 PUSH1 0x0 CREATE DUP1 ISZERO DUP1 ISZERO PUSH3 0x185 JUMPI RETURNDATASIZE PUSH1 0x0 DUP1 RETURNDATACOPY RETURNDATASIZE PUSH1 0x0 REVERT JUMPDEST POP SWAP1 POP PUSH1 0x0 DUP1 CALLER PUSH20 0xFFFFFFFFFFFFFFFFFFFFFFFFFFFFFFFFFFFFFFFF AND PUSH20 0xFFFFFFFFFFFFFFFFFFFFFFFFFFFFFFFFFFFFFFFF AND DUP2 MSTORE PUSH1 0x20 ADD SWAP1 DUP2 MSTORE PUSH1 0x20 ADD PUSH1 0x0 KECCAK256 DUP2 SWAP1 DUP1 PUSH1 0x1 DUP2 SLOAD ADD DUP1 DUP3 SSTORE DUP1 SWAP2 POP POP PUSH1 0x1 SWAP1 SUB SWAP1 PUSH1 0x0 MSTORE PUSH1 0x20 PUSH1 0x0 KECCAK256 ADD PUSH1 0x0 SWAP1 SWAP2 SWAP1 SWAP2 SWAP1 SWAP2 PUSH2 0x100 EXP DUP2 SLOAD DUP2 PUSH20 0xFFFFFFFFFFFFFFFFFFFFFFFFFFFFFFFFFFFFFFFF MUL NOT AND SWAP1 DUP4 PUSH20 0xFFFFFFFFFFFFFFFFFFFFFFFFFFFFFFFFFFFFFFFF AND MUL OR SWAP1 SSTORE POP DUP1 PUSH1 0x1 DUP5 PUSH1 0x40 MLOAD PUSH3 0x23A SWAP2 SWAP1 PUSH3 0x7CA JUMP JUMPDEST SWAP1 DUP2 MSTORE PUSH1 0x20 ADD PUSH1 0x40 MLOAD DUP1 SWAP2 SUB SWAP1 KECCAK256 PUSH1 0x0 PUSH2 0x100 EXP DUP2 SLOAD DUP2 PUSH20 0xFFFFFFFFFFFFFFFFFFFFFFFFFFFFFFFFFFFFFFFF MUL NOT AND SWAP1 DUP4 PUSH20 0xFFFFFFFFFFFFFFFFFFFFFFFFFFFFFFFFFFFFFFFF AND MUL OR SWAP1 SSTORE POP PUSH1 0x40 MLOAD DUP1 PUSH1 0x40 ADD PUSH1 0x40 MSTORE DUP1 PUSH1 0x13 DUP2 MSTORE PUSH1 0x20 ADD PUSH32 0x6164645F6163636F756E745F7375636365737300000000000000000000000000 DUP2 MSTORE POP SWAP2 POP POP SWAP2 SWAP1 POP JUMP JUMPDEST PUSH1 0x60 PUSH1 0x0 DUP1 CALLER PUSH20 0xFFFFFFFFFFFFFFFFFFFFFFFFFFFFFFFFFFFFFFFF AND PUSH20 0xFFFFFFFFFFFFFFFFFFFFFFFFFFFFFFFFFFFFFFFF AND DUP2 MSTORE PUSH1 0x20 ADD SWAP1 DUP2 MSTORE PUSH1 0x20 ADD PUSH1 0x0 KECCAK256 DUP1 SLOAD DUP1 PUSH1 0x20 MUL PUSH1 0x20 ADD PUSH1 0x40 MLOAD SWAP1 DUP2 ADD PUSH1 0x40 MSTORE DUP1 SWAP3 SWAP2 SWAP1 DUP2 DUP2 MSTORE PUSH1 0x20 ADD DUP3 DUP1 SLOAD DUP1 ISZERO PUSH3 0x386 JUMPI PUSH1 0x20 MUL DUP3 ADD SWAP2 SWAP1 PUSH1 0x0 MSTORE PUSH1 0x20 PUSH1 0x0 KECCAK256 SWAP1 JUMPDEST DUP2 PUSH1 0x0 SWAP1 SLOAD SWAP1 PUSH2 0x100 EXP SWAP1 DIV PUSH20 0xFFFFFFFFFFFFFFFFFFFFFFFFFFFFFFFFFFFFFFFF AND PUSH20 0xFFFFFFFFFFFFFFFFFFFFFFFFFFFFFFFFFFFFFFFF AND DUP2 MSTORE PUSH1 0x20 ADD SWAP1 PUSH1 0x1 ADD SWAP1 DUP1 DUP4 GT PUSH3 0x33B JUMPI JUMPDEST POP POP POP POP POP SWAP1 POP SWAP1 JUMP JUMPDEST PUSH2 0x10C8 DUP1 PUSH3 0x8AF DUP4 CODECOPY ADD SWAP1 JUMP JUMPDEST PUSH1 0x0 PUSH1 0x40 MLOAD SWAP1 POP SWAP1 JUMP JUMPDEST PUSH1 0x0 DUP1 REVERT JUMPDEST PUSH1 0x0 DUP1 REVERT JUMPDEST PUSH1 0x0 DUP1 REVERT JUMPDEST PUSH1 0x0 DUP1 REVERT JUMPDEST PUSH1 0x0 PUSH1 0x1F NOT PUSH1 0x1F DUP4 ADD AND SWAP1 POP SWAP2 SWAP1 POP JUMP JUMPDEST PUSH32 0x4E487B7100000000000000000000000000000000000000000000000000000000 PUSH1 0x0 MSTORE PUSH1 0x41 PUSH1 0x4 MSTORE PUSH1 0x24 PUSH1 0x0 REVERT JUMPDEST PUSH3 0x407 DUP3 PUSH3 0x3BC JUMP JUMPDEST DUP2 ADD DUP2 DUP2 LT PUSH8 0xFFFFFFFFFFFFFFFF DUP3 GT OR ISZERO PUSH3 0x429 JUMPI PUSH3 0x428 PUSH3 0x3CD JUMP JUMPDEST JUMPDEST DUP1 PUSH1 0x40 MSTORE POP POP POP JUMP JUMPDEST PUSH1 0x0 PUSH3 0x43E PUSH3 0x39E JUMP JUMPDEST SWAP1 POP PUSH3 0x44C DUP3 DUP3 PUSH3 0x3FC JUMP JUMPDEST SWAP2 SWAP1 POP JUMP JUMPDEST PUSH1 0x0 PUSH8 0xFFFFFFFFFFFFFFFF DUP3 GT ISZERO PUSH3 0x46F JUMPI PUSH3 0x46E PUSH3 0x3CD JUMP JUMPDEST JUMPDEST PUSH3 0x47A DUP3 PUSH3 0x3BC JUMP JUMPDEST SWAP1 POP PUSH1 0x20 DUP2 ADD SWAP1 POP SWAP2 SWAP1 POP JUMP JUMPDEST DUP3 DUP2 DUP4 CALLDATACOPY PUSH1 0x0 DUP4 DUP4 ADD MSTORE POP POP POP JUMP JUMPDEST PUSH1 0x0 PUSH3 0x4AD PUSH3 0x4A7 DUP5 PUSH3 0x451 JUMP JUMPDEST PUSH3 0x432 JUMP JUMPDEST SWAP1 POP DUP3 DUP2 MSTORE PUSH1 0x20 DUP2 ADD DUP5 DUP5 DUP5 ADD GT ISZERO PUSH3 0x4CC JUMPI PUSH3 0x4CB PUSH3 0x3B7 JUMP JUMPDEST JUMPDEST PUSH3 0x4D9 DUP5 DUP3 DUP6 PUSH3 0x487 JUMP JUMPDEST POP SWAP4 SWAP3 POP POP POP JUMP JUMPDEST PUSH1 0x0 DUP3 PUSH1 0x1F DUP4 ADD SLT PUSH3 0x4F9 JUMPI PUSH3 0x4F8 PUSH3 0x3B2 JUMP JUMPDEST JUMPDEST DUP2 CALLDATALOAD PUSH3 0x50B DUP5 DUP3 PUSH1 0x20 DUP7 ADD PUSH3 0x496 JUMP JUMPDEST SWAP2 POP POP SWAP3 SWAP2 POP POP JUMP JUMPDEST PUSH1 0x0 PUSH1 0x20 DUP3 DUP5 SUB SLT ISZERO PUSH3 0x52D JUMPI PUSH3 0x52C PUSH3 0x3A8 JUMP JUMPDEST JUMPDEST PUSH1 0x0 DUP3 ADD CALLDATALOAD PUSH8 0xFFFFFFFFFFFFFFFF DUP2 GT ISZERO PUSH3 0x54E JUMPI PUSH3 0x54D PUSH3 0x3AD JUMP JUMPDEST JUMPDEST PUSH3 0x55C DUP5 DUP3 DUP6 ADD PUSH3 0x4E1 JUMP JUMPDEST SWAP2 POP POP SWAP3 SWAP2 POP POP JUMP JUMPDEST PUSH1 0x0 DUP2 MLOAD SWAP1 POP SWAP2 SWAP1 POP JUMP JUMPDEST PUSH1 0x0 DUP3 DUP3 MSTORE PUSH1 0x20 DUP3 ADD SWAP1 POP SWAP3 SWAP2 POP POP JUMP JUMPDEST PUSH1 0x0 JUMPDEST DUP4 DUP2 LT ISZERO PUSH3 0x5A1 JUMPI DUP1 DUP3 ADD MLOAD DUP2 DUP5 ADD MSTORE PUSH1 0x20 DUP2 ADD SWAP1 POP PUSH3 0x584 JUMP JUMPDEST DUP4 DUP2 GT ISZERO PUSH3 0x5B1 JUMPI PUSH1 0x0 DUP5 DUP5 ADD MSTORE JUMPDEST POP POP POP POP JUMP JUMPDEST PUSH1 0x0 PUSH3 0x5C4 DUP3 PUSH3 0x565 JUMP JUMPDEST PUSH3 0x5D0 DUP2 DUP6 PUSH3 0x570 JUMP JUMPDEST SWAP4 POP PUSH3 0x5E2 DUP2 DUP6 PUSH1 0x20 DUP7 ADD PUSH3 0x581 JUMP JUMPDEST PUSH3 0x5ED DUP2 PUSH3 0x3BC JUMP JUMPDEST DUP5 ADD SWAP2 POP POP SWAP3 SWAP2 POP POP JUMP JUMPDEST PUSH1 0x0 PUSH1 0x20 DUP3 ADD SWAP1 POP DUP2 DUP2 SUB PUSH1 0x0 DUP4 ADD MSTORE PUSH3 0x614 DUP2 DUP5 PUSH3 0x5B7 JUMP JUMPDEST SWAP1 POP SWAP3 SWAP2 POP POP JUMP JUMPDEST PUSH1 0x0 DUP2 MLOAD SWAP1 POP SWAP2 SWAP1 POP JUMP JUMPDEST PUSH1 0x0 DUP3 DUP3 MSTORE PUSH1 0x20 DUP3 ADD SWAP1 POP SWAP3 SWAP2 POP POP JUMP JUMPDEST PUSH1 0x0 DUP2 SWAP1 POP PUSH1 0x20 DUP3 ADD SWAP1 POP SWAP2 SWAP1 POP JUMP JUMPDEST PUSH1 0x0 PUSH20 0xFFFFFFFFFFFFFFFFFFFFFFFFFFFFFFFFFFFFFFFF DUP3 AND SWAP1 POP SWAP2 SWAP1 POP JUMP JUMPDEST PUSH1 0x0 DUP2 SWAP1 POP SWAP2 SWAP1 POP JUMP JUMPDEST PUSH1 0x0 PUSH3 0x693 PUSH3 0x68D PUSH3 0x687 DUP5 PUSH3 0x648 JUMP JUMPDEST PUSH3 0x668 JUMP JUMPDEST PUSH3 0x648 JUMP JUMPDEST SWAP1 POP SWAP2 SWAP1 POP JUMP JUMPDEST PUSH1 0x0 PUSH3 0x6A7 DUP3 PUSH3 0x672 JUMP JUMPDEST SWAP1 POP SWAP2 SWAP1 POP JUMP JUMPDEST PUSH1 0x0 PUSH3 0x6BB DUP3 PUSH3 0x69A JUMP JUMPDEST SWAP1 POP SWAP2 SWAP1 POP JUMP JUMPDEST PUSH3 0x6CD DUP2 PUSH3 0x6AE JUMP JUMPDEST DUP3 MSTORE POP POP JUMP JUMPDEST PUSH1 0x0 PUSH3 0x6E1 DUP4 DUP4 PUSH3 0x6C2 JUMP JUMPDEST PUSH1 0x20 DUP4 ADD SWAP1 POP SWAP3 SWAP2 POP POP JUMP JUMPDEST PUSH1 0x0 PUSH1 0x20 DUP3 ADD SWAP1 POP SWAP2 SWAP1 POP JUMP JUMPDEST PUSH1 0x0 PUSH3 0x707 DUP3 PUSH3 0x61C JUMP JUMPDEST PUSH3 0x713 DUP2 DUP6 PUSH3 0x627 JUMP JUMPDEST SWAP4 POP PUSH3 0x720 DUP4 PUSH3 0x638 JUMP JUMPDEST DUP1 PUSH1 0x0 JUMPDEST DUP4 DUP2 LT ISZERO PUSH3 0x757 JUMPI DUP2 MLOAD PUSH3 0x73B DUP9 DUP3 PUSH3 0x6D3 JUMP JUMPDEST SWAP8 POP PUSH3 0x748 DUP4 PUSH3 0x6ED JUMP JUMPDEST SWAP3 POP POP PUSH1 0x1 DUP2 ADD SWAP1 POP PUSH3 0x724 JUMP JUMPDEST POP DUP6 SWAP4 POP POP POP POP SWAP3 SWAP2 POP POP JUMP JUMPDEST PUSH1 0x0 PUSH1 0x20 DUP3 ADD SWAP1 POP DUP2 DUP2 SUB PUSH1 0x0 DUP4 ADD MSTORE PUSH3 0x780 DUP2 DUP5 PUSH3 0x6FA JUMP JUMPDEST SWAP1 POP SWAP3 SWAP2 POP POP JUMP JUMPDEST PUSH1 0x0 DUP2 SWAP1 POP SWAP3 SWAP2 POP POP JUMP JUMPDEST PUSH1 0x0 PUSH3 0x7A0 DUP3 PUSH3 0x565 JUMP JUMPDEST PUSH3 0x7AC DUP2 DUP6 PUSH3 0x788 JUMP JUMPDEST SWAP4 POP PUSH3 0x7BE DUP2 DUP6 PUSH1 0x20 DUP7 ADD PUSH3 0x581 JUMP JUMPDEST DUP1 DUP5 ADD SWAP2 POP POP SWAP3 SWAP2 POP POP JUMP JUMPDEST PUSH1 0x0 PUSH3 0x7D8 DUP3 DUP5 PUSH3 0x793 JUMP JUMPDEST SWAP2 POP DUP2 SWAP1 POP SWAP3 SWAP2 POP POP JUMP JUMPDEST PUSH32 0x6164645F6163636F756E745F6661696C5F6E616D655F65786973740000000000 PUSH1 0x0 DUP3 ADD MSTORE POP JUMP JUMPDEST PUSH1 0x0 PUSH3 0x81B PUSH1 0x1B DUP4 PUSH3 0x570 JUMP JUMPDEST SWAP2 POP PUSH3 0x828 DUP3 PUSH3 0x7E3 JUMP JUMPDEST PUSH1 0x20 DUP3 ADD SWAP1 POP SWAP2 SWAP1 POP JUMP JUMPDEST PUSH1 0x0 PUSH1 0x20 DUP3 ADD SWAP1 POP DUP2 DUP2 SUB PUSH1 0x0 DUP4 ADD MSTORE PUSH3 0x84E DUP2 PUSH3 0x80C JUMP JUMPDEST SWAP1 POP SWAP2 SWAP1 POP JUMP JUMPDEST PUSH1 0x0 PUSH3 0x862 DUP3 PUSH3 0x648 JUMP JUMPDEST SWAP1 POP SWAP2 SWAP1 POP JUMP JUMPDEST PUSH3 0x874 DUP2 PUSH3 0x855 JUMP JUMPDEST DUP3 MSTORE POP POP JUMP JUMPDEST PUSH1 0x0 PUSH1 0x40 DUP3 ADD SWAP1 POP PUSH3 0x891 PUSH1 0x0 DUP4 ADD DUP6 PUSH3 0x869 JUMP JUMPDEST DUP2 DUP2 SUB PUSH1 0x20 DUP4 ADD MSTORE PUSH3 0x8A5 DUP2 DUP5 PUSH3 0x5B7 JUMP JUMPDEST SWAP1 POP SWAP4 SWAP3 POP POP POP JUMP INVALID PUSH1 0x80 PUSH1 0x40 MSTORE CALLVALUE DUP1 ISZERO PUSH3 0x11 JUMPI PUSH1 0x0 DUP1 REVERT JUMPDEST POP PUSH1 0x40 MLOAD PUSH3 0x10C8 CODESIZE SUB DUP1 PUSH3 0x10C8 DUP4 CODECOPY DUP2 DUP2 ADD PUSH1 0x40 MSTORE DUP2 ADD SWAP1 PUSH3 0x37 SWAP2 SWAP1 PUSH3 0x293 JUMP JUMPDEST DUP2 PUSH1 0x0 DUP1 PUSH2 0x100 EXP DUP2 SLOAD DUP2 PUSH20 0xFFFFFFFFFFFFFFFFFFFFFFFFFFFFFFFFFFFFFFFF MUL NOT AND SWAP1 DUP4 PUSH20 0xFFFFFFFFFFFFFFFFFFFFFFFFFFFFFFFFFFFFFFFF AND MUL OR SWAP1 SSTORE POP DUP1 PUSH1 0x1 SWAP1 DUP2 PUSH3 0x88 SWAP2 SWAP1 PUSH3 0x544 JUMP JUMPDEST POP POP POP PUSH3 0x62B JUMP JUMPDEST PUSH1 0x0 PUSH1 0x40 MLOAD SWAP1 POP SWAP1 JUMP JUMPDEST PUSH1 0x0 DUP1 REVERT JUMPDEST PUSH1 0x0 DUP1 REVERT JUMPDEST PUSH1 0x0 PUSH20 0xFFFFFFFFFFFFFFFFFFFFFFFFFFFFFFFFFFFFFFFF DUP3 AND SWAP1 POP SWAP2 SWAP1 POP JUMP JUMPDEST PUSH1 0x0 PUSH3 0xD2 DUP3 PUSH3 0xA5 JUMP JUMPDEST SWAP1 POP SWAP2 SWAP1 POP JUMP JUMPDEST PUSH3 0xE4 DUP2 PUSH3 0xC5 JUMP JUMPDEST DUP2 EQ PUSH3 0xF0 JUMPI PUSH1 0x0 DUP1 REVERT JUMPDEST POP JUMP JUMPDEST PUSH1 0x0 DUP2 MLOAD SWAP1 POP PUSH3 0x104 DUP2 PUSH3 0xD9 JUMP JUMPDEST SWAP3 SWAP2 POP POP JUMP JUMPDEST PUSH1 0x0 DUP1 REVERT JUMPDEST PUSH1 0x0 DUP1 REVERT JUMPDEST PUSH1 0x0 PUSH1 0x1F NOT PUSH1 0x1F DUP4 ADD AND SWAP1 POP SWAP2 SWAP1 POP JUMP JUMPDEST PUSH32 0x4E487B7100000000000000000000000000000000000000000000000000000000 PUSH1 0x0 MSTORE PUSH1 0x41 PUSH1 0x4 MSTORE PUSH1 0x24 PUSH1 0x0 REVERT JUMPDEST PUSH3 0x15F DUP3 PUSH3 0x114 JUMP JUMPDEST DUP2 ADD DUP2 DUP2 LT PUSH8 0xFFFFFFFFFFFFFFFF DUP3 GT OR ISZERO PUSH3 0x181 JUMPI PUSH3 0x180 PUSH3 0x125 JUMP JUMPDEST JUMPDEST DUP1 PUSH1 0x40 MSTORE POP POP POP JUMP JUMPDEST PUSH1 0x0 PUSH3 0x196 PUSH3 0x91 JUMP JUMPDEST SWAP1 POP PUSH3 0x1A4 DUP3 DUP3 PUSH3 0x154 JUMP JUMPDEST SWAP2 SWAP1 POP JUMP JUMPDEST PUSH1 0x0 PUSH8 0xFFFFFFFFFFFFFFFF DUP3 GT ISZERO PUSH3 0x1C7 JUMPI PUSH3 0x1C6 PUSH3 0x125 JUMP JUMPDEST JUMPDEST PUSH3 0x1D2 DUP3 PUSH3 0x114 JUMP JUMPDEST SWAP1 POP PUSH1 0x20 DUP2 ADD SWAP1 POP SWAP2 SWAP1 POP JUMP JUMPDEST PUSH1 0x0 JUMPDEST DUP4 DUP2 LT ISZERO PUSH3 0x1FF JUMPI DUP1 DUP3 ADD MLOAD DUP2 DUP5 ADD MSTORE PUSH1 0x20 DUP2 ADD SWAP1 POP PUSH3 0x1E2 JUMP JUMPDEST DUP4 DUP2 GT ISZERO PUSH3 0x20F JUMPI PUSH1 0x0 DUP5 DUP5 ADD MSTORE JUMPDEST POP POP POP POP JUMP JUMPDEST PUSH1 0x0 PUSH3 0x22C PUSH3 0x226 DUP5 PUSH3 0x1A9 JUMP JUMPDEST PUSH3 0x18A JUMP JUMPDEST SWAP1 POP DUP3 DUP2 MSTORE PUSH1 0x20 DUP2 ADD DUP5 DUP5 DUP5 ADD GT ISZERO PUSH3 0x24B JUMPI PUSH3 0x24A PUSH3 0x10F JUMP JUMPDEST JUMPDEST PUSH3 0x258 DUP5 DUP3 DUP6 PUSH3 0x1DF JUMP JUMPDEST POP SWAP4 SWAP3 POP POP POP JUMP JUMPDEST PUSH1 0x0 DUP3 PUSH1 0x1F DUP4 ADD SLT PUSH3 0x278 JUMPI PUSH3 0x277 PUSH3 0x10A JUMP JUMPDEST JUMPDEST DUP2 MLOAD PUSH3 0x28A DUP5 DUP3 PUSH1 0x20 DUP7 ADD PUSH3 0x215 JUMP JUMPDEST SWAP2 POP POP SWAP3 SWAP2 POP POP JUMP JUMPDEST PUSH1 0x0 DUP1 PUSH1 0x40 DUP4 DUP6 SUB SLT ISZERO PUSH3 0x2AD JUMPI PUSH3 0x2AC PUSH3 0x9B JUMP JUMPDEST JUMPDEST PUSH1 0x0 PUSH3 0x2BD DUP6 DUP3 DUP7 ADD PUSH3 0xF3 JUMP JUMPDEST SWAP3 POP POP PUSH1 0x20 DUP4 ADD MLOAD PUSH8 0xFFFFFFFFFFFFFFFF DUP2 GT ISZERO PUSH3 0x2E1 JUMPI PUSH3 0x2E0 PUSH3 0xA0 JUMP JUMPDEST JUMPDEST PUSH3 0x2EF DUP6 DUP3 DUP7 ADD PUSH3 0x260 JUMP JUMPDEST SWAP2 POP POP SWAP3 POP SWAP3 SWAP1 POP JUMP JUMPDEST PUSH1 0x0 DUP2 MLOAD SWAP1 POP SWAP2 SWAP1 POP JUMP JUMPDEST PUSH32 0x4E487B7100000000000000000000000000000000000000000000000000000000 PUSH1 0x0 MSTORE PUSH1 0x22 PUSH1 0x4 MSTORE PUSH1 0x24 PUSH1 0x0 REVERT JUMPDEST PUSH1 0x0 PUSH1 0x2 DUP3 DIV SWAP1 POP PUSH1 0x1 DUP3 AND DUP1 PUSH3 0x34C JUMPI PUSH1 0x7F DUP3 AND SWAP2 POP JUMPDEST PUSH1 0x20 DUP3 LT DUP2 SUB PUSH3 0x362 JUMPI PUSH3 0x361 PUSH3 0x304 JUMP JUMPDEST JUMPDEST POP SWAP2 SWAP1 POP JUMP JUMPDEST PUSH1 0x0 DUP2 SWAP1 POP DUP2 PUSH1 0x0 MSTORE PUSH1 0x20 PUSH1 0x0 KECCAK256 SWAP1 POP SWAP2 SWAP1 POP JUMP JUMPDEST PUSH1 0x0 PUSH1 0x20 PUSH1 0x1F DUP4 ADD DIV SWAP1 POP SWAP2 SWAP1 POP JUMP JUMPDEST PUSH1 0x0 DUP3 DUP3 SHL SWAP1 POP SWAP3 SWAP2 POP POP JUMP JUMPDEST PUSH1 0x0 PUSH1 0x8 DUP4 MUL PUSH3 0x3CC PUSH32 0xFFFFFFFFFFFFFFFFFFFFFFFFFFFFFFFFFFFFFFFFFFFFFFFFFFFFFFFFFFFFFFFF DUP3 PUSH3 0x38D JUMP JUMPDEST PUSH3 0x3D8 DUP7 DUP4 PUSH3 0x38D JUMP JUMPDEST SWAP6 POP DUP1 NOT DUP5 AND SWAP4 POP DUP1 DUP7 AND DUP5 OR SWAP3 POP POP POP SWAP4 SWAP3 POP POP POP JUMP JUMPDEST PUSH1 0x0 DUP2 SWAP1 POP SWAP2 SWAP1 POP JUMP JUMPDEST PUSH1 0x0 DUP2 SWAP1 POP SWAP2 SWAP1 POP JUMP JUMPDEST PUSH1 0x0 PUSH3 0x425 PUSH3 0x41F PUSH3 0x419 DUP5 PUSH3 0x3F0 JUMP JUMPDEST PUSH3 0x3FA JUMP JUMPDEST PUSH3 0x3F0 JUMP JUMPDEST SWAP1 POP SWAP2 SWAP1 POP JUMP JUMPDEST PUSH1 0x0 DUP2 SWAP1 POP SWAP2 SWAP1 POP JUMP JUMPDEST PUSH3 0x441 DUP4 PUSH3 0x404 JUMP JUMPDEST PUSH3 0x459 PUSH3 0x450 DUP3 PUSH3 0x42C JUMP JUMPDEST DUP5 DUP5 SLOAD PUSH3 0x39A JUMP JUMPDEST DUP3 SSTORE POP POP POP POP JUMP JUMPDEST PUSH1 0x0 SWAP1 JUMP JUMPDEST PUSH3 0x470 PUSH3 0x461 JUMP JUMPDEST PUSH3 0x47D DUP2 DUP5 DUP5 PUSH3 0x436 JUMP JUMPDEST POP POP POP JUMP JUMPDEST JUMPDEST DUP2 DUP2 LT ISZERO PUSH3 0x4A5 JUMPI PUSH3 0x499 PUSH1 0x0 DUP3 PUSH3 0x466 JUMP JUMPDEST PUSH1 0x1 DUP2 ADD SWAP1 POP PUSH3 0x483 JUMP JUMPDEST POP POP JUMP JUMPDEST PUSH1 0x1F DUP3 GT ISZERO PUSH3 0x4F4 JUMPI PUSH3 0x4BE DUP2 PUSH3 0x368 JUMP JUMPDEST PUSH3 0x4C9 DUP5 PUSH3 0x37D JUMP JUMPDEST DUP2 ADD PUSH1 0x20 DUP6 LT ISZERO PUSH3 0x4D9 JUMPI DUP2 SWAP1 POP JUMPDEST PUSH3 0x4F1 PUSH3 0x4E8 DUP6 PUSH3 0x37D JUMP JUMPDEST DUP4 ADD DUP3 PUSH3 0x482 JUMP JUMPDEST POP POP JUMPDEST POP POP POP JUMP JUMPDEST PUSH1 0x0 DUP3 DUP3 SHR SWAP1 POP SWAP3 SWAP2 POP POP JUMP JUMPDEST PUSH1 0x0 PUSH3 0x519 PUSH1 0x0 NOT DUP5 PUSH1 0x8 MUL PUSH3 0x4F9 JUMP JUMPDEST NOT DUP1 DUP4 AND SWAP2 POP POP SWAP3 SWAP2 POP POP JUMP JUMPDEST PUSH1 0x0 PUSH3 0x534 DUP4 DUP4 PUSH3 0x506 JUMP JUMPDEST SWAP2 POP DUP3 PUSH1 0x2 MUL DUP3 OR SWAP1 POP SWAP3 SWAP2 POP POP JUMP JUMPDEST PUSH3 0x54F DUP3 PUSH3 0x2F9 JUMP JUMPDEST PUSH8 0xFFFFFFFFFFFFFFFF DUP2 GT ISZERO PUSH3 0x56B JUMPI PUSH3 0x56A PUSH3 0x125 JUMP JUMPDEST JUMPDEST PUSH3 0x577 DUP3 SLOAD PUSH3 0x333 JUMP JUMPDEST PUSH3 0x584 DUP3 DUP3 DUP6 PUSH3 0x4A9 JUMP JUMPDEST PUSH1 0x0 PUSH1 0x20 SWAP1 POP PUSH1 0x1F DUP4 GT PUSH1 0x1 DUP2 EQ PUSH3 0x5BC JUMPI PUSH1 0x0 DUP5 ISZERO PUSH3 0x5A7 JUMPI DUP3 DUP8 ADD MLOAD SWAP1 POP JUMPDEST PUSH3 0x5B3 DUP6 DUP3 PUSH3 0x526 JUMP JUMPDEST DUP7 SSTORE POP PUSH3 0x623 JUMP JUMPDEST PUSH1 0x1F NOT DUP5 AND PUSH3 0x5CC DUP7 PUSH3 0x368 JUMP JUMPDEST PUSH1 0x0 JUMPDEST DUP3 DUP2 LT ISZERO PUSH3 0x5F6 JUMPI DUP5 DUP10 ADD MLOAD DUP3 SSTORE PUSH1 0x1 DUP3 ADD SWAP2 POP PUSH1 0x20 DUP6 ADD SWAP5 POP PUSH1 0x20 DUP2 ADD SWAP1 POP PUSH3 0x5CF JUMP JUMPDEST DUP7 DUP4 LT ISZERO PUSH3 0x616 JUMPI DUP5 DUP10 ADD MLOAD PUSH3 0x612 PUSH1 0x1F DUP10 AND DUP3 PUSH3 0x506 JUMP JUMPDEST DUP4 SSTORE POP JUMPDEST PUSH1 0x1 PUSH1 0x2 DUP9 MUL ADD DUP9 SSTORE POP POP POP JUMPDEST POP POP POP POP POP POP JUMP JUMPDEST PUSH2 0xA8D DUP1 PUSH3 0x63B PUSH1 0x0 CODECOPY PUSH1 0x0 RETURN INVALID PUSH1 0x80 PUSH1 0x40 MSTORE PUSH1 0x4 CALLDATASIZE LT PUSH2 0x4A JUMPI PUSH1 0x0 CALLDATALOAD PUSH1 0xE0 SHR DUP1 PUSH4 0x12065FE0 EQ PUSH2 0x4F JUMPI DUP1 PUSH4 0x893D20E8 EQ PUSH2 0x7A JUMPI DUP1 PUSH4 0xA9059CBB EQ PUSH2 0xA5 JUMPI DUP1 PUSH4 0xD0E30DB0 EQ PUSH2 0xD5 JUMPI DUP1 PUSH4 0xE6B43D01 EQ PUSH2 0xF3 JUMPI JUMPDEST PUSH1 0x0 DUP1 REVERT JUMPDEST CALLVALUE DUP1 ISZERO PUSH2 0x5B JUMPI PUSH1 0x0 DUP1 REVERT JUMPDEST POP PUSH2 0x64 PUSH2 0x130 JUMP JUMPDEST PUSH1 0x40 MLOAD PUSH2 0x71 SWAP2 SWAP1 PUSH2 0x52F JUMP JUMPDEST PUSH1 0x40 MLOAD DUP1 SWAP2 SUB SWAP1 RETURN JUMPDEST CALLVALUE DUP1 ISZERO PUSH2 0x86 JUMPI PUSH1 0x0 DUP1 REVERT JUMPDEST POP PUSH2 0x8F PUSH2 0x138 JUMP JUMPDEST PUSH1 0x40 MLOAD PUSH2 0x9C SWAP2 SWAP1 PUSH2 0x58B JUMP JUMPDEST PUSH1 0x40 MLOAD DUP1 SWAP2 SUB SWAP1 RETURN JUMPDEST PUSH2 0xBF PUSH1 0x4 DUP1 CALLDATASIZE SUB DUP2 ADD SWAP1 PUSH2 0xBA SWAP2 SWAP1 PUSH2 0x615 JUMP JUMPDEST PUSH2 0x161 JUMP JUMPDEST PUSH1 0x40 MLOAD PUSH2 0xCC SWAP2 SWAP1 PUSH2 0x6EE JUMP JUMPDEST PUSH1 0x40 MLOAD DUP1 SWAP2 SUB SWAP1 RETURN JUMPDEST PUSH2 0xDD PUSH2 0x2FC JUMP JUMPDEST PUSH1 0x40 MLOAD PUSH2 0xEA SWAP2 SWAP1 PUSH2 0x6EE JUMP JUMPDEST PUSH1 0x40 MLOAD DUP1 SWAP2 SUB SWAP1 RETURN JUMPDEST CALLVALUE DUP1 ISZERO PUSH2 0xFF JUMPI PUSH1 0x0 DUP1 REVERT JUMPDEST POP PUSH2 0x11A PUSH1 0x4 DUP1 CALLDATASIZE SUB DUP2 ADD SWAP1 PUSH2 0x115 SWAP2 SWAP1 PUSH2 0x710 JUMP JUMPDEST PUSH2 0x37C JUMP JUMPDEST PUSH1 0x40 MLOAD PUSH2 0x127 SWAP2 SWAP1 PUSH2 0x6EE JUMP JUMPDEST PUSH1 0x40 MLOAD DUP1 SWAP2 SUB SWAP1 RETURN JUMPDEST PUSH1 0x0 SELFBALANCE SWAP1 POP SWAP1 JUMP JUMPDEST PUSH1 0x0 DUP1 PUSH1 0x0 SWAP1 SLOAD SWAP1 PUSH2 0x100 EXP SWAP1 DIV PUSH20 0xFFFFFFFFFFFFFFFFFFFFFFFFFFFFFFFFFFFFFFFF AND SWAP1 POP SWAP1 JUMP JUMPDEST PUSH1 0x60 CALLER PUSH20 0xFFFFFFFFFFFFFFFFFFFFFFFFFFFFFFFFFFFFFFFF AND PUSH1 0x0 DUP1 SLOAD SWAP1 PUSH2 0x100 EXP SWAP1 DIV PUSH20 0xFFFFFFFFFFFFFFFFFFFFFFFFFFFFFFFFFFFFFFFF AND PUSH20 0xFFFFFFFFFFFFFFFFFFFFFFFFFFFFFFFFFFFFFFFF AND EQ PUSH2 0x1F1 JUMPI PUSH1 0x40 MLOAD PUSH32 0x8C379A000000000000000000000000000000000000000000000000000000000 DUP2 MSTORE PUSH1 0x4 ADD PUSH2 0x1E8 SWAP1 PUSH2 0x789 JUMP JUMPDEST PUSH1 0x40 MLOAD DUP1 SWAP2 SUB SWAP1 REVERT JUMPDEST PUSH1 0x0 DUP3 GT PUSH2 0x234 JUMPI PUSH1 0x40 MLOAD PUSH32 0x8C379A000000000000000000000000000000000000000000000000000000000 DUP2 MSTORE PUSH1 0x4 ADD PUSH2 0x22B SWAP1 PUSH2 0x7F5 JUMP JUMPDEST PUSH1 0x40 MLOAD DUP1 SWAP2 SUB SWAP1 REVERT JUMPDEST DUP2 SELFBALANCE LT ISZERO PUSH2 0x277 JUMPI PUSH1 0x40 MLOAD PUSH32 0x8C379A000000000000000000000000000000000000000000000000000000000 DUP2 MSTORE PUSH1 0x4 ADD PUSH2 0x26E SWAP1 PUSH2 0x861 JUMP JUMPDEST PUSH1 0x40 MLOAD DUP1 SWAP2 SUB SWAP1 REVERT JUMPDEST DUP3 PUSH20 0xFFFFFFFFFFFFFFFFFFFFFFFFFFFFFFFFFFFFFFFF AND PUSH2 0x8FC DUP4 SWAP1 DUP2 ISZERO MUL SWAP1 PUSH1 0x40 MLOAD PUSH1 0x0 PUSH1 0x40 MLOAD DUP1 DUP4 SUB DUP2 DUP6 DUP9 DUP9 CALL SWAP4 POP POP POP POP ISZERO DUP1 ISZERO PUSH2 0x2BD JUMPI RETURNDATASIZE PUSH1 0x0 DUP1 RETURNDATACOPY RETURNDATASIZE PUSH1 0x0 REVERT JUMPDEST POP PUSH1 0x40 MLOAD DUP1 PUSH1 0x40 ADD PUSH1 0x40 MSTORE DUP1 PUSH1 0x10 DUP2 MSTORE PUSH1 0x20 ADD PUSH32 0x7472616E736665725F7375636365737300000000000000000000000000000000 DUP2 MSTORE POP SWAP1 POP SWAP3 SWAP2 POP POP JUMP JUMPDEST PUSH1 0x60 PUSH1 0x0 CALLVALUE GT PUSH2 0x341 JUMPI PUSH1 0x40 MLOAD PUSH32 0x8C379A000000000000000000000000000000000000000000000000000000000 DUP2 MSTORE PUSH1 0x4 ADD PUSH2 0x338 SWAP1 PUSH2 0x8CD JUMP JUMPDEST PUSH1 0x40 MLOAD DUP1 SWAP2 SUB SWAP1 REVERT JUMPDEST PUSH1 0x40 MLOAD DUP1 PUSH1 0x40 ADD PUSH1 0x40 MSTORE DUP1 PUSH1 0xF DUP2 MSTORE PUSH1 0x20 ADD PUSH32 0x6465706F7369745F737563636573730000000000000000000000000000000000 DUP2 MSTORE POP SWAP1 POP SWAP1 JUMP JUMPDEST PUSH1 0x60 CALLER PUSH20 0xFFFFFFFFFFFFFFFFFFFFFFFFFFFFFFFFFFFFFFFF AND PUSH1 0x0 DUP1 SLOAD SWAP1 PUSH2 0x100 EXP SWAP1 DIV PUSH20 0xFFFFFFFFFFFFFFFFFFFFFFFFFFFFFFFFFFFFFFFF AND PUSH20 0xFFFFFFFFFFFFFFFFFFFFFFFFFFFFFFFFFFFFFFFF AND EQ PUSH2 0x40C JUMPI PUSH1 0x40 MLOAD PUSH32 0x8C379A000000000000000000000000000000000000000000000000000000000 DUP2 MSTORE PUSH1 0x4 ADD PUSH2 0x403 SWAP1 PUSH2 0x939 JUMP JUMPDEST PUSH1 0x40 MLOAD DUP1 SWAP2 SUB SWAP1 REVERT JUMPDEST PUSH1 0x0 DUP3 GT PUSH2 0x44F JUMPI PUSH1 0x40 MLOAD PUSH32 0x8C379A000000000000000000000000000000000000000000000000000000000 DUP2 MSTORE PUSH1 0x4 ADD PUSH2 0x446 SWAP1 PUSH2 0x9A5 JUMP JUMPDEST PUSH1 0x40 MLOAD DUP1 SWAP2 SUB SWAP1 REVERT JUMPDEST DUP2 SELFBALANCE LT ISZERO PUSH2 0x492 JUMPI PUSH1 0x40 MLOAD PUSH32 0x8C379A000000000000000000000000000000000000000000000000000000000 DUP2 MSTORE PUSH1 0x4 ADD PUSH2 0x489 SWAP1 PUSH2 0xA37 JUMP JUMPDEST PUSH1 0x40 MLOAD DUP1 SWAP2 SUB SWAP1 REVERT JUMPDEST CALLER PUSH20 0xFFFFFFFFFFFFFFFFFFFFFFFFFFFFFFFFFFFFFFFF AND PUSH2 0x8FC DUP4 SWAP1 DUP2 ISZERO MUL SWAP1 PUSH1 0x40 MLOAD PUSH1 0x0 PUSH1 0x40 MLOAD DUP1 DUP4 SUB DUP2 DUP6 DUP9 DUP9 CALL SWAP4 POP POP POP POP ISZERO DUP1 ISZERO PUSH2 0x4D8 JUMPI RETURNDATASIZE PUSH1 0x0 DUP1 RETURNDATACOPY RETURNDATASIZE PUSH1 0x0 REVERT JUMPDEST POP PUSH1 0x40 MLOAD DUP1 PUSH1 0x40 ADD PUSH1 0x40 MSTORE DUP1 PUSH1 0x11 DUP2 MSTORE PUSH1 0x20 ADD PUSH32 0x77697468647261776E5F73756363657373000000000000000000000000000000 DUP2 MSTORE POP SWAP1 POP SWAP2 SWAP1 POP JUMP JUMPDEST PUSH1 0x0 DUP2 SWAP1 POP SWAP2 SWAP1 POP JUMP JUMPDEST PUSH2 0x529 DUP2 PUSH2 0x516 JUMP JUMPDEST DUP3 MSTORE POP POP JUMP JUMPDEST PUSH1 0x0 PUSH1 0x20 DUP3 ADD SWAP1 POP PUSH2 0x544 PUSH1 0x0 DUP4 ADD DUP5 PUSH2 0x520 JUMP JUMPDEST SWAP3 SWAP2 POP POP JUMP JUMPDEST PUSH1 0x0 PUSH20 0xFFFFFFFFFFFFFFFFFFFFFFFFFFFFFFFFFFFFFFFF DUP3 AND SWAP1 POP SWAP2 SWAP1 POP JUMP JUMPDEST PUSH1 0x0 PUSH2 0x575 DUP3 PUSH2 0x54A JUMP JUMPDEST SWAP1 POP SWAP2 SWAP1 POP JUMP JUMPDEST PUSH2 0x585 DUP2 PUSH2 0x56A JUMP JUMPDEST DUP3 MSTORE POP POP JUMP JUMPDEST PUSH1 0x0 PUSH1 0x20 DUP3 ADD SWAP1 POP PUSH2 0x5A0 PUSH1 0x0 DUP4 ADD DUP5 PUSH2 0x57C JUMP JUMPDEST SWAP3 SWAP2 POP POP JUMP JUMPDEST PUSH1 0x0 DUP1 REVERT JUMPDEST PUSH1 0x0 PUSH2 0x5B6 DUP3 PUSH2 0x54A JUMP JUMPDEST SWAP1 POP SWAP2 SWAP1 POP JUMP JUMPDEST PUSH2 0x5C6 DUP2 PUSH2 0x5AB JUMP JUMPDEST DUP2 EQ PUSH2 0x5D1 JUMPI PUSH1 0x0 DUP1 REVERT JUMPDEST POP JUMP JUMPDEST PUSH1 0x0 DUP2 CALLDATALOAD SWAP1 POP PUSH2 0x5E3 DUP2 PUSH2 0x5BD JUMP JUMPDEST SWAP3 SWAP2 POP POP JUMP JUMPDEST PUSH2 0x5F2 DUP2 PUSH2 0x516 JUMP JUMPDEST DUP2 EQ PUSH2 0x5FD JUMPI PUSH1 0x0 DUP1 REVERT JUMPDEST POP JUMP JUMPDEST PUSH1 0x0 DUP2 CALLDATALOAD SWAP1 POP PUSH2 0x60F DUP2 PUSH2 0x5E9 JUMP JUMPDEST SWAP3 SWAP2 POP POP JUMP JUMPDEST PUSH1 0x0 DUP1 PUSH1 0x40 DUP4 DUP6 SUB SLT ISZERO PUSH2 0x62C JUMPI PUSH2 0x62B PUSH2 0x5A6 JUMP JUMPDEST JUMPDEST PUSH1 0x0 PUSH2 0x63A DUP6 DUP3 DUP7 ADD PUSH2 0x5D4 JUMP JUMPDEST SWAP3 POP POP PUSH1 0x20 PUSH2 0x64B DUP6 DUP3 DUP7 ADD PUSH2 0x600 JUMP JUMPDEST SWAP2 POP POP SWAP3 POP SWAP3 SWAP1 POP JUMP JUMPDEST PUSH1 0x0 DUP2 MLOAD SWAP1 POP SWAP2 SWAP1 POP JUMP JUMPDEST PUSH1 0x0 DUP3 DUP3 MSTORE PUSH1 0x20 DUP3 ADD SWAP1 POP SWAP3 SWAP2 POP POP JUMP JUMPDEST PUSH1 0x0 JUMPDEST DUP4 DUP2 LT ISZERO PUSH2 0x68F JUMPI DUP1 DUP3 ADD MLOAD DUP2 DUP5 ADD MSTORE PUSH1 0x20 DUP2 ADD SWAP1 POP PUSH2 0x674 JUMP JUMPDEST DUP4 DUP2 GT ISZERO PUSH2 0x69E JUMPI PUSH1 0x0 DUP5 DUP5 ADD MSTORE JUMPDEST POP POP POP POP JUMP JUMPDEST PUSH1 0x0 PUSH1 0x1F NOT PUSH1 0x1F DUP4 ADD AND SWAP1 POP SWAP2 SWAP1 POP JUMP JUMPDEST PUSH1 0x0 PUSH2 0x6C0 DUP3 PUSH2 0x655 JUMP JUMPDEST PUSH2 0x6CA DUP2 DUP6 PUSH2 0x660 JUMP JUMPDEST SWAP4 POP PUSH2 0x6DA DUP2 DUP6 PUSH1 0x20 DUP7 ADD PUSH2 0x671 JUMP JUMPDEST PUSH2 0x6E3 DUP2 PUSH2 0x6A4 JUMP JUMPDEST DUP5 ADD SWAP2 POP POP SWAP3 SWAP2 POP POP JUMP JUMPDEST PUSH1 0x0 PUSH1 0x20 DUP3 ADD SWAP1 POP DUP2 DUP2 SUB PUSH1 0x0 DUP4 ADD MSTORE PUSH2 0x708 DUP2 DUP5 PUSH2 0x6B5 JUMP JUMPDEST SWAP1 POP SWAP3 SWAP2 POP POP JUMP JUMPDEST PUSH1 0x0 PUSH1 0x20 DUP3 DUP5 SUB SLT ISZERO PUSH2 0x726 JUMPI PUSH2 0x725 PUSH2 0x5A6 JUMP JUMPDEST JUMPDEST PUSH1 0x0 PUSH2 0x734 DUP5 DUP3 DUP6 ADD PUSH2 0x600 JUMP JUMPDEST SWAP2 POP POP SWAP3 SWAP2 POP POP JUMP JUMPDEST PUSH32 0x7472616E736665725F6661696C5F6E6F745F6F776E6572000000000000000000 PUSH1 0x0 DUP3 ADD MSTORE POP JUMP JUMPDEST PUSH1 0x0 PUSH2 0x773 PUSH1 0x17 DUP4 PUSH2 0x660 JUMP JUMPDEST SWAP2 POP PUSH2 0x77E DUP3 PUSH2 0x73D JUMP JUMPDEST PUSH1 0x20 DUP3 ADD SWAP1 POP SWAP2 SWAP1 POP JUMP JUMPDEST PUSH1 0x0 PUSH1 0x20 DUP3 ADD SWAP1 POP DUP2 DUP2 SUB PUSH1 0x0 DUP4 ADD MSTORE PUSH2 0x7A2 DUP2 PUSH2 0x766 JUMP JUMPDEST SWAP1 POP SWAP2 SWAP1 POP JUMP JUMPDEST PUSH32 0x7472616E736665725F6661696C5F76616C75655F7A65726F0000000000000000 PUSH1 0x0 DUP3 ADD MSTORE POP JUMP JUMPDEST PUSH1 0x0 PUSH2 0x7DF PUSH1 0x18 DUP4 PUSH2 0x660 JUMP JUMPDEST SWAP2 POP PUSH2 0x7EA DUP3 PUSH2 0x7A9 JUMP JUMPDEST PUSH1 0x20 DUP3 ADD SWAP1 POP SWAP2 SWAP1 POP JUMP JUMPDEST PUSH1 0x0 PUSH1 0x20 DUP3 ADD SWAP1 POP DUP2 DUP2 SUB PUSH1 0x0 DUP4 ADD MSTORE PUSH2 0x80E DUP2 PUSH2 0x7D2 JUMP JUMPDEST SWAP1 POP SWAP2 SWAP1 POP JUMP JUMPDEST PUSH32 0x7472616E736665725F6661696C5F62616C616E63655F6E6F745F656E6F756768 PUSH1 0x0 DUP3 ADD MSTORE POP JUMP JUMPDEST PUSH1 0x0 PUSH2 0x84B PUSH1 0x20 DUP4 PUSH2 0x660 JUMP JUMPDEST SWAP2 POP PUSH2 0x856 DUP3 PUSH2 0x815 JUMP JUMPDEST PUSH1 0x20 DUP3 ADD SWAP1 POP SWAP2 SWAP1 POP JUMP JUMPDEST PUSH1 0x0 PUSH1 0x20 DUP3 ADD SWAP1 POP DUP2 DUP2 SUB PUSH1 0x0 DUP4 ADD MSTORE PUSH2 0x87A DUP2 PUSH2 0x83E JUMP JUMPDEST SWAP1 POP SWAP2 SWAP1 POP JUMP JUMPDEST PUSH32 0x6465706F7369745F6661696C5F76616C75655F7A65726F000000000000000000 PUSH1 0x0 DUP3 ADD MSTORE POP JUMP JUMPDEST PUSH1 0x0 PUSH2 0x8B7 PUSH1 0x17 DUP4 PUSH2 0x660 JUMP JUMPDEST SWAP2 POP PUSH2 0x8C2 DUP3 PUSH2 0x881 JUMP JUMPDEST PUSH1 0x20 DUP3 ADD SWAP1 POP SWAP2 SWAP1 POP JUMP JUMPDEST PUSH1 0x0 PUSH1 0x20 DUP3 ADD SWAP1 POP DUP2 DUP2 SUB PUSH1 0x0 DUP4 ADD MSTORE PUSH2 0x8E6 DUP2 PUSH2 0x8AA JUMP JUMPDEST SWAP1 POP SWAP2 SWAP1 POP JUMP JUMPDEST PUSH32 0x77697468647261776E5F6661696C5F6E6F745F6F776E65720000000000000000 PUSH1 0x0 DUP3 ADD MSTORE POP JUMP JUMPDEST PUSH1 0x0 PUSH2 0x923 PUSH1 0x18 DUP4 PUSH2 0x660 JUMP JUMPDEST SWAP2 POP PUSH2 0x92E DUP3 PUSH2 0x8ED JUMP JUMPDEST PUSH1 0x20 DUP3 ADD SWAP1 POP SWAP2 SWAP1 POP JUMP JUMPDEST PUSH1 0x0 PUSH1 0x20 DUP3 ADD SWAP1 POP DUP2 DUP2 SUB PUSH1 0x0 DUP4 ADD MSTORE PUSH2 0x952 DUP2 PUSH2 0x916 JUMP JUMPDEST SWAP1 POP SWAP2 SWAP1 POP JUMP JUMPDEST PUSH32 0x77697468647261776E5F6661696C5F76616C75655F7A65726F00000000000000 PUSH1 0x0 DUP3 ADD MSTORE POP JUMP JUMPDEST PUSH1 0x0 PUSH2 0x98F PUSH1 0x19 DUP4 PUSH2 0x660 JUMP JUMPDEST SWAP2 POP PUSH2 0x99A DUP3 PUSH2 0x959 JUMP JUMPDEST PUSH1 0x20 DUP3 ADD SWAP1 POP SWAP2 SWAP1 POP JUMP JUMPDEST PUSH1 0x0 PUSH1 0x20 DUP3 ADD SWAP1 POP DUP2 DUP2 SUB PUSH1 0x0 DUP4 ADD MSTORE PUSH2 0x9BE DUP2 PUSH2 0x982 JUMP JUMPDEST SWAP1 POP SWAP2 SWAP1 POP JUMP JUMPDEST PUSH32 0x77697468647261776E5F6661696C5F62616C616E63655F6E6F745F656E6F7567 PUSH1 0x0 DUP3 ADD MSTORE PUSH32 0x6800000000000000000000000000000000000000000000000000000000000000 PUSH1 0x20 DUP3 ADD MSTORE POP JUMP JUMPDEST PUSH1 0x0 PUSH2 0xA21 PUSH1 0x21 DUP4 PUSH2 0x660 JUMP JUMPDEST SWAP2 POP PUSH2 0xA2C DUP3 PUSH2 0x9C5 JUMP JUMPDEST PUSH1 0x40 DUP3 ADD SWAP1 POP SWAP2 SWAP1 POP JUMP JUMPDEST PUSH1 0x0 PUSH1 0x20 DUP3 ADD SWAP1 POP DUP2 DUP2 SUB PUSH1 0x0 DUP4 ADD MSTORE PUSH2 0xA50 DUP2 PUSH2 0xA14 JUMP JUMPDEST SWAP1 POP SWAP2 SWAP1 POP JUMP INVALID LOG2 PUSH5 0x6970667358 0x22 SLT KECCAK256 0x2A COINBASE 0xD1 SWAP9 SELFDESTRUCT 0xD9 0xAB 0xDB 0xE1 0xA9 0xA6 0xE3 ISZERO DUP10 0x27 PUSH4 0xA7C520EA SWAP14 DUP11 CALLVALUE 0xF7 0xC4 GASPRICE ORIGIN JUMP COINBASE DUP13 0xFC RETURN PUSH5 0x736F6C6343 STOP ADDMOD 0xF STOP CALLER LOG2 PUSH5 0x6970667358 0x22 SLT KECCAK256 PUSH29 0x7E600888B8077F9910B48CF3F9229B5DCDBAF0D05C9BE4708C8261D180 0xDD BYTE PUSH5 0x736F6C6343 STOP ADDMOD 0xF STOP CALLER "
		},
		"gasEstimates": {
			"creation": {
				"codeDepositCost": "1314400",
				"executionCost": "1369",
				"totalCost": "1315769"
			},
			"external": {
				"addAccount(string)": "infinite",
				"getAccounts()": "infinite"
			}
		},
		"methodIdentifiers": {
			"addAccount(string)": "2ad26a04",
			"getAccounts()": "8a48ac03"
		}
	},
	"abi": [
		{
			"inputs": [
				{
					"internalType": "string",
					"name": "_name",
					"type": "string"
				}
			],
			"name": "addAccount",
			"outputs": [
				{
					"internalType": "string",
					"name": "",
					"type": "string"
				}
			],
			"stateMutability": "nonpayable",
			"type": "function"
		},
		{
			"inputs": [],
			"name": "getAccounts",
			"outputs": [
				{
					"internalType": "contract Account[]",
					"name": "",
					"type": "address[]"
				}
			],
			"stateMutability": "view",
			"type": "function"
		}
	]
}